{
  "_format": "hh-sol-artifact-1",
  "contractName": "Staking",
  "sourceName": "contracts/Staking.sol",
  "abi": [
    {
      "inputs": [
        {
          "internalType": "address",
          "name": "_oaiToken",
          "type": "address"
        }
      ],
      "stateMutability": "nonpayable",
      "type": "constructor"
    },
    {
      "inputs": [
        {
          "internalType": "address",
          "name": "owner",
          "type": "address"
        }
      ],
      "name": "OwnableInvalidOwner",
      "type": "error"
    },
    {
      "inputs": [
        {
          "internalType": "address",
          "name": "account",
          "type": "address"
        }
      ],
      "name": "OwnableUnauthorizedAccount",
      "type": "error"
    },
    {
      "inputs": [],
      "name": "ReentrancyGuardReentrantCall",
      "type": "error"
    },
    {
      "inputs": [
        {
          "internalType": "address",
          "name": "token",
          "type": "address"
        }
      ],
      "name": "SafeERC20FailedOperation",
      "type": "error"
    },
    {
      "anonymous": false,
      "inputs": [
        {
          "indexed": true,
          "internalType": "address",
          "name": "previousOwner",
          "type": "address"
        },
        {
          "indexed": true,
          "internalType": "address",
          "name": "newOwner",
          "type": "address"
        }
      ],
      "name": "OwnershipTransferred",
      "type": "event"
    },
    {
      "anonymous": false,
      "inputs": [
        {
          "indexed": true,
          "internalType": "address",
          "name": "user",
          "type": "address"
        },
        {
          "indexed": false,
          "internalType": "uint256",
          "name": "amount",
          "type": "uint256"
        },
        {
          "indexed": false,
          "internalType": "string",
          "name": "tier",
          "type": "string"
        }
      ],
      "name": "Staked",
      "type": "event"
    },
    {
      "anonymous": false,
      "inputs": [
        {
          "indexed": true,
          "internalType": "address",
          "name": "user",
          "type": "address"
        },
        {
          "indexed": false,
          "internalType": "uint256",
          "name": "amount",
          "type": "uint256"
        }
      ],
      "name": "UnstakeRequested",
      "type": "event"
    },
    {
      "anonymous": false,
      "inputs": [
        {
          "indexed": true,
          "internalType": "address",
          "name": "user",
          "type": "address"
        },
        {
          "indexed": false,
          "internalType": "uint256",
          "name": "amount",
          "type": "uint256"
        }
      ],
      "name": "Unstaked",
      "type": "event"
    },
    {
      "inputs": [],
      "name": "BRONZE_MIN",
      "outputs": [
        {
          "internalType": "uint256",
          "name": "",
          "type": "uint256"
        }
      ],
      "stateMutability": "view",
      "type": "function"
    },
    {
      "inputs": [],
      "name": "DIAMOND_MIN",
      "outputs": [
        {
          "internalType": "uint256",
          "name": "",
          "type": "uint256"
        }
      ],
      "stateMutability": "view",
      "type": "function"
    },
    {
      "inputs": [],
      "name": "GOLD_MIN",
      "outputs": [
        {
          "internalType": "uint256",
          "name": "",
          "type": "uint256"
        }
      ],
      "stateMutability": "view",
      "type": "function"
    },
    {
      "inputs": [],
      "name": "SILVER_MIN",
      "outputs": [
        {
          "internalType": "uint256",
          "name": "",
          "type": "uint256"
        }
      ],
      "stateMutability": "view",
      "type": "function"
    },
    {
      "inputs": [],
      "name": "UNSTAKE_COOLDOWN",
      "outputs": [
        {
          "internalType": "uint256",
          "name": "",
          "type": "uint256"
        }
      ],
      "stateMutability": "view",
      "type": "function"
    },
    {
      "inputs": [
        {
          "internalType": "address",
          "name": "user",
          "type": "address"
        }
      ],
      "name": "getPointsBoost",
      "outputs": [
        {
          "internalType": "uint256",
          "name": "",
          "type": "uint256"
        }
      ],
      "stateMutability": "view",
      "type": "function"
    },
    {
      "inputs": [
        {
          "internalType": "address",
          "name": "user",
          "type": "address"
        }
      ],
      "name": "getReferralBoost",
      "outputs": [
        {
          "internalType": "uint256",
          "name": "",
          "type": "uint256"
        }
      ],
      "stateMutability": "view",
      "type": "function"
    },
    {
      "inputs": [
        {
          "internalType": "address",
          "name": "user",
          "type": "address"
        }
      ],
      "name": "getStakeInfo",
      "outputs": [
        {
          "components": [
            {
              "internalType": "uint256",
              "name": "amount",
              "type": "uint256"
            },
            {
              "internalType": "uint256",
              "name": "stakedAt",
              "type": "uint256"
            },
            {
              "internalType": "uint256",
              "name": "unstakeRequestedAt",
              "type": "uint256"
            },
            {
              "internalType": "uint256",
              "name": "unstakeAmount",
              "type": "uint256"
            }
          ],
          "internalType": "struct Staking.StakeInfo",
          "name": "",
          "type": "tuple"
        }
      ],
      "stateMutability": "view",
      "type": "function"
    },
    {
      "inputs": [
        {
          "internalType": "address",
          "name": "user",
          "type": "address"
        }
      ],
      "name": "getTier",
      "outputs": [
        {
          "internalType": "uint8",
          "name": "",
          "type": "uint8"
        }
      ],
      "stateMutability": "view",
      "type": "function"
    },
    {
      "inputs": [
        {
          "internalType": "address",
          "name": "user",
          "type": "address"
        }
      ],
      "name": "getTierName",
      "outputs": [
        {
          "internalType": "string",
          "name": "",
          "type": "string"
        }
      ],
      "stateMutability": "view",
      "type": "function"
    },
    {
      "inputs": [],
      "name": "oaiToken",
      "outputs": [
        {
          "internalType": "contract IERC20",
          "name": "",
          "type": "address"
        }
      ],
      "stateMutability": "view",
      "type": "function"
    },
    {
      "inputs": [],
      "name": "owner",
      "outputs": [
        {
          "internalType": "address",
          "name": "",
          "type": "address"
        }
      ],
      "stateMutability": "view",
      "type": "function"
    },
    {
      "inputs": [],
      "name": "renounceOwnership",
      "outputs": [],
      "stateMutability": "nonpayable",
      "type": "function"
    },
    {
      "inputs": [
        {
          "internalType": "uint256",
          "name": "amount",
          "type": "uint256"
        }
      ],
      "name": "requestUnstake",
      "outputs": [],
      "stateMutability": "nonpayable",
      "type": "function"
    },
    {
      "inputs": [
        {
          "internalType": "uint256",
          "name": "amount",
          "type": "uint256"
        }
      ],
      "name": "stake",
      "outputs": [],
      "stateMutability": "nonpayable",
      "type": "function"
    },
    {
      "inputs": [
        {
          "internalType": "address",
          "name": "",
          "type": "address"
        }
      ],
      "name": "stakes",
      "outputs": [
        {
          "internalType": "uint256",
          "name": "amount",
          "type": "uint256"
        },
        {
          "internalType": "uint256",
          "name": "stakedAt",
          "type": "uint256"
        },
        {
          "internalType": "uint256",
          "name": "unstakeRequestedAt",
          "type": "uint256"
        },
        {
          "internalType": "uint256",
          "name": "unstakeAmount",
          "type": "uint256"
        }
      ],
      "stateMutability": "view",
      "type": "function"
    },
    {
      "inputs": [],
      "name": "totalStaked",
      "outputs": [
        {
          "internalType": "uint256",
          "name": "",
          "type": "uint256"
        }
      ],
      "stateMutability": "view",
      "type": "function"
    },
    {
      "inputs": [],
      "name": "totalStakers",
      "outputs": [
        {
          "internalType": "uint256",
          "name": "",
          "type": "uint256"
        }
      ],
      "stateMutability": "view",
      "type": "function"
    },
    {
      "inputs": [
        {
          "internalType": "address",
          "name": "newOwner",
          "type": "address"
        }
      ],
      "name": "transferOwnership",
      "outputs": [],
      "stateMutability": "nonpayable",
      "type": "function"
    },
    {
      "inputs": [],
      "name": "unstake",
      "outputs": [],
      "stateMutability": "nonpayable",
      "type": "function"
    }
  ],
  "bytecode": "0x6080346100ea57601f610e1c38819003918201601f19168301916001600160401b038311848410176100ef578084926020946040528339810103126100ea57516001600160a01b0390818116908190036100ea5733156100d15760005460018060a01b0319903382821617600055604051933391167f8be0079c531659141344cd1fd0a4f28419497f9722a3daafe3b4186f6b6457e0600080a360017f9b779b17422d0df92223018b32b4d1fa46e071723d6817e2486d003becc55f00556001541617600155610d1690816101068239f35b604051631e4fbdf760e01b815260006004820152602490fd5b600080fd5b634e487b7160e01b600052604160045260246000fdfe608060408181526004908136101561001657600080fd5b600092833560e01c9081630b60c58f146109125750806316934fc4146108b6578063230957211461080957806325220db7146107e45780632def66201461062b578063647ded05146105fa578063715018a6146105a0578063733d93fc1461057b578063817b1cd21461055c57806382ae17911461053357806386989038146105155780638da5cb5b146104ed5780638e7cb6a5146104b55780639ab1c8b91461046c578063a53d9d3a14610448578063a694fc3a1461028f578063b45aae5214610251578063bb40310f14610229578063c3453153146101905763f2fde38b1461010057600080fd5b3461018c57602036600319011261018c576001600160a01b0382358181169391929084900361018857610131610cb4565b831561017257505082546001600160a01b0319811683178455167f8be0079c531659141344cd1fd0a4f28419497f9722a3daafe3b4186f6b6457e08380a380f35b51631e4fbdf760e01b8152908101849052602490fd5b8480fd5b8280fd5b50903461018c57602036600319011261018c57356001600160a01b0381169081900361018c5782829160809460606101c6610acc565b828152826020820152828682015201528152600260205220906101e7610acc565b90825492838352600181015460208401908152606060036002840154938587019485520154940193845282519485525160208501525190830152516060820152f35b83823461024d578160031936011261024d576020905168056bc75e2d631000008152f35b5080fd5b50903461018c57602036600319011261018c5735916001600160a01b038316830361028c575060ff610284602093610bf9565b915191168152f35b80fd5b5082903461024d576020908160031936011261018c578335916102b0610c72565b6102bb83151561096f565b6001805483516323b872dd60e01b8752338852306024526044869052919491906001600160a01b0316838760648180855af18688511481161561042a575b828652876060521561041657505033855260058252828520805460ff8116156103bf575b5050907f78a806bb7699c94c8bf510c6ae4c7d16f8a7465865bee03d1a5d2c572f7c128b91338652600282528386206103578282546109a9565b90553386526002825242858588200155610373816003546109a9565b60035561039761038233610b22565b8580519485948552840152339583019061092f565b0390a27f9b779b17422d0df92223018b32b4d1fa46e071723d6817e2486d003becc55f005580f35b60ff1916851790558554600019811461040357840190955592938493907f78a806bb7699c94c8bf510c6ae4c7d16f8a7465865bee03d1a5d2c572f7c128b8761031d565b634e487b7160e01b865260118752602486fd5b635274afe760e01b82528188015260249150fd5b8681151661043f57813b15153d1516166102f9565b823d89823e3d90fd5b83823461024d578160031936011261024d5760209051683635c9adc5dea000008152f35b50903461018c57602036600319011261018c5735916001600160a01b038316830361028c575061049e6104b192610b22565b905191829160208352602083019061092f565b0390f35b50903461018c57602036600319011261018c5735916001600160a01b038316830361028c57506104e6602092610a56565b9051908152f35b83823461024d578160031936011261024d57905490516001600160a01b039091168152602090f35b50903461018c578260031936011261018c5760209250549051908152f35b83823461024d578160031936011261024d5760015490516001600160a01b039091168152602090f35b83823461024d578160031936011261024d576020906003549051908152f35b83823461024d578160031936011261024d576020905169021e19e0c9bab24000008152f35b833461028c578060031936011261028c576105b9610cb4565b80546001600160a01b03198116825581906001600160a01b03167f8be0079c531659141344cd1fd0a4f28419497f9722a3daafe3b4186f6b6457e08280a380f35b50903461018c57602036600319011261018c5735916001600160a01b038316830361028c57506104e66020926109d9565b503461018c578260031936011261018c57610644610c72565b338352600260205280832091600383019283549384156107ac576002820191825462093a8081018091116107995742106107645786929181610688888694546109cc565b90555555610698836003546109cc565b600355600154825163a9059cbb60e01b86523383526024859052916001600160a01b039091169060208660448180865af16001875114811615610745575b8385521561073257505050519081527f0f5bb82176feb1b5e747e28471aa92156a04d9f3ab9f45f28e2d704232b93f7560203392a260017f9b779b17422d0df92223018b32b4d1fa46e071723d6817e2486d003becc55f005580f35b635274afe760e01b835282015260249150fd5b600181151661075b57823b15153d1516166106d6565b833d88823e3d90fd5b845162461bcd60e51b8152602081860152600f60248201526e436f6f6c646f776e2061637469766560881b6044820152606490fd5b634e487b7160e01b885260118552602488fd5b835162461bcd60e51b815260208185015260126024820152714e6f20756e7374616b652070656e64696e6760701b6044820152606490fd5b83823461024d578160031936011261024d576020905169152d02c7e14af68000008152f35b503461018c57602036600319011261018c5781359161082983151561096f565b338452600260205282828520541061087f575033835260026020528160038285204260028201550155519081527f828764c21e74c28710e19919735825aba966621c95cbd913f8ed65a2d298f48c60203392a280f35b6020606492519162461bcd60e51b83528201526012602482015271496e73756666696369656e74207374616b6560701b6044820152fd5b50903461018c57602036600319011261018c57356001600160a01b0381169081900361018c5782829160809452600260205220908154916001810154916003600283015492015492815194855260208501528301526060820152f35b84903461024d578160031936011261024d578062093a8060209252f35b919082519283825260005b84811061095b575050826000602080949584010152601f8019910116010190565b60208183018101518483018201520161093a565b1561097657565b60405162461bcd60e51b815260206004820152600b60248201526a16995c9bc8185b5bdd5b9d60aa1b6044820152606490fd5b919082018092116109b657565b634e487b7160e01b600052601160045260246000fd5b919082039182116109b657565b6001600160a01b031660009081526002602052604090205469152d02c7e14af6800000811015610a4f5769021e19e0c9bab2400000811015610a4857683635c9adc5dea00000811015610a415768056bc75e2d631000001115610a3b57600090565b6103e890565b506107d090565b50610dac90565b5061138890565b6001600160a01b031660009081526002602052604090205469152d02c7e14af6800000811015610a415769021e19e0c9bab2400000811015610ac557683635c9adc5dea00000811015610abe5768056bc75e2d631000001115610ab857600090565b6101f490565b506103e890565b506105dc90565b604051906080820182811067ffffffffffffffff821117610aec57604052565b634e487b7160e01b600052604160045260246000fd5b604051906040820182811067ffffffffffffffff821117610aec57604052565b60018060a01b031660005260206002815260406000205469152d02c7e14af6800000811015610bda5769021e19e0c9bab2400000811015610bc957683635c9adc5dea00000811015610bb65768056bc75e2d631000001115610b9957634e6f6e6560e01b610b8e610b02565b916004835282015290565b6542726f6e7a6560d01b610bab610b02565b916006835282015290565b506529b4b63b32b960d11b610bab610b02565b506311dbdb1960e21b610b8e610b02565b5066111a585b5bdb9960ca1b610bee610b02565b916007835282015290565b6001600160a01b031660009081526002602052604090205469152d02c7e14af6800000811015610c6c5769021e19e0c9bab2400000811015610c6657683635c9adc5dea00000811015610c605768056bc75e2d631000001115610c5b57600090565b600190565b50600290565b50600390565b50600490565b7f9b779b17422d0df92223018b32b4d1fa46e071723d6817e2486d003becc55f006002815414610ca25760029055565b604051633ee5aeb560e01b8152600490fd5b6000546001600160a01b03163303610cc857565b60405163118cdaa760e01b8152336004820152602490fdfea264697066735822122001d940cc4204b72fe2ffe5af47f4d5fe0459415443b12d8005552e145f33186464736f6c63430008180033",
  "linkReferences": {},
  "deployedLinkReferences": {}
}