{
  "_format": "hh-sol-artifact-1",
  "contractName": "Staking",
  "sourceName": "contracts/Staking.sol",
  "abi": [
    {
      "inputs": [
        {
          "internalType": "address",
          "name": "_oaiToken",
          "type": "address"
        }
      ],
      "stateMutability": "nonpayable",
      "type": "constructor"
    },
    {
      "inputs": [
        {
          "internalType": "address",
          "name": "owner",
          "type": "address"
        }
      ],
      "name": "OwnableInvalidOwner",
      "type": "error"
    },
    {
      "inputs": [
        {
          "internalType": "address",
          "name": "account",
          "type": "address"
        }
      ],
      "name": "OwnableUnauthorizedAccount",
      "type": "error"
    },
    {
      "inputs": [],
      "name": "ReentrancyGuardReentrantCall",
      "type": "error"
    },
    {
      "inputs": [
        {
          "internalType": "address",
          "name": "token",
          "type": "address"
        }
      ],
      "name": "SafeERC20FailedOperation",
      "type": "error"
    },
    {
      "anonymous": false,
      "inputs": [
        {
          "indexed": true,
          "internalType": "address",
          "name": "previousOwner",
          "type": "address"
        },
        {
          "indexed": true,
          "internalType": "address",
          "name": "newOwner",
          "type": "address"
        }
      ],
      "name": "OwnershipTransferred",
      "type": "event"
    },
    {
      "anonymous": false,
      "inputs": [
        {
          "indexed": true,
          "internalType": "address",
          "name": "user",
          "type": "address"
        },
        {
          "indexed": false,
          "internalType": "uint256",
          "name": "amount",
          "type": "uint256"
        },
        {
          "indexed": false,
          "internalType": "string",
          "name": "tier",
          "type": "string"
        }
      ],
      "name": "Staked",
      "type": "event"
    },
    {
      "anonymous": false,
      "inputs": [
        {
          "indexed": true,
          "internalType": "address",
          "name": "user",
          "type": "address"
        },
        {
          "indexed": false,
          "internalType": "uint256",
          "name": "amount",
          "type": "uint256"
        }
      ],
      "name": "UnstakeRequested",
      "type": "event"
    },
    {
      "anonymous": false,
      "inputs": [
        {
          "indexed": true,
          "internalType": "address",
          "name": "user",
          "type": "address"
        },
        {
          "indexed": false,
          "internalType": "uint256",
          "name": "amount",
          "type": "uint256"
        }
      ],
      "name": "Unstaked",
      "type": "event"
    },
    {
      "inputs": [],
      "name": "BRONZE_MIN",
      "outputs": [
        {
          "internalType": "uint256",
          "name": "",
          "type": "uint256"
        }
      ],
      "stateMutability": "view",
      "type": "function"
    },
    {
      "inputs": [],
      "name": "DIAMOND_MIN",
      "outputs": [
        {
          "internalType": "uint256",
          "name": "",
          "type": "uint256"
        }
      ],
      "stateMutability": "view",
      "type": "function"
    },
    {
      "inputs": [],
      "name": "GOLD_MIN",
      "outputs": [
        {
          "internalType": "uint256",
          "name": "",
          "type": "uint256"
        }
      ],
      "stateMutability": "view",
      "type": "function"
    },
    {
      "inputs": [],
      "name": "SILVER_MIN",
      "outputs": [
        {
          "internalType": "uint256",
          "name": "",
          "type": "uint256"
        }
      ],
      "stateMutability": "view",
      "type": "function"
    },
    {
      "inputs": [],
      "name": "UNSTAKE_COOLDOWN",
      "outputs": [
        {
          "internalType": "uint256",
          "name": "",
          "type": "uint256"
        }
      ],
      "stateMutability": "view",
      "type": "function"
    },
    {
      "inputs": [
        {
          "internalType": "address",
          "name": "user",
          "type": "address"
        }
      ],
      "name": "getPointsBoost",
      "outputs": [
        {
          "internalType": "uint256",
          "name": "",
          "type": "uint256"
        }
      ],
      "stateMutability": "view",
      "type": "function"
    },
    {
      "inputs": [
        {
          "internalType": "address",
          "name": "user",
          "type": "address"
        }
      ],
      "name": "getReferralBoost",
      "outputs": [
        {
          "internalType": "uint256",
          "name": "",
          "type": "uint256"
        }
      ],
      "stateMutability": "view",
      "type": "function"
    },
    {
      "inputs": [
        {
          "internalType": "address",
          "name": "user",
          "type": "address"
        }
      ],
      "name": "getStakeInfo",
      "outputs": [
        {
          "components": [
            {
              "internalType": "uint256",
              "name": "amount",
              "type": "uint256"
            },
            {
              "internalType": "uint256",
              "name": "stakedAt",
              "type": "uint256"
            },
            {
              "internalType": "uint256",
              "name": "unstakeRequestedAt",
              "type": "uint256"
            },
            {
              "internalType": "uint256",
              "name": "unstakeAmount",
              "type": "uint256"
            }
          ],
          "internalType": "struct Staking.StakeInfo",
          "name": "",
          "type": "tuple"
        }
      ],
      "stateMutability": "view",
      "type": "function"
    },
    {
      "inputs": [
        {
          "internalType": "address",
          "name": "user",
          "type": "address"
        }
      ],
      "name": "getTier",
      "outputs": [
        {
          "internalType": "uint8",
          "name": "",
          "type": "uint8"
        }
      ],
      "stateMutability": "view",
      "type": "function"
    },
    {
      "inputs": [
        {
          "internalType": "address",
          "name": "user",
          "type": "address"
        }
      ],
      "name": "getTierName",
      "outputs": [
        {
          "internalType": "string",
          "name": "",
          "type": "string"
        }
      ],
      "stateMutability": "view",
      "type": "function"
    },
    {
      "inputs": [],
      "name": "oaiToken",
      "outputs": [
        {
          "internalType": "contract IERC20",
          "name": "",
          "type": "address"
        }
      ],
      "stateMutability": "view",
      "type": "function"
    },
    {
      "inputs": [],
      "name": "owner",
      "outputs": [
        {
          "internalType": "address",
          "name": "",
          "type": "address"
        }
      ],
      "stateMutability": "view",
      "type": "function"
    },
    {
      "inputs": [],
      "name": "renounceOwnership",
      "outputs": [],
      "stateMutability": "nonpayable",
      "type": "function"
    },
    {
      "inputs": [
        {
          "internalType": "uint256",
          "name": "amount",
          "type": "uint256"
        }
      ],
      "name": "requestUnstake",
      "outputs": [],
      "stateMutability": "nonpayable",
      "type": "function"
    },
    {
      "inputs": [
        {
          "internalType": "uint256",
          "name": "amount",
          "type": "uint256"
        }
      ],
      "name": "stake",
      "outputs": [],
      "stateMutability": "nonpayable",
      "type": "function"
    },
    {
      "inputs": [
        {
          "internalType": "address",
          "name": "",
          "type": "address"
        }
      ],
      "name": "stakes",
      "outputs": [
        {
          "internalType": "uint256",
          "name": "amount",
          "type": "uint256"
        },
        {
          "internalType": "uint256",
          "name": "stakedAt",
          "type": "uint256"
        },
        {
          "internalType": "uint256",
          "name": "unstakeRequestedAt",
          "type": "uint256"
        },
        {
          "internalType": "uint256",
          "name": "unstakeAmount",
          "type": "uint256"
        }
      ],
      "stateMutability": "view",
      "type": "function"
    },
    {
      "inputs": [],
      "name": "totalStaked",
      "outputs": [
        {
          "internalType": "uint256",
          "name": "",
          "type": "uint256"
        }
      ],
      "stateMutability": "view",
      "type": "function"
    },
    {
      "inputs": [],
      "name": "totalStakers",
      "outputs": [
        {
          "internalType": "uint256",
          "name": "",
          "type": "uint256"
        }
      ],
      "stateMutability": "view",
      "type": "function"
    },
    {
      "inputs": [
        {
          "internalType": "address",
          "name": "newOwner",
          "type": "address"
        }
      ],
      "name": "transferOwnership",
      "outputs": [],
      "stateMutability": "nonpayable",
      "type": "function"
    },
    {
      "inputs": [],
      "name": "unstake",
      "outputs": [],
      "stateMutability": "nonpayable",
      "type": "function"
    }
  ],
  "bytecode": "0x6080346100ca57601f610dbf38819003918201601f19168301916001600160401b038311848410176100cf578084926020946040528339810103126100ca57516001600160a01b0390818116908190036100ca5733156100b15760005460018060a01b0319903382821617600055604051933391167f8be0079c531659141344cd1fd0a4f28419497f9722a3daafe3b4186f6b6457e0600080a3600180556002541617600255610cd990816100e68239f35b604051631e4fbdf760e01b815260006004820152602490fd5b600080fd5b634e487b7160e01b600052604160045260246000fdfe608060408181526004908136101561001657600080fd5b600092833560e01c9081630b60c58f146108825750806316934fc414610826578063230957211461077957806325220db7146107545780632def6620146105f8578063647ded05146105c7578063715018a61461056d578063733d93fc14610548578063817b1cd21461052a57806382ae17911461050157806386989038146104e25780638da5cb5b146104ba5780638e7cb6a5146104825780639ab1c8b914610439578063a53d9d3a14610415578063a694fc3a14610295578063b45aae5214610257578063bb40310f1461022f578063c3453153146101905763f2fde38b1461010057600080fd5b3461018c57602036600319011261018c576001600160a01b0382358181169391929084900361018857610131610c0f565b831561017257505082546001600160a01b0319811683178455167f8be0079c531659141344cd1fd0a4f28419497f9722a3daafe3b4186f6b6457e08380a380f35b51631e4fbdf760e01b8152908101849052602490fd5b8480fd5b8280fd5b50903461018c57602036600319011261018c57356001600160a01b0381169081900361018c57828291608094606084516101c981610a3c565b828152826020820152828682015201528152600360205220908051906101ee82610a3c565b825492838352600181015460208401908152606060036002840154938587019485520154940193845282519485525160208501525190830152516060820152f35b8382346102535781600319360112610253576020905168056bc75e2d631000008152f35b5080fd5b50903461018c57602036600319011261018c5735916001600160a01b0383168303610292575060ff61028a602093610b73565b915191168152f35b80fd5b508290346102535760208060031936011261018c5783356102b4610bec565b6102bf8115156108df565b60025483516323b872dd60e01b8482015233602482015230604482015260648082018490528152906001600160a01b031660a0820167ffffffffffffffff8111838210176104025785526103139190610c3b565b33845260068252828420805460ff8116156103ad575b50507f78a806bb7699c94c8bf510c6ae4c7d16f8a7465865bee03d1a5d2c572f7c128b92939433865260038352848620610364838254610919565b9055338652600383524260018688200155610380828254610919565b90556103a361038e33610a8a565b8580519485948552840152339583019061089f565b0390a26001805580f35b60ff1916600117905560055460001981146103ef576001016005557f78a806bb7699c94c8bf510c6ae4c7d16f8a7465865bee03d1a5d2c572f7c128b86610329565b634e487b7160e01b855260118652602485fd5b634e487b7160e01b875260418852602487fd5b83823461025357816003193601126102535760209051683635c9adc5dea000008152f35b50903461018c57602036600319011261018c5735916001600160a01b0383168303610292575061046b61047e92610a8a565b905191829160208352602083019061089f565b0390f35b50903461018c57602036600319011261018c5735916001600160a01b038316830361029257506104b36020926109c6565b9051908152f35b838234610253578160031936011261025357905490516001600160a01b039091168152602090f35b8382346102535781600319360112610253576020906005549051908152f35b83823461025357816003193601126102535760025490516001600160a01b039091168152602090f35b50903461018c578260031936011261018c5760209250549051908152f35b8382346102535781600319360112610253576020905169021e19e0c9bab24000008152f35b8334610292578060031936011261029257610586610c0f565b80546001600160a01b03198116825581906001600160a01b03167f8be0079c531659141344cd1fd0a4f28419497f9722a3daafe3b4186f6b6457e08280a380f35b50903461018c57602036600319011261018c5735916001600160a01b038316830361029257506104b3602092610949565b503461018c578260031936011261018c57610611610bec565b3383526003602052808320916003830192835493841561071c576002820191825462093a8081018091116107095742106106d457869291816106558886945461093c565b9055555561066483825461093c565b9055600254815163a9059cbb60e01b6020820152336024820152604480820185905281526106a3916001600160a01b031661069e82610a3c565b610c3b565b519081527f0f5bb82176feb1b5e747e28471aa92156a04d9f3ab9f45f28e2d704232b93f7560203392a26001805580f35b845162461bcd60e51b8152602081860152600f60248201526e436f6f6c646f776e2061637469766560881b6044820152606490fd5b634e487b7160e01b885260118552602488fd5b835162461bcd60e51b815260208185015260126024820152714e6f20756e7374616b652070656e64696e6760701b6044820152606490fd5b8382346102535781600319360112610253576020905169152d02c7e14af68000008152f35b503461018c57602036600319011261018c578135916107998315156108df565b33845260036020528282852054106107ef575033835260036020528160038285204260028201550155519081527f828764c21e74c28710e19919735825aba966621c95cbd913f8ed65a2d298f48c60203392a280f35b6020606492519162461bcd60e51b83528201526012602482015271496e73756666696369656e74207374616b6560701b6044820152fd5b50903461018c57602036600319011261018c57356001600160a01b0381169081900361018c5782829160809452600360205220908154916001810154916003600283015492015492815194855260208501528301526060820152f35b8490346102535781600319360112610253578062093a8060209252f35b919082519283825260005b8481106108cb575050826000602080949584010152601f8019910116010190565b6020818301810151848301820152016108aa565b156108e657565b60405162461bcd60e51b815260206004820152600b60248201526a16995c9bc8185b5bdd5b9d60aa1b6044820152606490fd5b9190820180921161092657565b634e487b7160e01b600052601160045260246000fd5b9190820391821161092657565b6001600160a01b031660009081526003602052604090205469152d02c7e14af68000008110156109bf5769021e19e0c9bab24000008110156109b857683635c9adc5dea000008110156109b15768056bc75e2d6310000011156109ab57600090565b6103e890565b506107d090565b50610dac90565b5061138890565b6001600160a01b031660009081526003602052604090205469152d02c7e14af68000008110156109b15769021e19e0c9bab2400000811015610a3557683635c9adc5dea00000811015610a2e5768056bc75e2d631000001115610a2857600090565b6101f490565b506103e890565b506105dc90565b6080810190811067ffffffffffffffff821117610a5857604052565b634e487b7160e01b600052604160045260246000fd5b6040810190811067ffffffffffffffff821117610a5857604052565b60018060a01b03166000526020600381526040806000205469152d02c7e14af6800000811015610b515769021e19e0c9bab2400000811015610b3c57683635c9adc5dea00000811015610b255768056bc75e2d631000001115610b0557634e6f6e6560e01b905191610afb83610a6e565b6004835282015290565b6542726f6e7a6560d01b905191610b1b83610a6e565b6006835282015290565b506529b4b63b32b960d11b905191610b1b83610a6e565b506311dbdb1960e21b905191610afb83610a6e565b5066111a585b5bdb9960ca1b905191610b6983610a6e565b6007835282015290565b6001600160a01b031660009081526003602052604090205469152d02c7e14af6800000811015610be65769021e19e0c9bab2400000811015610be057683635c9adc5dea00000811015610bda5768056bc75e2d631000001115610bd557600090565b600190565b50600290565b50600390565b50600490565b600260015414610bfd576002600155565b604051633ee5aeb560e01b8152600490fd5b6000546001600160a01b03163303610c2357565b60405163118cdaa760e01b8152336004820152602490fd5b906000602091828151910182855af115610c97576000513d610c8e57506001600160a01b0381163b155b610c6c5750565b604051635274afe760e01b81526001600160a01b039091166004820152602490fd5b60011415610c65565b6040513d6000823e3d90fdfea2646970667358221220afad50895fbe2fac95fd4552ed744185ab92488d96dc87526cc34e422c803da464736f6c63430008180033",
  "linkReferences": {},
  "deployedLinkReferences": {}
}