{
  "_format": "hh-sol-artifact-1",
  "contractName": "VRFBonusDistributor",
  "sourceName": "contracts/VRFBonusDistributor.sol",
  "abi": [
    {
      "inputs": [
        {
          "internalType": "address",
          "name": "_vrfCoordinator",
          "type": "address"
        },
        {
          "internalType": "bytes32",
          "name": "_keyHash",
          "type": "bytes32"
        },
        {
          "internalType": "uint64",
          "name": "_subscriptionId",
          "type": "uint64"
        }
      ],
      "stateMutability": "nonpayable",
      "type": "constructor"
    },
    {
      "inputs": [],
      "name": "AccessControlBadConfirmation",
      "type": "error"
    },
    {
      "inputs": [
        {
          "internalType": "address",
          "name": "account",
          "type": "address"
        },
        {
          "internalType": "bytes32",
          "name": "neededRole",
          "type": "bytes32"
        }
      ],
      "name": "AccessControlUnauthorizedAccount",
      "type": "error"
    },
    {
      "inputs": [],
      "name": "ReentrancyGuardReentrantCall",
      "type": "error"
    },
    {
      "anonymous": false,
      "inputs": [
        {
          "indexed": true,
          "internalType": "uint256",
          "name": "index",
          "type": "uint256"
        },
        {
          "indexed": false,
          "internalType": "uint256",
          "name": "randomWord",
          "type": "uint256"
        },
        {
          "indexed": false,
          "internalType": "uint256",
          "name": "bonusResult",
          "type": "uint256"
        }
      ],
      "name": "BonusFulfilled",
      "type": "event"
    },
    {
      "anonymous": false,
      "inputs": [
        {
          "indexed": true,
          "internalType": "uint256",
          "name": "index",
          "type": "uint256"
        },
        {
          "indexed": false,
          "internalType": "uint256",
          "name": "vrfRequestId",
          "type": "uint256"
        },
        {
          "indexed": false,
          "internalType": "enum VRFBonusDistributor.BonusType",
          "name": "bonusType",
          "type": "uint8"
        },
        {
          "indexed": false,
          "internalType": "address",
          "name": "beneficiary",
          "type": "address"
        }
      ],
      "name": "BonusRequested",
      "type": "event"
    },
    {
      "anonymous": false,
      "inputs": [
        {
          "indexed": true,
          "internalType": "address",
          "name": "participant",
          "type": "address"
        }
      ],
      "name": "LotteryEntered",
      "type": "event"
    },
    {
      "anonymous": false,
      "inputs": [
        {
          "indexed": false,
          "internalType": "uint256",
          "name": "participants",
          "type": "uint256"
        },
        {
          "indexed": false,
          "internalType": "uint256",
          "name": "prize",
          "type": "uint256"
        }
      ],
      "name": "LotteryReset",
      "type": "event"
    },
    {
      "anonymous": false,
      "inputs": [
        {
          "indexed": true,
          "internalType": "bytes32",
          "name": "role",
          "type": "bytes32"
        },
        {
          "indexed": true,
          "internalType": "bytes32",
          "name": "previousAdminRole",
          "type": "bytes32"
        },
        {
          "indexed": true,
          "internalType": "bytes32",
          "name": "newAdminRole",
          "type": "bytes32"
        }
      ],
      "name": "RoleAdminChanged",
      "type": "event"
    },
    {
      "anonymous": false,
      "inputs": [
        {
          "indexed": true,
          "internalType": "bytes32",
          "name": "role",
          "type": "bytes32"
        },
        {
          "indexed": true,
          "internalType": "address",
          "name": "account",
          "type": "address"
        },
        {
          "indexed": true,
          "internalType": "address",
          "name": "sender",
          "type": "address"
        }
      ],
      "name": "RoleGranted",
      "type": "event"
    },
    {
      "anonymous": false,
      "inputs": [
        {
          "indexed": true,
          "internalType": "bytes32",
          "name": "role",
          "type": "bytes32"
        },
        {
          "indexed": true,
          "internalType": "address",
          "name": "account",
          "type": "address"
        },
        {
          "indexed": true,
          "internalType": "address",
          "name": "sender",
          "type": "address"
        }
      ],
      "name": "RoleRevoked",
      "type": "event"
    },
    {
      "inputs": [],
      "name": "DEFAULT_ADMIN_ROLE",
      "outputs": [
        {
          "internalType": "bytes32",
          "name": "",
          "type": "bytes32"
        }
      ],
      "stateMutability": "view",
      "type": "function"
    },
    {
      "inputs": [],
      "name": "MAX_LUCKY_MULT",
      "outputs": [
        {
          "internalType": "uint256",
          "name": "",
          "type": "uint256"
        }
      ],
      "stateMutability": "view",
      "type": "function"
    },
    {
      "inputs": [],
      "name": "MIN_LUCKY_MULT",
      "outputs": [
        {
          "internalType": "uint256",
          "name": "",
          "type": "uint256"
        }
      ],
      "stateMutability": "view",
      "type": "function"
    },
    {
      "inputs": [],
      "name": "OPERATOR_ROLE",
      "outputs": [
        {
          "internalType": "bytes32",
          "name": "",
          "type": "bytes32"
        }
      ],
      "stateMutability": "view",
      "type": "function"
    },
    {
      "inputs": [],
      "name": "callbackGasLimit",
      "outputs": [
        {
          "internalType": "uint32",
          "name": "",
          "type": "uint32"
        }
      ],
      "stateMutability": "view",
      "type": "function"
    },
    {
      "inputs": [
        {
          "internalType": "address",
          "name": "participant",
          "type": "address"
        }
      ],
      "name": "enterLottery",
      "outputs": [],
      "stateMutability": "nonpayable",
      "type": "function"
    },
    {
      "inputs": [],
      "name": "fundLottery",
      "outputs": [],
      "stateMutability": "payable",
      "type": "function"
    },
    {
      "inputs": [],
      "name": "getLotteryParticipantCount",
      "outputs": [
        {
          "internalType": "uint256",
          "name": "",
          "type": "uint256"
        }
      ],
      "stateMutability": "view",
      "type": "function"
    },
    {
      "inputs": [
        {
          "internalType": "uint256",
          "name": "index",
          "type": "uint256"
        }
      ],
      "name": "getRequest",
      "outputs": [
        {
          "components": [
            {
              "internalType": "uint256",
              "name": "requestId",
              "type": "uint256"
            },
            {
              "internalType": "enum VRFBonusDistributor.BonusType",
              "name": "bonusType",
              "type": "uint8"
            },
            {
              "internalType": "address",
              "name": "beneficiary",
              "type": "address"
            },
            {
              "internalType": "uint256",
              "name": "baseAmount",
              "type": "uint256"
            },
            {
              "internalType": "bool",
              "name": "fulfilled",
              "type": "bool"
            },
            {
              "internalType": "uint256",
              "name": "randomWord",
              "type": "uint256"
            },
            {
              "internalType": "uint256",
              "name": "bonusResult",
              "type": "uint256"
            }
          ],
          "internalType": "struct VRFBonusDistributor.BonusRequest",
          "name": "",
          "type": "tuple"
        }
      ],
      "stateMutability": "view",
      "type": "function"
    },
    {
      "inputs": [
        {
          "internalType": "bytes32",
          "name": "role",
          "type": "bytes32"
        }
      ],
      "name": "getRoleAdmin",
      "outputs": [
        {
          "internalType": "bytes32",
          "name": "",
          "type": "bytes32"
        }
      ],
      "stateMutability": "view",
      "type": "function"
    },
    {
      "inputs": [
        {
          "internalType": "bytes32",
          "name": "role",
          "type": "bytes32"
        },
        {
          "internalType": "address",
          "name": "account",
          "type": "address"
        }
      ],
      "name": "grantRole",
      "outputs": [],
      "stateMutability": "nonpayable",
      "type": "function"
    },
    {
      "inputs": [
        {
          "internalType": "bytes32",
          "name": "role",
          "type": "bytes32"
        },
        {
          "internalType": "address",
          "name": "account",
          "type": "address"
        }
      ],
      "name": "hasRole",
      "outputs": [
        {
          "internalType": "bool",
          "name": "",
          "type": "bool"
        }
      ],
      "stateMutability": "view",
      "type": "function"
    },
    {
      "inputs": [],
      "name": "keyHash",
      "outputs": [
        {
          "internalType": "bytes32",
          "name": "",
          "type": "bytes32"
        }
      ],
      "stateMutability": "view",
      "type": "function"
    },
    {
      "inputs": [
        {
          "internalType": "uint256",
          "name": "",
          "type": "uint256"
        }
      ],
      "name": "lotteryParticipants",
      "outputs": [
        {
          "internalType": "address",
          "name": "",
          "type": "address"
        }
      ],
      "stateMutability": "view",
      "type": "function"
    },
    {
      "inputs": [],
      "name": "lotteryPrize",
      "outputs": [
        {
          "internalType": "uint256",
          "name": "",
          "type": "uint256"
        }
      ],
      "stateMutability": "view",
      "type": "function"
    },
    {
      "inputs": [
        {
          "internalType": "uint256",
          "name": "index",
          "type": "uint256"
        }
      ],
      "name": "payoutLotteryWinner",
      "outputs": [],
      "stateMutability": "nonpayable",
      "type": "function"
    },
    {
      "inputs": [
        {
          "internalType": "uint256",
          "name": "requestId",
          "type": "uint256"
        },
        {
          "internalType": "uint256[]",
          "name": "randomWords",
          "type": "uint256[]"
        }
      ],
      "name": "rawFulfillRandomWords",
      "outputs": [],
      "stateMutability": "nonpayable",
      "type": "function"
    },
    {
      "inputs": [
        {
          "internalType": "bytes32",
          "name": "role",
          "type": "bytes32"
        },
        {
          "internalType": "address",
          "name": "callerConfirmation",
          "type": "address"
        }
      ],
      "name": "renounceRole",
      "outputs": [],
      "stateMutability": "nonpayable",
      "type": "function"
    },
    {
      "inputs": [],
      "name": "requestConfirmations",
      "outputs": [
        {
          "internalType": "uint16",
          "name": "",
          "type": "uint16"
        }
      ],
      "stateMutability": "view",
      "type": "function"
    },
    {
      "inputs": [],
      "name": "requestCount",
      "outputs": [
        {
          "internalType": "uint256",
          "name": "",
          "type": "uint256"
        }
      ],
      "stateMutability": "view",
      "type": "function"
    },
    {
      "inputs": [
        {
          "internalType": "address",
          "name": "user",
          "type": "address"
        },
        {
          "internalType": "uint256",
          "name": "basePoints",
          "type": "uint256"
        }
      ],
      "name": "requestLuckyCheckinBonus",
      "outputs": [
        {
          "internalType": "uint256",
          "name": "",
          "type": "uint256"
        }
      ],
      "stateMutability": "nonpayable",
      "type": "function"
    },
    {
      "inputs": [
        {
          "internalType": "address",
          "name": "user",
          "type": "address"
        }
      ],
      "name": "requestRareDrop",
      "outputs": [
        {
          "internalType": "uint256",
          "name": "",
          "type": "uint256"
        }
      ],
      "stateMutability": "nonpayable",
      "type": "function"
    },
    {
      "inputs": [],
      "name": "requestWeeklyLottery",
      "outputs": [
        {
          "internalType": "uint256",
          "name": "",
          "type": "uint256"
        }
      ],
      "stateMutability": "nonpayable",
      "type": "function"
    },
    {
      "inputs": [
        {
          "internalType": "uint256",
          "name": "",
          "type": "uint256"
        }
      ],
      "name": "requests",
      "outputs": [
        {
          "internalType": "uint256",
          "name": "requestId",
          "type": "uint256"
        },
        {
          "internalType": "enum VRFBonusDistributor.BonusType",
          "name": "bonusType",
          "type": "uint8"
        },
        {
          "internalType": "address",
          "name": "beneficiary",
          "type": "address"
        },
        {
          "internalType": "uint256",
          "name": "baseAmount",
          "type": "uint256"
        },
        {
          "internalType": "bool",
          "name": "fulfilled",
          "type": "bool"
        },
        {
          "internalType": "uint256",
          "name": "randomWord",
          "type": "uint256"
        },
        {
          "internalType": "uint256",
          "name": "bonusResult",
          "type": "uint256"
        }
      ],
      "stateMutability": "view",
      "type": "function"
    },
    {
      "inputs": [],
      "name": "resetLottery",
      "outputs": [],
      "stateMutability": "nonpayable",
      "type": "function"
    },
    {
      "inputs": [
        {
          "internalType": "bytes32",
          "name": "role",
          "type": "bytes32"
        },
        {
          "internalType": "address",
          "name": "account",
          "type": "address"
        }
      ],
      "name": "revokeRole",
      "outputs": [],
      "stateMutability": "nonpayable",
      "type": "function"
    },
    {
      "inputs": [
        {
          "internalType": "bytes32",
          "name": "_keyHash",
          "type": "bytes32"
        },
        {
          "internalType": "uint64",
          "name": "_subscriptionId",
          "type": "uint64"
        },
        {
          "internalType": "uint16",
          "name": "_requestConfirmations",
          "type": "uint16"
        },
        {
          "internalType": "uint32",
          "name": "_callbackGasLimit",
          "type": "uint32"
        }
      ],
      "name": "setVRFConfig",
      "outputs": [],
      "stateMutability": "nonpayable",
      "type": "function"
    },
    {
      "inputs": [],
      "name": "subscriptionId",
      "outputs": [
        {
          "internalType": "uint64",
          "name": "",
          "type": "uint64"
        }
      ],
      "stateMutability": "view",
      "type": "function"
    },
    {
      "inputs": [
        {
          "internalType": "bytes4",
          "name": "interfaceId",
          "type": "bytes4"
        }
      ],
      "name": "supportsInterface",
      "outputs": [
        {
          "internalType": "bool",
          "name": "",
          "type": "bool"
        }
      ],
      "stateMutability": "view",
      "type": "function"
    },
    {
      "inputs": [],
      "name": "vrfCoordinator",
      "outputs": [
        {
          "internalType": "contract IVRFCoordinatorV2Plus",
          "name": "",
          "type": "address"
        }
      ],
      "stateMutability": "view",
      "type": "function"
    },
    {
      "stateMutability": "payable",
      "type": "receive"
    }
  ],
  "bytecode": "0x60803462000117576001600160401b03601f6200193a38819003918201601f1916840191838311858410176200011c57808592606094604052833981010312620001175781516001600160a01b0381169290839003620001175760406020820151910151918216809203620001175760018055600454908315620000df57600280546001600160a01b0319169094179093556003929092556001600160701b031991909116176c030d400003000000000000000017600455620000c23362000132565b50620000ce33620001b2565b506040516116c59081620002558239f35b60405162461bcd60e51b815260206004820152601060248201526f2d32b9379031b7b7b93234b730ba37b960811b6044820152606490fd5b600080fd5b634e487b7160e01b600052604160045260246000fd5b6001600160a01b031660008181527fad3228b676f7d3cd4284a5443f17f1962b36e491b30a40b2405849e597ba5fb5602052604081205490919060ff16620001ae57818052816020526040822081835260205260408220600160ff1982541617905533916000805160206200191a8339815191528180a4600190565b5090565b6001600160a01b031660008181527fee57cd81e84075558e8fcc182a1f4393f91fc97f963a136e66b7f949a62f319f60205260408120549091907f97667070c54ef182b0f5858b034beac1b6f3089aa2d3188bb1e8929f4fa9b9299060ff166200024f57808352826020526040832082845260205260408320600160ff198254161790556000805160206200191a833981519152339380a4600190565b50509056fe6080604081815260049182361015610022575b505050361561002057600080fd5b005b600092833560e01c91826301ffc9a7146113a85750816309c1ba2e146113805781630e23f3f2146111b85781631fe543e314610ec3578163248a9ca314610e9957816324f7469714610e725781632f2ff15d14610e4857816336568abe14610e025781633a13971214610bc257816356d0bcf114610ba35781635badbe4c14610b8457816361728f3914610b65578163708ee37014610b485781637ae6842c14610b2a57816381d12c5814610aaa57816391d1485414610a64578163a217fddf14610a49578163a3e56fa814610a20578163b0fb162f146109fc578163b2e65bcf1461092f578163b5cc4539146108c0578163c1196ecf146108a1578163c58343ef146107aa578163cd9aff8414610594578163d337616e146104f6578163d547741f146104b7578163d82c4649146102a2578163e3a0b95014610201578163f59aabcd146101b9575063f5b541a61461017c5780610012565b346101b557816003193601126101b557602090517f97667070c54ef182b0f5858b034beac1b6f3089aa2d3188bb1e8929f4fa9b9298152f35b5080fd5b9050346101fd5760203660031901126101fd5735916008548310156101fa57506101e460209261144f565b905491519160018060a01b039160031b1c168152f35b80fd5b8280fd5b8390346101b55760203660031901126101b55761021c6113fb565b906102256114fc565b600854906801000000000000000082101561028f575080600161024b920160085561144f565b9160018060a01b038091169282549060031b9184831b921b19161790557f4c72b57c1ca715219cf2c7be9edc8a3ea19dfb9a76fb7a05e2a8062a027ee9708280a280f35b634e487b7160e01b845260419052602483fd5b919050346101fd57602092836003193601126101fa5781906102c26113fb565b906102cb6114fc565b60018060a01b039186836002541660a488856003549363ffffffff835461ffff818d519d8e998a986305d3b1d360e41b8a5289015267ffffffffffffffff821660248901521c16604486015260501c166064840152600160848401525af19384156104ad57829461047e575b50600554600019811461046b576001018096816005558887519361035a856114a8565b8785528185019660028852808a870192169788835260608701918883526080880193898552600660a08a01968b885260c08b01998c8b528c52528c8a2098518955600189019251600381101561045857835491516001600160a81b031990921660ff90911617911660081b610100600160a81b03161790558a987f49bc1709ab79728dc57e19bc28889ef83e403e7133404cec671a1e5e34d249d398606098919790968b968d96939592946005949293919291610430915b516002880155511515600387019060ff801983541691151516179055565b51908401555191015584815260078b522055855191825260028883015285820152a251908152f35b634e487b7160e01b8b526021885260248bfd5b634e487b7160e01b835260118752602483fd5b9093508681813d83116104a6575b61049681836114da565b810103126101b557519238610337565b503d61048c565b85513d84823e3d90fd5b919050346101fd57806003193601126101fd576104f291356104ed60016104dc611416565b938387528660205286200154611576565b61161a565b5080f35b5050346101b557816003193601126101b5576105106114fc565b7ff362fac3897093aef8e68fcd6781da722412634c5e854a270782c5d5409db4f2600854916009548151908482526020820152a18160085580610556575b508060095580f35b7ff3f7a9fe364faab93b216da50a3214154f22a0a2b415b23a84c8169e8b636ee3908101905b818110610589575061054e565b82815560010161057c565b8383346101b557816003193601126101b5576105ae6114fc565b60085415610776576009548260018060a01b03918260025416926003549363ffffffff88548751966305d3b1d360e41b88528a88015267ffffffffffffffff8116602488015261ffff81891c16604488015260501c166064860152600160848601528460a4816020998a945af193841561076c57839461073d575b50600554600019811461072a579660018798019687928360055587519461064f866114a8565b8786528286016001815289870192888452606088019283526080880193898552600660a08a01968b885260c08b01998c8b528c52528b8a2098518955600189019251600381101561045857835491516001600160a81b031990921660ff90911617911660081b610100600160a81b031617905589977f49bc1709ab79728dc57e19bc28889ef83e403e7133404cec671a1e5e34d249d397606097919690959194600594919390916106ff91610412565b519084015551910155818152600788528486822055855191825260018883015285820152a251908152f35b634e487b7160e01b845260118852602484fd5b9093508581813d8311610765575b61075581836114da565b810103126101fd57519287610629565b503d61074b565b85513d85823e3d90fd5b5162461bcd60e51b8152602081840152600f60248201526e4e6f207061727469636970616e747360881b6044820152606490fd5b919050346101fd5760203660031901126101fd57808360e09460c083516107d0816114a8565b82815282602082015282858201528260608201528260808201528260a0820152015283358152600660205220815192610808846114a8565b815484526001820154602085019361082360ff83168661149c565b60018060a01b03808288019360081c1683526002850154926060880193845261087f600560ff6003890154169660808b0197151588528801549760a08b0198895201549760c08a01988952845199518a525160208a019061142c565b51169086015251606085015251151560808401525160a08301525160c0820152f35b5050346101b557816003193601126101b5576020906009549051908152f35b919050826003193601126101fd5734156108fd5750600954903482018092116108ea575060095580f35b634e487b7160e01b835260119052602482fd5b906020606492519162461bcd60e51b8352820152600c60248201526b5a65726f2066756e64696e6760a01b6044820152fd5b919050346101fd5760803660031901126101fd576024359067ffffffffffffffff82168092036109f85760443561ffff811681036109f4576064359263ffffffff841684036109f0578580528560205282862033875260205260ff8387205416156109d3579069ffff000000000000000091853560035585549463ffffffff60501b9060501b16946dffffffffffffffffffffffffffff191617921b161717905580f35b825163e2517d3f60e01b8152338187015260248101879052604490fd5b8580fd5b8480fd5b8380fd5b8284346101fa57806003193601126101fa575061ffff60209254821c169051908152f35b5050346101b557816003193601126101b55760025490516001600160a01b039091168152602090f35b5050346101b557816003193601126101b55751908152602090f35b9050346101fd57816003193601126101fd578160209360ff92610a85611416565b903582528186528282206001600160a01b039091168252855220549151911615158152f35b919050346101fd5760203660031901126101fd578060e09383358152600660205220805492600182015492600283015490600560ff60038601541693850154940154948151968752610b026020880160ff831661142c565b60081c6001600160a01b03169086015260608501521515608084015260a083015260c0820152f35b5050346101b557816003193601126101b55760209051620186a08152f35b5050346101b557816003193601126101b55760209051614e208152f35b5050346101b557816003193601126101b5576020906003549051908152f35b5050346101b557816003193601126101b5576020906005549051908152f35b5050346101b557816003193601126101b5576020906008549051908152f35b9050346101fd576020806003193601126109f857610bde6114fc565b6001926002845414610df3576002845582358552600682528085208151610c04816114a8565b81548152858201549184820190610c1e60ff85168361149c565b60018060a01b0392838682019560081c1685526002820154606082015260c0600560ff6003850154161593841560808501528a81015460a08501520154910152610dc057516003811015610dad578603610d7c578082511615610d4d57600954918215610d1f57878093819382938360095551165af13d15610d1a573d67ffffffffffffffff8111610d0757825190610cc0601f8201601f19168601836114da565b815286843d92013e5b15610cd657505050805580f35b5162461bcd60e51b815291820152600d60248201526c14185e5bdd5d0819985a5b1959609a1b604482015260649150fd5b634e487b7160e01b875260418552602487fd5b610cc9565b835162461bcd60e51b815280870186905260086024820152674e6f207072697a6560c01b6044820152606490fd5b50505162461bcd60e51b81529182015260096024820152682737903bb4b73732b960b91b604482015260649150fd5b50505162461bcd60e51b815291820152600b60248201526a4e6f74206c6f747465727960a81b604482015260649150fd5b634e487b7160e01b885260218652602488fd5b835162461bcd60e51b8152808701869052600d60248201526c139bdd08199d5b199a5b1b1959609a1b6044820152606490fd5b51633ee5aeb560e01b81529050fd5b8383346101b557806003193601126101b557610e1c611416565b90336001600160a01b03831603610e3957506104f291923561161a565b5163334bd91960e11b81528390fd5b919050346101fd57806003193601126101fd576104f29135610e6d60016104dc611416565b61159c565b8284346101fa57806003193601126101fa575063ffffffff6020925460501c169051908152f35b9050346101fd5760203660031901126101fd57816020936001923581528085522001549051908152f35b839150346101b557826003193601126101b55760249283359367ffffffffffffffff908186116109f457366023870112156109f457858401359182116109f45736818360051b880101116109f4576002546001600160a01b03929083163303611183571561114f578335855260076020528285205493841561111c5784865260066020528386209660038801805460ff81166110e65760019060ff191617905582879101359384838a0155600189019060ff82541660038110156110d457839291908061101a5750505061100857614e206201388185068101809111610ff65760058901555b610fe557505060057f51456263b799f4d2a35636b18be4f7e27453e46c3978e9177b54385c197a594f939495015482519182526020820152a280f35b634e487b7160e01b86526032905284fd5b634e487b7160e01b8852601183528388fd5b50634e487b7160e01b86526032905284fd5b91925090600181036110b85750600854801584811561103e575b5050505050610fa9565b6110a657611094579061105e60058c61108a95948a06918291015561144f565b90548354610100600160a81b03191660039290921b1c9190911660081b610100600160a81b0316179055565b8880808084611034565b634e487b7160e01b8a5260128552858afd5b634e487b7160e01b8b5260328652868bfd5b90506002915003610fa957508561271084066005890155610fa9565b634e487b7160e01b8a5260218552858afd5b865162461bcd60e51b815260208186015260118187015270105b1c9958591e48199d5b199a5b1b1959607a1b6044820152606490fd5b600f606492602086519362461bcd60e51b85528401528201526e155b9adb9bdddb881c995c5d595cdd608a1b6044820152fd5b83600f606492602086519362461bcd60e51b85528401528201526e4e6f2072616e646f6d20776f72647360881b6044820152fd5b835162461bcd60e51b81526020818701526010818401526f27b7363c9031b7b7b93234b730ba37b960811b6044820152606490fd5b919050346101fd57806003193601126101fd576111d36113fb565b6111db6114fc565b60018060a01b03848160025416926003549363ffffffff87548751966305d3b1d360e41b88528988015267ffffffffffffffff8116602488015261ffff81891c16604488015260501c166064860152600160848601528460a48160209a8b945af19384156104ad578294611351575b50600554600019811461046b576001018096816005558887519361126d856114a8565b87855281850196868852808a8701921697888352606087019160243583526080880193898552600660a08a01968b885260c08b01998c8b528c52528c8a2098518955600189019251600381101561045857835491516001600160a81b031990921660ff90911617911660081b610100600160a81b03161790558a987f49bc1709ab79728dc57e19bc28889ef83e403e7133404cec671a1e5e34d249d39860609891979096919590946005949293919290916113289190610412565b51908401555191015582815260078952858782205586519283528883015285820152a251908152f35b9093508681813d8311611379575b61136981836114da565b810103126101b55751923861124a565b503d61135f565b8284346101fa57806003193601126101fa575067ffffffffffffffff60209254169051908152f35b8491346101fd5760203660031901126101fd573563ffffffff60e01b81168091036101fd5760209250637965db0b60e01b81149081156113ea575b5015158152f35b6301ffc9a760e01b149050836113e3565b600435906001600160a01b038216820361141157565b600080fd5b602435906001600160a01b038216820361141157565b9060038210156114395752565b634e487b7160e01b600052602160045260246000fd5b6008548110156114865760086000527ff3f7a9fe364faab93b216da50a3214154f22a0a2b415b23a84c8169e8b636ee30190600090565b634e487b7160e01b600052603260045260246000fd5b60038210156114395752565b60e0810190811067ffffffffffffffff8211176114c457604052565b634e487b7160e01b600052604160045260246000fd5b90601f8019910116810190811067ffffffffffffffff8211176114c457604052565b3360009081527fee57cd81e84075558e8fcc182a1f4393f91fc97f963a136e66b7f949a62f319f60205260409020547f97667070c54ef182b0f5858b034beac1b6f3089aa2d3188bb1e8929f4fa9b9299060ff16156115585750565b6044906040519063e2517d3f60e01b82523360048301526024820152fd5b80600052600060205260406000203360005260205260ff60406000205416156115585750565b9060009180835282602052604083209160018060a01b03169182845260205260ff6040842054161560001461161557808352826020526040832082845260205260408320600160ff198254161790557f2f8788117e7eff1d82e926ec794901d17c78024a50270940304540a733656f0d339380a4600190565b505090565b9060009180835282602052604083209160018060a01b03169182845260205260ff6040842054166000146116155780835282602052604083208284526020526040832060ff1981541690557ff6391f5c32d9c69d2a47ea670b442974b53935d1edc7fd64eb21e047a839171b339380a460019056fea264697066735822122041e3959dadfe07503be01cd3d39cf5d3208786e39d9b5aae5693a1f6583e699d64736f6c634300081800332f8788117e7eff1d82e926ec794901d17c78024a50270940304540a733656f0d",
  "linkReferences": {},
  "deployedLinkReferences": {}
}