{
  "_format": "hh-sol-artifact-1",
  "contractName": "OracleGovernance",
  "sourceName": "contracts/OracleGovernance.sol",
  "abi": [
    {
      "inputs": [
        {
          "internalType": "address",
          "name": "_oaiToken",
          "type": "address"
        }
      ],
      "stateMutability": "nonpayable",
      "type": "constructor"
    },
    {
      "inputs": [],
      "name": "AccessControlBadConfirmation",
      "type": "error"
    },
    {
      "inputs": [
        {
          "internalType": "address",
          "name": "account",
          "type": "address"
        },
        {
          "internalType": "bytes32",
          "name": "neededRole",
          "type": "bytes32"
        }
      ],
      "name": "AccessControlUnauthorizedAccount",
      "type": "error"
    },
    {
      "anonymous": false,
      "inputs": [
        {
          "indexed": true,
          "internalType": "uint256",
          "name": "id",
          "type": "uint256"
        }
      ],
      "name": "ProposalCancelled",
      "type": "event"
    },
    {
      "anonymous": false,
      "inputs": [
        {
          "indexed": true,
          "internalType": "uint256",
          "name": "id",
          "type": "uint256"
        },
        {
          "indexed": true,
          "internalType": "address",
          "name": "proposer",
          "type": "address"
        },
        {
          "indexed": false,
          "internalType": "string",
          "name": "title",
          "type": "string"
        },
        {
          "indexed": false,
          "internalType": "uint256",
          "name": "startTime",
          "type": "uint256"
        },
        {
          "indexed": false,
          "internalType": "uint256",
          "name": "endTime",
          "type": "uint256"
        }
      ],
      "name": "ProposalCreated",
      "type": "event"
    },
    {
      "anonymous": false,
      "inputs": [
        {
          "indexed": true,
          "internalType": "uint256",
          "name": "id",
          "type": "uint256"
        }
      ],
      "name": "ProposalExecuted",
      "type": "event"
    },
    {
      "anonymous": false,
      "inputs": [
        {
          "indexed": false,
          "internalType": "uint256",
          "name": "oldBps",
          "type": "uint256"
        },
        {
          "indexed": false,
          "internalType": "uint256",
          "name": "newBps",
          "type": "uint256"
        }
      ],
      "name": "QuorumUpdated",
      "type": "event"
    },
    {
      "anonymous": false,
      "inputs": [
        {
          "indexed": true,
          "internalType": "bytes32",
          "name": "role",
          "type": "bytes32"
        },
        {
          "indexed": true,
          "internalType": "bytes32",
          "name": "previousAdminRole",
          "type": "bytes32"
        },
        {
          "indexed": true,
          "internalType": "bytes32",
          "name": "newAdminRole",
          "type": "bytes32"
        }
      ],
      "name": "RoleAdminChanged",
      "type": "event"
    },
    {
      "anonymous": false,
      "inputs": [
        {
          "indexed": true,
          "internalType": "bytes32",
          "name": "role",
          "type": "bytes32"
        },
        {
          "indexed": true,
          "internalType": "address",
          "name": "account",
          "type": "address"
        },
        {
          "indexed": true,
          "internalType": "address",
          "name": "sender",
          "type": "address"
        }
      ],
      "name": "RoleGranted",
      "type": "event"
    },
    {
      "anonymous": false,
      "inputs": [
        {
          "indexed": true,
          "internalType": "bytes32",
          "name": "role",
          "type": "bytes32"
        },
        {
          "indexed": true,
          "internalType": "address",
          "name": "account",
          "type": "address"
        },
        {
          "indexed": true,
          "internalType": "address",
          "name": "sender",
          "type": "address"
        }
      ],
      "name": "RoleRevoked",
      "type": "event"
    },
    {
      "anonymous": false,
      "inputs": [
        {
          "indexed": true,
          "internalType": "uint256",
          "name": "proposalId",
          "type": "uint256"
        },
        {
          "indexed": true,
          "internalType": "address",
          "name": "voter",
          "type": "address"
        },
        {
          "indexed": false,
          "internalType": "bool",
          "name": "support",
          "type": "bool"
        },
        {
          "indexed": false,
          "internalType": "uint256",
          "name": "weight",
          "type": "uint256"
        }
      ],
      "name": "VoteCast",
      "type": "event"
    },
    {
      "inputs": [],
      "name": "DEFAULT_ADMIN_ROLE",
      "outputs": [
        {
          "internalType": "bytes32",
          "name": "",
          "type": "bytes32"
        }
      ],
      "stateMutability": "view",
      "type": "function"
    },
    {
      "inputs": [],
      "name": "MIN_PROPOSAL_THRESHOLD",
      "outputs": [
        {
          "internalType": "uint256",
          "name": "",
          "type": "uint256"
        }
      ],
      "stateMutability": "view",
      "type": "function"
    },
    {
      "inputs": [],
      "name": "VOTING_PERIOD",
      "outputs": [
        {
          "internalType": "uint256",
          "name": "",
          "type": "uint256"
        }
      ],
      "stateMutability": "view",
      "type": "function"
    },
    {
      "inputs": [
        {
          "internalType": "uint256",
          "name": "proposalId",
          "type": "uint256"
        }
      ],
      "name": "cancel",
      "outputs": [],
      "stateMutability": "nonpayable",
      "type": "function"
    },
    {
      "inputs": [
        {
          "internalType": "uint256",
          "name": "proposalId",
          "type": "uint256"
        },
        {
          "internalType": "bool",
          "name": "support",
          "type": "bool"
        }
      ],
      "name": "castVote",
      "outputs": [],
      "stateMutability": "nonpayable",
      "type": "function"
    },
    {
      "inputs": [
        {
          "internalType": "uint256",
          "name": "proposalId",
          "type": "uint256"
        }
      ],
      "name": "execute",
      "outputs": [],
      "stateMutability": "nonpayable",
      "type": "function"
    },
    {
      "inputs": [
        {
          "internalType": "uint256",
          "name": "proposalId",
          "type": "uint256"
        }
      ],
      "name": "getProposal",
      "outputs": [
        {
          "components": [
            {
              "internalType": "uint256",
              "name": "id",
              "type": "uint256"
            },
            {
              "internalType": "address",
              "name": "proposer",
              "type": "address"
            },
            {
              "internalType": "string",
              "name": "title",
              "type": "string"
            },
            {
              "internalType": "string",
              "name": "description",
              "type": "string"
            },
            {
              "internalType": "uint256",
              "name": "forVotes",
              "type": "uint256"
            },
            {
              "internalType": "uint256",
              "name": "againstVotes",
              "type": "uint256"
            },
            {
              "internalType": "uint256",
              "name": "startTime",
              "type": "uint256"
            },
            {
              "internalType": "uint256",
              "name": "endTime",
              "type": "uint256"
            },
            {
              "internalType": "bool",
              "name": "executed",
              "type": "bool"
            },
            {
              "internalType": "bool",
              "name": "cancelled",
              "type": "bool"
            },
            {
              "internalType": "bytes",
              "name": "callData",
              "type": "bytes"
            },
            {
              "internalType": "address",
              "name": "target",
              "type": "address"
            }
          ],
          "internalType": "struct OracleGovernance.Proposal",
          "name": "",
          "type": "tuple"
        }
      ],
      "stateMutability": "view",
      "type": "function"
    },
    {
      "inputs": [
        {
          "internalType": "bytes32",
          "name": "role",
          "type": "bytes32"
        }
      ],
      "name": "getRoleAdmin",
      "outputs": [
        {
          "internalType": "bytes32",
          "name": "",
          "type": "bytes32"
        }
      ],
      "stateMutability": "view",
      "type": "function"
    },
    {
      "inputs": [
        {
          "internalType": "uint256",
          "name": "proposalId",
          "type": "uint256"
        },
        {
          "internalType": "address",
          "name": "voter",
          "type": "address"
        }
      ],
      "name": "getVoteInfo",
      "outputs": [
        {
          "internalType": "bool",
          "name": "voted",
          "type": "bool"
        },
        {
          "internalType": "uint256",
          "name": "weight",
          "type": "uint256"
        },
        {
          "internalType": "bool",
          "name": "support",
          "type": "bool"
        }
      ],
      "stateMutability": "view",
      "type": "function"
    },
    {
      "inputs": [
        {
          "internalType": "bytes32",
          "name": "role",
          "type": "bytes32"
        },
        {
          "internalType": "address",
          "name": "account",
          "type": "address"
        }
      ],
      "name": "grantRole",
      "outputs": [],
      "stateMutability": "nonpayable",
      "type": "function"
    },
    {
      "inputs": [
        {
          "internalType": "bytes32",
          "name": "role",
          "type": "bytes32"
        },
        {
          "internalType": "address",
          "name": "account",
          "type": "address"
        }
      ],
      "name": "hasRole",
      "outputs": [
        {
          "internalType": "bool",
          "name": "",
          "type": "bool"
        }
      ],
      "stateMutability": "view",
      "type": "function"
    },
    {
      "inputs": [
        {
          "internalType": "uint256",
          "name": "",
          "type": "uint256"
        },
        {
          "internalType": "address",
          "name": "",
          "type": "address"
        }
      ],
      "name": "hasVoted",
      "outputs": [
        {
          "internalType": "bool",
          "name": "",
          "type": "bool"
        }
      ],
      "stateMutability": "view",
      "type": "function"
    },
    {
      "inputs": [],
      "name": "oaiToken",
      "outputs": [
        {
          "internalType": "contract IERC20",
          "name": "",
          "type": "address"
        }
      ],
      "stateMutability": "view",
      "type": "function"
    },
    {
      "inputs": [],
      "name": "proposalCount",
      "outputs": [
        {
          "internalType": "uint256",
          "name": "",
          "type": "uint256"
        }
      ],
      "stateMutability": "view",
      "type": "function"
    },
    {
      "inputs": [
        {
          "internalType": "uint256",
          "name": "",
          "type": "uint256"
        }
      ],
      "name": "proposals",
      "outputs": [
        {
          "internalType": "uint256",
          "name": "id",
          "type": "uint256"
        },
        {
          "internalType": "address",
          "name": "proposer",
          "type": "address"
        },
        {
          "internalType": "string",
          "name": "title",
          "type": "string"
        },
        {
          "internalType": "string",
          "name": "description",
          "type": "string"
        },
        {
          "internalType": "uint256",
          "name": "forVotes",
          "type": "uint256"
        },
        {
          "internalType": "uint256",
          "name": "againstVotes",
          "type": "uint256"
        },
        {
          "internalType": "uint256",
          "name": "startTime",
          "type": "uint256"
        },
        {
          "internalType": "uint256",
          "name": "endTime",
          "type": "uint256"
        },
        {
          "internalType": "bool",
          "name": "executed",
          "type": "bool"
        },
        {
          "internalType": "bool",
          "name": "cancelled",
          "type": "bool"
        },
        {
          "internalType": "bytes",
          "name": "callData",
          "type": "bytes"
        },
        {
          "internalType": "address",
          "name": "target",
          "type": "address"
        }
      ],
      "stateMutability": "view",
      "type": "function"
    },
    {
      "inputs": [
        {
          "internalType": "string",
          "name": "title",
          "type": "string"
        },
        {
          "internalType": "string",
          "name": "description",
          "type": "string"
        },
        {
          "internalType": "address",
          "name": "target",
          "type": "address"
        },
        {
          "internalType": "bytes",
          "name": "callData",
          "type": "bytes"
        }
      ],
      "name": "propose",
      "outputs": [
        {
          "internalType": "uint256",
          "name": "",
          "type": "uint256"
        }
      ],
      "stateMutability": "nonpayable",
      "type": "function"
    },
    {
      "inputs": [],
      "name": "quorumBps",
      "outputs": [
        {
          "internalType": "uint256",
          "name": "",
          "type": "uint256"
        }
      ],
      "stateMutability": "view",
      "type": "function"
    },
    {
      "inputs": [
        {
          "internalType": "bytes32",
          "name": "role",
          "type": "bytes32"
        },
        {
          "internalType": "address",
          "name": "callerConfirmation",
          "type": "address"
        }
      ],
      "name": "renounceRole",
      "outputs": [],
      "stateMutability": "nonpayable",
      "type": "function"
    },
    {
      "inputs": [
        {
          "internalType": "bytes32",
          "name": "role",
          "type": "bytes32"
        },
        {
          "internalType": "address",
          "name": "account",
          "type": "address"
        }
      ],
      "name": "revokeRole",
      "outputs": [],
      "stateMutability": "nonpayable",
      "type": "function"
    },
    {
      "inputs": [
        {
          "internalType": "uint256",
          "name": "newBps",
          "type": "uint256"
        }
      ],
      "name": "setQuorum",
      "outputs": [],
      "stateMutability": "nonpayable",
      "type": "function"
    },
    {
      "inputs": [
        {
          "internalType": "uint256",
          "name": "proposalId",
          "type": "uint256"
        }
      ],
      "name": "state",
      "outputs": [
        {
          "internalType": "enum OracleGovernance.ProposalState",
          "name": "",
          "type": "uint8"
        }
      ],
      "stateMutability": "view",
      "type": "function"
    },
    {
      "inputs": [
        {
          "internalType": "bytes4",
          "name": "interfaceId",
          "type": "bytes4"
        }
      ],
      "name": "supportsInterface",
      "outputs": [
        {
          "internalType": "bool",
          "name": "",
          "type": "bool"
        }
      ],
      "stateMutability": "view",
      "type": "function"
    },
    {
      "inputs": [
        {
          "internalType": "uint256",
          "name": "",
          "type": "uint256"
        },
        {
          "internalType": "address",
          "name": "",
          "type": "address"
        }
      ],
      "name": "voteWeight",
      "outputs": [
        {
          "internalType": "uint256",
          "name": "",
          "type": "uint256"
        }
      ],
      "stateMutability": "view",
      "type": "function"
    }
  ],
  "bytecode": "0x6080346100bd57601f62001cac38819003918201601f19168301916001600160401b038311848410176100c2578084926020946040528339810103126100bd57516001600160a01b038116908190036100bd576064600255801561008b57600180546001600160a01b03191691909117905561007a336100d8565b50604051611b439081620001698239f35b60405162461bcd60e51b815260206004820152600a6024820152692d32b937903a37b5b2b760b11b6044820152606490fd5b600080fd5b634e487b7160e01b600052604160045260246000fd5b6001600160a01b031660008181527fad3228b676f7d3cd4284a5443f17f1962b36e491b30a40b2405849e597ba5fb5602052604081205490919060ff1661016457818052816020526040822081835260205260408220600160ff1982541617905533917f2f8788117e7eff1d82e926ec794901d17c78024a50270940304540a733656f0d8180a4600190565b509056fe608080604052600436101561001357600080fd5b60003560e01c908163013cf08b146113cc5750806301ffc9a7146113765780630d524bc6146112ff57806315373e3d146110bc578063248a9ca31461108d5780632b0a999d146110455780632f2ff15d1461100657806336568abe14610fbf5780633e4f49e614610f9057806340e58ee514610e945780634385963214610e47578063791f5d2314610e2257806382ae179114610df957806391d1485414610dac578063a217fddf14610d90578063b1610d7e14610d72578063c1ba4e5914610c7e578063c7f758a814610a67578063cd2ddd0c14610a49578063d547741f14610a08578063da35c664146109ea578063de7b1638146103815763fe0d94c11461011c57600080fd5b3461037c5760208060031936011261037c57600435908160005260048152604060002061014b8154151561167c565b600781015442106103445760088101805461016960ff8216156118ee565b61017960ff8260081c16156116bd565b61018285611702565b600681101561032e576003036102f957600160ff199182168117909255600a8301546001600160a01b031692831515806102e4575b6101e4575b857f712ae1383f79ac853f8d882153778e0260ef8f03b504e2866e0593e04d2b291f600080a2005b600901906040519260009280546101fa816114e9565b93600182169182156102cd575050600114610292575b50505091816000809493819403925af13d1561028d573d6102308161192d565b9061023e60405192836115d6565b81526000833d92013e5b1561025657808080806101bc565b6064906040519062461bcd60e51b82526004820152601060248201526f115e1958dd5d1a5bdb8819985a5b195960821b6044820152fd5b610248565b909192506000528460002090856000925b8484106102bb57505050908201905081600080610210565b805486850152920191869082016102a3565b168652505050801515028201905081600080610210565b506102f260098201546114e9565b15156101b7565b60405162461bcd60e51b815260048101859052600d60248201526c139bdd081cdd58d8d959591959609a1b6044820152606490fd5b634e487b7160e01b600052602160045260246000fd5b60405162461bcd60e51b815260048101839052601060248201526f159bdd1a5b99c81b9bdd08195b99195960821b6044820152606490fd5b600080fd5b3461037c57608036600319011261037c5760043567ffffffffffffffff811161037c576103b290369060040161164e565b9060243567ffffffffffffffff811161037c576103d390369060040161164e565b9290604435906001600160a01b038216820361037c5760643567ffffffffffffffff811161037c5761040990369060040161164e565b6001546040516370a0823160e01b8152336004820152919492939190602090829060249082906001600160a01b03165afa80156109de576000906109a2575b69021e19e0c9bab240000091501061095d5784151580610952575b1561091d5760035492600019841461090757600184016003556203f48042014211610907576001946104c16104fc936040519a61049f8c6115b9565b8888018c523360208d01526104b5368b8d611949565b60408d01523691611949565b60608a0152600060808a0152600060a08a01524260c08a01526203f480420160e08a015260006101008a015260006101208a01523691611949565b610140870152828060a01b03166101608601520160005260046020526040600020918351835560018060a01b036020850151166bffffffffffffffffffffffff60a01b600185015416176001840155604084015180519067ffffffffffffffff82116108025761057c8261057360028801546114e9565b60028801611980565b602090601f8311600114610895576105ad929160009183610818575b50508160011b916000199060031b1c19161790565b60028401555b606084015180519067ffffffffffffffff8211610802576105e4826105db60038801546114e9565b60038801611980565b602090601f8311600114610823576106149291600091836108185750508160011b916000199060031b1c19161790565b60038401555b6080840151600484015560a0840151600584015560c0840151600684015560e08401516007840155600883016101008501511515815460ff61ff00610120890151151560081b1692169061ffff191617179055600983019361014081015194855167ffffffffffffffff8111610802576020966106a18261069b85546114e9565b85611980565b8790601f831160011461077757827f6c98a8c940418b35614f0cd02412d5c9606faff474cbb6cdd6640ba5d1a9f06b9893600a95936106f69360009261076c5750508160011b916000199060031b1c19161790565b90555b019061016060018060a01b03910151166bffffffffffffffffffffffff60a01b825416179055600354928391836040519160608352816060840152608083013760006080858301015242868201526203f480420160408201526080813395601f80199101168101030190a3604051908152f35b015190508b80610598565b90601f1983169184600052896000209260005b8181106107eb57509260019285927f6c98a8c940418b35614f0cd02412d5c9606faff474cbb6cdd6640ba5d1a9f06b9b96600a9896106107d2575b505050811b0190556106f9565b015160001960f88460031b161c191690558a80806107c5565b92938b60018192878601518155019501930161078a565b634e487b7160e01b600052604160045260246000fd5b015190508780610598565b9190600386016000526020600020906000935b601f198416851061087a576001945083601f19811610610861575b505050811b01600384015561061a565b015160001960f88460031b161c19169055868080610851565b81810151835560209485019460019093019290910190610836565b9190600286016000526020600020906000935b601f19841685106108ec576001945083601f198116106108d3575b505050811b0160028401556105b3565b015160001960f88460031b161c191690558680806108c3565b818101518355602094850194600190930192909101906108a8565b634e487b7160e01b600052601160045260246000fd5b60405162461bcd60e51b815260206004820152600d60248201526c496e76616c6964207469746c6560981b6044820152606490fd5b5060c8851115610463565b60405162461bcd60e51b815260206004820152601860248201527f42656c6f772070726f706f73616c207468726573686f6c6400000000000000006044820152606490fd5b506020813d6020116109d6575b816109bc602093836115d6565b8101031261037c5769021e19e0c9bab24000009051610448565b3d91506109af565b6040513d6000823e3d90fd5b3461037c57600036600319011261037c576020600354604051908152f35b3461037c57604036600319011261037c57610a47600435610a27611638565b90806000526000602052610a426001604060002001546119d6565b611a98565b005b3461037c57600036600319011261037c576020600254604051908152f35b3461037c57602036600319011261037c576000610160604051610a89816115b9565b828152826020820152606060408201526060808201528260808201528260a08201528260c08201528260e08201528261010082015282610120820152606061014082015201526004356000526004602052604060002060405190610aec826115b9565b8054825260018101546001600160a01b03166020830152604051610b1e81610b178160028601611523565b03826115d6565b6040830152604051610b3781610b178160038601611523565b606083015260048101546080830152600581015460a0830152600681015460c0830152600781015460e083015260ff6008820154818116151561010085015260081c161515610120830152604051610b9681610b178160098601611523565b610140830152600a01546001600160a01b0390811661016083015260408051602080825284518183015284015190921682820152820151610180606083015290918291610c6490610bec906101a08501906115f8565b610c08606084015191601f1992838783030160808801526115f8565b90608084015160a086015260a084015160c086015260c084015160e086015260e08401516101008601526101008401511515610120860152610120840151151561014086015261014084015190858303016101608601526115f8565b610160909101516001600160a01b03166101808301520390f35b3461037c57602036600319011261037c573360009081527fad3228b676f7d3cd4284a5443f17f1962b36e491b30a40b2405849e597ba5fb560205260409020546004359060ff1615610d535780151580610d47575b15610d115760407f6784e9bcb845caaa98267d7b0918f97d3d17f7cb35a05b52010f7eb587a0acb091600254908060025582519182526020820152a1005b60405162461bcd60e51b815260206004820152600e60248201526d496e76616c69642071756f72756d60901b6044820152606490fd5b50611388811115610cd3565b60405163e2517d3f60e01b815233600482015260006024820152604490fd5b3461037c57600036600319011261037c5760206040516203f4808152f35b3461037c57600036600319011261037c57602060405160008152f35b3461037c57604036600319011261037c57610dc5611638565b600435600052600060205260406000209060018060a01b0316600052602052602060ff604060002054166040519015158152f35b3461037c57600036600319011261037c576001546040516001600160a01b039091168152602090f35b3461037c57600036600319011261037c57602060405169021e19e0c9bab24000008152f35b3461037c57604036600319011261037c57610e60611638565b600435600052600560205260406000209060018060a01b0316600052602052602060ff604060002054166040519015158152f35b3461037c57602036600319011261037c576004358060005260046020526040600020610ec28154151561167c565b60018101546001600160a01b031633148015610f58575b15610f22576008016101008154610ef360ff8216156118ee565b61ff0019161790557f416e669c63d9a3a5e36ee7cc7e2104b8db28ccd286aa18966e98fa230c73b08c600080a2005b60405162461bcd60e51b815260206004820152600e60248201526d139bdd08185d5d1a1bdc9a5e995960921b6044820152606490fd5b503360009081527fad3228b676f7d3cd4284a5443f17f1962b36e491b30a40b2405849e597ba5fb5602052604090205460ff16610ed9565b3461037c57602036600319011261037c57610fac600435611702565b604051600682101561032e576020918152f35b3461037c57604036600319011261037c57610fd8611638565b336001600160a01b03821603610ff457610a4790600435611a98565b60405163334bd91960e11b8152600490fd5b3461037c57604036600319011261037c57610a47600435611025611638565b908060005260006020526110406001604060002001546119d6565b611a1a565b3461037c57604036600319011261037c5761105e611638565b600435600052600660205260406000209060018060a01b03166000526020526020604060002054604051908152f35b3461037c57602036600319011261037c5760043560005260006020526020600160406000200154604051908152f35b3461037c57604036600319011261037c57600435602435908115159182810361037c5781600052602090600482526040600020906110fc8254151561167c565b6006820154421015806112f2575b156112bd5761112360ff600884015460081c16156116bd565b8360005260058352604060002033600052835260ff60406000205416611288576001546040516370a0823160e01b8152336004820152939291908390859060249082906001600160a01b03165afa9384156109de57600094611259575b50831561122257846000526005835260406000203360005283526040600020600160ff19825416179055846000526006835260406000203360005283528360406000205560001461120d576004016111d98382546116f5565b90555b6040519384528301527fcbdf6214089cba887ecbf35a0b6a734589959c9763342c756bb2a80ca2bc9f6e60403393a3005b60050161121b8382546116f5565b90556111dc565b60405162461bcd60e51b815260048101849052600f60248201526e2737903b37ba34b733903837bbb2b960891b6044820152606490fd5b9093508281813d8311611281575b61127181836115d6565b8101031261037c57519286611180565b503d611267565b60405162461bcd60e51b815260048101849052600d60248201526c105b1c9958591e481d9bdd1959609a1b6044820152606490fd5b60405162461bcd60e51b815260048101849052600d60248201526c159bdd1a5b99c818db1bdcd959609a1b6044820152606490fd5b506007820154421061110a565b3461037c57604036600319011261037c57606060043561131d611638565b81600052600560205260406000209060018060a01b0316908160005260205260ff604060002054169160005260066020526040600020906000526020526040600020546040519115158252602082015260006040820152f35b3461037c57602036600319011261037c5760043563ffffffff60e01b811680910361037c57602090637965db0b60e01b81149081156113bb575b506040519015158152f35b6301ffc9a760e01b149050826113b0565b3461037c57602036600319011261037c57600435600052600460205260406000208054916114de60018060a01b03806001850154169361141a846114138160028501611523565b03856115d6565b60ff60405192611431846114138160038701611523565b60048301549360058401546006850154906114a4600787015493611496600889015496600a6040519a6114728c61146b8160098501611523565b038d6115d6565b0154169b6040519e8f9e8f90610180928252602082015281604082015201906115f8565b8c810360608e0152906115f8565b9660808b015260a08a015260c089015260e0880152818116151561010088015260081c1615156101208601528482036101408601526115f8565b906101608301520390f35b90600182811c92168015611519575b602083101461150357565b634e487b7160e01b600052602260045260246000fd5b91607f16916114f8565b805460009392611532826114e9565b9182825260209360019160018116908160001461159a5750600114611559575b5050505050565b90939495506000929192528360002092846000945b83861061158657505050500101903880808080611552565b80548587018301529401938590820161156e565b60ff19168685015250505090151560051b010191503880808080611552565b610180810190811067ffffffffffffffff82111761080257604052565b90601f8019910116810190811067ffffffffffffffff82111761080257604052565b919082519283825260005b848110611624575050826000602080949584010152601f8019910116010190565b602081830181015184830182015201611603565b602435906001600160a01b038216820361037c57565b9181601f8401121561037c5782359167ffffffffffffffff831161037c576020838186019501011161037c57565b1561168357565b60405162461bcd60e51b8152602060048201526012602482015271141c9bdc1bdcd85b081b9bdd08199bdd5b9960721b6044820152606490fd5b156116c457565b60405162461bcd60e51b815260206004820152600960248201526810d85b98d95b1b195960ba1b6044820152606490fd5b9190820180921161090757565b60009081526020906004825260409182822092805192611721846115b9565b8454845260018501546001600160a01b0390811684860152825190939061174f81610b178160028b01611523565b83860152825161176681610b178160038b01611523565b60608601526004860154946080810195865260058701549660a08201978852600681015460c083015260078101549160e0810192835260088201549087600a61010083019460ff85161515865260ff61012085019560081c161515855289516117d681610b178160098601611523565b61014085015201541661016082015251156118e257516118d557516118c9575142106118be578060049161180d87518951906116f5565b95600154168551938480926318160ddd60e01b82525afa9384156118b557508293611881575b50506002549182810292818404149015171561186d5750612710900411611866575190511061186157600290565b600390565b5050600290565b634e487b7160e01b81526011600452602490fd5b9080929350813d83116118ae575b61189981836115d6565b810103126118aa5751903880611833565b5080fd5b503d61188f565b513d84823e3d90fd5b505050505050600190565b50505050505050600490565b5050505050505050600590565b50505050935050505090565b156118f557565b60405162461bcd60e51b815260206004820152601060248201526f105b1c9958591e48195e1958dd5d195960821b6044820152606490fd5b67ffffffffffffffff811161080257601f01601f191660200190565b9291926119558261192d565b9161196360405193846115d6565b82948184528183011161037c578281602093846000960137010152565b90601f811161198e57505050565b6000916000526020600020906020601f850160051c830194106119cc575b601f0160051c01915b8281106119c157505050565b8181556001016119b5565b90925082906119ac565b80600052600060205260406000203360005260205260ff60406000205416156119fc5750565b6044906040519063e2517d3f60e01b82523360048301526024820152fd5b9060009180835282602052604083209160018060a01b03169182845260205260ff60408420541615600014611a9357808352826020526040832082845260205260408320600160ff198254161790557f2f8788117e7eff1d82e926ec794901d17c78024a50270940304540a733656f0d339380a4600190565b505090565b9060009180835282602052604083209160018060a01b03169182845260205260ff604084205416600014611a935780835282602052604083208284526020526040832060ff1981541690557ff6391f5c32d9c69d2a47ea670b442974b53935d1edc7fd64eb21e047a839171b339380a460019056fea2646970667358221220eebea6647c72dc8a9da2e286e58b1330c7b27561e1309277826cfe75e165c91364736f6c63430008180033",
  "linkReferences": {},
  "deployedLinkReferences": {}
}