{
  "_format": "hh-sol-artifact-1",
  "contractName": "PrizePoolV2",
  "sourceName": "contracts/PrizePoolV2.sol",
  "abi": [
    {
      "inputs": [],
      "stateMutability": "nonpayable",
      "type": "constructor"
    },
    {
      "inputs": [],
      "name": "AccessControlBadConfirmation",
      "type": "error"
    },
    {
      "inputs": [
        {
          "internalType": "address",
          "name": "account",
          "type": "address"
        },
        {
          "internalType": "bytes32",
          "name": "neededRole",
          "type": "bytes32"
        }
      ],
      "name": "AccessControlUnauthorizedAccount",
      "type": "error"
    },
    {
      "inputs": [],
      "name": "ReentrancyGuardReentrantCall",
      "type": "error"
    },
    {
      "anonymous": false,
      "inputs": [
        {
          "indexed": false,
          "internalType": "address",
          "name": "to",
          "type": "address"
        },
        {
          "indexed": false,
          "internalType": "uint256",
          "name": "amount",
          "type": "uint256"
        }
      ],
      "name": "EmergencyWithdraw",
      "type": "event"
    },
    {
      "anonymous": false,
      "inputs": [
        {
          "indexed": true,
          "internalType": "uint256",
          "name": "epoch",
          "type": "uint256"
        },
        {
          "indexed": false,
          "internalType": "bytes32",
          "name": "merkleRoot",
          "type": "bytes32"
        },
        {
          "indexed": false,
          "internalType": "uint256",
          "name": "totalAllocation",
          "type": "uint256"
        }
      ],
      "name": "EpochStarted",
      "type": "event"
    },
    {
      "anonymous": false,
      "inputs": [
        {
          "indexed": true,
          "internalType": "uint256",
          "name": "epoch",
          "type": "uint256"
        },
        {
          "indexed": true,
          "internalType": "uint256",
          "name": "index",
          "type": "uint256"
        },
        {
          "indexed": true,
          "internalType": "address",
          "name": "account",
          "type": "address"
        },
        {
          "indexed": false,
          "internalType": "uint256",
          "name": "amount",
          "type": "uint256"
        }
      ],
      "name": "PrizeClaimed",
      "type": "event"
    },
    {
      "anonymous": false,
      "inputs": [
        {
          "indexed": false,
          "internalType": "uint256",
          "name": "amount",
          "type": "uint256"
        }
      ],
      "name": "PrizeReceived",
      "type": "event"
    },
    {
      "anonymous": false,
      "inputs": [
        {
          "indexed": true,
          "internalType": "bytes32",
          "name": "role",
          "type": "bytes32"
        },
        {
          "indexed": true,
          "internalType": "bytes32",
          "name": "previousAdminRole",
          "type": "bytes32"
        },
        {
          "indexed": true,
          "internalType": "bytes32",
          "name": "newAdminRole",
          "type": "bytes32"
        }
      ],
      "name": "RoleAdminChanged",
      "type": "event"
    },
    {
      "anonymous": false,
      "inputs": [
        {
          "indexed": true,
          "internalType": "bytes32",
          "name": "role",
          "type": "bytes32"
        },
        {
          "indexed": true,
          "internalType": "address",
          "name": "account",
          "type": "address"
        },
        {
          "indexed": true,
          "internalType": "address",
          "name": "sender",
          "type": "address"
        }
      ],
      "name": "RoleGranted",
      "type": "event"
    },
    {
      "anonymous": false,
      "inputs": [
        {
          "indexed": true,
          "internalType": "bytes32",
          "name": "role",
          "type": "bytes32"
        },
        {
          "indexed": true,
          "internalType": "address",
          "name": "account",
          "type": "address"
        },
        {
          "indexed": true,
          "internalType": "address",
          "name": "sender",
          "type": "address"
        }
      ],
      "name": "RoleRevoked",
      "type": "event"
    },
    {
      "inputs": [],
      "name": "DEFAULT_ADMIN_ROLE",
      "outputs": [
        {
          "internalType": "bytes32",
          "name": "",
          "type": "bytes32"
        }
      ],
      "stateMutability": "view",
      "type": "function"
    },
    {
      "inputs": [],
      "name": "DISTRIBUTOR_ROLE",
      "outputs": [
        {
          "internalType": "bytes32",
          "name": "",
          "type": "bytes32"
        }
      ],
      "stateMutability": "view",
      "type": "function"
    },
    {
      "inputs": [
        {
          "internalType": "uint256",
          "name": "epoch",
          "type": "uint256"
        },
        {
          "internalType": "uint256",
          "name": "index",
          "type": "uint256"
        },
        {
          "internalType": "address",
          "name": "account",
          "type": "address"
        },
        {
          "internalType": "uint256",
          "name": "amount",
          "type": "uint256"
        },
        {
          "internalType": "bytes32[]",
          "name": "merkleProof",
          "type": "bytes32[]"
        }
      ],
      "name": "claim",
      "outputs": [],
      "stateMutability": "nonpayable",
      "type": "function"
    },
    {
      "inputs": [],
      "name": "currentEpoch",
      "outputs": [
        {
          "internalType": "uint256",
          "name": "",
          "type": "uint256"
        }
      ],
      "stateMutability": "view",
      "type": "function"
    },
    {
      "inputs": [
        {
          "internalType": "address",
          "name": "to",
          "type": "address"
        }
      ],
      "name": "emergencyWithdraw",
      "outputs": [],
      "stateMutability": "nonpayable",
      "type": "function"
    },
    {
      "inputs": [
        {
          "internalType": "uint256",
          "name": "",
          "type": "uint256"
        }
      ],
      "name": "epochs",
      "outputs": [
        {
          "internalType": "bytes32",
          "name": "merkleRoot",
          "type": "bytes32"
        },
        {
          "internalType": "uint256",
          "name": "totalAllocation",
          "type": "uint256"
        },
        {
          "internalType": "uint256",
          "name": "claimed",
          "type": "uint256"
        },
        {
          "internalType": "uint256",
          "name": "startedAt",
          "type": "uint256"
        }
      ],
      "stateMutability": "view",
      "type": "function"
    },
    {
      "inputs": [],
      "name": "getBalance",
      "outputs": [
        {
          "internalType": "uint256",
          "name": "",
          "type": "uint256"
        }
      ],
      "stateMutability": "view",
      "type": "function"
    },
    {
      "inputs": [
        {
          "internalType": "bytes32",
          "name": "role",
          "type": "bytes32"
        }
      ],
      "name": "getRoleAdmin",
      "outputs": [
        {
          "internalType": "bytes32",
          "name": "",
          "type": "bytes32"
        }
      ],
      "stateMutability": "view",
      "type": "function"
    },
    {
      "inputs": [
        {
          "internalType": "bytes32",
          "name": "role",
          "type": "bytes32"
        },
        {
          "internalType": "address",
          "name": "account",
          "type": "address"
        }
      ],
      "name": "grantRole",
      "outputs": [],
      "stateMutability": "nonpayable",
      "type": "function"
    },
    {
      "inputs": [
        {
          "internalType": "bytes32",
          "name": "role",
          "type": "bytes32"
        },
        {
          "internalType": "address",
          "name": "account",
          "type": "address"
        }
      ],
      "name": "hasRole",
      "outputs": [
        {
          "internalType": "bool",
          "name": "",
          "type": "bool"
        }
      ],
      "stateMutability": "view",
      "type": "function"
    },
    {
      "inputs": [
        {
          "internalType": "uint256",
          "name": "epoch",
          "type": "uint256"
        },
        {
          "internalType": "uint256",
          "name": "index",
          "type": "uint256"
        }
      ],
      "name": "isClaimed",
      "outputs": [
        {
          "internalType": "bool",
          "name": "",
          "type": "bool"
        }
      ],
      "stateMutability": "view",
      "type": "function"
    },
    {
      "inputs": [
        {
          "internalType": "bytes32",
          "name": "role",
          "type": "bytes32"
        },
        {
          "internalType": "address",
          "name": "callerConfirmation",
          "type": "address"
        }
      ],
      "name": "renounceRole",
      "outputs": [],
      "stateMutability": "nonpayable",
      "type": "function"
    },
    {
      "inputs": [],
      "name": "reservedFunds",
      "outputs": [
        {
          "internalType": "uint256",
          "name": "",
          "type": "uint256"
        }
      ],
      "stateMutability": "view",
      "type": "function"
    },
    {
      "inputs": [
        {
          "internalType": "bytes32",
          "name": "role",
          "type": "bytes32"
        },
        {
          "internalType": "address",
          "name": "account",
          "type": "address"
        }
      ],
      "name": "revokeRole",
      "outputs": [],
      "stateMutability": "nonpayable",
      "type": "function"
    },
    {
      "inputs": [
        {
          "internalType": "bytes32",
          "name": "merkleRoot",
          "type": "bytes32"
        },
        {
          "internalType": "uint256",
          "name": "totalAllocation",
          "type": "uint256"
        }
      ],
      "name": "startEpoch",
      "outputs": [],
      "stateMutability": "nonpayable",
      "type": "function"
    },
    {
      "inputs": [
        {
          "internalType": "bytes4",
          "name": "interfaceId",
          "type": "bytes4"
        }
      ],
      "name": "supportsInterface",
      "outputs": [
        {
          "internalType": "bool",
          "name": "",
          "type": "bool"
        }
      ],
      "stateMutability": "view",
      "type": "function"
    },
    {
      "inputs": [],
      "name": "totalDistributed",
      "outputs": [
        {
          "internalType": "uint256",
          "name": "",
          "type": "uint256"
        }
      ],
      "stateMutability": "view",
      "type": "function"
    },
    {
      "stateMutability": "payable",
      "type": "receive"
    }
  ],
  "bytecode": "0x6080604052346100465760017f9b779b17422d0df92223018b32b4d1fa46e071723d6817e2486d003becc55f00556100363361004b565b50604051610e6590816100dc8239f35b600080fd5b6001600160a01b031660008181527fad3228b676f7d3cd4284a5443f17f1962b36e491b30a40b2405849e597ba5fb5602052604081205490919060ff166100d757818052816020526040822081835260205260408220600160ff1982541617905533917f2f8788117e7eff1d82e926ec794901d17c78024a50270940304540a733656f0d8180a4600190565b509056fe6080806040526004361015610047575b50361561001b57600080fd5b7f548fe5d3f90bae32b8a889b6f74cabe377b6a8899275d09bed1da9c38af1a8c36020604051348152a1005b60003560e01c90816301ffc9a714610b7d5750806312065fe014610b61578063248a9ca314610b325780632f2ff15d14610af357806336568abe14610aac578063509c5df614610a8e5780635d4df3bf146106455780636ff1c9bc1461050857806376671808146104ea57806391d148541461049d57806392645cbe14610269578063a217fddf1461024d578063c6b61e4c146101ff578063d547741f146101be578063efca2eed146101a0578063f0bd87cc146101655763f364c90c1461010f573861000f565b34610160576040366003190112610160576020610156602435600435600052600560205260406000208160081c600052602052600160ff60406000205492161b8091161490565b6040519015158152f35b600080fd5b346101605760003660031901126101605760206040517ffbd454f36a7e1a388bd6fc3ab10d434aa4578f811acbbcf33afb1c697486313c8152f35b34610160576000366003190112610160576020600254604051908152f35b34610160576040366003190112610160576101fd6004356101dd610bd0565b908060005260006020526101f8600160406000200154610cb6565b610d78565b005b34610160576020366003190112610160576004356000526004602052608060406000208054906001810154906003600282015491015491604051938452602084015260408301526060820152f35b3461016057600036600319011261016057602060405160008152f35b34610160576040366003190112610160573360009081527f37775adb12013835ce20d78b1c52193dd1da3dc792bc1ec9a2d7427221516c8a60209081526040909120546004359060248035917ffbd454f36a7e1a388bd6fc3ab10d434aa4578f811acbbcf33afb1c697486313c9060ff16156104805750821561045057811561041c576102f94760035490610c2b565b82116103d957600154600181018091116103c4578060015560405191608083019083821067ffffffffffffffff8311176103b05750916003604094927f3315523bc634a360f1de836970863d3a2dc322dec057b898deb4be6da717e43b969486528483528783018481528684019060008252606085019242845260005260048a5287600020945185555160018501555160028401555191015561039e81600354610c08565b600355600154948351928352820152a2005b634e487b7160e01b60009081526041600452fd5b50634e487b7160e01b60009081526011600452fd5b8360196064926040519262461bcd60e51b845260048401528201527f496e73756666696369656e7420667265652062616c616e6365000000000000006044820152fd5b83600e6064926040519262461bcd60e51b845260048401528201526d2130b21030b63637b1b0ba34b7b760911b6044820152fd5b83600a6064926040519262461bcd60e51b8452600484015282015269115b5c1d1e481c9bdbdd60b21b6044820152fd5b60405163e2517d3f60e01b81523360048201529182015260449150fd5b34610160576040366003190112610160576104b6610bd0565b600435600052600060205260406000209060018060a01b0316600052602052602060ff604060002054166040519015158152f35b34610160576000366003190112610160576020600154604051908152f35b34610160576020366003190112610160576004356001600160a01b03811690818103610160573360009081527fad3228b676f7d3cd4284a5443f17f1962b36e491b30a40b2405849e597ba5fb5602052604090205460ff16156106265761056d610ded565b81156105f0577f5fafa99d0643513820be26656b45130b01e1c03062e1266bf36f88cbd3bd9695916040916105bf60008080806105ad4760035490610c2b565b80965af16105b9610c38565b50610c78565b82519182526020820152a160017f9b779b17422d0df92223018b32b4d1fa46e071723d6817e2486d003becc55f0055005b60405162461bcd60e51b815260206004820152600e60248201526d16995c9bc81c9958da5c1a595b9d60921b6044820152606490fd5b60405163e2517d3f60e01b815233600482015260006024820152604490fd5b346101605760a0366003190112610160576044356001600160a01b03811690036101605767ffffffffffffffff60843511610160573660236084350112156101605767ffffffffffffffff6084356004013511610160573660246084356004013560051b608435010111610160576106bb610ded565b336044356001600160a01b031603610a5a57610701602435600435600052600560205260406000208160081c600052602052600160ff60406000205492161b8091161490565b610a235760043560005260046020526040600020805480156109ee5760405191602435602084015260018060a01b0360443516604084015260643560608401526060835282608081011067ffffffffffffffff6080850111176109d857608083016040528251602084012060a0840152602060808401526080830160c084011067ffffffffffffffff60c0850111176109d85760c08301604052608083015160a08401206107be60206084356004013560051b0160c08601610be6565b608435600481013560c086015260240160e085015b60246084356004013560051b608435010182106109c8575050906000915b60c085015183101561083b5760e08360051b860101519081811060001461082857600052602052600160406000205b9201916107f1565b9060005260205260016040600020610820565b83036109975760243560081c6004356000526005602052604060002081600052602052604060002054906004356000526005602052604060002090600052602052600160ff602435161b17604060002055600281019081549060016108a260643584610c08565b9101541061095c576108b79060643590610c08565b90556108c7606435600254610c08565b6002556108d8606435600354610c2b565b6003556108f360008080806064356044355af16105b9610c38565b60405160643581526044356001600160a01b03169060243590600435907f608c8c3c6a3d40f40b96fbee44f9b9aee57a39c2fcb8bb0f59d8892b2d5492a290602090a460017f9b779b17422d0df92223018b32b4d1fa46e071723d6817e2486d003becc55f0055005b60405162461bcd60e51b8152602060048201526013602482015272105b1b1bd8d85d1a5bdb88195e18d959591959606a1b6044820152606490fd5b60405162461bcd60e51b81526020600482015260096024820152682130b210383937b7b360b91b6044820152606490fd5b81358152602091820191016107d3565b634e487b7160e01b600052604160045260246000fd5b60405162461bcd60e51b815260206004820152600d60248201526c45706f6368206d697373696e6760981b6044820152606490fd5b60405162461bcd60e51b815260206004820152600f60248201526e105b1c9958591e4818db185a5b5959608a1b6044820152606490fd5b60405162461bcd60e51b815260206004820152600c60248201526b139bdd0818db185a5b585b9d60a21b6044820152606490fd5b34610160576000366003190112610160576020600354604051908152f35b3461016057604036600319011261016057610ac5610bd0565b336001600160a01b03821603610ae1576101fd90600435610d78565b60405163334bd91960e11b8152600490fd5b34610160576040366003190112610160576101fd600435610b12610bd0565b90806000526000602052610b2d600160406000200154610cb6565b610cfa565b346101605760203660031901126101605760043560005260006020526020600160406000200154604051908152f35b3461016057600036600319011261016057602047604051908152f35b34610160576020366003190112610160576004359063ffffffff60e01b821680920361016057602091637965db0b60e01b8114908115610bbf575b5015158152f35b6301ffc9a760e01b14905083610bb8565b602435906001600160a01b038216820361016057565b90601f8019910116810190811067ffffffffffffffff8211176109d857604052565b91908201809211610c1557565b634e487b7160e01b600052601160045260246000fd5b91908203918211610c1557565b3d15610c73573d9067ffffffffffffffff82116109d85760405191610c67601f8201601f191660200184610be6565b82523d6000602084013e565b606090565b15610c7f57565b60405162461bcd60e51b815260206004820152600f60248201526e151c985b9cd9995c8819985a5b1959608a1b6044820152606490fd5b80600052600060205260406000203360005260205260ff6040600020541615610cdc5750565b6044906040519063e2517d3f60e01b82523360048301526024820152fd5b9060009180835282602052604083209160018060a01b03169182845260205260ff60408420541615600014610d7357808352826020526040832082845260205260408320600160ff198254161790557f2f8788117e7eff1d82e926ec794901d17c78024a50270940304540a733656f0d339380a4600190565b505090565b9060009180835282602052604083209160018060a01b03169182845260205260ff604084205416600014610d735780835282602052604083208284526020526040832060ff1981541690557ff6391f5c32d9c69d2a47ea670b442974b53935d1edc7fd64eb21e047a839171b339380a4600190565b7f9b779b17422d0df92223018b32b4d1fa46e071723d6817e2486d003becc55f006002815414610e1d5760029055565b604051633ee5aeb560e01b8152600490fdfea2646970667358221220e776a621e4358a324870f4dd3d2a5352ba767cca58acda3bf064c5b81197d13b64736f6c63430008180033",
  "linkReferences": {},
  "deployedLinkReferences": {}
}