{
  "_format": "hh-sol-artifact-1",
  "contractName": "Referral",
  "sourceName": "contracts/Referral.sol",
  "abi": [
    {
      "inputs": [],
      "stateMutability": "nonpayable",
      "type": "constructor"
    },
    {
      "inputs": [],
      "name": "AccessControlBadConfirmation",
      "type": "error"
    },
    {
      "inputs": [
        {
          "internalType": "address",
          "name": "account",
          "type": "address"
        },
        {
          "internalType": "bytes32",
          "name": "neededRole",
          "type": "bytes32"
        }
      ],
      "name": "AccessControlUnauthorizedAccount",
      "type": "error"
    },
    {
      "inputs": [],
      "name": "ReentrancyGuardReentrantCall",
      "type": "error"
    },
    {
      "anonymous": false,
      "inputs": [
        {
          "indexed": true,
          "internalType": "address",
          "name": "referrer",
          "type": "address"
        },
        {
          "indexed": true,
          "internalType": "address",
          "name": "from",
          "type": "address"
        },
        {
          "indexed": false,
          "internalType": "uint256",
          "name": "level",
          "type": "uint256"
        },
        {
          "indexed": false,
          "internalType": "uint256",
          "name": "amount",
          "type": "uint256"
        }
      ],
      "name": "ReferralPaid",
      "type": "event"
    },
    {
      "anonymous": false,
      "inputs": [
        {
          "indexed": true,
          "internalType": "address",
          "name": "user",
          "type": "address"
        },
        {
          "indexed": true,
          "internalType": "address",
          "name": "referrer",
          "type": "address"
        }
      ],
      "name": "ReferralRegistered",
      "type": "event"
    },
    {
      "anonymous": false,
      "inputs": [
        {
          "indexed": true,
          "internalType": "address",
          "name": "user",
          "type": "address"
        },
        {
          "indexed": false,
          "internalType": "uint256",
          "name": "amount",
          "type": "uint256"
        }
      ],
      "name": "ReferralWithdrawn",
      "type": "event"
    },
    {
      "anonymous": false,
      "inputs": [
        {
          "indexed": true,
          "internalType": "bytes32",
          "name": "role",
          "type": "bytes32"
        },
        {
          "indexed": true,
          "internalType": "bytes32",
          "name": "previousAdminRole",
          "type": "bytes32"
        },
        {
          "indexed": true,
          "internalType": "bytes32",
          "name": "newAdminRole",
          "type": "bytes32"
        }
      ],
      "name": "RoleAdminChanged",
      "type": "event"
    },
    {
      "anonymous": false,
      "inputs": [
        {
          "indexed": true,
          "internalType": "bytes32",
          "name": "role",
          "type": "bytes32"
        },
        {
          "indexed": true,
          "internalType": "address",
          "name": "account",
          "type": "address"
        },
        {
          "indexed": true,
          "internalType": "address",
          "name": "sender",
          "type": "address"
        }
      ],
      "name": "RoleGranted",
      "type": "event"
    },
    {
      "anonymous": false,
      "inputs": [
        {
          "indexed": true,
          "internalType": "bytes32",
          "name": "role",
          "type": "bytes32"
        },
        {
          "indexed": true,
          "internalType": "address",
          "name": "account",
          "type": "address"
        },
        {
          "indexed": true,
          "internalType": "address",
          "name": "sender",
          "type": "address"
        }
      ],
      "name": "RoleRevoked",
      "type": "event"
    },
    {
      "anonymous": false,
      "inputs": [
        {
          "indexed": true,
          "internalType": "address",
          "name": "to",
          "type": "address"
        },
        {
          "indexed": false,
          "internalType": "uint256",
          "name": "amount",
          "type": "uint256"
        }
      ],
      "name": "UnallocatedWithdrawn",
      "type": "event"
    },
    {
      "inputs": [],
      "name": "DEFAULT_ADMIN_ROLE",
      "outputs": [
        {
          "internalType": "bytes32",
          "name": "",
          "type": "bytes32"
        }
      ],
      "stateMutability": "view",
      "type": "function"
    },
    {
      "inputs": [],
      "name": "MAX_DIRECT_REFERRALS",
      "outputs": [
        {
          "internalType": "uint256",
          "name": "",
          "type": "uint256"
        }
      ],
      "stateMutability": "view",
      "type": "function"
    },
    {
      "inputs": [],
      "name": "MAX_LEVELS",
      "outputs": [
        {
          "internalType": "uint256",
          "name": "",
          "type": "uint256"
        }
      ],
      "stateMutability": "view",
      "type": "function"
    },
    {
      "inputs": [],
      "name": "OPERATOR_ROLE",
      "outputs": [
        {
          "internalType": "bytes32",
          "name": "",
          "type": "bytes32"
        }
      ],
      "stateMutability": "view",
      "type": "function"
    },
    {
      "inputs": [
        {
          "internalType": "address",
          "name": "",
          "type": "address"
        },
        {
          "internalType": "uint256",
          "name": "",
          "type": "uint256"
        }
      ],
      "name": "directReferrals",
      "outputs": [
        {
          "internalType": "address",
          "name": "",
          "type": "address"
        }
      ],
      "stateMutability": "view",
      "type": "function"
    },
    {
      "inputs": [
        {
          "internalType": "address",
          "name": "user",
          "type": "address"
        },
        {
          "internalType": "uint256",
          "name": "totalReferralFee",
          "type": "uint256"
        }
      ],
      "name": "distributeReferralFees",
      "outputs": [],
      "stateMutability": "payable",
      "type": "function"
    },
    {
      "inputs": [
        {
          "internalType": "address",
          "name": "user",
          "type": "address"
        }
      ],
      "name": "getDirectReferrals",
      "outputs": [
        {
          "internalType": "address[]",
          "name": "",
          "type": "address[]"
        }
      ],
      "stateMutability": "view",
      "type": "function"
    },
    {
      "inputs": [
        {
          "internalType": "address",
          "name": "user",
          "type": "address"
        }
      ],
      "name": "getReferralChain",
      "outputs": [
        {
          "internalType": "address[6]",
          "name": "chain",
          "type": "address[6]"
        }
      ],
      "stateMutability": "view",
      "type": "function"
    },
    {
      "inputs": [
        {
          "internalType": "bytes32",
          "name": "role",
          "type": "bytes32"
        }
      ],
      "name": "getRoleAdmin",
      "outputs": [
        {
          "internalType": "bytes32",
          "name": "",
          "type": "bytes32"
        }
      ],
      "stateMutability": "view",
      "type": "function"
    },
    {
      "inputs": [
        {
          "internalType": "bytes32",
          "name": "role",
          "type": "bytes32"
        },
        {
          "internalType": "address",
          "name": "account",
          "type": "address"
        }
      ],
      "name": "grantRole",
      "outputs": [],
      "stateMutability": "nonpayable",
      "type": "function"
    },
    {
      "inputs": [
        {
          "internalType": "address",
          "name": "",
          "type": "address"
        }
      ],
      "name": "hasReferrer",
      "outputs": [
        {
          "internalType": "bool",
          "name": "",
          "type": "bool"
        }
      ],
      "stateMutability": "view",
      "type": "function"
    },
    {
      "inputs": [
        {
          "internalType": "bytes32",
          "name": "role",
          "type": "bytes32"
        },
        {
          "internalType": "address",
          "name": "account",
          "type": "address"
        }
      ],
      "name": "hasRole",
      "outputs": [
        {
          "internalType": "bool",
          "name": "",
          "type": "bool"
        }
      ],
      "stateMutability": "view",
      "type": "function"
    },
    {
      "inputs": [
        {
          "internalType": "uint256",
          "name": "",
          "type": "uint256"
        }
      ],
      "name": "levelPercents",
      "outputs": [
        {
          "internalType": "uint256",
          "name": "",
          "type": "uint256"
        }
      ],
      "stateMutability": "view",
      "type": "function"
    },
    {
      "inputs": [
        {
          "internalType": "address",
          "name": "",
          "type": "address"
        }
      ],
      "name": "pendingEarnings",
      "outputs": [
        {
          "internalType": "uint256",
          "name": "",
          "type": "uint256"
        }
      ],
      "stateMutability": "view",
      "type": "function"
    },
    {
      "inputs": [
        {
          "internalType": "address",
          "name": "",
          "type": "address"
        }
      ],
      "name": "referrer",
      "outputs": [
        {
          "internalType": "address",
          "name": "",
          "type": "address"
        }
      ],
      "stateMutability": "view",
      "type": "function"
    },
    {
      "inputs": [
        {
          "internalType": "address",
          "name": "user",
          "type": "address"
        },
        {
          "internalType": "address",
          "name": "ref",
          "type": "address"
        }
      ],
      "name": "registerReferral",
      "outputs": [],
      "stateMutability": "nonpayable",
      "type": "function"
    },
    {
      "inputs": [
        {
          "internalType": "bytes32",
          "name": "role",
          "type": "bytes32"
        },
        {
          "internalType": "address",
          "name": "callerConfirmation",
          "type": "address"
        }
      ],
      "name": "renounceRole",
      "outputs": [],
      "stateMutability": "nonpayable",
      "type": "function"
    },
    {
      "inputs": [
        {
          "internalType": "bytes32",
          "name": "role",
          "type": "bytes32"
        },
        {
          "internalType": "address",
          "name": "account",
          "type": "address"
        }
      ],
      "name": "revokeRole",
      "outputs": [],
      "stateMutability": "nonpayable",
      "type": "function"
    },
    {
      "inputs": [
        {
          "internalType": "address",
          "name": "_staking",
          "type": "address"
        }
      ],
      "name": "setStakingContract",
      "outputs": [],
      "stateMutability": "nonpayable",
      "type": "function"
    },
    {
      "inputs": [],
      "name": "stakingContract",
      "outputs": [
        {
          "internalType": "contract IStakingBoost",
          "name": "",
          "type": "address"
        }
      ],
      "stateMutability": "view",
      "type": "function"
    },
    {
      "inputs": [
        {
          "internalType": "bytes4",
          "name": "interfaceId",
          "type": "bytes4"
        }
      ],
      "name": "supportsInterface",
      "outputs": [
        {
          "internalType": "bool",
          "name": "",
          "type": "bool"
        }
      ],
      "stateMutability": "view",
      "type": "function"
    },
    {
      "inputs": [
        {
          "internalType": "address",
          "name": "",
          "type": "address"
        }
      ],
      "name": "totalEarnings",
      "outputs": [
        {
          "internalType": "uint256",
          "name": "",
          "type": "uint256"
        }
      ],
      "stateMutability": "view",
      "type": "function"
    },
    {
      "inputs": [],
      "name": "unallocatedFees",
      "outputs": [
        {
          "internalType": "uint256",
          "name": "",
          "type": "uint256"
        }
      ],
      "stateMutability": "view",
      "type": "function"
    },
    {
      "inputs": [],
      "name": "withdrawReferralEarnings",
      "outputs": [],
      "stateMutability": "nonpayable",
      "type": "function"
    },
    {
      "inputs": [
        {
          "internalType": "address",
          "name": "to",
          "type": "address"
        },
        {
          "internalType": "uint256",
          "name": "amount",
          "type": "uint256"
        }
      ],
      "name": "withdrawUnallocated",
      "outputs": [],
      "stateMutability": "nonpayable",
      "type": "function"
    },
    {
      "stateMutability": "payable",
      "type": "receive"
    }
  ],
  "bytecode": "0x6080346100be5760017f9b779b17422d0df92223018b32b4d1fa46e071723d6817e2486d003becc55f008190559060c081016001600160401b038111828210176100a8576040526064815260209060326020820152601e604082015260146060820152600f6080820152600a60a082015260005b6006811061009457610084336100c3565b5060405161119390816101548239f35b815160ff1690840190815590820190610073565b634e487b7160e01b600052604160045260246000fd5b600080fd5b6001600160a01b031660008181527fad3228b676f7d3cd4284a5443f17f1962b36e491b30a40b2405849e597ba5fb5602052604081205490919060ff1661014f57818052816020526040822081835260205260408220600160ff1982541617905533917f2f8788117e7eff1d82e926ec794901d17c78024a50270940304540a733656f0d8180a4600190565b509056fe60806040818152600480361015610021575b505050361561001f57600080fd5b005b600092833560e01c90816301ffc9a714610b7a5750806305ad393514610b2157806318452cd814610ae3578063248a9ca314610aba5780632a52fabc14610a755780632cf003c214610a3a5780632f2ff15d14610a115780633000e8e4146109d957806335fc1abc1461087557806336568abe1461082e578063451459f2146107315780635603b9f9146104d35780636667864d146103f25780636702c7bf146103d6578063851170051461039e5780638fe9cb301461037f57806391d148541461033a5780639dd373b9146102f2578063a217fddf146102d7578063d2c8e0e51461022d578063d547741f146101ef578063e58a2d5d146101d3578063ee99205c146101aa578063f5b541a61461016b5763fb987036036100115734610167576020366003190112610167573560068110156101675760209250600101549051908152f35b8280fd5b5050346101a657816003193601126101a657602090517f97667070c54ef182b0f5858b034beac1b6f3089aa2d3188bb1e8929f4fa9b9298152f35b5080fd5b5050346101a657816003193601126101a65760075490516001600160a01b039091168152602090f35b5050346101a657816003193601126101a6576020905160648152f35b50903461016757806003193601126101675761022991356102246001610213610be9565b938387528660205286200154610ff4565b6110c8565b5080f35b5050346101a657602080600319360112610167576001600160a01b039283610253610bce565b1681526009825282812091835190818185549182815201908195855282852090855b8181106102c1575050508261028b910383610c56565b8451948186019282875251809352850193925b8281106102ab5785850386f35b835187168552938101939281019260010161029e565b82548a1684529284019260019283019201610275565b5050346101a657816003193601126101a65751908152602090f35b83346103375760203660031901126103375761030c610bce565b610314610fba565b60018060a01b03166bffffffffffffffffffffffff60a01b600754161760075580f35b80fd5b50346101675781600319360112610167578160209360ff9261035a610be9565b903582528186528282206001600160a01b039091168252855220549151911615158152f35b5050346101a657816003193601126101a657602090600d549051908152f35b5050346101a65760203660031901126101a65760209181906001600160a01b036103c6610bce565b168152600b845220549051908152f35b5050346101a657816003193601126101a6576020905160068152f35b5090346101675760209060206003193601126104cf57610410610bce565b81519360c085019085821067ffffffffffffffff8311176104bc5750829594955260c036863783905b60068210610475575b5050519291835b600682106104565760c085f35b83516001600160a01b0316815292820192600191909101908201610449565b6001600160a01b039081168552600a84528285205494959460ff16156104b45760019060088552838720541691828160051b8701520190949394610439565b949394610442565b634e487b7160e01b875260419052602486fd5b8380fd5b5090346101675780600319360112610167576104ed610bce565b6104f5610be9565b926104fe610f40565b60018060a01b0380921692838652600a94602090600a825260ff80848a2054166106f757858216978888146106c457881561069157888a52600984526064926064868c205410156106565792878b945b600686106105f1575b505050878a525050600882525081872080546001600160a01b03191687179055600a8152818720805460ff19166001179055858752600990528520805491680100000000000000008310156104bc5750906105b791600182018155610bff565b819291549060031b9184831b921b19161790557f5f1ca2fcc108b751843a763e60d2201f593516109d7dbb1b700468f2d4190bb78380a380f35b16898114610626578b5281855282868c2054161561061f5760088552600188878d205416940193889061054e565b8781610557565b50855162461bcd60e51b8152808801869052600c60248201526b21b4b931bab630b9103932b360a11b6044820152fd5b855162461bcd60e51b8152808801869052601560248201527413585e081c9959995c9c985b1cc81c995858da1959605a1b6044820152606490fd5b845162461bcd60e51b8152808701859052600d60248201526c2d32b937903932b332b93932b960991b6044820152606490fd5b845162461bcd60e51b8152808701859052600d60248201526c14d95b198b5c9959995c9c985b609a1b6044820152606490fd5b835162461bcd60e51b8152808601849052601460248201527320b63932b0b23c903430b9903932b332b93932b960611b6044820152606490fd5b50903461016757826003193601126101675761074b61101a565b338352600c602052808320549182156107f557338452600c60205283828120558380808086335af161077b610f00565b50156107c15750519081527f8d38441deb8d3c27d5ddaa8308892edabf1c6556c655494ac56ab41f7d85220860203392a2600160008051602061113e8339815191525580f35b6020606492519162461bcd60e51b8352820152600f60248201526e15da5d1a191c985dc819985a5b1959608a1b6044820152fd5b6020606492519162461bcd60e51b835282015260146024820152734e6f20726566657272616c206561726e696e677360601b6044820152fd5b509190346101a657806003193601126101a657610849610be9565b90336001600160a01b0383160361086657506102299192356110c8565b5163334bd91960e11b81528390fd5b503461016757816003193601126101675761088e610bce565b916024359161089b610fba565b6108a361101a565b6001600160a01b0384169384156109a55783151580610999575b15610969578580808681946108d482600d54610c9b565b600d555af16108e1610f00565b501561092757507f3d1ba4dd8653665dacb4e2ace5ddb689de17dbf3b68949e86a4e818d8e979deb9160209151908152a2600160008051602061113e8339815191525580f35b6020606492519162461bcd60e51b8352820152601b60248201527f556e616c6c6f6361746564207472616e73666572206661696c656400000000006044820152fd5b506020606492519162461bcd60e51b8352820152600a60248201526910985908185b5bdd5b9d60b21b6044820152fd5b50600d548411156108bd565b506020606492519162461bcd60e51b8352820152600e60248201526d16995c9bc81c9958da5c1a595b9d60921b6044820152fd5b5050346101a65760203660031901126101a65760209181906001600160a01b03610a01610bce565b168152600c845220549051908152f35b5090346101675780600319360112610167576102299135610a356001610213610be9565b61104a565b5050346101a65760203660031901126101a6576020916001600160a01b0390829082610a64610bce565b168152600885522054169051908152f35b505036600319011261033757610aa5610a8c610bce565b610a94610f40565b610a9c61101a565b60243590610ca8565b600160008051602061113e8339815191525580f35b503461016757602036600319011261016757816020936001923581528085522001549051908152f35b5050346101a65760203660031901126101a65760209160ff9082906001600160a01b03610b0e610bce565b168152600a855220541690519015158152f35b5050346101a657806003193601126101a657610b3b610bce565b6001600160a01b0390811683526009602052818320805460243594908510156103375750602093610b6b91610bff565b92905490519260031b1c168152f35b92505034610167576020366003190112610167573563ffffffff60e01b81168091036101675760209250637965db0b60e01b8114908115610bbd575b5015158152f35b6301ffc9a760e01b14905038610bb6565b600435906001600160a01b0382168203610be457565b600080fd5b602435906001600160a01b0382168203610be457565b8054821015610c175760005260206000200190600090565b634e487b7160e01b600052603260045260246000fd5b81810292918115918404141715610c4057565b634e487b7160e01b600052601160045260246000fd5b90601f8019910116810190811067ffffffffffffffff821117610c7857604052565b634e487b7160e01b600052604160045260246000fd5b91908201809211610c4057565b91908203918211610c4057565b6001600160a01b03166000818152600a602052604090205491929160ff1615610efb5760086020526040600090812054909182916001600160a01b03165b600683108080610ee9575b15610edd5715610c17576103e8610d0c846001015488610c2d565b600754919004906001600160a01b031680610e42575b5080151580610e2f575b610da3575b506001600160a01b03166000908152600a602052604090205460ff1615610d795760086020526040600020546001600160a01b0316916000198114610c405760010191610ce6565b50509091505b348110610d895750565b610d96610d9e9134610c9b565b600d54610c8e565b600d55565b610dec8160018060a01b0384169687600052600c6020526040600020610dca838254610c8e565b905587600052600b6020526040600020610de5838254610c8e565b9055610c8e565b9460018501808611610c405760407f65db98422e8b7340e0d6dfa99bbadd4ba95a51fefafd8f0e1cbbb2e819429a4291869482519182526020820152a338610d31565b50610e3a8186610c8e565b341015610d2c565b604051638e7cb6a560e01b81526001600160a01b038416600482015290602090829060249082905afa908115610ed157600091610e9f575b508015610d225790612710918201808311610c4057610e9891610c2d565b0438610d22565b90506020813d602011610ec9575b81610eba60209383610c56565b81010312610be4575138610e7a565b3d9150610ead565b6040513d6000823e3d90fd5b50505050909150610d7f565b506001600160a01b0382161515610cf1565b509050565b3d15610f3b573d9067ffffffffffffffff8211610c785760405191610f2f601f8201601f191660200184610c56565b82523d6000602084013e565b606090565b3360009081527fee57cd81e84075558e8fcc182a1f4393f91fc97f963a136e66b7f949a62f319f60205260409020547f97667070c54ef182b0f5858b034beac1b6f3089aa2d3188bb1e8929f4fa9b9299060ff1615610f9c5750565b6044906040519063e2517d3f60e01b82523360048301526024820152fd5b3360009081527fad3228b676f7d3cd4284a5443f17f1962b36e491b30a40b2405849e597ba5fb5602052604081205460ff1615610f9c5750565b80600052600060205260406000203360005260205260ff6040600020541615610f9c5750565b60008051602061113e83398151915260028154146110385760029055565b604051633ee5aeb560e01b8152600490fd5b9060009180835282602052604083209160018060a01b03169182845260205260ff604084205416156000146110c357808352826020526040832082845260205260408320600160ff198254161790557f2f8788117e7eff1d82e926ec794901d17c78024a50270940304540a733656f0d339380a4600190565b505090565b9060009180835282602052604083209160018060a01b03169182845260205260ff6040842054166000146110c35780835282602052604083208284526020526040832060ff1981541690557ff6391f5c32d9c69d2a47ea670b442974b53935d1edc7fd64eb21e047a839171b339380a460019056fe9b779b17422d0df92223018b32b4d1fa46e071723d6817e2486d003becc55f00a2646970667358221220938868f1145b6cf32a319f102fb1e25b93a69590b9a278353f1bba5baf6af94464736f6c63430008180033",
  "linkReferences": {},
  "deployedLinkReferences": {}
}