{"@openzeppelin/contracts/finance/VestingWallet.sol":{"VestingWallet":{"abi":[{"inputs":[{"internalType":"address","name":"beneficiary","type":"address"},{"internalType":"uint64","name":"startTimestamp","type":"uint64"},{"internalType":"uint64","name":"durationSeconds","type":"uint64"}],"stateMutability":"payable","type":"constructor"},{"inputs":[],"name":"FailedCall","type":"error"},{"inputs":[{"internalType":"uint256","name":"balance","type":"uint256"},{"internalType":"uint256","name":"needed","type":"uint256"}],"name":"InsufficientBalance","type":"error"},{"inputs":[{"internalType":"address","name":"owner","type":"address"}],"name":"OwnableInvalidOwner","type":"error"},{"inputs":[{"internalType":"address","name":"account","type":"address"}],"name":"OwnableUnauthorizedAccount","type":"error"},{"inputs":[{"internalType":"address","name":"token","type":"address"}],"name":"SafeERC20FailedOperation","type":"error"},{"anonymous":false,"inputs":[{"indexed":true,"internalType":"address","name":"token","type":"address"},{"indexed":false,"internalType":"uint256","name":"amount","type":"uint256"}],"name":"ERC20Released","type":"event"},{"anonymous":false,"inputs":[{"indexed":false,"internalType":"uint256","name":"amount","type":"uint256"}],"name":"EtherReleased","type":"event"},{"anonymous":false,"inputs":[{"indexed":true,"internalType":"address","name":"previousOwner","type":"address"},{"indexed":true,"internalType":"address","name":"newOwner","type":"address"}],"name":"OwnershipTransferred","type":"event"},{"inputs":[],"name":"duration","outputs":[{"internalType":"uint256","name":"","type":"uint256"}],"stateMutability":"view","type":"function"},{"inputs":[],"name":"end","outputs":[{"internalType":"uint256","name":"","type":"uint256"}],"stateMutability":"view","type":"function"},{"inputs":[],"name":"owner","outputs":[{"internalType":"address","name":"","type":"address"}],"stateMutability":"view","type":"function"},{"inputs":[{"internalType":"address","name":"token","type":"address"}],"name":"releasable","outputs":[{"internalType":"uint256","name":"","type":"uint256"}],"stateMutability":"view","type":"function"},{"inputs":[],"name":"releasable","outputs":[{"internalType":"uint256","name":"","type":"uint256"}],"stateMutability":"view","type":"function"},{"inputs":[{"internalType":"address","name":"token","type":"address"}],"name":"release","outputs":[],"stateMutability":"nonpayable","type":"function"},{"inputs":[],"name":"release","outputs":[],"stateMutability":"nonpayable","type":"function"},{"inputs":[],"name":"released","outputs":[{"internalType":"uint256","name":"","type":"uint256"}],"stateMutability":"view","type":"function"},{"inputs":[{"internalType":"address","name":"token","type":"address"}],"name":"released","outputs":[{"internalType":"uint256","name":"","type":"uint256"}],"stateMutability":"view","type":"function"},{"inputs":[],"name":"renounceOwnership","outputs":[],"stateMutability":"nonpayable","type":"function"},{"inputs":[],"name":"start","outputs":[{"internalType":"uint256","name":"","type":"uint256"}],"stateMutability":"view","type":"function"},{"inputs":[{"internalType":"address","name":"newOwner","type":"address"}],"name":"transferOwnership","outputs":[],"stateMutability":"nonpayable","type":"function"},{"inputs":[{"internalType":"uint64","name":"timestamp","type":"uint64"}],"name":"vestedAmount","outputs":[{"internalType":"uint256","name":"","type":"uint256"}],"stateMutability":"view","type":"function"},{"inputs":[{"internalType":"address","name":"token","type":"address"},{"internalType":"uint64","name":"timestamp","type":"uint64"}],"name":"vestedAmount","outputs":[{"internalType":"uint256","name":"","type":"uint256"}],"stateMutability":"view","type":"function"},{"stateMutability":"payable","type":"receive"}],"evm":{"bytecode":{"linkReferences":{},"object":"60c0601f6109b638819003918201601f19168301916001600160401b03831184841017610109578084926060946040528339810103126101045780516001600160a01b0391828216918290036101045761006760406100606020840161011f565b920161011f565b9180156100eb57600080546001600160a01b03198116831782556040519516907f8be0079c531659141344cd1fd0a4f28419497f9722a3daafe3b4186f6b6457e09080a360805260a052610882908161013482396080518181816101d401528181610749015261077d015260a0518181816105650152818161072601526107df0152f35b604051631e4fbdf760e01b815260006004820152602490fd5b600080fd5b634e487b7160e01b600052604160045260246000fd5b51906001600160401b03821682036101045756fe60406080815260049081361015610020575b5050361561001e57600080fd5b005b600091823560e01c9081630a17b06b146105895781630fb5a6b4146105445781631916558714610436578163715018a6146103dc578163810ec23b1461039d57816386d1a69f1461029d5781638da5cb5b1461027557816396132521146102565781639852595c1461021e578163a3f8eace146101f8578163be9a6555146101b3578163efbe1c1c14610196578163f2fde38b1461010b575063fbccedae036100115734610107578160031936011261010757602090610100476100fb600154916100f68367ffffffffffffffff4216926105de565b61076e565b6106d2565b9051908152f35b5080fd5b905034610192576020366003190112610192576101266105c3565b9061012f610820565b6001600160a01b0391821692831561017c57505082546001600160a01b0319811683178455167f8be0079c531659141344cd1fd0a4f28419497f9722a3daafe3b4186f6b6457e08380a380f35b51631e4fbdf760e01b8152908101849052602490fd5b8280fd5b505034610107578160031936011261010757602090610100610717565b5050346101075781600319360112610107576020905167ffffffffffffffff7f0000000000000000000000000000000000000000000000000000000000000000168152f35b505034610107576020366003190112610107576020906101006102196105c3565b6106df565b5050346101075760203660031901126101075760209181906001600160a01b036102466105c3565b1681526002845220549051908152f35b5050346101075781600319360112610107576020906001549051908152f35b505034610107578160031936011261010757905490516001600160a01b039091168152602090f35b9190503461019257826003193601126101925760015467ffffffffffffffff906102db6102d4826100fb4286166100f683476105de565b80926105de565b6001557fda9d4e5f101b8b9b1c5b76d0c5a9f7923571acfc02376aa076b75a8c080c956b60208451838152a184546001600160a01b0316478211610380578580809381935af1903d1561037a573d90811161036757825190610347601f8201601f191660200183610601565b81528460203d92013e5b1561035a578280f35b5163d6bda27560e01b8152fd5b634e487b7160e01b855260418452602485fd5b50610351565b835163cf47918160e01b8152478187015260248101839052604490fd5b5050346101075780600319360112610107576103b76105c3565b6024359267ffffffffffffffff841684036103d9575060209261010091610639565b80fd5b83346103d957806003193601126103d9576103f5610820565b80546001600160a01b03198116825581906001600160a01b03167f8be0079c531659141344cd1fd0a4f28419497f9722a3daafe3b4186f6b6457e08280a380f35b91905034610192576020366003190112610192576104526105c3565b9061045c826106df565b60018060a01b0380931692838652600260205282862061047d8382546105de565b9055837fc0e523490dd523c33b1878c9eb14ff46991e3f5b2cd33710918618f2a39cba1b60208551858152a285541690825190602082019263a9059cbb60e01b845260248301526044820152604481526080810181811067ffffffffffffffff8211176105315783525160209186919082865af1156105285783513d61051f5750813b155b61050a578380f35b51635274afe760e01b81529182015260249150fd5b60011415610502565b513d84823e3d90fd5b634e487b7160e01b875260418652602487fd5b5050346101075781600319360112610107576020905167ffffffffffffffff7f0000000000000000000000000000000000000000000000000000000000000000168152f35b90503461019257602036600319011261019257359167ffffffffffffffff831683036103d957506101006020926100f647600154906105de565b600435906001600160a01b03821682036105d957565b600080fd5b919082018092116105eb57565b634e487b7160e01b600052601160045260246000fd5b90601f8019910116810190811067ffffffffffffffff82111761062357604052565b634e487b7160e01b600052604160045260246000fd5b6040516370a0823160e01b81523060048201526001600160a01b03919091169190602081602481865afa9081156106c657600091610692575b506100f69061068f936000526002602052604060002054906105de565b90565b90506020813d6020116106be575b816106ad60209383610601565b810103126105d9575161068f610672565b3d91506106a0565b6040513d6000823e3d90fd5b919082039182116105eb57565b61068f906106f767ffffffffffffffff421682610639565b6001600160a01b03909116600090815260026020526040902054906106d2565b61068f67ffffffffffffffff807f000000000000000000000000000000000000000000000000000000000000000016907f0000000000000000000000000000000000000000000000000000000000000000166105de565b9067ffffffffffffffff9081167f00000000000000000000000000000000000000000000000000000000000000008216808210156107af5750505050600090565b6107b7610717565b82106107c35750505090565b6107cc916106d2565b918281029281840414901517156105eb577f00000000000000000000000000000000000000000000000000000000000000001690811561080a570490565b634e487b7160e01b600052601260045260246000fd5b6000546001600160a01b0316330361083457565b60405163118cdaa760e01b8152336004820152602490fdfea2646970667358221220de4d83a7a2c0875c686f33a0e06840f6b6faf3b15f1a626df1431878ab5f362464736f6c63430008180033","opcodes":"PUSH1 0xC0 PUSH1 0x1F PUSH2 0x9B6 CODESIZE DUP2 SWAP1 SUB SWAP2 DUP3 ADD PUSH1 0x1F NOT AND DUP4 ADD SWAP2 PUSH1 0x1 PUSH1 0x1 PUSH1 0x40 SHL SUB DUP4 GT DUP5 DUP5 LT OR PUSH2 0x109 JUMPI DUP1 DUP5 SWAP3 PUSH1 0x60 SWAP5 PUSH1 0x40 MSTORE DUP4 CODECOPY DUP2 ADD SUB SLT PUSH2 0x104 JUMPI DUP1 MLOAD PUSH1 0x1 PUSH1 0x1 PUSH1 0xA0 SHL SUB SWAP2 DUP3 DUP3 AND SWAP2 DUP3 SWAP1 SUB PUSH2 0x104 JUMPI PUSH2 0x67 PUSH1 0x40 PUSH2 0x60 PUSH1 0x20 DUP5 ADD PUSH2 0x11F JUMP JUMPDEST SWAP3 ADD PUSH2 0x11F JUMP JUMPDEST SWAP2 DUP1 ISZERO PUSH2 0xEB JUMPI PUSH1 0x0 DUP1 SLOAD PUSH1 0x1 PUSH1 0x1 PUSH1 0xA0 SHL SUB NOT DUP2 AND DUP4 OR DUP3 SSTORE PUSH1 0x40 MLOAD SWAP6 AND SWAP1 PUSH32 0x8BE0079C531659141344CD1FD0A4F28419497F9722A3DAAFE3B4186F6B6457E0 SWAP1 DUP1 LOG3 PUSH1 0x80 MSTORE PUSH1 0xA0 MSTORE PUSH2 0x882 SWAP1 DUP2 PUSH2 0x134 DUP3 CODECOPY PUSH1 0x80 MLOAD DUP2 DUP2 DUP2 PUSH2 0x1D4 ADD MSTORE DUP2 DUP2 PUSH2 0x749 ADD MSTORE PUSH2 0x77D ADD MSTORE PUSH1 0xA0 MLOAD DUP2 DUP2 DUP2 PUSH2 0x565 ADD MSTORE DUP2 DUP2 PUSH2 0x726 ADD MSTORE PUSH2 0x7DF ADD MSTORE RETURN JUMPDEST PUSH1 0x40 MLOAD PUSH4 0x1E4FBDF7 PUSH1 0xE0 SHL DUP2 MSTORE PUSH1 0x0 PUSH1 0x4 DUP3 ADD MSTORE PUSH1 0x24 SWAP1 REVERT JUMPDEST PUSH1 0x0 DUP1 REVERT JUMPDEST PUSH4 0x4E487B71 PUSH1 0xE0 SHL PUSH1 0x0 MSTORE PUSH1 0x41 PUSH1 0x4 MSTORE PUSH1 0x24 PUSH1 0x0 REVERT JUMPDEST MLOAD SWAP1 PUSH1 0x1 PUSH1 0x1 PUSH1 0x40 SHL SUB DUP3 AND DUP3 SUB PUSH2 0x104 JUMPI JUMP INVALID PUSH1 0x40 PUSH1 0x80 DUP2 MSTORE PUSH1 0x4 SWAP1 DUP2 CALLDATASIZE LT ISZERO PUSH2 0x20 JUMPI JUMPDEST POP POP CALLDATASIZE ISZERO PUSH2 0x1E JUMPI PUSH1 0x0 DUP1 REVERT JUMPDEST STOP JUMPDEST PUSH1 0x0 SWAP2 DUP3 CALLDATALOAD PUSH1 0xE0 SHR SWAP1 DUP2 PUSH4 0xA17B06B EQ PUSH2 0x589 JUMPI DUP2 PUSH4 0xFB5A6B4 EQ PUSH2 0x544 JUMPI DUP2 PUSH4 0x19165587 EQ PUSH2 0x436 JUMPI DUP2 PUSH4 0x715018A6 EQ PUSH2 0x3DC JUMPI DUP2 PUSH4 0x810EC23B EQ PUSH2 0x39D JUMPI DUP2 PUSH4 0x86D1A69F EQ PUSH2 0x29D JUMPI DUP2 PUSH4 0x8DA5CB5B EQ PUSH2 0x275 JUMPI DUP2 PUSH4 0x96132521 EQ PUSH2 0x256 JUMPI DUP2 PUSH4 0x9852595C EQ PUSH2 0x21E JUMPI DUP2 PUSH4 0xA3F8EACE EQ PUSH2 0x1F8 JUMPI DUP2 PUSH4 0xBE9A6555 EQ PUSH2 0x1B3 JUMPI DUP2 PUSH4 0xEFBE1C1C EQ PUSH2 0x196 JUMPI DUP2 PUSH4 0xF2FDE38B EQ PUSH2 0x10B JUMPI POP PUSH4 0xFBCCEDAE SUB PUSH2 0x11 JUMPI CALLVALUE PUSH2 0x107 JUMPI DUP2 PUSH1 0x3 NOT CALLDATASIZE ADD SLT PUSH2 0x107 JUMPI PUSH1 0x20 SWAP1 PUSH2 0x100 SELFBALANCE PUSH2 0xFB PUSH1 0x1 SLOAD SWAP2 PUSH2 0xF6 DUP4 PUSH8 0xFFFFFFFFFFFFFFFF TIMESTAMP AND SWAP3 PUSH2 0x5DE JUMP JUMPDEST PUSH2 0x76E JUMP JUMPDEST PUSH2 0x6D2 JUMP JUMPDEST SWAP1 MLOAD SWAP1 DUP2 MSTORE RETURN JUMPDEST POP DUP1 REVERT JUMPDEST SWAP1 POP CALLVALUE PUSH2 0x192 JUMPI PUSH1 0x20 CALLDATASIZE PUSH1 0x3 NOT ADD SLT PUSH2 0x192 JUMPI PUSH2 0x126 PUSH2 0x5C3 JUMP JUMPDEST SWAP1 PUSH2 0x12F PUSH2 0x820 JUMP JUMPDEST PUSH1 0x1 PUSH1 0x1 PUSH1 0xA0 SHL SUB SWAP2 DUP3 AND SWAP3 DUP4 ISZERO PUSH2 0x17C JUMPI POP POP DUP3 SLOAD PUSH1 0x1 PUSH1 0x1 PUSH1 0xA0 SHL SUB NOT DUP2 AND DUP4 OR DUP5 SSTORE AND PUSH32 0x8BE0079C531659141344CD1FD0A4F28419497F9722A3DAAFE3B4186F6B6457E0 DUP4 DUP1 LOG3 DUP1 RETURN JUMPDEST MLOAD PUSH4 0x1E4FBDF7 PUSH1 0xE0 SHL DUP2 MSTORE SWAP1 DUP2 ADD DUP5 SWAP1 MSTORE PUSH1 0x24 SWAP1 REVERT JUMPDEST DUP3 DUP1 REVERT JUMPDEST POP POP CALLVALUE PUSH2 0x107 JUMPI DUP2 PUSH1 0x3 NOT CALLDATASIZE ADD SLT PUSH2 0x107 JUMPI PUSH1 0x20 SWAP1 PUSH2 0x100 PUSH2 0x717 JUMP JUMPDEST POP POP CALLVALUE PUSH2 0x107 JUMPI DUP2 PUSH1 0x3 NOT CALLDATASIZE ADD SLT PUSH2 0x107 JUMPI PUSH1 0x20 SWAP1 MLOAD PUSH8 0xFFFFFFFFFFFFFFFF PUSH32 0x0 AND DUP2 MSTORE RETURN JUMPDEST POP POP CALLVALUE PUSH2 0x107 JUMPI PUSH1 0x20 CALLDATASIZE PUSH1 0x3 NOT ADD SLT PUSH2 0x107 JUMPI PUSH1 0x20 SWAP1 PUSH2 0x100 PUSH2 0x219 PUSH2 0x5C3 JUMP JUMPDEST PUSH2 0x6DF JUMP JUMPDEST POP POP CALLVALUE PUSH2 0x107 JUMPI PUSH1 0x20 CALLDATASIZE PUSH1 0x3 NOT ADD SLT PUSH2 0x107 JUMPI PUSH1 0x20 SWAP2 DUP2 SWAP1 PUSH1 0x1 PUSH1 0x1 PUSH1 0xA0 SHL SUB PUSH2 0x246 PUSH2 0x5C3 JUMP JUMPDEST AND DUP2 MSTORE PUSH1 0x2 DUP5 MSTORE KECCAK256 SLOAD SWAP1 MLOAD SWAP1 DUP2 MSTORE RETURN JUMPDEST POP POP CALLVALUE PUSH2 0x107 JUMPI DUP2 PUSH1 0x3 NOT CALLDATASIZE ADD SLT PUSH2 0x107 JUMPI PUSH1 0x20 SWAP1 PUSH1 0x1 SLOAD SWAP1 MLOAD SWAP1 DUP2 MSTORE RETURN JUMPDEST POP POP CALLVALUE PUSH2 0x107 JUMPI DUP2 PUSH1 0x3 NOT CALLDATASIZE ADD SLT PUSH2 0x107 JUMPI SWAP1 SLOAD SWAP1 MLOAD PUSH1 0x1 PUSH1 0x1 PUSH1 0xA0 SHL SUB SWAP1 SWAP2 AND DUP2 MSTORE PUSH1 0x20 SWAP1 RETURN JUMPDEST SWAP2 SWAP1 POP CALLVALUE PUSH2 0x192 JUMPI DUP3 PUSH1 0x3 NOT CALLDATASIZE ADD SLT PUSH2 0x192 JUMPI PUSH1 0x1 SLOAD PUSH8 0xFFFFFFFFFFFFFFFF SWAP1 PUSH2 0x2DB PUSH2 0x2D4 DUP3 PUSH2 0xFB TIMESTAMP DUP7 AND PUSH2 0xF6 DUP4 SELFBALANCE PUSH2 0x5DE JUMP JUMPDEST DUP1 SWAP3 PUSH2 0x5DE JUMP JUMPDEST PUSH1 0x1 SSTORE PUSH32 0xDA9D4E5F101B8B9B1C5B76D0C5A9F7923571ACFC02376AA076B75A8C080C956B PUSH1 0x20 DUP5 MLOAD DUP4 DUP2 MSTORE LOG1 DUP5 SLOAD PUSH1 0x1 PUSH1 0x1 PUSH1 0xA0 SHL SUB AND SELFBALANCE DUP3 GT PUSH2 0x380 JUMPI DUP6 DUP1 DUP1 SWAP4 DUP2 SWAP4 GAS CALL SWAP1 RETURNDATASIZE ISZERO PUSH2 0x37A JUMPI RETURNDATASIZE SWAP1 DUP2 GT PUSH2 0x367 JUMPI DUP3 MLOAD SWAP1 PUSH2 0x347 PUSH1 0x1F DUP3 ADD PUSH1 0x1F NOT AND PUSH1 0x20 ADD DUP4 PUSH2 0x601 JUMP JUMPDEST DUP2 MSTORE DUP5 PUSH1 0x20 RETURNDATASIZE SWAP3 ADD RETURNDATACOPY JUMPDEST ISZERO PUSH2 0x35A JUMPI DUP3 DUP1 RETURN JUMPDEST MLOAD PUSH4 0xD6BDA275 PUSH1 0xE0 SHL DUP2 MSTORE REVERT JUMPDEST PUSH4 0x4E487B71 PUSH1 0xE0 SHL DUP6 MSTORE PUSH1 0x41 DUP5 MSTORE PUSH1 0x24 DUP6 REVERT JUMPDEST POP PUSH2 0x351 JUMP JUMPDEST DUP4 MLOAD PUSH4 0xCF479181 PUSH1 0xE0 SHL DUP2 MSTORE SELFBALANCE DUP2 DUP8 ADD MSTORE PUSH1 0x24 DUP2 ADD DUP4 SWAP1 MSTORE PUSH1 0x44 SWAP1 REVERT JUMPDEST POP POP CALLVALUE PUSH2 0x107 JUMPI DUP1 PUSH1 0x3 NOT CALLDATASIZE ADD SLT PUSH2 0x107 JUMPI PUSH2 0x3B7 PUSH2 0x5C3 JUMP JUMPDEST PUSH1 0x24 CALLDATALOAD SWAP3 PUSH8 0xFFFFFFFFFFFFFFFF DUP5 AND DUP5 SUB PUSH2 0x3D9 JUMPI POP PUSH1 0x20 SWAP3 PUSH2 0x100 SWAP2 PUSH2 0x639 JUMP JUMPDEST DUP1 REVERT JUMPDEST DUP4 CALLVALUE PUSH2 0x3D9 JUMPI DUP1 PUSH1 0x3 NOT CALLDATASIZE ADD SLT PUSH2 0x3D9 JUMPI PUSH2 0x3F5 PUSH2 0x820 JUMP JUMPDEST DUP1 SLOAD PUSH1 0x1 PUSH1 0x1 PUSH1 0xA0 SHL SUB NOT DUP2 AND DUP3 SSTORE DUP2 SWAP1 PUSH1 0x1 PUSH1 0x1 PUSH1 0xA0 SHL SUB AND PUSH32 0x8BE0079C531659141344CD1FD0A4F28419497F9722A3DAAFE3B4186F6B6457E0 DUP3 DUP1 LOG3 DUP1 RETURN JUMPDEST SWAP2 SWAP1 POP CALLVALUE PUSH2 0x192 JUMPI PUSH1 0x20 CALLDATASIZE PUSH1 0x3 NOT ADD SLT PUSH2 0x192 JUMPI PUSH2 0x452 PUSH2 0x5C3 JUMP JUMPDEST SWAP1 PUSH2 0x45C DUP3 PUSH2 0x6DF JUMP JUMPDEST PUSH1 0x1 DUP1 PUSH1 0xA0 SHL SUB DUP1 SWAP4 AND SWAP3 DUP4 DUP7 MSTORE PUSH1 0x2 PUSH1 0x20 MSTORE DUP3 DUP7 KECCAK256 PUSH2 0x47D DUP4 DUP3 SLOAD PUSH2 0x5DE JUMP JUMPDEST SWAP1 SSTORE DUP4 PUSH32 0xC0E523490DD523C33B1878C9EB14FF46991E3F5B2CD33710918618F2A39CBA1B PUSH1 0x20 DUP6 MLOAD DUP6 DUP2 MSTORE LOG2 DUP6 SLOAD AND SWAP1 DUP3 MLOAD SWAP1 PUSH1 0x20 DUP3 ADD SWAP3 PUSH4 0xA9059CBB PUSH1 0xE0 SHL DUP5 MSTORE PUSH1 0x24 DUP4 ADD MSTORE PUSH1 0x44 DUP3 ADD MSTORE PUSH1 0x44 DUP2 MSTORE PUSH1 0x80 DUP2 ADD DUP2 DUP2 LT PUSH8 0xFFFFFFFFFFFFFFFF DUP3 GT OR PUSH2 0x531 JUMPI DUP4 MSTORE MLOAD PUSH1 0x20 SWAP2 DUP7 SWAP2 SWAP1 DUP3 DUP7 GAS CALL ISZERO PUSH2 0x528 JUMPI DUP4 MLOAD RETURNDATASIZE PUSH2 0x51F JUMPI POP DUP2 EXTCODESIZE ISZERO JUMPDEST PUSH2 0x50A JUMPI DUP4 DUP1 RETURN JUMPDEST MLOAD PUSH4 0x5274AFE7 PUSH1 0xE0 SHL DUP2 MSTORE SWAP2 DUP3 ADD MSTORE PUSH1 0x24 SWAP2 POP REVERT JUMPDEST PUSH1 0x1 EQ ISZERO PUSH2 0x502 JUMP JUMPDEST MLOAD RETURNDATASIZE DUP5 DUP3 RETURNDATACOPY RETURNDATASIZE SWAP1 REVERT JUMPDEST PUSH4 0x4E487B71 PUSH1 0xE0 SHL DUP8 MSTORE PUSH1 0x41 DUP7 MSTORE PUSH1 0x24 DUP8 REVERT JUMPDEST POP POP CALLVALUE PUSH2 0x107 JUMPI DUP2 PUSH1 0x3 NOT CALLDATASIZE ADD SLT PUSH2 0x107 JUMPI PUSH1 0x20 SWAP1 MLOAD PUSH8 0xFFFFFFFFFFFFFFFF PUSH32 0x0 AND DUP2 MSTORE RETURN JUMPDEST SWAP1 POP CALLVALUE PUSH2 0x192 JUMPI PUSH1 0x20 CALLDATASIZE PUSH1 0x3 NOT ADD SLT PUSH2 0x192 JUMPI CALLDATALOAD SWAP2 PUSH8 0xFFFFFFFFFFFFFFFF DUP4 AND DUP4 SUB PUSH2 0x3D9 JUMPI POP PUSH2 0x100 PUSH1 0x20 SWAP3 PUSH2 0xF6 SELFBALANCE PUSH1 0x1 SLOAD SWAP1 PUSH2 0x5DE JUMP JUMPDEST PUSH1 0x4 CALLDATALOAD SWAP1 PUSH1 0x1 PUSH1 0x1 PUSH1 0xA0 SHL SUB DUP3 AND DUP3 SUB PUSH2 0x5D9 JUMPI JUMP JUMPDEST PUSH1 0x0 DUP1 REVERT JUMPDEST SWAP2 SWAP1 DUP3 ADD DUP1 SWAP3 GT PUSH2 0x5EB JUMPI JUMP JUMPDEST PUSH4 0x4E487B71 PUSH1 0xE0 SHL PUSH1 0x0 MSTORE PUSH1 0x11 PUSH1 0x4 MSTORE PUSH1 0x24 PUSH1 0x0 REVERT JUMPDEST SWAP1 PUSH1 0x1F DUP1 NOT SWAP2 ADD AND DUP2 ADD SWAP1 DUP2 LT PUSH8 0xFFFFFFFFFFFFFFFF DUP3 GT OR PUSH2 0x623 JUMPI PUSH1 0x40 MSTORE JUMP JUMPDEST PUSH4 0x4E487B71 PUSH1 0xE0 SHL PUSH1 0x0 MSTORE PUSH1 0x41 PUSH1 0x4 MSTORE PUSH1 0x24 PUSH1 0x0 REVERT JUMPDEST PUSH1 0x40 MLOAD PUSH4 0x70A08231 PUSH1 0xE0 SHL DUP2 MSTORE ADDRESS PUSH1 0x4 DUP3 ADD MSTORE PUSH1 0x1 PUSH1 0x1 PUSH1 0xA0 SHL SUB SWAP2 SWAP1 SWAP2 AND SWAP2 SWAP1 PUSH1 0x20 DUP2 PUSH1 0x24 DUP2 DUP7 GAS STATICCALL SWAP1 DUP2 ISZERO PUSH2 0x6C6 JUMPI PUSH1 0x0 SWAP2 PUSH2 0x692 JUMPI JUMPDEST POP PUSH2 0xF6 SWAP1 PUSH2 0x68F SWAP4 PUSH1 0x0 MSTORE PUSH1 0x2 PUSH1 0x20 MSTORE PUSH1 0x40 PUSH1 0x0 KECCAK256 SLOAD SWAP1 PUSH2 0x5DE JUMP JUMPDEST SWAP1 JUMP JUMPDEST SWAP1 POP PUSH1 0x20 DUP2 RETURNDATASIZE PUSH1 0x20 GT PUSH2 0x6BE JUMPI JUMPDEST DUP2 PUSH2 0x6AD PUSH1 0x20 SWAP4 DUP4 PUSH2 0x601 JUMP JUMPDEST DUP2 ADD SUB SLT PUSH2 0x5D9 JUMPI MLOAD PUSH2 0x68F PUSH2 0x672 JUMP JUMPDEST RETURNDATASIZE SWAP2 POP PUSH2 0x6A0 JUMP JUMPDEST PUSH1 0x40 MLOAD RETURNDATASIZE PUSH1 0x0 DUP3 RETURNDATACOPY RETURNDATASIZE SWAP1 REVERT JUMPDEST SWAP2 SWAP1 DUP3 SUB SWAP2 DUP3 GT PUSH2 0x5EB JUMPI JUMP JUMPDEST PUSH2 0x68F SWAP1 PUSH2 0x6F7 PUSH8 0xFFFFFFFFFFFFFFFF TIMESTAMP AND DUP3 PUSH2 0x639 JUMP JUMPDEST PUSH1 0x1 PUSH1 0x1 PUSH1 0xA0 SHL SUB SWAP1 SWAP2 AND PUSH1 0x0 SWAP1 DUP2 MSTORE PUSH1 0x2 PUSH1 0x20 MSTORE PUSH1 0x40 SWAP1 KECCAK256 SLOAD SWAP1 PUSH2 0x6D2 JUMP JUMPDEST PUSH2 0x68F PUSH8 0xFFFFFFFFFFFFFFFF DUP1 PUSH32 0x0 AND SWAP1 PUSH32 0x0 AND PUSH2 0x5DE JUMP JUMPDEST SWAP1 PUSH8 0xFFFFFFFFFFFFFFFF SWAP1 DUP2 AND PUSH32 0x0 DUP3 AND DUP1 DUP3 LT ISZERO PUSH2 0x7AF JUMPI POP POP POP POP PUSH1 0x0 SWAP1 JUMP JUMPDEST PUSH2 0x7B7 PUSH2 0x717 JUMP JUMPDEST DUP3 LT PUSH2 0x7C3 JUMPI POP POP POP SWAP1 JUMP JUMPDEST PUSH2 0x7CC SWAP2 PUSH2 0x6D2 JUMP JUMPDEST SWAP2 DUP3 DUP2 MUL SWAP3 DUP2 DUP5 DIV EQ SWAP1 ISZERO OR ISZERO PUSH2 0x5EB JUMPI PUSH32 0x0 AND SWAP1 DUP2 ISZERO PUSH2 0x80A JUMPI DIV SWAP1 JUMP JUMPDEST PUSH4 0x4E487B71 PUSH1 0xE0 SHL PUSH1 0x0 MSTORE PUSH1 0x12 PUSH1 0x4 MSTORE PUSH1 0x24 PUSH1 0x0 REVERT JUMPDEST PUSH1 0x0 SLOAD PUSH1 0x1 PUSH1 0x1 PUSH1 0xA0 SHL SUB AND CALLER SUB PUSH2 0x834 JUMPI JUMP JUMPDEST PUSH1 0x40 MLOAD PUSH4 0x118CDAA7 PUSH1 0xE0 SHL DUP2 MSTORE CALLER PUSH1 0x4 DUP3 ADD MSTORE PUSH1 0x24 SWAP1 REVERT INVALID LOG2 PUSH5 0x6970667358 0x22 SLT KECCAK256 0xDE 0x4D DUP4 0xA7 LOG2 0xC0 DUP8 TLOAD PUSH9 0x6F33A0E06840F6B6FA RETURN 0xB1 PUSH0 BYTE PUSH3 0x6DF143 XOR PUSH25 0xAB5F362464736F6C6343000818003300000000000000000000 "},"methodIdentifiers":{"duration()":"0fb5a6b4","end()":"efbe1c1c","owner()":"8da5cb5b","releasable()":"fbccedae","releasable(address)":"a3f8eace","release()":"86d1a69f","release(address)":"19165587","released()":"96132521","released(address)":"9852595c","renounceOwnership()":"715018a6","start()":"be9a6555","transferOwnership(address)":"f2fde38b","vestedAmount(address,uint64)":"810ec23b","vestedAmount(uint64)":"0a17b06b"}},"storageLayout":{"storage":[{"astId":387,"contract":"@openzeppelin/contracts/finance/VestingWallet.sol:VestingWallet","label":"_owner","offset":0,"slot":"0","type":"t_address"},{"astId":555,"contract":"@openzeppelin/contracts/finance/VestingWallet.sol:VestingWallet","label":"_released","offset":0,"slot":"1","type":"t_uint256"},{"astId":559,"contract":"@openzeppelin/contracts/finance/VestingWallet.sol:VestingWallet","label":"_erc20Released","offset":0,"slot":"2","type":"t_mapping(t_address,t_uint256)"}],"types":{"t_address":{"encoding":"inplace","label":"address","numberOfBytes":"20"},"t_mapping(t_address,t_uint256)":{"encoding":"mapping","key":"t_address","label":"mapping(address => uint256)","numberOfBytes":"32","value":"t_uint256"},"t_uint256":{"encoding":"inplace","label":"uint256","numberOfBytes":"32"}}}}}}