{"contracts/OAIVesting.sol":{"OAIVesting":{"abi":[{"inputs":[{"internalType":"address","name":"beneficiary","type":"address"},{"internalType":"uint64","name":"startTimestamp","type":"uint64"},{"internalType":"uint64","name":"durationSeconds","type":"uint64"},{"internalType":"uint64","name":"cliffSeconds","type":"uint64"}],"stateMutability":"nonpayable","type":"constructor"},{"inputs":[],"name":"FailedCall","type":"error"},{"inputs":[{"internalType":"uint256","name":"balance","type":"uint256"},{"internalType":"uint256","name":"needed","type":"uint256"}],"name":"InsufficientBalance","type":"error"},{"inputs":[{"internalType":"address","name":"owner","type":"address"}],"name":"OwnableInvalidOwner","type":"error"},{"inputs":[{"internalType":"address","name":"account","type":"address"}],"name":"OwnableUnauthorizedAccount","type":"error"},{"inputs":[{"internalType":"address","name":"token","type":"address"}],"name":"SafeERC20FailedOperation","type":"error"},{"anonymous":false,"inputs":[{"indexed":true,"internalType":"address","name":"token","type":"address"},{"indexed":false,"internalType":"uint256","name":"amount","type":"uint256"}],"name":"ERC20Released","type":"event"},{"anonymous":false,"inputs":[{"indexed":false,"internalType":"uint256","name":"amount","type":"uint256"}],"name":"EtherReleased","type":"event"},{"anonymous":false,"inputs":[{"indexed":true,"internalType":"address","name":"previousOwner","type":"address"},{"indexed":true,"internalType":"address","name":"newOwner","type":"address"}],"name":"OwnershipTransferred","type":"event"},{"inputs":[],"name":"cliffDuration","outputs":[{"internalType":"uint64","name":"","type":"uint64"}],"stateMutability":"view","type":"function"},{"inputs":[],"name":"duration","outputs":[{"internalType":"uint256","name":"","type":"uint256"}],"stateMutability":"view","type":"function"},{"inputs":[],"name":"end","outputs":[{"internalType":"uint256","name":"","type":"uint256"}],"stateMutability":"view","type":"function"},{"inputs":[],"name":"owner","outputs":[{"internalType":"address","name":"","type":"address"}],"stateMutability":"view","type":"function"},{"inputs":[{"internalType":"address","name":"token","type":"address"}],"name":"releasable","outputs":[{"internalType":"uint256","name":"","type":"uint256"}],"stateMutability":"view","type":"function"},{"inputs":[],"name":"releasable","outputs":[{"internalType":"uint256","name":"","type":"uint256"}],"stateMutability":"view","type":"function"},{"inputs":[{"internalType":"address","name":"token","type":"address"}],"name":"release","outputs":[],"stateMutability":"nonpayable","type":"function"},{"inputs":[],"name":"release","outputs":[],"stateMutability":"nonpayable","type":"function"},{"inputs":[],"name":"released","outputs":[{"internalType":"uint256","name":"","type":"uint256"}],"stateMutability":"view","type":"function"},{"inputs":[{"internalType":"address","name":"token","type":"address"}],"name":"released","outputs":[{"internalType":"uint256","name":"","type":"uint256"}],"stateMutability":"view","type":"function"},{"inputs":[],"name":"renounceOwnership","outputs":[],"stateMutability":"nonpayable","type":"function"},{"inputs":[],"name":"start","outputs":[{"internalType":"uint256","name":"","type":"uint256"}],"stateMutability":"view","type":"function"},{"inputs":[{"internalType":"address","name":"newOwner","type":"address"}],"name":"transferOwnership","outputs":[],"stateMutability":"nonpayable","type":"function"},{"inputs":[{"internalType":"uint64","name":"timestamp","type":"uint64"}],"name":"vestedAmount","outputs":[{"internalType":"uint256","name":"","type":"uint256"}],"stateMutability":"view","type":"function"},{"inputs":[{"internalType":"address","name":"token","type":"address"},{"internalType":"uint64","name":"timestamp","type":"uint64"}],"name":"vestedAmount","outputs":[{"internalType":"uint256","name":"","type":"uint256"}],"stateMutability":"view","type":"function"},{"inputs":[],"name":"vestingStart","outputs":[{"internalType":"uint64","name":"","type":"uint64"}],"stateMutability":"view","type":"function"},{"stateMutability":"payable","type":"receive"}],"evm":{"bytecode":{"linkReferences":{},"object":"61010034610195576001600160401b0390601f610b4b38819003918201601f19168301918483118484101761019a578084926080946040528339810103126101955780516001600160a01b0380821693909184900361019557610064602084016101b0565b9361007d6060610076604087016101b0565b95016101b0565b93811561017c57600080546001600160a01b0319811684178255604051958594929116907f8be0079c531659141344cd1fd0a4f28419497f9722a3daafe3b4186f6b6457e09080a3856080528060a052169083161161013a575060c05260e05260405161098690816101c5823960805181818161022c015281816107dd01526108ad015260a0518181816105fd015281816107ba015261090f015260c0518181816101e8015261080e015260e0518181816104ac01526108310152f35b62461bcd60e51b815260206004820152601660248201527f436c6966662065786365656473206475726174696f6e000000000000000000006044820152606490fd5b604051631e4fbdf760e01b815260006004820152602490fd5b600080fd5b634e487b7160e01b600052604160045260246000fd5b51906001600160401b03821682036101955756fe60406080815260049081361015610020575b5050361561001e57600080fd5b005b600091823560e01c9081630a17b06b146106215781630fb5a6b4146105dd57816319165587146104d0578163254800d41461048c578163715018a614610432578163810ec23b146103f457816386d1a69f146102f55781638da5cb5b146102cd57816396132521146102ae5781639852595c14610276578163a3f8eace14610250578163be9a65551461020c578163d85349f7146101c8578163efbe1c1c146101ab578163f2fde38b14610120575063fbccedae03610011573461011c578160031936011261011c57602090610115476101106001549161010b836001600160401b03421692610675565b610802565b610768565b9051908152f35b5080fd5b9050346101a75760203660031901126101a75761013b61065a565b90610144610873565b6001600160a01b0391821692831561019157505082546001600160a01b0319811683178455167f8be0079c531659141344cd1fd0a4f28419497f9722a3daafe3b4186f6b6457e08380a380f35b51631e4fbdf760e01b8152908101849052602490fd5b8280fd5b50503461011c578160031936011261011c576020906101156107ac565b50503461011c578160031936011261011c57602090516001600160401b037f0000000000000000000000000000000000000000000000000000000000000000168152f35b50503461011c578160031936011261011c57602090516001600160401b037f0000000000000000000000000000000000000000000000000000000000000000168152f35b50503461011c57602036600319011261011c5760209061011561027161065a565b610775565b50503461011c57602036600319011261011c5760209181906001600160a01b0361029e61065a565b1681526002845220549051908152f35b50503461011c578160031936011261011c576020906001549051908152f35b50503461011c578160031936011261011c57905490516001600160a01b039091168152602090f35b919050346101a757826003193601126101a7576001546001600160401b039061033261032b8261011042861661010b8347610675565b8092610675565b6001557fda9d4e5f101b8b9b1c5b76d0c5a9f7923571acfc02376aa076b75a8c080c956b60208451838152a184546001600160a01b03164782116103d7578580809381935af1903d156103d1573d9081116103be5782519061039e601f8201601f191660200183610698565b81528460203d92013e5b156103b1578280f35b5163d6bda27560e01b8152fd5b634e487b7160e01b855260418452602485fd5b506103a8565b835163cf47918160e01b8152478187015260248101839052604490fd5b50503461011c578060031936011261011c5761040e61065a565b602435926001600160401b038416840361042f5750602092610115916106cf565b80fd5b833461042f578060031936011261042f5761044b610873565b80546001600160a01b03198116825581906001600160a01b03167f8be0079c531659141344cd1fd0a4f28419497f9722a3daafe3b4186f6b6457e08280a380f35b50503461011c578160031936011261011c57602090516001600160401b037f0000000000000000000000000000000000000000000000000000000000000000168152f35b919050346101a75760203660031901126101a7576104ec61065a565b906104f682610775565b60018060a01b03809316928386526002602052828620610517838254610675565b9055837fc0e523490dd523c33b1878c9eb14ff46991e3f5b2cd33710918618f2a39cba1b60208551858152a285541690825190602082019263a9059cbb60e01b84526024830152604482015260448152608081018181106001600160401b038211176105ca5783525160209186919082865af1156105c15783513d6105b85750813b155b6105a3578380f35b51635274afe760e01b81529182015260249150fd5b6001141561059b565b513d84823e3d90fd5b634e487b7160e01b875260418652602487fd5b50503461011c578160031936011261011c57602090516001600160401b037f0000000000000000000000000000000000000000000000000000000000000000168152f35b9050346101a75760203660031901126101a75735916001600160401b038316830361042f575061011560209261010b4760015490610675565b600435906001600160a01b038216820361067057565b600080fd5b9190820180921161068257565b634e487b7160e01b600052601160045260246000fd5b90601f801991011681019081106001600160401b038211176106b957604052565b634e487b7160e01b600052604160045260246000fd5b6040516370a0823160e01b81523060048201526001600160a01b03919091169190602081602481865afa90811561075c57600091610728575b5061010b9061072593600052600260205260406000205490610675565b90565b90506020813d602011610754575b8161074360209383610698565b810103126106705751610725610708565b3d9150610736565b6040513d6000823e3d90fd5b9190820391821161068257565b6107259061078c6001600160401b034216826106cf565b6001600160a01b0390911660009081526002602052604090205490610768565b6107256001600160401b03807f000000000000000000000000000000000000000000000000000000000000000016907f000000000000000000000000000000000000000000000000000000000000000016610675565b906001600160401b03807f000000000000000000000000000000000000000000000000000000000000000016817f000000000000000000000000000000000000000000000000000000000000000016018181116106825781169082161061086c576107259161089f565b5050600090565b6000546001600160a01b0316330361088757565b60405163118cdaa760e01b8152336004820152602490fd5b906001600160401b039081167f00000000000000000000000000000000000000000000000000000000000000008216808210156108df5750505050600090565b6108e76107ac565b82106108f35750505090565b6108fc91610768565b91828102928184041490151715610682577f00000000000000000000000000000000000000000000000000000000000000001690811561093a570490565b634e487b7160e01b600052601260045260246000fdfea2646970667358221220189a72effb1f0599a31f7bc5fbd7dc91c0681250d83bd02e3d4aeb8fe4a5e32a64736f6c63430008180033","opcodes":"PUSH2 0x100 CALLVALUE PUSH2 0x195 JUMPI PUSH1 0x1 PUSH1 0x1 PUSH1 0x40 SHL SUB SWAP1 PUSH1 0x1F PUSH2 0xB4B CODESIZE DUP2 SWAP1 SUB SWAP2 DUP3 ADD PUSH1 0x1F NOT AND DUP4 ADD SWAP2 DUP5 DUP4 GT DUP5 DUP5 LT OR PUSH2 0x19A JUMPI DUP1 DUP5 SWAP3 PUSH1 0x80 SWAP5 PUSH1 0x40 MSTORE DUP4 CODECOPY DUP2 ADD SUB SLT PUSH2 0x195 JUMPI DUP1 MLOAD PUSH1 0x1 PUSH1 0x1 PUSH1 0xA0 SHL SUB DUP1 DUP3 AND SWAP4 SWAP1 SWAP2 DUP5 SWAP1 SUB PUSH2 0x195 JUMPI PUSH2 0x64 PUSH1 0x20 DUP5 ADD PUSH2 0x1B0 JUMP JUMPDEST SWAP4 PUSH2 0x7D PUSH1 0x60 PUSH2 0x76 PUSH1 0x40 DUP8 ADD PUSH2 0x1B0 JUMP JUMPDEST SWAP6 ADD PUSH2 0x1B0 JUMP JUMPDEST SWAP4 DUP2 ISZERO PUSH2 0x17C JUMPI PUSH1 0x0 DUP1 SLOAD PUSH1 0x1 PUSH1 0x1 PUSH1 0xA0 SHL SUB NOT DUP2 AND DUP5 OR DUP3 SSTORE PUSH1 0x40 MLOAD SWAP6 DUP6 SWAP5 SWAP3 SWAP2 AND SWAP1 PUSH32 0x8BE0079C531659141344CD1FD0A4F28419497F9722A3DAAFE3B4186F6B6457E0 SWAP1 DUP1 LOG3 DUP6 PUSH1 0x80 MSTORE DUP1 PUSH1 0xA0 MSTORE AND SWAP1 DUP4 AND GT PUSH2 0x13A JUMPI POP PUSH1 0xC0 MSTORE PUSH1 0xE0 MSTORE PUSH1 0x40 MLOAD PUSH2 0x986 SWAP1 DUP2 PUSH2 0x1C5 DUP3 CODECOPY PUSH1 0x80 MLOAD DUP2 DUP2 DUP2 PUSH2 0x22C ADD MSTORE DUP2 DUP2 PUSH2 0x7DD ADD MSTORE PUSH2 0x8AD ADD MSTORE PUSH1 0xA0 MLOAD DUP2 DUP2 DUP2 PUSH2 0x5FD ADD MSTORE DUP2 DUP2 PUSH2 0x7BA ADD MSTORE PUSH2 0x90F ADD MSTORE PUSH1 0xC0 MLOAD DUP2 DUP2 DUP2 PUSH2 0x1E8 ADD MSTORE PUSH2 0x80E ADD MSTORE PUSH1 0xE0 MLOAD DUP2 DUP2 DUP2 PUSH2 0x4AC ADD MSTORE PUSH2 0x831 ADD MSTORE RETURN JUMPDEST PUSH3 0x461BCD PUSH1 0xE5 SHL DUP2 MSTORE PUSH1 0x20 PUSH1 0x4 DUP3 ADD MSTORE PUSH1 0x16 PUSH1 0x24 DUP3 ADD MSTORE PUSH32 0x436C6966662065786365656473206475726174696F6E00000000000000000000 PUSH1 0x44 DUP3 ADD MSTORE PUSH1 0x64 SWAP1 REVERT JUMPDEST PUSH1 0x40 MLOAD PUSH4 0x1E4FBDF7 PUSH1 0xE0 SHL DUP2 MSTORE PUSH1 0x0 PUSH1 0x4 DUP3 ADD MSTORE PUSH1 0x24 SWAP1 REVERT JUMPDEST PUSH1 0x0 DUP1 REVERT JUMPDEST PUSH4 0x4E487B71 PUSH1 0xE0 SHL PUSH1 0x0 MSTORE PUSH1 0x41 PUSH1 0x4 MSTORE PUSH1 0x24 PUSH1 0x0 REVERT JUMPDEST MLOAD SWAP1 PUSH1 0x1 PUSH1 0x1 PUSH1 0x40 SHL SUB DUP3 AND DUP3 SUB PUSH2 0x195 JUMPI JUMP INVALID PUSH1 0x40 PUSH1 0x80 DUP2 MSTORE PUSH1 0x4 SWAP1 DUP2 CALLDATASIZE LT ISZERO PUSH2 0x20 JUMPI JUMPDEST POP POP CALLDATASIZE ISZERO PUSH2 0x1E JUMPI PUSH1 0x0 DUP1 REVERT JUMPDEST STOP JUMPDEST PUSH1 0x0 SWAP2 DUP3 CALLDATALOAD PUSH1 0xE0 SHR SWAP1 DUP2 PUSH4 0xA17B06B EQ PUSH2 0x621 JUMPI DUP2 PUSH4 0xFB5A6B4 EQ PUSH2 0x5DD JUMPI DUP2 PUSH4 0x19165587 EQ PUSH2 0x4D0 JUMPI DUP2 PUSH4 0x254800D4 EQ PUSH2 0x48C JUMPI DUP2 PUSH4 0x715018A6 EQ PUSH2 0x432 JUMPI DUP2 PUSH4 0x810EC23B EQ PUSH2 0x3F4 JUMPI DUP2 PUSH4 0x86D1A69F EQ PUSH2 0x2F5 JUMPI DUP2 PUSH4 0x8DA5CB5B EQ PUSH2 0x2CD JUMPI DUP2 PUSH4 0x96132521 EQ PUSH2 0x2AE JUMPI DUP2 PUSH4 0x9852595C EQ PUSH2 0x276 JUMPI DUP2 PUSH4 0xA3F8EACE EQ PUSH2 0x250 JUMPI DUP2 PUSH4 0xBE9A6555 EQ PUSH2 0x20C JUMPI DUP2 PUSH4 0xD85349F7 EQ PUSH2 0x1C8 JUMPI DUP2 PUSH4 0xEFBE1C1C EQ PUSH2 0x1AB JUMPI DUP2 PUSH4 0xF2FDE38B EQ PUSH2 0x120 JUMPI POP PUSH4 0xFBCCEDAE SUB PUSH2 0x11 JUMPI CALLVALUE PUSH2 0x11C JUMPI DUP2 PUSH1 0x3 NOT CALLDATASIZE ADD SLT PUSH2 0x11C JUMPI PUSH1 0x20 SWAP1 PUSH2 0x115 SELFBALANCE PUSH2 0x110 PUSH1 0x1 SLOAD SWAP2 PUSH2 0x10B DUP4 PUSH1 0x1 PUSH1 0x1 PUSH1 0x40 SHL SUB TIMESTAMP AND SWAP3 PUSH2 0x675 JUMP JUMPDEST PUSH2 0x802 JUMP JUMPDEST PUSH2 0x768 JUMP JUMPDEST SWAP1 MLOAD SWAP1 DUP2 MSTORE RETURN JUMPDEST POP DUP1 REVERT JUMPDEST SWAP1 POP CALLVALUE PUSH2 0x1A7 JUMPI PUSH1 0x20 CALLDATASIZE PUSH1 0x3 NOT ADD SLT PUSH2 0x1A7 JUMPI PUSH2 0x13B PUSH2 0x65A JUMP JUMPDEST SWAP1 PUSH2 0x144 PUSH2 0x873 JUMP JUMPDEST PUSH1 0x1 PUSH1 0x1 PUSH1 0xA0 SHL SUB SWAP2 DUP3 AND SWAP3 DUP4 ISZERO PUSH2 0x191 JUMPI POP POP DUP3 SLOAD PUSH1 0x1 PUSH1 0x1 PUSH1 0xA0 SHL SUB NOT DUP2 AND DUP4 OR DUP5 SSTORE AND PUSH32 0x8BE0079C531659141344CD1FD0A4F28419497F9722A3DAAFE3B4186F6B6457E0 DUP4 DUP1 LOG3 DUP1 RETURN JUMPDEST MLOAD PUSH4 0x1E4FBDF7 PUSH1 0xE0 SHL DUP2 MSTORE SWAP1 DUP2 ADD DUP5 SWAP1 MSTORE PUSH1 0x24 SWAP1 REVERT JUMPDEST DUP3 DUP1 REVERT JUMPDEST POP POP CALLVALUE PUSH2 0x11C JUMPI DUP2 PUSH1 0x3 NOT CALLDATASIZE ADD SLT PUSH2 0x11C JUMPI PUSH1 0x20 SWAP1 PUSH2 0x115 PUSH2 0x7AC JUMP JUMPDEST POP POP CALLVALUE PUSH2 0x11C JUMPI DUP2 PUSH1 0x3 NOT CALLDATASIZE ADD SLT PUSH2 0x11C JUMPI PUSH1 0x20 SWAP1 MLOAD PUSH1 0x1 PUSH1 0x1 PUSH1 0x40 SHL SUB PUSH32 0x0 AND DUP2 MSTORE RETURN JUMPDEST POP POP CALLVALUE PUSH2 0x11C JUMPI DUP2 PUSH1 0x3 NOT CALLDATASIZE ADD SLT PUSH2 0x11C JUMPI PUSH1 0x20 SWAP1 MLOAD PUSH1 0x1 PUSH1 0x1 PUSH1 0x40 SHL SUB PUSH32 0x0 AND DUP2 MSTORE RETURN JUMPDEST POP POP CALLVALUE PUSH2 0x11C JUMPI PUSH1 0x20 CALLDATASIZE PUSH1 0x3 NOT ADD SLT PUSH2 0x11C JUMPI PUSH1 0x20 SWAP1 PUSH2 0x115 PUSH2 0x271 PUSH2 0x65A JUMP JUMPDEST PUSH2 0x775 JUMP JUMPDEST POP POP CALLVALUE PUSH2 0x11C JUMPI PUSH1 0x20 CALLDATASIZE PUSH1 0x3 NOT ADD SLT PUSH2 0x11C JUMPI PUSH1 0x20 SWAP2 DUP2 SWAP1 PUSH1 0x1 PUSH1 0x1 PUSH1 0xA0 SHL SUB PUSH2 0x29E PUSH2 0x65A JUMP JUMPDEST AND DUP2 MSTORE PUSH1 0x2 DUP5 MSTORE KECCAK256 SLOAD SWAP1 MLOAD SWAP1 DUP2 MSTORE RETURN JUMPDEST POP POP CALLVALUE PUSH2 0x11C JUMPI DUP2 PUSH1 0x3 NOT CALLDATASIZE ADD SLT PUSH2 0x11C JUMPI PUSH1 0x20 SWAP1 PUSH1 0x1 SLOAD SWAP1 MLOAD SWAP1 DUP2 MSTORE RETURN JUMPDEST POP POP CALLVALUE PUSH2 0x11C JUMPI DUP2 PUSH1 0x3 NOT CALLDATASIZE ADD SLT PUSH2 0x11C JUMPI SWAP1 SLOAD SWAP1 MLOAD PUSH1 0x1 PUSH1 0x1 PUSH1 0xA0 SHL SUB SWAP1 SWAP2 AND DUP2 MSTORE PUSH1 0x20 SWAP1 RETURN JUMPDEST SWAP2 SWAP1 POP CALLVALUE PUSH2 0x1A7 JUMPI DUP3 PUSH1 0x3 NOT CALLDATASIZE ADD SLT PUSH2 0x1A7 JUMPI PUSH1 0x1 SLOAD PUSH1 0x1 PUSH1 0x1 PUSH1 0x40 SHL SUB SWAP1 PUSH2 0x332 PUSH2 0x32B DUP3 PUSH2 0x110 TIMESTAMP DUP7 AND PUSH2 0x10B DUP4 SELFBALANCE PUSH2 0x675 JUMP JUMPDEST DUP1 SWAP3 PUSH2 0x675 JUMP JUMPDEST PUSH1 0x1 SSTORE PUSH32 0xDA9D4E5F101B8B9B1C5B76D0C5A9F7923571ACFC02376AA076B75A8C080C956B PUSH1 0x20 DUP5 MLOAD DUP4 DUP2 MSTORE LOG1 DUP5 SLOAD PUSH1 0x1 PUSH1 0x1 PUSH1 0xA0 SHL SUB AND SELFBALANCE DUP3 GT PUSH2 0x3D7 JUMPI DUP6 DUP1 DUP1 SWAP4 DUP2 SWAP4 GAS CALL SWAP1 RETURNDATASIZE ISZERO PUSH2 0x3D1 JUMPI RETURNDATASIZE SWAP1 DUP2 GT PUSH2 0x3BE JUMPI DUP3 MLOAD SWAP1 PUSH2 0x39E PUSH1 0x1F DUP3 ADD PUSH1 0x1F NOT AND PUSH1 0x20 ADD DUP4 PUSH2 0x698 JUMP JUMPDEST DUP2 MSTORE DUP5 PUSH1 0x20 RETURNDATASIZE SWAP3 ADD RETURNDATACOPY JUMPDEST ISZERO PUSH2 0x3B1 JUMPI DUP3 DUP1 RETURN JUMPDEST MLOAD PUSH4 0xD6BDA275 PUSH1 0xE0 SHL DUP2 MSTORE REVERT JUMPDEST PUSH4 0x4E487B71 PUSH1 0xE0 SHL DUP6 MSTORE PUSH1 0x41 DUP5 MSTORE PUSH1 0x24 DUP6 REVERT JUMPDEST POP PUSH2 0x3A8 JUMP JUMPDEST DUP4 MLOAD PUSH4 0xCF479181 PUSH1 0xE0 SHL DUP2 MSTORE SELFBALANCE DUP2 DUP8 ADD MSTORE PUSH1 0x24 DUP2 ADD DUP4 SWAP1 MSTORE PUSH1 0x44 SWAP1 REVERT JUMPDEST POP POP CALLVALUE PUSH2 0x11C JUMPI DUP1 PUSH1 0x3 NOT CALLDATASIZE ADD SLT PUSH2 0x11C JUMPI PUSH2 0x40E PUSH2 0x65A JUMP JUMPDEST PUSH1 0x24 CALLDATALOAD SWAP3 PUSH1 0x1 PUSH1 0x1 PUSH1 0x40 SHL SUB DUP5 AND DUP5 SUB PUSH2 0x42F JUMPI POP PUSH1 0x20 SWAP3 PUSH2 0x115 SWAP2 PUSH2 0x6CF JUMP JUMPDEST DUP1 REVERT JUMPDEST DUP4 CALLVALUE PUSH2 0x42F JUMPI DUP1 PUSH1 0x3 NOT CALLDATASIZE ADD SLT PUSH2 0x42F JUMPI PUSH2 0x44B PUSH2 0x873 JUMP JUMPDEST DUP1 SLOAD PUSH1 0x1 PUSH1 0x1 PUSH1 0xA0 SHL SUB NOT DUP2 AND DUP3 SSTORE DUP2 SWAP1 PUSH1 0x1 PUSH1 0x1 PUSH1 0xA0 SHL SUB AND PUSH32 0x8BE0079C531659141344CD1FD0A4F28419497F9722A3DAAFE3B4186F6B6457E0 DUP3 DUP1 LOG3 DUP1 RETURN JUMPDEST POP POP CALLVALUE PUSH2 0x11C JUMPI DUP2 PUSH1 0x3 NOT CALLDATASIZE ADD SLT PUSH2 0x11C JUMPI PUSH1 0x20 SWAP1 MLOAD PUSH1 0x1 PUSH1 0x1 PUSH1 0x40 SHL SUB PUSH32 0x0 AND DUP2 MSTORE RETURN JUMPDEST SWAP2 SWAP1 POP CALLVALUE PUSH2 0x1A7 JUMPI PUSH1 0x20 CALLDATASIZE PUSH1 0x3 NOT ADD SLT PUSH2 0x1A7 JUMPI PUSH2 0x4EC PUSH2 0x65A JUMP JUMPDEST SWAP1 PUSH2 0x4F6 DUP3 PUSH2 0x775 JUMP JUMPDEST PUSH1 0x1 DUP1 PUSH1 0xA0 SHL SUB DUP1 SWAP4 AND SWAP3 DUP4 DUP7 MSTORE PUSH1 0x2 PUSH1 0x20 MSTORE DUP3 DUP7 KECCAK256 PUSH2 0x517 DUP4 DUP3 SLOAD PUSH2 0x675 JUMP JUMPDEST SWAP1 SSTORE DUP4 PUSH32 0xC0E523490DD523C33B1878C9EB14FF46991E3F5B2CD33710918618F2A39CBA1B PUSH1 0x20 DUP6 MLOAD DUP6 DUP2 MSTORE LOG2 DUP6 SLOAD AND SWAP1 DUP3 MLOAD SWAP1 PUSH1 0x20 DUP3 ADD SWAP3 PUSH4 0xA9059CBB PUSH1 0xE0 SHL DUP5 MSTORE PUSH1 0x24 DUP4 ADD MSTORE PUSH1 0x44 DUP3 ADD MSTORE PUSH1 0x44 DUP2 MSTORE PUSH1 0x80 DUP2 ADD DUP2 DUP2 LT PUSH1 0x1 PUSH1 0x1 PUSH1 0x40 SHL SUB DUP3 GT OR PUSH2 0x5CA JUMPI DUP4 MSTORE MLOAD PUSH1 0x20 SWAP2 DUP7 SWAP2 SWAP1 DUP3 DUP7 GAS CALL ISZERO PUSH2 0x5C1 JUMPI DUP4 MLOAD RETURNDATASIZE PUSH2 0x5B8 JUMPI POP DUP2 EXTCODESIZE ISZERO JUMPDEST PUSH2 0x5A3 JUMPI DUP4 DUP1 RETURN JUMPDEST MLOAD PUSH4 0x5274AFE7 PUSH1 0xE0 SHL DUP2 MSTORE SWAP2 DUP3 ADD MSTORE PUSH1 0x24 SWAP2 POP REVERT JUMPDEST PUSH1 0x1 EQ ISZERO PUSH2 0x59B JUMP JUMPDEST MLOAD RETURNDATASIZE DUP5 DUP3 RETURNDATACOPY RETURNDATASIZE SWAP1 REVERT JUMPDEST PUSH4 0x4E487B71 PUSH1 0xE0 SHL DUP8 MSTORE PUSH1 0x41 DUP7 MSTORE PUSH1 0x24 DUP8 REVERT JUMPDEST POP POP CALLVALUE PUSH2 0x11C JUMPI DUP2 PUSH1 0x3 NOT CALLDATASIZE ADD SLT PUSH2 0x11C JUMPI PUSH1 0x20 SWAP1 MLOAD PUSH1 0x1 PUSH1 0x1 PUSH1 0x40 SHL SUB PUSH32 0x0 AND DUP2 MSTORE RETURN JUMPDEST SWAP1 POP CALLVALUE PUSH2 0x1A7 JUMPI PUSH1 0x20 CALLDATASIZE PUSH1 0x3 NOT ADD SLT PUSH2 0x1A7 JUMPI CALLDATALOAD SWAP2 PUSH1 0x1 PUSH1 0x1 PUSH1 0x40 SHL SUB DUP4 AND DUP4 SUB PUSH2 0x42F JUMPI POP PUSH2 0x115 PUSH1 0x20 SWAP3 PUSH2 0x10B SELFBALANCE PUSH1 0x1 SLOAD SWAP1 PUSH2 0x675 JUMP JUMPDEST PUSH1 0x4 CALLDATALOAD SWAP1 PUSH1 0x1 PUSH1 0x1 PUSH1 0xA0 SHL SUB DUP3 AND DUP3 SUB PUSH2 0x670 JUMPI JUMP JUMPDEST PUSH1 0x0 DUP1 REVERT JUMPDEST SWAP2 SWAP1 DUP3 ADD DUP1 SWAP3 GT PUSH2 0x682 JUMPI JUMP JUMPDEST PUSH4 0x4E487B71 PUSH1 0xE0 SHL PUSH1 0x0 MSTORE PUSH1 0x11 PUSH1 0x4 MSTORE PUSH1 0x24 PUSH1 0x0 REVERT JUMPDEST SWAP1 PUSH1 0x1F DUP1 NOT SWAP2 ADD AND DUP2 ADD SWAP1 DUP2 LT PUSH1 0x1 PUSH1 0x1 PUSH1 0x40 SHL SUB DUP3 GT OR PUSH2 0x6B9 JUMPI PUSH1 0x40 MSTORE JUMP JUMPDEST PUSH4 0x4E487B71 PUSH1 0xE0 SHL PUSH1 0x0 MSTORE PUSH1 0x41 PUSH1 0x4 MSTORE PUSH1 0x24 PUSH1 0x0 REVERT JUMPDEST PUSH1 0x40 MLOAD PUSH4 0x70A08231 PUSH1 0xE0 SHL DUP2 MSTORE ADDRESS PUSH1 0x4 DUP3 ADD MSTORE PUSH1 0x1 PUSH1 0x1 PUSH1 0xA0 SHL SUB SWAP2 SWAP1 SWAP2 AND SWAP2 SWAP1 PUSH1 0x20 DUP2 PUSH1 0x24 DUP2 DUP7 GAS STATICCALL SWAP1 DUP2 ISZERO PUSH2 0x75C JUMPI PUSH1 0x0 SWAP2 PUSH2 0x728 JUMPI JUMPDEST POP PUSH2 0x10B SWAP1 PUSH2 0x725 SWAP4 PUSH1 0x0 MSTORE PUSH1 0x2 PUSH1 0x20 MSTORE PUSH1 0x40 PUSH1 0x0 KECCAK256 SLOAD SWAP1 PUSH2 0x675 JUMP JUMPDEST SWAP1 JUMP JUMPDEST SWAP1 POP PUSH1 0x20 DUP2 RETURNDATASIZE PUSH1 0x20 GT PUSH2 0x754 JUMPI JUMPDEST DUP2 PUSH2 0x743 PUSH1 0x20 SWAP4 DUP4 PUSH2 0x698 JUMP JUMPDEST DUP2 ADD SUB SLT PUSH2 0x670 JUMPI MLOAD PUSH2 0x725 PUSH2 0x708 JUMP JUMPDEST RETURNDATASIZE SWAP2 POP PUSH2 0x736 JUMP JUMPDEST PUSH1 0x40 MLOAD RETURNDATASIZE PUSH1 0x0 DUP3 RETURNDATACOPY RETURNDATASIZE SWAP1 REVERT JUMPDEST SWAP2 SWAP1 DUP3 SUB SWAP2 DUP3 GT PUSH2 0x682 JUMPI JUMP JUMPDEST PUSH2 0x725 SWAP1 PUSH2 0x78C PUSH1 0x1 PUSH1 0x1 PUSH1 0x40 SHL SUB TIMESTAMP AND DUP3 PUSH2 0x6CF JUMP JUMPDEST PUSH1 0x1 PUSH1 0x1 PUSH1 0xA0 SHL SUB SWAP1 SWAP2 AND PUSH1 0x0 SWAP1 DUP2 MSTORE PUSH1 0x2 PUSH1 0x20 MSTORE PUSH1 0x40 SWAP1 KECCAK256 SLOAD SWAP1 PUSH2 0x768 JUMP JUMPDEST PUSH2 0x725 PUSH1 0x1 PUSH1 0x1 PUSH1 0x40 SHL SUB DUP1 PUSH32 0x0 AND SWAP1 PUSH32 0x0 AND PUSH2 0x675 JUMP JUMPDEST SWAP1 PUSH1 0x1 PUSH1 0x1 PUSH1 0x40 SHL SUB DUP1 PUSH32 0x0 AND DUP2 PUSH32 0x0 AND ADD DUP2 DUP2 GT PUSH2 0x682 JUMPI DUP2 AND SWAP1 DUP3 AND LT PUSH2 0x86C JUMPI PUSH2 0x725 SWAP2 PUSH2 0x89F JUMP JUMPDEST POP POP PUSH1 0x0 SWAP1 JUMP JUMPDEST PUSH1 0x0 SLOAD PUSH1 0x1 PUSH1 0x1 PUSH1 0xA0 SHL SUB AND CALLER SUB PUSH2 0x887 JUMPI JUMP JUMPDEST PUSH1 0x40 MLOAD PUSH4 0x118CDAA7 PUSH1 0xE0 SHL DUP2 MSTORE CALLER PUSH1 0x4 DUP3 ADD MSTORE PUSH1 0x24 SWAP1 REVERT JUMPDEST SWAP1 PUSH1 0x1 PUSH1 0x1 PUSH1 0x40 SHL SUB SWAP1 DUP2 AND PUSH32 0x0 DUP3 AND DUP1 DUP3 LT ISZERO PUSH2 0x8DF JUMPI POP POP POP POP PUSH1 0x0 SWAP1 JUMP JUMPDEST PUSH2 0x8E7 PUSH2 0x7AC JUMP JUMPDEST DUP3 LT PUSH2 0x8F3 JUMPI POP POP POP SWAP1 JUMP JUMPDEST PUSH2 0x8FC SWAP2 PUSH2 0x768 JUMP JUMPDEST SWAP2 DUP3 DUP2 MUL SWAP3 DUP2 DUP5 DIV EQ SWAP1 ISZERO OR ISZERO PUSH2 0x682 JUMPI PUSH32 0x0 AND SWAP1 DUP2 ISZERO PUSH2 0x93A JUMPI DIV SWAP1 JUMP JUMPDEST PUSH4 0x4E487B71 PUSH1 0xE0 SHL PUSH1 0x0 MSTORE PUSH1 0x12 PUSH1 0x4 MSTORE PUSH1 0x24 PUSH1 0x0 REVERT INVALID LOG2 PUSH5 0x6970667358 0x22 SLT KECCAK256 XOR SWAP11 PUSH19 0xEFFB1F0599A31F7BC5FBD7DC91C0681250D83B 0xD0 0x2E RETURNDATASIZE BLOBBASEFEE 0xEB DUP16 0xE4 0xA5 0xE3 0x2A PUSH5 0x736F6C6343 STOP ADDMOD XOR STOP CALLER "},"methodIdentifiers":{"cliffDuration()":"d85349f7","duration()":"0fb5a6b4","end()":"efbe1c1c","owner()":"8da5cb5b","releasable()":"fbccedae","releasable(address)":"a3f8eace","release()":"86d1a69f","release(address)":"19165587","released()":"96132521","released(address)":"9852595c","renounceOwnership()":"715018a6","start()":"be9a6555","transferOwnership(address)":"f2fde38b","vestedAmount(address,uint64)":"810ec23b","vestedAmount(uint64)":"0a17b06b","vestingStart()":"254800d4"}},"storageLayout":{"storage":[{"astId":387,"contract":"contracts/OAIVesting.sol:OAIVesting","label":"_owner","offset":0,"slot":"0","type":"t_address"},{"astId":555,"contract":"contracts/OAIVesting.sol:OAIVesting","label":"_released","offset":0,"slot":"1","type":"t_uint256"},{"astId":559,"contract":"contracts/OAIVesting.sol:OAIVesting","label":"_erc20Released","offset":0,"slot":"2","type":"t_mapping(t_address,t_uint256)"}],"types":{"t_address":{"encoding":"inplace","label":"address","numberOfBytes":"20"},"t_mapping(t_address,t_uint256)":{"encoding":"mapping","key":"t_address","label":"mapping(address => uint256)","numberOfBytes":"32","value":"t_uint256"},"t_uint256":{"encoding":"inplace","label":"uint256","numberOfBytes":"32"}}}}}}