{"contracts/CheckIn.sol":{"CheckIn":{"abi":[{"inputs":[{"internalType":"address","name":"_points","type":"address"},{"internalType":"address","name":"_referral","type":"address"},{"internalType":"address","name":"_prizePool","type":"address"},{"internalType":"address","name":"_treasury","type":"address"},{"internalType":"address","name":"_burnReserve","type":"address"},{"internalType":"address","name":"_stakingRewards","type":"address"}],"stateMutability":"nonpayable","type":"constructor"},{"inputs":[{"internalType":"address","name":"owner","type":"address"}],"name":"OwnableInvalidOwner","type":"error"},{"inputs":[{"internalType":"address","name":"account","type":"address"}],"name":"OwnableUnauthorizedAccount","type":"error"},{"inputs":[],"name":"ReentrancyGuardReentrantCall","type":"error"},{"anonymous":false,"inputs":[{"indexed":true,"internalType":"address","name":"user","type":"address"},{"indexed":false,"internalType":"uint256","name":"amount","type":"uint256"},{"indexed":false,"internalType":"enum CheckIn.Tier","name":"tier","type":"uint8"},{"indexed":false,"internalType":"uint256","name":"points","type":"uint256"},{"indexed":false,"internalType":"uint256","name":"streak","type":"uint256"}],"name":"CheckedIn","type":"event"},{"anonymous":false,"inputs":[{"indexed":true,"internalType":"address","name":"previousOwner","type":"address"},{"indexed":true,"internalType":"address","name":"newOwner","type":"address"}],"name":"OwnershipTransferred","type":"event"},{"inputs":[],"name":"BASE_POINTS","outputs":[{"internalType":"uint256","name":"","type":"uint256"}],"stateMutability":"view","type":"function"},{"inputs":[],"name":"BASIC_THRESHOLD","outputs":[{"internalType":"uint256","name":"","type":"uint256"}],"stateMutability":"view","type":"function"},{"inputs":[],"name":"BURN_SHARE","outputs":[{"internalType":"uint256","name":"","type":"uint256"}],"stateMutability":"view","type":"function"},{"inputs":[],"name":"DAY","outputs":[{"internalType":"uint256","name":"","type":"uint256"}],"stateMutability":"view","type":"function"},{"inputs":[],"name":"PRIZE_SHARE","outputs":[{"internalType":"uint256","name":"","type":"uint256"}],"stateMutability":"view","type":"function"},{"inputs":[],"name":"PRO_THRESHOLD","outputs":[{"internalType":"uint256","name":"","type":"uint256"}],"stateMutability":"view","type":"function"},{"inputs":[],"name":"REFERRAL_SHARE","outputs":[{"internalType":"uint256","name":"","type":"uint256"}],"stateMutability":"view","type":"function"},{"inputs":[],"name":"STAKING_SHARE","outputs":[{"internalType":"uint256","name":"","type":"uint256"}],"stateMutability":"view","type":"function"},{"inputs":[],"name":"STREAK_CAP","outputs":[{"internalType":"uint256","name":"","type":"uint256"}],"stateMutability":"view","type":"function"},{"inputs":[],"name":"TREASURY_SHARE","outputs":[{"internalType":"uint256","name":"","type":"uint256"}],"stateMutability":"view","type":"function"},{"inputs":[],"name":"WHALE_THRESHOLD","outputs":[{"internalType":"uint256","name":"","type":"uint256"}],"stateMutability":"view","type":"function"},{"inputs":[],"name":"burnReserve","outputs":[{"internalType":"address","name":"","type":"address"}],"stateMutability":"view","type":"function"},{"inputs":[],"name":"checkIn","outputs":[],"stateMutability":"payable","type":"function"},{"inputs":[{"internalType":"address","name":"user","type":"address"}],"name":"getRecord","outputs":[{"components":[{"internalType":"uint256","name":"lastCheckIn","type":"uint256"},{"internalType":"uint256","name":"streak","type":"uint256"},{"internalType":"uint256","name":"totalCheckIns","type":"uint256"},{"internalType":"enum CheckIn.Tier","name":"lastTier","type":"uint8"}],"internalType":"struct CheckIn.CheckInRecord","name":"","type":"tuple"}],"stateMutability":"view","type":"function"},{"inputs":[],"name":"owner","outputs":[{"internalType":"address","name":"","type":"address"}],"stateMutability":"view","type":"function"},{"inputs":[],"name":"pointsContract","outputs":[{"internalType":"contract IPointsCheckIn","name":"","type":"address"}],"stateMutability":"view","type":"function"},{"inputs":[],"name":"prizePool","outputs":[{"internalType":"address","name":"","type":"address"}],"stateMutability":"view","type":"function"},{"inputs":[{"internalType":"address","name":"","type":"address"}],"name":"records","outputs":[{"internalType":"uint256","name":"lastCheckIn","type":"uint256"},{"internalType":"uint256","name":"streak","type":"uint256"},{"internalType":"uint256","name":"totalCheckIns","type":"uint256"},{"internalType":"enum CheckIn.Tier","name":"lastTier","type":"uint8"}],"stateMutability":"view","type":"function"},{"inputs":[],"name":"referralContract","outputs":[{"internalType":"contract IReferral","name":"","type":"address"}],"stateMutability":"view","type":"function"},{"inputs":[],"name":"renounceOwnership","outputs":[],"stateMutability":"nonpayable","type":"function"},{"inputs":[{"internalType":"address","name":"_staking","type":"address"}],"name":"setStakingContract","outputs":[],"stateMutability":"nonpayable","type":"function"},{"inputs":[],"name":"stakingContract","outputs":[{"internalType":"contract IStaking","name":"","type":"address"}],"stateMutability":"view","type":"function"},{"inputs":[],"name":"stakingRewards","outputs":[{"internalType":"address","name":"","type":"address"}],"stateMutability":"view","type":"function"},{"inputs":[],"name":"totalCheckIns","outputs":[{"internalType":"uint256","name":"","type":"uint256"}],"stateMutability":"view","type":"function"},{"inputs":[],"name":"totalFeesCollected","outputs":[{"internalType":"uint256","name":"","type":"uint256"}],"stateMutability":"view","type":"function"},{"inputs":[{"internalType":"address","name":"newOwner","type":"address"}],"name":"transferOwnership","outputs":[],"stateMutability":"nonpayable","type":"function"},{"inputs":[],"name":"treasury","outputs":[{"internalType":"address","name":"","type":"address"}],"stateMutability":"view","type":"function"}],"evm":{"bytecode":{"linkReferences":{},"object":"6080346200017657601f620010f838819003918201601f19168301916001600160401b038311848410176200017b5780849260c09460405283398101031262000176576200004d8162000191565b6200005b6020830162000191565b916200006a6040820162000191565b90620000796060820162000191565b916200009660a06200008e6080850162000191565b930162000191565b9133156200015d576000549560018060a01b03948580948180948160018060a01b03199b8d8d339116176000556040519d823391167f8be0079c531659141344cd1fd0a4f28419497f9722a3daafe3b4186f6b6457e0600080a360017f9b779b17422d0df92223018b32b4d1fa46e071723d6817e2486d003becc55f0055168b60015416176001551689600254161760025516876004541617600455168560055416176005551683600654161760065516906007541617600755610f519081620001a78239f35b604051631e4fbdf760e01b815260006004820152602490fd5b600080fd5b634e487b7160e01b600052604160045260246000fd5b51906001600160a01b0382168203620001765756fe608060408181526004918236101561001657600080fd5b600092833560e01c918263183ff08514610694575081631ba867941461067757816327cfe856146106595781632b4f8a1f146106305781633269617414610613578163469e9067146105ae5781634b6b0ddb1461059157816358e5a7c91461056f57816360c6d8ae14610550578163617fba041461048557816361d027b31461045c57816364b87a70146104335781636c3b680314610417578163715018a6146103ba578163719ce73e146103925781637dad19db14610369578163826dc142146103475781638da5cb5b1461031f57816393b998fb146103025781639dd373b9146102b9578163a563eaa31461029a578163b21b5a211461027d578163b5ab1c5d14610261578163bf16257a14610238578163ee99205c1461020f578163f2fde38b14610172575063f47790d61461014e57600080fd5b3461016e578160031936011261016e576020905166b1a2bc2ec500008152f35b5080fd5b9190503461020b57602036600319011261020b576001600160a01b03823581811693919290849003610207576101a6610eef565b83156101f1575050600054826bffffffffffffffffffffffff60a01b821617600055167f8be0079c531659141344cd1fd0a4f28419497f9722a3daafe3b4186f6b6457e0600080a380f35b51631e4fbdf760e01b8152908101849052602490fd5b8480fd5b8280fd5b50503461016e578160031936011261016e5760035490516001600160a01b039091168152602090f35b50503461016e578160031936011261016e5760065490516001600160a01b039091168152602090f35b50503461016e578160031936011261016e576020905160648152f35b50503461016e578160031936011261016e57602090516107d08152f35b50503461016e578160031936011261016e576020906009549051908152f35b83903461016e57602036600319011261016e57356001600160a01b0381169081900361016e576102e7610eef565b6bffffffffffffffffffffffff60a01b600354161760035580f35b50503461016e578160031936011261016e57602090516103e88152f35b50503461016e578160031936011261016e57905490516001600160a01b039091168152602090f35b50503461016e578160031936011261016e576020905166038d7ea4c680008152f35b50503461016e578160031936011261016e5760025490516001600160a01b039091168152602090f35b90503461020b578260031936011261020b575490516001600160a01b03909116815260209150f35b83346104145780600319360112610414576103d3610eef565b600080546001600160a01b0319811682556001600160a01b03167f8be0079c531659141344cd1fd0a4f28419497f9722a3daafe3b4186f6b6457e08280a380f35b80fd5b50503461016e578160031936011261016e576020905160078152f35b50503461016e578160031936011261016e5760075490516001600160a01b039091168152602090f35b50503461016e578160031936011261016e5760055490516001600160a01b039091168152602090f35b8284346104145760203660031901126104145782356001600160a01b0381169081900361016e5781606084516104ba81610e0d565b8281528260208201528286820152015281526008602052818120918051926104e184610e0d565b8054845260018101546020850190815260ff60036002840154938588019485520154166060860194600382101561053d5760808761053b888888888884528251955186525160208601525190840152516060830190610d8a565bf35b634e487b7160e01b815260218852602490fd5b50503461016e578160031936011261016e57602090600a549051908152f35b50503461016e578160031936011261016e5760209051662386f26fc100008152f35b50503461016e578160031936011261016e57602090516101f48152f35b90503461020b57602036600319011261020b57356001600160a01b0381169081900361020b57818361053b92608095526008602052209182549260018101549160ff600360028401549301541692815195865260208601528401526060830190610d8a565b50503461016e578160031936011261016e57602090516109c48152f35b50503461016e578160031936011261016e5760015490516001600160a01b039091168152602090f35b50503461016e578160031936011261016e5760209051620151808152f35b50503461016e578160031936011261016e5760209051610fa08152f35b908480935060031936011261020b577f9b779b17422d0df92223018b32b4d1fa46e071723d6817e2486d003becc55f00916002835414610d7e57506002825566038d7ea4c680003410610d4b57338352602090600882528484206201518091824204928254049283811115610d0857600184819515159283610cf4575b505050610ccc575b61072234610e5a565b9061072c82610e87565b9060078510610c9d576032915b6064928184029184830403610bcc57830190818411610bcc57839161075d91610dd0565b600354919004946001600160a01b03918890831680610bf2575b5050600390428155876001820155600281016107938154610e4b565b9055016003851015610bdf5760ff1981541660ff86161790556107b7600954610e4b565b600955600a54348101809111610bcc57600a55806001541690813b15610bc8579086918b5163011e8a6b60e51b815233858201528b818781836024978d898401526044998a8401525af18015610bbe57610bab575b50610fa0908134029134159034840414811715610b9957612710809304926109c48034029034820414831715610b8757819004906107d08034029034820414841715610b7457819004926103e89081340291348304141715610b74570491908e80808061088687610881888189818f34610dad565b610dad565b98888d54165af1610895610eaf565b5015610b3a578e8080809387600554165af16108af610eaf565b5015610af8576002548f51630308a59b60e31b81523389820152908d9082908890829088165afa908115610aec57908f918291610ab2575b5080610aa9575b15610a4557508260025416803b15610a41578f908f9188905180948193630a94beaf60e21b8352338d840152818b8401525af18015610a3657908e91610a1e575b50808080935b85600654165af1610944610eaf565b50156109e7578b8080938193600754165af161095e610eaf565b50156109b057505050509561097e60019697825195348752860190610d8a565b83015260608201527f547ad9bdcd235d0bb15c287a2358e52c18b9392b7a957e3b6b73260a51f37a3a60803392a25580f35b8a5162461bcd60e51b81529283018890526016908301527514dd185ada5b99c81c995dd85c991cc819985a5b195960521b90820152fd5b50508a5162461bcd60e51b815292830188905260149083015273109d5c9b881d1c985b9cd9995c8819985a5b195960621b90820152fd5b610a2790610de3565b610a32578c8f61092f565b8c80fd5b508e513d8f823e3d90fd5b8e80fd5b8080809386600554165af1610a58610eaf565b5015610a68578c80808093610935565b50508b5162461bcd60e51b8152938401899052506018908301527f526566657272616c2066616c6c6261636b206661696c6564000000000000000090820152fd5b508115156108ee565b8092508e8092503d8311610ae5575b610acb8183610e29565b81010312610a4157518015158103610a41578e90386108e7565b503d610ac1565b50508e513d8f823e3d90fd5b50508c5162461bcd60e51b81529485018a905250506018908301527f5472656173757279207472616e73666572206661696c6564000000000000000090820152fd5b505050505090601574141c9a5e99481d1c985b9cd9995c8819985a5b1959605a1b92898d519562461bcd60e51b8752860152840152820152fd5b50634e487b7160e01b8f5260118852858ffd5b634e487b7160e01b8f5260118852858ffd5b634e487b7160e01b8d5260118652838dfd5b610bb7909b919b610de3565b998c61080c565b8d513d8e823e3d90fd5b8980fd5b634e487b7160e01b8a526011835260248afd5b634e487b7160e01b8a526021835260248afd5b8c5163647ded0560e01b815233868201529190829060249082905afa908115610c93578b91610c62575b5080610c2a575b8890610777565b909561271091820190818311610c4f5760039291610c4791610dd0565b049590610c23565b634e487b7160e01b8c526011855260248cfd5b90508881813d8311610c8c575b610c798183610e29565b81010312610c8857518c610c1c565b8a80fd5b503d610c6f565b8c513d8d823e3d90fd5b6032850285810460321486151715610cb9576007900491610739565b634e487b7160e01b895260118252602489fd5b9180820154908101809111610ce15791610719565b634e487b7160e01b865260118352602486fd5b610cff929350610dad565b14838980610711565b875162461bcd60e51b8152808301869052601860248201527f416c726561647920636865636b656420696e20746f64617900000000000000006044820152606490fd5b606490602085519162461bcd60e51b8352820152600d60248201526c42656c6f77206d696e696d756d60981b6044820152fd5b633ee5aeb560e01b8152fd5b906003821015610d975752565b634e487b7160e01b600052602160045260246000fd5b91908203918211610dba57565b634e487b7160e01b600052601160045260246000fd5b81810292918115918404141715610dba57565b67ffffffffffffffff8111610df757604052565b634e487b7160e01b600052604160045260246000fd5b6080810190811067ffffffffffffffff821117610df757604052565b90601f8019910116810190811067ffffffffffffffff821117610df757604052565b6000198114610dba5760010190565b66b1a2bc2ec50000811015610e8157662386f26fc100001115610e7c57600090565b600190565b50600290565b6003811015610d975760028114610ea957600114610ea457600190565b600390565b50600a90565b3d15610eea573d9067ffffffffffffffff8211610df75760405191610ede601f8201601f191660200184610e29565b82523d6000602084013e565b606090565b6000546001600160a01b03163303610f0357565b60405163118cdaa760e01b8152336004820152602490fdfea26469706673582212202a273f491ebb3f7c2bdc69d1534b91e2c5189420f94efe7e57cd2c862446f83f64736f6c63430008180033","opcodes":"PUSH1 0x80 CALLVALUE PUSH3 0x176 JUMPI PUSH1 0x1F PUSH3 0x10F8 CODESIZE DUP2 SWAP1 SUB SWAP2 DUP3 ADD PUSH1 0x1F NOT AND DUP4 ADD SWAP2 PUSH1 0x1 PUSH1 0x1 PUSH1 0x40 SHL SUB DUP4 GT DUP5 DUP5 LT OR PUSH3 0x17B JUMPI DUP1 DUP5 SWAP3 PUSH1 0xC0 SWAP5 PUSH1 0x40 MSTORE DUP4 CODECOPY DUP2 ADD SUB SLT PUSH3 0x176 JUMPI PUSH3 0x4D DUP2 PUSH3 0x191 JUMP JUMPDEST PUSH3 0x5B PUSH1 0x20 DUP4 ADD PUSH3 0x191 JUMP JUMPDEST SWAP2 PUSH3 0x6A PUSH1 0x40 DUP3 ADD PUSH3 0x191 JUMP JUMPDEST SWAP1 PUSH3 0x79 PUSH1 0x60 DUP3 ADD PUSH3 0x191 JUMP JUMPDEST SWAP2 PUSH3 0x96 PUSH1 0xA0 PUSH3 0x8E PUSH1 0x80 DUP6 ADD PUSH3 0x191 JUMP JUMPDEST SWAP4 ADD PUSH3 0x191 JUMP JUMPDEST SWAP2 CALLER ISZERO PUSH3 0x15D JUMPI PUSH1 0x0 SLOAD SWAP6 PUSH1 0x1 DUP1 PUSH1 0xA0 SHL SUB SWAP5 DUP6 DUP1 SWAP5 DUP2 DUP1 SWAP5 DUP2 PUSH1 0x1 DUP1 PUSH1 0xA0 SHL SUB NOT SWAP12 DUP14 DUP14 CALLER SWAP2 AND OR PUSH1 0x0 SSTORE PUSH1 0x40 MLOAD SWAP14 DUP3 CALLER SWAP2 AND PUSH32 0x8BE0079C531659141344CD1FD0A4F28419497F9722A3DAAFE3B4186F6B6457E0 PUSH1 0x0 DUP1 LOG3 PUSH1 0x1 PUSH32 0x9B779B17422D0DF92223018B32B4D1FA46E071723D6817E2486D003BECC55F00 SSTORE AND DUP12 PUSH1 0x1 SLOAD AND OR PUSH1 0x1 SSTORE AND DUP10 PUSH1 0x2 SLOAD AND OR PUSH1 0x2 SSTORE AND DUP8 PUSH1 0x4 SLOAD AND OR PUSH1 0x4 SSTORE AND DUP6 PUSH1 0x5 SLOAD AND OR PUSH1 0x5 SSTORE AND DUP4 PUSH1 0x6 SLOAD AND OR PUSH1 0x6 SSTORE AND SWAP1 PUSH1 0x7 SLOAD AND OR PUSH1 0x7 SSTORE PUSH2 0xF51 SWAP1 DUP2 PUSH3 0x1A7 DUP3 CODECOPY RETURN JUMPDEST PUSH1 0x40 MLOAD PUSH4 0x1E4FBDF7 PUSH1 0xE0 SHL DUP2 MSTORE PUSH1 0x0 PUSH1 0x4 DUP3 ADD MSTORE PUSH1 0x24 SWAP1 REVERT JUMPDEST PUSH1 0x0 DUP1 REVERT JUMPDEST PUSH4 0x4E487B71 PUSH1 0xE0 SHL PUSH1 0x0 MSTORE PUSH1 0x41 PUSH1 0x4 MSTORE PUSH1 0x24 PUSH1 0x0 REVERT JUMPDEST MLOAD SWAP1 PUSH1 0x1 PUSH1 0x1 PUSH1 0xA0 SHL SUB DUP3 AND DUP3 SUB PUSH3 0x176 JUMPI JUMP INVALID PUSH1 0x80 PUSH1 0x40 DUP2 DUP2 MSTORE PUSH1 0x4 SWAP2 DUP3 CALLDATASIZE LT ISZERO PUSH2 0x16 JUMPI PUSH1 0x0 DUP1 REVERT JUMPDEST PUSH1 0x0 SWAP3 DUP4 CALLDATALOAD PUSH1 0xE0 SHR SWAP2 DUP3 PUSH4 0x183FF085 EQ PUSH2 0x694 JUMPI POP DUP2 PUSH4 0x1BA86794 EQ PUSH2 0x677 JUMPI DUP2 PUSH4 0x27CFE856 EQ PUSH2 0x659 JUMPI DUP2 PUSH4 0x2B4F8A1F EQ PUSH2 0x630 JUMPI DUP2 PUSH4 0x32696174 EQ PUSH2 0x613 JUMPI DUP2 PUSH4 0x469E9067 EQ PUSH2 0x5AE JUMPI DUP2 PUSH4 0x4B6B0DDB EQ PUSH2 0x591 JUMPI DUP2 PUSH4 0x58E5A7C9 EQ PUSH2 0x56F JUMPI DUP2 PUSH4 0x60C6D8AE EQ PUSH2 0x550 JUMPI DUP2 PUSH4 0x617FBA04 EQ PUSH2 0x485 JUMPI DUP2 PUSH4 0x61D027B3 EQ PUSH2 0x45C JUMPI DUP2 PUSH4 0x64B87A70 EQ PUSH2 0x433 JUMPI DUP2 PUSH4 0x6C3B6803 EQ PUSH2 0x417 JUMPI DUP2 PUSH4 0x715018A6 EQ PUSH2 0x3BA JUMPI DUP2 PUSH4 0x719CE73E EQ PUSH2 0x392 JUMPI DUP2 PUSH4 0x7DAD19DB EQ PUSH2 0x369 JUMPI DUP2 PUSH4 0x826DC142 EQ PUSH2 0x347 JUMPI DUP2 PUSH4 0x8DA5CB5B EQ PUSH2 0x31F JUMPI DUP2 PUSH4 0x93B998FB EQ PUSH2 0x302 JUMPI DUP2 PUSH4 0x9DD373B9 EQ PUSH2 0x2B9 JUMPI DUP2 PUSH4 0xA563EAA3 EQ PUSH2 0x29A JUMPI DUP2 PUSH4 0xB21B5A21 EQ PUSH2 0x27D JUMPI DUP2 PUSH4 0xB5AB1C5D EQ PUSH2 0x261 JUMPI DUP2 PUSH4 0xBF16257A EQ PUSH2 0x238 JUMPI DUP2 PUSH4 0xEE99205C EQ PUSH2 0x20F JUMPI DUP2 PUSH4 0xF2FDE38B EQ PUSH2 0x172 JUMPI POP PUSH4 0xF47790D6 EQ PUSH2 0x14E JUMPI PUSH1 0x0 DUP1 REVERT JUMPDEST CALLVALUE PUSH2 0x16E JUMPI DUP2 PUSH1 0x3 NOT CALLDATASIZE ADD SLT PUSH2 0x16E JUMPI PUSH1 0x20 SWAP1 MLOAD PUSH7 0xB1A2BC2EC50000 DUP2 MSTORE RETURN JUMPDEST POP DUP1 REVERT JUMPDEST SWAP2 SWAP1 POP CALLVALUE PUSH2 0x20B JUMPI PUSH1 0x20 CALLDATASIZE PUSH1 0x3 NOT ADD SLT PUSH2 0x20B JUMPI PUSH1 0x1 PUSH1 0x1 PUSH1 0xA0 SHL SUB DUP3 CALLDATALOAD DUP2 DUP2 AND SWAP4 SWAP2 SWAP3 SWAP1 DUP5 SWAP1 SUB PUSH2 0x207 JUMPI PUSH2 0x1A6 PUSH2 0xEEF JUMP JUMPDEST DUP4 ISZERO PUSH2 0x1F1 JUMPI POP POP PUSH1 0x0 SLOAD DUP3 PUSH12 0xFFFFFFFFFFFFFFFFFFFFFFFF PUSH1 0xA0 SHL DUP3 AND OR PUSH1 0x0 SSTORE AND PUSH32 0x8BE0079C531659141344CD1FD0A4F28419497F9722A3DAAFE3B4186F6B6457E0 PUSH1 0x0 DUP1 LOG3 DUP1 RETURN JUMPDEST MLOAD PUSH4 0x1E4FBDF7 PUSH1 0xE0 SHL DUP2 MSTORE SWAP1 DUP2 ADD DUP5 SWAP1 MSTORE PUSH1 0x24 SWAP1 REVERT JUMPDEST DUP5 DUP1 REVERT JUMPDEST DUP3 DUP1 REVERT JUMPDEST POP POP CALLVALUE PUSH2 0x16E JUMPI DUP2 PUSH1 0x3 NOT CALLDATASIZE ADD SLT PUSH2 0x16E JUMPI PUSH1 0x3 SLOAD SWAP1 MLOAD PUSH1 0x1 PUSH1 0x1 PUSH1 0xA0 SHL SUB SWAP1 SWAP2 AND DUP2 MSTORE PUSH1 0x20 SWAP1 RETURN JUMPDEST POP POP CALLVALUE PUSH2 0x16E JUMPI DUP2 PUSH1 0x3 NOT CALLDATASIZE ADD SLT PUSH2 0x16E JUMPI PUSH1 0x6 SLOAD SWAP1 MLOAD PUSH1 0x1 PUSH1 0x1 PUSH1 0xA0 SHL SUB SWAP1 SWAP2 AND DUP2 MSTORE PUSH1 0x20 SWAP1 RETURN JUMPDEST POP POP CALLVALUE PUSH2 0x16E JUMPI DUP2 PUSH1 0x3 NOT CALLDATASIZE ADD SLT PUSH2 0x16E JUMPI PUSH1 0x20 SWAP1 MLOAD PUSH1 0x64 DUP2 MSTORE RETURN JUMPDEST POP POP CALLVALUE PUSH2 0x16E JUMPI DUP2 PUSH1 0x3 NOT CALLDATASIZE ADD SLT PUSH2 0x16E JUMPI PUSH1 0x20 SWAP1 MLOAD PUSH2 0x7D0 DUP2 MSTORE RETURN JUMPDEST POP POP CALLVALUE PUSH2 0x16E JUMPI DUP2 PUSH1 0x3 NOT CALLDATASIZE ADD SLT PUSH2 0x16E JUMPI PUSH1 0x20 SWAP1 PUSH1 0x9 SLOAD SWAP1 MLOAD SWAP1 DUP2 MSTORE RETURN JUMPDEST DUP4 SWAP1 CALLVALUE PUSH2 0x16E JUMPI PUSH1 0x20 CALLDATASIZE PUSH1 0x3 NOT ADD SLT PUSH2 0x16E JUMPI CALLDATALOAD PUSH1 0x1 PUSH1 0x1 PUSH1 0xA0 SHL SUB DUP2 AND SWAP1 DUP2 SWAP1 SUB PUSH2 0x16E JUMPI PUSH2 0x2E7 PUSH2 0xEEF JUMP JUMPDEST PUSH12 0xFFFFFFFFFFFFFFFFFFFFFFFF PUSH1 0xA0 SHL PUSH1 0x3 SLOAD AND OR PUSH1 0x3 SSTORE DUP1 RETURN JUMPDEST POP POP CALLVALUE PUSH2 0x16E JUMPI DUP2 PUSH1 0x3 NOT CALLDATASIZE ADD SLT PUSH2 0x16E JUMPI PUSH1 0x20 SWAP1 MLOAD PUSH2 0x3E8 DUP2 MSTORE RETURN JUMPDEST POP POP CALLVALUE PUSH2 0x16E JUMPI DUP2 PUSH1 0x3 NOT CALLDATASIZE ADD SLT PUSH2 0x16E JUMPI SWAP1 SLOAD SWAP1 MLOAD PUSH1 0x1 PUSH1 0x1 PUSH1 0xA0 SHL SUB SWAP1 SWAP2 AND DUP2 MSTORE PUSH1 0x20 SWAP1 RETURN JUMPDEST POP POP CALLVALUE PUSH2 0x16E JUMPI DUP2 PUSH1 0x3 NOT CALLDATASIZE ADD SLT PUSH2 0x16E JUMPI PUSH1 0x20 SWAP1 MLOAD PUSH7 0x38D7EA4C68000 DUP2 MSTORE RETURN JUMPDEST POP POP CALLVALUE PUSH2 0x16E JUMPI DUP2 PUSH1 0x3 NOT CALLDATASIZE ADD SLT PUSH2 0x16E JUMPI PUSH1 0x2 SLOAD SWAP1 MLOAD PUSH1 0x1 PUSH1 0x1 PUSH1 0xA0 SHL SUB SWAP1 SWAP2 AND DUP2 MSTORE PUSH1 0x20 SWAP1 RETURN JUMPDEST SWAP1 POP CALLVALUE PUSH2 0x20B JUMPI DUP3 PUSH1 0x3 NOT CALLDATASIZE ADD SLT PUSH2 0x20B JUMPI SLOAD SWAP1 MLOAD PUSH1 0x1 PUSH1 0x1 PUSH1 0xA0 SHL SUB SWAP1 SWAP2 AND DUP2 MSTORE PUSH1 0x20 SWAP2 POP RETURN JUMPDEST DUP4 CALLVALUE PUSH2 0x414 JUMPI DUP1 PUSH1 0x3 NOT CALLDATASIZE ADD SLT PUSH2 0x414 JUMPI PUSH2 0x3D3 PUSH2 0xEEF JUMP JUMPDEST PUSH1 0x0 DUP1 SLOAD PUSH1 0x1 PUSH1 0x1 PUSH1 0xA0 SHL SUB NOT DUP2 AND DUP3 SSTORE PUSH1 0x1 PUSH1 0x1 PUSH1 0xA0 SHL SUB AND PUSH32 0x8BE0079C531659141344CD1FD0A4F28419497F9722A3DAAFE3B4186F6B6457E0 DUP3 DUP1 LOG3 DUP1 RETURN JUMPDEST DUP1 REVERT JUMPDEST POP POP CALLVALUE PUSH2 0x16E JUMPI DUP2 PUSH1 0x3 NOT CALLDATASIZE ADD SLT PUSH2 0x16E JUMPI PUSH1 0x20 SWAP1 MLOAD PUSH1 0x7 DUP2 MSTORE RETURN JUMPDEST POP POP CALLVALUE PUSH2 0x16E JUMPI DUP2 PUSH1 0x3 NOT CALLDATASIZE ADD SLT PUSH2 0x16E JUMPI PUSH1 0x7 SLOAD SWAP1 MLOAD PUSH1 0x1 PUSH1 0x1 PUSH1 0xA0 SHL SUB SWAP1 SWAP2 AND DUP2 MSTORE PUSH1 0x20 SWAP1 RETURN JUMPDEST POP POP CALLVALUE PUSH2 0x16E JUMPI DUP2 PUSH1 0x3 NOT CALLDATASIZE ADD SLT PUSH2 0x16E JUMPI PUSH1 0x5 SLOAD SWAP1 MLOAD PUSH1 0x1 PUSH1 0x1 PUSH1 0xA0 SHL SUB SWAP1 SWAP2 AND DUP2 MSTORE PUSH1 0x20 SWAP1 RETURN JUMPDEST DUP3 DUP5 CALLVALUE PUSH2 0x414 JUMPI PUSH1 0x20 CALLDATASIZE PUSH1 0x3 NOT ADD SLT PUSH2 0x414 JUMPI DUP3 CALLDATALOAD PUSH1 0x1 PUSH1 0x1 PUSH1 0xA0 SHL SUB DUP2 AND SWAP1 DUP2 SWAP1 SUB PUSH2 0x16E JUMPI DUP2 PUSH1 0x60 DUP5 MLOAD PUSH2 0x4BA DUP2 PUSH2 0xE0D JUMP JUMPDEST DUP3 DUP2 MSTORE DUP3 PUSH1 0x20 DUP3 ADD MSTORE DUP3 DUP7 DUP3 ADD MSTORE ADD MSTORE DUP2 MSTORE PUSH1 0x8 PUSH1 0x20 MSTORE DUP2 DUP2 KECCAK256 SWAP2 DUP1 MLOAD SWAP3 PUSH2 0x4E1 DUP5 PUSH2 0xE0D JUMP JUMPDEST DUP1 SLOAD DUP5 MSTORE PUSH1 0x1 DUP2 ADD SLOAD PUSH1 0x20 DUP6 ADD SWAP1 DUP2 MSTORE PUSH1 0xFF PUSH1 0x3 PUSH1 0x2 DUP5 ADD SLOAD SWAP4 DUP6 DUP9 ADD SWAP5 DUP6 MSTORE ADD SLOAD AND PUSH1 0x60 DUP7 ADD SWAP5 PUSH1 0x3 DUP3 LT ISZERO PUSH2 0x53D JUMPI PUSH1 0x80 DUP8 PUSH2 0x53B DUP9 DUP9 DUP9 DUP9 DUP9 DUP5 MSTORE DUP3 MLOAD SWAP6 MLOAD DUP7 MSTORE MLOAD PUSH1 0x20 DUP7 ADD MSTORE MLOAD SWAP1 DUP5 ADD MSTORE MLOAD PUSH1 0x60 DUP4 ADD SWAP1 PUSH2 0xD8A JUMP JUMPDEST RETURN JUMPDEST PUSH4 0x4E487B71 PUSH1 0xE0 SHL DUP2 MSTORE PUSH1 0x21 DUP9 MSTORE PUSH1 0x24 SWAP1 REVERT JUMPDEST POP POP CALLVALUE PUSH2 0x16E JUMPI DUP2 PUSH1 0x3 NOT CALLDATASIZE ADD SLT PUSH2 0x16E JUMPI PUSH1 0x20 SWAP1 PUSH1 0xA SLOAD SWAP1 MLOAD SWAP1 DUP2 MSTORE RETURN JUMPDEST POP POP CALLVALUE PUSH2 0x16E JUMPI DUP2 PUSH1 0x3 NOT CALLDATASIZE ADD SLT PUSH2 0x16E JUMPI PUSH1 0x20 SWAP1 MLOAD PUSH7 0x2386F26FC10000 DUP2 MSTORE RETURN JUMPDEST POP POP CALLVALUE PUSH2 0x16E JUMPI DUP2 PUSH1 0x3 NOT CALLDATASIZE ADD SLT PUSH2 0x16E JUMPI PUSH1 0x20 SWAP1 MLOAD PUSH2 0x1F4 DUP2 MSTORE RETURN JUMPDEST SWAP1 POP CALLVALUE PUSH2 0x20B JUMPI PUSH1 0x20 CALLDATASIZE PUSH1 0x3 NOT ADD SLT PUSH2 0x20B JUMPI CALLDATALOAD PUSH1 0x1 PUSH1 0x1 PUSH1 0xA0 SHL SUB DUP2 AND SWAP1 DUP2 SWAP1 SUB PUSH2 0x20B JUMPI DUP2 DUP4 PUSH2 0x53B SWAP3 PUSH1 0x80 SWAP6 MSTORE PUSH1 0x8 PUSH1 0x20 MSTORE KECCAK256 SWAP2 DUP3 SLOAD SWAP3 PUSH1 0x1 DUP2 ADD SLOAD SWAP2 PUSH1 0xFF PUSH1 0x3 PUSH1 0x2 DUP5 ADD SLOAD SWAP4 ADD SLOAD AND SWAP3 DUP2 MLOAD SWAP6 DUP7 MSTORE PUSH1 0x20 DUP7 ADD MSTORE DUP5 ADD MSTORE PUSH1 0x60 DUP4 ADD SWAP1 PUSH2 0xD8A JUMP JUMPDEST POP POP CALLVALUE PUSH2 0x16E JUMPI DUP2 PUSH1 0x3 NOT CALLDATASIZE ADD SLT PUSH2 0x16E JUMPI PUSH1 0x20 SWAP1 MLOAD PUSH2 0x9C4 DUP2 MSTORE RETURN JUMPDEST POP POP CALLVALUE PUSH2 0x16E JUMPI DUP2 PUSH1 0x3 NOT CALLDATASIZE ADD SLT PUSH2 0x16E JUMPI PUSH1 0x1 SLOAD SWAP1 MLOAD PUSH1 0x1 PUSH1 0x1 PUSH1 0xA0 SHL SUB SWAP1 SWAP2 AND DUP2 MSTORE PUSH1 0x20 SWAP1 RETURN JUMPDEST POP POP CALLVALUE PUSH2 0x16E JUMPI DUP2 PUSH1 0x3 NOT CALLDATASIZE ADD SLT PUSH2 0x16E JUMPI PUSH1 0x20 SWAP1 MLOAD PUSH3 0x15180 DUP2 MSTORE RETURN JUMPDEST POP POP CALLVALUE PUSH2 0x16E JUMPI DUP2 PUSH1 0x3 NOT CALLDATASIZE ADD SLT PUSH2 0x16E JUMPI PUSH1 0x20 SWAP1 MLOAD PUSH2 0xFA0 DUP2 MSTORE RETURN JUMPDEST SWAP1 DUP5 DUP1 SWAP4 POP PUSH1 0x3 NOT CALLDATASIZE ADD SLT PUSH2 0x20B JUMPI PUSH32 0x9B779B17422D0DF92223018B32B4D1FA46E071723D6817E2486D003BECC55F00 SWAP2 PUSH1 0x2 DUP4 SLOAD EQ PUSH2 0xD7E JUMPI POP PUSH1 0x2 DUP3 SSTORE PUSH7 0x38D7EA4C68000 CALLVALUE LT PUSH2 0xD4B JUMPI CALLER DUP4 MSTORE PUSH1 0x20 SWAP1 PUSH1 0x8 DUP3 MSTORE DUP5 DUP5 KECCAK256 PUSH3 0x15180 SWAP2 DUP3 TIMESTAMP DIV SWAP3 DUP3 SLOAD DIV SWAP3 DUP4 DUP2 GT ISZERO PUSH2 0xD08 JUMPI PUSH1 0x1 DUP5 DUP2 SWAP6 ISZERO ISZERO SWAP3 DUP4 PUSH2 0xCF4 JUMPI JUMPDEST POP POP POP PUSH2 0xCCC JUMPI JUMPDEST PUSH2 0x722 CALLVALUE PUSH2 0xE5A JUMP JUMPDEST SWAP1 PUSH2 0x72C DUP3 PUSH2 0xE87 JUMP JUMPDEST SWAP1 PUSH1 0x7 DUP6 LT PUSH2 0xC9D JUMPI PUSH1 0x32 SWAP2 JUMPDEST PUSH1 0x64 SWAP3 DUP2 DUP5 MUL SWAP2 DUP5 DUP4 DIV SUB PUSH2 0xBCC JUMPI DUP4 ADD SWAP1 DUP2 DUP5 GT PUSH2 0xBCC JUMPI DUP4 SWAP2 PUSH2 0x75D SWAP2 PUSH2 0xDD0 JUMP JUMPDEST PUSH1 0x3 SLOAD SWAP2 SWAP1 DIV SWAP5 PUSH1 0x1 PUSH1 0x1 PUSH1 0xA0 SHL SUB SWAP2 DUP9 SWAP1 DUP4 AND DUP1 PUSH2 0xBF2 JUMPI JUMPDEST POP POP PUSH1 0x3 SWAP1 TIMESTAMP DUP2 SSTORE DUP8 PUSH1 0x1 DUP3 ADD SSTORE PUSH1 0x2 DUP2 ADD PUSH2 0x793 DUP2 SLOAD PUSH2 0xE4B JUMP JUMPDEST SWAP1 SSTORE ADD PUSH1 0x3 DUP6 LT ISZERO PUSH2 0xBDF JUMPI PUSH1 0xFF NOT DUP2 SLOAD AND PUSH1 0xFF DUP7 AND OR SWAP1 SSTORE PUSH2 0x7B7 PUSH1 0x9 SLOAD PUSH2 0xE4B JUMP JUMPDEST PUSH1 0x9 SSTORE PUSH1 0xA SLOAD CALLVALUE DUP2 ADD DUP1 SWAP2 GT PUSH2 0xBCC JUMPI PUSH1 0xA SSTORE DUP1 PUSH1 0x1 SLOAD AND SWAP1 DUP2 EXTCODESIZE ISZERO PUSH2 0xBC8 JUMPI SWAP1 DUP7 SWAP2 DUP12 MLOAD PUSH4 0x11E8A6B PUSH1 0xE5 SHL DUP2 MSTORE CALLER DUP6 DUP3 ADD MSTORE DUP12 DUP2 DUP8 DUP2 DUP4 PUSH1 0x24 SWAP8 DUP14 DUP10 DUP5 ADD MSTORE PUSH1 0x44 SWAP10 DUP11 DUP5 ADD MSTORE GAS CALL DUP1 ISZERO PUSH2 0xBBE JUMPI PUSH2 0xBAB JUMPI JUMPDEST POP PUSH2 0xFA0 SWAP1 DUP2 CALLVALUE MUL SWAP2 CALLVALUE ISZERO SWAP1 CALLVALUE DUP5 DIV EQ DUP2 OR ISZERO PUSH2 0xB99 JUMPI PUSH2 0x2710 DUP1 SWAP4 DIV SWAP3 PUSH2 0x9C4 DUP1 CALLVALUE MUL SWAP1 CALLVALUE DUP3 DIV EQ DUP4 OR ISZERO PUSH2 0xB87 JUMPI DUP2 SWAP1 DIV SWAP1 PUSH2 0x7D0 DUP1 CALLVALUE MUL SWAP1 CALLVALUE DUP3 DIV EQ DUP5 OR ISZERO PUSH2 0xB74 JUMPI DUP2 SWAP1 DIV SWAP3 PUSH2 0x3E8 SWAP1 DUP2 CALLVALUE MUL SWAP2 CALLVALUE DUP4 DIV EQ OR ISZERO PUSH2 0xB74 JUMPI DIV SWAP2 SWAP1 DUP15 DUP1 DUP1 DUP1 PUSH2 0x886 DUP8 PUSH2 0x881 DUP9 DUP2 DUP10 DUP2 DUP16 CALLVALUE PUSH2 0xDAD JUMP JUMPDEST PUSH2 0xDAD JUMP JUMPDEST SWAP9 DUP9 DUP14 SLOAD AND GAS CALL PUSH2 0x895 PUSH2 0xEAF JUMP JUMPDEST POP ISZERO PUSH2 0xB3A JUMPI DUP15 DUP1 DUP1 DUP1 SWAP4 DUP8 PUSH1 0x5 SLOAD AND GAS CALL PUSH2 0x8AF PUSH2 0xEAF JUMP JUMPDEST POP ISZERO PUSH2 0xAF8 JUMPI PUSH1 0x2 SLOAD DUP16 MLOAD PUSH4 0x308A59B PUSH1 0xE3 SHL DUP2 MSTORE CALLER DUP10 DUP3 ADD MSTORE SWAP1 DUP14 SWAP1 DUP3 SWAP1 DUP9 SWAP1 DUP3 SWAP1 DUP9 AND GAS STATICCALL SWAP1 DUP2 ISZERO PUSH2 0xAEC JUMPI SWAP1 DUP16 SWAP2 DUP3 SWAP2 PUSH2 0xAB2 JUMPI JUMPDEST POP DUP1 PUSH2 0xAA9 JUMPI JUMPDEST ISZERO PUSH2 0xA45 JUMPI POP DUP3 PUSH1 0x2 SLOAD AND DUP1 EXTCODESIZE ISZERO PUSH2 0xA41 JUMPI DUP16 SWAP1 DUP16 SWAP2 DUP9 SWAP1 MLOAD DUP1 SWAP5 DUP2 SWAP4 PUSH4 0xA94BEAF PUSH1 0xE2 SHL DUP4 MSTORE CALLER DUP14 DUP5 ADD MSTORE DUP2 DUP12 DUP5 ADD MSTORE GAS CALL DUP1 ISZERO PUSH2 0xA36 JUMPI SWAP1 DUP15 SWAP2 PUSH2 0xA1E JUMPI JUMPDEST POP DUP1 DUP1 DUP1 SWAP4 JUMPDEST DUP6 PUSH1 0x6 SLOAD AND GAS CALL PUSH2 0x944 PUSH2 0xEAF JUMP JUMPDEST POP ISZERO PUSH2 0x9E7 JUMPI DUP12 DUP1 DUP1 SWAP4 DUP2 SWAP4 PUSH1 0x7 SLOAD AND GAS CALL PUSH2 0x95E PUSH2 0xEAF JUMP JUMPDEST POP ISZERO PUSH2 0x9B0 JUMPI POP POP POP POP SWAP6 PUSH2 0x97E PUSH1 0x1 SWAP7 SWAP8 DUP3 MLOAD SWAP6 CALLVALUE DUP8 MSTORE DUP7 ADD SWAP1 PUSH2 0xD8A JUMP JUMPDEST DUP4 ADD MSTORE PUSH1 0x60 DUP3 ADD MSTORE PUSH32 0x547AD9BDCD235D0BB15C287A2358E52C18B9392B7A957E3B6B73260A51F37A3A PUSH1 0x80 CALLER SWAP3 LOG2 SSTORE DUP1 RETURN JUMPDEST DUP11 MLOAD PUSH3 0x461BCD PUSH1 0xE5 SHL DUP2 MSTORE SWAP3 DUP4 ADD DUP9 SWAP1 MSTORE PUSH1 0x16 SWAP1 DUP4 ADD MSTORE PUSH22 0x14DD185ADA5B99C81C995DD85C991CC819985A5B1959 PUSH1 0x52 SHL SWAP1 DUP3 ADD MSTORE REVERT JUMPDEST POP POP DUP11 MLOAD PUSH3 0x461BCD PUSH1 0xE5 SHL DUP2 MSTORE SWAP3 DUP4 ADD DUP9 SWAP1 MSTORE PUSH1 0x14 SWAP1 DUP4 ADD MSTORE PUSH20 0x109D5C9B881D1C985B9CD9995C8819985A5B1959 PUSH1 0x62 SHL SWAP1 DUP3 ADD MSTORE REVERT JUMPDEST PUSH2 0xA27 SWAP1 PUSH2 0xDE3 JUMP JUMPDEST PUSH2 0xA32 JUMPI DUP13 DUP16 PUSH2 0x92F JUMP JUMPDEST DUP13 DUP1 REVERT JUMPDEST POP DUP15 MLOAD RETURNDATASIZE DUP16 DUP3 RETURNDATACOPY RETURNDATASIZE SWAP1 REVERT JUMPDEST DUP15 DUP1 REVERT JUMPDEST DUP1 DUP1 DUP1 SWAP4 DUP7 PUSH1 0x5 SLOAD AND GAS CALL PUSH2 0xA58 PUSH2 0xEAF JUMP JUMPDEST POP ISZERO PUSH2 0xA68 JUMPI DUP13 DUP1 DUP1 DUP1 SWAP4 PUSH2 0x935 JUMP JUMPDEST POP POP DUP12 MLOAD PUSH3 0x461BCD PUSH1 0xE5 SHL DUP2 MSTORE SWAP4 DUP5 ADD DUP10 SWAP1 MSTORE POP PUSH1 0x18 SWAP1 DUP4 ADD MSTORE PUSH32 0x526566657272616C2066616C6C6261636B206661696C65640000000000000000 SWAP1 DUP3 ADD MSTORE REVERT JUMPDEST POP DUP2 ISZERO ISZERO PUSH2 0x8EE JUMP JUMPDEST DUP1 SWAP3 POP DUP15 DUP1 SWAP3 POP RETURNDATASIZE DUP4 GT PUSH2 0xAE5 JUMPI JUMPDEST PUSH2 0xACB DUP2 DUP4 PUSH2 0xE29 JUMP JUMPDEST DUP2 ADD SUB SLT PUSH2 0xA41 JUMPI MLOAD DUP1 ISZERO ISZERO DUP2 SUB PUSH2 0xA41 JUMPI DUP15 SWAP1 CODESIZE PUSH2 0x8E7 JUMP JUMPDEST POP RETURNDATASIZE PUSH2 0xAC1 JUMP JUMPDEST POP POP DUP15 MLOAD RETURNDATASIZE DUP16 DUP3 RETURNDATACOPY RETURNDATASIZE SWAP1 REVERT JUMPDEST POP POP DUP13 MLOAD PUSH3 0x461BCD PUSH1 0xE5 SHL DUP2 MSTORE SWAP5 DUP6 ADD DUP11 SWAP1 MSTORE POP POP PUSH1 0x18 SWAP1 DUP4 ADD MSTORE PUSH32 0x5472656173757279207472616E73666572206661696C65640000000000000000 SWAP1 DUP3 ADD MSTORE REVERT JUMPDEST POP POP POP POP POP SWAP1 PUSH1 0x15 PUSH21 0x141C9A5E99481D1C985B9CD9995C8819985A5B1959 PUSH1 0x5A SHL SWAP3 DUP10 DUP14 MLOAD SWAP6 PUSH3 0x461BCD PUSH1 0xE5 SHL DUP8 MSTORE DUP7 ADD MSTORE DUP5 ADD MSTORE DUP3 ADD MSTORE REVERT JUMPDEST POP PUSH4 0x4E487B71 PUSH1 0xE0 SHL DUP16 MSTORE PUSH1 0x11 DUP9 MSTORE DUP6 DUP16 REVERT JUMPDEST PUSH4 0x4E487B71 PUSH1 0xE0 SHL DUP16 MSTORE PUSH1 0x11 DUP9 MSTORE DUP6 DUP16 REVERT JUMPDEST PUSH4 0x4E487B71 PUSH1 0xE0 SHL DUP14 MSTORE PUSH1 0x11 DUP7 MSTORE DUP4 DUP14 REVERT JUMPDEST PUSH2 0xBB7 SWAP1 SWAP12 SWAP2 SWAP12 PUSH2 0xDE3 JUMP JUMPDEST SWAP10 DUP13 PUSH2 0x80C JUMP JUMPDEST DUP14 MLOAD RETURNDATASIZE DUP15 DUP3 RETURNDATACOPY RETURNDATASIZE SWAP1 REVERT JUMPDEST DUP10 DUP1 REVERT JUMPDEST PUSH4 0x4E487B71 PUSH1 0xE0 SHL DUP11 MSTORE PUSH1 0x11 DUP4 MSTORE PUSH1 0x24 DUP11 REVERT JUMPDEST PUSH4 0x4E487B71 PUSH1 0xE0 SHL DUP11 MSTORE PUSH1 0x21 DUP4 MSTORE PUSH1 0x24 DUP11 REVERT JUMPDEST DUP13 MLOAD PUSH4 0x647DED05 PUSH1 0xE0 SHL DUP2 MSTORE CALLER DUP7 DUP3 ADD MSTORE SWAP2 SWAP1 DUP3 SWAP1 PUSH1 0x24 SWAP1 DUP3 SWAP1 GAS STATICCALL SWAP1 DUP2 ISZERO PUSH2 0xC93 JUMPI DUP12 SWAP2 PUSH2 0xC62 JUMPI JUMPDEST POP DUP1 PUSH2 0xC2A JUMPI JUMPDEST DUP9 SWAP1 PUSH2 0x777 JUMP JUMPDEST SWAP1 SWAP6 PUSH2 0x2710 SWAP2 DUP3 ADD SWAP1 DUP2 DUP4 GT PUSH2 0xC4F JUMPI PUSH1 0x3 SWAP3 SWAP2 PUSH2 0xC47 SWAP2 PUSH2 0xDD0 JUMP JUMPDEST DIV SWAP6 SWAP1 PUSH2 0xC23 JUMP JUMPDEST PUSH4 0x4E487B71 PUSH1 0xE0 SHL DUP13 MSTORE PUSH1 0x11 DUP6 MSTORE PUSH1 0x24 DUP13 REVERT JUMPDEST SWAP1 POP DUP9 DUP2 DUP2 RETURNDATASIZE DUP4 GT PUSH2 0xC8C JUMPI JUMPDEST PUSH2 0xC79 DUP2 DUP4 PUSH2 0xE29 JUMP JUMPDEST DUP2 ADD SUB SLT PUSH2 0xC88 JUMPI MLOAD DUP13 PUSH2 0xC1C JUMP JUMPDEST DUP11 DUP1 REVERT JUMPDEST POP RETURNDATASIZE PUSH2 0xC6F JUMP JUMPDEST DUP13 MLOAD RETURNDATASIZE DUP14 DUP3 RETURNDATACOPY RETURNDATASIZE SWAP1 REVERT JUMPDEST PUSH1 0x32 DUP6 MUL DUP6 DUP2 DIV PUSH1 0x32 EQ DUP7 ISZERO OR ISZERO PUSH2 0xCB9 JUMPI PUSH1 0x7 SWAP1 DIV SWAP2 PUSH2 0x739 JUMP JUMPDEST PUSH4 0x4E487B71 PUSH1 0xE0 SHL DUP10 MSTORE PUSH1 0x11 DUP3 MSTORE PUSH1 0x24 DUP10 REVERT JUMPDEST SWAP2 DUP1 DUP3 ADD SLOAD SWAP1 DUP2 ADD DUP1 SWAP2 GT PUSH2 0xCE1 JUMPI SWAP2 PUSH2 0x719 JUMP JUMPDEST PUSH4 0x4E487B71 PUSH1 0xE0 SHL DUP7 MSTORE PUSH1 0x11 DUP4 MSTORE PUSH1 0x24 DUP7 REVERT JUMPDEST PUSH2 0xCFF SWAP3 SWAP4 POP PUSH2 0xDAD JUMP JUMPDEST EQ DUP4 DUP10 DUP1 PUSH2 0x711 JUMP JUMPDEST DUP8 MLOAD PUSH3 0x461BCD PUSH1 0xE5 SHL DUP2 MSTORE DUP1 DUP4 ADD DUP7 SWAP1 MSTORE PUSH1 0x18 PUSH1 0x24 DUP3 ADD MSTORE PUSH32 0x416C726561647920636865636B656420696E20746F6461790000000000000000 PUSH1 0x44 DUP3 ADD MSTORE PUSH1 0x64 SWAP1 REVERT JUMPDEST PUSH1 0x64 SWAP1 PUSH1 0x20 DUP6 MLOAD SWAP2 PUSH3 0x461BCD PUSH1 0xE5 SHL DUP4 MSTORE DUP3 ADD MSTORE PUSH1 0xD PUSH1 0x24 DUP3 ADD MSTORE PUSH13 0x42656C6F77206D696E696D756D PUSH1 0x98 SHL PUSH1 0x44 DUP3 ADD MSTORE REVERT JUMPDEST PUSH4 0x3EE5AEB5 PUSH1 0xE0 SHL DUP2 MSTORE REVERT JUMPDEST SWAP1 PUSH1 0x3 DUP3 LT ISZERO PUSH2 0xD97 JUMPI MSTORE JUMP JUMPDEST PUSH4 0x4E487B71 PUSH1 0xE0 SHL PUSH1 0x0 MSTORE PUSH1 0x21 PUSH1 0x4 MSTORE PUSH1 0x24 PUSH1 0x0 REVERT JUMPDEST SWAP2 SWAP1 DUP3 SUB SWAP2 DUP3 GT PUSH2 0xDBA JUMPI JUMP JUMPDEST PUSH4 0x4E487B71 PUSH1 0xE0 SHL PUSH1 0x0 MSTORE PUSH1 0x11 PUSH1 0x4 MSTORE PUSH1 0x24 PUSH1 0x0 REVERT JUMPDEST DUP2 DUP2 MUL SWAP3 SWAP2 DUP2 ISZERO SWAP2 DUP5 DIV EQ OR ISZERO PUSH2 0xDBA JUMPI JUMP JUMPDEST PUSH8 0xFFFFFFFFFFFFFFFF DUP2 GT PUSH2 0xDF7 JUMPI PUSH1 0x40 MSTORE JUMP JUMPDEST PUSH4 0x4E487B71 PUSH1 0xE0 SHL PUSH1 0x0 MSTORE PUSH1 0x41 PUSH1 0x4 MSTORE PUSH1 0x24 PUSH1 0x0 REVERT JUMPDEST PUSH1 0x80 DUP2 ADD SWAP1 DUP2 LT PUSH8 0xFFFFFFFFFFFFFFFF DUP3 GT OR PUSH2 0xDF7 JUMPI PUSH1 0x40 MSTORE JUMP JUMPDEST SWAP1 PUSH1 0x1F DUP1 NOT SWAP2 ADD AND DUP2 ADD SWAP1 DUP2 LT PUSH8 0xFFFFFFFFFFFFFFFF DUP3 GT OR PUSH2 0xDF7 JUMPI PUSH1 0x40 MSTORE JUMP JUMPDEST PUSH1 0x0 NOT DUP2 EQ PUSH2 0xDBA JUMPI PUSH1 0x1 ADD SWAP1 JUMP JUMPDEST PUSH7 0xB1A2BC2EC50000 DUP2 LT ISZERO PUSH2 0xE81 JUMPI PUSH7 0x2386F26FC10000 GT ISZERO PUSH2 0xE7C JUMPI PUSH1 0x0 SWAP1 JUMP JUMPDEST PUSH1 0x1 SWAP1 JUMP JUMPDEST POP PUSH1 0x2 SWAP1 JUMP JUMPDEST PUSH1 0x3 DUP2 LT ISZERO PUSH2 0xD97 JUMPI PUSH1 0x2 DUP2 EQ PUSH2 0xEA9 JUMPI PUSH1 0x1 EQ PUSH2 0xEA4 JUMPI PUSH1 0x1 SWAP1 JUMP JUMPDEST PUSH1 0x3 SWAP1 JUMP JUMPDEST POP PUSH1 0xA SWAP1 JUMP JUMPDEST RETURNDATASIZE ISZERO PUSH2 0xEEA JUMPI RETURNDATASIZE SWAP1 PUSH8 0xFFFFFFFFFFFFFFFF DUP3 GT PUSH2 0xDF7 JUMPI PUSH1 0x40 MLOAD SWAP2 PUSH2 0xEDE PUSH1 0x1F DUP3 ADD PUSH1 0x1F NOT AND PUSH1 0x20 ADD DUP5 PUSH2 0xE29 JUMP JUMPDEST DUP3 MSTORE RETURNDATASIZE PUSH1 0x0 PUSH1 0x20 DUP5 ADD RETURNDATACOPY JUMP JUMPDEST PUSH1 0x60 SWAP1 JUMP JUMPDEST PUSH1 0x0 SLOAD PUSH1 0x1 PUSH1 0x1 PUSH1 0xA0 SHL SUB AND CALLER SUB PUSH2 0xF03 JUMPI JUMP JUMPDEST PUSH1 0x40 MLOAD PUSH4 0x118CDAA7 PUSH1 0xE0 SHL DUP2 MSTORE CALLER PUSH1 0x4 DUP3 ADD MSTORE PUSH1 0x24 SWAP1 REVERT INVALID LOG2 PUSH5 0x6970667358 0x22 SLT KECCAK256 0x2A 0x27 EXTCODEHASH BLOBHASH 0x1E 0xBB EXTCODEHASH PUSH29 0x2BDC69D1534B91E2C5189420F94EFE7E57CD2C862446F83F64736F6C63 NUMBER STOP ADDMOD XOR STOP CALLER "},"methodIdentifiers":{"BASE_POINTS()":"b5ab1c5d","BASIC_THRESHOLD()":"826dc142","BURN_SHARE()":"93b998fb","DAY()":"27cfe856","PRIZE_SHARE()":"1ba86794","PRO_THRESHOLD()":"58e5a7c9","REFERRAL_SHARE()":"b21b5a21","STAKING_SHARE()":"4b6b0ddb","STREAK_CAP()":"6c3b6803","TREASURY_SHARE()":"32696174","WHALE_THRESHOLD()":"f47790d6","burnReserve()":"bf16257a","checkIn()":"183ff085","getRecord(address)":"617fba04","owner()":"8da5cb5b","pointsContract()":"2b4f8a1f","prizePool()":"719ce73e","records(address)":"469e9067","referralContract()":"7dad19db","renounceOwnership()":"715018a6","setStakingContract(address)":"9dd373b9","stakingContract()":"ee99205c","stakingRewards()":"64b87a70","totalCheckIns()":"a563eaa3","totalFeesCollected()":"60c6d8ae","transferOwnership(address)":"f2fde38b","treasury()":"61d027b3"}}}}}