{"contracts/PredictionNFT.sol":{"PredictionNFT":{"abi":[{"inputs":[],"stateMutability":"nonpayable","type":"constructor"},{"inputs":[],"name":"AccessControlBadConfirmation","type":"error"},{"inputs":[{"internalType":"address","name":"account","type":"address"},{"internalType":"bytes32","name":"neededRole","type":"bytes32"}],"name":"AccessControlUnauthorizedAccount","type":"error"},{"inputs":[{"internalType":"address","name":"target","type":"address"}],"name":"AddressEmptyCode","type":"error"},{"inputs":[{"internalType":"address","name":"implementation","type":"address"}],"name":"ERC1967InvalidImplementation","type":"error"},{"inputs":[],"name":"ERC1967NonPayable","type":"error"},{"inputs":[],"name":"ERC721EnumerableForbiddenBatchMint","type":"error"},{"inputs":[{"internalType":"address","name":"sender","type":"address"},{"internalType":"uint256","name":"tokenId","type":"uint256"},{"internalType":"address","name":"owner","type":"address"}],"name":"ERC721IncorrectOwner","type":"error"},{"inputs":[{"internalType":"address","name":"operator","type":"address"},{"internalType":"uint256","name":"tokenId","type":"uint256"}],"name":"ERC721InsufficientApproval","type":"error"},{"inputs":[{"internalType":"address","name":"approver","type":"address"}],"name":"ERC721InvalidApprover","type":"error"},{"inputs":[{"internalType":"address","name":"operator","type":"address"}],"name":"ERC721InvalidOperator","type":"error"},{"inputs":[{"internalType":"address","name":"owner","type":"address"}],"name":"ERC721InvalidOwner","type":"error"},{"inputs":[{"internalType":"address","name":"receiver","type":"address"}],"name":"ERC721InvalidReceiver","type":"error"},{"inputs":[{"internalType":"address","name":"sender","type":"address"}],"name":"ERC721InvalidSender","type":"error"},{"inputs":[{"internalType":"uint256","name":"tokenId","type":"uint256"}],"name":"ERC721NonexistentToken","type":"error"},{"inputs":[{"internalType":"address","name":"owner","type":"address"},{"internalType":"uint256","name":"index","type":"uint256"}],"name":"ERC721OutOfBoundsIndex","type":"error"},{"inputs":[],"name":"FailedCall","type":"error"},{"inputs":[],"name":"InvalidInitialization","type":"error"},{"inputs":[],"name":"NotInitializing","type":"error"},{"inputs":[],"name":"UUPSUnauthorizedCallContext","type":"error"},{"inputs":[{"internalType":"bytes32","name":"slot","type":"bytes32"}],"name":"UUPSUnsupportedProxiableUUID","type":"error"},{"anonymous":false,"inputs":[{"indexed":true,"internalType":"address","name":"owner","type":"address"},{"indexed":true,"internalType":"address","name":"approved","type":"address"},{"indexed":true,"internalType":"uint256","name":"tokenId","type":"uint256"}],"name":"Approval","type":"event"},{"anonymous":false,"inputs":[{"indexed":true,"internalType":"address","name":"owner","type":"address"},{"indexed":true,"internalType":"address","name":"operator","type":"address"},{"indexed":false,"internalType":"bool","name":"approved","type":"bool"}],"name":"ApprovalForAll","type":"event"},{"anonymous":false,"inputs":[{"indexed":false,"internalType":"uint64","name":"version","type":"uint64"}],"name":"Initialized","type":"event"},{"anonymous":false,"inputs":[{"indexed":true,"internalType":"bytes32","name":"role","type":"bytes32"},{"indexed":true,"internalType":"bytes32","name":"previousAdminRole","type":"bytes32"},{"indexed":true,"internalType":"bytes32","name":"newAdminRole","type":"bytes32"}],"name":"RoleAdminChanged","type":"event"},{"anonymous":false,"inputs":[{"indexed":true,"internalType":"bytes32","name":"role","type":"bytes32"},{"indexed":true,"internalType":"address","name":"account","type":"address"},{"indexed":true,"internalType":"address","name":"sender","type":"address"}],"name":"RoleGranted","type":"event"},{"anonymous":false,"inputs":[{"indexed":true,"internalType":"bytes32","name":"role","type":"bytes32"},{"indexed":true,"internalType":"address","name":"account","type":"address"},{"indexed":true,"internalType":"address","name":"sender","type":"address"}],"name":"RoleRevoked","type":"event"},{"anonymous":false,"inputs":[{"indexed":true,"internalType":"address","name":"to","type":"address"},{"indexed":true,"internalType":"uint256","name":"tokenId","type":"uint256"},{"indexed":false,"internalType":"enum PredictionNFT.Tier","name":"tier","type":"uint8"},{"indexed":false,"internalType":"uint256","name":"streak","type":"uint256"},{"indexed":false,"internalType":"uint256","name":"eventId","type":"uint256"}],"name":"StreakNFTMinted","type":"event"},{"anonymous":false,"inputs":[{"indexed":true,"internalType":"address","name":"from","type":"address"},{"indexed":true,"internalType":"address","name":"to","type":"address"},{"indexed":true,"internalType":"uint256","name":"tokenId","type":"uint256"}],"name":"Transfer","type":"event"},{"anonymous":false,"inputs":[{"indexed":true,"internalType":"address","name":"implementation","type":"address"}],"name":"Upgraded","type":"event"},{"inputs":[],"name":"BRONZE_STREAK","outputs":[{"internalType":"uint256","name":"","type":"uint256"}],"stateMutability":"view","type":"function"},{"inputs":[],"name":"DEFAULT_ADMIN_ROLE","outputs":[{"internalType":"bytes32","name":"","type":"bytes32"}],"stateMutability":"view","type":"function"},{"inputs":[],"name":"DIAMOND_STREAK","outputs":[{"internalType":"uint256","name":"","type":"uint256"}],"stateMutability":"view","type":"function"},{"inputs":[],"name":"GOLD_STREAK","outputs":[{"internalType":"uint256","name":"","type":"uint256"}],"stateMutability":"view","type":"function"},{"inputs":[],"name":"MINTER_ROLE","outputs":[{"internalType":"bytes32","name":"","type":"bytes32"}],"stateMutability":"view","type":"function"},{"inputs":[],"name":"SILVER_STREAK","outputs":[{"internalType":"uint256","name":"","type":"uint256"}],"stateMutability":"view","type":"function"},{"inputs":[],"name":"UPGRADE_INTERFACE_VERSION","outputs":[{"internalType":"string","name":"","type":"string"}],"stateMutability":"view","type":"function"},{"inputs":[{"internalType":"address","name":"to","type":"address"},{"internalType":"uint256","name":"tokenId","type":"uint256"}],"name":"approve","outputs":[],"stateMutability":"nonpayable","type":"function"},{"inputs":[{"internalType":"address","name":"owner","type":"address"}],"name":"balanceOf","outputs":[{"internalType":"uint256","name":"","type":"uint256"}],"stateMutability":"view","type":"function"},{"inputs":[],"name":"baseURI","outputs":[{"internalType":"string","name":"","type":"string"}],"stateMutability":"view","type":"function"},{"inputs":[{"internalType":"uint256","name":"tokenId","type":"uint256"}],"name":"getApproved","outputs":[{"internalType":"address","name":"","type":"address"}],"stateMutability":"view","type":"function"},{"inputs":[{"internalType":"bytes32","name":"role","type":"bytes32"}],"name":"getRoleAdmin","outputs":[{"internalType":"bytes32","name":"","type":"bytes32"}],"stateMutability":"view","type":"function"},{"inputs":[{"internalType":"enum PredictionNFT.Tier","name":"tier","type":"uint8"}],"name":"getTierName","outputs":[{"internalType":"string","name":"","type":"string"}],"stateMutability":"pure","type":"function"},{"inputs":[{"internalType":"uint256","name":"tokenId","type":"uint256"}],"name":"getTokenMeta","outputs":[{"components":[{"internalType":"enum PredictionNFT.Tier","name":"tier","type":"uint8"},{"internalType":"uint256","name":"streak","type":"uint256"},{"internalType":"uint256","name":"mintedAt","type":"uint256"},{"internalType":"uint256","name":"eventId","type":"uint256"}],"internalType":"struct PredictionNFT.NFTMeta","name":"","type":"tuple"}],"stateMutability":"view","type":"function"},{"inputs":[{"internalType":"address","name":"user","type":"address"}],"name":"getUserNFTs","outputs":[{"internalType":"uint256[]","name":"","type":"uint256[]"}],"stateMutability":"view","type":"function"},{"inputs":[{"internalType":"bytes32","name":"role","type":"bytes32"},{"internalType":"address","name":"account","type":"address"}],"name":"grantRole","outputs":[],"stateMutability":"nonpayable","type":"function"},{"inputs":[{"internalType":"bytes32","name":"role","type":"bytes32"},{"internalType":"address","name":"account","type":"address"}],"name":"hasRole","outputs":[{"internalType":"bool","name":"","type":"bool"}],"stateMutability":"view","type":"function"},{"inputs":[{"internalType":"address","name":"","type":"address"},{"internalType":"enum PredictionNFT.Tier","name":"","type":"uint8"}],"name":"hasTierNFT","outputs":[{"internalType":"bool","name":"","type":"bool"}],"stateMutability":"view","type":"function"},{"inputs":[{"internalType":"string","name":"name_","type":"string"},{"internalType":"string","name":"symbol_","type":"string"},{"internalType":"string","name":"baseURI_","type":"string"}],"name":"initialize","outputs":[],"stateMutability":"nonpayable","type":"function"},{"inputs":[{"internalType":"address","name":"owner","type":"address"},{"internalType":"address","name":"operator","type":"address"}],"name":"isApprovedForAll","outputs":[{"internalType":"bool","name":"","type":"bool"}],"stateMutability":"view","type":"function"},{"inputs":[{"internalType":"address","name":"to","type":"address"},{"internalType":"uint256","name":"streak","type":"uint256"},{"internalType":"uint256","name":"eventId","type":"uint256"}],"name":"mintStreakNFT","outputs":[{"internalType":"uint256","name":"tokenId","type":"uint256"}],"stateMutability":"nonpayable","type":"function"},{"inputs":[],"name":"name","outputs":[{"internalType":"string","name":"","type":"string"}],"stateMutability":"view","type":"function"},{"inputs":[],"name":"nextTokenId","outputs":[{"internalType":"uint256","name":"","type":"uint256"}],"stateMutability":"view","type":"function"},{"inputs":[{"internalType":"uint256","name":"tokenId","type":"uint256"}],"name":"ownerOf","outputs":[{"internalType":"address","name":"","type":"address"}],"stateMutability":"view","type":"function"},{"inputs":[],"name":"proxiableUUID","outputs":[{"internalType":"bytes32","name":"","type":"bytes32"}],"stateMutability":"view","type":"function"},{"inputs":[{"internalType":"address","name":"user","type":"address"},{"internalType":"uint256","name":"streak","type":"uint256"}],"name":"qualifiesForMint","outputs":[{"internalType":"bool","name":"","type":"bool"}],"stateMutability":"view","type":"function"},{"inputs":[{"internalType":"bytes32","name":"role","type":"bytes32"},{"internalType":"address","name":"callerConfirmation","type":"address"}],"name":"renounceRole","outputs":[],"stateMutability":"nonpayable","type":"function"},{"inputs":[{"internalType":"bytes32","name":"role","type":"bytes32"},{"internalType":"address","name":"account","type":"address"}],"name":"revokeRole","outputs":[],"stateMutability":"nonpayable","type":"function"},{"inputs":[{"internalType":"address","name":"from","type":"address"},{"internalType":"address","name":"to","type":"address"},{"internalType":"uint256","name":"tokenId","type":"uint256"}],"name":"safeTransferFrom","outputs":[],"stateMutability":"nonpayable","type":"function"},{"inputs":[{"internalType":"address","name":"from","type":"address"},{"internalType":"address","name":"to","type":"address"},{"internalType":"uint256","name":"tokenId","type":"uint256"},{"internalType":"bytes","name":"data","type":"bytes"}],"name":"safeTransferFrom","outputs":[],"stateMutability":"nonpayable","type":"function"},{"inputs":[{"internalType":"address","name":"operator","type":"address"},{"internalType":"bool","name":"approved","type":"bool"}],"name":"setApprovalForAll","outputs":[],"stateMutability":"nonpayable","type":"function"},{"inputs":[{"internalType":"string","name":"newBaseURI","type":"string"}],"name":"setBaseURI","outputs":[],"stateMutability":"nonpayable","type":"function"},{"inputs":[{"internalType":"bytes4","name":"interfaceId","type":"bytes4"}],"name":"supportsInterface","outputs":[{"internalType":"bool","name":"","type":"bool"}],"stateMutability":"view","type":"function"},{"inputs":[],"name":"symbol","outputs":[{"internalType":"string","name":"","type":"string"}],"stateMutability":"view","type":"function"},{"inputs":[{"internalType":"uint256","name":"index","type":"uint256"}],"name":"tokenByIndex","outputs":[{"internalType":"uint256","name":"","type":"uint256"}],"stateMutability":"view","type":"function"},{"inputs":[{"internalType":"uint256","name":"","type":"uint256"}],"name":"tokenMeta","outputs":[{"internalType":"enum PredictionNFT.Tier","name":"tier","type":"uint8"},{"internalType":"uint256","name":"streak","type":"uint256"},{"internalType":"uint256","name":"mintedAt","type":"uint256"},{"internalType":"uint256","name":"eventId","type":"uint256"}],"stateMutability":"view","type":"function"},{"inputs":[{"internalType":"address","name":"owner","type":"address"},{"internalType":"uint256","name":"index","type":"uint256"}],"name":"tokenOfOwnerByIndex","outputs":[{"internalType":"uint256","name":"","type":"uint256"}],"stateMutability":"view","type":"function"},{"inputs":[{"internalType":"uint256","name":"tokenId","type":"uint256"}],"name":"tokenURI","outputs":[{"internalType":"string","name":"","type":"string"}],"stateMutability":"view","type":"function"},{"inputs":[],"name":"totalSupply","outputs":[{"internalType":"uint256","name":"","type":"uint256"}],"stateMutability":"view","type":"function"},{"inputs":[{"internalType":"address","name":"from","type":"address"},{"internalType":"address","name":"to","type":"address"},{"internalType":"uint256","name":"tokenId","type":"uint256"}],"name":"transferFrom","outputs":[],"stateMutability":"nonpayable","type":"function"},{"inputs":[{"internalType":"address","name":"newImplementation","type":"address"},{"internalType":"bytes","name":"data","type":"bytes"}],"name":"upgradeToAndCall","outputs":[],"stateMutability":"payable","type":"function"}],"evm":{"bytecode":{"linkReferences":{},"object":"60a080604052346100cd57306080527ff0c57e16840df040f15088dc2f81fe391c3923bec73e23a9662efc9c229c6a009081549060ff8260401c166100be57506001600160401b036002600160401b031982821601610079575b604051612d8f9081620000d382396080518181816111c501526112e70152f35b6001600160401b031990911681179091556040519081527fc7f505b2f371ae2175ee4913f4499e1f2633a7b5936321eed1cdaeb6115181d290602090a1388080610059565b63f92ee8a960e01b8152600490fd5b600080fdfe608060408181526004918236101561001657600080fd5b600092833560e01c91826301ffc9a714611e015750816306fdde0314611d2f578163081812fc14611ce5578163095ea7b314611c015781630ae7a31014611bad5781630c910bd514611b9157816318160ddd14611b6557816323b872dd14611b4d578163248a9ca314611b155781632a44d3a3146115735781632f2ff15d146115495781632f745c591461152057816336568abe146114da57816342842e0e146114ab5781634f1ef286146112a75781634f6ccce71461124557816351a23f7c1461122957816352d1902d146111b057816352de4ee5146110cc57816355f804b314610f645781636352211e14610f335781636c0360eb14610f1557816370a0823114610ee857816375036bc014610e9657816375794a3c14610e7957816391d1485414610e2557816395d89b4114610d28578163a217fddf14610d0d578163a22cb46514610c71578163a6487c53146106c6578163ad3cb1cc14610681578163b40e5570146105e3578163b88d4fde14610581578163bb657a001461054f578163c5aea25d14610533578163c87b56dd14610321578163d5391393146102e6578163d547741f14610295578163e64bd5931461025157508063e985e9c5146102065763ea4292a0146101e857600080fd5b3461020257816003193601126102025760209051601e8152f35b5080fd5b503461020257806003193601126102025760ff81602093610225611ee8565b610236610230611f03565b9161214e565b6001600160a01b039091168252855220549151911615158152f35b82843461029257602036600319011261029257823592831015610292575061027b61028e9261267e565b9051918291602083526020830190611ec3565b0390f35b80fd5b919050346102e257806003193601126102e2576102de91356102d960016102ba611f03565b93838752600080516020612cfa833981519152602052862001546127d9565b612a25565b5080f35b8280fd5b505034610202578160031936011261020257602090517f9f2df0fed2c77648de5860a4cc508cd0818c85b8b8a1ab4ceeef8d981c8956a68152f35b9050346102e2576020908160031936011261052f57819293813561034481612727565b5061034d61209a565b8051909390156105135781829184937a184f03e93ff9f4daa797ed6e38ed64bf6a1f0100000000000000009081811015610506575b5050866d04ee2d6d415b85acef8100000000808510156104f8575b5050662386f26fc10000808410156104e9575b506305f5e100808410156104da575b50612710808410156104cc575b505060648210156104bc575b600a809210156104b2575b602190889360019281610411600186940161040961040082611ffd565b9951998a611fdb565b808952611ffd565b878b019890601f1901368a3750860101905b61047c575b505050509261045f9261046b9261028e95885195836104508895518092888089019101611ea0565b84019151809386840190611ea0565b01038084520182611fdb565b925b51928284938452830190611ec3565b600019019083906f181899199a1a9b1b9c1cb0b131b232b360811b8282061a8353049182156104ad57919082610423565b610428565b91600101916103e3565b91906064600291049101916103d8565b9301929091049038806103cc565b600891949304920192386103bf565b601091949304920192386103b0565b94019390920491863861039d565b8a95500492503880610382565b5050845161028e9350915061052782611fa3565b81529261046d565b8380fd5b5050346102025781600319360112610202576020905160038152f35b50503461020257806003193601126102025760209061057861056f611ee8565b6024359061263b565b90519015158152f35b8390346102025760803660031901126102025761059c611ee8565b6105a4611f03565b6044359060643567ffffffffffffffff81116105df576105dc946105ca91369101612019565b926105d68383836121d8565b33612ad8565b80f35b8580fd5b9050346102e25760203660031901126102e2578282916080946060845161060981611f71565b8281528260208201528286820152015235815260026020522081519161062e83611f71565b61063c60ff8354168461251c565b6001820154916020840192835260036002820154918386019283520154926060850193845261066e8351809651611f19565b5160208501525190830152516060820152f35b505034610202578160031936011261020257805161028e916106a282611fbf565b60058252640352e302e360dc1b602083015251918291602083526020830190611ec3565b9050346102e25760603660031901126102e25767ffffffffffffffff8135818111610c6d576106f89036908401612019565b6024358281116105df5761070f9036908501612019565b91604435818111610c69576107279036908601612019565b7ff0c57e16840df040f15088dc2f81fe391c3923bec73e23a9662efc9c229c6a009485549460ff86891c16159484871696871580610c62575b60018099149081610c58575b159081610c4f575b50610c3f5767ffffffffffffffff1981168817895586610c20575b50610798612bf5565b6107a0612bf5565b8051858111610c0d57807f80bb2b638cc20bc4d0a60d66940f3ab4a00c1d7b313497ca82fb0b4ab0079300926107d68454612060565b601f8111610b9b575b506020908d601f8411600114610b1e5792610b13575b5050600019600383901b1c191690881b1790555b8051848111610b0057807f80bb2b638cc20bc4d0a60d66940f3ab4a00c1d7b313497ca82fb0b4ab00793019261083f8454612060565b601f8111610a91575b50602090601f8311600114610a14578c92610a09575b5050600019600383901b1c191690871b1790555b61087a612bf5565b6108833361283c565b5061088d336128dc565b5081519283116109f6575081906108a48554612060565b601f8111610999575b50602090601f831160011461092e578892610923575b5050600019600383901b1c191690831b1782555b8185556108e2578380f35b7fc7f505b2f371ae2175ee4913f4499e1f2633a7b5936321eed1cdaeb6115181d29260209268ff000000000000000019815416905551908152a13880808380f35b0151905038806108c3565b858952859350600080516020612d1a8339815191529190601f1984168a5b81811061098157508411610968575b505050811b0182556108d7565b015160001960f88460031b161c1916905538808061095b565b8284015185558896909401936020938401930161094c565b909150848852600080516020612d1a833981519152601f840160051c810191602085106109ec575b84939291601f88920160051c01915b8281106109de5750506108ad565b8a81558594508791016109d0565b90915081906109c1565b634e487b7160e01b885260419052602487fd5b01519050388061085e565b848d528993507ff4bad0a69248f59680a4f2b3000328cec71a413447c96781cfe5996daa8c456e9190601f1984168e5b818110610a7957508411610a60575b505050811b019055610872565b015160001960f88460031b161c19169055388080610a53565b8284015185558c969094019360209384019301610a44565b909150838c527ff4bad0a69248f59680a4f2b3000328cec71a413447c96781cfe5996daa8c456e601f840160051c81019160208510610af6575b84939291601f8c920160051c01915b828110610ae8575050610848565b8e81558594508b9101610ada565b9091508190610acb565b634e487b7160e01b8a526041835260248afd5b0151905038806107f5565b91908b9450601f1984168684527f37c58c799b6609234b945e882912ee9ad34948a1dfaa20a97485e1a7752bbf81935b818110610b8357508411610b6a575b505050811b019055610809565b015160001960f88460031b161c19169055388080610b5d565b8284015185558d969094019360209384019301610b4e565b909150838d527f37c58c799b6609234b945e882912ee9ad34948a1dfaa20a97485e1a7752bbf81601f840160051c81019160208510610c03575b8e85949392601f8e930160051c0192905b838210610bf5575050506107df565b81558594508c91018f610be6565b9091508190610bd5565b634e487b7160e01b8b526041845260248bfd5b68ffffffffffffffffff1916680100000000000000011788553861078f565b895163f92ee8a960e01b81528490fd5b90501538610774565b303b15915061076c565b5086610760565b8680fd5b8480fd5b919050346102e257806003193601126102e257610c8c611ee8565b9060243591821515809303610c6d576001600160a01b0316928315610cf85750610cb53361214e565b83855260205280842060ff1981541660ff8416179055519081527f17307eab39ab6107e8899845ad3d59bd9653f200f220920489ca2b5937696c3160203392a380f35b836024925191630b61174360e31b8352820152fd5b50503461020257816003193601126102025751908152602090f35b82843461029257806003193601126102925781519182827f80bb2b638cc20bc4d0a60d66940f3ab4a00c1d7b313497ca82fb0b4ab0079301938454610d6c81612060565b9182855260209660019288600182169182600014610dfb575050600114610da0575b858861028e8961046d848a0385611fdb565b815286935091907ff4bad0a69248f59680a4f2b3000328cec71a413447c96781cfe5996daa8c456e5b828410610de3575050508201018161046d61028e88610d8e565b8054848a018601528895508794909301928101610dc9565b60ff19168882015294151560051b8701909401945085935061046d925061028e9150899050610d8e565b9050346102e257816003193601126102e2578160209360ff92610e46611f03565b90358252600080516020612cfa83398151915286528282206001600160a01b039091168252855220549151911615158152f35b505034610202578160031936011261020257602091549051908152f35b9050346102e257816003193601126102e257610eb0611ee8565b6024359182101561052f576001600160a01b03168352600360209081529282902060ff91610edd916121c0565b541690519015158152f35b50503461020257602036600319011261020257602090610f0e610f09611ee8565b612606565b9051908152f35b50503461020257816003193601126102025761028e9061027b61209a565b8284346102925760203660031901126102925750610f5360209235612727565b90516001600160a01b039091168152f35b8334610292576020806003193601126102025767ffffffffffffffff833581811161052f57610f969036908601612019565b93610f9f612781565b84519182116110b95750600191610fb68354612060565b601f8111611066575b50602090601f8311600114610ffb5750839482939492610ff0575b5050600019600383901b1c191690821b17905580f35b015190508480610fda565b838552601f19831695600080516020612d1a833981519152929186905b88821061104f5750508385969710611036575b505050811b01905580f35b015160001960f88460031b161c1916905584808061102b565b808785968294968601518155019501930190611018565b838552600080516020612d1a833981519152601f840160051c810191602085106110af575b601f0160051c019084905b8281106110a4575050610fbf565b868155018490611096565b909150819061108b565b634e487b7160e01b845260419052602483fd5b83915034610202576020806003193601126102e25792916110eb611ee8565b916110f583612606565b906110ff826125ee565b9161110c86519384611fdb565b808352611118816125ee565b8388019590601f1901368737845b82811061116c575050505083519485948186019282875251809352850193925b82811061115557505050500390f35b835185528695509381019392810192600101611146565b61117c81839a979698999a612528565b875182101561119d57600582901b8801870152949796959394600101611126565b634e487b7160e01b865260328552602486fd5b828434610292578060031936011261029257507f00000000000000000000000000000000000000000000000000000000000000006001600160a01b0316300361121c57602090517f360894a13ba1a3210667c828492db98dca3e2076cc3735a920a3ca505d382bbc8152f35b5163703e46dd60e11b8152fd5b50503461020257816003193601126102025760209051600f8152f35b9050346102e25760203660031901126102e257803592600080516020612cda8339815191525484101561128c5760208361127e86612595565b91905490519160031b1c8152f35b6044939192519263295f44f760e21b84528301526024820152fd5b918091506003193601126102e2576112bd611ee8565b9060243567ffffffffffffffff8111610c6d576112dd9036908501612019565b6001600160a01b037f0000000000000000000000000000000000000000000000000000000000000000811630811490811561147d575b5061146d57611320612781565b83169282516352d1902d60e01b81526020818781885afa879181611435575b5061135b578351634c9c8ce360e01b8152808701869052602490fd5b84879487927f360894a13ba1a3210667c828492db98dca3e2076cc3735a920a3ca505d382bbc9081810361141f5750843b156114095780546001600160a01b03191683179055518592917fbc7cd75a20ee27fd9adebab32041f755214dbc6bffa90cc0225b39da2e5c2d3b8480a28451156113ee575050808360206102de95519101845af46113e8612aa8565b91612c36565b9250925050346113fd57505080f35b63b398979f60e01b8152fd5b5051634c9c8ce360e01b81529182015260249150fd5b84602491845191632a87526960e21b8352820152fd5b9091506020813d602011611465575b8161145160209383611fdb565b810103126114615751903861133f565b8780fd5b3d9150611444565b825163703e46dd60e11b81528590fd5b9050817f360894a13ba1a3210667c828492db98dca3e2076cc3735a920a3ca505d382bbc5416141538611313565b505034610202576105dc906114bf36611f3c565b919251926114cc84611fa3565b8584526105d68383836121d8565b8383346102025780600319360112610202576114f4611f03565b90336001600160a01b0383160361151157506102de919235612a25565b5163334bd91960e11b81528390fd5b505034610202578060031936011261020257602090610f0e611540611ee8565b60243590612528565b919050346102e257806003193601126102e2576102de913561156e60016102ba611f03565b61299e565b919050346102e25760603660031901126102e25761158f611ee8565b916024908135604435907f9f2df0fed2c77648de5860a4cc508cd0818c85b8b8a1ab4ceeef8d981c8956a696878152602097600080516020612cfa8339815191528952868220338352895260ff878320541615611af857506115f08261280c565b9360018060a01b03958689169687845260038b5260ff611612888b87206121c0565b5416611ab65783549960001991828c14611aa45760018c0186558a519261163884611fa3565b8684528a15611a8e578a8d8f898f8382527f80bb2b638cc20bc4d0a60d66940f3ab4a00c1d7b313497ca82fb0b4ab007930296878452818320541694851580159889611a51575b6116888b612187565b80546001019055868552855282842080546001600160a01b031916831790558582887fddf252ad1be2c89b69c2b068fc378daa952ba7f163c4a11628f55a4df523b3ef8780a4156119bc57507f645e039705490088daad89bae25049a34f4a9072d398537b1ab2425f24cbed03600080516020612cda83398151915293845495869452528b2055600160401b8210156119aa578f6117318f949361174a93600182019055612595565b90919082549060031b91821b91600019901b1916179055565b03611946575b50611931573b611834575b5089899189519361176b85611f71565b611775898661251c565b8285019187835260028c87019442865260608801968b88528952528b872095519180831015611823575050888b8d9b9a978f6003907f549290153591f5315b4900245287e2108383dab4d458a53793fa26b7bd4280e59c998260609d9a60ff9a60019a6118019a8d199d8e8754169116178555518b850155516002840155519101558d835252206121c0565b9182541617905561181488518094611f19565b8983015286820152a351908152f35b634e487b7160e01b88526021905286fd5b918a969492829b8b8a8780869f9b99978f9e9f61187d905197889687958694630a85bd0160e11b9c8d875233908701528501526044840152608060648401526084830190611ec3565b03925af18391816118f1575b506118bc575050505050505061189d612aa8565b805191826118b9575050505191633250574960e11b8352820152fd5b01fd5b63ffffffff60e09c9395979b9496989c9a999a1b16036118dc578961175b565b8751633250574960e11b815291820187905290fd5b9091508881813d831161192a575b6119098183611fdb565b8101031261052f57516001600160e01b03198116810361052f579038611889565b503d6118ff565b5050918751916339e3563760e11b8352820152fd5b61194f83612606565b90810190811161199857600080516020612c9a8339815191528e8e808f8f8c52600080516020612cba8339815191528452808c20868d5284528b20558952528b87205538611750565b634e487b7160e01b8752601186528487fd5b634e487b7160e01b8a5260418952878afd5b94939091928585036119d2575b5050505061174a565b6119db85612606565b828552600080516020612c9a8339815191528083528486205493878752600080516020612cba833981519152845285872094838103611a30575b508652825284848120558452528120558f8f8f908b926119c9565b8388528585528688205481895280888a205588528285528688205538611a15565b6000878152600080516020612d3a8339815191526020526040902080546001600160a01b0319169055611a8388612187565b89815401905561167f565b8b51633250574960e11b81528087018890528590fd5b634e487b7160e01b8652601185528386fd5b885162461bcd60e51b81528084018c90526018818401527f416c7265616479206d696e7465642074686973207469657200000000000000006044820152606490fd5b865163e2517d3f60e01b8152338187015280870191909152604490fd5b9050346102e25760203660031901126102e25781602093600192358152600080516020612cfa83398151915285522001549051908152f35b8334610292576105dc611b5f36611f3c565b916121d8565b505034610202578160031936011261020257602090600080516020612cda833981519152549051908152f35b5050346102025781600319360112610202576020905160078152f35b9050346102e25760203660031901126102e25760809282913581526002602052209060ff825416916001810154916003600283015492015492611bf282518096611f19565b60208501528301526060820152f35b919050346102e257806003193601126102e257611c1c611ee8565b9160243590611c2a82612727565b9033151580611cd2575b80611cb5575b611c9e57506001600160a01b039384169382918591167f8c5be1e5ebec7d5bd14f71427d1e84f3dd0314c0f7b2291e5b200ac8c7c3b9258780a48352600080516020612d3a833981519152602052822080546001600160a01b031916909117905580f35b60249084519063a9fbf51f60e01b82523390820152fd5b50611cbf8261214e565b33875260205260ff848720541615611c3a565b506001600160a01b038216331415611c34565b9050346102e25760203660031901126102e2579160209235611d0681612727565b508152600080516020612d3a83398151915283528190205490516001600160a01b039091168152f35b82843461029257806003193601126102925781519182827f80bb2b638cc20bc4d0a60d66940f3ab4a00c1d7b313497ca82fb0b4ab0079300938454611d7381612060565b9182855260209660019288600182169182600014610dfb575050600114611da657858861028e8961046d848a0385611fdb565b815286935091907f37c58c799b6609234b945e882912ee9ad34948a1dfaa20a97485e1a7752bbf815b828410611de9575050508201018161046d61028e88610d8e565b8054848a018601528895508794909301928101611dcf565b8491346102e25760203660031901126102e2573563ffffffff60e01b81168091036102e25760209250637965db0b60e01b8114908115611e43575b5015158152f35b63780e9d6360e01b811491508115611e5d575b5083611e3c565b6380ac58cd60e01b811491508115611e8f575b8115611e7e575b5083611e56565b6301ffc9a760e01b14905083611e77565b635b5e139f60e01b81149150611e70565b60005b838110611eb35750506000910152565b8181015183820152602001611ea3565b90602091611edc81518092818552858086019101611ea0565b601f01601f1916010190565b600435906001600160a01b0382168203611efe57565b600080fd5b602435906001600160a01b0382168203611efe57565b906004821015611f265752565b634e487b7160e01b600052602160045260246000fd5b6060906003190112611efe576001600160a01b03906004358281168103611efe57916024359081168103611efe579060443590565b6080810190811067ffffffffffffffff821117611f8d57604052565b634e487b7160e01b600052604160045260246000fd5b6020810190811067ffffffffffffffff821117611f8d57604052565b6040810190811067ffffffffffffffff821117611f8d57604052565b90601f8019910116810190811067ffffffffffffffff821117611f8d57604052565b67ffffffffffffffff8111611f8d57601f01601f191660200190565b81601f82011215611efe5780359061203082611ffd565b9261203e6040519485611fdb565b82845260208383010111611efe57816000926020809301838601378301015290565b90600182811c92168015612090575b602083101461207a57565b634e487b7160e01b600052602260045260246000fd5b91607f169161206f565b604051906000826001916001546120b081612060565b808452936020916001811690811561212a57506001146120db575b50506120d992500383611fdb565b565b9150926001600052600080516020612d1a833981519152936000925b82841061211257506120d994505050810160200138806120cb565b855488850183015294850194879450928101926120f7565b915050602092506120d994915060ff191682840152151560051b82010138806120cb565b6001600160a01b031660009081527f80bb2b638cc20bc4d0a60d66940f3ab4a00c1d7b313497ca82fb0b4ab00793056020526040902090565b6001600160a01b031660009081527f80bb2b638cc20bc4d0a60d66940f3ab4a00c1d7b313497ca82fb0b4ab00793036020526040902090565b906004811015611f2657600052602052604060002090565b90916001600160a01b03808416928315612503576000938385527f80bb2b638cc20bc4d0a60d66940f3ab4a00c1d7b313497ca82fb0b4ab00793029460208681526040978589842054169733151580612469575b50881590811561242a575b61224083612187565b80546001019055888552835289842080546001600160a01b0319168617905587858a7fddf252ad1be2c89b69c2b068fc378daa952ba7f163c4a11628f55a4df523b3ef8780a4156123a457600080516020612cda8339815191528054908885527f645e039705490088daad89bae25049a34f4a9072d398537b1ab2425f24cbed038452818b862055600160401b82101561239057611731828a9260016122e895019055612595565b838803612324575b5050505016928383036123035750505050565b6064945051926364283d7b60e01b8452600484015260248301526044820152fd5b61232d90612606565b60001981019390841161237c578291600080516020612c9a833981519152918a9452600080516020612cba833981519152815283832085845281528784842055878352522055388080806122f0565b634e487b7160e01b83526011600452602483fd5b634e487b7160e01b85526041600452602485fd5b8784146122e8576123b488612606565b878452600080516020612c9a833981519152908184528a852054918a8652600080516020612cba83398151915285528b862092828103612408575b508986528452848b8120558452825282898120556122e8565b8287528386528c808820548091838a5289205587528186528c872055386123ef565b6000898152600080516020612d3a8339815191526020526040902080546001600160a01b031916905561245c8a612187565b8054600019019055612237565b806124b6575b1561247a573861222c565b89888a612497576024915190637e27328960e01b82526004820152fd5b905163177e802f60e01b81523360048201526024810191909152604490fd5b5033891480156124e8575b8061246f5750878452600080516020612d3a833981519152835233878b862054161461246f565b506124f28961214e565b338552835260ff8a852054166124c1565b604051633250574960e11b815260006004820152602490fd5b6004821015611f265752565b61253181612606565b82101561256a5760018060a01b0316600052600080516020612cba83398151915260205260406000209060005260205260406000205490565b60405163295f44f760e21b81526001600160a01b039190911660048201526024810191909152604490fd5b600080516020612cda83398151915280548210156125d8576000527fa42f15e5d656f8155fd7419d740a6073999f19cd6e061449ce4a257150545bf20190600090565b634e487b7160e01b600052603260045260246000fd5b67ffffffffffffffff8111611f8d5760051b60200190565b6001600160a01b038116156126225761261e90612187565b5490565b6040516322718ad960e21b815260006004820152602490fd5b90600381106126775760ff916126536126719261280c565b6001600160a01b0390911660009081526003602052604090206121c0565b54161590565b5050600090565b6004811015611f26576003811461270357600281146126e2576001146126c0576040516126aa81611fbf565b600681526542726f6e7a6560d01b602082015290565b6040516126cc81611fbf565b600681526529b4b63b32b960d11b602082015290565b506040516126ef81611fbf565b600481526311dbdb1960e21b602082015290565b5060405161271081611fbf565b6007815266111a585b5bdb9960ca1b602082015290565b60008181527f80bb2b638cc20bc4d0a60d66940f3ab4a00c1d7b313497ca82fb0b4ab007930260205260409020546001600160a01b0316908115612769575090565b60249060405190637e27328960e01b82526004820152fd5b3360009081527fb7db2dd08fcb62d0c9e08c51941cae53c267786a0b75803fb7960902fc8ef97d602052604081205460ff16156127bb5750565b6044906040519063e2517d3f60e01b82523360048301526024820152fd5b80600052600080516020612cfa83398151915260205260406000203360005260205260ff60406000205416156127bb5750565b601e81101561283657600f811015612830576007111561282b57600090565b600190565b50600290565b50600390565b6001600160a01b031660008181527fb7db2dd08fcb62d0c9e08c51941cae53c267786a0b75803fb7960902fc8ef97d6020526040812054909190600080516020612cfa8339815191529060ff166128d7578280526020526040822081835260205260408220600160ff1982541617905533917f2f8788117e7eff1d82e926ec794901d17c78024a50270940304540a733656f0d8180a4600190565b505090565b6001600160a01b031660008181527f549fe2656c81d2947b3b913f0a53b9ea86c71e049f3a1b8aa23c09a8a05cb8d460205260408120549091907f9f2df0fed2c77648de5860a4cc508cd0818c85b8b8a1ab4ceeef8d981c8956a690600080516020612cfa8339815191529060ff16612998578184526020526040832082845260205260408320600160ff198254161790557f2f8788117e7eff1d82e926ec794901d17c78024a50270940304540a733656f0d339380a4600190565b50505090565b90600091808352600080516020612cfa83398151915280602052604084209260018060a01b03169283855260205260ff60408520541615600014612998578184526020526040832082845260205260408320600160ff198254161790557f2f8788117e7eff1d82e926ec794901d17c78024a50270940304540a733656f0d339380a4600190565b90600091808352600080516020612cfa83398151915280602052604084209260018060a01b03169283855260205260ff60408520541660001461299857818452602052604083208284526020526040832060ff1981541690557ff6391f5c32d9c69d2a47ea670b442974b53935d1edc7fd64eb21e047a839171b339380a4600190565b3d15612ad3573d90612ab982611ffd565b91612ac76040519384611fdb565b82523d6000602084013e565b606090565b9293823b612ae8575b5050505050565b612b2c9060018060a01b038094169560405194859481630a85bd0160e11b988988521660048701521660248501526044840152608060648401526084830190611ec3565b03906020816000938185885af190829082612bac575b5050612b7a5782612b51612aa8565b8051919082612b7357604051633250574960e11b815260048101839052602490fd5b9050602001fd5b6001600160e01b03191603612b9457503880808080612ae1565b60249060405190633250574960e11b82526004820152fd5b909192506020813d602011612bed575b81612bc960209383611fdb565b810103126102025751906001600160e01b0319821682036102925750903880612b42565b3d9150612bbc565b60ff7ff0c57e16840df040f15088dc2f81fe391c3923bec73e23a9662efc9c229c6a005460401c1615612c2457565b604051631afcd79f60e31b8152600490fd5b90612c5d5750805115612c4b57805190602001fd5b60405163d6bda27560e01b8152600490fd5b81511580612c90575b612c6e575090565b604051639996b31560e01b81526001600160a01b039091166004820152602490fd5b50803b15612c6656fe645e039705490088daad89bae25049a34f4a9072d398537b1ab2425f24cbed01645e039705490088daad89bae25049a34f4a9072d398537b1ab2425f24cbed00645e039705490088daad89bae25049a34f4a9072d398537b1ab2425f24cbed0202dd7bc7dec4dceedda775e58dd541e08a116c6c53815c0bd028192f7b626800b10e2d527612073b26eecdfd717e6a320cf44b4afac2b0732d9fcbe2b7fa0cf680bb2b638cc20bc4d0a60d66940f3ab4a00c1d7b313497ca82fb0b4ab0079304a26469706673582212203548bd02814f8a1f4b235ec53f199f344bfc9392d45473128a87c4d5be64bf2264736f6c63430008180033","opcodes":"PUSH1 0xA0 DUP1 PUSH1 0x40 MSTORE CALLVALUE PUSH2 0xCD JUMPI ADDRESS PUSH1 0x80 MSTORE PUSH32 0xF0C57E16840DF040F15088DC2F81FE391C3923BEC73E23A9662EFC9C229C6A00 SWAP1 DUP2 SLOAD SWAP1 PUSH1 0xFF DUP3 PUSH1 0x40 SHR AND PUSH2 0xBE JUMPI POP PUSH1 0x1 PUSH1 0x1 PUSH1 0x40 SHL SUB PUSH1 0x2 PUSH1 0x1 PUSH1 0x40 SHL SUB NOT DUP3 DUP3 AND ADD PUSH2 0x79 JUMPI JUMPDEST PUSH1 0x40 MLOAD PUSH2 0x2D8F SWAP1 DUP2 PUSH3 0xD3 DUP3 CODECOPY PUSH1 0x80 MLOAD DUP2 DUP2 DUP2 PUSH2 0x11C5 ADD MSTORE PUSH2 0x12E7 ADD MSTORE RETURN JUMPDEST PUSH1 0x1 PUSH1 0x1 PUSH1 0x40 SHL SUB NOT SWAP1 SWAP2 AND DUP2 OR SWAP1 SWAP2 SSTORE PUSH1 0x40 MLOAD SWAP1 DUP2 MSTORE PUSH32 0xC7F505B2F371AE2175EE4913F4499E1F2633A7B5936321EED1CDAEB6115181D2 SWAP1 PUSH1 0x20 SWAP1 LOG1 CODESIZE DUP1 DUP1 PUSH2 0x59 JUMP JUMPDEST PUSH4 0xF92EE8A9 PUSH1 0xE0 SHL DUP2 MSTORE PUSH1 0x4 SWAP1 REVERT JUMPDEST PUSH1 0x0 DUP1 REVERT INVALID PUSH1 0x80 PUSH1 0x40 DUP2 DUP2 MSTORE PUSH1 0x4 SWAP2 DUP3 CALLDATASIZE LT ISZERO PUSH2 0x16 JUMPI PUSH1 0x0 DUP1 REVERT JUMPDEST PUSH1 0x0 SWAP3 DUP4 CALLDATALOAD PUSH1 0xE0 SHR SWAP2 DUP3 PUSH4 0x1FFC9A7 EQ PUSH2 0x1E01 JUMPI POP DUP2 PUSH4 0x6FDDE03 EQ PUSH2 0x1D2F JUMPI DUP2 PUSH4 0x81812FC EQ PUSH2 0x1CE5 JUMPI DUP2 PUSH4 0x95EA7B3 EQ PUSH2 0x1C01 JUMPI DUP2 PUSH4 0xAE7A310 EQ PUSH2 0x1BAD JUMPI DUP2 PUSH4 0xC910BD5 EQ PUSH2 0x1B91 JUMPI DUP2 PUSH4 0x18160DDD EQ PUSH2 0x1B65 JUMPI DUP2 PUSH4 0x23B872DD EQ PUSH2 0x1B4D JUMPI DUP2 PUSH4 0x248A9CA3 EQ PUSH2 0x1B15 JUMPI DUP2 PUSH4 0x2A44D3A3 EQ PUSH2 0x1573 JUMPI DUP2 PUSH4 0x2F2FF15D EQ PUSH2 0x1549 JUMPI DUP2 PUSH4 0x2F745C59 EQ PUSH2 0x1520 JUMPI DUP2 PUSH4 0x36568ABE EQ PUSH2 0x14DA JUMPI DUP2 PUSH4 0x42842E0E EQ PUSH2 0x14AB JUMPI DUP2 PUSH4 0x4F1EF286 EQ PUSH2 0x12A7 JUMPI DUP2 PUSH4 0x4F6CCCE7 EQ PUSH2 0x1245 JUMPI DUP2 PUSH4 0x51A23F7C EQ PUSH2 0x1229 JUMPI DUP2 PUSH4 0x52D1902D EQ PUSH2 0x11B0 JUMPI DUP2 PUSH4 0x52DE4EE5 EQ PUSH2 0x10CC JUMPI DUP2 PUSH4 0x55F804B3 EQ PUSH2 0xF64 JUMPI DUP2 PUSH4 0x6352211E EQ PUSH2 0xF33 JUMPI DUP2 PUSH4 0x6C0360EB EQ PUSH2 0xF15 JUMPI DUP2 PUSH4 0x70A08231 EQ PUSH2 0xEE8 JUMPI DUP2 PUSH4 0x75036BC0 EQ PUSH2 0xE96 JUMPI DUP2 PUSH4 0x75794A3C EQ PUSH2 0xE79 JUMPI DUP2 PUSH4 0x91D14854 EQ PUSH2 0xE25 JUMPI DUP2 PUSH4 0x95D89B41 EQ PUSH2 0xD28 JUMPI DUP2 PUSH4 0xA217FDDF EQ PUSH2 0xD0D JUMPI DUP2 PUSH4 0xA22CB465 EQ PUSH2 0xC71 JUMPI DUP2 PUSH4 0xA6487C53 EQ PUSH2 0x6C6 JUMPI DUP2 PUSH4 0xAD3CB1CC EQ PUSH2 0x681 JUMPI DUP2 PUSH4 0xB40E5570 EQ PUSH2 0x5E3 JUMPI DUP2 PUSH4 0xB88D4FDE EQ PUSH2 0x581 JUMPI DUP2 PUSH4 0xBB657A00 EQ PUSH2 0x54F JUMPI DUP2 PUSH4 0xC5AEA25D EQ PUSH2 0x533 JUMPI DUP2 PUSH4 0xC87B56DD EQ PUSH2 0x321 JUMPI DUP2 PUSH4 0xD5391393 EQ PUSH2 0x2E6 JUMPI DUP2 PUSH4 0xD547741F EQ PUSH2 0x295 JUMPI DUP2 PUSH4 0xE64BD593 EQ PUSH2 0x251 JUMPI POP DUP1 PUSH4 0xE985E9C5 EQ PUSH2 0x206 JUMPI PUSH4 0xEA4292A0 EQ PUSH2 0x1E8 JUMPI PUSH1 0x0 DUP1 REVERT JUMPDEST CALLVALUE PUSH2 0x202 JUMPI DUP2 PUSH1 0x3 NOT CALLDATASIZE ADD SLT PUSH2 0x202 JUMPI PUSH1 0x20 SWAP1 MLOAD PUSH1 0x1E DUP2 MSTORE RETURN JUMPDEST POP DUP1 REVERT JUMPDEST POP CALLVALUE PUSH2 0x202 JUMPI DUP1 PUSH1 0x3 NOT CALLDATASIZE ADD SLT PUSH2 0x202 JUMPI PUSH1 0xFF DUP2 PUSH1 0x20 SWAP4 PUSH2 0x225 PUSH2 0x1EE8 JUMP JUMPDEST PUSH2 0x236 PUSH2 0x230 PUSH2 0x1F03 JUMP JUMPDEST SWAP2 PUSH2 0x214E JUMP JUMPDEST PUSH1 0x1 PUSH1 0x1 PUSH1 0xA0 SHL SUB SWAP1 SWAP2 AND DUP3 MSTORE DUP6 MSTORE KECCAK256 SLOAD SWAP2 MLOAD SWAP2 AND ISZERO ISZERO DUP2 MSTORE RETURN JUMPDEST DUP3 DUP5 CALLVALUE PUSH2 0x292 JUMPI PUSH1 0x20 CALLDATASIZE PUSH1 0x3 NOT ADD SLT PUSH2 0x292 JUMPI DUP3 CALLDATALOAD SWAP3 DUP4 LT ISZERO PUSH2 0x292 JUMPI POP PUSH2 0x27B PUSH2 0x28E SWAP3 PUSH2 0x267E JUMP JUMPDEST SWAP1 MLOAD SWAP2 DUP3 SWAP2 PUSH1 0x20 DUP4 MSTORE PUSH1 0x20 DUP4 ADD SWAP1 PUSH2 0x1EC3 JUMP JUMPDEST SUB SWAP1 RETURN JUMPDEST DUP1 REVERT JUMPDEST SWAP2 SWAP1 POP CALLVALUE PUSH2 0x2E2 JUMPI DUP1 PUSH1 0x3 NOT CALLDATASIZE ADD SLT PUSH2 0x2E2 JUMPI PUSH2 0x2DE SWAP2 CALLDATALOAD PUSH2 0x2D9 PUSH1 0x1 PUSH2 0x2BA PUSH2 0x1F03 JUMP JUMPDEST SWAP4 DUP4 DUP8 MSTORE PUSH1 0x0 DUP1 MLOAD PUSH1 0x20 PUSH2 0x2CFA DUP4 CODECOPY DUP2 MLOAD SWAP2 MSTORE PUSH1 0x20 MSTORE DUP7 KECCAK256 ADD SLOAD PUSH2 0x27D9 JUMP JUMPDEST PUSH2 0x2A25 JUMP JUMPDEST POP DUP1 RETURN JUMPDEST DUP3 DUP1 REVERT JUMPDEST POP POP CALLVALUE PUSH2 0x202 JUMPI DUP2 PUSH1 0x3 NOT CALLDATASIZE ADD SLT PUSH2 0x202 JUMPI PUSH1 0x20 SWAP1 MLOAD PUSH32 0x9F2DF0FED2C77648DE5860A4CC508CD0818C85B8B8A1AB4CEEEF8D981C8956A6 DUP2 MSTORE RETURN JUMPDEST SWAP1 POP CALLVALUE PUSH2 0x2E2 JUMPI PUSH1 0x20 SWAP1 DUP2 PUSH1 0x3 NOT CALLDATASIZE ADD SLT PUSH2 0x52F JUMPI DUP2 SWAP3 SWAP4 DUP2 CALLDATALOAD PUSH2 0x344 DUP2 PUSH2 0x2727 JUMP JUMPDEST POP PUSH2 0x34D PUSH2 0x209A JUMP JUMPDEST DUP1 MLOAD SWAP1 SWAP4 SWAP1 ISZERO PUSH2 0x513 JUMPI DUP2 DUP3 SWAP2 DUP5 SWAP4 PUSH27 0x184F03E93FF9F4DAA797ED6E38ED64BF6A1F010000000000000000 SWAP1 DUP2 DUP2 LT ISZERO PUSH2 0x506 JUMPI JUMPDEST POP POP DUP7 PUSH14 0x4EE2D6D415B85ACEF8100000000 DUP1 DUP6 LT ISZERO PUSH2 0x4F8 JUMPI JUMPDEST POP POP PUSH7 0x2386F26FC10000 DUP1 DUP5 LT ISZERO PUSH2 0x4E9 JUMPI JUMPDEST POP PUSH4 0x5F5E100 DUP1 DUP5 LT ISZERO PUSH2 0x4DA JUMPI JUMPDEST POP PUSH2 0x2710 DUP1 DUP5 LT ISZERO PUSH2 0x4CC JUMPI JUMPDEST POP POP PUSH1 0x64 DUP3 LT ISZERO PUSH2 0x4BC JUMPI JUMPDEST PUSH1 0xA DUP1 SWAP3 LT ISZERO PUSH2 0x4B2 JUMPI JUMPDEST PUSH1 0x21 SWAP1 DUP9 SWAP4 PUSH1 0x1 SWAP3 DUP2 PUSH2 0x411 PUSH1 0x1 DUP7 SWAP5 ADD PUSH2 0x409 PUSH2 0x400 DUP3 PUSH2 0x1FFD JUMP JUMPDEST SWAP10 MLOAD SWAP10 DUP11 PUSH2 0x1FDB JUMP JUMPDEST DUP1 DUP10 MSTORE PUSH2 0x1FFD JUMP JUMPDEST DUP8 DUP12 ADD SWAP9 SWAP1 PUSH1 0x1F NOT ADD CALLDATASIZE DUP11 CALLDATACOPY POP DUP7 ADD ADD SWAP1 JUMPDEST PUSH2 0x47C JUMPI JUMPDEST POP POP POP POP SWAP3 PUSH2 0x45F SWAP3 PUSH2 0x46B SWAP3 PUSH2 0x28E SWAP6 DUP9 MLOAD SWAP6 DUP4 PUSH2 0x450 DUP9 SWAP6 MLOAD DUP1 SWAP3 DUP9 DUP1 DUP10 ADD SWAP2 ADD PUSH2 0x1EA0 JUMP JUMPDEST DUP5 ADD SWAP2 MLOAD DUP1 SWAP4 DUP7 DUP5 ADD SWAP1 PUSH2 0x1EA0 JUMP JUMPDEST ADD SUB DUP1 DUP5 MSTORE ADD DUP3 PUSH2 0x1FDB JUMP JUMPDEST SWAP3 JUMPDEST MLOAD SWAP3 DUP3 DUP5 SWAP4 DUP5 MSTORE DUP4 ADD SWAP1 PUSH2 0x1EC3 JUMP JUMPDEST PUSH1 0x0 NOT ADD SWAP1 DUP4 SWAP1 PUSH16 0x181899199A1A9B1B9C1CB0B131B232B3 PUSH1 0x81 SHL DUP3 DUP3 MOD BYTE DUP4 MSTORE8 DIV SWAP2 DUP3 ISZERO PUSH2 0x4AD JUMPI SWAP2 SWAP1 DUP3 PUSH2 0x423 JUMP JUMPDEST PUSH2 0x428 JUMP JUMPDEST SWAP2 PUSH1 0x1 ADD SWAP2 PUSH2 0x3E3 JUMP JUMPDEST SWAP2 SWAP1 PUSH1 0x64 PUSH1 0x2 SWAP2 DIV SWAP2 ADD SWAP2 PUSH2 0x3D8 JUMP JUMPDEST SWAP4 ADD SWAP3 SWAP1 SWAP2 DIV SWAP1 CODESIZE DUP1 PUSH2 0x3CC JUMP JUMPDEST PUSH1 0x8 SWAP2 SWAP5 SWAP4 DIV SWAP3 ADD SWAP3 CODESIZE PUSH2 0x3BF JUMP JUMPDEST PUSH1 0x10 SWAP2 SWAP5 SWAP4 DIV SWAP3 ADD SWAP3 CODESIZE PUSH2 0x3B0 JUMP JUMPDEST SWAP5 ADD SWAP4 SWAP1 SWAP3 DIV SWAP2 DUP7 CODESIZE PUSH2 0x39D JUMP JUMPDEST DUP11 SWAP6 POP DIV SWAP3 POP CODESIZE DUP1 PUSH2 0x382 JUMP JUMPDEST POP POP DUP5 MLOAD PUSH2 0x28E SWAP4 POP SWAP2 POP PUSH2 0x527 DUP3 PUSH2 0x1FA3 JUMP JUMPDEST DUP2 MSTORE SWAP3 PUSH2 0x46D JUMP JUMPDEST DUP4 DUP1 REVERT JUMPDEST POP POP CALLVALUE PUSH2 0x202 JUMPI DUP2 PUSH1 0x3 NOT CALLDATASIZE ADD SLT PUSH2 0x202 JUMPI PUSH1 0x20 SWAP1 MLOAD PUSH1 0x3 DUP2 MSTORE RETURN JUMPDEST POP POP CALLVALUE PUSH2 0x202 JUMPI DUP1 PUSH1 0x3 NOT CALLDATASIZE ADD SLT PUSH2 0x202 JUMPI PUSH1 0x20 SWAP1 PUSH2 0x578 PUSH2 0x56F PUSH2 0x1EE8 JUMP JUMPDEST PUSH1 0x24 CALLDATALOAD SWAP1 PUSH2 0x263B JUMP JUMPDEST SWAP1 MLOAD SWAP1 ISZERO ISZERO DUP2 MSTORE RETURN JUMPDEST DUP4 SWAP1 CALLVALUE PUSH2 0x202 JUMPI PUSH1 0x80 CALLDATASIZE PUSH1 0x3 NOT ADD SLT PUSH2 0x202 JUMPI PUSH2 0x59C PUSH2 0x1EE8 JUMP JUMPDEST PUSH2 0x5A4 PUSH2 0x1F03 JUMP JUMPDEST PUSH1 0x44 CALLDATALOAD SWAP1 PUSH1 0x64 CALLDATALOAD PUSH8 0xFFFFFFFFFFFFFFFF DUP2 GT PUSH2 0x5DF JUMPI PUSH2 0x5DC SWAP5 PUSH2 0x5CA SWAP2 CALLDATASIZE SWAP2 ADD PUSH2 0x2019 JUMP JUMPDEST SWAP3 PUSH2 0x5D6 DUP4 DUP4 DUP4 PUSH2 0x21D8 JUMP JUMPDEST CALLER PUSH2 0x2AD8 JUMP JUMPDEST DUP1 RETURN JUMPDEST DUP6 DUP1 REVERT JUMPDEST SWAP1 POP CALLVALUE PUSH2 0x2E2 JUMPI PUSH1 0x20 CALLDATASIZE PUSH1 0x3 NOT ADD SLT PUSH2 0x2E2 JUMPI DUP3 DUP3 SWAP2 PUSH1 0x80 SWAP5 PUSH1 0x60 DUP5 MLOAD PUSH2 0x609 DUP2 PUSH2 0x1F71 JUMP JUMPDEST DUP3 DUP2 MSTORE DUP3 PUSH1 0x20 DUP3 ADD MSTORE DUP3 DUP7 DUP3 ADD MSTORE ADD MSTORE CALLDATALOAD DUP2 MSTORE PUSH1 0x2 PUSH1 0x20 MSTORE KECCAK256 DUP2 MLOAD SWAP2 PUSH2 0x62E DUP4 PUSH2 0x1F71 JUMP JUMPDEST PUSH2 0x63C PUSH1 0xFF DUP4 SLOAD AND DUP5 PUSH2 0x251C JUMP JUMPDEST PUSH1 0x1 DUP3 ADD SLOAD SWAP2 PUSH1 0x20 DUP5 ADD SWAP3 DUP4 MSTORE PUSH1 0x3 PUSH1 0x2 DUP3 ADD SLOAD SWAP2 DUP4 DUP7 ADD SWAP3 DUP4 MSTORE ADD SLOAD SWAP3 PUSH1 0x60 DUP6 ADD SWAP4 DUP5 MSTORE PUSH2 0x66E DUP4 MLOAD DUP1 SWAP7 MLOAD PUSH2 0x1F19 JUMP JUMPDEST MLOAD PUSH1 0x20 DUP6 ADD MSTORE MLOAD SWAP1 DUP4 ADD MSTORE MLOAD PUSH1 0x60 DUP3 ADD MSTORE RETURN JUMPDEST POP POP CALLVALUE PUSH2 0x202 JUMPI DUP2 PUSH1 0x3 NOT CALLDATASIZE ADD SLT PUSH2 0x202 JUMPI DUP1 MLOAD PUSH2 0x28E SWAP2 PUSH2 0x6A2 DUP3 PUSH2 0x1FBF JUMP JUMPDEST PUSH1 0x5 DUP3 MSTORE PUSH5 0x352E302E3 PUSH1 0xDC SHL PUSH1 0x20 DUP4 ADD MSTORE MLOAD SWAP2 DUP3 SWAP2 PUSH1 0x20 DUP4 MSTORE PUSH1 0x20 DUP4 ADD SWAP1 PUSH2 0x1EC3 JUMP JUMPDEST SWAP1 POP CALLVALUE PUSH2 0x2E2 JUMPI PUSH1 0x60 CALLDATASIZE PUSH1 0x3 NOT ADD SLT PUSH2 0x2E2 JUMPI PUSH8 0xFFFFFFFFFFFFFFFF DUP2 CALLDATALOAD DUP2 DUP2 GT PUSH2 0xC6D JUMPI PUSH2 0x6F8 SWAP1 CALLDATASIZE SWAP1 DUP5 ADD PUSH2 0x2019 JUMP JUMPDEST PUSH1 0x24 CALLDATALOAD DUP3 DUP2 GT PUSH2 0x5DF JUMPI PUSH2 0x70F SWAP1 CALLDATASIZE SWAP1 DUP6 ADD PUSH2 0x2019 JUMP JUMPDEST SWAP2 PUSH1 0x44 CALLDATALOAD DUP2 DUP2 GT PUSH2 0xC69 JUMPI PUSH2 0x727 SWAP1 CALLDATASIZE SWAP1 DUP7 ADD PUSH2 0x2019 JUMP JUMPDEST PUSH32 0xF0C57E16840DF040F15088DC2F81FE391C3923BEC73E23A9662EFC9C229C6A00 SWAP5 DUP6 SLOAD SWAP5 PUSH1 0xFF DUP7 DUP10 SHR AND ISZERO SWAP5 DUP5 DUP8 AND SWAP7 DUP8 ISZERO DUP1 PUSH2 0xC62 JUMPI JUMPDEST PUSH1 0x1 DUP1 SWAP10 EQ SWAP1 DUP2 PUSH2 0xC58 JUMPI JUMPDEST ISZERO SWAP1 DUP2 PUSH2 0xC4F JUMPI JUMPDEST POP PUSH2 0xC3F JUMPI PUSH8 0xFFFFFFFFFFFFFFFF NOT DUP2 AND DUP9 OR DUP10 SSTORE DUP7 PUSH2 0xC20 JUMPI JUMPDEST POP PUSH2 0x798 PUSH2 0x2BF5 JUMP JUMPDEST PUSH2 0x7A0 PUSH2 0x2BF5 JUMP JUMPDEST DUP1 MLOAD DUP6 DUP2 GT PUSH2 0xC0D JUMPI DUP1 PUSH32 0x80BB2B638CC20BC4D0A60D66940F3AB4A00C1D7B313497CA82FB0B4AB0079300 SWAP3 PUSH2 0x7D6 DUP5 SLOAD PUSH2 0x2060 JUMP JUMPDEST PUSH1 0x1F DUP2 GT PUSH2 0xB9B JUMPI JUMPDEST POP PUSH1 0x20 SWAP1 DUP14 PUSH1 0x1F DUP5 GT PUSH1 0x1 EQ PUSH2 0xB1E JUMPI SWAP3 PUSH2 0xB13 JUMPI JUMPDEST POP POP PUSH1 0x0 NOT PUSH1 0x3 DUP4 SWAP1 SHL SHR NOT AND SWAP1 DUP9 SHL OR SWAP1 SSTORE JUMPDEST DUP1 MLOAD DUP5 DUP2 GT PUSH2 0xB00 JUMPI DUP1 PUSH32 0x80BB2B638CC20BC4D0A60D66940F3AB4A00C1D7B313497CA82FB0B4AB0079301 SWAP3 PUSH2 0x83F DUP5 SLOAD PUSH2 0x2060 JUMP JUMPDEST PUSH1 0x1F DUP2 GT PUSH2 0xA91 JUMPI JUMPDEST POP PUSH1 0x20 SWAP1 PUSH1 0x1F DUP4 GT PUSH1 0x1 EQ PUSH2 0xA14 JUMPI DUP13 SWAP3 PUSH2 0xA09 JUMPI JUMPDEST POP POP PUSH1 0x0 NOT PUSH1 0x3 DUP4 SWAP1 SHL SHR NOT AND SWAP1 DUP8 SHL OR SWAP1 SSTORE JUMPDEST PUSH2 0x87A PUSH2 0x2BF5 JUMP JUMPDEST PUSH2 0x883 CALLER PUSH2 0x283C JUMP JUMPDEST POP PUSH2 0x88D CALLER PUSH2 0x28DC JUMP JUMPDEST POP DUP2 MLOAD SWAP3 DUP4 GT PUSH2 0x9F6 JUMPI POP DUP2 SWAP1 PUSH2 0x8A4 DUP6 SLOAD PUSH2 0x2060 JUMP JUMPDEST PUSH1 0x1F DUP2 GT PUSH2 0x999 JUMPI JUMPDEST POP PUSH1 0x20 SWAP1 PUSH1 0x1F DUP4 GT PUSH1 0x1 EQ PUSH2 0x92E JUMPI DUP9 SWAP3 PUSH2 0x923 JUMPI JUMPDEST POP POP PUSH1 0x0 NOT PUSH1 0x3 DUP4 SWAP1 SHL SHR NOT AND SWAP1 DUP4 SHL OR DUP3 SSTORE JUMPDEST DUP2 DUP6 SSTORE PUSH2 0x8E2 JUMPI DUP4 DUP1 RETURN JUMPDEST PUSH32 0xC7F505B2F371AE2175EE4913F4499E1F2633A7B5936321EED1CDAEB6115181D2 SWAP3 PUSH1 0x20 SWAP3 PUSH9 0xFF0000000000000000 NOT DUP2 SLOAD AND SWAP1 SSTORE MLOAD SWAP1 DUP2 MSTORE LOG1 CODESIZE DUP1 DUP1 DUP4 DUP1 RETURN JUMPDEST ADD MLOAD SWAP1 POP CODESIZE DUP1 PUSH2 0x8C3 JUMP JUMPDEST DUP6 DUP10 MSTORE DUP6 SWAP4 POP PUSH1 0x0 DUP1 MLOAD PUSH1 0x20 PUSH2 0x2D1A DUP4 CODECOPY DUP2 MLOAD SWAP2 MSTORE SWAP2 SWAP1 PUSH1 0x1F NOT DUP5 AND DUP11 JUMPDEST DUP2 DUP2 LT PUSH2 0x981 JUMPI POP DUP5 GT PUSH2 0x968 JUMPI JUMPDEST POP POP POP DUP2 SHL ADD DUP3 SSTORE PUSH2 0x8D7 JUMP JUMPDEST ADD MLOAD PUSH1 0x0 NOT PUSH1 0xF8 DUP5 PUSH1 0x3 SHL AND SHR NOT AND SWAP1 SSTORE CODESIZE DUP1 DUP1 PUSH2 0x95B JUMP JUMPDEST DUP3 DUP5 ADD MLOAD DUP6 SSTORE DUP9 SWAP7 SWAP1 SWAP5 ADD SWAP4 PUSH1 0x20 SWAP4 DUP5 ADD SWAP4 ADD PUSH2 0x94C JUMP JUMPDEST SWAP1 SWAP2 POP DUP5 DUP9 MSTORE PUSH1 0x0 DUP1 MLOAD PUSH1 0x20 PUSH2 0x2D1A DUP4 CODECOPY DUP2 MLOAD SWAP2 MSTORE PUSH1 0x1F DUP5 ADD PUSH1 0x5 SHR DUP2 ADD SWAP2 PUSH1 0x20 DUP6 LT PUSH2 0x9EC JUMPI JUMPDEST DUP5 SWAP4 SWAP3 SWAP2 PUSH1 0x1F DUP9 SWAP3 ADD PUSH1 0x5 SHR ADD SWAP2 JUMPDEST DUP3 DUP2 LT PUSH2 0x9DE JUMPI POP POP PUSH2 0x8AD JUMP JUMPDEST DUP11 DUP2 SSTORE DUP6 SWAP5 POP DUP8 SWAP2 ADD PUSH2 0x9D0 JUMP JUMPDEST SWAP1 SWAP2 POP DUP2 SWAP1 PUSH2 0x9C1 JUMP JUMPDEST PUSH4 0x4E487B71 PUSH1 0xE0 SHL DUP9 MSTORE PUSH1 0x41 SWAP1 MSTORE PUSH1 0x24 DUP8 REVERT JUMPDEST ADD MLOAD SWAP1 POP CODESIZE DUP1 PUSH2 0x85E JUMP JUMPDEST DUP5 DUP14 MSTORE DUP10 SWAP4 POP PUSH32 0xF4BAD0A69248F59680A4F2B3000328CEC71A413447C96781CFE5996DAA8C456E SWAP2 SWAP1 PUSH1 0x1F NOT DUP5 AND DUP15 JUMPDEST DUP2 DUP2 LT PUSH2 0xA79 JUMPI POP DUP5 GT PUSH2 0xA60 JUMPI JUMPDEST POP POP POP DUP2 SHL ADD SWAP1 SSTORE PUSH2 0x872 JUMP JUMPDEST ADD MLOAD PUSH1 0x0 NOT PUSH1 0xF8 DUP5 PUSH1 0x3 SHL AND SHR NOT AND SWAP1 SSTORE CODESIZE DUP1 DUP1 PUSH2 0xA53 JUMP JUMPDEST DUP3 DUP5 ADD MLOAD DUP6 SSTORE DUP13 SWAP7 SWAP1 SWAP5 ADD SWAP4 PUSH1 0x20 SWAP4 DUP5 ADD SWAP4 ADD PUSH2 0xA44 JUMP JUMPDEST SWAP1 SWAP2 POP DUP4 DUP13 MSTORE PUSH32 0xF4BAD0A69248F59680A4F2B3000328CEC71A413447C96781CFE5996DAA8C456E PUSH1 0x1F DUP5 ADD PUSH1 0x5 SHR DUP2 ADD SWAP2 PUSH1 0x20 DUP6 LT PUSH2 0xAF6 JUMPI JUMPDEST DUP5 SWAP4 SWAP3 SWAP2 PUSH1 0x1F DUP13 SWAP3 ADD PUSH1 0x5 SHR ADD SWAP2 JUMPDEST DUP3 DUP2 LT PUSH2 0xAE8 JUMPI POP POP PUSH2 0x848 JUMP JUMPDEST DUP15 DUP2 SSTORE DUP6 SWAP5 POP DUP12 SWAP2 ADD PUSH2 0xADA JUMP JUMPDEST SWAP1 SWAP2 POP DUP2 SWAP1 PUSH2 0xACB JUMP JUMPDEST PUSH4 0x4E487B71 PUSH1 0xE0 SHL DUP11 MSTORE PUSH1 0x41 DUP4 MSTORE PUSH1 0x24 DUP11 REVERT JUMPDEST ADD MLOAD SWAP1 POP CODESIZE DUP1 PUSH2 0x7F5 JUMP JUMPDEST SWAP2 SWAP1 DUP12 SWAP5 POP PUSH1 0x1F NOT DUP5 AND DUP7 DUP5 MSTORE PUSH32 0x37C58C799B6609234B945E882912EE9AD34948A1DFAA20A97485E1A7752BBF81 SWAP4 JUMPDEST DUP2 DUP2 LT PUSH2 0xB83 JUMPI POP DUP5 GT PUSH2 0xB6A JUMPI JUMPDEST POP POP POP DUP2 SHL ADD SWAP1 SSTORE PUSH2 0x809 JUMP JUMPDEST ADD MLOAD PUSH1 0x0 NOT PUSH1 0xF8 DUP5 PUSH1 0x3 SHL AND SHR NOT AND SWAP1 SSTORE CODESIZE DUP1 DUP1 PUSH2 0xB5D JUMP JUMPDEST DUP3 DUP5 ADD MLOAD DUP6 SSTORE DUP14 SWAP7 SWAP1 SWAP5 ADD SWAP4 PUSH1 0x20 SWAP4 DUP5 ADD SWAP4 ADD PUSH2 0xB4E JUMP JUMPDEST SWAP1 SWAP2 POP DUP4 DUP14 MSTORE PUSH32 0x37C58C799B6609234B945E882912EE9AD34948A1DFAA20A97485E1A7752BBF81 PUSH1 0x1F DUP5 ADD PUSH1 0x5 SHR DUP2 ADD SWAP2 PUSH1 0x20 DUP6 LT PUSH2 0xC03 JUMPI JUMPDEST DUP15 DUP6 SWAP5 SWAP4 SWAP3 PUSH1 0x1F DUP15 SWAP4 ADD PUSH1 0x5 SHR ADD SWAP3 SWAP1 JUMPDEST DUP4 DUP3 LT PUSH2 0xBF5 JUMPI POP POP POP PUSH2 0x7DF JUMP JUMPDEST DUP2 SSTORE DUP6 SWAP5 POP DUP13 SWAP2 ADD DUP16 PUSH2 0xBE6 JUMP JUMPDEST SWAP1 SWAP2 POP DUP2 SWAP1 PUSH2 0xBD5 JUMP JUMPDEST PUSH4 0x4E487B71 PUSH1 0xE0 SHL DUP12 MSTORE PUSH1 0x41 DUP5 MSTORE PUSH1 0x24 DUP12 REVERT JUMPDEST PUSH9 0xFFFFFFFFFFFFFFFFFF NOT AND PUSH9 0x10000000000000001 OR DUP9 SSTORE CODESIZE PUSH2 0x78F JUMP JUMPDEST DUP10 MLOAD PUSH4 0xF92EE8A9 PUSH1 0xE0 SHL DUP2 MSTORE DUP5 SWAP1 REVERT JUMPDEST SWAP1 POP ISZERO CODESIZE PUSH2 0x774 JUMP JUMPDEST ADDRESS EXTCODESIZE ISZERO SWAP2 POP PUSH2 0x76C JUMP JUMPDEST POP DUP7 PUSH2 0x760 JUMP JUMPDEST DUP7 DUP1 REVERT JUMPDEST DUP5 DUP1 REVERT JUMPDEST SWAP2 SWAP1 POP CALLVALUE PUSH2 0x2E2 JUMPI DUP1 PUSH1 0x3 NOT CALLDATASIZE ADD SLT PUSH2 0x2E2 JUMPI PUSH2 0xC8C PUSH2 0x1EE8 JUMP JUMPDEST SWAP1 PUSH1 0x24 CALLDATALOAD SWAP2 DUP3 ISZERO ISZERO DUP1 SWAP4 SUB PUSH2 0xC6D JUMPI PUSH1 0x1 PUSH1 0x1 PUSH1 0xA0 SHL SUB AND SWAP3 DUP4 ISZERO PUSH2 0xCF8 JUMPI POP PUSH2 0xCB5 CALLER PUSH2 0x214E JUMP JUMPDEST DUP4 DUP6 MSTORE PUSH1 0x20 MSTORE DUP1 DUP5 KECCAK256 PUSH1 0xFF NOT DUP2 SLOAD AND PUSH1 0xFF DUP5 AND OR SWAP1 SSTORE MLOAD SWAP1 DUP2 MSTORE PUSH32 0x17307EAB39AB6107E8899845AD3D59BD9653F200F220920489CA2B5937696C31 PUSH1 0x20 CALLER SWAP3 LOG3 DUP1 RETURN JUMPDEST DUP4 PUSH1 0x24 SWAP3 MLOAD SWAP2 PUSH4 0xB611743 PUSH1 0xE3 SHL DUP4 MSTORE DUP3 ADD MSTORE REVERT JUMPDEST POP POP CALLVALUE PUSH2 0x202 JUMPI DUP2 PUSH1 0x3 NOT CALLDATASIZE ADD SLT PUSH2 0x202 JUMPI MLOAD SWAP1 DUP2 MSTORE PUSH1 0x20 SWAP1 RETURN JUMPDEST DUP3 DUP5 CALLVALUE PUSH2 0x292 JUMPI DUP1 PUSH1 0x3 NOT CALLDATASIZE ADD SLT PUSH2 0x292 JUMPI DUP2 MLOAD SWAP2 DUP3 DUP3 PUSH32 0x80BB2B638CC20BC4D0A60D66940F3AB4A00C1D7B313497CA82FB0B4AB0079301 SWAP4 DUP5 SLOAD PUSH2 0xD6C DUP2 PUSH2 0x2060 JUMP JUMPDEST SWAP2 DUP3 DUP6 MSTORE PUSH1 0x20 SWAP7 PUSH1 0x1 SWAP3 DUP9 PUSH1 0x1 DUP3 AND SWAP2 DUP3 PUSH1 0x0 EQ PUSH2 0xDFB JUMPI POP POP PUSH1 0x1 EQ PUSH2 0xDA0 JUMPI JUMPDEST DUP6 DUP9 PUSH2 0x28E DUP10 PUSH2 0x46D DUP5 DUP11 SUB DUP6 PUSH2 0x1FDB JUMP JUMPDEST DUP2 MSTORE DUP7 SWAP4 POP SWAP2 SWAP1 PUSH32 0xF4BAD0A69248F59680A4F2B3000328CEC71A413447C96781CFE5996DAA8C456E JUMPDEST DUP3 DUP5 LT PUSH2 0xDE3 JUMPI POP POP POP DUP3 ADD ADD DUP2 PUSH2 0x46D PUSH2 0x28E DUP9 PUSH2 0xD8E JUMP JUMPDEST DUP1 SLOAD DUP5 DUP11 ADD DUP7 ADD MSTORE DUP9 SWAP6 POP DUP8 SWAP5 SWAP1 SWAP4 ADD SWAP3 DUP2 ADD PUSH2 0xDC9 JUMP JUMPDEST PUSH1 0xFF NOT AND DUP9 DUP3 ADD MSTORE SWAP5 ISZERO ISZERO PUSH1 0x5 SHL DUP8 ADD SWAP1 SWAP5 ADD SWAP5 POP DUP6 SWAP4 POP PUSH2 0x46D SWAP3 POP PUSH2 0x28E SWAP2 POP DUP10 SWAP1 POP PUSH2 0xD8E JUMP JUMPDEST SWAP1 POP CALLVALUE PUSH2 0x2E2 JUMPI DUP2 PUSH1 0x3 NOT CALLDATASIZE ADD SLT PUSH2 0x2E2 JUMPI DUP2 PUSH1 0x20 SWAP4 PUSH1 0xFF SWAP3 PUSH2 0xE46 PUSH2 0x1F03 JUMP JUMPDEST SWAP1 CALLDATALOAD DUP3 MSTORE PUSH1 0x0 DUP1 MLOAD PUSH1 0x20 PUSH2 0x2CFA DUP4 CODECOPY DUP2 MLOAD SWAP2 MSTORE DUP7 MSTORE DUP3 DUP3 KECCAK256 PUSH1 0x1 PUSH1 0x1 PUSH1 0xA0 SHL SUB SWAP1 SWAP2 AND DUP3 MSTORE DUP6 MSTORE KECCAK256 SLOAD SWAP2 MLOAD SWAP2 AND ISZERO ISZERO DUP2 MSTORE RETURN JUMPDEST POP POP CALLVALUE PUSH2 0x202 JUMPI DUP2 PUSH1 0x3 NOT CALLDATASIZE ADD SLT PUSH2 0x202 JUMPI PUSH1 0x20 SWAP2 SLOAD SWAP1 MLOAD SWAP1 DUP2 MSTORE RETURN JUMPDEST SWAP1 POP CALLVALUE PUSH2 0x2E2 JUMPI DUP2 PUSH1 0x3 NOT CALLDATASIZE ADD SLT PUSH2 0x2E2 JUMPI PUSH2 0xEB0 PUSH2 0x1EE8 JUMP JUMPDEST PUSH1 0x24 CALLDATALOAD SWAP2 DUP3 LT ISZERO PUSH2 0x52F JUMPI PUSH1 0x1 PUSH1 0x1 PUSH1 0xA0 SHL SUB AND DUP4 MSTORE PUSH1 0x3 PUSH1 0x20 SWAP1 DUP2 MSTORE SWAP3 DUP3 SWAP1 KECCAK256 PUSH1 0xFF SWAP2 PUSH2 0xEDD SWAP2 PUSH2 0x21C0 JUMP JUMPDEST SLOAD AND SWAP1 MLOAD SWAP1 ISZERO ISZERO DUP2 MSTORE RETURN JUMPDEST POP POP CALLVALUE PUSH2 0x202 JUMPI PUSH1 0x20 CALLDATASIZE PUSH1 0x3 NOT ADD SLT PUSH2 0x202 JUMPI PUSH1 0x20 SWAP1 PUSH2 0xF0E PUSH2 0xF09 PUSH2 0x1EE8 JUMP JUMPDEST PUSH2 0x2606 JUMP JUMPDEST SWAP1 MLOAD SWAP1 DUP2 MSTORE RETURN JUMPDEST POP POP CALLVALUE PUSH2 0x202 JUMPI DUP2 PUSH1 0x3 NOT CALLDATASIZE ADD SLT PUSH2 0x202 JUMPI PUSH2 0x28E SWAP1 PUSH2 0x27B PUSH2 0x209A JUMP JUMPDEST DUP3 DUP5 CALLVALUE PUSH2 0x292 JUMPI PUSH1 0x20 CALLDATASIZE PUSH1 0x3 NOT ADD SLT PUSH2 0x292 JUMPI POP PUSH2 0xF53 PUSH1 0x20 SWAP3 CALLDATALOAD PUSH2 0x2727 JUMP JUMPDEST SWAP1 MLOAD PUSH1 0x1 PUSH1 0x1 PUSH1 0xA0 SHL SUB SWAP1 SWAP2 AND DUP2 MSTORE RETURN JUMPDEST DUP4 CALLVALUE PUSH2 0x292 JUMPI PUSH1 0x20 DUP1 PUSH1 0x3 NOT CALLDATASIZE ADD SLT PUSH2 0x202 JUMPI PUSH8 0xFFFFFFFFFFFFFFFF DUP4 CALLDATALOAD DUP2 DUP2 GT PUSH2 0x52F JUMPI PUSH2 0xF96 SWAP1 CALLDATASIZE SWAP1 DUP7 ADD PUSH2 0x2019 JUMP JUMPDEST SWAP4 PUSH2 0xF9F PUSH2 0x2781 JUMP JUMPDEST DUP5 MLOAD SWAP2 DUP3 GT PUSH2 0x10B9 JUMPI POP PUSH1 0x1 SWAP2 PUSH2 0xFB6 DUP4 SLOAD PUSH2 0x2060 JUMP JUMPDEST PUSH1 0x1F DUP2 GT PUSH2 0x1066 JUMPI JUMPDEST POP PUSH1 0x20 SWAP1 PUSH1 0x1F DUP4 GT PUSH1 0x1 EQ PUSH2 0xFFB JUMPI POP DUP4 SWAP5 DUP3 SWAP4 SWAP5 SWAP3 PUSH2 0xFF0 JUMPI JUMPDEST POP POP PUSH1 0x0 NOT PUSH1 0x3 DUP4 SWAP1 SHL SHR NOT AND SWAP1 DUP3 SHL OR SWAP1 SSTORE DUP1 RETURN JUMPDEST ADD MLOAD SWAP1 POP DUP5 DUP1 PUSH2 0xFDA JUMP JUMPDEST DUP4 DUP6 MSTORE PUSH1 0x1F NOT DUP4 AND SWAP6 PUSH1 0x0 DUP1 MLOAD PUSH1 0x20 PUSH2 0x2D1A DUP4 CODECOPY DUP2 MLOAD SWAP2 MSTORE SWAP3 SWAP2 DUP7 SWAP1 JUMPDEST DUP9 DUP3 LT PUSH2 0x104F JUMPI POP POP DUP4 DUP6 SWAP7 SWAP8 LT PUSH2 0x1036 JUMPI JUMPDEST POP POP POP DUP2 SHL ADD SWAP1 SSTORE DUP1 RETURN JUMPDEST ADD MLOAD PUSH1 0x0 NOT PUSH1 0xF8 DUP5 PUSH1 0x3 SHL AND SHR NOT AND SWAP1 SSTORE DUP5 DUP1 DUP1 PUSH2 0x102B JUMP JUMPDEST DUP1 DUP8 DUP6 SWAP7 DUP3 SWAP5 SWAP7 DUP7 ADD MLOAD DUP2 SSTORE ADD SWAP6 ADD SWAP4 ADD SWAP1 PUSH2 0x1018 JUMP JUMPDEST DUP4 DUP6 MSTORE PUSH1 0x0 DUP1 MLOAD PUSH1 0x20 PUSH2 0x2D1A DUP4 CODECOPY DUP2 MLOAD SWAP2 MSTORE PUSH1 0x1F DUP5 ADD PUSH1 0x5 SHR DUP2 ADD SWAP2 PUSH1 0x20 DUP6 LT PUSH2 0x10AF JUMPI JUMPDEST PUSH1 0x1F ADD PUSH1 0x5 SHR ADD SWAP1 DUP5 SWAP1 JUMPDEST DUP3 DUP2 LT PUSH2 0x10A4 JUMPI POP POP PUSH2 0xFBF JUMP JUMPDEST DUP7 DUP2 SSTORE ADD DUP5 SWAP1 PUSH2 0x1096 JUMP JUMPDEST SWAP1 SWAP2 POP DUP2 SWAP1 PUSH2 0x108B JUMP JUMPDEST PUSH4 0x4E487B71 PUSH1 0xE0 SHL DUP5 MSTORE PUSH1 0x41 SWAP1 MSTORE PUSH1 0x24 DUP4 REVERT JUMPDEST DUP4 SWAP2 POP CALLVALUE PUSH2 0x202 JUMPI PUSH1 0x20 DUP1 PUSH1 0x3 NOT CALLDATASIZE ADD SLT PUSH2 0x2E2 JUMPI SWAP3 SWAP2 PUSH2 0x10EB PUSH2 0x1EE8 JUMP JUMPDEST SWAP2 PUSH2 0x10F5 DUP4 PUSH2 0x2606 JUMP JUMPDEST SWAP1 PUSH2 0x10FF DUP3 PUSH2 0x25EE JUMP JUMPDEST SWAP2 PUSH2 0x110C DUP7 MLOAD SWAP4 DUP5 PUSH2 0x1FDB JUMP JUMPDEST DUP1 DUP4 MSTORE PUSH2 0x1118 DUP2 PUSH2 0x25EE JUMP JUMPDEST DUP4 DUP9 ADD SWAP6 SWAP1 PUSH1 0x1F NOT ADD CALLDATASIZE DUP8 CALLDATACOPY DUP5 JUMPDEST DUP3 DUP2 LT PUSH2 0x116C JUMPI POP POP POP POP DUP4 MLOAD SWAP5 DUP6 SWAP5 DUP2 DUP7 ADD SWAP3 DUP3 DUP8 MSTORE MLOAD DUP1 SWAP4 MSTORE DUP6 ADD SWAP4 SWAP3 JUMPDEST DUP3 DUP2 LT PUSH2 0x1155 JUMPI POP POP POP POP SUB SWAP1 RETURN JUMPDEST DUP4 MLOAD DUP6 MSTORE DUP7 SWAP6 POP SWAP4 DUP2 ADD SWAP4 SWAP3 DUP2 ADD SWAP3 PUSH1 0x1 ADD PUSH2 0x1146 JUMP JUMPDEST PUSH2 0x117C DUP2 DUP4 SWAP11 SWAP8 SWAP7 SWAP9 SWAP10 SWAP11 PUSH2 0x2528 JUMP JUMPDEST DUP8 MLOAD DUP3 LT ISZERO PUSH2 0x119D JUMPI PUSH1 0x5 DUP3 SWAP1 SHL DUP9 ADD DUP8 ADD MSTORE SWAP5 SWAP8 SWAP7 SWAP6 SWAP4 SWAP5 PUSH1 0x1 ADD PUSH2 0x1126 JUMP JUMPDEST PUSH4 0x4E487B71 PUSH1 0xE0 SHL DUP7 MSTORE PUSH1 0x32 DUP6 MSTORE PUSH1 0x24 DUP7 REVERT JUMPDEST DUP3 DUP5 CALLVALUE PUSH2 0x292 JUMPI DUP1 PUSH1 0x3 NOT CALLDATASIZE ADD SLT PUSH2 0x292 JUMPI POP PUSH32 0x0 PUSH1 0x1 PUSH1 0x1 PUSH1 0xA0 SHL SUB AND ADDRESS SUB PUSH2 0x121C JUMPI PUSH1 0x20 SWAP1 MLOAD PUSH32 0x360894A13BA1A3210667C828492DB98DCA3E2076CC3735A920A3CA505D382BBC DUP2 MSTORE RETURN JUMPDEST MLOAD PUSH4 0x703E46DD PUSH1 0xE1 SHL DUP2 MSTORE REVERT JUMPDEST POP POP CALLVALUE PUSH2 0x202 JUMPI DUP2 PUSH1 0x3 NOT CALLDATASIZE ADD SLT PUSH2 0x202 JUMPI PUSH1 0x20 SWAP1 MLOAD PUSH1 0xF DUP2 MSTORE RETURN JUMPDEST SWAP1 POP CALLVALUE PUSH2 0x2E2 JUMPI PUSH1 0x20 CALLDATASIZE PUSH1 0x3 NOT ADD SLT PUSH2 0x2E2 JUMPI DUP1 CALLDATALOAD SWAP3 PUSH1 0x0 DUP1 MLOAD PUSH1 0x20 PUSH2 0x2CDA DUP4 CODECOPY DUP2 MLOAD SWAP2 MSTORE SLOAD DUP5 LT ISZERO PUSH2 0x128C JUMPI PUSH1 0x20 DUP4 PUSH2 0x127E DUP7 PUSH2 0x2595 JUMP JUMPDEST SWAP2 SWAP1 SLOAD SWAP1 MLOAD SWAP2 PUSH1 0x3 SHL SHR DUP2 MSTORE RETURN JUMPDEST PUSH1 0x44 SWAP4 SWAP2 SWAP3 MLOAD SWAP3 PUSH4 0x295F44F7 PUSH1 0xE2 SHL DUP5 MSTORE DUP4 ADD MSTORE PUSH1 0x24 DUP3 ADD MSTORE REVERT JUMPDEST SWAP2 DUP1 SWAP2 POP PUSH1 0x3 NOT CALLDATASIZE ADD SLT PUSH2 0x2E2 JUMPI PUSH2 0x12BD PUSH2 0x1EE8 JUMP JUMPDEST SWAP1 PUSH1 0x24 CALLDATALOAD PUSH8 0xFFFFFFFFFFFFFFFF DUP2 GT PUSH2 0xC6D JUMPI PUSH2 0x12DD SWAP1 CALLDATASIZE SWAP1 DUP6 ADD PUSH2 0x2019 JUMP JUMPDEST PUSH1 0x1 PUSH1 0x1 PUSH1 0xA0 SHL SUB PUSH32 0x0 DUP2 AND ADDRESS DUP2 EQ SWAP1 DUP2 ISZERO PUSH2 0x147D JUMPI JUMPDEST POP PUSH2 0x146D JUMPI PUSH2 0x1320 PUSH2 0x2781 JUMP JUMPDEST DUP4 AND SWAP3 DUP3 MLOAD PUSH4 0x52D1902D PUSH1 0xE0 SHL DUP2 MSTORE PUSH1 0x20 DUP2 DUP8 DUP2 DUP9 GAS STATICCALL DUP8 SWAP2 DUP2 PUSH2 0x1435 JUMPI JUMPDEST POP PUSH2 0x135B JUMPI DUP4 MLOAD PUSH4 0x4C9C8CE3 PUSH1 0xE0 SHL DUP2 MSTORE DUP1 DUP8 ADD DUP7 SWAP1 MSTORE PUSH1 0x24 SWAP1 REVERT JUMPDEST DUP5 DUP8 SWAP5 DUP8 SWAP3 PUSH32 0x360894A13BA1A3210667C828492DB98DCA3E2076CC3735A920A3CA505D382BBC SWAP1 DUP2 DUP2 SUB PUSH2 0x141F JUMPI POP DUP5 EXTCODESIZE ISZERO PUSH2 0x1409 JUMPI DUP1 SLOAD PUSH1 0x1 PUSH1 0x1 PUSH1 0xA0 SHL SUB NOT AND DUP4 OR SWAP1 SSTORE MLOAD DUP6 SWAP3 SWAP2 PUSH32 0xBC7CD75A20EE27FD9ADEBAB32041F755214DBC6BFFA90CC0225B39DA2E5C2D3B DUP5 DUP1 LOG2 DUP5 MLOAD ISZERO PUSH2 0x13EE JUMPI POP POP DUP1 DUP4 PUSH1 0x20 PUSH2 0x2DE SWAP6 MLOAD SWAP2 ADD DUP5 GAS DELEGATECALL PUSH2 0x13E8 PUSH2 0x2AA8 JUMP JUMPDEST SWAP2 PUSH2 0x2C36 JUMP JUMPDEST SWAP3 POP SWAP3 POP POP CALLVALUE PUSH2 0x13FD JUMPI POP POP DUP1 RETURN JUMPDEST PUSH4 0xB398979F PUSH1 0xE0 SHL DUP2 MSTORE REVERT JUMPDEST POP MLOAD PUSH4 0x4C9C8CE3 PUSH1 0xE0 SHL DUP2 MSTORE SWAP2 DUP3 ADD MSTORE PUSH1 0x24 SWAP2 POP REVERT JUMPDEST DUP5 PUSH1 0x24 SWAP2 DUP5 MLOAD SWAP2 PUSH4 0x2A875269 PUSH1 0xE2 SHL DUP4 MSTORE DUP3 ADD MSTORE REVERT JUMPDEST SWAP1 SWAP2 POP PUSH1 0x20 DUP2 RETURNDATASIZE PUSH1 0x20 GT PUSH2 0x1465 JUMPI JUMPDEST DUP2 PUSH2 0x1451 PUSH1 0x20 SWAP4 DUP4 PUSH2 0x1FDB JUMP JUMPDEST DUP2 ADD SUB SLT PUSH2 0x1461 JUMPI MLOAD SWAP1 CODESIZE PUSH2 0x133F JUMP JUMPDEST DUP8 DUP1 REVERT JUMPDEST RETURNDATASIZE SWAP2 POP PUSH2 0x1444 JUMP JUMPDEST DUP3 MLOAD PUSH4 0x703E46DD PUSH1 0xE1 SHL DUP2 MSTORE DUP6 SWAP1 REVERT JUMPDEST SWAP1 POP DUP2 PUSH32 0x360894A13BA1A3210667C828492DB98DCA3E2076CC3735A920A3CA505D382BBC SLOAD AND EQ ISZERO CODESIZE PUSH2 0x1313 JUMP JUMPDEST POP POP CALLVALUE PUSH2 0x202 JUMPI PUSH2 0x5DC SWAP1 PUSH2 0x14BF CALLDATASIZE PUSH2 0x1F3C JUMP JUMPDEST SWAP2 SWAP3 MLOAD SWAP3 PUSH2 0x14CC DUP5 PUSH2 0x1FA3 JUMP JUMPDEST DUP6 DUP5 MSTORE PUSH2 0x5D6 DUP4 DUP4 DUP4 PUSH2 0x21D8 JUMP JUMPDEST DUP4 DUP4 CALLVALUE PUSH2 0x202 JUMPI DUP1 PUSH1 0x3 NOT CALLDATASIZE ADD SLT PUSH2 0x202 JUMPI PUSH2 0x14F4 PUSH2 0x1F03 JUMP JUMPDEST SWAP1 CALLER PUSH1 0x1 PUSH1 0x1 PUSH1 0xA0 SHL SUB DUP4 AND SUB PUSH2 0x1511 JUMPI POP PUSH2 0x2DE SWAP2 SWAP3 CALLDATALOAD PUSH2 0x2A25 JUMP JUMPDEST MLOAD PUSH4 0x334BD919 PUSH1 0xE1 SHL DUP2 MSTORE DUP4 SWAP1 REVERT JUMPDEST POP POP CALLVALUE PUSH2 0x202 JUMPI DUP1 PUSH1 0x3 NOT CALLDATASIZE ADD SLT PUSH2 0x202 JUMPI PUSH1 0x20 SWAP1 PUSH2 0xF0E PUSH2 0x1540 PUSH2 0x1EE8 JUMP JUMPDEST PUSH1 0x24 CALLDATALOAD SWAP1 PUSH2 0x2528 JUMP JUMPDEST SWAP2 SWAP1 POP CALLVALUE PUSH2 0x2E2 JUMPI DUP1 PUSH1 0x3 NOT CALLDATASIZE ADD SLT PUSH2 0x2E2 JUMPI PUSH2 0x2DE SWAP2 CALLDATALOAD PUSH2 0x156E PUSH1 0x1 PUSH2 0x2BA PUSH2 0x1F03 JUMP JUMPDEST PUSH2 0x299E JUMP JUMPDEST SWAP2 SWAP1 POP CALLVALUE PUSH2 0x2E2 JUMPI PUSH1 0x60 CALLDATASIZE PUSH1 0x3 NOT ADD SLT PUSH2 0x2E2 JUMPI PUSH2 0x158F PUSH2 0x1EE8 JUMP JUMPDEST SWAP2 PUSH1 0x24 SWAP1 DUP2 CALLDATALOAD PUSH1 0x44 CALLDATALOAD SWAP1 PUSH32 0x9F2DF0FED2C77648DE5860A4CC508CD0818C85B8B8A1AB4CEEEF8D981C8956A6 SWAP7 DUP8 DUP2 MSTORE PUSH1 0x20 SWAP8 PUSH1 0x0 DUP1 MLOAD PUSH1 0x20 PUSH2 0x2CFA DUP4 CODECOPY DUP2 MLOAD SWAP2 MSTORE DUP10 MSTORE DUP7 DUP3 KECCAK256 CALLER DUP4 MSTORE DUP10 MSTORE PUSH1 0xFF DUP8 DUP4 KECCAK256 SLOAD AND ISZERO PUSH2 0x1AF8 JUMPI POP PUSH2 0x15F0 DUP3 PUSH2 0x280C JUMP JUMPDEST SWAP4 PUSH1 0x1 DUP1 PUSH1 0xA0 SHL SUB SWAP6 DUP7 DUP10 AND SWAP7 DUP8 DUP5 MSTORE PUSH1 0x3 DUP12 MSTORE PUSH1 0xFF PUSH2 0x1612 DUP9 DUP12 DUP8 KECCAK256 PUSH2 0x21C0 JUMP JUMPDEST SLOAD AND PUSH2 0x1AB6 JUMPI DUP4 SLOAD SWAP10 PUSH1 0x0 NOT SWAP2 DUP3 DUP13 EQ PUSH2 0x1AA4 JUMPI PUSH1 0x1 DUP13 ADD DUP7 SSTORE DUP11 MLOAD SWAP3 PUSH2 0x1638 DUP5 PUSH2 0x1FA3 JUMP JUMPDEST DUP7 DUP5 MSTORE DUP11 ISZERO PUSH2 0x1A8E JUMPI DUP11 DUP14 DUP16 DUP10 DUP16 DUP4 DUP3 MSTORE PUSH32 0x80BB2B638CC20BC4D0A60D66940F3AB4A00C1D7B313497CA82FB0B4AB0079302 SWAP7 DUP8 DUP5 MSTORE DUP2 DUP4 KECCAK256 SLOAD AND SWAP5 DUP6 ISZERO DUP1 ISZERO SWAP9 DUP10 PUSH2 0x1A51 JUMPI JUMPDEST PUSH2 0x1688 DUP12 PUSH2 0x2187 JUMP JUMPDEST DUP1 SLOAD PUSH1 0x1 ADD SWAP1 SSTORE DUP7 DUP6 MSTORE DUP6 MSTORE DUP3 DUP5 KECCAK256 DUP1 SLOAD PUSH1 0x1 PUSH1 0x1 PUSH1 0xA0 SHL SUB NOT AND DUP4 OR SWAP1 SSTORE DUP6 DUP3 DUP9 PUSH32 0xDDF252AD1BE2C89B69C2B068FC378DAA952BA7F163C4A11628F55A4DF523B3EF DUP8 DUP1 LOG4 ISZERO PUSH2 0x19BC JUMPI POP PUSH32 0x645E039705490088DAAD89BAE25049A34F4A9072D398537B1AB2425F24CBED03 PUSH1 0x0 DUP1 MLOAD PUSH1 0x20 PUSH2 0x2CDA DUP4 CODECOPY DUP2 MLOAD SWAP2 MSTORE SWAP4 DUP5 SLOAD SWAP6 DUP7 SWAP5 MSTORE MSTORE DUP12 KECCAK256 SSTORE PUSH1 0x1 PUSH1 0x40 SHL DUP3 LT ISZERO PUSH2 0x19AA JUMPI DUP16 PUSH2 0x1731 DUP16 SWAP5 SWAP4 PUSH2 0x174A SWAP4 PUSH1 0x1 DUP3 ADD SWAP1 SSTORE PUSH2 0x2595 JUMP JUMPDEST SWAP1 SWAP2 SWAP1 DUP3 SLOAD SWAP1 PUSH1 0x3 SHL SWAP2 DUP3 SHL SWAP2 PUSH1 0x0 NOT SWAP1 SHL NOT AND OR SWAP1 SSTORE JUMP JUMPDEST SUB PUSH2 0x1946 JUMPI JUMPDEST POP PUSH2 0x1931 JUMPI EXTCODESIZE PUSH2 0x1834 JUMPI JUMPDEST POP DUP10 DUP10 SWAP2 DUP10 MLOAD SWAP4 PUSH2 0x176B DUP6 PUSH2 0x1F71 JUMP JUMPDEST PUSH2 0x1775 DUP10 DUP7 PUSH2 0x251C JUMP JUMPDEST DUP3 DUP6 ADD SWAP2 DUP8 DUP4 MSTORE PUSH1 0x2 DUP13 DUP8 ADD SWAP5 TIMESTAMP DUP7 MSTORE PUSH1 0x60 DUP9 ADD SWAP7 DUP12 DUP9 MSTORE DUP10 MSTORE MSTORE DUP12 DUP8 KECCAK256 SWAP6 MLOAD SWAP2 DUP1 DUP4 LT ISZERO PUSH2 0x1823 JUMPI POP POP DUP9 DUP12 DUP14 SWAP12 SWAP11 SWAP8 DUP16 PUSH1 0x3 SWAP1 PUSH32 0x549290153591F5315B4900245287E2108383DAB4D458A53793FA26B7BD4280E5 SWAP13 SWAP10 DUP3 PUSH1 0x60 SWAP14 SWAP11 PUSH1 0xFF SWAP11 PUSH1 0x1 SWAP11 PUSH2 0x1801 SWAP11 DUP14 NOT SWAP14 DUP15 DUP8 SLOAD AND SWAP2 AND OR DUP6 SSTORE MLOAD DUP12 DUP6 ADD SSTORE MLOAD PUSH1 0x2 DUP5 ADD SSTORE MLOAD SWAP2 ADD SSTORE DUP14 DUP4 MSTORE MSTORE KECCAK256 PUSH2 0x21C0 JUMP JUMPDEST SWAP2 DUP3 SLOAD AND OR SWAP1 SSTORE PUSH2 0x1814 DUP9 MLOAD DUP1 SWAP5 PUSH2 0x1F19 JUMP JUMPDEST DUP10 DUP4 ADD MSTORE DUP7 DUP3 ADD MSTORE LOG3 MLOAD SWAP1 DUP2 MSTORE RETURN JUMPDEST PUSH4 0x4E487B71 PUSH1 0xE0 SHL DUP9 MSTORE PUSH1 0x21 SWAP1 MSTORE DUP7 REVERT JUMPDEST SWAP2 DUP11 SWAP7 SWAP5 SWAP3 DUP3 SWAP12 DUP12 DUP11 DUP8 DUP1 DUP7 SWAP16 SWAP12 SWAP10 SWAP8 DUP16 SWAP15 SWAP16 PUSH2 0x187D SWAP1 MLOAD SWAP8 DUP9 SWAP7 DUP8 SWAP6 DUP7 SWAP5 PUSH4 0xA85BD01 PUSH1 0xE1 SHL SWAP13 DUP14 DUP8 MSTORE CALLER SWAP1 DUP8 ADD MSTORE DUP6 ADD MSTORE PUSH1 0x44 DUP5 ADD MSTORE PUSH1 0x80 PUSH1 0x64 DUP5 ADD MSTORE PUSH1 0x84 DUP4 ADD SWAP1 PUSH2 0x1EC3 JUMP JUMPDEST SUB SWAP3 GAS CALL DUP4 SWAP2 DUP2 PUSH2 0x18F1 JUMPI JUMPDEST POP PUSH2 0x18BC JUMPI POP POP POP POP POP POP POP PUSH2 0x189D PUSH2 0x2AA8 JUMP JUMPDEST DUP1 MLOAD SWAP2 DUP3 PUSH2 0x18B9 JUMPI POP POP POP MLOAD SWAP2 PUSH4 0x32505749 PUSH1 0xE1 SHL DUP4 MSTORE DUP3 ADD MSTORE REVERT JUMPDEST ADD REVERT JUMPDEST PUSH4 0xFFFFFFFF PUSH1 0xE0 SWAP13 SWAP4 SWAP6 SWAP8 SWAP12 SWAP5 SWAP7 SWAP9 SWAP13 SWAP11 SWAP10 SWAP11 SHL AND SUB PUSH2 0x18DC JUMPI DUP10 PUSH2 0x175B JUMP JUMPDEST DUP8 MLOAD PUSH4 0x32505749 PUSH1 0xE1 SHL DUP2 MSTORE SWAP2 DUP3 ADD DUP8 SWAP1 MSTORE SWAP1 REVERT JUMPDEST SWAP1 SWAP2 POP DUP9 DUP2 DUP2 RETURNDATASIZE DUP4 GT PUSH2 0x192A JUMPI JUMPDEST PUSH2 0x1909 DUP2 DUP4 PUSH2 0x1FDB JUMP JUMPDEST DUP2 ADD SUB SLT PUSH2 0x52F JUMPI MLOAD PUSH1 0x1 PUSH1 0x1 PUSH1 0xE0 SHL SUB NOT DUP2 AND DUP2 SUB PUSH2 0x52F JUMPI SWAP1 CODESIZE PUSH2 0x1889 JUMP JUMPDEST POP RETURNDATASIZE PUSH2 0x18FF JUMP JUMPDEST POP POP SWAP2 DUP8 MLOAD SWAP2 PUSH4 0x39E35637 PUSH1 0xE1 SHL DUP4 MSTORE DUP3 ADD MSTORE REVERT JUMPDEST PUSH2 0x194F DUP4 PUSH2 0x2606 JUMP JUMPDEST SWAP1 DUP2 ADD SWAP1 DUP2 GT PUSH2 0x1998 JUMPI PUSH1 0x0 DUP1 MLOAD PUSH1 0x20 PUSH2 0x2C9A DUP4 CODECOPY DUP2 MLOAD SWAP2 MSTORE DUP15 DUP15 DUP1 DUP16 DUP16 DUP13 MSTORE PUSH1 0x0 DUP1 MLOAD PUSH1 0x20 PUSH2 0x2CBA DUP4 CODECOPY DUP2 MLOAD SWAP2 MSTORE DUP5 MSTORE DUP1 DUP13 KECCAK256 DUP7 DUP14 MSTORE DUP5 MSTORE DUP12 KECCAK256 SSTORE DUP10 MSTORE MSTORE DUP12 DUP8 KECCAK256 SSTORE CODESIZE PUSH2 0x1750 JUMP JUMPDEST PUSH4 0x4E487B71 PUSH1 0xE0 SHL DUP8 MSTORE PUSH1 0x11 DUP7 MSTORE DUP5 DUP8 REVERT JUMPDEST PUSH4 0x4E487B71 PUSH1 0xE0 SHL DUP11 MSTORE PUSH1 0x41 DUP10 MSTORE DUP8 DUP11 REVERT JUMPDEST SWAP5 SWAP4 SWAP1 SWAP2 SWAP3 DUP6 DUP6 SUB PUSH2 0x19D2 JUMPI JUMPDEST POP POP POP POP PUSH2 0x174A JUMP JUMPDEST PUSH2 0x19DB DUP6 PUSH2 0x2606 JUMP JUMPDEST DUP3 DUP6 MSTORE PUSH1 0x0 DUP1 MLOAD PUSH1 0x20 PUSH2 0x2C9A DUP4 CODECOPY DUP2 MLOAD SWAP2 MSTORE DUP1 DUP4 MSTORE DUP5 DUP7 KECCAK256 SLOAD SWAP4 DUP8 DUP8 MSTORE PUSH1 0x0 DUP1 MLOAD PUSH1 0x20 PUSH2 0x2CBA DUP4 CODECOPY DUP2 MLOAD SWAP2 MSTORE DUP5 MSTORE DUP6 DUP8 KECCAK256 SWAP5 DUP4 DUP2 SUB PUSH2 0x1A30 JUMPI JUMPDEST POP DUP7 MSTORE DUP3 MSTORE DUP5 DUP5 DUP2 KECCAK256 SSTORE DUP5 MSTORE MSTORE DUP2 KECCAK256 SSTORE DUP16 DUP16 DUP16 SWAP1 DUP12 SWAP3 PUSH2 0x19C9 JUMP JUMPDEST DUP4 DUP9 MSTORE DUP6 DUP6 MSTORE DUP7 DUP9 KECCAK256 SLOAD DUP2 DUP10 MSTORE DUP1 DUP9 DUP11 KECCAK256 SSTORE DUP9 MSTORE DUP3 DUP6 MSTORE DUP7 DUP9 KECCAK256 SSTORE CODESIZE PUSH2 0x1A15 JUMP JUMPDEST PUSH1 0x0 DUP8 DUP2 MSTORE PUSH1 0x0 DUP1 MLOAD PUSH1 0x20 PUSH2 0x2D3A DUP4 CODECOPY DUP2 MLOAD SWAP2 MSTORE PUSH1 0x20 MSTORE PUSH1 0x40 SWAP1 KECCAK256 DUP1 SLOAD PUSH1 0x1 PUSH1 0x1 PUSH1 0xA0 SHL SUB NOT AND SWAP1 SSTORE PUSH2 0x1A83 DUP9 PUSH2 0x2187 JUMP JUMPDEST DUP10 DUP2 SLOAD ADD SWAP1 SSTORE PUSH2 0x167F JUMP JUMPDEST DUP12 MLOAD PUSH4 0x32505749 PUSH1 0xE1 SHL DUP2 MSTORE DUP1 DUP8 ADD DUP9 SWAP1 MSTORE DUP6 SWAP1 REVERT JUMPDEST PUSH4 0x4E487B71 PUSH1 0xE0 SHL DUP7 MSTORE PUSH1 0x11 DUP6 MSTORE DUP4 DUP7 REVERT JUMPDEST DUP9 MLOAD PUSH3 0x461BCD PUSH1 0xE5 SHL DUP2 MSTORE DUP1 DUP5 ADD DUP13 SWAP1 MSTORE PUSH1 0x18 DUP2 DUP5 ADD MSTORE PUSH32 0x416C7265616479206D696E746564207468697320746965720000000000000000 PUSH1 0x44 DUP3 ADD MSTORE PUSH1 0x64 SWAP1 REVERT JUMPDEST DUP7 MLOAD PUSH4 0xE2517D3F PUSH1 0xE0 SHL DUP2 MSTORE CALLER DUP2 DUP8 ADD MSTORE DUP1 DUP8 ADD SWAP2 SWAP1 SWAP2 MSTORE PUSH1 0x44 SWAP1 REVERT JUMPDEST SWAP1 POP CALLVALUE PUSH2 0x2E2 JUMPI PUSH1 0x20 CALLDATASIZE PUSH1 0x3 NOT ADD SLT PUSH2 0x2E2 JUMPI DUP2 PUSH1 0x20 SWAP4 PUSH1 0x1 SWAP3 CALLDATALOAD DUP2 MSTORE PUSH1 0x0 DUP1 MLOAD PUSH1 0x20 PUSH2 0x2CFA DUP4 CODECOPY DUP2 MLOAD SWAP2 MSTORE DUP6 MSTORE KECCAK256 ADD SLOAD SWAP1 MLOAD SWAP1 DUP2 MSTORE RETURN JUMPDEST DUP4 CALLVALUE PUSH2 0x292 JUMPI PUSH2 0x5DC PUSH2 0x1B5F CALLDATASIZE PUSH2 0x1F3C JUMP JUMPDEST SWAP2 PUSH2 0x21D8 JUMP JUMPDEST POP POP CALLVALUE PUSH2 0x202 JUMPI DUP2 PUSH1 0x3 NOT CALLDATASIZE ADD SLT PUSH2 0x202 JUMPI PUSH1 0x20 SWAP1 PUSH1 0x0 DUP1 MLOAD PUSH1 0x20 PUSH2 0x2CDA DUP4 CODECOPY DUP2 MLOAD SWAP2 MSTORE SLOAD SWAP1 MLOAD SWAP1 DUP2 MSTORE RETURN JUMPDEST POP POP CALLVALUE PUSH2 0x202 JUMPI DUP2 PUSH1 0x3 NOT CALLDATASIZE ADD SLT PUSH2 0x202 JUMPI PUSH1 0x20 SWAP1 MLOAD PUSH1 0x7 DUP2 MSTORE RETURN JUMPDEST SWAP1 POP CALLVALUE PUSH2 0x2E2 JUMPI PUSH1 0x20 CALLDATASIZE PUSH1 0x3 NOT ADD SLT PUSH2 0x2E2 JUMPI PUSH1 0x80 SWAP3 DUP3 SWAP2 CALLDATALOAD DUP2 MSTORE PUSH1 0x2 PUSH1 0x20 MSTORE KECCAK256 SWAP1 PUSH1 0xFF DUP3 SLOAD AND SWAP2 PUSH1 0x1 DUP2 ADD SLOAD SWAP2 PUSH1 0x3 PUSH1 0x2 DUP4 ADD SLOAD SWAP3 ADD SLOAD SWAP3 PUSH2 0x1BF2 DUP3 MLOAD DUP1 SWAP7 PUSH2 0x1F19 JUMP JUMPDEST PUSH1 0x20 DUP6 ADD MSTORE DUP4 ADD MSTORE PUSH1 0x60 DUP3 ADD MSTORE RETURN JUMPDEST SWAP2 SWAP1 POP CALLVALUE PUSH2 0x2E2 JUMPI DUP1 PUSH1 0x3 NOT CALLDATASIZE ADD SLT PUSH2 0x2E2 JUMPI PUSH2 0x1C1C PUSH2 0x1EE8 JUMP JUMPDEST SWAP2 PUSH1 0x24 CALLDATALOAD SWAP1 PUSH2 0x1C2A DUP3 PUSH2 0x2727 JUMP JUMPDEST SWAP1 CALLER ISZERO ISZERO DUP1 PUSH2 0x1CD2 JUMPI JUMPDEST DUP1 PUSH2 0x1CB5 JUMPI JUMPDEST PUSH2 0x1C9E JUMPI POP PUSH1 0x1 PUSH1 0x1 PUSH1 0xA0 SHL SUB SWAP4 DUP5 AND SWAP4 DUP3 SWAP2 DUP6 SWAP2 AND PUSH32 0x8C5BE1E5EBEC7D5BD14F71427D1E84F3DD0314C0F7B2291E5B200AC8C7C3B925 DUP8 DUP1 LOG4 DUP4 MSTORE PUSH1 0x0 DUP1 MLOAD PUSH1 0x20 PUSH2 0x2D3A DUP4 CODECOPY DUP2 MLOAD SWAP2 MSTORE PUSH1 0x20 MSTORE DUP3 KECCAK256 DUP1 SLOAD PUSH1 0x1 PUSH1 0x1 PUSH1 0xA0 SHL SUB NOT AND SWAP1 SWAP2 OR SWAP1 SSTORE DUP1 RETURN JUMPDEST PUSH1 0x24 SWAP1 DUP5 MLOAD SWAP1 PUSH4 0xA9FBF51F PUSH1 0xE0 SHL DUP3 MSTORE CALLER SWAP1 DUP3 ADD MSTORE REVERT JUMPDEST POP PUSH2 0x1CBF DUP3 PUSH2 0x214E JUMP JUMPDEST CALLER DUP8 MSTORE PUSH1 0x20 MSTORE PUSH1 0xFF DUP5 DUP8 KECCAK256 SLOAD AND ISZERO PUSH2 0x1C3A JUMP JUMPDEST POP PUSH1 0x1 PUSH1 0x1 PUSH1 0xA0 SHL SUB DUP3 AND CALLER EQ ISZERO PUSH2 0x1C34 JUMP JUMPDEST SWAP1 POP CALLVALUE PUSH2 0x2E2 JUMPI PUSH1 0x20 CALLDATASIZE PUSH1 0x3 NOT ADD SLT PUSH2 0x2E2 JUMPI SWAP2 PUSH1 0x20 SWAP3 CALLDATALOAD PUSH2 0x1D06 DUP2 PUSH2 0x2727 JUMP JUMPDEST POP DUP2 MSTORE PUSH1 0x0 DUP1 MLOAD PUSH1 0x20 PUSH2 0x2D3A DUP4 CODECOPY DUP2 MLOAD SWAP2 MSTORE DUP4 MSTORE DUP2 SWAP1 KECCAK256 SLOAD SWAP1 MLOAD PUSH1 0x1 PUSH1 0x1 PUSH1 0xA0 SHL SUB SWAP1 SWAP2 AND DUP2 MSTORE RETURN JUMPDEST DUP3 DUP5 CALLVALUE PUSH2 0x292 JUMPI DUP1 PUSH1 0x3 NOT CALLDATASIZE ADD SLT PUSH2 0x292 JUMPI DUP2 MLOAD SWAP2 DUP3 DUP3 PUSH32 0x80BB2B638CC20BC4D0A60D66940F3AB4A00C1D7B313497CA82FB0B4AB0079300 SWAP4 DUP5 SLOAD PUSH2 0x1D73 DUP2 PUSH2 0x2060 JUMP JUMPDEST SWAP2 DUP3 DUP6 MSTORE PUSH1 0x20 SWAP7 PUSH1 0x1 SWAP3 DUP9 PUSH1 0x1 DUP3 AND SWAP2 DUP3 PUSH1 0x0 EQ PUSH2 0xDFB JUMPI POP POP PUSH1 0x1 EQ PUSH2 0x1DA6 JUMPI DUP6 DUP9 PUSH2 0x28E DUP10 PUSH2 0x46D DUP5 DUP11 SUB DUP6 PUSH2 0x1FDB JUMP JUMPDEST DUP2 MSTORE DUP7 SWAP4 POP SWAP2 SWAP1 PUSH32 0x37C58C799B6609234B945E882912EE9AD34948A1DFAA20A97485E1A7752BBF81 JUMPDEST DUP3 DUP5 LT PUSH2 0x1DE9 JUMPI POP POP POP DUP3 ADD ADD DUP2 PUSH2 0x46D PUSH2 0x28E DUP9 PUSH2 0xD8E JUMP JUMPDEST DUP1 SLOAD DUP5 DUP11 ADD DUP7 ADD MSTORE DUP9 SWAP6 POP DUP8 SWAP5 SWAP1 SWAP4 ADD SWAP3 DUP2 ADD PUSH2 0x1DCF JUMP JUMPDEST DUP5 SWAP2 CALLVALUE PUSH2 0x2E2 JUMPI PUSH1 0x20 CALLDATASIZE PUSH1 0x3 NOT ADD SLT PUSH2 0x2E2 JUMPI CALLDATALOAD PUSH4 0xFFFFFFFF PUSH1 0xE0 SHL DUP2 AND DUP1 SWAP2 SUB PUSH2 0x2E2 JUMPI PUSH1 0x20 SWAP3 POP PUSH4 0x7965DB0B PUSH1 0xE0 SHL DUP2 EQ SWAP1 DUP2 ISZERO PUSH2 0x1E43 JUMPI JUMPDEST POP ISZERO ISZERO DUP2 MSTORE RETURN JUMPDEST PUSH4 0x780E9D63 PUSH1 0xE0 SHL DUP2 EQ SWAP2 POP DUP2 ISZERO PUSH2 0x1E5D JUMPI JUMPDEST POP DUP4 PUSH2 0x1E3C JUMP JUMPDEST PUSH4 0x80AC58CD PUSH1 0xE0 SHL DUP2 EQ SWAP2 POP DUP2 ISZERO PUSH2 0x1E8F JUMPI JUMPDEST DUP2 ISZERO PUSH2 0x1E7E JUMPI JUMPDEST POP DUP4 PUSH2 0x1E56 JUMP JUMPDEST PUSH4 0x1FFC9A7 PUSH1 0xE0 SHL EQ SWAP1 POP DUP4 PUSH2 0x1E77 JUMP JUMPDEST PUSH4 0x5B5E139F PUSH1 0xE0 SHL DUP2 EQ SWAP2 POP PUSH2 0x1E70 JUMP JUMPDEST PUSH1 0x0 JUMPDEST DUP4 DUP2 LT PUSH2 0x1EB3 JUMPI POP POP PUSH1 0x0 SWAP2 ADD MSTORE JUMP JUMPDEST DUP2 DUP2 ADD MLOAD DUP4 DUP3 ADD MSTORE PUSH1 0x20 ADD PUSH2 0x1EA3 JUMP JUMPDEST SWAP1 PUSH1 0x20 SWAP2 PUSH2 0x1EDC DUP2 MLOAD DUP1 SWAP3 DUP2 DUP6 MSTORE DUP6 DUP1 DUP7 ADD SWAP2 ADD PUSH2 0x1EA0 JUMP JUMPDEST PUSH1 0x1F ADD PUSH1 0x1F NOT AND ADD ADD SWAP1 JUMP JUMPDEST PUSH1 0x4 CALLDATALOAD SWAP1 PUSH1 0x1 PUSH1 0x1 PUSH1 0xA0 SHL SUB DUP3 AND DUP3 SUB PUSH2 0x1EFE JUMPI JUMP JUMPDEST PUSH1 0x0 DUP1 REVERT JUMPDEST PUSH1 0x24 CALLDATALOAD SWAP1 PUSH1 0x1 PUSH1 0x1 PUSH1 0xA0 SHL SUB DUP3 AND DUP3 SUB PUSH2 0x1EFE JUMPI JUMP JUMPDEST SWAP1 PUSH1 0x4 DUP3 LT ISZERO PUSH2 0x1F26 JUMPI MSTORE JUMP JUMPDEST PUSH4 0x4E487B71 PUSH1 0xE0 SHL PUSH1 0x0 MSTORE PUSH1 0x21 PUSH1 0x4 MSTORE PUSH1 0x24 PUSH1 0x0 REVERT JUMPDEST PUSH1 0x60 SWAP1 PUSH1 0x3 NOT ADD SLT PUSH2 0x1EFE JUMPI PUSH1 0x1 PUSH1 0x1 PUSH1 0xA0 SHL SUB SWAP1 PUSH1 0x4 CALLDATALOAD DUP3 DUP2 AND DUP2 SUB PUSH2 0x1EFE JUMPI SWAP2 PUSH1 0x24 CALLDATALOAD SWAP1 DUP2 AND DUP2 SUB PUSH2 0x1EFE JUMPI SWAP1 PUSH1 0x44 CALLDATALOAD SWAP1 JUMP JUMPDEST PUSH1 0x80 DUP2 ADD SWAP1 DUP2 LT PUSH8 0xFFFFFFFFFFFFFFFF DUP3 GT OR PUSH2 0x1F8D JUMPI PUSH1 0x40 MSTORE JUMP JUMPDEST PUSH4 0x4E487B71 PUSH1 0xE0 SHL PUSH1 0x0 MSTORE PUSH1 0x41 PUSH1 0x4 MSTORE PUSH1 0x24 PUSH1 0x0 REVERT JUMPDEST PUSH1 0x20 DUP2 ADD SWAP1 DUP2 LT PUSH8 0xFFFFFFFFFFFFFFFF DUP3 GT OR PUSH2 0x1F8D JUMPI PUSH1 0x40 MSTORE JUMP JUMPDEST PUSH1 0x40 DUP2 ADD SWAP1 DUP2 LT PUSH8 0xFFFFFFFFFFFFFFFF DUP3 GT OR PUSH2 0x1F8D JUMPI PUSH1 0x40 MSTORE JUMP JUMPDEST SWAP1 PUSH1 0x1F DUP1 NOT SWAP2 ADD AND DUP2 ADD SWAP1 DUP2 LT PUSH8 0xFFFFFFFFFFFFFFFF DUP3 GT OR PUSH2 0x1F8D JUMPI PUSH1 0x40 MSTORE JUMP JUMPDEST PUSH8 0xFFFFFFFFFFFFFFFF DUP2 GT PUSH2 0x1F8D JUMPI PUSH1 0x1F ADD PUSH1 0x1F NOT AND PUSH1 0x20 ADD SWAP1 JUMP JUMPDEST DUP2 PUSH1 0x1F DUP3 ADD SLT ISZERO PUSH2 0x1EFE JUMPI DUP1 CALLDATALOAD SWAP1 PUSH2 0x2030 DUP3 PUSH2 0x1FFD JUMP JUMPDEST SWAP3 PUSH2 0x203E PUSH1 0x40 MLOAD SWAP5 DUP6 PUSH2 0x1FDB JUMP JUMPDEST DUP3 DUP5 MSTORE PUSH1 0x20 DUP4 DUP4 ADD ADD GT PUSH2 0x1EFE JUMPI DUP2 PUSH1 0x0 SWAP3 PUSH1 0x20 DUP1 SWAP4 ADD DUP4 DUP7 ADD CALLDATACOPY DUP4 ADD ADD MSTORE SWAP1 JUMP JUMPDEST SWAP1 PUSH1 0x1 DUP3 DUP2 SHR SWAP3 AND DUP1 ISZERO PUSH2 0x2090 JUMPI JUMPDEST PUSH1 0x20 DUP4 LT EQ PUSH2 0x207A JUMPI JUMP JUMPDEST PUSH4 0x4E487B71 PUSH1 0xE0 SHL PUSH1 0x0 MSTORE PUSH1 0x22 PUSH1 0x4 MSTORE PUSH1 0x24 PUSH1 0x0 REVERT JUMPDEST SWAP2 PUSH1 0x7F AND SWAP2 PUSH2 0x206F JUMP JUMPDEST PUSH1 0x40 MLOAD SWAP1 PUSH1 0x0 DUP3 PUSH1 0x1 SWAP2 PUSH1 0x1 SLOAD PUSH2 0x20B0 DUP2 PUSH2 0x2060 JUMP JUMPDEST DUP1 DUP5 MSTORE SWAP4 PUSH1 0x20 SWAP2 PUSH1 0x1 DUP2 AND SWAP1 DUP2 ISZERO PUSH2 0x212A JUMPI POP PUSH1 0x1 EQ PUSH2 0x20DB JUMPI JUMPDEST POP POP PUSH2 0x20D9 SWAP3 POP SUB DUP4 PUSH2 0x1FDB JUMP JUMPDEST JUMP JUMPDEST SWAP2 POP SWAP3 PUSH1 0x1 PUSH1 0x0 MSTORE PUSH1 0x0 DUP1 MLOAD PUSH1 0x20 PUSH2 0x2D1A DUP4 CODECOPY DUP2 MLOAD SWAP2 MSTORE SWAP4 PUSH1 0x0 SWAP3 JUMPDEST DUP3 DUP5 LT PUSH2 0x2112 JUMPI POP PUSH2 0x20D9 SWAP5 POP POP POP DUP2 ADD PUSH1 0x20 ADD CODESIZE DUP1 PUSH2 0x20CB JUMP JUMPDEST DUP6 SLOAD DUP9 DUP6 ADD DUP4 ADD MSTORE SWAP5 DUP6 ADD SWAP5 DUP8 SWAP5 POP SWAP3 DUP2 ADD SWAP3 PUSH2 0x20F7 JUMP JUMPDEST SWAP2 POP POP PUSH1 0x20 SWAP3 POP PUSH2 0x20D9 SWAP5 SWAP2 POP PUSH1 0xFF NOT AND DUP3 DUP5 ADD MSTORE ISZERO ISZERO PUSH1 0x5 SHL DUP3 ADD ADD CODESIZE DUP1 PUSH2 0x20CB JUMP JUMPDEST PUSH1 0x1 PUSH1 0x1 PUSH1 0xA0 SHL SUB AND PUSH1 0x0 SWAP1 DUP2 MSTORE PUSH32 0x80BB2B638CC20BC4D0A60D66940F3AB4A00C1D7B313497CA82FB0B4AB0079305 PUSH1 0x20 MSTORE PUSH1 0x40 SWAP1 KECCAK256 SWAP1 JUMP JUMPDEST PUSH1 0x1 PUSH1 0x1 PUSH1 0xA0 SHL SUB AND PUSH1 0x0 SWAP1 DUP2 MSTORE PUSH32 0x80BB2B638CC20BC4D0A60D66940F3AB4A00C1D7B313497CA82FB0B4AB0079303 PUSH1 0x20 MSTORE PUSH1 0x40 SWAP1 KECCAK256 SWAP1 JUMP JUMPDEST SWAP1 PUSH1 0x4 DUP2 LT ISZERO PUSH2 0x1F26 JUMPI PUSH1 0x0 MSTORE PUSH1 0x20 MSTORE PUSH1 0x40 PUSH1 0x0 KECCAK256 SWAP1 JUMP JUMPDEST SWAP1 SWAP2 PUSH1 0x1 PUSH1 0x1 PUSH1 0xA0 SHL SUB DUP1 DUP5 AND SWAP3 DUP4 ISZERO PUSH2 0x2503 JUMPI PUSH1 0x0 SWAP4 DUP4 DUP6 MSTORE PUSH32 0x80BB2B638CC20BC4D0A60D66940F3AB4A00C1D7B313497CA82FB0B4AB0079302 SWAP5 PUSH1 0x20 DUP7 DUP2 MSTORE PUSH1 0x40 SWAP8 DUP6 DUP10 DUP5 KECCAK256 SLOAD AND SWAP8 CALLER ISZERO ISZERO DUP1 PUSH2 0x2469 JUMPI JUMPDEST POP DUP9 ISZERO SWAP1 DUP2 ISZERO PUSH2 0x242A JUMPI JUMPDEST PUSH2 0x2240 DUP4 PUSH2 0x2187 JUMP JUMPDEST DUP1 SLOAD PUSH1 0x1 ADD SWAP1 SSTORE DUP9 DUP6 MSTORE DUP4 MSTORE DUP10 DUP5 KECCAK256 DUP1 SLOAD PUSH1 0x1 PUSH1 0x1 PUSH1 0xA0 SHL SUB NOT AND DUP7 OR SWAP1 SSTORE DUP8 DUP6 DUP11 PUSH32 0xDDF252AD1BE2C89B69C2B068FC378DAA952BA7F163C4A11628F55A4DF523B3EF DUP8 DUP1 LOG4 ISZERO PUSH2 0x23A4 JUMPI PUSH1 0x0 DUP1 MLOAD PUSH1 0x20 PUSH2 0x2CDA DUP4 CODECOPY DUP2 MLOAD SWAP2 MSTORE DUP1 SLOAD SWAP1 DUP9 DUP6 MSTORE PUSH32 0x645E039705490088DAAD89BAE25049A34F4A9072D398537B1AB2425F24CBED03 DUP5 MSTORE DUP2 DUP12 DUP7 KECCAK256 SSTORE PUSH1 0x1 PUSH1 0x40 SHL DUP3 LT ISZERO PUSH2 0x2390 JUMPI PUSH2 0x1731 DUP3 DUP11 SWAP3 PUSH1 0x1 PUSH2 0x22E8 SWAP6 ADD SWAP1 SSTORE PUSH2 0x2595 JUMP JUMPDEST DUP4 DUP9 SUB PUSH2 0x2324 JUMPI JUMPDEST POP POP POP POP AND SWAP3 DUP4 DUP4 SUB PUSH2 0x2303 JUMPI POP POP POP POP JUMP JUMPDEST PUSH1 0x64 SWAP5 POP MLOAD SWAP3 PUSH4 0x64283D7B PUSH1 0xE0 SHL DUP5 MSTORE PUSH1 0x4 DUP5 ADD MSTORE PUSH1 0x24 DUP4 ADD MSTORE PUSH1 0x44 DUP3 ADD MSTORE REVERT JUMPDEST PUSH2 0x232D SWAP1 PUSH2 0x2606 JUMP JUMPDEST PUSH1 0x0 NOT DUP2 ADD SWAP4 SWAP1 DUP5 GT PUSH2 0x237C JUMPI DUP3 SWAP2 PUSH1 0x0 DUP1 MLOAD PUSH1 0x20 PUSH2 0x2C9A DUP4 CODECOPY DUP2 MLOAD SWAP2 MSTORE SWAP2 DUP11 SWAP5 MSTORE PUSH1 0x0 DUP1 MLOAD PUSH1 0x20 PUSH2 0x2CBA DUP4 CODECOPY DUP2 MLOAD SWAP2 MSTORE DUP2 MSTORE DUP4 DUP4 KECCAK256 DUP6 DUP5 MSTORE DUP2 MSTORE DUP8 DUP5 DUP5 KECCAK256 SSTORE DUP8 DUP4 MSTORE MSTORE KECCAK256 SSTORE CODESIZE DUP1 DUP1 DUP1 PUSH2 0x22F0 JUMP JUMPDEST PUSH4 0x4E487B71 PUSH1 0xE0 SHL DUP4 MSTORE PUSH1 0x11 PUSH1 0x4 MSTORE PUSH1 0x24 DUP4 REVERT JUMPDEST PUSH4 0x4E487B71 PUSH1 0xE0 SHL DUP6 MSTORE PUSH1 0x41 PUSH1 0x4 MSTORE PUSH1 0x24 DUP6 REVERT JUMPDEST DUP8 DUP5 EQ PUSH2 0x22E8 JUMPI PUSH2 0x23B4 DUP9 PUSH2 0x2606 JUMP JUMPDEST DUP8 DUP5 MSTORE PUSH1 0x0 DUP1 MLOAD PUSH1 0x20 PUSH2 0x2C9A DUP4 CODECOPY DUP2 MLOAD SWAP2 MSTORE SWAP1 DUP2 DUP5 MSTORE DUP11 DUP6 KECCAK256 SLOAD SWAP2 DUP11 DUP7 MSTORE PUSH1 0x0 DUP1 MLOAD PUSH1 0x20 PUSH2 0x2CBA DUP4 CODECOPY DUP2 MLOAD SWAP2 MSTORE DUP6 MSTORE DUP12 DUP7 KECCAK256 SWAP3 DUP3 DUP2 SUB PUSH2 0x2408 JUMPI JUMPDEST POP DUP10 DUP7 MSTORE DUP5 MSTORE DUP5 DUP12 DUP2 KECCAK256 SSTORE DUP5 MSTORE DUP3 MSTORE DUP3 DUP10 DUP2 KECCAK256 SSTORE PUSH2 0x22E8 JUMP JUMPDEST DUP3 DUP8 MSTORE DUP4 DUP7 MSTORE DUP13 DUP1 DUP9 KECCAK256 SLOAD DUP1 SWAP2 DUP4 DUP11 MSTORE DUP10 KECCAK256 SSTORE DUP8 MSTORE DUP2 DUP7 MSTORE DUP13 DUP8 KECCAK256 SSTORE CODESIZE PUSH2 0x23EF JUMP JUMPDEST PUSH1 0x0 DUP10 DUP2 MSTORE PUSH1 0x0 DUP1 MLOAD PUSH1 0x20 PUSH2 0x2D3A DUP4 CODECOPY DUP2 MLOAD SWAP2 MSTORE PUSH1 0x20 MSTORE PUSH1 0x40 SWAP1 KECCAK256 DUP1 SLOAD PUSH1 0x1 PUSH1 0x1 PUSH1 0xA0 SHL SUB NOT AND SWAP1 SSTORE PUSH2 0x245C DUP11 PUSH2 0x2187 JUMP JUMPDEST DUP1 SLOAD PUSH1 0x0 NOT ADD SWAP1 SSTORE PUSH2 0x2237 JUMP JUMPDEST DUP1 PUSH2 0x24B6 JUMPI JUMPDEST ISZERO PUSH2 0x247A JUMPI CODESIZE PUSH2 0x222C JUMP JUMPDEST DUP10 DUP9 DUP11 PUSH2 0x2497 JUMPI PUSH1 0x24 SWAP2 MLOAD SWAP1 PUSH4 0x7E273289 PUSH1 0xE0 SHL DUP3 MSTORE PUSH1 0x4 DUP3 ADD MSTORE REVERT JUMPDEST SWAP1 MLOAD PUSH4 0x177E802F PUSH1 0xE0 SHL DUP2 MSTORE CALLER PUSH1 0x4 DUP3 ADD MSTORE PUSH1 0x24 DUP2 ADD SWAP2 SWAP1 SWAP2 MSTORE PUSH1 0x44 SWAP1 REVERT JUMPDEST POP CALLER DUP10 EQ DUP1 ISZERO PUSH2 0x24E8 JUMPI JUMPDEST DUP1 PUSH2 0x246F JUMPI POP DUP8 DUP5 MSTORE PUSH1 0x0 DUP1 MLOAD PUSH1 0x20 PUSH2 0x2D3A DUP4 CODECOPY DUP2 MLOAD SWAP2 MSTORE DUP4 MSTORE CALLER DUP8 DUP12 DUP7 KECCAK256 SLOAD AND EQ PUSH2 0x246F JUMP JUMPDEST POP PUSH2 0x24F2 DUP10 PUSH2 0x214E JUMP JUMPDEST CALLER DUP6 MSTORE DUP4 MSTORE PUSH1 0xFF DUP11 DUP6 KECCAK256 SLOAD AND PUSH2 0x24C1 JUMP JUMPDEST PUSH1 0x40 MLOAD PUSH4 0x32505749 PUSH1 0xE1 SHL DUP2 MSTORE PUSH1 0x0 PUSH1 0x4 DUP3 ADD MSTORE PUSH1 0x24 SWAP1 REVERT JUMPDEST PUSH1 0x4 DUP3 LT ISZERO PUSH2 0x1F26 JUMPI MSTORE JUMP JUMPDEST PUSH2 0x2531 DUP2 PUSH2 0x2606 JUMP JUMPDEST DUP3 LT ISZERO PUSH2 0x256A JUMPI PUSH1 0x1 DUP1 PUSH1 0xA0 SHL SUB AND PUSH1 0x0 MSTORE PUSH1 0x0 DUP1 MLOAD PUSH1 0x20 PUSH2 0x2CBA DUP4 CODECOPY DUP2 MLOAD SWAP2 MSTORE PUSH1 0x20 MSTORE PUSH1 0x40 PUSH1 0x0 KECCAK256 SWAP1 PUSH1 0x0 MSTORE PUSH1 0x20 MSTORE PUSH1 0x40 PUSH1 0x0 KECCAK256 SLOAD SWAP1 JUMP JUMPDEST PUSH1 0x40 MLOAD PUSH4 0x295F44F7 PUSH1 0xE2 SHL DUP2 MSTORE PUSH1 0x1 PUSH1 0x1 PUSH1 0xA0 SHL SUB SWAP2 SWAP1 SWAP2 AND PUSH1 0x4 DUP3 ADD MSTORE PUSH1 0x24 DUP2 ADD SWAP2 SWAP1 SWAP2 MSTORE PUSH1 0x44 SWAP1 REVERT JUMPDEST PUSH1 0x0 DUP1 MLOAD PUSH1 0x20 PUSH2 0x2CDA DUP4 CODECOPY DUP2 MLOAD SWAP2 MSTORE DUP1 SLOAD DUP3 LT ISZERO PUSH2 0x25D8 JUMPI PUSH1 0x0 MSTORE PUSH32 0xA42F15E5D656F8155FD7419D740A6073999F19CD6E061449CE4A257150545BF2 ADD SWAP1 PUSH1 0x0 SWAP1 JUMP JUMPDEST PUSH4 0x4E487B71 PUSH1 0xE0 SHL PUSH1 0x0 MSTORE PUSH1 0x32 PUSH1 0x4 MSTORE PUSH1 0x24 PUSH1 0x0 REVERT JUMPDEST PUSH8 0xFFFFFFFFFFFFFFFF DUP2 GT PUSH2 0x1F8D JUMPI PUSH1 0x5 SHL PUSH1 0x20 ADD SWAP1 JUMP JUMPDEST PUSH1 0x1 PUSH1 0x1 PUSH1 0xA0 SHL SUB DUP2 AND ISZERO PUSH2 0x2622 JUMPI PUSH2 0x261E SWAP1 PUSH2 0x2187 JUMP JUMPDEST SLOAD SWAP1 JUMP JUMPDEST PUSH1 0x40 MLOAD PUSH4 0x22718AD9 PUSH1 0xE2 SHL DUP2 MSTORE PUSH1 0x0 PUSH1 0x4 DUP3 ADD MSTORE PUSH1 0x24 SWAP1 REVERT JUMPDEST SWAP1 PUSH1 0x3 DUP2 LT PUSH2 0x2677 JUMPI PUSH1 0xFF SWAP2 PUSH2 0x2653 PUSH2 0x2671 SWAP3 PUSH2 0x280C JUMP JUMPDEST PUSH1 0x1 PUSH1 0x1 PUSH1 0xA0 SHL SUB SWAP1 SWAP2 AND PUSH1 0x0 SWAP1 DUP2 MSTORE PUSH1 0x3 PUSH1 0x20 MSTORE PUSH1 0x40 SWAP1 KECCAK256 PUSH2 0x21C0 JUMP JUMPDEST SLOAD AND ISZERO SWAP1 JUMP JUMPDEST POP POP PUSH1 0x0 SWAP1 JUMP JUMPDEST PUSH1 0x4 DUP2 LT ISZERO PUSH2 0x1F26 JUMPI PUSH1 0x3 DUP2 EQ PUSH2 0x2703 JUMPI PUSH1 0x2 DUP2 EQ PUSH2 0x26E2 JUMPI PUSH1 0x1 EQ PUSH2 0x26C0 JUMPI PUSH1 0x40 MLOAD PUSH2 0x26AA DUP2 PUSH2 0x1FBF JUMP JUMPDEST PUSH1 0x6 DUP2 MSTORE PUSH6 0x42726F6E7A65 PUSH1 0xD0 SHL PUSH1 0x20 DUP3 ADD MSTORE SWAP1 JUMP JUMPDEST PUSH1 0x40 MLOAD PUSH2 0x26CC DUP2 PUSH2 0x1FBF JUMP JUMPDEST PUSH1 0x6 DUP2 MSTORE PUSH6 0x29B4B63B32B9 PUSH1 0xD1 SHL PUSH1 0x20 DUP3 ADD MSTORE SWAP1 JUMP JUMPDEST POP PUSH1 0x40 MLOAD PUSH2 0x26EF DUP2 PUSH2 0x1FBF JUMP JUMPDEST PUSH1 0x4 DUP2 MSTORE PUSH4 0x11DBDB19 PUSH1 0xE2 SHL PUSH1 0x20 DUP3 ADD MSTORE SWAP1 JUMP JUMPDEST POP PUSH1 0x40 MLOAD PUSH2 0x2710 DUP2 PUSH2 0x1FBF JUMP JUMPDEST PUSH1 0x7 DUP2 MSTORE PUSH7 0x111A585B5BDB99 PUSH1 0xCA SHL PUSH1 0x20 DUP3 ADD MSTORE SWAP1 JUMP JUMPDEST PUSH1 0x0 DUP2 DUP2 MSTORE PUSH32 0x80BB2B638CC20BC4D0A60D66940F3AB4A00C1D7B313497CA82FB0B4AB0079302 PUSH1 0x20 MSTORE PUSH1 0x40 SWAP1 KECCAK256 SLOAD PUSH1 0x1 PUSH1 0x1 PUSH1 0xA0 SHL SUB AND SWAP1 DUP2 ISZERO PUSH2 0x2769 JUMPI POP SWAP1 JUMP JUMPDEST PUSH1 0x24 SWAP1 PUSH1 0x40 MLOAD SWAP1 PUSH4 0x7E273289 PUSH1 0xE0 SHL DUP3 MSTORE PUSH1 0x4 DUP3 ADD MSTORE REVERT JUMPDEST CALLER PUSH1 0x0 SWAP1 DUP2 MSTORE PUSH32 0xB7DB2DD08FCB62D0C9E08C51941CAE53C267786A0B75803FB7960902FC8EF97D PUSH1 0x20 MSTORE PUSH1 0x40 DUP2 KECCAK256 SLOAD PUSH1 0xFF AND ISZERO PUSH2 0x27BB JUMPI POP JUMP JUMPDEST PUSH1 0x44 SWAP1 PUSH1 0x40 MLOAD SWAP1 PUSH4 0xE2517D3F PUSH1 0xE0 SHL DUP3 MSTORE CALLER PUSH1 0x4 DUP4 ADD MSTORE PUSH1 0x24 DUP3 ADD MSTORE REVERT JUMPDEST DUP1 PUSH1 0x0 MSTORE PUSH1 0x0 DUP1 MLOAD PUSH1 0x20 PUSH2 0x2CFA DUP4 CODECOPY DUP2 MLOAD SWAP2 MSTORE PUSH1 0x20 MSTORE PUSH1 0x40 PUSH1 0x0 KECCAK256 CALLER PUSH1 0x0 MSTORE PUSH1 0x20 MSTORE PUSH1 0xFF PUSH1 0x40 PUSH1 0x0 KECCAK256 SLOAD AND ISZERO PUSH2 0x27BB JUMPI POP JUMP JUMPDEST PUSH1 0x1E DUP2 LT ISZERO PUSH2 0x2836 JUMPI PUSH1 0xF DUP2 LT ISZERO PUSH2 0x2830 JUMPI PUSH1 0x7 GT ISZERO PUSH2 0x282B JUMPI PUSH1 0x0 SWAP1 JUMP JUMPDEST PUSH1 0x1 SWAP1 JUMP JUMPDEST POP PUSH1 0x2 SWAP1 JUMP JUMPDEST POP PUSH1 0x3 SWAP1 JUMP JUMPDEST PUSH1 0x1 PUSH1 0x1 PUSH1 0xA0 SHL SUB AND PUSH1 0x0 DUP2 DUP2 MSTORE PUSH32 0xB7DB2DD08FCB62D0C9E08C51941CAE53C267786A0B75803FB7960902FC8EF97D PUSH1 0x20 MSTORE PUSH1 0x40 DUP2 KECCAK256 SLOAD SWAP1 SWAP2 SWAP1 PUSH1 0x0 DUP1 MLOAD PUSH1 0x20 PUSH2 0x2CFA DUP4 CODECOPY DUP2 MLOAD SWAP2 MSTORE SWAP1 PUSH1 0xFF AND PUSH2 0x28D7 JUMPI DUP3 DUP1 MSTORE PUSH1 0x20 MSTORE PUSH1 0x40 DUP3 KECCAK256 DUP2 DUP4 MSTORE PUSH1 0x20 MSTORE PUSH1 0x40 DUP3 KECCAK256 PUSH1 0x1 PUSH1 0xFF NOT DUP3 SLOAD AND OR SWAP1 SSTORE CALLER SWAP2 PUSH32 0x2F8788117E7EFF1D82E926EC794901D17C78024A50270940304540A733656F0D DUP2 DUP1 LOG4 PUSH1 0x1 SWAP1 JUMP JUMPDEST POP POP SWAP1 JUMP JUMPDEST PUSH1 0x1 PUSH1 0x1 PUSH1 0xA0 SHL SUB AND PUSH1 0x0 DUP2 DUP2 MSTORE PUSH32 0x549FE2656C81D2947B3B913F0A53B9EA86C71E049F3A1B8AA23C09A8A05CB8D4 PUSH1 0x20 MSTORE PUSH1 0x40 DUP2 KECCAK256 SLOAD SWAP1 SWAP2 SWAP1 PUSH32 0x9F2DF0FED2C77648DE5860A4CC508CD0818C85B8B8A1AB4CEEEF8D981C8956A6 SWAP1 PUSH1 0x0 DUP1 MLOAD PUSH1 0x20 PUSH2 0x2CFA DUP4 CODECOPY DUP2 MLOAD SWAP2 MSTORE SWAP1 PUSH1 0xFF AND PUSH2 0x2998 JUMPI DUP2 DUP5 MSTORE PUSH1 0x20 MSTORE PUSH1 0x40 DUP4 KECCAK256 DUP3 DUP5 MSTORE PUSH1 0x20 MSTORE PUSH1 0x40 DUP4 KECCAK256 PUSH1 0x1 PUSH1 0xFF NOT DUP3 SLOAD AND OR SWAP1 SSTORE PUSH32 0x2F8788117E7EFF1D82E926EC794901D17C78024A50270940304540A733656F0D CALLER SWAP4 DUP1 LOG4 PUSH1 0x1 SWAP1 JUMP JUMPDEST POP POP POP SWAP1 JUMP JUMPDEST SWAP1 PUSH1 0x0 SWAP2 DUP1 DUP4 MSTORE PUSH1 0x0 DUP1 MLOAD PUSH1 0x20 PUSH2 0x2CFA DUP4 CODECOPY DUP2 MLOAD SWAP2 MSTORE DUP1 PUSH1 0x20 MSTORE PUSH1 0x40 DUP5 KECCAK256 SWAP3 PUSH1 0x1 DUP1 PUSH1 0xA0 SHL SUB AND SWAP3 DUP4 DUP6 MSTORE PUSH1 0x20 MSTORE PUSH1 0xFF PUSH1 0x40 DUP6 KECCAK256 SLOAD AND ISZERO PUSH1 0x0 EQ PUSH2 0x2998 JUMPI DUP2 DUP5 MSTORE PUSH1 0x20 MSTORE PUSH1 0x40 DUP4 KECCAK256 DUP3 DUP5 MSTORE PUSH1 0x20 MSTORE PUSH1 0x40 DUP4 KECCAK256 PUSH1 0x1 PUSH1 0xFF NOT DUP3 SLOAD AND OR SWAP1 SSTORE PUSH32 0x2F8788117E7EFF1D82E926EC794901D17C78024A50270940304540A733656F0D CALLER SWAP4 DUP1 LOG4 PUSH1 0x1 SWAP1 JUMP JUMPDEST SWAP1 PUSH1 0x0 SWAP2 DUP1 DUP4 MSTORE PUSH1 0x0 DUP1 MLOAD PUSH1 0x20 PUSH2 0x2CFA DUP4 CODECOPY DUP2 MLOAD SWAP2 MSTORE DUP1 PUSH1 0x20 MSTORE PUSH1 0x40 DUP5 KECCAK256 SWAP3 PUSH1 0x1 DUP1 PUSH1 0xA0 SHL SUB AND SWAP3 DUP4 DUP6 MSTORE PUSH1 0x20 MSTORE PUSH1 0xFF PUSH1 0x40 DUP6 KECCAK256 SLOAD AND PUSH1 0x0 EQ PUSH2 0x2998 JUMPI DUP2 DUP5 MSTORE PUSH1 0x20 MSTORE PUSH1 0x40 DUP4 KECCAK256 DUP3 DUP5 MSTORE PUSH1 0x20 MSTORE PUSH1 0x40 DUP4 KECCAK256 PUSH1 0xFF NOT DUP2 SLOAD AND SWAP1 SSTORE PUSH32 0xF6391F5C32D9C69D2A47EA670B442974B53935D1EDC7FD64EB21E047A839171B CALLER SWAP4 DUP1 LOG4 PUSH1 0x1 SWAP1 JUMP JUMPDEST RETURNDATASIZE ISZERO PUSH2 0x2AD3 JUMPI RETURNDATASIZE SWAP1 PUSH2 0x2AB9 DUP3 PUSH2 0x1FFD JUMP JUMPDEST SWAP2 PUSH2 0x2AC7 PUSH1 0x40 MLOAD SWAP4 DUP5 PUSH2 0x1FDB JUMP JUMPDEST DUP3 MSTORE RETURNDATASIZE PUSH1 0x0 PUSH1 0x20 DUP5 ADD RETURNDATACOPY JUMP JUMPDEST PUSH1 0x60 SWAP1 JUMP JUMPDEST SWAP3 SWAP4 DUP3 EXTCODESIZE PUSH2 0x2AE8 JUMPI JUMPDEST POP POP POP POP POP JUMP JUMPDEST PUSH2 0x2B2C SWAP1 PUSH1 0x1 DUP1 PUSH1 0xA0 SHL SUB DUP1 SWAP5 AND SWAP6 PUSH1 0x40 MLOAD SWAP5 DUP6 SWAP5 DUP2 PUSH4 0xA85BD01 PUSH1 0xE1 SHL SWAP9 DUP10 DUP9 MSTORE AND PUSH1 0x4 DUP8 ADD MSTORE AND PUSH1 0x24 DUP6 ADD MSTORE PUSH1 0x44 DUP5 ADD MSTORE PUSH1 0x80 PUSH1 0x64 DUP5 ADD MSTORE PUSH1 0x84 DUP4 ADD SWAP1 PUSH2 0x1EC3 JUMP JUMPDEST SUB SWAP1 PUSH1 0x20 DUP2 PUSH1 0x0 SWAP4 DUP2 DUP6 DUP9 GAS CALL SWAP1 DUP3 SWAP1 DUP3 PUSH2 0x2BAC JUMPI JUMPDEST POP POP PUSH2 0x2B7A JUMPI DUP3 PUSH2 0x2B51 PUSH2 0x2AA8 JUMP JUMPDEST DUP1 MLOAD SWAP2 SWAP1 DUP3 PUSH2 0x2B73 JUMPI PUSH1 0x40 MLOAD PUSH4 0x32505749 PUSH1 0xE1 SHL DUP2 MSTORE PUSH1 0x4 DUP2 ADD DUP4 SWAP1 MSTORE PUSH1 0x24 SWAP1 REVERT JUMPDEST SWAP1 POP PUSH1 0x20 ADD REVERT JUMPDEST PUSH1 0x1 PUSH1 0x1 PUSH1 0xE0 SHL SUB NOT AND SUB PUSH2 0x2B94 JUMPI POP CODESIZE DUP1 DUP1 DUP1 DUP1 PUSH2 0x2AE1 JUMP JUMPDEST PUSH1 0x24 SWAP1 PUSH1 0x40 MLOAD SWAP1 PUSH4 0x32505749 PUSH1 0xE1 SHL DUP3 MSTORE PUSH1 0x4 DUP3 ADD MSTORE REVERT JUMPDEST SWAP1 SWAP2 SWAP3 POP PUSH1 0x20 DUP2 RETURNDATASIZE PUSH1 0x20 GT PUSH2 0x2BED JUMPI JUMPDEST DUP2 PUSH2 0x2BC9 PUSH1 0x20 SWAP4 DUP4 PUSH2 0x1FDB JUMP JUMPDEST DUP2 ADD SUB SLT PUSH2 0x202 JUMPI MLOAD SWAP1 PUSH1 0x1 PUSH1 0x1 PUSH1 0xE0 SHL SUB NOT DUP3 AND DUP3 SUB PUSH2 0x292 JUMPI POP SWAP1 CODESIZE DUP1 PUSH2 0x2B42 JUMP JUMPDEST RETURNDATASIZE SWAP2 POP PUSH2 0x2BBC JUMP JUMPDEST PUSH1 0xFF PUSH32 0xF0C57E16840DF040F15088DC2F81FE391C3923BEC73E23A9662EFC9C229C6A00 SLOAD PUSH1 0x40 SHR AND ISZERO PUSH2 0x2C24 JUMPI JUMP JUMPDEST PUSH1 0x40 MLOAD PUSH4 0x1AFCD79F PUSH1 0xE3 SHL DUP2 MSTORE PUSH1 0x4 SWAP1 REVERT JUMPDEST SWAP1 PUSH2 0x2C5D JUMPI POP DUP1 MLOAD ISZERO PUSH2 0x2C4B JUMPI DUP1 MLOAD SWAP1 PUSH1 0x20 ADD REVERT JUMPDEST PUSH1 0x40 MLOAD PUSH4 0xD6BDA275 PUSH1 0xE0 SHL DUP2 MSTORE PUSH1 0x4 SWAP1 REVERT JUMPDEST DUP2 MLOAD ISZERO DUP1 PUSH2 0x2C90 JUMPI JUMPDEST PUSH2 0x2C6E JUMPI POP SWAP1 JUMP JUMPDEST PUSH1 0x40 MLOAD PUSH4 0x9996B315 PUSH1 0xE0 SHL DUP2 MSTORE PUSH1 0x1 PUSH1 0x1 PUSH1 0xA0 SHL SUB SWAP1 SWAP2 AND PUSH1 0x4 DUP3 ADD MSTORE PUSH1 0x24 SWAP1 REVERT JUMPDEST POP DUP1 EXTCODESIZE ISZERO PUSH2 0x2C66 JUMP INVALID PUSH5 0x5E03970549 STOP DUP9 0xDA 0xAD DUP10 0xBA 0xE2 POP BLOBHASH LOG3 0x4F BLOBBASEFEE SWAP1 PUSH19 0xD398537B1AB2425F24CBED01645E0397054900 DUP9 0xDA 0xAD DUP10 0xBA 0xE2 POP BLOBHASH LOG3 0x4F BLOBBASEFEE SWAP1 PUSH19 0xD398537B1AB2425F24CBED00645E0397054900 DUP9 0xDA 0xAD DUP10 0xBA 0xE2 POP BLOBHASH LOG3 0x4F BLOBBASEFEE SWAP1 PUSH19 0xD398537B1AB2425F24CBED0202DD7BC7DEC4DC 0xEE 0xDD 0xA7 PUSH22 0xE58DD541E08A116C6C53815C0BD028192F7B626800B1 0xE 0x2D MSTORE PUSH23 0x12073B26EECDFD717E6A320CF44B4AFAC2B0732D9FCBE2 0xB7 STATICCALL 0xC 0xF6 DUP1 0xBB 0x2B PUSH4 0x8CC20BC4 0xD0 0xA6 0xD PUSH7 0x940F3AB4A00C1D PUSH28 0x313497CA82FB0B4AB0079304A26469706673582212203548BD02814F DUP11 0x1F 0x4B 0x23 MCOPY 0xC5 EXTCODEHASH NOT SWAP16 CALLVALUE 0x4B 0xFC SWAP4 SWAP3 0xD4 SLOAD PUSH20 0x128A87C4D5BE64BF2264736F6C63430008180033 "},"methodIdentifiers":{"BRONZE_STREAK()":"c5aea25d","DEFAULT_ADMIN_ROLE()":"a217fddf","DIAMOND_STREAK()":"ea4292a0","GOLD_STREAK()":"51a23f7c","MINTER_ROLE()":"d5391393","SILVER_STREAK()":"0c910bd5","UPGRADE_INTERFACE_VERSION()":"ad3cb1cc","approve(address,uint256)":"095ea7b3","balanceOf(address)":"70a08231","baseURI()":"6c0360eb","getApproved(uint256)":"081812fc","getRoleAdmin(bytes32)":"248a9ca3","getTierName(uint8)":"e64bd593","getTokenMeta(uint256)":"b40e5570","getUserNFTs(address)":"52de4ee5","grantRole(bytes32,address)":"2f2ff15d","hasRole(bytes32,address)":"91d14854","hasTierNFT(address,uint8)":"75036bc0","initialize(string,string,string)":"a6487c53","isApprovedForAll(address,address)":"e985e9c5","mintStreakNFT(address,uint256,uint256)":"2a44d3a3","name()":"06fdde03","nextTokenId()":"75794a3c","ownerOf(uint256)":"6352211e","proxiableUUID()":"52d1902d","qualifiesForMint(address,uint256)":"bb657a00","renounceRole(bytes32,address)":"36568abe","revokeRole(bytes32,address)":"d547741f","safeTransferFrom(address,address,uint256)":"42842e0e","safeTransferFrom(address,address,uint256,bytes)":"b88d4fde","setApprovalForAll(address,bool)":"a22cb465","setBaseURI(string)":"55f804b3","supportsInterface(bytes4)":"01ffc9a7","symbol()":"95d89b41","tokenByIndex(uint256)":"4f6ccce7","tokenMeta(uint256)":"0ae7a310","tokenOfOwnerByIndex(address,uint256)":"2f745c59","tokenURI(uint256)":"c87b56dd","totalSupply()":"18160ddd","transferFrom(address,address,uint256)":"23b872dd","upgradeToAndCall(address,bytes)":"4f1ef286"}},"storageLayout":{"storage":[{"astId":9456,"contract":"contracts/PredictionNFT.sol:PredictionNFT","label":"nextTokenId","offset":0,"slot":"0","type":"t_uint256"},{"astId":9458,"contract":"contracts/PredictionNFT.sol:PredictionNFT","label":"baseURI","offset":0,"slot":"1","type":"t_string_storage"},{"astId":9463,"contract":"contracts/PredictionNFT.sol:PredictionNFT","label":"tokenMeta","offset":0,"slot":"2","type":"t_mapping(t_uint256,t_struct(NFTMeta)9454_storage)"},{"astId":9470,"contract":"contracts/PredictionNFT.sol:PredictionNFT","label":"hasTierNFT","offset":0,"slot":"3","type":"t_mapping(t_address,t_mapping(t_enum(Tier)9444,t_bool))"}],"types":{"t_address":{"encoding":"inplace","label":"address","numberOfBytes":"20"},"t_bool":{"encoding":"inplace","label":"bool","numberOfBytes":"1"},"t_enum(Tier)9444":{"encoding":"inplace","label":"enum PredictionNFT.Tier","numberOfBytes":"1"},"t_mapping(t_address,t_mapping(t_enum(Tier)9444,t_bool))":{"encoding":"mapping","key":"t_address","label":"mapping(address => mapping(enum PredictionNFT.Tier => bool))","numberOfBytes":"32","value":"t_mapping(t_enum(Tier)9444,t_bool)"},"t_mapping(t_enum(Tier)9444,t_bool)":{"encoding":"mapping","key":"t_enum(Tier)9444","label":"mapping(enum PredictionNFT.Tier => bool)","numberOfBytes":"32","value":"t_bool"},"t_mapping(t_uint256,t_struct(NFTMeta)9454_storage)":{"encoding":"mapping","key":"t_uint256","label":"mapping(uint256 => struct PredictionNFT.NFTMeta)","numberOfBytes":"32","value":"t_struct(NFTMeta)9454_storage"},"t_string_storage":{"encoding":"bytes","label":"string","numberOfBytes":"32"},"t_struct(NFTMeta)9454_storage":{"encoding":"inplace","label":"struct PredictionNFT.NFTMeta","members":[{"astId":9447,"contract":"contracts/PredictionNFT.sol:PredictionNFT","label":"tier","offset":0,"slot":"0","type":"t_enum(Tier)9444"},{"astId":9449,"contract":"contracts/PredictionNFT.sol:PredictionNFT","label":"streak","offset":0,"slot":"1","type":"t_uint256"},{"astId":9451,"contract":"contracts/PredictionNFT.sol:PredictionNFT","label":"mintedAt","offset":0,"slot":"2","type":"t_uint256"},{"astId":9453,"contract":"contracts/PredictionNFT.sol:PredictionNFT","label":"eventId","offset":0,"slot":"3","type":"t_uint256"}],"numberOfBytes":"128"},"t_uint256":{"encoding":"inplace","label":"uint256","numberOfBytes":"32"}}}}}}