{"contracts/VRFBonusDistributor.sol":{"VRFBonusDistributor":{"abi":[{"inputs":[{"internalType":"address","name":"_vrfCoordinator","type":"address"},{"internalType":"bytes32","name":"_keyHash","type":"bytes32"},{"internalType":"uint64","name":"_subscriptionId","type":"uint64"}],"stateMutability":"nonpayable","type":"constructor"},{"inputs":[],"name":"AccessControlBadConfirmation","type":"error"},{"inputs":[{"internalType":"address","name":"account","type":"address"},{"internalType":"bytes32","name":"neededRole","type":"bytes32"}],"name":"AccessControlUnauthorizedAccount","type":"error"},{"inputs":[],"name":"ReentrancyGuardReentrantCall","type":"error"},{"anonymous":false,"inputs":[{"indexed":true,"internalType":"uint256","name":"index","type":"uint256"},{"indexed":false,"internalType":"uint256","name":"randomWord","type":"uint256"},{"indexed":false,"internalType":"uint256","name":"bonusResult","type":"uint256"}],"name":"BonusFulfilled","type":"event"},{"anonymous":false,"inputs":[{"indexed":true,"internalType":"uint256","name":"index","type":"uint256"},{"indexed":false,"internalType":"uint256","name":"vrfRequestId","type":"uint256"},{"indexed":false,"internalType":"enum VRFBonusDistributor.BonusType","name":"bonusType","type":"uint8"},{"indexed":false,"internalType":"address","name":"beneficiary","type":"address"}],"name":"BonusRequested","type":"event"},{"anonymous":false,"inputs":[{"indexed":true,"internalType":"address","name":"participant","type":"address"}],"name":"LotteryEntered","type":"event"},{"anonymous":false,"inputs":[{"indexed":false,"internalType":"uint256","name":"participants","type":"uint256"},{"indexed":false,"internalType":"uint256","name":"prize","type":"uint256"}],"name":"LotteryReset","type":"event"},{"anonymous":false,"inputs":[{"indexed":true,"internalType":"bytes32","name":"role","type":"bytes32"},{"indexed":true,"internalType":"bytes32","name":"previousAdminRole","type":"bytes32"},{"indexed":true,"internalType":"bytes32","name":"newAdminRole","type":"bytes32"}],"name":"RoleAdminChanged","type":"event"},{"anonymous":false,"inputs":[{"indexed":true,"internalType":"bytes32","name":"role","type":"bytes32"},{"indexed":true,"internalType":"address","name":"account","type":"address"},{"indexed":true,"internalType":"address","name":"sender","type":"address"}],"name":"RoleGranted","type":"event"},{"anonymous":false,"inputs":[{"indexed":true,"internalType":"bytes32","name":"role","type":"bytes32"},{"indexed":true,"internalType":"address","name":"account","type":"address"},{"indexed":true,"internalType":"address","name":"sender","type":"address"}],"name":"RoleRevoked","type":"event"},{"inputs":[],"name":"DEFAULT_ADMIN_ROLE","outputs":[{"internalType":"bytes32","name":"","type":"bytes32"}],"stateMutability":"view","type":"function"},{"inputs":[],"name":"MAX_LUCKY_MULT","outputs":[{"internalType":"uint256","name":"","type":"uint256"}],"stateMutability":"view","type":"function"},{"inputs":[],"name":"MIN_LUCKY_MULT","outputs":[{"internalType":"uint256","name":"","type":"uint256"}],"stateMutability":"view","type":"function"},{"inputs":[],"name":"OPERATOR_ROLE","outputs":[{"internalType":"bytes32","name":"","type":"bytes32"}],"stateMutability":"view","type":"function"},{"inputs":[],"name":"callbackGasLimit","outputs":[{"internalType":"uint32","name":"","type":"uint32"}],"stateMutability":"view","type":"function"},{"inputs":[{"internalType":"address","name":"participant","type":"address"}],"name":"enterLottery","outputs":[],"stateMutability":"nonpayable","type":"function"},{"inputs":[],"name":"fundLottery","outputs":[],"stateMutability":"payable","type":"function"},{"inputs":[],"name":"getLotteryParticipantCount","outputs":[{"internalType":"uint256","name":"","type":"uint256"}],"stateMutability":"view","type":"function"},{"inputs":[{"internalType":"uint256","name":"index","type":"uint256"}],"name":"getRequest","outputs":[{"components":[{"internalType":"uint256","name":"requestId","type":"uint256"},{"internalType":"enum VRFBonusDistributor.BonusType","name":"bonusType","type":"uint8"},{"internalType":"address","name":"beneficiary","type":"address"},{"internalType":"uint256","name":"baseAmount","type":"uint256"},{"internalType":"bool","name":"fulfilled","type":"bool"},{"internalType":"uint256","name":"randomWord","type":"uint256"},{"internalType":"uint256","name":"bonusResult","type":"uint256"}],"internalType":"struct VRFBonusDistributor.BonusRequest","name":"","type":"tuple"}],"stateMutability":"view","type":"function"},{"inputs":[{"internalType":"bytes32","name":"role","type":"bytes32"}],"name":"getRoleAdmin","outputs":[{"internalType":"bytes32","name":"","type":"bytes32"}],"stateMutability":"view","type":"function"},{"inputs":[{"internalType":"bytes32","name":"role","type":"bytes32"},{"internalType":"address","name":"account","type":"address"}],"name":"grantRole","outputs":[],"stateMutability":"nonpayable","type":"function"},{"inputs":[{"internalType":"bytes32","name":"role","type":"bytes32"},{"internalType":"address","name":"account","type":"address"}],"name":"hasRole","outputs":[{"internalType":"bool","name":"","type":"bool"}],"stateMutability":"view","type":"function"},{"inputs":[],"name":"keyHash","outputs":[{"internalType":"bytes32","name":"","type":"bytes32"}],"stateMutability":"view","type":"function"},{"inputs":[{"internalType":"uint256","name":"","type":"uint256"}],"name":"lotteryParticipants","outputs":[{"internalType":"address","name":"","type":"address"}],"stateMutability":"view","type":"function"},{"inputs":[],"name":"lotteryPrize","outputs":[{"internalType":"uint256","name":"","type":"uint256"}],"stateMutability":"view","type":"function"},{"inputs":[{"internalType":"uint256","name":"index","type":"uint256"}],"name":"payoutLotteryWinner","outputs":[],"stateMutability":"nonpayable","type":"function"},{"inputs":[{"internalType":"uint256","name":"requestId","type":"uint256"},{"internalType":"uint256[]","name":"randomWords","type":"uint256[]"}],"name":"rawFulfillRandomWords","outputs":[],"stateMutability":"nonpayable","type":"function"},{"inputs":[{"internalType":"bytes32","name":"role","type":"bytes32"},{"internalType":"address","name":"callerConfirmation","type":"address"}],"name":"renounceRole","outputs":[],"stateMutability":"nonpayable","type":"function"},{"inputs":[],"name":"requestConfirmations","outputs":[{"internalType":"uint16","name":"","type":"uint16"}],"stateMutability":"view","type":"function"},{"inputs":[],"name":"requestCount","outputs":[{"internalType":"uint256","name":"","type":"uint256"}],"stateMutability":"view","type":"function"},{"inputs":[{"internalType":"address","name":"user","type":"address"},{"internalType":"uint256","name":"basePoints","type":"uint256"}],"name":"requestLuckyCheckinBonus","outputs":[{"internalType":"uint256","name":"","type":"uint256"}],"stateMutability":"nonpayable","type":"function"},{"inputs":[{"internalType":"address","name":"user","type":"address"}],"name":"requestRareDrop","outputs":[{"internalType":"uint256","name":"","type":"uint256"}],"stateMutability":"nonpayable","type":"function"},{"inputs":[],"name":"requestWeeklyLottery","outputs":[{"internalType":"uint256","name":"","type":"uint256"}],"stateMutability":"nonpayable","type":"function"},{"inputs":[{"internalType":"uint256","name":"","type":"uint256"}],"name":"requests","outputs":[{"internalType":"uint256","name":"requestId","type":"uint256"},{"internalType":"enum VRFBonusDistributor.BonusType","name":"bonusType","type":"uint8"},{"internalType":"address","name":"beneficiary","type":"address"},{"internalType":"uint256","name":"baseAmount","type":"uint256"},{"internalType":"bool","name":"fulfilled","type":"bool"},{"internalType":"uint256","name":"randomWord","type":"uint256"},{"internalType":"uint256","name":"bonusResult","type":"uint256"}],"stateMutability":"view","type":"function"},{"inputs":[],"name":"resetLottery","outputs":[],"stateMutability":"nonpayable","type":"function"},{"inputs":[{"internalType":"bytes32","name":"role","type":"bytes32"},{"internalType":"address","name":"account","type":"address"}],"name":"revokeRole","outputs":[],"stateMutability":"nonpayable","type":"function"},{"inputs":[{"internalType":"bytes32","name":"_keyHash","type":"bytes32"},{"internalType":"uint64","name":"_subscriptionId","type":"uint64"},{"internalType":"uint16","name":"_requestConfirmations","type":"uint16"},{"internalType":"uint32","name":"_callbackGasLimit","type":"uint32"}],"name":"setVRFConfig","outputs":[],"stateMutability":"nonpayable","type":"function"},{"inputs":[],"name":"subscriptionId","outputs":[{"internalType":"uint64","name":"","type":"uint64"}],"stateMutability":"view","type":"function"},{"inputs":[{"internalType":"bytes4","name":"interfaceId","type":"bytes4"}],"name":"supportsInterface","outputs":[{"internalType":"bool","name":"","type":"bool"}],"stateMutability":"view","type":"function"},{"inputs":[],"name":"vrfCoordinator","outputs":[{"internalType":"contract IVRFCoordinatorV2Plus","name":"","type":"address"}],"stateMutability":"view","type":"function"},{"stateMutability":"payable","type":"receive"}],"evm":{"bytecode":{"linkReferences":{},"object":"60803462000117576001600160401b03601f6200193a38819003918201601f1916840191838311858410176200011c57808592606094604052833981010312620001175781516001600160a01b0381169290839003620001175760406020820151910151918216809203620001175760018055600454908315620000df57600280546001600160a01b0319169094179093556003929092556001600160701b031991909116176c030d400003000000000000000017600455620000c23362000132565b50620000ce33620001b2565b506040516116c59081620002558239f35b60405162461bcd60e51b815260206004820152601060248201526f2d32b9379031b7b7b93234b730ba37b960811b6044820152606490fd5b600080fd5b634e487b7160e01b600052604160045260246000fd5b6001600160a01b031660008181527fad3228b676f7d3cd4284a5443f17f1962b36e491b30a40b2405849e597ba5fb5602052604081205490919060ff16620001ae57818052816020526040822081835260205260408220600160ff1982541617905533916000805160206200191a8339815191528180a4600190565b5090565b6001600160a01b031660008181527fee57cd81e84075558e8fcc182a1f4393f91fc97f963a136e66b7f949a62f319f60205260408120549091907f97667070c54ef182b0f5858b034beac1b6f3089aa2d3188bb1e8929f4fa9b9299060ff166200024f57808352826020526040832082845260205260408320600160ff198254161790556000805160206200191a833981519152339380a4600190565b50509056fe6080604081815260049182361015610022575b505050361561002057600080fd5b005b600092833560e01c91826301ffc9a7146113a85750816309c1ba2e146113805781630e23f3f2146111b85781631fe543e314610ec3578163248a9ca314610e9957816324f7469714610e725781632f2ff15d14610e4857816336568abe14610e025781633a13971214610bc257816356d0bcf114610ba35781635badbe4c14610b8457816361728f3914610b65578163708ee37014610b485781637ae6842c14610b2a57816381d12c5814610aaa57816391d1485414610a64578163a217fddf14610a49578163a3e56fa814610a20578163b0fb162f146109fc578163b2e65bcf1461092f578163b5cc4539146108c0578163c1196ecf146108a1578163c58343ef146107aa578163cd9aff8414610594578163d337616e146104f6578163d547741f146104b7578163d82c4649146102a2578163e3a0b95014610201578163f59aabcd146101b9575063f5b541a61461017c5780610012565b346101b557816003193601126101b557602090517f97667070c54ef182b0f5858b034beac1b6f3089aa2d3188bb1e8929f4fa9b9298152f35b5080fd5b9050346101fd5760203660031901126101fd5735916008548310156101fa57506101e460209261144f565b905491519160018060a01b039160031b1c168152f35b80fd5b8280fd5b8390346101b55760203660031901126101b55761021c6113fb565b906102256114fc565b600854906801000000000000000082101561028f575080600161024b920160085561144f565b9160018060a01b038091169282549060031b9184831b921b19161790557f4c72b57c1ca715219cf2c7be9edc8a3ea19dfb9a76fb7a05e2a8062a027ee9708280a280f35b634e487b7160e01b845260419052602483fd5b919050346101fd57602092836003193601126101fa5781906102c26113fb565b906102cb6114fc565b60018060a01b039186836002541660a488856003549363ffffffff835461ffff818d519d8e998a986305d3b1d360e41b8a5289015267ffffffffffffffff821660248901521c16604486015260501c166064840152600160848401525af19384156104ad57829461047e575b50600554600019811461046b576001018096816005558887519361035a856114a8565b8785528185019660028852808a870192169788835260608701918883526080880193898552600660a08a01968b885260c08b01998c8b528c52528c8a2098518955600189019251600381101561045857835491516001600160a81b031990921660ff90911617911660081b610100600160a81b03161790558a987f49bc1709ab79728dc57e19bc28889ef83e403e7133404cec671a1e5e34d249d398606098919790968b968d96939592946005949293919291610430915b516002880155511515600387019060ff801983541691151516179055565b51908401555191015584815260078b522055855191825260028883015285820152a251908152f35b634e487b7160e01b8b526021885260248bfd5b634e487b7160e01b835260118752602483fd5b9093508681813d83116104a6575b61049681836114da565b810103126101b557519238610337565b503d61048c565b85513d84823e3d90fd5b919050346101fd57806003193601126101fd576104f291356104ed60016104dc611416565b938387528660205286200154611576565b61161a565b5080f35b5050346101b557816003193601126101b5576105106114fc565b7ff362fac3897093aef8e68fcd6781da722412634c5e854a270782c5d5409db4f2600854916009548151908482526020820152a18160085580610556575b508060095580f35b7ff3f7a9fe364faab93b216da50a3214154f22a0a2b415b23a84c8169e8b636ee3908101905b818110610589575061054e565b82815560010161057c565b8383346101b557816003193601126101b5576105ae6114fc565b60085415610776576009548260018060a01b03918260025416926003549363ffffffff88548751966305d3b1d360e41b88528a88015267ffffffffffffffff8116602488015261ffff81891c16604488015260501c166064860152600160848601528460a4816020998a945af193841561076c57839461073d575b50600554600019811461072a579660018798019687928360055587519461064f866114a8565b8786528286016001815289870192888452606088019283526080880193898552600660a08a01968b885260c08b01998c8b528c52528b8a2098518955600189019251600381101561045857835491516001600160a81b031990921660ff90911617911660081b610100600160a81b031617905589977f49bc1709ab79728dc57e19bc28889ef83e403e7133404cec671a1e5e34d249d397606097919690959194600594919390916106ff91610412565b519084015551910155818152600788528486822055855191825260018883015285820152a251908152f35b634e487b7160e01b845260118852602484fd5b9093508581813d8311610765575b61075581836114da565b810103126101fd57519287610629565b503d61074b565b85513d85823e3d90fd5b5162461bcd60e51b8152602081840152600f60248201526e4e6f207061727469636970616e747360881b6044820152606490fd5b919050346101fd5760203660031901126101fd57808360e09460c083516107d0816114a8565b82815282602082015282858201528260608201528260808201528260a0820152015283358152600660205220815192610808846114a8565b815484526001820154602085019361082360ff83168661149c565b60018060a01b03808288019360081c1683526002850154926060880193845261087f600560ff6003890154169660808b0197151588528801549760a08b0198895201549760c08a01988952845199518a525160208a019061142c565b51169086015251606085015251151560808401525160a08301525160c0820152f35b5050346101b557816003193601126101b5576020906009549051908152f35b919050826003193601126101fd5734156108fd5750600954903482018092116108ea575060095580f35b634e487b7160e01b835260119052602482fd5b906020606492519162461bcd60e51b8352820152600c60248201526b5a65726f2066756e64696e6760a01b6044820152fd5b919050346101fd5760803660031901126101fd576024359067ffffffffffffffff82168092036109f85760443561ffff811681036109f4576064359263ffffffff841684036109f0578580528560205282862033875260205260ff8387205416156109d3579069ffff000000000000000091853560035585549463ffffffff60501b9060501b16946dffffffffffffffffffffffffffff191617921b161717905580f35b825163e2517d3f60e01b8152338187015260248101879052604490fd5b8580fd5b8480fd5b8380fd5b8284346101fa57806003193601126101fa575061ffff60209254821c169051908152f35b5050346101b557816003193601126101b55760025490516001600160a01b039091168152602090f35b5050346101b557816003193601126101b55751908152602090f35b9050346101fd57816003193601126101fd578160209360ff92610a85611416565b903582528186528282206001600160a01b039091168252855220549151911615158152f35b919050346101fd5760203660031901126101fd578060e09383358152600660205220805492600182015492600283015490600560ff60038601541693850154940154948151968752610b026020880160ff831661142c565b60081c6001600160a01b03169086015260608501521515608084015260a083015260c0820152f35b5050346101b557816003193601126101b55760209051620186a08152f35b5050346101b557816003193601126101b55760209051614e208152f35b5050346101b557816003193601126101b5576020906003549051908152f35b5050346101b557816003193601126101b5576020906005549051908152f35b5050346101b557816003193601126101b5576020906008549051908152f35b9050346101fd576020806003193601126109f857610bde6114fc565b6001926002845414610df3576002845582358552600682528085208151610c04816114a8565b81548152858201549184820190610c1e60ff85168361149c565b60018060a01b0392838682019560081c1685526002820154606082015260c0600560ff6003850154161593841560808501528a81015460a08501520154910152610dc057516003811015610dad578603610d7c578082511615610d4d57600954918215610d1f57878093819382938360095551165af13d15610d1a573d67ffffffffffffffff8111610d0757825190610cc0601f8201601f19168601836114da565b815286843d92013e5b15610cd657505050805580f35b5162461bcd60e51b815291820152600d60248201526c14185e5bdd5d0819985a5b1959609a1b604482015260649150fd5b634e487b7160e01b875260418552602487fd5b610cc9565b835162461bcd60e51b815280870186905260086024820152674e6f207072697a6560c01b6044820152606490fd5b50505162461bcd60e51b81529182015260096024820152682737903bb4b73732b960b91b604482015260649150fd5b50505162461bcd60e51b815291820152600b60248201526a4e6f74206c6f747465727960a81b604482015260649150fd5b634e487b7160e01b885260218652602488fd5b835162461bcd60e51b8152808701869052600d60248201526c139bdd08199d5b199a5b1b1959609a1b6044820152606490fd5b51633ee5aeb560e01b81529050fd5b8383346101b557806003193601126101b557610e1c611416565b90336001600160a01b03831603610e3957506104f291923561161a565b5163334bd91960e11b81528390fd5b919050346101fd57806003193601126101fd576104f29135610e6d60016104dc611416565b61159c565b8284346101fa57806003193601126101fa575063ffffffff6020925460501c169051908152f35b9050346101fd5760203660031901126101fd57816020936001923581528085522001549051908152f35b839150346101b557826003193601126101b55760249283359367ffffffffffffffff908186116109f457366023870112156109f457858401359182116109f45736818360051b880101116109f4576002546001600160a01b03929083163303611183571561114f578335855260076020528285205493841561111c5784865260066020528386209660038801805460ff81166110e65760019060ff191617905582879101359384838a0155600189019060ff82541660038110156110d457839291908061101a5750505061100857614e206201388185068101809111610ff65760058901555b610fe557505060057f51456263b799f4d2a35636b18be4f7e27453e46c3978e9177b54385c197a594f939495015482519182526020820152a280f35b634e487b7160e01b86526032905284fd5b634e487b7160e01b8852601183528388fd5b50634e487b7160e01b86526032905284fd5b91925090600181036110b85750600854801584811561103e575b5050505050610fa9565b6110a657611094579061105e60058c61108a95948a06918291015561144f565b90548354610100600160a81b03191660039290921b1c9190911660081b610100600160a81b0316179055565b8880808084611034565b634e487b7160e01b8a5260128552858afd5b634e487b7160e01b8b5260328652868bfd5b90506002915003610fa957508561271084066005890155610fa9565b634e487b7160e01b8a5260218552858afd5b865162461bcd60e51b815260208186015260118187015270105b1c9958591e48199d5b199a5b1b1959607a1b6044820152606490fd5b600f606492602086519362461bcd60e51b85528401528201526e155b9adb9bdddb881c995c5d595cdd608a1b6044820152fd5b83600f606492602086519362461bcd60e51b85528401528201526e4e6f2072616e646f6d20776f72647360881b6044820152fd5b835162461bcd60e51b81526020818701526010818401526f27b7363c9031b7b7b93234b730ba37b960811b6044820152606490fd5b919050346101fd57806003193601126101fd576111d36113fb565b6111db6114fc565b60018060a01b03848160025416926003549363ffffffff87548751966305d3b1d360e41b88528988015267ffffffffffffffff8116602488015261ffff81891c16604488015260501c166064860152600160848601528460a48160209a8b945af19384156104ad578294611351575b50600554600019811461046b576001018096816005558887519361126d856114a8565b87855281850196868852808a8701921697888352606087019160243583526080880193898552600660a08a01968b885260c08b01998c8b528c52528c8a2098518955600189019251600381101561045857835491516001600160a81b031990921660ff90911617911660081b610100600160a81b03161790558a987f49bc1709ab79728dc57e19bc28889ef83e403e7133404cec671a1e5e34d249d39860609891979096919590946005949293919290916113289190610412565b51908401555191015582815260078952858782205586519283528883015285820152a251908152f35b9093508681813d8311611379575b61136981836114da565b810103126101b55751923861124a565b503d61135f565b8284346101fa57806003193601126101fa575067ffffffffffffffff60209254169051908152f35b8491346101fd5760203660031901126101fd573563ffffffff60e01b81168091036101fd5760209250637965db0b60e01b81149081156113ea575b5015158152f35b6301ffc9a760e01b149050836113e3565b600435906001600160a01b038216820361141157565b600080fd5b602435906001600160a01b038216820361141157565b9060038210156114395752565b634e487b7160e01b600052602160045260246000fd5b6008548110156114865760086000527ff3f7a9fe364faab93b216da50a3214154f22a0a2b415b23a84c8169e8b636ee30190600090565b634e487b7160e01b600052603260045260246000fd5b60038210156114395752565b60e0810190811067ffffffffffffffff8211176114c457604052565b634e487b7160e01b600052604160045260246000fd5b90601f8019910116810190811067ffffffffffffffff8211176114c457604052565b3360009081527fee57cd81e84075558e8fcc182a1f4393f91fc97f963a136e66b7f949a62f319f60205260409020547f97667070c54ef182b0f5858b034beac1b6f3089aa2d3188bb1e8929f4fa9b9299060ff16156115585750565b6044906040519063e2517d3f60e01b82523360048301526024820152fd5b80600052600060205260406000203360005260205260ff60406000205416156115585750565b9060009180835282602052604083209160018060a01b03169182845260205260ff6040842054161560001461161557808352826020526040832082845260205260408320600160ff198254161790557f2f8788117e7eff1d82e926ec794901d17c78024a50270940304540a733656f0d339380a4600190565b505090565b9060009180835282602052604083209160018060a01b03169182845260205260ff6040842054166000146116155780835282602052604083208284526020526040832060ff1981541690557ff6391f5c32d9c69d2a47ea670b442974b53935d1edc7fd64eb21e047a839171b339380a460019056fea26469706673582212205f8e1cef36b788ce48226ee519a37628aa7517b2c118be12bad2d388f090ff0e64736f6c634300081800332f8788117e7eff1d82e926ec794901d17c78024a50270940304540a733656f0d","opcodes":"PUSH1 0x80 CALLVALUE PUSH3 0x117 JUMPI PUSH1 0x1 PUSH1 0x1 PUSH1 0x40 SHL SUB PUSH1 0x1F PUSH3 0x193A CODESIZE DUP2 SWAP1 SUB SWAP2 DUP3 ADD PUSH1 0x1F NOT AND DUP5 ADD SWAP2 DUP4 DUP4 GT DUP6 DUP5 LT OR PUSH3 0x11C JUMPI DUP1 DUP6 SWAP3 PUSH1 0x60 SWAP5 PUSH1 0x40 MSTORE DUP4 CODECOPY DUP2 ADD SUB SLT PUSH3 0x117 JUMPI DUP2 MLOAD PUSH1 0x1 PUSH1 0x1 PUSH1 0xA0 SHL SUB DUP2 AND SWAP3 SWAP1 DUP4 SWAP1 SUB PUSH3 0x117 JUMPI PUSH1 0x40 PUSH1 0x20 DUP3 ADD MLOAD SWAP2 ADD MLOAD SWAP2 DUP3 AND DUP1 SWAP3 SUB PUSH3 0x117 JUMPI PUSH1 0x1 DUP1 SSTORE PUSH1 0x4 SLOAD SWAP1 DUP4 ISZERO PUSH3 0xDF JUMPI PUSH1 0x2 DUP1 SLOAD PUSH1 0x1 PUSH1 0x1 PUSH1 0xA0 SHL SUB NOT AND SWAP1 SWAP5 OR SWAP1 SWAP4 SSTORE PUSH1 0x3 SWAP3 SWAP1 SWAP3 SSTORE PUSH1 0x1 PUSH1 0x1 PUSH1 0x70 SHL SUB NOT SWAP2 SWAP1 SWAP2 AND OR PUSH13 0x30D4000030000000000000000 OR PUSH1 0x4 SSTORE PUSH3 0xC2 CALLER PUSH3 0x132 JUMP JUMPDEST POP PUSH3 0xCE CALLER PUSH3 0x1B2 JUMP JUMPDEST POP PUSH1 0x40 MLOAD PUSH2 0x16C5 SWAP1 DUP2 PUSH3 0x255 DUP3 CODECOPY RETURN JUMPDEST PUSH1 0x40 MLOAD PUSH3 0x461BCD PUSH1 0xE5 SHL DUP2 MSTORE PUSH1 0x20 PUSH1 0x4 DUP3 ADD MSTORE PUSH1 0x10 PUSH1 0x24 DUP3 ADD MSTORE PUSH16 0x2D32B9379031B7B7B93234B730BA37B9 PUSH1 0x81 SHL PUSH1 0x44 DUP3 ADD MSTORE PUSH1 0x64 SWAP1 REVERT JUMPDEST PUSH1 0x0 DUP1 REVERT JUMPDEST PUSH4 0x4E487B71 PUSH1 0xE0 SHL PUSH1 0x0 MSTORE PUSH1 0x41 PUSH1 0x4 MSTORE PUSH1 0x24 PUSH1 0x0 REVERT JUMPDEST PUSH1 0x1 PUSH1 0x1 PUSH1 0xA0 SHL SUB AND PUSH1 0x0 DUP2 DUP2 MSTORE PUSH32 0xAD3228B676F7D3CD4284A5443F17F1962B36E491B30A40B2405849E597BA5FB5 PUSH1 0x20 MSTORE PUSH1 0x40 DUP2 KECCAK256 SLOAD SWAP1 SWAP2 SWAP1 PUSH1 0xFF AND PUSH3 0x1AE JUMPI DUP2 DUP1 MSTORE DUP2 PUSH1 0x20 MSTORE PUSH1 0x40 DUP3 KECCAK256 DUP2 DUP4 MSTORE PUSH1 0x20 MSTORE PUSH1 0x40 DUP3 KECCAK256 PUSH1 0x1 PUSH1 0xFF NOT DUP3 SLOAD AND OR SWAP1 SSTORE CALLER SWAP2 PUSH1 0x0 DUP1 MLOAD PUSH1 0x20 PUSH3 0x191A DUP4 CODECOPY DUP2 MLOAD SWAP2 MSTORE DUP2 DUP1 LOG4 PUSH1 0x1 SWAP1 JUMP JUMPDEST POP SWAP1 JUMP JUMPDEST PUSH1 0x1 PUSH1 0x1 PUSH1 0xA0 SHL SUB AND PUSH1 0x0 DUP2 DUP2 MSTORE PUSH32 0xEE57CD81E84075558E8FCC182A1F4393F91FC97F963A136E66B7F949A62F319F PUSH1 0x20 MSTORE PUSH1 0x40 DUP2 KECCAK256 SLOAD SWAP1 SWAP2 SWAP1 PUSH32 0x97667070C54EF182B0F5858B034BEAC1B6F3089AA2D3188BB1E8929F4FA9B929 SWAP1 PUSH1 0xFF AND PUSH3 0x24F JUMPI DUP1 DUP4 MSTORE DUP3 PUSH1 0x20 MSTORE PUSH1 0x40 DUP4 KECCAK256 DUP3 DUP5 MSTORE PUSH1 0x20 MSTORE PUSH1 0x40 DUP4 KECCAK256 PUSH1 0x1 PUSH1 0xFF NOT DUP3 SLOAD AND OR SWAP1 SSTORE PUSH1 0x0 DUP1 MLOAD PUSH1 0x20 PUSH3 0x191A DUP4 CODECOPY DUP2 MLOAD SWAP2 MSTORE CALLER SWAP4 DUP1 LOG4 PUSH1 0x1 SWAP1 JUMP JUMPDEST POP POP SWAP1 JUMP INVALID PUSH1 0x80 PUSH1 0x40 DUP2 DUP2 MSTORE PUSH1 0x4 SWAP2 DUP3 CALLDATASIZE LT ISZERO PUSH2 0x22 JUMPI JUMPDEST POP POP POP CALLDATASIZE ISZERO PUSH2 0x20 JUMPI PUSH1 0x0 DUP1 REVERT JUMPDEST STOP JUMPDEST PUSH1 0x0 SWAP3 DUP4 CALLDATALOAD PUSH1 0xE0 SHR SWAP2 DUP3 PUSH4 0x1FFC9A7 EQ PUSH2 0x13A8 JUMPI POP DUP2 PUSH4 0x9C1BA2E EQ PUSH2 0x1380 JUMPI DUP2 PUSH4 0xE23F3F2 EQ PUSH2 0x11B8 JUMPI DUP2 PUSH4 0x1FE543E3 EQ PUSH2 0xEC3 JUMPI DUP2 PUSH4 0x248A9CA3 EQ PUSH2 0xE99 JUMPI DUP2 PUSH4 0x24F74697 EQ PUSH2 0xE72 JUMPI DUP2 PUSH4 0x2F2FF15D EQ PUSH2 0xE48 JUMPI DUP2 PUSH4 0x36568ABE EQ PUSH2 0xE02 JUMPI DUP2 PUSH4 0x3A139712 EQ PUSH2 0xBC2 JUMPI DUP2 PUSH4 0x56D0BCF1 EQ PUSH2 0xBA3 JUMPI DUP2 PUSH4 0x5BADBE4C EQ PUSH2 0xB84 JUMPI DUP2 PUSH4 0x61728F39 EQ PUSH2 0xB65 JUMPI DUP2 PUSH4 0x708EE370 EQ PUSH2 0xB48 JUMPI DUP2 PUSH4 0x7AE6842C EQ PUSH2 0xB2A JUMPI DUP2 PUSH4 0x81D12C58 EQ PUSH2 0xAAA JUMPI DUP2 PUSH4 0x91D14854 EQ PUSH2 0xA64 JUMPI DUP2 PUSH4 0xA217FDDF EQ PUSH2 0xA49 JUMPI DUP2 PUSH4 0xA3E56FA8 EQ PUSH2 0xA20 JUMPI DUP2 PUSH4 0xB0FB162F EQ PUSH2 0x9FC JUMPI DUP2 PUSH4 0xB2E65BCF EQ PUSH2 0x92F JUMPI DUP2 PUSH4 0xB5CC4539 EQ PUSH2 0x8C0 JUMPI DUP2 PUSH4 0xC1196ECF EQ PUSH2 0x8A1 JUMPI DUP2 PUSH4 0xC58343EF EQ PUSH2 0x7AA JUMPI DUP2 PUSH4 0xCD9AFF84 EQ PUSH2 0x594 JUMPI DUP2 PUSH4 0xD337616E EQ PUSH2 0x4F6 JUMPI DUP2 PUSH4 0xD547741F EQ PUSH2 0x4B7 JUMPI DUP2 PUSH4 0xD82C4649 EQ PUSH2 0x2A2 JUMPI DUP2 PUSH4 0xE3A0B950 EQ PUSH2 0x201 JUMPI DUP2 PUSH4 0xF59AABCD EQ PUSH2 0x1B9 JUMPI POP PUSH4 0xF5B541A6 EQ PUSH2 0x17C JUMPI DUP1 PUSH2 0x12 JUMP JUMPDEST CALLVALUE PUSH2 0x1B5 JUMPI DUP2 PUSH1 0x3 NOT CALLDATASIZE ADD SLT PUSH2 0x1B5 JUMPI PUSH1 0x20 SWAP1 MLOAD PUSH32 0x97667070C54EF182B0F5858B034BEAC1B6F3089AA2D3188BB1E8929F4FA9B929 DUP2 MSTORE RETURN JUMPDEST POP DUP1 REVERT JUMPDEST SWAP1 POP CALLVALUE PUSH2 0x1FD JUMPI PUSH1 0x20 CALLDATASIZE PUSH1 0x3 NOT ADD SLT PUSH2 0x1FD JUMPI CALLDATALOAD SWAP2 PUSH1 0x8 SLOAD DUP4 LT ISZERO PUSH2 0x1FA JUMPI POP PUSH2 0x1E4 PUSH1 0x20 SWAP3 PUSH2 0x144F JUMP JUMPDEST SWAP1 SLOAD SWAP2 MLOAD SWAP2 PUSH1 0x1 DUP1 PUSH1 0xA0 SHL SUB SWAP2 PUSH1 0x3 SHL SHR AND DUP2 MSTORE RETURN JUMPDEST DUP1 REVERT JUMPDEST DUP3 DUP1 REVERT JUMPDEST DUP4 SWAP1 CALLVALUE PUSH2 0x1B5 JUMPI PUSH1 0x20 CALLDATASIZE PUSH1 0x3 NOT ADD SLT PUSH2 0x1B5 JUMPI PUSH2 0x21C PUSH2 0x13FB JUMP JUMPDEST SWAP1 PUSH2 0x225 PUSH2 0x14FC JUMP JUMPDEST PUSH1 0x8 SLOAD SWAP1 PUSH9 0x10000000000000000 DUP3 LT ISZERO PUSH2 0x28F JUMPI POP DUP1 PUSH1 0x1 PUSH2 0x24B SWAP3 ADD PUSH1 0x8 SSTORE PUSH2 0x144F JUMP JUMPDEST SWAP2 PUSH1 0x1 DUP1 PUSH1 0xA0 SHL SUB DUP1 SWAP2 AND SWAP3 DUP3 SLOAD SWAP1 PUSH1 0x3 SHL SWAP2 DUP5 DUP4 SHL SWAP3 SHL NOT AND OR SWAP1 SSTORE PUSH32 0x4C72B57C1CA715219CF2C7BE9EDC8A3EA19DFB9A76FB7A05E2A8062A027EE970 DUP3 DUP1 LOG2 DUP1 RETURN JUMPDEST PUSH4 0x4E487B71 PUSH1 0xE0 SHL DUP5 MSTORE PUSH1 0x41 SWAP1 MSTORE PUSH1 0x24 DUP4 REVERT JUMPDEST SWAP2 SWAP1 POP CALLVALUE PUSH2 0x1FD JUMPI PUSH1 0x20 SWAP3 DUP4 PUSH1 0x3 NOT CALLDATASIZE ADD SLT PUSH2 0x1FA JUMPI DUP2 SWAP1 PUSH2 0x2C2 PUSH2 0x13FB JUMP JUMPDEST SWAP1 PUSH2 0x2CB PUSH2 0x14FC JUMP JUMPDEST PUSH1 0x1 DUP1 PUSH1 0xA0 SHL SUB SWAP2 DUP7 DUP4 PUSH1 0x2 SLOAD AND PUSH1 0xA4 DUP9 DUP6 PUSH1 0x3 SLOAD SWAP4 PUSH4 0xFFFFFFFF DUP4 SLOAD PUSH2 0xFFFF DUP2 DUP14 MLOAD SWAP14 DUP15 SWAP10 DUP11 SWAP9 PUSH4 0x5D3B1D3 PUSH1 0xE4 SHL DUP11 MSTORE DUP10 ADD MSTORE PUSH8 0xFFFFFFFFFFFFFFFF DUP3 AND PUSH1 0x24 DUP10 ADD MSTORE SHR AND PUSH1 0x44 DUP7 ADD MSTORE PUSH1 0x50 SHR AND PUSH1 0x64 DUP5 ADD MSTORE PUSH1 0x1 PUSH1 0x84 DUP5 ADD MSTORE GAS CALL SWAP4 DUP5 ISZERO PUSH2 0x4AD JUMPI DUP3 SWAP5 PUSH2 0x47E JUMPI JUMPDEST POP PUSH1 0x5 SLOAD PUSH1 0x0 NOT DUP2 EQ PUSH2 0x46B JUMPI PUSH1 0x1 ADD DUP1 SWAP7 DUP2 PUSH1 0x5 SSTORE DUP9 DUP8 MLOAD SWAP4 PUSH2 0x35A DUP6 PUSH2 0x14A8 JUMP JUMPDEST DUP8 DUP6 MSTORE DUP2 DUP6 ADD SWAP7 PUSH1 0x2 DUP9 MSTORE DUP1 DUP11 DUP8 ADD SWAP3 AND SWAP8 DUP9 DUP4 MSTORE PUSH1 0x60 DUP8 ADD SWAP2 DUP9 DUP4 MSTORE PUSH1 0x80 DUP9 ADD SWAP4 DUP10 DUP6 MSTORE PUSH1 0x6 PUSH1 0xA0 DUP11 ADD SWAP7 DUP12 DUP9 MSTORE PUSH1 0xC0 DUP12 ADD SWAP10 DUP13 DUP12 MSTORE DUP13 MSTORE MSTORE DUP13 DUP11 KECCAK256 SWAP9 MLOAD DUP10 SSTORE PUSH1 0x1 DUP10 ADD SWAP3 MLOAD PUSH1 0x3 DUP2 LT ISZERO PUSH2 0x458 JUMPI DUP4 SLOAD SWAP2 MLOAD PUSH1 0x1 PUSH1 0x1 PUSH1 0xA8 SHL SUB NOT SWAP1 SWAP3 AND PUSH1 0xFF SWAP1 SWAP2 AND OR SWAP2 AND PUSH1 0x8 SHL PUSH2 0x100 PUSH1 0x1 PUSH1 0xA8 SHL SUB AND OR SWAP1 SSTORE DUP11 SWAP9 PUSH32 0x49BC1709AB79728DC57E19BC28889EF83E403E7133404CEC671A1E5E34D249D3 SWAP9 PUSH1 0x60 SWAP9 SWAP2 SWAP8 SWAP1 SWAP7 DUP12 SWAP7 DUP14 SWAP7 SWAP4 SWAP6 SWAP3 SWAP5 PUSH1 0x5 SWAP5 SWAP3 SWAP4 SWAP2 SWAP3 SWAP2 PUSH2 0x430 SWAP2 JUMPDEST MLOAD PUSH1 0x2 DUP9 ADD SSTORE MLOAD ISZERO ISZERO PUSH1 0x3 DUP8 ADD SWAP1 PUSH1 0xFF DUP1 NOT DUP4 SLOAD AND SWAP2 ISZERO ISZERO AND OR SWAP1 SSTORE JUMP JUMPDEST MLOAD SWAP1 DUP5 ADD SSTORE MLOAD SWAP2 ADD SSTORE DUP5 DUP2 MSTORE PUSH1 0x7 DUP12 MSTORE KECCAK256 SSTORE DUP6 MLOAD SWAP2 DUP3 MSTORE PUSH1 0x2 DUP9 DUP4 ADD MSTORE DUP6 DUP3 ADD MSTORE LOG2 MLOAD SWAP1 DUP2 MSTORE RETURN JUMPDEST PUSH4 0x4E487B71 PUSH1 0xE0 SHL DUP12 MSTORE PUSH1 0x21 DUP9 MSTORE PUSH1 0x24 DUP12 REVERT JUMPDEST PUSH4 0x4E487B71 PUSH1 0xE0 SHL DUP4 MSTORE PUSH1 0x11 DUP8 MSTORE PUSH1 0x24 DUP4 REVERT JUMPDEST SWAP1 SWAP4 POP DUP7 DUP2 DUP2 RETURNDATASIZE DUP4 GT PUSH2 0x4A6 JUMPI JUMPDEST PUSH2 0x496 DUP2 DUP4 PUSH2 0x14DA JUMP JUMPDEST DUP2 ADD SUB SLT PUSH2 0x1B5 JUMPI MLOAD SWAP3 CODESIZE PUSH2 0x337 JUMP JUMPDEST POP RETURNDATASIZE PUSH2 0x48C JUMP JUMPDEST DUP6 MLOAD RETURNDATASIZE DUP5 DUP3 RETURNDATACOPY RETURNDATASIZE SWAP1 REVERT JUMPDEST SWAP2 SWAP1 POP CALLVALUE PUSH2 0x1FD JUMPI DUP1 PUSH1 0x3 NOT CALLDATASIZE ADD SLT PUSH2 0x1FD JUMPI PUSH2 0x4F2 SWAP2 CALLDATALOAD PUSH2 0x4ED PUSH1 0x1 PUSH2 0x4DC PUSH2 0x1416 JUMP JUMPDEST SWAP4 DUP4 DUP8 MSTORE DUP7 PUSH1 0x20 MSTORE DUP7 KECCAK256 ADD SLOAD PUSH2 0x1576 JUMP JUMPDEST PUSH2 0x161A JUMP JUMPDEST POP DUP1 RETURN JUMPDEST POP POP CALLVALUE PUSH2 0x1B5 JUMPI DUP2 PUSH1 0x3 NOT CALLDATASIZE ADD SLT PUSH2 0x1B5 JUMPI PUSH2 0x510 PUSH2 0x14FC JUMP JUMPDEST PUSH32 0xF362FAC3897093AEF8E68FCD6781DA722412634C5E854A270782C5D5409DB4F2 PUSH1 0x8 SLOAD SWAP2 PUSH1 0x9 SLOAD DUP2 MLOAD SWAP1 DUP5 DUP3 MSTORE PUSH1 0x20 DUP3 ADD MSTORE LOG1 DUP2 PUSH1 0x8 SSTORE DUP1 PUSH2 0x556 JUMPI JUMPDEST POP DUP1 PUSH1 0x9 SSTORE DUP1 RETURN JUMPDEST PUSH32 0xF3F7A9FE364FAAB93B216DA50A3214154F22A0A2B415B23A84C8169E8B636EE3 SWAP1 DUP2 ADD SWAP1 JUMPDEST DUP2 DUP2 LT PUSH2 0x589 JUMPI POP PUSH2 0x54E JUMP JUMPDEST DUP3 DUP2 SSTORE PUSH1 0x1 ADD PUSH2 0x57C JUMP JUMPDEST DUP4 DUP4 CALLVALUE PUSH2 0x1B5 JUMPI DUP2 PUSH1 0x3 NOT CALLDATASIZE ADD SLT PUSH2 0x1B5 JUMPI PUSH2 0x5AE PUSH2 0x14FC JUMP JUMPDEST PUSH1 0x8 SLOAD ISZERO PUSH2 0x776 JUMPI PUSH1 0x9 SLOAD DUP3 PUSH1 0x1 DUP1 PUSH1 0xA0 SHL SUB SWAP2 DUP3 PUSH1 0x2 SLOAD AND SWAP3 PUSH1 0x3 SLOAD SWAP4 PUSH4 0xFFFFFFFF DUP9 SLOAD DUP8 MLOAD SWAP7 PUSH4 0x5D3B1D3 PUSH1 0xE4 SHL DUP9 MSTORE DUP11 DUP9 ADD MSTORE PUSH8 0xFFFFFFFFFFFFFFFF DUP2 AND PUSH1 0x24 DUP9 ADD MSTORE PUSH2 0xFFFF DUP2 DUP10 SHR AND PUSH1 0x44 DUP9 ADD MSTORE PUSH1 0x50 SHR AND PUSH1 0x64 DUP7 ADD MSTORE PUSH1 0x1 PUSH1 0x84 DUP7 ADD MSTORE DUP5 PUSH1 0xA4 DUP2 PUSH1 0x20 SWAP10 DUP11 SWAP5 GAS CALL SWAP4 DUP5 ISZERO PUSH2 0x76C JUMPI DUP4 SWAP5 PUSH2 0x73D JUMPI JUMPDEST POP PUSH1 0x5 SLOAD PUSH1 0x0 NOT DUP2 EQ PUSH2 0x72A JUMPI SWAP7 PUSH1 0x1 DUP8 SWAP9 ADD SWAP7 DUP8 SWAP3 DUP4 PUSH1 0x5 SSTORE DUP8 MLOAD SWAP5 PUSH2 0x64F DUP7 PUSH2 0x14A8 JUMP JUMPDEST DUP8 DUP7 MSTORE DUP3 DUP7 ADD PUSH1 0x1 DUP2 MSTORE DUP10 DUP8 ADD SWAP3 DUP9 DUP5 MSTORE PUSH1 0x60 DUP9 ADD SWAP3 DUP4 MSTORE PUSH1 0x80 DUP9 ADD SWAP4 DUP10 DUP6 MSTORE PUSH1 0x6 PUSH1 0xA0 DUP11 ADD SWAP7 DUP12 DUP9 MSTORE PUSH1 0xC0 DUP12 ADD SWAP10 DUP13 DUP12 MSTORE DUP13 MSTORE MSTORE DUP12 DUP11 KECCAK256 SWAP9 MLOAD DUP10 SSTORE PUSH1 0x1 DUP10 ADD SWAP3 MLOAD PUSH1 0x3 DUP2 LT ISZERO PUSH2 0x458 JUMPI DUP4 SLOAD SWAP2 MLOAD PUSH1 0x1 PUSH1 0x1 PUSH1 0xA8 SHL SUB NOT SWAP1 SWAP3 AND PUSH1 0xFF SWAP1 SWAP2 AND OR SWAP2 AND PUSH1 0x8 SHL PUSH2 0x100 PUSH1 0x1 PUSH1 0xA8 SHL SUB AND OR SWAP1 SSTORE DUP10 SWAP8 PUSH32 0x49BC1709AB79728DC57E19BC28889EF83E403E7133404CEC671A1E5E34D249D3 SWAP8 PUSH1 0x60 SWAP8 SWAP2 SWAP7 SWAP1 SWAP6 SWAP2 SWAP5 PUSH1 0x5 SWAP5 SWAP2 SWAP4 SWAP1 SWAP2 PUSH2 0x6FF SWAP2 PUSH2 0x412 JUMP JUMPDEST MLOAD SWAP1 DUP5 ADD SSTORE MLOAD SWAP2 ADD SSTORE DUP2 DUP2 MSTORE PUSH1 0x7 DUP9 MSTORE DUP5 DUP7 DUP3 KECCAK256 SSTORE DUP6 MLOAD SWAP2 DUP3 MSTORE PUSH1 0x1 DUP9 DUP4 ADD MSTORE DUP6 DUP3 ADD MSTORE LOG2 MLOAD SWAP1 DUP2 MSTORE RETURN JUMPDEST PUSH4 0x4E487B71 PUSH1 0xE0 SHL DUP5 MSTORE PUSH1 0x11 DUP9 MSTORE PUSH1 0x24 DUP5 REVERT JUMPDEST SWAP1 SWAP4 POP DUP6 DUP2 DUP2 RETURNDATASIZE DUP4 GT PUSH2 0x765 JUMPI JUMPDEST PUSH2 0x755 DUP2 DUP4 PUSH2 0x14DA JUMP JUMPDEST DUP2 ADD SUB SLT PUSH2 0x1FD JUMPI MLOAD SWAP3 DUP8 PUSH2 0x629 JUMP JUMPDEST POP RETURNDATASIZE PUSH2 0x74B JUMP JUMPDEST DUP6 MLOAD RETURNDATASIZE DUP6 DUP3 RETURNDATACOPY RETURNDATASIZE SWAP1 REVERT JUMPDEST MLOAD PUSH3 0x461BCD PUSH1 0xE5 SHL DUP2 MSTORE PUSH1 0x20 DUP2 DUP5 ADD MSTORE PUSH1 0xF PUSH1 0x24 DUP3 ADD MSTORE PUSH15 0x4E6F207061727469636970616E7473 PUSH1 0x88 SHL PUSH1 0x44 DUP3 ADD MSTORE PUSH1 0x64 SWAP1 REVERT JUMPDEST SWAP2 SWAP1 POP CALLVALUE PUSH2 0x1FD JUMPI PUSH1 0x20 CALLDATASIZE PUSH1 0x3 NOT ADD SLT PUSH2 0x1FD JUMPI DUP1 DUP4 PUSH1 0xE0 SWAP5 PUSH1 0xC0 DUP4 MLOAD PUSH2 0x7D0 DUP2 PUSH2 0x14A8 JUMP JUMPDEST DUP3 DUP2 MSTORE DUP3 PUSH1 0x20 DUP3 ADD MSTORE DUP3 DUP6 DUP3 ADD MSTORE DUP3 PUSH1 0x60 DUP3 ADD MSTORE DUP3 PUSH1 0x80 DUP3 ADD MSTORE DUP3 PUSH1 0xA0 DUP3 ADD MSTORE ADD MSTORE DUP4 CALLDATALOAD DUP2 MSTORE PUSH1 0x6 PUSH1 0x20 MSTORE KECCAK256 DUP2 MLOAD SWAP3 PUSH2 0x808 DUP5 PUSH2 0x14A8 JUMP JUMPDEST DUP2 SLOAD DUP5 MSTORE PUSH1 0x1 DUP3 ADD SLOAD PUSH1 0x20 DUP6 ADD SWAP4 PUSH2 0x823 PUSH1 0xFF DUP4 AND DUP7 PUSH2 0x149C JUMP JUMPDEST PUSH1 0x1 DUP1 PUSH1 0xA0 SHL SUB DUP1 DUP3 DUP9 ADD SWAP4 PUSH1 0x8 SHR AND DUP4 MSTORE PUSH1 0x2 DUP6 ADD SLOAD SWAP3 PUSH1 0x60 DUP9 ADD SWAP4 DUP5 MSTORE PUSH2 0x87F PUSH1 0x5 PUSH1 0xFF PUSH1 0x3 DUP10 ADD SLOAD AND SWAP7 PUSH1 0x80 DUP12 ADD SWAP8 ISZERO ISZERO DUP9 MSTORE DUP9 ADD SLOAD SWAP8 PUSH1 0xA0 DUP12 ADD SWAP9 DUP10 MSTORE ADD SLOAD SWAP8 PUSH1 0xC0 DUP11 ADD SWAP9 DUP10 MSTORE DUP5 MLOAD SWAP10 MLOAD DUP11 MSTORE MLOAD PUSH1 0x20 DUP11 ADD SWAP1 PUSH2 0x142C JUMP JUMPDEST MLOAD AND SWAP1 DUP7 ADD MSTORE MLOAD PUSH1 0x60 DUP6 ADD MSTORE MLOAD ISZERO ISZERO PUSH1 0x80 DUP5 ADD MSTORE MLOAD PUSH1 0xA0 DUP4 ADD MSTORE MLOAD PUSH1 0xC0 DUP3 ADD MSTORE RETURN JUMPDEST POP POP CALLVALUE PUSH2 0x1B5 JUMPI DUP2 PUSH1 0x3 NOT CALLDATASIZE ADD SLT PUSH2 0x1B5 JUMPI PUSH1 0x20 SWAP1 PUSH1 0x9 SLOAD SWAP1 MLOAD SWAP1 DUP2 MSTORE RETURN JUMPDEST SWAP2 SWAP1 POP DUP3 PUSH1 0x3 NOT CALLDATASIZE ADD SLT PUSH2 0x1FD JUMPI CALLVALUE ISZERO PUSH2 0x8FD JUMPI POP PUSH1 0x9 SLOAD SWAP1 CALLVALUE DUP3 ADD DUP1 SWAP3 GT PUSH2 0x8EA JUMPI POP PUSH1 0x9 SSTORE DUP1 RETURN JUMPDEST PUSH4 0x4E487B71 PUSH1 0xE0 SHL DUP4 MSTORE PUSH1 0x11 SWAP1 MSTORE PUSH1 0x24 DUP3 REVERT JUMPDEST SWAP1 PUSH1 0x20 PUSH1 0x64 SWAP3 MLOAD SWAP2 PUSH3 0x461BCD PUSH1 0xE5 SHL DUP4 MSTORE DUP3 ADD MSTORE PUSH1 0xC PUSH1 0x24 DUP3 ADD MSTORE PUSH12 0x5A65726F2066756E64696E67 PUSH1 0xA0 SHL PUSH1 0x44 DUP3 ADD MSTORE REVERT JUMPDEST SWAP2 SWAP1 POP CALLVALUE PUSH2 0x1FD JUMPI PUSH1 0x80 CALLDATASIZE PUSH1 0x3 NOT ADD SLT PUSH2 0x1FD JUMPI PUSH1 0x24 CALLDATALOAD SWAP1 PUSH8 0xFFFFFFFFFFFFFFFF DUP3 AND DUP1 SWAP3 SUB PUSH2 0x9F8 JUMPI PUSH1 0x44 CALLDATALOAD PUSH2 0xFFFF DUP2 AND DUP2 SUB PUSH2 0x9F4 JUMPI PUSH1 0x64 CALLDATALOAD SWAP3 PUSH4 0xFFFFFFFF DUP5 AND DUP5 SUB PUSH2 0x9F0 JUMPI DUP6 DUP1 MSTORE DUP6 PUSH1 0x20 MSTORE DUP3 DUP7 KECCAK256 CALLER DUP8 MSTORE PUSH1 0x20 MSTORE PUSH1 0xFF DUP4 DUP8 KECCAK256 SLOAD AND ISZERO PUSH2 0x9D3 JUMPI SWAP1 PUSH10 0xFFFF0000000000000000 SWAP2 DUP6 CALLDATALOAD PUSH1 0x3 SSTORE DUP6 SLOAD SWAP5 PUSH4 0xFFFFFFFF PUSH1 0x50 SHL SWAP1 PUSH1 0x50 SHL AND SWAP5 PUSH14 0xFFFFFFFFFFFFFFFFFFFFFFFFFFFF NOT AND OR SWAP3 SHL AND OR OR SWAP1 SSTORE DUP1 RETURN JUMPDEST DUP3 MLOAD PUSH4 0xE2517D3F PUSH1 0xE0 SHL DUP2 MSTORE CALLER DUP2 DUP8 ADD MSTORE PUSH1 0x24 DUP2 ADD DUP8 SWAP1 MSTORE PUSH1 0x44 SWAP1 REVERT JUMPDEST DUP6 DUP1 REVERT JUMPDEST DUP5 DUP1 REVERT JUMPDEST DUP4 DUP1 REVERT JUMPDEST DUP3 DUP5 CALLVALUE PUSH2 0x1FA JUMPI DUP1 PUSH1 0x3 NOT CALLDATASIZE ADD SLT PUSH2 0x1FA JUMPI POP PUSH2 0xFFFF PUSH1 0x20 SWAP3 SLOAD DUP3 SHR AND SWAP1 MLOAD SWAP1 DUP2 MSTORE RETURN JUMPDEST POP POP CALLVALUE PUSH2 0x1B5 JUMPI DUP2 PUSH1 0x3 NOT CALLDATASIZE ADD SLT PUSH2 0x1B5 JUMPI PUSH1 0x2 SLOAD SWAP1 MLOAD PUSH1 0x1 PUSH1 0x1 PUSH1 0xA0 SHL SUB SWAP1 SWAP2 AND DUP2 MSTORE PUSH1 0x20 SWAP1 RETURN JUMPDEST POP POP CALLVALUE PUSH2 0x1B5 JUMPI DUP2 PUSH1 0x3 NOT CALLDATASIZE ADD SLT PUSH2 0x1B5 JUMPI MLOAD SWAP1 DUP2 MSTORE PUSH1 0x20 SWAP1 RETURN JUMPDEST SWAP1 POP CALLVALUE PUSH2 0x1FD JUMPI DUP2 PUSH1 0x3 NOT CALLDATASIZE ADD SLT PUSH2 0x1FD JUMPI DUP2 PUSH1 0x20 SWAP4 PUSH1 0xFF SWAP3 PUSH2 0xA85 PUSH2 0x1416 JUMP JUMPDEST SWAP1 CALLDATALOAD DUP3 MSTORE DUP2 DUP7 MSTORE DUP3 DUP3 KECCAK256 PUSH1 0x1 PUSH1 0x1 PUSH1 0xA0 SHL SUB SWAP1 SWAP2 AND DUP3 MSTORE DUP6 MSTORE KECCAK256 SLOAD SWAP2 MLOAD SWAP2 AND ISZERO ISZERO DUP2 MSTORE RETURN JUMPDEST SWAP2 SWAP1 POP CALLVALUE PUSH2 0x1FD JUMPI PUSH1 0x20 CALLDATASIZE PUSH1 0x3 NOT ADD SLT PUSH2 0x1FD JUMPI DUP1 PUSH1 0xE0 SWAP4 DUP4 CALLDATALOAD DUP2 MSTORE PUSH1 0x6 PUSH1 0x20 MSTORE KECCAK256 DUP1 SLOAD SWAP3 PUSH1 0x1 DUP3 ADD SLOAD SWAP3 PUSH1 0x2 DUP4 ADD SLOAD SWAP1 PUSH1 0x5 PUSH1 0xFF PUSH1 0x3 DUP7 ADD SLOAD AND SWAP4 DUP6 ADD SLOAD SWAP5 ADD SLOAD SWAP5 DUP2 MLOAD SWAP7 DUP8 MSTORE PUSH2 0xB02 PUSH1 0x20 DUP9 ADD PUSH1 0xFF DUP4 AND PUSH2 0x142C JUMP JUMPDEST PUSH1 0x8 SHR PUSH1 0x1 PUSH1 0x1 PUSH1 0xA0 SHL SUB AND SWAP1 DUP7 ADD MSTORE PUSH1 0x60 DUP6 ADD MSTORE ISZERO ISZERO PUSH1 0x80 DUP5 ADD MSTORE PUSH1 0xA0 DUP4 ADD MSTORE PUSH1 0xC0 DUP3 ADD MSTORE RETURN JUMPDEST POP POP CALLVALUE PUSH2 0x1B5 JUMPI DUP2 PUSH1 0x3 NOT CALLDATASIZE ADD SLT PUSH2 0x1B5 JUMPI PUSH1 0x20 SWAP1 MLOAD PUSH3 0x186A0 DUP2 MSTORE RETURN JUMPDEST POP POP CALLVALUE PUSH2 0x1B5 JUMPI DUP2 PUSH1 0x3 NOT CALLDATASIZE ADD SLT PUSH2 0x1B5 JUMPI PUSH1 0x20 SWAP1 MLOAD PUSH2 0x4E20 DUP2 MSTORE RETURN JUMPDEST POP POP CALLVALUE PUSH2 0x1B5 JUMPI DUP2 PUSH1 0x3 NOT CALLDATASIZE ADD SLT PUSH2 0x1B5 JUMPI PUSH1 0x20 SWAP1 PUSH1 0x3 SLOAD SWAP1 MLOAD SWAP1 DUP2 MSTORE RETURN JUMPDEST POP POP CALLVALUE PUSH2 0x1B5 JUMPI DUP2 PUSH1 0x3 NOT CALLDATASIZE ADD SLT PUSH2 0x1B5 JUMPI PUSH1 0x20 SWAP1 PUSH1 0x5 SLOAD SWAP1 MLOAD SWAP1 DUP2 MSTORE RETURN JUMPDEST POP POP CALLVALUE PUSH2 0x1B5 JUMPI DUP2 PUSH1 0x3 NOT CALLDATASIZE ADD SLT PUSH2 0x1B5 JUMPI PUSH1 0x20 SWAP1 PUSH1 0x8 SLOAD SWAP1 MLOAD SWAP1 DUP2 MSTORE RETURN JUMPDEST SWAP1 POP CALLVALUE PUSH2 0x1FD JUMPI PUSH1 0x20 DUP1 PUSH1 0x3 NOT CALLDATASIZE ADD SLT PUSH2 0x9F8 JUMPI PUSH2 0xBDE PUSH2 0x14FC JUMP JUMPDEST PUSH1 0x1 SWAP3 PUSH1 0x2 DUP5 SLOAD EQ PUSH2 0xDF3 JUMPI PUSH1 0x2 DUP5 SSTORE DUP3 CALLDATALOAD DUP6 MSTORE PUSH1 0x6 DUP3 MSTORE DUP1 DUP6 KECCAK256 DUP2 MLOAD PUSH2 0xC04 DUP2 PUSH2 0x14A8 JUMP JUMPDEST DUP2 SLOAD DUP2 MSTORE DUP6 DUP3 ADD SLOAD SWAP2 DUP5 DUP3 ADD SWAP1 PUSH2 0xC1E PUSH1 0xFF DUP6 AND DUP4 PUSH2 0x149C JUMP JUMPDEST PUSH1 0x1 DUP1 PUSH1 0xA0 SHL SUB SWAP3 DUP4 DUP7 DUP3 ADD SWAP6 PUSH1 0x8 SHR AND DUP6 MSTORE PUSH1 0x2 DUP3 ADD SLOAD PUSH1 0x60 DUP3 ADD MSTORE PUSH1 0xC0 PUSH1 0x5 PUSH1 0xFF PUSH1 0x3 DUP6 ADD SLOAD AND ISZERO SWAP4 DUP5 ISZERO PUSH1 0x80 DUP6 ADD MSTORE DUP11 DUP2 ADD SLOAD PUSH1 0xA0 DUP6 ADD MSTORE ADD SLOAD SWAP2 ADD MSTORE PUSH2 0xDC0 JUMPI MLOAD PUSH1 0x3 DUP2 LT ISZERO PUSH2 0xDAD JUMPI DUP7 SUB PUSH2 0xD7C JUMPI DUP1 DUP3 MLOAD AND ISZERO PUSH2 0xD4D JUMPI PUSH1 0x9 SLOAD SWAP2 DUP3 ISZERO PUSH2 0xD1F JUMPI DUP8 DUP1 SWAP4 DUP2 SWAP4 DUP3 SWAP4 DUP4 PUSH1 0x9 SSTORE MLOAD AND GAS CALL RETURNDATASIZE ISZERO PUSH2 0xD1A JUMPI RETURNDATASIZE PUSH8 0xFFFFFFFFFFFFFFFF DUP2 GT PUSH2 0xD07 JUMPI DUP3 MLOAD SWAP1 PUSH2 0xCC0 PUSH1 0x1F DUP3 ADD PUSH1 0x1F NOT AND DUP7 ADD DUP4 PUSH2 0x14DA JUMP JUMPDEST DUP2 MSTORE DUP7 DUP5 RETURNDATASIZE SWAP3 ADD RETURNDATACOPY JUMPDEST ISZERO PUSH2 0xCD6 JUMPI POP POP POP DUP1 SSTORE DUP1 RETURN JUMPDEST MLOAD PUSH3 0x461BCD PUSH1 0xE5 SHL DUP2 MSTORE SWAP2 DUP3 ADD MSTORE PUSH1 0xD PUSH1 0x24 DUP3 ADD MSTORE PUSH13 0x14185E5BDD5D0819985A5B1959 PUSH1 0x9A SHL PUSH1 0x44 DUP3 ADD MSTORE PUSH1 0x64 SWAP2 POP REVERT JUMPDEST PUSH4 0x4E487B71 PUSH1 0xE0 SHL DUP8 MSTORE PUSH1 0x41 DUP6 MSTORE PUSH1 0x24 DUP8 REVERT JUMPDEST PUSH2 0xCC9 JUMP JUMPDEST DUP4 MLOAD PUSH3 0x461BCD PUSH1 0xE5 SHL DUP2 MSTORE DUP1 DUP8 ADD DUP7 SWAP1 MSTORE PUSH1 0x8 PUSH1 0x24 DUP3 ADD MSTORE PUSH8 0x4E6F207072697A65 PUSH1 0xC0 SHL PUSH1 0x44 DUP3 ADD MSTORE PUSH1 0x64 SWAP1 REVERT JUMPDEST POP POP MLOAD PUSH3 0x461BCD PUSH1 0xE5 SHL DUP2 MSTORE SWAP2 DUP3 ADD MSTORE PUSH1 0x9 PUSH1 0x24 DUP3 ADD MSTORE PUSH9 0x2737903BB4B73732B9 PUSH1 0xB9 SHL PUSH1 0x44 DUP3 ADD MSTORE PUSH1 0x64 SWAP2 POP REVERT JUMPDEST POP POP MLOAD PUSH3 0x461BCD PUSH1 0xE5 SHL DUP2 MSTORE SWAP2 DUP3 ADD MSTORE PUSH1 0xB PUSH1 0x24 DUP3 ADD MSTORE PUSH11 0x4E6F74206C6F7474657279 PUSH1 0xA8 SHL PUSH1 0x44 DUP3 ADD MSTORE PUSH1 0x64 SWAP2 POP REVERT JUMPDEST PUSH4 0x4E487B71 PUSH1 0xE0 SHL DUP9 MSTORE PUSH1 0x21 DUP7 MSTORE PUSH1 0x24 DUP9 REVERT JUMPDEST DUP4 MLOAD PUSH3 0x461BCD PUSH1 0xE5 SHL DUP2 MSTORE DUP1 DUP8 ADD DUP7 SWAP1 MSTORE PUSH1 0xD PUSH1 0x24 DUP3 ADD MSTORE PUSH13 0x139BDD08199D5B199A5B1B1959 PUSH1 0x9A SHL PUSH1 0x44 DUP3 ADD MSTORE PUSH1 0x64 SWAP1 REVERT JUMPDEST MLOAD PUSH4 0x3EE5AEB5 PUSH1 0xE0 SHL DUP2 MSTORE SWAP1 POP REVERT JUMPDEST DUP4 DUP4 CALLVALUE PUSH2 0x1B5 JUMPI DUP1 PUSH1 0x3 NOT CALLDATASIZE ADD SLT PUSH2 0x1B5 JUMPI PUSH2 0xE1C PUSH2 0x1416 JUMP JUMPDEST SWAP1 CALLER PUSH1 0x1 PUSH1 0x1 PUSH1 0xA0 SHL SUB DUP4 AND SUB PUSH2 0xE39 JUMPI POP PUSH2 0x4F2 SWAP2 SWAP3 CALLDATALOAD PUSH2 0x161A JUMP JUMPDEST MLOAD PUSH4 0x334BD919 PUSH1 0xE1 SHL DUP2 MSTORE DUP4 SWAP1 REVERT JUMPDEST SWAP2 SWAP1 POP CALLVALUE PUSH2 0x1FD JUMPI DUP1 PUSH1 0x3 NOT CALLDATASIZE ADD SLT PUSH2 0x1FD JUMPI PUSH2 0x4F2 SWAP2 CALLDATALOAD PUSH2 0xE6D PUSH1 0x1 PUSH2 0x4DC PUSH2 0x1416 JUMP JUMPDEST PUSH2 0x159C JUMP JUMPDEST DUP3 DUP5 CALLVALUE PUSH2 0x1FA JUMPI DUP1 PUSH1 0x3 NOT CALLDATASIZE ADD SLT PUSH2 0x1FA JUMPI POP PUSH4 0xFFFFFFFF PUSH1 0x20 SWAP3 SLOAD PUSH1 0x50 SHR AND SWAP1 MLOAD SWAP1 DUP2 MSTORE RETURN JUMPDEST SWAP1 POP CALLVALUE PUSH2 0x1FD JUMPI PUSH1 0x20 CALLDATASIZE PUSH1 0x3 NOT ADD SLT PUSH2 0x1FD JUMPI DUP2 PUSH1 0x20 SWAP4 PUSH1 0x1 SWAP3 CALLDATALOAD DUP2 MSTORE DUP1 DUP6 MSTORE KECCAK256 ADD SLOAD SWAP1 MLOAD SWAP1 DUP2 MSTORE RETURN JUMPDEST DUP4 SWAP2 POP CALLVALUE PUSH2 0x1B5 JUMPI DUP3 PUSH1 0x3 NOT CALLDATASIZE ADD SLT PUSH2 0x1B5 JUMPI PUSH1 0x24 SWAP3 DUP4 CALLDATALOAD SWAP4 PUSH8 0xFFFFFFFFFFFFFFFF SWAP1 DUP2 DUP7 GT PUSH2 0x9F4 JUMPI CALLDATASIZE PUSH1 0x23 DUP8 ADD SLT ISZERO PUSH2 0x9F4 JUMPI DUP6 DUP5 ADD CALLDATALOAD SWAP2 DUP3 GT PUSH2 0x9F4 JUMPI CALLDATASIZE DUP2 DUP4 PUSH1 0x5 SHL DUP9 ADD ADD GT PUSH2 0x9F4 JUMPI PUSH1 0x2 SLOAD PUSH1 0x1 PUSH1 0x1 PUSH1 0xA0 SHL SUB SWAP3 SWAP1 DUP4 AND CALLER SUB PUSH2 0x1183 JUMPI ISZERO PUSH2 0x114F JUMPI DUP4 CALLDATALOAD DUP6 MSTORE PUSH1 0x7 PUSH1 0x20 MSTORE DUP3 DUP6 KECCAK256 SLOAD SWAP4 DUP5 ISZERO PUSH2 0x111C JUMPI DUP5 DUP7 MSTORE PUSH1 0x6 PUSH1 0x20 MSTORE DUP4 DUP7 KECCAK256 SWAP7 PUSH1 0x3 DUP9 ADD DUP1 SLOAD PUSH1 0xFF DUP2 AND PUSH2 0x10E6 JUMPI PUSH1 0x1 SWAP1 PUSH1 0xFF NOT AND OR SWAP1 SSTORE DUP3 DUP8 SWAP2 ADD CALLDATALOAD SWAP4 DUP5 DUP4 DUP11 ADD SSTORE PUSH1 0x1 DUP10 ADD SWAP1 PUSH1 0xFF DUP3 SLOAD AND PUSH1 0x3 DUP2 LT ISZERO PUSH2 0x10D4 JUMPI DUP4 SWAP3 SWAP2 SWAP1 DUP1 PUSH2 0x101A JUMPI POP POP POP PUSH2 0x1008 JUMPI PUSH2 0x4E20 PUSH3 0x13881 DUP6 MOD DUP2 ADD DUP1 SWAP2 GT PUSH2 0xFF6 JUMPI PUSH1 0x5 DUP10 ADD SSTORE JUMPDEST PUSH2 0xFE5 JUMPI POP POP PUSH1 0x5 PUSH32 0x51456263B799F4D2A35636B18BE4F7E27453E46C3978E9177B54385C197A594F SWAP4 SWAP5 SWAP6 ADD SLOAD DUP3 MLOAD SWAP2 DUP3 MSTORE PUSH1 0x20 DUP3 ADD MSTORE LOG2 DUP1 RETURN JUMPDEST PUSH4 0x4E487B71 PUSH1 0xE0 SHL DUP7 MSTORE PUSH1 0x32 SWAP1 MSTORE DUP5 REVERT JUMPDEST PUSH4 0x4E487B71 PUSH1 0xE0 SHL DUP9 MSTORE PUSH1 0x11 DUP4 MSTORE DUP4 DUP9 REVERT JUMPDEST POP PUSH4 0x4E487B71 PUSH1 0xE0 SHL DUP7 MSTORE PUSH1 0x32 SWAP1 MSTORE DUP5 REVERT JUMPDEST SWAP2 SWAP3 POP SWAP1 PUSH1 0x1 DUP2 SUB PUSH2 0x10B8 JUMPI POP PUSH1 0x8 SLOAD DUP1 ISZERO DUP5 DUP2 ISZERO PUSH2 0x103E JUMPI JUMPDEST POP POP POP POP POP PUSH2 0xFA9 JUMP JUMPDEST PUSH2 0x10A6 JUMPI PUSH2 0x1094 JUMPI SWAP1 PUSH2 0x105E PUSH1 0x5 DUP13 PUSH2 0x108A SWAP6 SWAP5 DUP11 MOD SWAP2 DUP3 SWAP2 ADD SSTORE PUSH2 0x144F JUMP JUMPDEST SWAP1 SLOAD DUP4 SLOAD PUSH2 0x100 PUSH1 0x1 PUSH1 0xA8 SHL SUB NOT AND PUSH1 0x3 SWAP3 SWAP1 SWAP3 SHL SHR SWAP2 SWAP1 SWAP2 AND PUSH1 0x8 SHL PUSH2 0x100 PUSH1 0x1 PUSH1 0xA8 SHL SUB AND OR SWAP1 SSTORE JUMP JUMPDEST DUP9 DUP1 DUP1 DUP1 DUP5 PUSH2 0x1034 JUMP JUMPDEST PUSH4 0x4E487B71 PUSH1 0xE0 SHL DUP11 MSTORE PUSH1 0x12 DUP6 MSTORE DUP6 DUP11 REVERT JUMPDEST PUSH4 0x4E487B71 PUSH1 0xE0 SHL DUP12 MSTORE PUSH1 0x32 DUP7 MSTORE DUP7 DUP12 REVERT JUMPDEST SWAP1 POP PUSH1 0x2 SWAP2 POP SUB PUSH2 0xFA9 JUMPI POP DUP6 PUSH2 0x2710 DUP5 MOD PUSH1 0x5 DUP10 ADD SSTORE PUSH2 0xFA9 JUMP JUMPDEST PUSH4 0x4E487B71 PUSH1 0xE0 SHL DUP11 MSTORE PUSH1 0x21 DUP6 MSTORE DUP6 DUP11 REVERT JUMPDEST DUP7 MLOAD PUSH3 0x461BCD PUSH1 0xE5 SHL DUP2 MSTORE PUSH1 0x20 DUP2 DUP7 ADD MSTORE PUSH1 0x11 DUP2 DUP8 ADD MSTORE PUSH17 0x105B1C9958591E48199D5B199A5B1B1959 PUSH1 0x7A SHL PUSH1 0x44 DUP3 ADD MSTORE PUSH1 0x64 SWAP1 REVERT JUMPDEST PUSH1 0xF PUSH1 0x64 SWAP3 PUSH1 0x20 DUP7 MLOAD SWAP4 PUSH3 0x461BCD PUSH1 0xE5 SHL DUP6 MSTORE DUP5 ADD MSTORE DUP3 ADD MSTORE PUSH15 0x155B9ADB9BDDDB881C995C5D595CDD PUSH1 0x8A SHL PUSH1 0x44 DUP3 ADD MSTORE REVERT JUMPDEST DUP4 PUSH1 0xF PUSH1 0x64 SWAP3 PUSH1 0x20 DUP7 MLOAD SWAP4 PUSH3 0x461BCD PUSH1 0xE5 SHL DUP6 MSTORE DUP5 ADD MSTORE DUP3 ADD MSTORE PUSH15 0x4E6F2072616E646F6D20776F726473 PUSH1 0x88 SHL PUSH1 0x44 DUP3 ADD MSTORE REVERT JUMPDEST DUP4 MLOAD PUSH3 0x461BCD PUSH1 0xE5 SHL DUP2 MSTORE PUSH1 0x20 DUP2 DUP8 ADD MSTORE PUSH1 0x10 DUP2 DUP5 ADD MSTORE PUSH16 0x27B7363C9031B7B7B93234B730BA37B9 PUSH1 0x81 SHL PUSH1 0x44 DUP3 ADD MSTORE PUSH1 0x64 SWAP1 REVERT JUMPDEST SWAP2 SWAP1 POP CALLVALUE PUSH2 0x1FD JUMPI DUP1 PUSH1 0x3 NOT CALLDATASIZE ADD SLT PUSH2 0x1FD JUMPI PUSH2 0x11D3 PUSH2 0x13FB JUMP JUMPDEST PUSH2 0x11DB PUSH2 0x14FC JUMP JUMPDEST PUSH1 0x1 DUP1 PUSH1 0xA0 SHL SUB DUP5 DUP2 PUSH1 0x2 SLOAD AND SWAP3 PUSH1 0x3 SLOAD SWAP4 PUSH4 0xFFFFFFFF DUP8 SLOAD DUP8 MLOAD SWAP7 PUSH4 0x5D3B1D3 PUSH1 0xE4 SHL DUP9 MSTORE DUP10 DUP9 ADD MSTORE PUSH8 0xFFFFFFFFFFFFFFFF DUP2 AND PUSH1 0x24 DUP9 ADD MSTORE PUSH2 0xFFFF DUP2 DUP10 SHR AND PUSH1 0x44 DUP9 ADD MSTORE PUSH1 0x50 SHR AND PUSH1 0x64 DUP7 ADD MSTORE PUSH1 0x1 PUSH1 0x84 DUP7 ADD MSTORE DUP5 PUSH1 0xA4 DUP2 PUSH1 0x20 SWAP11 DUP12 SWAP5 GAS CALL SWAP4 DUP5 ISZERO PUSH2 0x4AD JUMPI DUP3 SWAP5 PUSH2 0x1351 JUMPI JUMPDEST POP PUSH1 0x5 SLOAD PUSH1 0x0 NOT DUP2 EQ PUSH2 0x46B JUMPI PUSH1 0x1 ADD DUP1 SWAP7 DUP2 PUSH1 0x5 SSTORE DUP9 DUP8 MLOAD SWAP4 PUSH2 0x126D DUP6 PUSH2 0x14A8 JUMP JUMPDEST DUP8 DUP6 MSTORE DUP2 DUP6 ADD SWAP7 DUP7 DUP9 MSTORE DUP1 DUP11 DUP8 ADD SWAP3 AND SWAP8 DUP9 DUP4 MSTORE PUSH1 0x60 DUP8 ADD SWAP2 PUSH1 0x24 CALLDATALOAD DUP4 MSTORE PUSH1 0x80 DUP9 ADD SWAP4 DUP10 DUP6 MSTORE PUSH1 0x6 PUSH1 0xA0 DUP11 ADD SWAP7 DUP12 DUP9 MSTORE PUSH1 0xC0 DUP12 ADD SWAP10 DUP13 DUP12 MSTORE DUP13 MSTORE MSTORE DUP13 DUP11 KECCAK256 SWAP9 MLOAD DUP10 SSTORE PUSH1 0x1 DUP10 ADD SWAP3 MLOAD PUSH1 0x3 DUP2 LT ISZERO PUSH2 0x458 JUMPI DUP4 SLOAD SWAP2 MLOAD PUSH1 0x1 PUSH1 0x1 PUSH1 0xA8 SHL SUB NOT SWAP1 SWAP3 AND PUSH1 0xFF SWAP1 SWAP2 AND OR SWAP2 AND PUSH1 0x8 SHL PUSH2 0x100 PUSH1 0x1 PUSH1 0xA8 SHL SUB AND OR SWAP1 SSTORE DUP11 SWAP9 PUSH32 0x49BC1709AB79728DC57E19BC28889EF83E403E7133404CEC671A1E5E34D249D3 SWAP9 PUSH1 0x60 SWAP9 SWAP2 SWAP8 SWAP1 SWAP7 SWAP2 SWAP6 SWAP1 SWAP5 PUSH1 0x5 SWAP5 SWAP3 SWAP4 SWAP2 SWAP3 SWAP1 SWAP2 PUSH2 0x1328 SWAP2 SWAP1 PUSH2 0x412 JUMP JUMPDEST MLOAD SWAP1 DUP5 ADD SSTORE MLOAD SWAP2 ADD SSTORE DUP3 DUP2 MSTORE PUSH1 0x7 DUP10 MSTORE DUP6 DUP8 DUP3 KECCAK256 SSTORE DUP7 MLOAD SWAP3 DUP4 MSTORE DUP9 DUP4 ADD MSTORE DUP6 DUP3 ADD MSTORE LOG2 MLOAD SWAP1 DUP2 MSTORE RETURN JUMPDEST SWAP1 SWAP4 POP DUP7 DUP2 DUP2 RETURNDATASIZE DUP4 GT PUSH2 0x1379 JUMPI JUMPDEST PUSH2 0x1369 DUP2 DUP4 PUSH2 0x14DA JUMP JUMPDEST DUP2 ADD SUB SLT PUSH2 0x1B5 JUMPI MLOAD SWAP3 CODESIZE PUSH2 0x124A JUMP JUMPDEST POP RETURNDATASIZE PUSH2 0x135F JUMP JUMPDEST DUP3 DUP5 CALLVALUE PUSH2 0x1FA JUMPI DUP1 PUSH1 0x3 NOT CALLDATASIZE ADD SLT PUSH2 0x1FA JUMPI POP PUSH8 0xFFFFFFFFFFFFFFFF PUSH1 0x20 SWAP3 SLOAD AND SWAP1 MLOAD SWAP1 DUP2 MSTORE RETURN JUMPDEST DUP5 SWAP2 CALLVALUE PUSH2 0x1FD JUMPI PUSH1 0x20 CALLDATASIZE PUSH1 0x3 NOT ADD SLT PUSH2 0x1FD JUMPI CALLDATALOAD PUSH4 0xFFFFFFFF PUSH1 0xE0 SHL DUP2 AND DUP1 SWAP2 SUB PUSH2 0x1FD JUMPI PUSH1 0x20 SWAP3 POP PUSH4 0x7965DB0B PUSH1 0xE0 SHL DUP2 EQ SWAP1 DUP2 ISZERO PUSH2 0x13EA JUMPI JUMPDEST POP ISZERO ISZERO DUP2 MSTORE RETURN JUMPDEST PUSH4 0x1FFC9A7 PUSH1 0xE0 SHL EQ SWAP1 POP DUP4 PUSH2 0x13E3 JUMP JUMPDEST PUSH1 0x4 CALLDATALOAD SWAP1 PUSH1 0x1 PUSH1 0x1 PUSH1 0xA0 SHL SUB DUP3 AND DUP3 SUB PUSH2 0x1411 JUMPI JUMP JUMPDEST PUSH1 0x0 DUP1 REVERT JUMPDEST PUSH1 0x24 CALLDATALOAD SWAP1 PUSH1 0x1 PUSH1 0x1 PUSH1 0xA0 SHL SUB DUP3 AND DUP3 SUB PUSH2 0x1411 JUMPI JUMP JUMPDEST SWAP1 PUSH1 0x3 DUP3 LT ISZERO PUSH2 0x1439 JUMPI MSTORE JUMP JUMPDEST PUSH4 0x4E487B71 PUSH1 0xE0 SHL PUSH1 0x0 MSTORE PUSH1 0x21 PUSH1 0x4 MSTORE PUSH1 0x24 PUSH1 0x0 REVERT JUMPDEST PUSH1 0x8 SLOAD DUP2 LT ISZERO PUSH2 0x1486 JUMPI PUSH1 0x8 PUSH1 0x0 MSTORE PUSH32 0xF3F7A9FE364FAAB93B216DA50A3214154F22A0A2B415B23A84C8169E8B636EE3 ADD SWAP1 PUSH1 0x0 SWAP1 JUMP JUMPDEST PUSH4 0x4E487B71 PUSH1 0xE0 SHL PUSH1 0x0 MSTORE PUSH1 0x32 PUSH1 0x4 MSTORE PUSH1 0x24 PUSH1 0x0 REVERT JUMPDEST PUSH1 0x3 DUP3 LT ISZERO PUSH2 0x1439 JUMPI MSTORE JUMP JUMPDEST PUSH1 0xE0 DUP2 ADD SWAP1 DUP2 LT PUSH8 0xFFFFFFFFFFFFFFFF DUP3 GT OR PUSH2 0x14C4 JUMPI PUSH1 0x40 MSTORE JUMP JUMPDEST PUSH4 0x4E487B71 PUSH1 0xE0 SHL PUSH1 0x0 MSTORE PUSH1 0x41 PUSH1 0x4 MSTORE PUSH1 0x24 PUSH1 0x0 REVERT JUMPDEST SWAP1 PUSH1 0x1F DUP1 NOT SWAP2 ADD AND DUP2 ADD SWAP1 DUP2 LT PUSH8 0xFFFFFFFFFFFFFFFF DUP3 GT OR PUSH2 0x14C4 JUMPI PUSH1 0x40 MSTORE JUMP JUMPDEST CALLER PUSH1 0x0 SWAP1 DUP2 MSTORE PUSH32 0xEE57CD81E84075558E8FCC182A1F4393F91FC97F963A136E66B7F949A62F319F PUSH1 0x20 MSTORE PUSH1 0x40 SWAP1 KECCAK256 SLOAD PUSH32 0x97667070C54EF182B0F5858B034BEAC1B6F3089AA2D3188BB1E8929F4FA9B929 SWAP1 PUSH1 0xFF AND ISZERO PUSH2 0x1558 JUMPI POP JUMP JUMPDEST PUSH1 0x44 SWAP1 PUSH1 0x40 MLOAD SWAP1 PUSH4 0xE2517D3F PUSH1 0xE0 SHL DUP3 MSTORE CALLER PUSH1 0x4 DUP4 ADD MSTORE PUSH1 0x24 DUP3 ADD MSTORE REVERT JUMPDEST DUP1 PUSH1 0x0 MSTORE PUSH1 0x0 PUSH1 0x20 MSTORE PUSH1 0x40 PUSH1 0x0 KECCAK256 CALLER PUSH1 0x0 MSTORE PUSH1 0x20 MSTORE PUSH1 0xFF PUSH1 0x40 PUSH1 0x0 KECCAK256 SLOAD AND ISZERO PUSH2 0x1558 JUMPI POP JUMP JUMPDEST SWAP1 PUSH1 0x0 SWAP2 DUP1 DUP4 MSTORE DUP3 PUSH1 0x20 MSTORE PUSH1 0x40 DUP4 KECCAK256 SWAP2 PUSH1 0x1 DUP1 PUSH1 0xA0 SHL SUB AND SWAP2 DUP3 DUP5 MSTORE PUSH1 0x20 MSTORE PUSH1 0xFF PUSH1 0x40 DUP5 KECCAK256 SLOAD AND ISZERO PUSH1 0x0 EQ PUSH2 0x1615 JUMPI DUP1 DUP4 MSTORE DUP3 PUSH1 0x20 MSTORE PUSH1 0x40 DUP4 KECCAK256 DUP3 DUP5 MSTORE PUSH1 0x20 MSTORE PUSH1 0x40 DUP4 KECCAK256 PUSH1 0x1 PUSH1 0xFF NOT DUP3 SLOAD AND OR SWAP1 SSTORE PUSH32 0x2F8788117E7EFF1D82E926EC794901D17C78024A50270940304540A733656F0D CALLER SWAP4 DUP1 LOG4 PUSH1 0x1 SWAP1 JUMP JUMPDEST POP POP SWAP1 JUMP JUMPDEST SWAP1 PUSH1 0x0 SWAP2 DUP1 DUP4 MSTORE DUP3 PUSH1 0x20 MSTORE PUSH1 0x40 DUP4 KECCAK256 SWAP2 PUSH1 0x1 DUP1 PUSH1 0xA0 SHL SUB AND SWAP2 DUP3 DUP5 MSTORE PUSH1 0x20 MSTORE PUSH1 0xFF PUSH1 0x40 DUP5 KECCAK256 SLOAD AND PUSH1 0x0 EQ PUSH2 0x1615 JUMPI DUP1 DUP4 MSTORE DUP3 PUSH1 0x20 MSTORE PUSH1 0x40 DUP4 KECCAK256 DUP3 DUP5 MSTORE PUSH1 0x20 MSTORE PUSH1 0x40 DUP4 KECCAK256 PUSH1 0xFF NOT DUP2 SLOAD AND SWAP1 SSTORE PUSH32 0xF6391F5C32D9C69D2A47EA670B442974B53935D1EDC7FD64EB21E047A839171B CALLER SWAP4 DUP1 LOG4 PUSH1 0x1 SWAP1 JUMP INVALID LOG2 PUSH5 0x6970667358 0x22 SLT KECCAK256 PUSH0 DUP15 SHR 0xEF CALLDATASIZE 0xB7 DUP9 0xCE BASEFEE 0x22 PUSH15 0xE519A37628AA7517B2C118BE12BAD2 0xD3 DUP9 CREATE SWAP1 SELFDESTRUCT 0xE PUSH5 0x736F6C6343 STOP ADDMOD XOR STOP CALLER 0x2F DUP8 DUP9 GT PUSH31 0x7EFF1D82E926EC794901D17C78024A50270940304540A733656F0D00000000 "},"methodIdentifiers":{"DEFAULT_ADMIN_ROLE()":"a217fddf","MAX_LUCKY_MULT()":"7ae6842c","MIN_LUCKY_MULT()":"708ee370","OPERATOR_ROLE()":"f5b541a6","callbackGasLimit()":"24f74697","enterLottery(address)":"e3a0b950","fundLottery()":"b5cc4539","getLotteryParticipantCount()":"56d0bcf1","getRequest(uint256)":"c58343ef","getRoleAdmin(bytes32)":"248a9ca3","grantRole(bytes32,address)":"2f2ff15d","hasRole(bytes32,address)":"91d14854","keyHash()":"61728f39","lotteryParticipants(uint256)":"f59aabcd","lotteryPrize()":"c1196ecf","payoutLotteryWinner(uint256)":"3a139712","rawFulfillRandomWords(uint256,uint256[])":"1fe543e3","renounceRole(bytes32,address)":"36568abe","requestConfirmations()":"b0fb162f","requestCount()":"5badbe4c","requestLuckyCheckinBonus(address,uint256)":"0e23f3f2","requestRareDrop(address)":"d82c4649","requestWeeklyLottery()":"cd9aff84","requests(uint256)":"81d12c58","resetLottery()":"d337616e","revokeRole(bytes32,address)":"d547741f","setVRFConfig(bytes32,uint64,uint16,uint32)":"b2e65bcf","subscriptionId()":"09c1ba2e","supportsInterface(bytes4)":"01ffc9a7","vrfCoordinator()":"a3e56fa8"}},"storageLayout":{"storage":[{"astId":2475,"contract":"contracts/VRFBonusDistributor.sol:VRFBonusDistributor","label":"_roles","offset":0,"slot":"0","type":"t_mapping(t_bytes32,t_struct(RoleData)2470_storage)"},{"astId":4023,"contract":"contracts/VRFBonusDistributor.sol:VRFBonusDistributor","label":"_status","offset":0,"slot":"1","type":"t_uint256"},{"astId":9895,"contract":"contracts/VRFBonusDistributor.sol:VRFBonusDistributor","label":"vrfCoordinator","offset":0,"slot":"2","type":"t_contract(IVRFCoordinatorV2Plus)9883"},{"astId":9897,"contract":"contracts/VRFBonusDistributor.sol:VRFBonusDistributor","label":"keyHash","offset":0,"slot":"3","type":"t_bytes32"},{"astId":9899,"contract":"contracts/VRFBonusDistributor.sol:VRFBonusDistributor","label":"subscriptionId","offset":0,"slot":"4","type":"t_uint64"},{"astId":9902,"contract":"contracts/VRFBonusDistributor.sol:VRFBonusDistributor","label":"requestConfirmations","offset":8,"slot":"4","type":"t_uint16"},{"astId":9905,"contract":"contracts/VRFBonusDistributor.sol:VRFBonusDistributor","label":"callbackGasLimit","offset":10,"slot":"4","type":"t_uint32"},{"astId":9927,"contract":"contracts/VRFBonusDistributor.sol:VRFBonusDistributor","label":"requestCount","offset":0,"slot":"5","type":"t_uint256"},{"astId":9932,"contract":"contracts/VRFBonusDistributor.sol:VRFBonusDistributor","label":"requests","offset":0,"slot":"6","type":"t_mapping(t_uint256,t_struct(BonusRequest)9925_storage)"},{"astId":9936,"contract":"contracts/VRFBonusDistributor.sol:VRFBonusDistributor","label":"_requestIdToIndex","offset":0,"slot":"7","type":"t_mapping(t_uint256,t_uint256)"},{"astId":9945,"contract":"contracts/VRFBonusDistributor.sol:VRFBonusDistributor","label":"lotteryParticipants","offset":0,"slot":"8","type":"t_array(t_address)dyn_storage"},{"astId":9947,"contract":"contracts/VRFBonusDistributor.sol:VRFBonusDistributor","label":"lotteryPrize","offset":0,"slot":"9","type":"t_uint256"}],"types":{"t_address":{"encoding":"inplace","label":"address","numberOfBytes":"20"},"t_array(t_address)dyn_storage":{"base":"t_address","encoding":"dynamic_array","label":"address[]","numberOfBytes":"32"},"t_bool":{"encoding":"inplace","label":"bool","numberOfBytes":"1"},"t_bytes32":{"encoding":"inplace","label":"bytes32","numberOfBytes":"32"},"t_contract(IVRFCoordinatorV2Plus)9883":{"encoding":"inplace","label":"contract IVRFCoordinatorV2Plus","numberOfBytes":"20"},"t_enum(BonusType)9909":{"encoding":"inplace","label":"enum VRFBonusDistributor.BonusType","numberOfBytes":"1"},"t_mapping(t_address,t_bool)":{"encoding":"mapping","key":"t_address","label":"mapping(address => bool)","numberOfBytes":"32","value":"t_bool"},"t_mapping(t_bytes32,t_struct(RoleData)2470_storage)":{"encoding":"mapping","key":"t_bytes32","label":"mapping(bytes32 => struct AccessControl.RoleData)","numberOfBytes":"32","value":"t_struct(RoleData)2470_storage"},"t_mapping(t_uint256,t_struct(BonusRequest)9925_storage)":{"encoding":"mapping","key":"t_uint256","label":"mapping(uint256 => struct VRFBonusDistributor.BonusRequest)","numberOfBytes":"32","value":"t_struct(BonusRequest)9925_storage"},"t_mapping(t_uint256,t_uint256)":{"encoding":"mapping","key":"t_uint256","label":"mapping(uint256 => uint256)","numberOfBytes":"32","value":"t_uint256"},"t_struct(BonusRequest)9925_storage":{"encoding":"inplace","label":"struct VRFBonusDistributor.BonusRequest","members":[{"astId":9911,"contract":"contracts/VRFBonusDistributor.sol:VRFBonusDistributor","label":"requestId","offset":0,"slot":"0","type":"t_uint256"},{"astId":9914,"contract":"contracts/VRFBonusDistributor.sol:VRFBonusDistributor","label":"bonusType","offset":0,"slot":"1","type":"t_enum(BonusType)9909"},{"astId":9916,"contract":"contracts/VRFBonusDistributor.sol:VRFBonusDistributor","label":"beneficiary","offset":1,"slot":"1","type":"t_address"},{"astId":9918,"contract":"contracts/VRFBonusDistributor.sol:VRFBonusDistributor","label":"baseAmount","offset":0,"slot":"2","type":"t_uint256"},{"astId":9920,"contract":"contracts/VRFBonusDistributor.sol:VRFBonusDistributor","label":"fulfilled","offset":0,"slot":"3","type":"t_bool"},{"astId":9922,"contract":"contracts/VRFBonusDistributor.sol:VRFBonusDistributor","label":"randomWord","offset":0,"slot":"4","type":"t_uint256"},{"astId":9924,"contract":"contracts/VRFBonusDistributor.sol:VRFBonusDistributor","label":"bonusResult","offset":0,"slot":"5","type":"t_uint256"}],"numberOfBytes":"192"},"t_struct(RoleData)2470_storage":{"encoding":"inplace","label":"struct AccessControl.RoleData","members":[{"astId":2467,"contract":"contracts/VRFBonusDistributor.sol:VRFBonusDistributor","label":"hasRole","offset":0,"slot":"0","type":"t_mapping(t_address,t_bool)"},{"astId":2469,"contract":"contracts/VRFBonusDistributor.sol:VRFBonusDistributor","label":"adminRole","offset":0,"slot":"1","type":"t_bytes32"}],"numberOfBytes":"64"},"t_uint16":{"encoding":"inplace","label":"uint16","numberOfBytes":"2"},"t_uint256":{"encoding":"inplace","label":"uint256","numberOfBytes":"32"},"t_uint32":{"encoding":"inplace","label":"uint32","numberOfBytes":"4"},"t_uint64":{"encoding":"inplace","label":"uint64","numberOfBytes":"8"}}}}}}