{"contracts/OracleGovernance.sol":{"OracleGovernance":{"abi":[{"inputs":[{"internalType":"address","name":"_oaiToken","type":"address"}],"stateMutability":"nonpayable","type":"constructor"},{"inputs":[],"name":"AccessControlBadConfirmation","type":"error"},{"inputs":[{"internalType":"address","name":"account","type":"address"},{"internalType":"bytes32","name":"neededRole","type":"bytes32"}],"name":"AccessControlUnauthorizedAccount","type":"error"},{"anonymous":false,"inputs":[{"indexed":true,"internalType":"uint256","name":"id","type":"uint256"}],"name":"ProposalCancelled","type":"event"},{"anonymous":false,"inputs":[{"indexed":true,"internalType":"uint256","name":"id","type":"uint256"},{"indexed":true,"internalType":"address","name":"proposer","type":"address"},{"indexed":false,"internalType":"string","name":"title","type":"string"},{"indexed":false,"internalType":"uint256","name":"startTime","type":"uint256"},{"indexed":false,"internalType":"uint256","name":"endTime","type":"uint256"}],"name":"ProposalCreated","type":"event"},{"anonymous":false,"inputs":[{"indexed":true,"internalType":"uint256","name":"id","type":"uint256"}],"name":"ProposalExecuted","type":"event"},{"anonymous":false,"inputs":[{"indexed":false,"internalType":"uint256","name":"oldBps","type":"uint256"},{"indexed":false,"internalType":"uint256","name":"newBps","type":"uint256"}],"name":"QuorumUpdated","type":"event"},{"anonymous":false,"inputs":[{"indexed":true,"internalType":"bytes32","name":"role","type":"bytes32"},{"indexed":true,"internalType":"bytes32","name":"previousAdminRole","type":"bytes32"},{"indexed":true,"internalType":"bytes32","name":"newAdminRole","type":"bytes32"}],"name":"RoleAdminChanged","type":"event"},{"anonymous":false,"inputs":[{"indexed":true,"internalType":"bytes32","name":"role","type":"bytes32"},{"indexed":true,"internalType":"address","name":"account","type":"address"},{"indexed":true,"internalType":"address","name":"sender","type":"address"}],"name":"RoleGranted","type":"event"},{"anonymous":false,"inputs":[{"indexed":true,"internalType":"bytes32","name":"role","type":"bytes32"},{"indexed":true,"internalType":"address","name":"account","type":"address"},{"indexed":true,"internalType":"address","name":"sender","type":"address"}],"name":"RoleRevoked","type":"event"},{"anonymous":false,"inputs":[{"indexed":true,"internalType":"uint256","name":"proposalId","type":"uint256"},{"indexed":true,"internalType":"address","name":"voter","type":"address"},{"indexed":false,"internalType":"bool","name":"support","type":"bool"},{"indexed":false,"internalType":"uint256","name":"weight","type":"uint256"}],"name":"VoteCast","type":"event"},{"inputs":[],"name":"DEFAULT_ADMIN_ROLE","outputs":[{"internalType":"bytes32","name":"","type":"bytes32"}],"stateMutability":"view","type":"function"},{"inputs":[],"name":"MIN_PROPOSAL_THRESHOLD","outputs":[{"internalType":"uint256","name":"","type":"uint256"}],"stateMutability":"view","type":"function"},{"inputs":[],"name":"VOTING_PERIOD","outputs":[{"internalType":"uint256","name":"","type":"uint256"}],"stateMutability":"view","type":"function"},{"inputs":[{"internalType":"uint256","name":"proposalId","type":"uint256"}],"name":"cancel","outputs":[],"stateMutability":"nonpayable","type":"function"},{"inputs":[{"internalType":"uint256","name":"proposalId","type":"uint256"},{"internalType":"bool","name":"support","type":"bool"}],"name":"castVote","outputs":[],"stateMutability":"nonpayable","type":"function"},{"inputs":[{"internalType":"uint256","name":"proposalId","type":"uint256"}],"name":"execute","outputs":[],"stateMutability":"nonpayable","type":"function"},{"inputs":[{"internalType":"uint256","name":"proposalId","type":"uint256"}],"name":"getProposal","outputs":[{"components":[{"internalType":"uint256","name":"id","type":"uint256"},{"internalType":"address","name":"proposer","type":"address"},{"internalType":"string","name":"title","type":"string"},{"internalType":"string","name":"description","type":"string"},{"internalType":"uint256","name":"forVotes","type":"uint256"},{"internalType":"uint256","name":"againstVotes","type":"uint256"},{"internalType":"uint256","name":"startTime","type":"uint256"},{"internalType":"uint256","name":"endTime","type":"uint256"},{"internalType":"bool","name":"executed","type":"bool"},{"internalType":"bool","name":"cancelled","type":"bool"},{"internalType":"bytes","name":"callData","type":"bytes"},{"internalType":"address","name":"target","type":"address"}],"internalType":"struct OracleGovernance.Proposal","name":"","type":"tuple"}],"stateMutability":"view","type":"function"},{"inputs":[{"internalType":"bytes32","name":"role","type":"bytes32"}],"name":"getRoleAdmin","outputs":[{"internalType":"bytes32","name":"","type":"bytes32"}],"stateMutability":"view","type":"function"},{"inputs":[{"internalType":"uint256","name":"proposalId","type":"uint256"},{"internalType":"address","name":"voter","type":"address"}],"name":"getVoteInfo","outputs":[{"internalType":"bool","name":"voted","type":"bool"},{"internalType":"uint256","name":"weight","type":"uint256"},{"internalType":"bool","name":"support","type":"bool"}],"stateMutability":"view","type":"function"},{"inputs":[{"internalType":"bytes32","name":"role","type":"bytes32"},{"internalType":"address","name":"account","type":"address"}],"name":"grantRole","outputs":[],"stateMutability":"nonpayable","type":"function"},{"inputs":[{"internalType":"bytes32","name":"role","type":"bytes32"},{"internalType":"address","name":"account","type":"address"}],"name":"hasRole","outputs":[{"internalType":"bool","name":"","type":"bool"}],"stateMutability":"view","type":"function"},{"inputs":[{"internalType":"uint256","name":"","type":"uint256"},{"internalType":"address","name":"","type":"address"}],"name":"hasVoted","outputs":[{"internalType":"bool","name":"","type":"bool"}],"stateMutability":"view","type":"function"},{"inputs":[],"name":"oaiToken","outputs":[{"internalType":"contract IERC20","name":"","type":"address"}],"stateMutability":"view","type":"function"},{"inputs":[],"name":"proposalCount","outputs":[{"internalType":"uint256","name":"","type":"uint256"}],"stateMutability":"view","type":"function"},{"inputs":[{"internalType":"uint256","name":"","type":"uint256"}],"name":"proposals","outputs":[{"internalType":"uint256","name":"id","type":"uint256"},{"internalType":"address","name":"proposer","type":"address"},{"internalType":"string","name":"title","type":"string"},{"internalType":"string","name":"description","type":"string"},{"internalType":"uint256","name":"forVotes","type":"uint256"},{"internalType":"uint256","name":"againstVotes","type":"uint256"},{"internalType":"uint256","name":"startTime","type":"uint256"},{"internalType":"uint256","name":"endTime","type":"uint256"},{"internalType":"bool","name":"executed","type":"bool"},{"internalType":"bool","name":"cancelled","type":"bool"},{"internalType":"bytes","name":"callData","type":"bytes"},{"internalType":"address","name":"target","type":"address"}],"stateMutability":"view","type":"function"},{"inputs":[{"internalType":"string","name":"title","type":"string"},{"internalType":"string","name":"description","type":"string"},{"internalType":"address","name":"target","type":"address"},{"internalType":"bytes","name":"callData","type":"bytes"}],"name":"propose","outputs":[{"internalType":"uint256","name":"","type":"uint256"}],"stateMutability":"nonpayable","type":"function"},{"inputs":[],"name":"quorumBps","outputs":[{"internalType":"uint256","name":"","type":"uint256"}],"stateMutability":"view","type":"function"},{"inputs":[{"internalType":"bytes32","name":"role","type":"bytes32"},{"internalType":"address","name":"callerConfirmation","type":"address"}],"name":"renounceRole","outputs":[],"stateMutability":"nonpayable","type":"function"},{"inputs":[{"internalType":"bytes32","name":"role","type":"bytes32"},{"internalType":"address","name":"account","type":"address"}],"name":"revokeRole","outputs":[],"stateMutability":"nonpayable","type":"function"},{"inputs":[{"internalType":"uint256","name":"newBps","type":"uint256"}],"name":"setQuorum","outputs":[],"stateMutability":"nonpayable","type":"function"},{"inputs":[{"internalType":"uint256","name":"proposalId","type":"uint256"}],"name":"state","outputs":[{"internalType":"enum OracleGovernance.ProposalState","name":"","type":"uint8"}],"stateMutability":"view","type":"function"},{"inputs":[{"internalType":"bytes4","name":"interfaceId","type":"bytes4"}],"name":"supportsInterface","outputs":[{"internalType":"bool","name":"","type":"bool"}],"stateMutability":"view","type":"function"},{"inputs":[{"internalType":"uint256","name":"","type":"uint256"},{"internalType":"address","name":"","type":"address"}],"name":"voteWeight","outputs":[{"internalType":"uint256","name":"","type":"uint256"}],"stateMutability":"view","type":"function"}],"evm":{"bytecode":{"linkReferences":{},"object":"6080346100bd57601f62001cac38819003918201601f19168301916001600160401b038311848410176100c2578084926020946040528339810103126100bd57516001600160a01b038116908190036100bd576064600255801561008b57600180546001600160a01b03191691909117905561007a336100d8565b50604051611b439081620001698239f35b60405162461bcd60e51b815260206004820152600a6024820152692d32b937903a37b5b2b760b11b6044820152606490fd5b600080fd5b634e487b7160e01b600052604160045260246000fd5b6001600160a01b031660008181527fad3228b676f7d3cd4284a5443f17f1962b36e491b30a40b2405849e597ba5fb5602052604081205490919060ff1661016457818052816020526040822081835260205260408220600160ff1982541617905533917f2f8788117e7eff1d82e926ec794901d17c78024a50270940304540a733656f0d8180a4600190565b509056fe608080604052600436101561001357600080fd5b60003560e01c908163013cf08b146113cc5750806301ffc9a7146113765780630d524bc6146112ff57806315373e3d146110bc578063248a9ca31461108d5780632b0a999d146110455780632f2ff15d1461100657806336568abe14610fbf5780633e4f49e614610f9057806340e58ee514610e945780634385963214610e47578063791f5d2314610e2257806382ae179114610df957806391d1485414610dac578063a217fddf14610d90578063b1610d7e14610d72578063c1ba4e5914610c7e578063c7f758a814610a67578063cd2ddd0c14610a49578063d547741f14610a08578063da35c664146109ea578063de7b1638146103815763fe0d94c11461011c57600080fd5b3461037c5760208060031936011261037c57600435908160005260048152604060002061014b8154151561167c565b600781015442106103445760088101805461016960ff8216156118ee565b61017960ff8260081c16156116bd565b61018285611702565b600681101561032e576003036102f957600160ff199182168117909255600a8301546001600160a01b031692831515806102e4575b6101e4575b857f712ae1383f79ac853f8d882153778e0260ef8f03b504e2866e0593e04d2b291f600080a2005b600901906040519260009280546101fa816114e9565b93600182169182156102cd575050600114610292575b50505091816000809493819403925af13d1561028d573d6102308161192d565b9061023e60405192836115d6565b81526000833d92013e5b1561025657808080806101bc565b6064906040519062461bcd60e51b82526004820152601060248201526f115e1958dd5d1a5bdb8819985a5b195960821b6044820152fd5b610248565b909192506000528460002090856000925b8484106102bb57505050908201905081600080610210565b805486850152920191869082016102a3565b168652505050801515028201905081600080610210565b506102f260098201546114e9565b15156101b7565b60405162461bcd60e51b815260048101859052600d60248201526c139bdd081cdd58d8d959591959609a1b6044820152606490fd5b634e487b7160e01b600052602160045260246000fd5b60405162461bcd60e51b815260048101839052601060248201526f159bdd1a5b99c81b9bdd08195b99195960821b6044820152606490fd5b600080fd5b3461037c57608036600319011261037c5760043567ffffffffffffffff811161037c576103b290369060040161164e565b9060243567ffffffffffffffff811161037c576103d390369060040161164e565b9290604435906001600160a01b038216820361037c5760643567ffffffffffffffff811161037c5761040990369060040161164e565b6001546040516370a0823160e01b8152336004820152919492939190602090829060249082906001600160a01b03165afa80156109de576000906109a2575b69021e19e0c9bab240000091501061095d5784151580610952575b1561091d5760035492600019841461090757600184016003556203f48042014211610907576001946104c16104fc936040519a61049f8c6115b9565b8888018c523360208d01526104b5368b8d611949565b60408d01523691611949565b60608a0152600060808a0152600060a08a01524260c08a01526203f480420160e08a015260006101008a015260006101208a01523691611949565b610140870152828060a01b03166101608601520160005260046020526040600020918351835560018060a01b036020850151166bffffffffffffffffffffffff60a01b600185015416176001840155604084015180519067ffffffffffffffff82116108025761057c8261057360028801546114e9565b60028801611980565b602090601f8311600114610895576105ad929160009183610818575b50508160011b916000199060031b1c19161790565b60028401555b606084015180519067ffffffffffffffff8211610802576105e4826105db60038801546114e9565b60038801611980565b602090601f8311600114610823576106149291600091836108185750508160011b916000199060031b1c19161790565b60038401555b6080840151600484015560a0840151600584015560c0840151600684015560e08401516007840155600883016101008501511515815460ff61ff00610120890151151560081b1692169061ffff191617179055600983019361014081015194855167ffffffffffffffff8111610802576020966106a18261069b85546114e9565b85611980565b8790601f831160011461077757827f6c98a8c940418b35614f0cd02412d5c9606faff474cbb6cdd6640ba5d1a9f06b9893600a95936106f69360009261076c5750508160011b916000199060031b1c19161790565b90555b019061016060018060a01b03910151166bffffffffffffffffffffffff60a01b825416179055600354928391836040519160608352816060840152608083013760006080858301015242868201526203f480420160408201526080813395601f80199101168101030190a3604051908152f35b015190508b80610598565b90601f1983169184600052896000209260005b8181106107eb57509260019285927f6c98a8c940418b35614f0cd02412d5c9606faff474cbb6cdd6640ba5d1a9f06b9b96600a9896106107d2575b505050811b0190556106f9565b015160001960f88460031b161c191690558a80806107c5565b92938b60018192878601518155019501930161078a565b634e487b7160e01b600052604160045260246000fd5b015190508780610598565b9190600386016000526020600020906000935b601f198416851061087a576001945083601f19811610610861575b505050811b01600384015561061a565b015160001960f88460031b161c19169055868080610851565b81810151835560209485019460019093019290910190610836565b9190600286016000526020600020906000935b601f19841685106108ec576001945083601f198116106108d3575b505050811b0160028401556105b3565b015160001960f88460031b161c191690558680806108c3565b818101518355602094850194600190930192909101906108a8565b634e487b7160e01b600052601160045260246000fd5b60405162461bcd60e51b815260206004820152600d60248201526c496e76616c6964207469746c6560981b6044820152606490fd5b5060c8851115610463565b60405162461bcd60e51b815260206004820152601860248201527f42656c6f772070726f706f73616c207468726573686f6c6400000000000000006044820152606490fd5b506020813d6020116109d6575b816109bc602093836115d6565b8101031261037c5769021e19e0c9bab24000009051610448565b3d91506109af565b6040513d6000823e3d90fd5b3461037c57600036600319011261037c576020600354604051908152f35b3461037c57604036600319011261037c57610a47600435610a27611638565b90806000526000602052610a426001604060002001546119d6565b611a98565b005b3461037c57600036600319011261037c576020600254604051908152f35b3461037c57602036600319011261037c576000610160604051610a89816115b9565b828152826020820152606060408201526060808201528260808201528260a08201528260c08201528260e08201528261010082015282610120820152606061014082015201526004356000526004602052604060002060405190610aec826115b9565b8054825260018101546001600160a01b03166020830152604051610b1e81610b178160028601611523565b03826115d6565b6040830152604051610b3781610b178160038601611523565b606083015260048101546080830152600581015460a0830152600681015460c0830152600781015460e083015260ff6008820154818116151561010085015260081c161515610120830152604051610b9681610b178160098601611523565b610140830152600a01546001600160a01b0390811661016083015260408051602080825284518183015284015190921682820152820151610180606083015290918291610c6490610bec906101a08501906115f8565b610c08606084015191601f1992838783030160808801526115f8565b90608084015160a086015260a084015160c086015260c084015160e086015260e08401516101008601526101008401511515610120860152610120840151151561014086015261014084015190858303016101608601526115f8565b610160909101516001600160a01b03166101808301520390f35b3461037c57602036600319011261037c573360009081527fad3228b676f7d3cd4284a5443f17f1962b36e491b30a40b2405849e597ba5fb560205260409020546004359060ff1615610d535780151580610d47575b15610d115760407f6784e9bcb845caaa98267d7b0918f97d3d17f7cb35a05b52010f7eb587a0acb091600254908060025582519182526020820152a1005b60405162461bcd60e51b815260206004820152600e60248201526d496e76616c69642071756f72756d60901b6044820152606490fd5b50611388811115610cd3565b60405163e2517d3f60e01b815233600482015260006024820152604490fd5b3461037c57600036600319011261037c5760206040516203f4808152f35b3461037c57600036600319011261037c57602060405160008152f35b3461037c57604036600319011261037c57610dc5611638565b600435600052600060205260406000209060018060a01b0316600052602052602060ff604060002054166040519015158152f35b3461037c57600036600319011261037c576001546040516001600160a01b039091168152602090f35b3461037c57600036600319011261037c57602060405169021e19e0c9bab24000008152f35b3461037c57604036600319011261037c57610e60611638565b600435600052600560205260406000209060018060a01b0316600052602052602060ff604060002054166040519015158152f35b3461037c57602036600319011261037c576004358060005260046020526040600020610ec28154151561167c565b60018101546001600160a01b031633148015610f58575b15610f22576008016101008154610ef360ff8216156118ee565b61ff0019161790557f416e669c63d9a3a5e36ee7cc7e2104b8db28ccd286aa18966e98fa230c73b08c600080a2005b60405162461bcd60e51b815260206004820152600e60248201526d139bdd08185d5d1a1bdc9a5e995960921b6044820152606490fd5b503360009081527fad3228b676f7d3cd4284a5443f17f1962b36e491b30a40b2405849e597ba5fb5602052604090205460ff16610ed9565b3461037c57602036600319011261037c57610fac600435611702565b604051600682101561032e576020918152f35b3461037c57604036600319011261037c57610fd8611638565b336001600160a01b03821603610ff457610a4790600435611a98565b60405163334bd91960e11b8152600490fd5b3461037c57604036600319011261037c57610a47600435611025611638565b908060005260006020526110406001604060002001546119d6565b611a1a565b3461037c57604036600319011261037c5761105e611638565b600435600052600660205260406000209060018060a01b03166000526020526020604060002054604051908152f35b3461037c57602036600319011261037c5760043560005260006020526020600160406000200154604051908152f35b3461037c57604036600319011261037c57600435602435908115159182810361037c5781600052602090600482526040600020906110fc8254151561167c565b6006820154421015806112f2575b156112bd5761112360ff600884015460081c16156116bd565b8360005260058352604060002033600052835260ff60406000205416611288576001546040516370a0823160e01b8152336004820152939291908390859060249082906001600160a01b03165afa9384156109de57600094611259575b50831561122257846000526005835260406000203360005283526040600020600160ff19825416179055846000526006835260406000203360005283528360406000205560001461120d576004016111d98382546116f5565b90555b6040519384528301527fcbdf6214089cba887ecbf35a0b6a734589959c9763342c756bb2a80ca2bc9f6e60403393a3005b60050161121b8382546116f5565b90556111dc565b60405162461bcd60e51b815260048101849052600f60248201526e2737903b37ba34b733903837bbb2b960891b6044820152606490fd5b9093508281813d8311611281575b61127181836115d6565b8101031261037c57519286611180565b503d611267565b60405162461bcd60e51b815260048101849052600d60248201526c105b1c9958591e481d9bdd1959609a1b6044820152606490fd5b60405162461bcd60e51b815260048101849052600d60248201526c159bdd1a5b99c818db1bdcd959609a1b6044820152606490fd5b506007820154421061110a565b3461037c57604036600319011261037c57606060043561131d611638565b81600052600560205260406000209060018060a01b0316908160005260205260ff604060002054169160005260066020526040600020906000526020526040600020546040519115158252602082015260006040820152f35b3461037c57602036600319011261037c5760043563ffffffff60e01b811680910361037c57602090637965db0b60e01b81149081156113bb575b506040519015158152f35b6301ffc9a760e01b149050826113b0565b3461037c57602036600319011261037c57600435600052600460205260406000208054916114de60018060a01b03806001850154169361141a846114138160028501611523565b03856115d6565b60ff60405192611431846114138160038701611523565b60048301549360058401546006850154906114a4600787015493611496600889015496600a6040519a6114728c61146b8160098501611523565b038d6115d6565b0154169b6040519e8f9e8f90610180928252602082015281604082015201906115f8565b8c810360608e0152906115f8565b9660808b015260a08a015260c089015260e0880152818116151561010088015260081c1615156101208601528482036101408601526115f8565b906101608301520390f35b90600182811c92168015611519575b602083101461150357565b634e487b7160e01b600052602260045260246000fd5b91607f16916114f8565b805460009392611532826114e9565b9182825260209360019160018116908160001461159a5750600114611559575b5050505050565b90939495506000929192528360002092846000945b83861061158657505050500101903880808080611552565b80548587018301529401938590820161156e565b60ff19168685015250505090151560051b010191503880808080611552565b610180810190811067ffffffffffffffff82111761080257604052565b90601f8019910116810190811067ffffffffffffffff82111761080257604052565b919082519283825260005b848110611624575050826000602080949584010152601f8019910116010190565b602081830181015184830182015201611603565b602435906001600160a01b038216820361037c57565b9181601f8401121561037c5782359167ffffffffffffffff831161037c576020838186019501011161037c57565b1561168357565b60405162461bcd60e51b8152602060048201526012602482015271141c9bdc1bdcd85b081b9bdd08199bdd5b9960721b6044820152606490fd5b156116c457565b60405162461bcd60e51b815260206004820152600960248201526810d85b98d95b1b195960ba1b6044820152606490fd5b9190820180921161090757565b60009081526020906004825260409182822092805192611721846115b9565b8454845260018501546001600160a01b0390811684860152825190939061174f81610b178160028b01611523565b83860152825161176681610b178160038b01611523565b60608601526004860154946080810195865260058701549660a08201978852600681015460c083015260078101549160e0810192835260088201549087600a61010083019460ff85161515865260ff61012085019560081c161515855289516117d681610b178160098601611523565b61014085015201541661016082015251156118e257516118d557516118c9575142106118be578060049161180d87518951906116f5565b95600154168551938480926318160ddd60e01b82525afa9384156118b557508293611881575b50506002549182810292818404149015171561186d5750612710900411611866575190511061186157600290565b600390565b5050600290565b634e487b7160e01b81526011600452602490fd5b9080929350813d83116118ae575b61189981836115d6565b810103126118aa5751903880611833565b5080fd5b503d61188f565b513d84823e3d90fd5b505050505050600190565b50505050505050600490565b5050505050505050600590565b50505050935050505090565b156118f557565b60405162461bcd60e51b815260206004820152601060248201526f105b1c9958591e48195e1958dd5d195960821b6044820152606490fd5b67ffffffffffffffff811161080257601f01601f191660200190565b9291926119558261192d565b9161196360405193846115d6565b82948184528183011161037c578281602093846000960137010152565b90601f811161198e57505050565b6000916000526020600020906020601f850160051c830194106119cc575b601f0160051c01915b8281106119c157505050565b8181556001016119b5565b90925082906119ac565b80600052600060205260406000203360005260205260ff60406000205416156119fc5750565b6044906040519063e2517d3f60e01b82523360048301526024820152fd5b9060009180835282602052604083209160018060a01b03169182845260205260ff60408420541615600014611a9357808352826020526040832082845260205260408320600160ff198254161790557f2f8788117e7eff1d82e926ec794901d17c78024a50270940304540a733656f0d339380a4600190565b505090565b9060009180835282602052604083209160018060a01b03169182845260205260ff604084205416600014611a935780835282602052604083208284526020526040832060ff1981541690557ff6391f5c32d9c69d2a47ea670b442974b53935d1edc7fd64eb21e047a839171b339380a460019056fea2646970667358221220eebea6647c72dc8a9da2e286e58b1330c7b27561e1309277826cfe75e165c91364736f6c63430008180033","opcodes":"PUSH1 0x80 CALLVALUE PUSH2 0xBD JUMPI PUSH1 0x1F PUSH3 0x1CAC CODESIZE DUP2 SWAP1 SUB SWAP2 DUP3 ADD PUSH1 0x1F NOT AND DUP4 ADD SWAP2 PUSH1 0x1 PUSH1 0x1 PUSH1 0x40 SHL SUB DUP4 GT DUP5 DUP5 LT OR PUSH2 0xC2 JUMPI DUP1 DUP5 SWAP3 PUSH1 0x20 SWAP5 PUSH1 0x40 MSTORE DUP4 CODECOPY DUP2 ADD SUB SLT PUSH2 0xBD JUMPI MLOAD PUSH1 0x1 PUSH1 0x1 PUSH1 0xA0 SHL SUB DUP2 AND SWAP1 DUP2 SWAP1 SUB PUSH2 0xBD JUMPI PUSH1 0x64 PUSH1 0x2 SSTORE DUP1 ISZERO PUSH2 0x8B JUMPI PUSH1 0x1 DUP1 SLOAD PUSH1 0x1 PUSH1 0x1 PUSH1 0xA0 SHL SUB NOT AND SWAP2 SWAP1 SWAP2 OR SWAP1 SSTORE PUSH2 0x7A CALLER PUSH2 0xD8 JUMP JUMPDEST POP PUSH1 0x40 MLOAD PUSH2 0x1B43 SWAP1 DUP2 PUSH3 0x169 DUP3 CODECOPY RETURN JUMPDEST PUSH1 0x40 MLOAD PUSH3 0x461BCD PUSH1 0xE5 SHL DUP2 MSTORE PUSH1 0x20 PUSH1 0x4 DUP3 ADD MSTORE PUSH1 0xA PUSH1 0x24 DUP3 ADD MSTORE PUSH10 0x2D32B937903A37B5B2B7 PUSH1 0xB1 SHL PUSH1 0x44 DUP3 ADD MSTORE PUSH1 0x64 SWAP1 REVERT JUMPDEST PUSH1 0x0 DUP1 REVERT JUMPDEST PUSH4 0x4E487B71 PUSH1 0xE0 SHL PUSH1 0x0 MSTORE PUSH1 0x41 PUSH1 0x4 MSTORE PUSH1 0x24 PUSH1 0x0 REVERT JUMPDEST PUSH1 0x1 PUSH1 0x1 PUSH1 0xA0 SHL SUB AND PUSH1 0x0 DUP2 DUP2 MSTORE PUSH32 0xAD3228B676F7D3CD4284A5443F17F1962B36E491B30A40B2405849E597BA5FB5 PUSH1 0x20 MSTORE PUSH1 0x40 DUP2 KECCAK256 SLOAD SWAP1 SWAP2 SWAP1 PUSH1 0xFF AND PUSH2 0x164 JUMPI DUP2 DUP1 MSTORE DUP2 PUSH1 0x20 MSTORE PUSH1 0x40 DUP3 KECCAK256 DUP2 DUP4 MSTORE PUSH1 0x20 MSTORE PUSH1 0x40 DUP3 KECCAK256 PUSH1 0x1 PUSH1 0xFF NOT DUP3 SLOAD AND OR SWAP1 SSTORE CALLER SWAP2 PUSH32 0x2F8788117E7EFF1D82E926EC794901D17C78024A50270940304540A733656F0D DUP2 DUP1 LOG4 PUSH1 0x1 SWAP1 JUMP JUMPDEST POP SWAP1 JUMP INVALID PUSH1 0x80 DUP1 PUSH1 0x40 MSTORE PUSH1 0x4 CALLDATASIZE LT ISZERO PUSH2 0x13 JUMPI PUSH1 0x0 DUP1 REVERT JUMPDEST PUSH1 0x0 CALLDATALOAD PUSH1 0xE0 SHR SWAP1 DUP2 PUSH4 0x13CF08B EQ PUSH2 0x13CC JUMPI POP DUP1 PUSH4 0x1FFC9A7 EQ PUSH2 0x1376 JUMPI DUP1 PUSH4 0xD524BC6 EQ PUSH2 0x12FF JUMPI DUP1 PUSH4 0x15373E3D EQ PUSH2 0x10BC JUMPI DUP1 PUSH4 0x248A9CA3 EQ PUSH2 0x108D JUMPI DUP1 PUSH4 0x2B0A999D EQ PUSH2 0x1045 JUMPI DUP1 PUSH4 0x2F2FF15D EQ PUSH2 0x1006 JUMPI DUP1 PUSH4 0x36568ABE EQ PUSH2 0xFBF JUMPI DUP1 PUSH4 0x3E4F49E6 EQ PUSH2 0xF90 JUMPI DUP1 PUSH4 0x40E58EE5 EQ PUSH2 0xE94 JUMPI DUP1 PUSH4 0x43859632 EQ PUSH2 0xE47 JUMPI DUP1 PUSH4 0x791F5D23 EQ PUSH2 0xE22 JUMPI DUP1 PUSH4 0x82AE1791 EQ PUSH2 0xDF9 JUMPI DUP1 PUSH4 0x91D14854 EQ PUSH2 0xDAC JUMPI DUP1 PUSH4 0xA217FDDF EQ PUSH2 0xD90 JUMPI DUP1 PUSH4 0xB1610D7E EQ PUSH2 0xD72 JUMPI DUP1 PUSH4 0xC1BA4E59 EQ PUSH2 0xC7E JUMPI DUP1 PUSH4 0xC7F758A8 EQ PUSH2 0xA67 JUMPI DUP1 PUSH4 0xCD2DDD0C EQ PUSH2 0xA49 JUMPI DUP1 PUSH4 0xD547741F EQ PUSH2 0xA08 JUMPI DUP1 PUSH4 0xDA35C664 EQ PUSH2 0x9EA JUMPI DUP1 PUSH4 0xDE7B1638 EQ PUSH2 0x381 JUMPI PUSH4 0xFE0D94C1 EQ PUSH2 0x11C JUMPI PUSH1 0x0 DUP1 REVERT JUMPDEST CALLVALUE PUSH2 0x37C JUMPI PUSH1 0x20 DUP1 PUSH1 0x3 NOT CALLDATASIZE ADD SLT PUSH2 0x37C JUMPI PUSH1 0x4 CALLDATALOAD SWAP1 DUP2 PUSH1 0x0 MSTORE PUSH1 0x4 DUP2 MSTORE PUSH1 0x40 PUSH1 0x0 KECCAK256 PUSH2 0x14B DUP2 SLOAD ISZERO ISZERO PUSH2 0x167C JUMP JUMPDEST PUSH1 0x7 DUP2 ADD SLOAD TIMESTAMP LT PUSH2 0x344 JUMPI PUSH1 0x8 DUP2 ADD DUP1 SLOAD PUSH2 0x169 PUSH1 0xFF DUP3 AND ISZERO PUSH2 0x18EE JUMP JUMPDEST PUSH2 0x179 PUSH1 0xFF DUP3 PUSH1 0x8 SHR AND ISZERO PUSH2 0x16BD JUMP JUMPDEST PUSH2 0x182 DUP6 PUSH2 0x1702 JUMP JUMPDEST PUSH1 0x6 DUP2 LT ISZERO PUSH2 0x32E JUMPI PUSH1 0x3 SUB PUSH2 0x2F9 JUMPI PUSH1 0x1 PUSH1 0xFF NOT SWAP2 DUP3 AND DUP2 OR SWAP1 SWAP3 SSTORE PUSH1 0xA DUP4 ADD SLOAD PUSH1 0x1 PUSH1 0x1 PUSH1 0xA0 SHL SUB AND SWAP3 DUP4 ISZERO ISZERO DUP1 PUSH2 0x2E4 JUMPI JUMPDEST PUSH2 0x1E4 JUMPI JUMPDEST DUP6 PUSH32 0x712AE1383F79AC853F8D882153778E0260EF8F03B504E2866E0593E04D2B291F PUSH1 0x0 DUP1 LOG2 STOP JUMPDEST PUSH1 0x9 ADD SWAP1 PUSH1 0x40 MLOAD SWAP3 PUSH1 0x0 SWAP3 DUP1 SLOAD PUSH2 0x1FA DUP2 PUSH2 0x14E9 JUMP JUMPDEST SWAP4 PUSH1 0x1 DUP3 AND SWAP2 DUP3 ISZERO PUSH2 0x2CD JUMPI POP POP PUSH1 0x1 EQ PUSH2 0x292 JUMPI JUMPDEST POP POP POP SWAP2 DUP2 PUSH1 0x0 DUP1 SWAP5 SWAP4 DUP2 SWAP5 SUB SWAP3 GAS CALL RETURNDATASIZE ISZERO PUSH2 0x28D JUMPI RETURNDATASIZE PUSH2 0x230 DUP2 PUSH2 0x192D JUMP JUMPDEST SWAP1 PUSH2 0x23E PUSH1 0x40 MLOAD SWAP3 DUP4 PUSH2 0x15D6 JUMP JUMPDEST DUP2 MSTORE PUSH1 0x0 DUP4 RETURNDATASIZE SWAP3 ADD RETURNDATACOPY JUMPDEST ISZERO PUSH2 0x256 JUMPI DUP1 DUP1 DUP1 DUP1 PUSH2 0x1BC JUMP JUMPDEST PUSH1 0x64 SWAP1 PUSH1 0x40 MLOAD SWAP1 PUSH3 0x461BCD PUSH1 0xE5 SHL DUP3 MSTORE PUSH1 0x4 DUP3 ADD MSTORE PUSH1 0x10 PUSH1 0x24 DUP3 ADD MSTORE PUSH16 0x115E1958DD5D1A5BDB8819985A5B1959 PUSH1 0x82 SHL PUSH1 0x44 DUP3 ADD MSTORE REVERT JUMPDEST PUSH2 0x248 JUMP JUMPDEST SWAP1 SWAP2 SWAP3 POP PUSH1 0x0 MSTORE DUP5 PUSH1 0x0 KECCAK256 SWAP1 DUP6 PUSH1 0x0 SWAP3 JUMPDEST DUP5 DUP5 LT PUSH2 0x2BB JUMPI POP POP POP SWAP1 DUP3 ADD SWAP1 POP DUP2 PUSH1 0x0 DUP1 PUSH2 0x210 JUMP JUMPDEST DUP1 SLOAD DUP7 DUP6 ADD MSTORE SWAP3 ADD SWAP2 DUP7 SWAP1 DUP3 ADD PUSH2 0x2A3 JUMP JUMPDEST AND DUP7 MSTORE POP POP POP DUP1 ISZERO ISZERO MUL DUP3 ADD SWAP1 POP DUP2 PUSH1 0x0 DUP1 PUSH2 0x210 JUMP JUMPDEST POP PUSH2 0x2F2 PUSH1 0x9 DUP3 ADD SLOAD PUSH2 0x14E9 JUMP JUMPDEST ISZERO ISZERO PUSH2 0x1B7 JUMP JUMPDEST PUSH1 0x40 MLOAD PUSH3 0x461BCD PUSH1 0xE5 SHL DUP2 MSTORE PUSH1 0x4 DUP2 ADD DUP6 SWAP1 MSTORE PUSH1 0xD PUSH1 0x24 DUP3 ADD MSTORE PUSH13 0x139BDD081CDD58D8D959591959 PUSH1 0x9A SHL PUSH1 0x44 DUP3 ADD MSTORE PUSH1 0x64 SWAP1 REVERT JUMPDEST PUSH4 0x4E487B71 PUSH1 0xE0 SHL PUSH1 0x0 MSTORE PUSH1 0x21 PUSH1 0x4 MSTORE PUSH1 0x24 PUSH1 0x0 REVERT JUMPDEST PUSH1 0x40 MLOAD PUSH3 0x461BCD PUSH1 0xE5 SHL DUP2 MSTORE PUSH1 0x4 DUP2 ADD DUP4 SWAP1 MSTORE PUSH1 0x10 PUSH1 0x24 DUP3 ADD MSTORE PUSH16 0x159BDD1A5B99C81B9BDD08195B991959 PUSH1 0x82 SHL PUSH1 0x44 DUP3 ADD MSTORE PUSH1 0x64 SWAP1 REVERT JUMPDEST PUSH1 0x0 DUP1 REVERT JUMPDEST CALLVALUE PUSH2 0x37C JUMPI PUSH1 0x80 CALLDATASIZE PUSH1 0x3 NOT ADD SLT PUSH2 0x37C JUMPI PUSH1 0x4 CALLDATALOAD PUSH8 0xFFFFFFFFFFFFFFFF DUP2 GT PUSH2 0x37C JUMPI PUSH2 0x3B2 SWAP1 CALLDATASIZE SWAP1 PUSH1 0x4 ADD PUSH2 0x164E JUMP JUMPDEST SWAP1 PUSH1 0x24 CALLDATALOAD PUSH8 0xFFFFFFFFFFFFFFFF DUP2 GT PUSH2 0x37C JUMPI PUSH2 0x3D3 SWAP1 CALLDATASIZE SWAP1 PUSH1 0x4 ADD PUSH2 0x164E JUMP JUMPDEST SWAP3 SWAP1 PUSH1 0x44 CALLDATALOAD SWAP1 PUSH1 0x1 PUSH1 0x1 PUSH1 0xA0 SHL SUB DUP3 AND DUP3 SUB PUSH2 0x37C JUMPI PUSH1 0x64 CALLDATALOAD PUSH8 0xFFFFFFFFFFFFFFFF DUP2 GT PUSH2 0x37C JUMPI PUSH2 0x409 SWAP1 CALLDATASIZE SWAP1 PUSH1 0x4 ADD PUSH2 0x164E JUMP JUMPDEST PUSH1 0x1 SLOAD PUSH1 0x40 MLOAD PUSH4 0x70A08231 PUSH1 0xE0 SHL DUP2 MSTORE CALLER PUSH1 0x4 DUP3 ADD MSTORE SWAP2 SWAP5 SWAP3 SWAP4 SWAP2 SWAP1 PUSH1 0x20 SWAP1 DUP3 SWAP1 PUSH1 0x24 SWAP1 DUP3 SWAP1 PUSH1 0x1 PUSH1 0x1 PUSH1 0xA0 SHL SUB AND GAS STATICCALL DUP1 ISZERO PUSH2 0x9DE JUMPI PUSH1 0x0 SWAP1 PUSH2 0x9A2 JUMPI JUMPDEST PUSH10 0x21E19E0C9BAB2400000 SWAP2 POP LT PUSH2 0x95D JUMPI DUP5 ISZERO ISZERO DUP1 PUSH2 0x952 JUMPI JUMPDEST ISZERO PUSH2 0x91D JUMPI PUSH1 0x3 SLOAD SWAP3 PUSH1 0x0 NOT DUP5 EQ PUSH2 0x907 JUMPI PUSH1 0x1 DUP5 ADD PUSH1 0x3 SSTORE PUSH3 0x3F480 TIMESTAMP ADD TIMESTAMP GT PUSH2 0x907 JUMPI PUSH1 0x1 SWAP5 PUSH2 0x4C1 PUSH2 0x4FC SWAP4 PUSH1 0x40 MLOAD SWAP11 PUSH2 0x49F DUP13 PUSH2 0x15B9 JUMP JUMPDEST DUP9 DUP9 ADD DUP13 MSTORE CALLER PUSH1 0x20 DUP14 ADD MSTORE PUSH2 0x4B5 CALLDATASIZE DUP12 DUP14 PUSH2 0x1949 JUMP JUMPDEST PUSH1 0x40 DUP14 ADD MSTORE CALLDATASIZE SWAP2 PUSH2 0x1949 JUMP JUMPDEST PUSH1 0x60 DUP11 ADD MSTORE PUSH1 0x0 PUSH1 0x80 DUP11 ADD MSTORE PUSH1 0x0 PUSH1 0xA0 DUP11 ADD MSTORE TIMESTAMP PUSH1 0xC0 DUP11 ADD MSTORE PUSH3 0x3F480 TIMESTAMP ADD PUSH1 0xE0 DUP11 ADD MSTORE PUSH1 0x0 PUSH2 0x100 DUP11 ADD MSTORE PUSH1 0x0 PUSH2 0x120 DUP11 ADD MSTORE CALLDATASIZE SWAP2 PUSH2 0x1949 JUMP JUMPDEST PUSH2 0x140 DUP8 ADD MSTORE DUP3 DUP1 PUSH1 0xA0 SHL SUB AND PUSH2 0x160 DUP7 ADD MSTORE ADD PUSH1 0x0 MSTORE PUSH1 0x4 PUSH1 0x20 MSTORE PUSH1 0x40 PUSH1 0x0 KECCAK256 SWAP2 DUP4 MLOAD DUP4 SSTORE PUSH1 0x1 DUP1 PUSH1 0xA0 SHL SUB PUSH1 0x20 DUP6 ADD MLOAD AND PUSH12 0xFFFFFFFFFFFFFFFFFFFFFFFF PUSH1 0xA0 SHL PUSH1 0x1 DUP6 ADD SLOAD AND OR PUSH1 0x1 DUP5 ADD SSTORE PUSH1 0x40 DUP5 ADD MLOAD DUP1 MLOAD SWAP1 PUSH8 0xFFFFFFFFFFFFFFFF DUP3 GT PUSH2 0x802 JUMPI PUSH2 0x57C DUP3 PUSH2 0x573 PUSH1 0x2 DUP9 ADD SLOAD PUSH2 0x14E9 JUMP JUMPDEST PUSH1 0x2 DUP9 ADD PUSH2 0x1980 JUMP JUMPDEST PUSH1 0x20 SWAP1 PUSH1 0x1F DUP4 GT PUSH1 0x1 EQ PUSH2 0x895 JUMPI PUSH2 0x5AD SWAP3 SWAP2 PUSH1 0x0 SWAP2 DUP4 PUSH2 0x818 JUMPI JUMPDEST POP POP DUP2 PUSH1 0x1 SHL SWAP2 PUSH1 0x0 NOT SWAP1 PUSH1 0x3 SHL SHR NOT AND OR SWAP1 JUMP JUMPDEST PUSH1 0x2 DUP5 ADD SSTORE JUMPDEST PUSH1 0x60 DUP5 ADD MLOAD DUP1 MLOAD SWAP1 PUSH8 0xFFFFFFFFFFFFFFFF DUP3 GT PUSH2 0x802 JUMPI PUSH2 0x5E4 DUP3 PUSH2 0x5DB PUSH1 0x3 DUP9 ADD SLOAD PUSH2 0x14E9 JUMP JUMPDEST PUSH1 0x3 DUP9 ADD PUSH2 0x1980 JUMP JUMPDEST PUSH1 0x20 SWAP1 PUSH1 0x1F DUP4 GT PUSH1 0x1 EQ PUSH2 0x823 JUMPI PUSH2 0x614 SWAP3 SWAP2 PUSH1 0x0 SWAP2 DUP4 PUSH2 0x818 JUMPI POP POP DUP2 PUSH1 0x1 SHL SWAP2 PUSH1 0x0 NOT SWAP1 PUSH1 0x3 SHL SHR NOT AND OR SWAP1 JUMP JUMPDEST PUSH1 0x3 DUP5 ADD SSTORE JUMPDEST PUSH1 0x80 DUP5 ADD MLOAD PUSH1 0x4 DUP5 ADD SSTORE PUSH1 0xA0 DUP5 ADD MLOAD PUSH1 0x5 DUP5 ADD SSTORE PUSH1 0xC0 DUP5 ADD MLOAD PUSH1 0x6 DUP5 ADD SSTORE PUSH1 0xE0 DUP5 ADD MLOAD PUSH1 0x7 DUP5 ADD SSTORE PUSH1 0x8 DUP4 ADD PUSH2 0x100 DUP6 ADD MLOAD ISZERO ISZERO DUP2 SLOAD PUSH1 0xFF PUSH2 0xFF00 PUSH2 0x120 DUP10 ADD MLOAD ISZERO ISZERO PUSH1 0x8 SHL AND SWAP3 AND SWAP1 PUSH2 0xFFFF NOT AND OR OR SWAP1 SSTORE PUSH1 0x9 DUP4 ADD SWAP4 PUSH2 0x140 DUP2 ADD MLOAD SWAP5 DUP6 MLOAD PUSH8 0xFFFFFFFFFFFFFFFF DUP2 GT PUSH2 0x802 JUMPI PUSH1 0x20 SWAP7 PUSH2 0x6A1 DUP3 PUSH2 0x69B DUP6 SLOAD PUSH2 0x14E9 JUMP JUMPDEST DUP6 PUSH2 0x1980 JUMP JUMPDEST DUP8 SWAP1 PUSH1 0x1F DUP4 GT PUSH1 0x1 EQ PUSH2 0x777 JUMPI DUP3 PUSH32 0x6C98A8C940418B35614F0CD02412D5C9606FAFF474CBB6CDD6640BA5D1A9F06B SWAP9 SWAP4 PUSH1 0xA SWAP6 SWAP4 PUSH2 0x6F6 SWAP4 PUSH1 0x0 SWAP3 PUSH2 0x76C JUMPI POP POP DUP2 PUSH1 0x1 SHL SWAP2 PUSH1 0x0 NOT SWAP1 PUSH1 0x3 SHL SHR NOT AND OR SWAP1 JUMP JUMPDEST SWAP1 SSTORE JUMPDEST ADD SWAP1 PUSH2 0x160 PUSH1 0x1 DUP1 PUSH1 0xA0 SHL SUB SWAP2 ADD MLOAD AND PUSH12 0xFFFFFFFFFFFFFFFFFFFFFFFF PUSH1 0xA0 SHL DUP3 SLOAD AND OR SWAP1 SSTORE PUSH1 0x3 SLOAD SWAP3 DUP4 SWAP2 DUP4 PUSH1 0x40 MLOAD SWAP2 PUSH1 0x60 DUP4 MSTORE DUP2 PUSH1 0x60 DUP5 ADD MSTORE PUSH1 0x80 DUP4 ADD CALLDATACOPY PUSH1 0x0 PUSH1 0x80 DUP6 DUP4 ADD ADD MSTORE TIMESTAMP DUP7 DUP3 ADD MSTORE PUSH3 0x3F480 TIMESTAMP ADD PUSH1 0x40 DUP3 ADD MSTORE PUSH1 0x80 DUP2 CALLER SWAP6 PUSH1 0x1F DUP1 NOT SWAP2 ADD AND DUP2 ADD SUB ADD SWAP1 LOG3 PUSH1 0x40 MLOAD SWAP1 DUP2 MSTORE RETURN JUMPDEST ADD MLOAD SWAP1 POP DUP12 DUP1 PUSH2 0x598 JUMP JUMPDEST SWAP1 PUSH1 0x1F NOT DUP4 AND SWAP2 DUP5 PUSH1 0x0 MSTORE DUP10 PUSH1 0x0 KECCAK256 SWAP3 PUSH1 0x0 JUMPDEST DUP2 DUP2 LT PUSH2 0x7EB JUMPI POP SWAP3 PUSH1 0x1 SWAP3 DUP6 SWAP3 PUSH32 0x6C98A8C940418B35614F0CD02412D5C9606FAFF474CBB6CDD6640BA5D1A9F06B SWAP12 SWAP7 PUSH1 0xA SWAP9 SWAP7 LT PUSH2 0x7D2 JUMPI JUMPDEST POP POP POP DUP2 SHL ADD SWAP1 SSTORE PUSH2 0x6F9 JUMP JUMPDEST ADD MLOAD PUSH1 0x0 NOT PUSH1 0xF8 DUP5 PUSH1 0x3 SHL AND SHR NOT AND SWAP1 SSTORE DUP11 DUP1 DUP1 PUSH2 0x7C5 JUMP JUMPDEST SWAP3 SWAP4 DUP12 PUSH1 0x1 DUP2 SWAP3 DUP8 DUP7 ADD MLOAD DUP2 SSTORE ADD SWAP6 ADD SWAP4 ADD PUSH2 0x78A JUMP JUMPDEST PUSH4 0x4E487B71 PUSH1 0xE0 SHL PUSH1 0x0 MSTORE PUSH1 0x41 PUSH1 0x4 MSTORE PUSH1 0x24 PUSH1 0x0 REVERT JUMPDEST ADD MLOAD SWAP1 POP DUP8 DUP1 PUSH2 0x598 JUMP JUMPDEST SWAP2 SWAP1 PUSH1 0x3 DUP7 ADD PUSH1 0x0 MSTORE PUSH1 0x20 PUSH1 0x0 KECCAK256 SWAP1 PUSH1 0x0 SWAP4 JUMPDEST PUSH1 0x1F NOT DUP5 AND DUP6 LT PUSH2 0x87A JUMPI PUSH1 0x1 SWAP5 POP DUP4 PUSH1 0x1F NOT DUP2 AND LT PUSH2 0x861 JUMPI JUMPDEST POP POP POP DUP2 SHL ADD PUSH1 0x3 DUP5 ADD SSTORE PUSH2 0x61A JUMP JUMPDEST ADD MLOAD PUSH1 0x0 NOT PUSH1 0xF8 DUP5 PUSH1 0x3 SHL AND SHR NOT AND SWAP1 SSTORE DUP7 DUP1 DUP1 PUSH2 0x851 JUMP JUMPDEST DUP2 DUP2 ADD MLOAD DUP4 SSTORE PUSH1 0x20 SWAP5 DUP6 ADD SWAP5 PUSH1 0x1 SWAP1 SWAP4 ADD SWAP3 SWAP1 SWAP2 ADD SWAP1 PUSH2 0x836 JUMP JUMPDEST SWAP2 SWAP1 PUSH1 0x2 DUP7 ADD PUSH1 0x0 MSTORE PUSH1 0x20 PUSH1 0x0 KECCAK256 SWAP1 PUSH1 0x0 SWAP4 JUMPDEST PUSH1 0x1F NOT DUP5 AND DUP6 LT PUSH2 0x8EC JUMPI PUSH1 0x1 SWAP5 POP DUP4 PUSH1 0x1F NOT DUP2 AND LT PUSH2 0x8D3 JUMPI JUMPDEST POP POP POP DUP2 SHL ADD PUSH1 0x2 DUP5 ADD SSTORE PUSH2 0x5B3 JUMP JUMPDEST ADD MLOAD PUSH1 0x0 NOT PUSH1 0xF8 DUP5 PUSH1 0x3 SHL AND SHR NOT AND SWAP1 SSTORE DUP7 DUP1 DUP1 PUSH2 0x8C3 JUMP JUMPDEST DUP2 DUP2 ADD MLOAD DUP4 SSTORE PUSH1 0x20 SWAP5 DUP6 ADD SWAP5 PUSH1 0x1 SWAP1 SWAP4 ADD SWAP3 SWAP1 SWAP2 ADD SWAP1 PUSH2 0x8A8 JUMP JUMPDEST PUSH4 0x4E487B71 PUSH1 0xE0 SHL PUSH1 0x0 MSTORE PUSH1 0x11 PUSH1 0x4 MSTORE PUSH1 0x24 PUSH1 0x0 REVERT JUMPDEST PUSH1 0x40 MLOAD PUSH3 0x461BCD PUSH1 0xE5 SHL DUP2 MSTORE PUSH1 0x20 PUSH1 0x4 DUP3 ADD MSTORE PUSH1 0xD PUSH1 0x24 DUP3 ADD MSTORE PUSH13 0x496E76616C6964207469746C65 PUSH1 0x98 SHL PUSH1 0x44 DUP3 ADD MSTORE PUSH1 0x64 SWAP1 REVERT JUMPDEST POP PUSH1 0xC8 DUP6 GT ISZERO PUSH2 0x463 JUMP JUMPDEST PUSH1 0x40 MLOAD PUSH3 0x461BCD PUSH1 0xE5 SHL DUP2 MSTORE PUSH1 0x20 PUSH1 0x4 DUP3 ADD MSTORE PUSH1 0x18 PUSH1 0x24 DUP3 ADD MSTORE PUSH32 0x42656C6F772070726F706F73616C207468726573686F6C640000000000000000 PUSH1 0x44 DUP3 ADD MSTORE PUSH1 0x64 SWAP1 REVERT JUMPDEST POP PUSH1 0x20 DUP2 RETURNDATASIZE PUSH1 0x20 GT PUSH2 0x9D6 JUMPI JUMPDEST DUP2 PUSH2 0x9BC PUSH1 0x20 SWAP4 DUP4 PUSH2 0x15D6 JUMP JUMPDEST DUP2 ADD SUB SLT PUSH2 0x37C JUMPI PUSH10 0x21E19E0C9BAB2400000 SWAP1 MLOAD PUSH2 0x448 JUMP JUMPDEST RETURNDATASIZE SWAP2 POP PUSH2 0x9AF JUMP JUMPDEST PUSH1 0x40 MLOAD RETURNDATASIZE PUSH1 0x0 DUP3 RETURNDATACOPY RETURNDATASIZE SWAP1 REVERT JUMPDEST CALLVALUE PUSH2 0x37C JUMPI PUSH1 0x0 CALLDATASIZE PUSH1 0x3 NOT ADD SLT PUSH2 0x37C JUMPI PUSH1 0x20 PUSH1 0x3 SLOAD PUSH1 0x40 MLOAD SWAP1 DUP2 MSTORE RETURN JUMPDEST CALLVALUE PUSH2 0x37C JUMPI PUSH1 0x40 CALLDATASIZE PUSH1 0x3 NOT ADD SLT PUSH2 0x37C JUMPI PUSH2 0xA47 PUSH1 0x4 CALLDATALOAD PUSH2 0xA27 PUSH2 0x1638 JUMP JUMPDEST SWAP1 DUP1 PUSH1 0x0 MSTORE PUSH1 0x0 PUSH1 0x20 MSTORE PUSH2 0xA42 PUSH1 0x1 PUSH1 0x40 PUSH1 0x0 KECCAK256 ADD SLOAD PUSH2 0x19D6 JUMP JUMPDEST PUSH2 0x1A98 JUMP JUMPDEST STOP JUMPDEST CALLVALUE PUSH2 0x37C JUMPI PUSH1 0x0 CALLDATASIZE PUSH1 0x3 NOT ADD SLT PUSH2 0x37C JUMPI PUSH1 0x20 PUSH1 0x2 SLOAD PUSH1 0x40 MLOAD SWAP1 DUP2 MSTORE RETURN JUMPDEST CALLVALUE PUSH2 0x37C JUMPI PUSH1 0x20 CALLDATASIZE PUSH1 0x3 NOT ADD SLT PUSH2 0x37C JUMPI PUSH1 0x0 PUSH2 0x160 PUSH1 0x40 MLOAD PUSH2 0xA89 DUP2 PUSH2 0x15B9 JUMP JUMPDEST DUP3 DUP2 MSTORE DUP3 PUSH1 0x20 DUP3 ADD MSTORE PUSH1 0x60 PUSH1 0x40 DUP3 ADD MSTORE PUSH1 0x60 DUP1 DUP3 ADD MSTORE DUP3 PUSH1 0x80 DUP3 ADD MSTORE DUP3 PUSH1 0xA0 DUP3 ADD MSTORE DUP3 PUSH1 0xC0 DUP3 ADD MSTORE DUP3 PUSH1 0xE0 DUP3 ADD MSTORE DUP3 PUSH2 0x100 DUP3 ADD MSTORE DUP3 PUSH2 0x120 DUP3 ADD MSTORE PUSH1 0x60 PUSH2 0x140 DUP3 ADD MSTORE ADD MSTORE PUSH1 0x4 CALLDATALOAD PUSH1 0x0 MSTORE PUSH1 0x4 PUSH1 0x20 MSTORE PUSH1 0x40 PUSH1 0x0 KECCAK256 PUSH1 0x40 MLOAD SWAP1 PUSH2 0xAEC DUP3 PUSH2 0x15B9 JUMP JUMPDEST DUP1 SLOAD DUP3 MSTORE PUSH1 0x1 DUP2 ADD SLOAD PUSH1 0x1 PUSH1 0x1 PUSH1 0xA0 SHL SUB AND PUSH1 0x20 DUP4 ADD MSTORE PUSH1 0x40 MLOAD PUSH2 0xB1E DUP2 PUSH2 0xB17 DUP2 PUSH1 0x2 DUP7 ADD PUSH2 0x1523 JUMP JUMPDEST SUB DUP3 PUSH2 0x15D6 JUMP JUMPDEST PUSH1 0x40 DUP4 ADD MSTORE PUSH1 0x40 MLOAD PUSH2 0xB37 DUP2 PUSH2 0xB17 DUP2 PUSH1 0x3 DUP7 ADD PUSH2 0x1523 JUMP JUMPDEST PUSH1 0x60 DUP4 ADD MSTORE PUSH1 0x4 DUP2 ADD SLOAD PUSH1 0x80 DUP4 ADD MSTORE PUSH1 0x5 DUP2 ADD SLOAD PUSH1 0xA0 DUP4 ADD MSTORE PUSH1 0x6 DUP2 ADD SLOAD PUSH1 0xC0 DUP4 ADD MSTORE PUSH1 0x7 DUP2 ADD SLOAD PUSH1 0xE0 DUP4 ADD MSTORE PUSH1 0xFF PUSH1 0x8 DUP3 ADD SLOAD DUP2 DUP2 AND ISZERO ISZERO PUSH2 0x100 DUP6 ADD MSTORE PUSH1 0x8 SHR AND ISZERO ISZERO PUSH2 0x120 DUP4 ADD MSTORE PUSH1 0x40 MLOAD PUSH2 0xB96 DUP2 PUSH2 0xB17 DUP2 PUSH1 0x9 DUP7 ADD PUSH2 0x1523 JUMP JUMPDEST PUSH2 0x140 DUP4 ADD MSTORE PUSH1 0xA ADD SLOAD PUSH1 0x1 PUSH1 0x1 PUSH1 0xA0 SHL SUB SWAP1 DUP2 AND PUSH2 0x160 DUP4 ADD MSTORE PUSH1 0x40 DUP1 MLOAD PUSH1 0x20 DUP1 DUP3 MSTORE DUP5 MLOAD DUP2 DUP4 ADD MSTORE DUP5 ADD MLOAD SWAP1 SWAP3 AND DUP3 DUP3 ADD MSTORE DUP3 ADD MLOAD PUSH2 0x180 PUSH1 0x60 DUP4 ADD MSTORE SWAP1 SWAP2 DUP3 SWAP2 PUSH2 0xC64 SWAP1 PUSH2 0xBEC SWAP1 PUSH2 0x1A0 DUP6 ADD SWAP1 PUSH2 0x15F8 JUMP JUMPDEST PUSH2 0xC08 PUSH1 0x60 DUP5 ADD MLOAD SWAP2 PUSH1 0x1F NOT SWAP3 DUP4 DUP8 DUP4 SUB ADD PUSH1 0x80 DUP9 ADD MSTORE PUSH2 0x15F8 JUMP JUMPDEST SWAP1 PUSH1 0x80 DUP5 ADD MLOAD PUSH1 0xA0 DUP7 ADD MSTORE PUSH1 0xA0 DUP5 ADD MLOAD PUSH1 0xC0 DUP7 ADD MSTORE PUSH1 0xC0 DUP5 ADD MLOAD PUSH1 0xE0 DUP7 ADD MSTORE PUSH1 0xE0 DUP5 ADD MLOAD PUSH2 0x100 DUP7 ADD MSTORE PUSH2 0x100 DUP5 ADD MLOAD ISZERO ISZERO PUSH2 0x120 DUP7 ADD MSTORE PUSH2 0x120 DUP5 ADD MLOAD ISZERO ISZERO PUSH2 0x140 DUP7 ADD MSTORE PUSH2 0x140 DUP5 ADD MLOAD SWAP1 DUP6 DUP4 SUB ADD PUSH2 0x160 DUP7 ADD MSTORE PUSH2 0x15F8 JUMP JUMPDEST PUSH2 0x160 SWAP1 SWAP2 ADD MLOAD PUSH1 0x1 PUSH1 0x1 PUSH1 0xA0 SHL SUB AND PUSH2 0x180 DUP4 ADD MSTORE SUB SWAP1 RETURN JUMPDEST CALLVALUE PUSH2 0x37C JUMPI PUSH1 0x20 CALLDATASIZE PUSH1 0x3 NOT ADD SLT PUSH2 0x37C JUMPI CALLER PUSH1 0x0 SWAP1 DUP2 MSTORE PUSH32 0xAD3228B676F7D3CD4284A5443F17F1962B36E491B30A40B2405849E597BA5FB5 PUSH1 0x20 MSTORE PUSH1 0x40 SWAP1 KECCAK256 SLOAD PUSH1 0x4 CALLDATALOAD SWAP1 PUSH1 0xFF AND ISZERO PUSH2 0xD53 JUMPI DUP1 ISZERO ISZERO DUP1 PUSH2 0xD47 JUMPI JUMPDEST ISZERO PUSH2 0xD11 JUMPI PUSH1 0x40 PUSH32 0x6784E9BCB845CAAA98267D7B0918F97D3D17F7CB35A05B52010F7EB587A0ACB0 SWAP2 PUSH1 0x2 SLOAD SWAP1 DUP1 PUSH1 0x2 SSTORE DUP3 MLOAD SWAP2 DUP3 MSTORE PUSH1 0x20 DUP3 ADD MSTORE LOG1 STOP JUMPDEST PUSH1 0x40 MLOAD PUSH3 0x461BCD PUSH1 0xE5 SHL DUP2 MSTORE PUSH1 0x20 PUSH1 0x4 DUP3 ADD MSTORE PUSH1 0xE PUSH1 0x24 DUP3 ADD MSTORE PUSH14 0x496E76616C69642071756F72756D PUSH1 0x90 SHL PUSH1 0x44 DUP3 ADD MSTORE PUSH1 0x64 SWAP1 REVERT JUMPDEST POP PUSH2 0x1388 DUP2 GT ISZERO PUSH2 0xCD3 JUMP JUMPDEST PUSH1 0x40 MLOAD PUSH4 0xE2517D3F PUSH1 0xE0 SHL DUP2 MSTORE CALLER PUSH1 0x4 DUP3 ADD MSTORE PUSH1 0x0 PUSH1 0x24 DUP3 ADD MSTORE PUSH1 0x44 SWAP1 REVERT JUMPDEST CALLVALUE PUSH2 0x37C JUMPI PUSH1 0x0 CALLDATASIZE PUSH1 0x3 NOT ADD SLT PUSH2 0x37C JUMPI PUSH1 0x20 PUSH1 0x40 MLOAD PUSH3 0x3F480 DUP2 MSTORE RETURN JUMPDEST CALLVALUE PUSH2 0x37C JUMPI PUSH1 0x0 CALLDATASIZE PUSH1 0x3 NOT ADD SLT PUSH2 0x37C JUMPI PUSH1 0x20 PUSH1 0x40 MLOAD PUSH1 0x0 DUP2 MSTORE RETURN JUMPDEST CALLVALUE PUSH2 0x37C JUMPI PUSH1 0x40 CALLDATASIZE PUSH1 0x3 NOT ADD SLT PUSH2 0x37C JUMPI PUSH2 0xDC5 PUSH2 0x1638 JUMP JUMPDEST PUSH1 0x4 CALLDATALOAD PUSH1 0x0 MSTORE PUSH1 0x0 PUSH1 0x20 MSTORE PUSH1 0x40 PUSH1 0x0 KECCAK256 SWAP1 PUSH1 0x1 DUP1 PUSH1 0xA0 SHL SUB AND PUSH1 0x0 MSTORE PUSH1 0x20 MSTORE PUSH1 0x20 PUSH1 0xFF PUSH1 0x40 PUSH1 0x0 KECCAK256 SLOAD AND PUSH1 0x40 MLOAD SWAP1 ISZERO ISZERO DUP2 MSTORE RETURN JUMPDEST CALLVALUE PUSH2 0x37C JUMPI PUSH1 0x0 CALLDATASIZE PUSH1 0x3 NOT ADD SLT PUSH2 0x37C JUMPI PUSH1 0x1 SLOAD PUSH1 0x40 MLOAD PUSH1 0x1 PUSH1 0x1 PUSH1 0xA0 SHL SUB SWAP1 SWAP2 AND DUP2 MSTORE PUSH1 0x20 SWAP1 RETURN JUMPDEST CALLVALUE PUSH2 0x37C JUMPI PUSH1 0x0 CALLDATASIZE PUSH1 0x3 NOT ADD SLT PUSH2 0x37C JUMPI PUSH1 0x20 PUSH1 0x40 MLOAD PUSH10 0x21E19E0C9BAB2400000 DUP2 MSTORE RETURN JUMPDEST CALLVALUE PUSH2 0x37C JUMPI PUSH1 0x40 CALLDATASIZE PUSH1 0x3 NOT ADD SLT PUSH2 0x37C JUMPI PUSH2 0xE60 PUSH2 0x1638 JUMP JUMPDEST PUSH1 0x4 CALLDATALOAD PUSH1 0x0 MSTORE PUSH1 0x5 PUSH1 0x20 MSTORE PUSH1 0x40 PUSH1 0x0 KECCAK256 SWAP1 PUSH1 0x1 DUP1 PUSH1 0xA0 SHL SUB AND PUSH1 0x0 MSTORE PUSH1 0x20 MSTORE PUSH1 0x20 PUSH1 0xFF PUSH1 0x40 PUSH1 0x0 KECCAK256 SLOAD AND PUSH1 0x40 MLOAD SWAP1 ISZERO ISZERO DUP2 MSTORE RETURN JUMPDEST CALLVALUE PUSH2 0x37C JUMPI PUSH1 0x20 CALLDATASIZE PUSH1 0x3 NOT ADD SLT PUSH2 0x37C JUMPI PUSH1 0x4 CALLDATALOAD DUP1 PUSH1 0x0 MSTORE PUSH1 0x4 PUSH1 0x20 MSTORE PUSH1 0x40 PUSH1 0x0 KECCAK256 PUSH2 0xEC2 DUP2 SLOAD ISZERO ISZERO PUSH2 0x167C JUMP JUMPDEST PUSH1 0x1 DUP2 ADD SLOAD PUSH1 0x1 PUSH1 0x1 PUSH1 0xA0 SHL SUB AND CALLER EQ DUP1 ISZERO PUSH2 0xF58 JUMPI JUMPDEST ISZERO PUSH2 0xF22 JUMPI PUSH1 0x8 ADD PUSH2 0x100 DUP2 SLOAD PUSH2 0xEF3 PUSH1 0xFF DUP3 AND ISZERO PUSH2 0x18EE JUMP JUMPDEST PUSH2 0xFF00 NOT AND OR SWAP1 SSTORE PUSH32 0x416E669C63D9A3A5E36EE7CC7E2104B8DB28CCD286AA18966E98FA230C73B08C PUSH1 0x0 DUP1 LOG2 STOP JUMPDEST PUSH1 0x40 MLOAD PUSH3 0x461BCD PUSH1 0xE5 SHL DUP2 MSTORE PUSH1 0x20 PUSH1 0x4 DUP3 ADD MSTORE PUSH1 0xE PUSH1 0x24 DUP3 ADD MSTORE PUSH14 0x139BDD08185D5D1A1BDC9A5E9959 PUSH1 0x92 SHL PUSH1 0x44 DUP3 ADD MSTORE PUSH1 0x64 SWAP1 REVERT JUMPDEST POP CALLER PUSH1 0x0 SWAP1 DUP2 MSTORE PUSH32 0xAD3228B676F7D3CD4284A5443F17F1962B36E491B30A40B2405849E597BA5FB5 PUSH1 0x20 MSTORE PUSH1 0x40 SWAP1 KECCAK256 SLOAD PUSH1 0xFF AND PUSH2 0xED9 JUMP JUMPDEST CALLVALUE PUSH2 0x37C JUMPI PUSH1 0x20 CALLDATASIZE PUSH1 0x3 NOT ADD SLT PUSH2 0x37C JUMPI PUSH2 0xFAC PUSH1 0x4 CALLDATALOAD PUSH2 0x1702 JUMP JUMPDEST PUSH1 0x40 MLOAD PUSH1 0x6 DUP3 LT ISZERO PUSH2 0x32E JUMPI PUSH1 0x20 SWAP2 DUP2 MSTORE RETURN JUMPDEST CALLVALUE PUSH2 0x37C JUMPI PUSH1 0x40 CALLDATASIZE PUSH1 0x3 NOT ADD SLT PUSH2 0x37C JUMPI PUSH2 0xFD8 PUSH2 0x1638 JUMP JUMPDEST CALLER PUSH1 0x1 PUSH1 0x1 PUSH1 0xA0 SHL SUB DUP3 AND SUB PUSH2 0xFF4 JUMPI PUSH2 0xA47 SWAP1 PUSH1 0x4 CALLDATALOAD PUSH2 0x1A98 JUMP JUMPDEST PUSH1 0x40 MLOAD PUSH4 0x334BD919 PUSH1 0xE1 SHL DUP2 MSTORE PUSH1 0x4 SWAP1 REVERT JUMPDEST CALLVALUE PUSH2 0x37C JUMPI PUSH1 0x40 CALLDATASIZE PUSH1 0x3 NOT ADD SLT PUSH2 0x37C JUMPI PUSH2 0xA47 PUSH1 0x4 CALLDATALOAD PUSH2 0x1025 PUSH2 0x1638 JUMP JUMPDEST SWAP1 DUP1 PUSH1 0x0 MSTORE PUSH1 0x0 PUSH1 0x20 MSTORE PUSH2 0x1040 PUSH1 0x1 PUSH1 0x40 PUSH1 0x0 KECCAK256 ADD SLOAD PUSH2 0x19D6 JUMP JUMPDEST PUSH2 0x1A1A JUMP JUMPDEST CALLVALUE PUSH2 0x37C JUMPI PUSH1 0x40 CALLDATASIZE PUSH1 0x3 NOT ADD SLT PUSH2 0x37C JUMPI PUSH2 0x105E PUSH2 0x1638 JUMP JUMPDEST PUSH1 0x4 CALLDATALOAD PUSH1 0x0 MSTORE PUSH1 0x6 PUSH1 0x20 MSTORE PUSH1 0x40 PUSH1 0x0 KECCAK256 SWAP1 PUSH1 0x1 DUP1 PUSH1 0xA0 SHL SUB AND PUSH1 0x0 MSTORE PUSH1 0x20 MSTORE PUSH1 0x20 PUSH1 0x40 PUSH1 0x0 KECCAK256 SLOAD PUSH1 0x40 MLOAD SWAP1 DUP2 MSTORE RETURN JUMPDEST CALLVALUE PUSH2 0x37C JUMPI PUSH1 0x20 CALLDATASIZE PUSH1 0x3 NOT ADD SLT PUSH2 0x37C JUMPI PUSH1 0x4 CALLDATALOAD PUSH1 0x0 MSTORE PUSH1 0x0 PUSH1 0x20 MSTORE PUSH1 0x20 PUSH1 0x1 PUSH1 0x40 PUSH1 0x0 KECCAK256 ADD SLOAD PUSH1 0x40 MLOAD SWAP1 DUP2 MSTORE RETURN JUMPDEST CALLVALUE PUSH2 0x37C JUMPI PUSH1 0x40 CALLDATASIZE PUSH1 0x3 NOT ADD SLT PUSH2 0x37C JUMPI PUSH1 0x4 CALLDATALOAD PUSH1 0x24 CALLDATALOAD SWAP1 DUP2 ISZERO ISZERO SWAP2 DUP3 DUP2 SUB PUSH2 0x37C JUMPI DUP2 PUSH1 0x0 MSTORE PUSH1 0x20 SWAP1 PUSH1 0x4 DUP3 MSTORE PUSH1 0x40 PUSH1 0x0 KECCAK256 SWAP1 PUSH2 0x10FC DUP3 SLOAD ISZERO ISZERO PUSH2 0x167C JUMP JUMPDEST PUSH1 0x6 DUP3 ADD SLOAD TIMESTAMP LT ISZERO DUP1 PUSH2 0x12F2 JUMPI JUMPDEST ISZERO PUSH2 0x12BD JUMPI PUSH2 0x1123 PUSH1 0xFF PUSH1 0x8 DUP5 ADD SLOAD PUSH1 0x8 SHR AND ISZERO PUSH2 0x16BD JUMP JUMPDEST DUP4 PUSH1 0x0 MSTORE PUSH1 0x5 DUP4 MSTORE PUSH1 0x40 PUSH1 0x0 KECCAK256 CALLER PUSH1 0x0 MSTORE DUP4 MSTORE PUSH1 0xFF PUSH1 0x40 PUSH1 0x0 KECCAK256 SLOAD AND PUSH2 0x1288 JUMPI PUSH1 0x1 SLOAD PUSH1 0x40 MLOAD PUSH4 0x70A08231 PUSH1 0xE0 SHL DUP2 MSTORE CALLER PUSH1 0x4 DUP3 ADD MSTORE SWAP4 SWAP3 SWAP2 SWAP1 DUP4 SWAP1 DUP6 SWAP1 PUSH1 0x24 SWAP1 DUP3 SWAP1 PUSH1 0x1 PUSH1 0x1 PUSH1 0xA0 SHL SUB AND GAS STATICCALL SWAP4 DUP5 ISZERO PUSH2 0x9DE JUMPI PUSH1 0x0 SWAP5 PUSH2 0x1259 JUMPI JUMPDEST POP DUP4 ISZERO PUSH2 0x1222 JUMPI DUP5 PUSH1 0x0 MSTORE PUSH1 0x5 DUP4 MSTORE PUSH1 0x40 PUSH1 0x0 KECCAK256 CALLER PUSH1 0x0 MSTORE DUP4 MSTORE PUSH1 0x40 PUSH1 0x0 KECCAK256 PUSH1 0x1 PUSH1 0xFF NOT DUP3 SLOAD AND OR SWAP1 SSTORE DUP5 PUSH1 0x0 MSTORE PUSH1 0x6 DUP4 MSTORE PUSH1 0x40 PUSH1 0x0 KECCAK256 CALLER PUSH1 0x0 MSTORE DUP4 MSTORE DUP4 PUSH1 0x40 PUSH1 0x0 KECCAK256 SSTORE PUSH1 0x0 EQ PUSH2 0x120D JUMPI PUSH1 0x4 ADD PUSH2 0x11D9 DUP4 DUP3 SLOAD PUSH2 0x16F5 JUMP JUMPDEST SWAP1 SSTORE JUMPDEST PUSH1 0x40 MLOAD SWAP4 DUP5 MSTORE DUP4 ADD MSTORE PUSH32 0xCBDF6214089CBA887ECBF35A0B6A734589959C9763342C756BB2A80CA2BC9F6E PUSH1 0x40 CALLER SWAP4 LOG3 STOP JUMPDEST PUSH1 0x5 ADD PUSH2 0x121B DUP4 DUP3 SLOAD PUSH2 0x16F5 JUMP JUMPDEST SWAP1 SSTORE PUSH2 0x11DC JUMP JUMPDEST PUSH1 0x40 MLOAD PUSH3 0x461BCD PUSH1 0xE5 SHL DUP2 MSTORE PUSH1 0x4 DUP2 ADD DUP5 SWAP1 MSTORE PUSH1 0xF PUSH1 0x24 DUP3 ADD MSTORE PUSH15 0x2737903B37BA34B733903837BBB2B9 PUSH1 0x89 SHL PUSH1 0x44 DUP3 ADD MSTORE PUSH1 0x64 SWAP1 REVERT JUMPDEST SWAP1 SWAP4 POP DUP3 DUP2 DUP2 RETURNDATASIZE DUP4 GT PUSH2 0x1281 JUMPI JUMPDEST PUSH2 0x1271 DUP2 DUP4 PUSH2 0x15D6 JUMP JUMPDEST DUP2 ADD SUB SLT PUSH2 0x37C JUMPI MLOAD SWAP3 DUP7 PUSH2 0x1180 JUMP JUMPDEST POP RETURNDATASIZE PUSH2 0x1267 JUMP JUMPDEST PUSH1 0x40 MLOAD PUSH3 0x461BCD PUSH1 0xE5 SHL DUP2 MSTORE PUSH1 0x4 DUP2 ADD DUP5 SWAP1 MSTORE PUSH1 0xD PUSH1 0x24 DUP3 ADD MSTORE PUSH13 0x105B1C9958591E481D9BDD1959 PUSH1 0x9A SHL PUSH1 0x44 DUP3 ADD MSTORE PUSH1 0x64 SWAP1 REVERT JUMPDEST PUSH1 0x40 MLOAD PUSH3 0x461BCD PUSH1 0xE5 SHL DUP2 MSTORE PUSH1 0x4 DUP2 ADD DUP5 SWAP1 MSTORE PUSH1 0xD PUSH1 0x24 DUP3 ADD MSTORE PUSH13 0x159BDD1A5B99C818DB1BDCD959 PUSH1 0x9A SHL PUSH1 0x44 DUP3 ADD MSTORE PUSH1 0x64 SWAP1 REVERT JUMPDEST POP PUSH1 0x7 DUP3 ADD SLOAD TIMESTAMP LT PUSH2 0x110A JUMP JUMPDEST CALLVALUE PUSH2 0x37C JUMPI PUSH1 0x40 CALLDATASIZE PUSH1 0x3 NOT ADD SLT PUSH2 0x37C JUMPI PUSH1 0x60 PUSH1 0x4 CALLDATALOAD PUSH2 0x131D PUSH2 0x1638 JUMP JUMPDEST DUP2 PUSH1 0x0 MSTORE PUSH1 0x5 PUSH1 0x20 MSTORE PUSH1 0x40 PUSH1 0x0 KECCAK256 SWAP1 PUSH1 0x1 DUP1 PUSH1 0xA0 SHL SUB AND SWAP1 DUP2 PUSH1 0x0 MSTORE PUSH1 0x20 MSTORE PUSH1 0xFF PUSH1 0x40 PUSH1 0x0 KECCAK256 SLOAD AND SWAP2 PUSH1 0x0 MSTORE PUSH1 0x6 PUSH1 0x20 MSTORE PUSH1 0x40 PUSH1 0x0 KECCAK256 SWAP1 PUSH1 0x0 MSTORE PUSH1 0x20 MSTORE PUSH1 0x40 PUSH1 0x0 KECCAK256 SLOAD PUSH1 0x40 MLOAD SWAP2 ISZERO ISZERO DUP3 MSTORE PUSH1 0x20 DUP3 ADD MSTORE PUSH1 0x0 PUSH1 0x40 DUP3 ADD MSTORE RETURN JUMPDEST CALLVALUE PUSH2 0x37C JUMPI PUSH1 0x20 CALLDATASIZE PUSH1 0x3 NOT ADD SLT PUSH2 0x37C JUMPI PUSH1 0x4 CALLDATALOAD PUSH4 0xFFFFFFFF PUSH1 0xE0 SHL DUP2 AND DUP1 SWAP2 SUB PUSH2 0x37C JUMPI PUSH1 0x20 SWAP1 PUSH4 0x7965DB0B PUSH1 0xE0 SHL DUP2 EQ SWAP1 DUP2 ISZERO PUSH2 0x13BB JUMPI JUMPDEST POP PUSH1 0x40 MLOAD SWAP1 ISZERO ISZERO DUP2 MSTORE RETURN JUMPDEST PUSH4 0x1FFC9A7 PUSH1 0xE0 SHL EQ SWAP1 POP DUP3 PUSH2 0x13B0 JUMP JUMPDEST CALLVALUE PUSH2 0x37C JUMPI PUSH1 0x20 CALLDATASIZE PUSH1 0x3 NOT ADD SLT PUSH2 0x37C JUMPI PUSH1 0x4 CALLDATALOAD PUSH1 0x0 MSTORE PUSH1 0x4 PUSH1 0x20 MSTORE PUSH1 0x40 PUSH1 0x0 KECCAK256 DUP1 SLOAD SWAP2 PUSH2 0x14DE PUSH1 0x1 DUP1 PUSH1 0xA0 SHL SUB DUP1 PUSH1 0x1 DUP6 ADD SLOAD AND SWAP4 PUSH2 0x141A DUP5 PUSH2 0x1413 DUP2 PUSH1 0x2 DUP6 ADD PUSH2 0x1523 JUMP JUMPDEST SUB DUP6 PUSH2 0x15D6 JUMP JUMPDEST PUSH1 0xFF PUSH1 0x40 MLOAD SWAP3 PUSH2 0x1431 DUP5 PUSH2 0x1413 DUP2 PUSH1 0x3 DUP8 ADD PUSH2 0x1523 JUMP JUMPDEST PUSH1 0x4 DUP4 ADD SLOAD SWAP4 PUSH1 0x5 DUP5 ADD SLOAD PUSH1 0x6 DUP6 ADD SLOAD SWAP1 PUSH2 0x14A4 PUSH1 0x7 DUP8 ADD SLOAD SWAP4 PUSH2 0x1496 PUSH1 0x8 DUP10 ADD SLOAD SWAP7 PUSH1 0xA PUSH1 0x40 MLOAD SWAP11 PUSH2 0x1472 DUP13 PUSH2 0x146B DUP2 PUSH1 0x9 DUP6 ADD PUSH2 0x1523 JUMP JUMPDEST SUB DUP14 PUSH2 0x15D6 JUMP JUMPDEST ADD SLOAD AND SWAP12 PUSH1 0x40 MLOAD SWAP15 DUP16 SWAP15 DUP16 SWAP1 PUSH2 0x180 SWAP3 DUP3 MSTORE PUSH1 0x20 DUP3 ADD MSTORE DUP2 PUSH1 0x40 DUP3 ADD MSTORE ADD SWAP1 PUSH2 0x15F8 JUMP JUMPDEST DUP13 DUP2 SUB PUSH1 0x60 DUP15 ADD MSTORE SWAP1 PUSH2 0x15F8 JUMP JUMPDEST SWAP7 PUSH1 0x80 DUP12 ADD MSTORE PUSH1 0xA0 DUP11 ADD MSTORE PUSH1 0xC0 DUP10 ADD MSTORE PUSH1 0xE0 DUP9 ADD MSTORE DUP2 DUP2 AND ISZERO ISZERO PUSH2 0x100 DUP9 ADD MSTORE PUSH1 0x8 SHR AND ISZERO ISZERO PUSH2 0x120 DUP7 ADD MSTORE DUP5 DUP3 SUB PUSH2 0x140 DUP7 ADD MSTORE PUSH2 0x15F8 JUMP JUMPDEST SWAP1 PUSH2 0x160 DUP4 ADD MSTORE SUB SWAP1 RETURN JUMPDEST SWAP1 PUSH1 0x1 DUP3 DUP2 SHR SWAP3 AND DUP1 ISZERO PUSH2 0x1519 JUMPI JUMPDEST PUSH1 0x20 DUP4 LT EQ PUSH2 0x1503 JUMPI JUMP JUMPDEST PUSH4 0x4E487B71 PUSH1 0xE0 SHL PUSH1 0x0 MSTORE PUSH1 0x22 PUSH1 0x4 MSTORE PUSH1 0x24 PUSH1 0x0 REVERT JUMPDEST SWAP2 PUSH1 0x7F AND SWAP2 PUSH2 0x14F8 JUMP JUMPDEST DUP1 SLOAD PUSH1 0x0 SWAP4 SWAP3 PUSH2 0x1532 DUP3 PUSH2 0x14E9 JUMP JUMPDEST SWAP2 DUP3 DUP3 MSTORE PUSH1 0x20 SWAP4 PUSH1 0x1 SWAP2 PUSH1 0x1 DUP2 AND SWAP1 DUP2 PUSH1 0x0 EQ PUSH2 0x159A JUMPI POP PUSH1 0x1 EQ PUSH2 0x1559 JUMPI JUMPDEST POP POP POP POP POP JUMP JUMPDEST SWAP1 SWAP4 SWAP5 SWAP6 POP PUSH1 0x0 SWAP3 SWAP2 SWAP3 MSTORE DUP4 PUSH1 0x0 KECCAK256 SWAP3 DUP5 PUSH1 0x0 SWAP5 JUMPDEST DUP4 DUP7 LT PUSH2 0x1586 JUMPI POP POP POP POP ADD ADD SWAP1 CODESIZE DUP1 DUP1 DUP1 DUP1 PUSH2 0x1552 JUMP JUMPDEST DUP1 SLOAD DUP6 DUP8 ADD DUP4 ADD MSTORE SWAP5 ADD SWAP4 DUP6 SWAP1 DUP3 ADD PUSH2 0x156E JUMP JUMPDEST PUSH1 0xFF NOT AND DUP7 DUP6 ADD MSTORE POP POP POP SWAP1 ISZERO ISZERO PUSH1 0x5 SHL ADD ADD SWAP2 POP CODESIZE DUP1 DUP1 DUP1 DUP1 PUSH2 0x1552 JUMP JUMPDEST PUSH2 0x180 DUP2 ADD SWAP1 DUP2 LT PUSH8 0xFFFFFFFFFFFFFFFF DUP3 GT OR PUSH2 0x802 JUMPI PUSH1 0x40 MSTORE JUMP JUMPDEST SWAP1 PUSH1 0x1F DUP1 NOT SWAP2 ADD AND DUP2 ADD SWAP1 DUP2 LT PUSH8 0xFFFFFFFFFFFFFFFF DUP3 GT OR PUSH2 0x802 JUMPI PUSH1 0x40 MSTORE JUMP JUMPDEST SWAP2 SWAP1 DUP3 MLOAD SWAP3 DUP4 DUP3 MSTORE PUSH1 0x0 JUMPDEST DUP5 DUP2 LT PUSH2 0x1624 JUMPI POP POP DUP3 PUSH1 0x0 PUSH1 0x20 DUP1 SWAP5 SWAP6 DUP5 ADD ADD MSTORE PUSH1 0x1F DUP1 NOT SWAP2 ADD AND ADD ADD SWAP1 JUMP JUMPDEST PUSH1 0x20 DUP2 DUP4 ADD DUP2 ADD MLOAD DUP5 DUP4 ADD DUP3 ADD MSTORE ADD PUSH2 0x1603 JUMP JUMPDEST PUSH1 0x24 CALLDATALOAD SWAP1 PUSH1 0x1 PUSH1 0x1 PUSH1 0xA0 SHL SUB DUP3 AND DUP3 SUB PUSH2 0x37C JUMPI JUMP JUMPDEST SWAP2 DUP2 PUSH1 0x1F DUP5 ADD SLT ISZERO PUSH2 0x37C JUMPI DUP3 CALLDATALOAD SWAP2 PUSH8 0xFFFFFFFFFFFFFFFF DUP4 GT PUSH2 0x37C JUMPI PUSH1 0x20 DUP4 DUP2 DUP7 ADD SWAP6 ADD ADD GT PUSH2 0x37C JUMPI JUMP JUMPDEST ISZERO PUSH2 0x1683 JUMPI JUMP JUMPDEST PUSH1 0x40 MLOAD PUSH3 0x461BCD PUSH1 0xE5 SHL DUP2 MSTORE PUSH1 0x20 PUSH1 0x4 DUP3 ADD MSTORE PUSH1 0x12 PUSH1 0x24 DUP3 ADD MSTORE PUSH18 0x141C9BDC1BDCD85B081B9BDD08199BDD5B99 PUSH1 0x72 SHL PUSH1 0x44 DUP3 ADD MSTORE PUSH1 0x64 SWAP1 REVERT JUMPDEST ISZERO PUSH2 0x16C4 JUMPI JUMP JUMPDEST PUSH1 0x40 MLOAD PUSH3 0x461BCD PUSH1 0xE5 SHL DUP2 MSTORE PUSH1 0x20 PUSH1 0x4 DUP3 ADD MSTORE PUSH1 0x9 PUSH1 0x24 DUP3 ADD MSTORE PUSH9 0x10D85B98D95B1B1959 PUSH1 0xBA SHL PUSH1 0x44 DUP3 ADD MSTORE PUSH1 0x64 SWAP1 REVERT JUMPDEST SWAP2 SWAP1 DUP3 ADD DUP1 SWAP3 GT PUSH2 0x907 JUMPI JUMP JUMPDEST PUSH1 0x0 SWAP1 DUP2 MSTORE PUSH1 0x20 SWAP1 PUSH1 0x4 DUP3 MSTORE PUSH1 0x40 SWAP2 DUP3 DUP3 KECCAK256 SWAP3 DUP1 MLOAD SWAP3 PUSH2 0x1721 DUP5 PUSH2 0x15B9 JUMP JUMPDEST DUP5 SLOAD DUP5 MSTORE PUSH1 0x1 DUP6 ADD SLOAD PUSH1 0x1 PUSH1 0x1 PUSH1 0xA0 SHL SUB SWAP1 DUP2 AND DUP5 DUP7 ADD MSTORE DUP3 MLOAD SWAP1 SWAP4 SWAP1 PUSH2 0x174F DUP2 PUSH2 0xB17 DUP2 PUSH1 0x2 DUP12 ADD PUSH2 0x1523 JUMP JUMPDEST DUP4 DUP7 ADD MSTORE DUP3 MLOAD PUSH2 0x1766 DUP2 PUSH2 0xB17 DUP2 PUSH1 0x3 DUP12 ADD PUSH2 0x1523 JUMP JUMPDEST PUSH1 0x60 DUP7 ADD MSTORE PUSH1 0x4 DUP7 ADD SLOAD SWAP5 PUSH1 0x80 DUP2 ADD SWAP6 DUP7 MSTORE PUSH1 0x5 DUP8 ADD SLOAD SWAP7 PUSH1 0xA0 DUP3 ADD SWAP8 DUP9 MSTORE PUSH1 0x6 DUP2 ADD SLOAD PUSH1 0xC0 DUP4 ADD MSTORE PUSH1 0x7 DUP2 ADD SLOAD SWAP2 PUSH1 0xE0 DUP2 ADD SWAP3 DUP4 MSTORE PUSH1 0x8 DUP3 ADD SLOAD SWAP1 DUP8 PUSH1 0xA PUSH2 0x100 DUP4 ADD SWAP5 PUSH1 0xFF DUP6 AND ISZERO ISZERO DUP7 MSTORE PUSH1 0xFF PUSH2 0x120 DUP6 ADD SWAP6 PUSH1 0x8 SHR AND ISZERO ISZERO DUP6 MSTORE DUP10 MLOAD PUSH2 0x17D6 DUP2 PUSH2 0xB17 DUP2 PUSH1 0x9 DUP7 ADD PUSH2 0x1523 JUMP JUMPDEST PUSH2 0x140 DUP6 ADD MSTORE ADD SLOAD AND PUSH2 0x160 DUP3 ADD MSTORE MLOAD ISZERO PUSH2 0x18E2 JUMPI MLOAD PUSH2 0x18D5 JUMPI MLOAD PUSH2 0x18C9 JUMPI MLOAD TIMESTAMP LT PUSH2 0x18BE JUMPI DUP1 PUSH1 0x4 SWAP2 PUSH2 0x180D DUP8 MLOAD DUP10 MLOAD SWAP1 PUSH2 0x16F5 JUMP JUMPDEST SWAP6 PUSH1 0x1 SLOAD AND DUP6 MLOAD SWAP4 DUP5 DUP1 SWAP3 PUSH4 0x18160DDD PUSH1 0xE0 SHL DUP3 MSTORE GAS STATICCALL SWAP4 DUP5 ISZERO PUSH2 0x18B5 JUMPI POP DUP3 SWAP4 PUSH2 0x1881 JUMPI JUMPDEST POP POP PUSH1 0x2 SLOAD SWAP2 DUP3 DUP2 MUL SWAP3 DUP2 DUP5 DIV EQ SWAP1 ISZERO OR ISZERO PUSH2 0x186D JUMPI POP PUSH2 0x2710 SWAP1 DIV GT PUSH2 0x1866 JUMPI MLOAD SWAP1 MLOAD LT PUSH2 0x1861 JUMPI PUSH1 0x2 SWAP1 JUMP JUMPDEST PUSH1 0x3 SWAP1 JUMP JUMPDEST POP POP PUSH1 0x2 SWAP1 JUMP JUMPDEST PUSH4 0x4E487B71 PUSH1 0xE0 SHL DUP2 MSTORE PUSH1 0x11 PUSH1 0x4 MSTORE PUSH1 0x24 SWAP1 REVERT JUMPDEST SWAP1 DUP1 SWAP3 SWAP4 POP DUP2 RETURNDATASIZE DUP4 GT PUSH2 0x18AE JUMPI JUMPDEST PUSH2 0x1899 DUP2 DUP4 PUSH2 0x15D6 JUMP JUMPDEST DUP2 ADD SUB SLT PUSH2 0x18AA JUMPI MLOAD SWAP1 CODESIZE DUP1 PUSH2 0x1833 JUMP JUMPDEST POP DUP1 REVERT JUMPDEST POP RETURNDATASIZE PUSH2 0x188F JUMP JUMPDEST MLOAD RETURNDATASIZE DUP5 DUP3 RETURNDATACOPY RETURNDATASIZE SWAP1 REVERT JUMPDEST POP POP POP POP POP POP PUSH1 0x1 SWAP1 JUMP JUMPDEST POP POP POP POP POP POP POP PUSH1 0x4 SWAP1 JUMP JUMPDEST POP POP POP POP POP POP POP POP PUSH1 0x5 SWAP1 JUMP JUMPDEST POP POP POP POP SWAP4 POP POP POP POP SWAP1 JUMP JUMPDEST ISZERO PUSH2 0x18F5 JUMPI JUMP JUMPDEST PUSH1 0x40 MLOAD PUSH3 0x461BCD PUSH1 0xE5 SHL DUP2 MSTORE PUSH1 0x20 PUSH1 0x4 DUP3 ADD MSTORE PUSH1 0x10 PUSH1 0x24 DUP3 ADD MSTORE PUSH16 0x105B1C9958591E48195E1958DD5D1959 PUSH1 0x82 SHL PUSH1 0x44 DUP3 ADD MSTORE PUSH1 0x64 SWAP1 REVERT JUMPDEST PUSH8 0xFFFFFFFFFFFFFFFF DUP2 GT PUSH2 0x802 JUMPI PUSH1 0x1F ADD PUSH1 0x1F NOT AND PUSH1 0x20 ADD SWAP1 JUMP JUMPDEST SWAP3 SWAP2 SWAP3 PUSH2 0x1955 DUP3 PUSH2 0x192D JUMP JUMPDEST SWAP2 PUSH2 0x1963 PUSH1 0x40 MLOAD SWAP4 DUP5 PUSH2 0x15D6 JUMP JUMPDEST DUP3 SWAP5 DUP2 DUP5 MSTORE DUP2 DUP4 ADD GT PUSH2 0x37C JUMPI DUP3 DUP2 PUSH1 0x20 SWAP4 DUP5 PUSH1 0x0 SWAP7 ADD CALLDATACOPY ADD ADD MSTORE JUMP JUMPDEST SWAP1 PUSH1 0x1F DUP2 GT PUSH2 0x198E JUMPI POP POP POP JUMP JUMPDEST PUSH1 0x0 SWAP2 PUSH1 0x0 MSTORE PUSH1 0x20 PUSH1 0x0 KECCAK256 SWAP1 PUSH1 0x20 PUSH1 0x1F DUP6 ADD PUSH1 0x5 SHR DUP4 ADD SWAP5 LT PUSH2 0x19CC JUMPI JUMPDEST PUSH1 0x1F ADD PUSH1 0x5 SHR ADD SWAP2 JUMPDEST DUP3 DUP2 LT PUSH2 0x19C1 JUMPI POP POP POP JUMP JUMPDEST DUP2 DUP2 SSTORE PUSH1 0x1 ADD PUSH2 0x19B5 JUMP JUMPDEST SWAP1 SWAP3 POP DUP3 SWAP1 PUSH2 0x19AC JUMP JUMPDEST DUP1 PUSH1 0x0 MSTORE PUSH1 0x0 PUSH1 0x20 MSTORE PUSH1 0x40 PUSH1 0x0 KECCAK256 CALLER PUSH1 0x0 MSTORE PUSH1 0x20 MSTORE PUSH1 0xFF PUSH1 0x40 PUSH1 0x0 KECCAK256 SLOAD AND ISZERO PUSH2 0x19FC JUMPI POP JUMP JUMPDEST PUSH1 0x44 SWAP1 PUSH1 0x40 MLOAD SWAP1 PUSH4 0xE2517D3F PUSH1 0xE0 SHL DUP3 MSTORE CALLER PUSH1 0x4 DUP4 ADD MSTORE PUSH1 0x24 DUP3 ADD MSTORE REVERT JUMPDEST SWAP1 PUSH1 0x0 SWAP2 DUP1 DUP4 MSTORE DUP3 PUSH1 0x20 MSTORE PUSH1 0x40 DUP4 KECCAK256 SWAP2 PUSH1 0x1 DUP1 PUSH1 0xA0 SHL SUB AND SWAP2 DUP3 DUP5 MSTORE PUSH1 0x20 MSTORE PUSH1 0xFF PUSH1 0x40 DUP5 KECCAK256 SLOAD AND ISZERO PUSH1 0x0 EQ PUSH2 0x1A93 JUMPI DUP1 DUP4 MSTORE DUP3 PUSH1 0x20 MSTORE PUSH1 0x40 DUP4 KECCAK256 DUP3 DUP5 MSTORE PUSH1 0x20 MSTORE PUSH1 0x40 DUP4 KECCAK256 PUSH1 0x1 PUSH1 0xFF NOT DUP3 SLOAD AND OR SWAP1 SSTORE PUSH32 0x2F8788117E7EFF1D82E926EC794901D17C78024A50270940304540A733656F0D CALLER SWAP4 DUP1 LOG4 PUSH1 0x1 SWAP1 JUMP JUMPDEST POP POP SWAP1 JUMP JUMPDEST SWAP1 PUSH1 0x0 SWAP2 DUP1 DUP4 MSTORE DUP3 PUSH1 0x20 MSTORE PUSH1 0x40 DUP4 KECCAK256 SWAP2 PUSH1 0x1 DUP1 PUSH1 0xA0 SHL SUB AND SWAP2 DUP3 DUP5 MSTORE PUSH1 0x20 MSTORE PUSH1 0xFF PUSH1 0x40 DUP5 KECCAK256 SLOAD AND PUSH1 0x0 EQ PUSH2 0x1A93 JUMPI DUP1 DUP4 MSTORE DUP3 PUSH1 0x20 MSTORE PUSH1 0x40 DUP4 KECCAK256 DUP3 DUP5 MSTORE PUSH1 0x20 MSTORE PUSH1 0x40 DUP4 KECCAK256 PUSH1 0xFF NOT DUP2 SLOAD AND SWAP1 SSTORE PUSH32 0xF6391F5C32D9C69D2A47EA670B442974B53935D1EDC7FD64EB21E047A839171B CALLER SWAP4 DUP1 LOG4 PUSH1 0x1 SWAP1 JUMP INVALID LOG2 PUSH5 0x6970667358 0x22 SLT KECCAK256 0xEE 0xBE 0xA6 PUSH5 0x7C72DC8A9D LOG2 0xE2 DUP7 0xE5 DUP12 SGT ADDRESS 0xC7 0xB2 PUSH22 0x61E1309277826CFE75E165C91364736F6C6343000818 STOP CALLER "},"methodIdentifiers":{"DEFAULT_ADMIN_ROLE()":"a217fddf","MIN_PROPOSAL_THRESHOLD()":"791f5d23","VOTING_PERIOD()":"b1610d7e","cancel(uint256)":"40e58ee5","castVote(uint256,bool)":"15373e3d","execute(uint256)":"fe0d94c1","getProposal(uint256)":"c7f758a8","getRoleAdmin(bytes32)":"248a9ca3","getVoteInfo(uint256,address)":"0d524bc6","grantRole(bytes32,address)":"2f2ff15d","hasRole(bytes32,address)":"91d14854","hasVoted(uint256,address)":"43859632","oaiToken()":"82ae1791","proposalCount()":"da35c664","proposals(uint256)":"013cf08b","propose(string,string,address,bytes)":"de7b1638","quorumBps()":"cd2ddd0c","renounceRole(bytes32,address)":"36568abe","revokeRole(bytes32,address)":"d547741f","setQuorum(uint256)":"c1ba4e59","state(uint256)":"3e4f49e6","supportsInterface(bytes4)":"01ffc9a7","voteWeight(uint256,address)":"2b0a999d"}},"storageLayout":{"storage":[{"astId":26,"contract":"contracts/OracleGovernance.sol:OracleGovernance","label":"_roles","offset":0,"slot":"0","type":"t_mapping(t_bytes32,t_struct(RoleData)21_storage)"},{"astId":1295,"contract":"contracts/OracleGovernance.sol:OracleGovernance","label":"oaiToken","offset":0,"slot":"1","type":"t_contract(IERC20)456"},{"astId":1304,"contract":"contracts/OracleGovernance.sol:OracleGovernance","label":"quorumBps","offset":0,"slot":"2","type":"t_uint256"},{"astId":1338,"contract":"contracts/OracleGovernance.sol:OracleGovernance","label":"proposalCount","offset":0,"slot":"3","type":"t_uint256"},{"astId":1343,"contract":"contracts/OracleGovernance.sol:OracleGovernance","label":"proposals","offset":0,"slot":"4","type":"t_mapping(t_uint256,t_struct(Proposal)1336_storage)"},{"astId":1349,"contract":"contracts/OracleGovernance.sol:OracleGovernance","label":"hasVoted","offset":0,"slot":"5","type":"t_mapping(t_uint256,t_mapping(t_address,t_bool))"},{"astId":1355,"contract":"contracts/OracleGovernance.sol:OracleGovernance","label":"voteWeight","offset":0,"slot":"6","type":"t_mapping(t_uint256,t_mapping(t_address,t_uint256))"}],"types":{"t_address":{"encoding":"inplace","label":"address","numberOfBytes":"20"},"t_bool":{"encoding":"inplace","label":"bool","numberOfBytes":"1"},"t_bytes32":{"encoding":"inplace","label":"bytes32","numberOfBytes":"32"},"t_bytes_storage":{"encoding":"bytes","label":"bytes","numberOfBytes":"32"},"t_contract(IERC20)456":{"encoding":"inplace","label":"contract IERC20","numberOfBytes":"20"},"t_mapping(t_address,t_bool)":{"encoding":"mapping","key":"t_address","label":"mapping(address => bool)","numberOfBytes":"32","value":"t_bool"},"t_mapping(t_address,t_uint256)":{"encoding":"mapping","key":"t_address","label":"mapping(address => uint256)","numberOfBytes":"32","value":"t_uint256"},"t_mapping(t_bytes32,t_struct(RoleData)21_storage)":{"encoding":"mapping","key":"t_bytes32","label":"mapping(bytes32 => struct AccessControl.RoleData)","numberOfBytes":"32","value":"t_struct(RoleData)21_storage"},"t_mapping(t_uint256,t_mapping(t_address,t_bool))":{"encoding":"mapping","key":"t_uint256","label":"mapping(uint256 => mapping(address => bool))","numberOfBytes":"32","value":"t_mapping(t_address,t_bool)"},"t_mapping(t_uint256,t_mapping(t_address,t_uint256))":{"encoding":"mapping","key":"t_uint256","label":"mapping(uint256 => mapping(address => uint256))","numberOfBytes":"32","value":"t_mapping(t_address,t_uint256)"},"t_mapping(t_uint256,t_struct(Proposal)1336_storage)":{"encoding":"mapping","key":"t_uint256","label":"mapping(uint256 => struct OracleGovernance.Proposal)","numberOfBytes":"32","value":"t_struct(Proposal)1336_storage"},"t_string_storage":{"encoding":"bytes","label":"string","numberOfBytes":"32"},"t_struct(Proposal)1336_storage":{"encoding":"inplace","label":"struct OracleGovernance.Proposal","members":[{"astId":1313,"contract":"contracts/OracleGovernance.sol:OracleGovernance","label":"id","offset":0,"slot":"0","type":"t_uint256"},{"astId":1315,"contract":"contracts/OracleGovernance.sol:OracleGovernance","label":"proposer","offset":0,"slot":"1","type":"t_address"},{"astId":1317,"contract":"contracts/OracleGovernance.sol:OracleGovernance","label":"title","offset":0,"slot":"2","type":"t_string_storage"},{"astId":1319,"contract":"contracts/OracleGovernance.sol:OracleGovernance","label":"description","offset":0,"slot":"3","type":"t_string_storage"},{"astId":1321,"contract":"contracts/OracleGovernance.sol:OracleGovernance","label":"forVotes","offset":0,"slot":"4","type":"t_uint256"},{"astId":1323,"contract":"contracts/OracleGovernance.sol:OracleGovernance","label":"againstVotes","offset":0,"slot":"5","type":"t_uint256"},{"astId":1325,"contract":"contracts/OracleGovernance.sol:OracleGovernance","label":"startTime","offset":0,"slot":"6","type":"t_uint256"},{"astId":1327,"contract":"contracts/OracleGovernance.sol:OracleGovernance","label":"endTime","offset":0,"slot":"7","type":"t_uint256"},{"astId":1329,"contract":"contracts/OracleGovernance.sol:OracleGovernance","label":"executed","offset":0,"slot":"8","type":"t_bool"},{"astId":1331,"contract":"contracts/OracleGovernance.sol:OracleGovernance","label":"cancelled","offset":1,"slot":"8","type":"t_bool"},{"astId":1333,"contract":"contracts/OracleGovernance.sol:OracleGovernance","label":"callData","offset":0,"slot":"9","type":"t_bytes_storage"},{"astId":1335,"contract":"contracts/OracleGovernance.sol:OracleGovernance","label":"target","offset":0,"slot":"10","type":"t_address"}],"numberOfBytes":"352"},"t_struct(RoleData)21_storage":{"encoding":"inplace","label":"struct AccessControl.RoleData","members":[{"astId":18,"contract":"contracts/OracleGovernance.sol:OracleGovernance","label":"hasRole","offset":0,"slot":"0","type":"t_mapping(t_address,t_bool)"},{"astId":20,"contract":"contracts/OracleGovernance.sol:OracleGovernance","label":"adminRole","offset":0,"slot":"1","type":"t_bytes32"}],"numberOfBytes":"64"},"t_uint256":{"encoding":"inplace","label":"uint256","numberOfBytes":"32"}}}}}}