{"contracts/PrizePool.sol":{"PrizePool":{"abi":[{"inputs":[],"stateMutability":"nonpayable","type":"constructor"},{"inputs":[],"name":"AccessControlBadConfirmation","type":"error"},{"inputs":[{"internalType":"address","name":"account","type":"address"},{"internalType":"bytes32","name":"neededRole","type":"bytes32"}],"name":"AccessControlUnauthorizedAccount","type":"error"},{"inputs":[],"name":"ReentrancyGuardReentrantCall","type":"error"},{"anonymous":false,"inputs":[{"indexed":false,"internalType":"address","name":"to","type":"address"},{"indexed":false,"internalType":"uint256","name":"amount","type":"uint256"}],"name":"EmergencyWithdraw","type":"event"},{"anonymous":false,"inputs":[{"indexed":true,"internalType":"address","name":"winner","type":"address"},{"indexed":false,"internalType":"uint256","name":"amount","type":"uint256"}],"name":"PendingPrizeClaimed","type":"event"},{"anonymous":false,"inputs":[{"indexed":true,"internalType":"address","name":"winner","type":"address"},{"indexed":false,"internalType":"uint256","name":"amount","type":"uint256"}],"name":"PrizeQueued","type":"event"},{"anonymous":false,"inputs":[{"indexed":false,"internalType":"uint256","name":"amount","type":"uint256"}],"name":"PrizeReceived","type":"event"},{"anonymous":false,"inputs":[{"indexed":false,"internalType":"uint256","name":"total","type":"uint256"},{"indexed":false,"internalType":"uint256","name":"winnersCount","type":"uint256"}],"name":"PrizesDistributed","type":"event"},{"anonymous":false,"inputs":[{"indexed":true,"internalType":"bytes32","name":"role","type":"bytes32"},{"indexed":true,"internalType":"bytes32","name":"previousAdminRole","type":"bytes32"},{"indexed":true,"internalType":"bytes32","name":"newAdminRole","type":"bytes32"}],"name":"RoleAdminChanged","type":"event"},{"anonymous":false,"inputs":[{"indexed":true,"internalType":"bytes32","name":"role","type":"bytes32"},{"indexed":true,"internalType":"address","name":"account","type":"address"},{"indexed":true,"internalType":"address","name":"sender","type":"address"}],"name":"RoleGranted","type":"event"},{"anonymous":false,"inputs":[{"indexed":true,"internalType":"bytes32","name":"role","type":"bytes32"},{"indexed":true,"internalType":"address","name":"account","type":"address"},{"indexed":true,"internalType":"address","name":"sender","type":"address"}],"name":"RoleRevoked","type":"event"},{"inputs":[],"name":"DEFAULT_ADMIN_ROLE","outputs":[{"internalType":"bytes32","name":"","type":"bytes32"}],"stateMutability":"view","type":"function"},{"inputs":[],"name":"DISTRIBUTOR_ROLE","outputs":[{"internalType":"bytes32","name":"","type":"bytes32"}],"stateMutability":"view","type":"function"},{"inputs":[],"name":"claimPendingPrize","outputs":[],"stateMutability":"nonpayable","type":"function"},{"inputs":[{"internalType":"address[]","name":"winners","type":"address[]"},{"internalType":"uint256[]","name":"shares","type":"uint256[]"}],"name":"distributePrizes","outputs":[],"stateMutability":"nonpayable","type":"function"},{"inputs":[{"internalType":"address","name":"to","type":"address"}],"name":"emergencyWithdraw","outputs":[],"stateMutability":"nonpayable","type":"function"},{"inputs":[],"name":"getBalance","outputs":[{"internalType":"uint256","name":"","type":"uint256"}],"stateMutability":"view","type":"function"},{"inputs":[{"internalType":"bytes32","name":"role","type":"bytes32"}],"name":"getRoleAdmin","outputs":[{"internalType":"bytes32","name":"","type":"bytes32"}],"stateMutability":"view","type":"function"},{"inputs":[{"internalType":"bytes32","name":"role","type":"bytes32"},{"internalType":"address","name":"account","type":"address"}],"name":"grantRole","outputs":[],"stateMutability":"nonpayable","type":"function"},{"inputs":[{"internalType":"bytes32","name":"role","type":"bytes32"},{"internalType":"address","name":"account","type":"address"}],"name":"hasRole","outputs":[{"internalType":"bool","name":"","type":"bool"}],"stateMutability":"view","type":"function"},{"inputs":[{"internalType":"address","name":"","type":"address"}],"name":"pendingPrizes","outputs":[{"internalType":"uint256","name":"","type":"uint256"}],"stateMutability":"view","type":"function"},{"inputs":[{"internalType":"bytes32","name":"role","type":"bytes32"},{"internalType":"address","name":"callerConfirmation","type":"address"}],"name":"renounceRole","outputs":[],"stateMutability":"nonpayable","type":"function"},{"inputs":[{"internalType":"bytes32","name":"role","type":"bytes32"},{"internalType":"address","name":"account","type":"address"}],"name":"revokeRole","outputs":[],"stateMutability":"nonpayable","type":"function"},{"inputs":[{"internalType":"bytes4","name":"interfaceId","type":"bytes4"}],"name":"supportsInterface","outputs":[{"internalType":"bool","name":"","type":"bool"}],"stateMutability":"view","type":"function"},{"inputs":[],"name":"totalDistributed","outputs":[{"internalType":"uint256","name":"","type":"uint256"}],"stateMutability":"view","type":"function"},{"stateMutability":"payable","type":"receive"}],"evm":{"bytecode":{"linkReferences":{},"object":"6080604052346100465760017f9b779b17422d0df92223018b32b4d1fa46e071723d6817e2486d003becc55f00556100363361004b565b50604051610b3a90816100dc8239f35b600080fd5b6001600160a01b031660008181527fad3228b676f7d3cd4284a5443f17f1962b36e491b30a40b2405849e597ba5fb5602052604081205490919060ff166100d757818052816020526040822081835260205260408220600160ff1982541617905533917f2f8788117e7eff1d82e926ec794901d17c78024a50270940304540a733656f0d8180a4600190565b509056fe60806040908082526004908136101561004b575b5050361561002057600080fd5b60207f548fe5d3f90bae32b8a889b6f74cabe377b6a8899275d09bed1da9c38af1a8c39151348152a1005b600091823560e01c91826301ffc9a71461080a5750816312065fe0146107ef5781631c801661146106f8578163248a9ca3146106cd5781632f2ff15d146106a357816336568abe1461065d578163406a378a1461035e5781636ff1c9bc1461022f578163788f5352146101f757816391d14854146101b0578163a217fddf14610195578163d547741f1461015257508063efca2eed146101335763f0bd87cc146100f55780610013565b903461012f578160031936011261012f57602090517ffbd454f36a7e1a388bd6fc3ab10d434aa4578f811acbbcf33afb1c697486313c8152f35b5080fd5b50903461012f578160031936011261012f576020906001549051908152f35b9050823461019157806003193601126101915761018d9135610188600161017761085d565b9383875286602052862001546109ad565b610a6f565b5080f35b8280fd5b82843461012f578160031936011261012f5751908152602090f35b839150346101915781600319360112610191578160209360ff926101d261085d565b903582528186528282206001600160a01b039091168252855220549151911615158152f35b82843461012f57602036600319011261012f5760209181906001600160a01b0361021f610878565b1681526002845220549051908152f35b82843461012f57602092836003193601126101915761024c610878565b838052838552828420338552855260ff8385205416156103415761026e61097d565b6001600160a01b03811691821561030d57848080804780965af16102906108bf565b50156102d857507f5fafa99d0643513820be26656b45130b01e1c03062e1266bf36f88cbd3bd969593948351928352820152a16001600080516020610ae58339815191525580f35b835162461bcd60e51b8152908101869052600f60248201526e151c985b9cd9995c8819985a5b1959608a1b6044820152606490fd5b835162461bcd60e51b8152908101869052600e60248201526d16995c9bc81c9958da5c1a595b9d60921b6044820152606490fd5b5082604492519163e2517d3f60e01b835233908301526024820152fd5b82843461012f578060031936011261012f5767ffffffffffffffff83358181116106595761038f903690860161088e565b9091602490602435908111610655576103ab903690880161088e565b9690937ffbd454f36a7e1a388bd6fc3ab10d434aa4578f811acbbcf33afb1c697486313c92838852602093888552878920338a52855260ff888a2054161561063757506103f661097d565b888503610602578795885b8a8082106105e25750504787116105a857885b86811061046e57897f329f5cd0d1a0c708183708da49f688d169bfd6e9203310c8d56d4d26c144fafe8a8a8a8a61044d83600154610946565b6001558351928352820152a16001600080516020610ae58339815191525580f35b610479818c84610920565b35610487575b600101610414565b6001600160a01b03806104a361049e848b89610920565b610969565b16156105785790898b886001948f8c868b8a878080806104c761049e888a89610920565b6104d2888b88610920565b35905af16104de6108bf565b50156104f5575b505050505050505050905061047f565b826105619461055a93886105538d7f911eef452ecf4d39d4286f815ae7ed72ecd0cac425eb8853fe992bc2b747f5d89d60028e610536898f61049e9c610920565b359561054661049e8b8b8b610920565b1683525220918254610946565b9055610920565b928a610920565b3594519485521692a2898b888f8f8c868b8a6104e5565b895162461bcd60e51b8152808701889052600b818601526a2d32b937903bb4b73732b960a91b6044820152606490fd5b875162461bcd60e51b81528085018690526014602482015273496e73756666696369656e742062616c616e636560601b6044820152606490fd5b81986105f46001936105fb9386610920565b3590610946565b9701610401565b865162461bcd60e51b8152808401859052600f60248201526e098cadccee8d040dad2e6dac2e8c6d608b1b6044820152606490fd5b875163e2517d3f60e01b815233818601526024810191909152604490fd5b8580fd5b8380fd5b82843461012f578060031936011261012f5761067761085d565b90336001600160a01b03831603610694575061018d919235610a6f565b5163334bd91960e11b81528390fd5b9050823461019157806003193601126101915761018d91356106c8600161017761085d565b6109f1565b8391503461019157602036600319011261019157816020936001923581528085522001549051908152f35b9050823461019157826003193601126101915761071361097d565b3383526002602052808320549182156107ba57338452600260205283828120558380808086335af16107436108bf565b50156107895750519081527ffeaae442e56d252ebdfe4a7c2e45916d2ff26eb4a805e357e1517d6ab59ed8d260203392a26001600080516020610ae58339815191525580f35b6020606492519162461bcd60e51b8352820152600c60248201526b10db185a5b4819985a5b195960a21b6044820152fd5b6020606492519162461bcd60e51b8352820152601060248201526f4e6f2070656e64696e67207072697a6560801b6044820152fd5b82843461012f578160031936011261012f5751478152602090f35b915034610191576020366003190112610191573563ffffffff60e01b81168091036101915760209250637965db0b60e01b811490811561084c575b5015158152f35b6301ffc9a760e01b14905083610845565b602435906001600160a01b038216820361087357565b600080fd5b600435906001600160a01b038216820361087357565b9181601f840112156108735782359167ffffffffffffffff8311610873576020808501948460051b01011161087357565b3d1561091b5767ffffffffffffffff903d8281116109055760405192601f8201601f19908116603f01168401908111848210176109055760405282523d6000602084013e565b634e487b7160e01b600052604160045260246000fd5b606090565b91908110156109305760051b0190565b634e487b7160e01b600052603260045260246000fd5b9190820180921161095357565b634e487b7160e01b600052601160045260246000fd5b356001600160a01b03811681036108735790565b600080516020610ae5833981519152600281541461099b5760029055565b604051633ee5aeb560e01b8152600490fd5b80600052600060205260406000203360005260205260ff60406000205416156109d35750565b6044906040519063e2517d3f60e01b82523360048301526024820152fd5b9060009180835282602052604083209160018060a01b03169182845260205260ff60408420541615600014610a6a57808352826020526040832082845260205260408320600160ff198254161790557f2f8788117e7eff1d82e926ec794901d17c78024a50270940304540a733656f0d339380a4600190565b505090565b9060009180835282602052604083209160018060a01b03169182845260205260ff604084205416600014610a6a5780835282602052604083208284526020526040832060ff1981541690557ff6391f5c32d9c69d2a47ea670b442974b53935d1edc7fd64eb21e047a839171b339380a460019056fe9b779b17422d0df92223018b32b4d1fa46e071723d6817e2486d003becc55f00a2646970667358221220c2a676ab361e7f5c6858c7f4d15ff6fa2009a60f9291507f528526929229619664736f6c63430008180033","opcodes":"PUSH1 0x80 PUSH1 0x40 MSTORE CALLVALUE PUSH2 0x46 JUMPI PUSH1 0x1 PUSH32 0x9B779B17422D0DF92223018B32B4D1FA46E071723D6817E2486D003BECC55F00 SSTORE PUSH2 0x36 CALLER PUSH2 0x4B JUMP JUMPDEST POP PUSH1 0x40 MLOAD PUSH2 0xB3A SWAP1 DUP2 PUSH2 0xDC DUP3 CODECOPY RETURN JUMPDEST PUSH1 0x0 DUP1 REVERT JUMPDEST PUSH1 0x1 PUSH1 0x1 PUSH1 0xA0 SHL SUB AND PUSH1 0x0 DUP2 DUP2 MSTORE PUSH32 0xAD3228B676F7D3CD4284A5443F17F1962B36E491B30A40B2405849E597BA5FB5 PUSH1 0x20 MSTORE PUSH1 0x40 DUP2 KECCAK256 SLOAD SWAP1 SWAP2 SWAP1 PUSH1 0xFF AND PUSH2 0xD7 JUMPI DUP2 DUP1 MSTORE DUP2 PUSH1 0x20 MSTORE PUSH1 0x40 DUP3 KECCAK256 DUP2 DUP4 MSTORE PUSH1 0x20 MSTORE PUSH1 0x40 DUP3 KECCAK256 PUSH1 0x1 PUSH1 0xFF NOT DUP3 SLOAD AND OR SWAP1 SSTORE CALLER SWAP2 PUSH32 0x2F8788117E7EFF1D82E926EC794901D17C78024A50270940304540A733656F0D DUP2 DUP1 LOG4 PUSH1 0x1 SWAP1 JUMP JUMPDEST POP SWAP1 JUMP INVALID PUSH1 0x80 PUSH1 0x40 SWAP1 DUP1 DUP3 MSTORE PUSH1 0x4 SWAP1 DUP2 CALLDATASIZE LT ISZERO PUSH2 0x4B JUMPI JUMPDEST POP POP CALLDATASIZE ISZERO PUSH2 0x20 JUMPI PUSH1 0x0 DUP1 REVERT JUMPDEST PUSH1 0x20 PUSH32 0x548FE5D3F90BAE32B8A889B6F74CABE377B6A8899275D09BED1DA9C38AF1A8C3 SWAP2 MLOAD CALLVALUE DUP2 MSTORE LOG1 STOP JUMPDEST PUSH1 0x0 SWAP2 DUP3 CALLDATALOAD PUSH1 0xE0 SHR SWAP2 DUP3 PUSH4 0x1FFC9A7 EQ PUSH2 0x80A JUMPI POP DUP2 PUSH4 0x12065FE0 EQ PUSH2 0x7EF JUMPI DUP2 PUSH4 0x1C801661 EQ PUSH2 0x6F8 JUMPI DUP2 PUSH4 0x248A9CA3 EQ PUSH2 0x6CD JUMPI DUP2 PUSH4 0x2F2FF15D EQ PUSH2 0x6A3 JUMPI DUP2 PUSH4 0x36568ABE EQ PUSH2 0x65D JUMPI DUP2 PUSH4 0x406A378A EQ PUSH2 0x35E JUMPI DUP2 PUSH4 0x6FF1C9BC EQ PUSH2 0x22F JUMPI DUP2 PUSH4 0x788F5352 EQ PUSH2 0x1F7 JUMPI DUP2 PUSH4 0x91D14854 EQ PUSH2 0x1B0 JUMPI DUP2 PUSH4 0xA217FDDF EQ PUSH2 0x195 JUMPI DUP2 PUSH4 0xD547741F EQ PUSH2 0x152 JUMPI POP DUP1 PUSH4 0xEFCA2EED EQ PUSH2 0x133 JUMPI PUSH4 0xF0BD87CC EQ PUSH2 0xF5 JUMPI DUP1 PUSH2 0x13 JUMP JUMPDEST SWAP1 CALLVALUE PUSH2 0x12F JUMPI DUP2 PUSH1 0x3 NOT CALLDATASIZE ADD SLT PUSH2 0x12F JUMPI PUSH1 0x20 SWAP1 MLOAD PUSH32 0xFBD454F36A7E1A388BD6FC3AB10D434AA4578F811ACBBCF33AFB1C697486313C DUP2 MSTORE RETURN JUMPDEST POP DUP1 REVERT JUMPDEST POP SWAP1 CALLVALUE PUSH2 0x12F JUMPI DUP2 PUSH1 0x3 NOT CALLDATASIZE ADD SLT PUSH2 0x12F JUMPI PUSH1 0x20 SWAP1 PUSH1 0x1 SLOAD SWAP1 MLOAD SWAP1 DUP2 MSTORE RETURN JUMPDEST SWAP1 POP DUP3 CALLVALUE PUSH2 0x191 JUMPI DUP1 PUSH1 0x3 NOT CALLDATASIZE ADD SLT PUSH2 0x191 JUMPI PUSH2 0x18D SWAP2 CALLDATALOAD PUSH2 0x188 PUSH1 0x1 PUSH2 0x177 PUSH2 0x85D JUMP JUMPDEST SWAP4 DUP4 DUP8 MSTORE DUP7 PUSH1 0x20 MSTORE DUP7 KECCAK256 ADD SLOAD PUSH2 0x9AD JUMP JUMPDEST PUSH2 0xA6F JUMP JUMPDEST POP DUP1 RETURN JUMPDEST DUP3 DUP1 REVERT JUMPDEST DUP3 DUP5 CALLVALUE PUSH2 0x12F JUMPI DUP2 PUSH1 0x3 NOT CALLDATASIZE ADD SLT PUSH2 0x12F JUMPI MLOAD SWAP1 DUP2 MSTORE PUSH1 0x20 SWAP1 RETURN JUMPDEST DUP4 SWAP2 POP CALLVALUE PUSH2 0x191 JUMPI DUP2 PUSH1 0x3 NOT CALLDATASIZE ADD SLT PUSH2 0x191 JUMPI DUP2 PUSH1 0x20 SWAP4 PUSH1 0xFF SWAP3 PUSH2 0x1D2 PUSH2 0x85D JUMP JUMPDEST SWAP1 CALLDATALOAD DUP3 MSTORE DUP2 DUP7 MSTORE DUP3 DUP3 KECCAK256 PUSH1 0x1 PUSH1 0x1 PUSH1 0xA0 SHL SUB SWAP1 SWAP2 AND DUP3 MSTORE DUP6 MSTORE KECCAK256 SLOAD SWAP2 MLOAD SWAP2 AND ISZERO ISZERO DUP2 MSTORE RETURN JUMPDEST DUP3 DUP5 CALLVALUE PUSH2 0x12F JUMPI PUSH1 0x20 CALLDATASIZE PUSH1 0x3 NOT ADD SLT PUSH2 0x12F JUMPI PUSH1 0x20 SWAP2 DUP2 SWAP1 PUSH1 0x1 PUSH1 0x1 PUSH1 0xA0 SHL SUB PUSH2 0x21F PUSH2 0x878 JUMP JUMPDEST AND DUP2 MSTORE PUSH1 0x2 DUP5 MSTORE KECCAK256 SLOAD SWAP1 MLOAD SWAP1 DUP2 MSTORE RETURN JUMPDEST DUP3 DUP5 CALLVALUE PUSH2 0x12F JUMPI PUSH1 0x20 SWAP3 DUP4 PUSH1 0x3 NOT CALLDATASIZE ADD SLT PUSH2 0x191 JUMPI PUSH2 0x24C PUSH2 0x878 JUMP JUMPDEST DUP4 DUP1 MSTORE DUP4 DUP6 MSTORE DUP3 DUP5 KECCAK256 CALLER DUP6 MSTORE DUP6 MSTORE PUSH1 0xFF DUP4 DUP6 KECCAK256 SLOAD AND ISZERO PUSH2 0x341 JUMPI PUSH2 0x26E PUSH2 0x97D JUMP JUMPDEST PUSH1 0x1 PUSH1 0x1 PUSH1 0xA0 SHL SUB DUP2 AND SWAP2 DUP3 ISZERO PUSH2 0x30D JUMPI DUP5 DUP1 DUP1 DUP1 SELFBALANCE DUP1 SWAP7 GAS CALL PUSH2 0x290 PUSH2 0x8BF JUMP JUMPDEST POP ISZERO PUSH2 0x2D8 JUMPI POP PUSH32 0x5FAFA99D0643513820BE26656B45130B01E1C03062E1266BF36F88CBD3BD9695 SWAP4 SWAP5 DUP4 MLOAD SWAP3 DUP4 MSTORE DUP3 ADD MSTORE LOG1 PUSH1 0x1 PUSH1 0x0 DUP1 MLOAD PUSH1 0x20 PUSH2 0xAE5 DUP4 CODECOPY DUP2 MLOAD SWAP2 MSTORE SSTORE DUP1 RETURN JUMPDEST DUP4 MLOAD PUSH3 0x461BCD PUSH1 0xE5 SHL DUP2 MSTORE SWAP1 DUP2 ADD DUP7 SWAP1 MSTORE PUSH1 0xF PUSH1 0x24 DUP3 ADD MSTORE PUSH15 0x151C985B9CD9995C8819985A5B1959 PUSH1 0x8A SHL PUSH1 0x44 DUP3 ADD MSTORE PUSH1 0x64 SWAP1 REVERT JUMPDEST DUP4 MLOAD PUSH3 0x461BCD PUSH1 0xE5 SHL DUP2 MSTORE SWAP1 DUP2 ADD DUP7 SWAP1 MSTORE PUSH1 0xE PUSH1 0x24 DUP3 ADD MSTORE PUSH14 0x16995C9BC81C9958DA5C1A595B9D PUSH1 0x92 SHL PUSH1 0x44 DUP3 ADD MSTORE PUSH1 0x64 SWAP1 REVERT JUMPDEST POP DUP3 PUSH1 0x44 SWAP3 MLOAD SWAP2 PUSH4 0xE2517D3F PUSH1 0xE0 SHL DUP4 MSTORE CALLER SWAP1 DUP4 ADD MSTORE PUSH1 0x24 DUP3 ADD MSTORE REVERT JUMPDEST DUP3 DUP5 CALLVALUE PUSH2 0x12F JUMPI DUP1 PUSH1 0x3 NOT CALLDATASIZE ADD SLT PUSH2 0x12F JUMPI PUSH8 0xFFFFFFFFFFFFFFFF DUP4 CALLDATALOAD DUP2 DUP2 GT PUSH2 0x659 JUMPI PUSH2 0x38F SWAP1 CALLDATASIZE SWAP1 DUP7 ADD PUSH2 0x88E JUMP JUMPDEST SWAP1 SWAP2 PUSH1 0x24 SWAP1 PUSH1 0x24 CALLDATALOAD SWAP1 DUP2 GT PUSH2 0x655 JUMPI PUSH2 0x3AB SWAP1 CALLDATASIZE SWAP1 DUP9 ADD PUSH2 0x88E JUMP JUMPDEST SWAP7 SWAP1 SWAP4 PUSH32 0xFBD454F36A7E1A388BD6FC3AB10D434AA4578F811ACBBCF33AFB1C697486313C SWAP3 DUP4 DUP9 MSTORE PUSH1 0x20 SWAP4 DUP9 DUP6 MSTORE DUP8 DUP10 KECCAK256 CALLER DUP11 MSTORE DUP6 MSTORE PUSH1 0xFF DUP9 DUP11 KECCAK256 SLOAD AND ISZERO PUSH2 0x637 JUMPI POP PUSH2 0x3F6 PUSH2 0x97D JUMP JUMPDEST DUP9 DUP6 SUB PUSH2 0x602 JUMPI DUP8 SWAP6 DUP9 JUMPDEST DUP11 DUP1 DUP3 LT PUSH2 0x5E2 JUMPI POP POP SELFBALANCE DUP8 GT PUSH2 0x5A8 JUMPI DUP9 JUMPDEST DUP7 DUP2 LT PUSH2 0x46E JUMPI DUP10 PUSH32 0x329F5CD0D1A0C708183708DA49F688D169BFD6E9203310C8D56D4D26C144FAFE DUP11 DUP11 DUP11 DUP11 PUSH2 0x44D DUP4 PUSH1 0x1 SLOAD PUSH2 0x946 JUMP JUMPDEST PUSH1 0x1 SSTORE DUP4 MLOAD SWAP3 DUP4 MSTORE DUP3 ADD MSTORE LOG1 PUSH1 0x1 PUSH1 0x0 DUP1 MLOAD PUSH1 0x20 PUSH2 0xAE5 DUP4 CODECOPY DUP2 MLOAD SWAP2 MSTORE SSTORE DUP1 RETURN JUMPDEST PUSH2 0x479 DUP2 DUP13 DUP5 PUSH2 0x920 JUMP JUMPDEST CALLDATALOAD PUSH2 0x487 JUMPI JUMPDEST PUSH1 0x1 ADD PUSH2 0x414 JUMP JUMPDEST PUSH1 0x1 PUSH1 0x1 PUSH1 0xA0 SHL SUB DUP1 PUSH2 0x4A3 PUSH2 0x49E DUP5 DUP12 DUP10 PUSH2 0x920 JUMP JUMPDEST PUSH2 0x969 JUMP JUMPDEST AND ISZERO PUSH2 0x578 JUMPI SWAP1 DUP10 DUP12 DUP9 PUSH1 0x1 SWAP5 DUP16 DUP13 DUP7 DUP12 DUP11 DUP8 DUP1 DUP1 DUP1 PUSH2 0x4C7 PUSH2 0x49E DUP9 DUP11 DUP10 PUSH2 0x920 JUMP JUMPDEST PUSH2 0x4D2 DUP9 DUP12 DUP9 PUSH2 0x920 JUMP JUMPDEST CALLDATALOAD SWAP1 GAS CALL PUSH2 0x4DE PUSH2 0x8BF JUMP JUMPDEST POP ISZERO PUSH2 0x4F5 JUMPI JUMPDEST POP POP POP POP POP POP POP POP POP SWAP1 POP PUSH2 0x47F JUMP JUMPDEST DUP3 PUSH2 0x561 SWAP5 PUSH2 0x55A SWAP4 DUP9 PUSH2 0x553 DUP14 PUSH32 0x911EEF452ECF4D39D4286F815AE7ED72ECD0CAC425EB8853FE992BC2B747F5D8 SWAP14 PUSH1 0x2 DUP15 PUSH2 0x536 DUP10 DUP16 PUSH2 0x49E SWAP13 PUSH2 0x920 JUMP JUMPDEST CALLDATALOAD SWAP6 PUSH2 0x546 PUSH2 0x49E DUP12 DUP12 DUP12 PUSH2 0x920 JUMP JUMPDEST AND DUP4 MSTORE MSTORE KECCAK256 SWAP2 DUP3 SLOAD PUSH2 0x946 JUMP JUMPDEST SWAP1 SSTORE PUSH2 0x920 JUMP JUMPDEST SWAP3 DUP11 PUSH2 0x920 JUMP JUMPDEST CALLDATALOAD SWAP5 MLOAD SWAP5 DUP6 MSTORE AND SWAP3 LOG2 DUP10 DUP12 DUP9 DUP16 DUP16 DUP13 DUP7 DUP12 DUP11 PUSH2 0x4E5 JUMP JUMPDEST DUP10 MLOAD PUSH3 0x461BCD PUSH1 0xE5 SHL DUP2 MSTORE DUP1 DUP8 ADD DUP9 SWAP1 MSTORE PUSH1 0xB DUP2 DUP7 ADD MSTORE PUSH11 0x2D32B937903BB4B73732B9 PUSH1 0xA9 SHL PUSH1 0x44 DUP3 ADD MSTORE PUSH1 0x64 SWAP1 REVERT JUMPDEST DUP8 MLOAD PUSH3 0x461BCD PUSH1 0xE5 SHL DUP2 MSTORE DUP1 DUP6 ADD DUP7 SWAP1 MSTORE PUSH1 0x14 PUSH1 0x24 DUP3 ADD MSTORE PUSH20 0x496E73756666696369656E742062616C616E6365 PUSH1 0x60 SHL PUSH1 0x44 DUP3 ADD MSTORE PUSH1 0x64 SWAP1 REVERT JUMPDEST DUP2 SWAP9 PUSH2 0x5F4 PUSH1 0x1 SWAP4 PUSH2 0x5FB SWAP4 DUP7 PUSH2 0x920 JUMP JUMPDEST CALLDATALOAD SWAP1 PUSH2 0x946 JUMP JUMPDEST SWAP8 ADD PUSH2 0x401 JUMP JUMPDEST DUP7 MLOAD PUSH3 0x461BCD PUSH1 0xE5 SHL DUP2 MSTORE DUP1 DUP5 ADD DUP6 SWAP1 MSTORE PUSH1 0xF PUSH1 0x24 DUP3 ADD MSTORE PUSH15 0x98CADCCEE8D040DAD2E6DAC2E8C6D PUSH1 0x8B SHL PUSH1 0x44 DUP3 ADD MSTORE PUSH1 0x64 SWAP1 REVERT JUMPDEST DUP8 MLOAD PUSH4 0xE2517D3F PUSH1 0xE0 SHL DUP2 MSTORE CALLER DUP2 DUP7 ADD MSTORE PUSH1 0x24 DUP2 ADD SWAP2 SWAP1 SWAP2 MSTORE PUSH1 0x44 SWAP1 REVERT JUMPDEST DUP6 DUP1 REVERT JUMPDEST DUP4 DUP1 REVERT JUMPDEST DUP3 DUP5 CALLVALUE PUSH2 0x12F JUMPI DUP1 PUSH1 0x3 NOT CALLDATASIZE ADD SLT PUSH2 0x12F JUMPI PUSH2 0x677 PUSH2 0x85D JUMP JUMPDEST SWAP1 CALLER PUSH1 0x1 PUSH1 0x1 PUSH1 0xA0 SHL SUB DUP4 AND SUB PUSH2 0x694 JUMPI POP PUSH2 0x18D SWAP2 SWAP3 CALLDATALOAD PUSH2 0xA6F JUMP JUMPDEST MLOAD PUSH4 0x334BD919 PUSH1 0xE1 SHL DUP2 MSTORE DUP4 SWAP1 REVERT JUMPDEST SWAP1 POP DUP3 CALLVALUE PUSH2 0x191 JUMPI DUP1 PUSH1 0x3 NOT CALLDATASIZE ADD SLT PUSH2 0x191 JUMPI PUSH2 0x18D SWAP2 CALLDATALOAD PUSH2 0x6C8 PUSH1 0x1 PUSH2 0x177 PUSH2 0x85D JUMP JUMPDEST PUSH2 0x9F1 JUMP JUMPDEST DUP4 SWAP2 POP CALLVALUE PUSH2 0x191 JUMPI PUSH1 0x20 CALLDATASIZE PUSH1 0x3 NOT ADD SLT PUSH2 0x191 JUMPI DUP2 PUSH1 0x20 SWAP4 PUSH1 0x1 SWAP3 CALLDATALOAD DUP2 MSTORE DUP1 DUP6 MSTORE KECCAK256 ADD SLOAD SWAP1 MLOAD SWAP1 DUP2 MSTORE RETURN JUMPDEST SWAP1 POP DUP3 CALLVALUE PUSH2 0x191 JUMPI DUP3 PUSH1 0x3 NOT CALLDATASIZE ADD SLT PUSH2 0x191 JUMPI PUSH2 0x713 PUSH2 0x97D JUMP JUMPDEST CALLER DUP4 MSTORE PUSH1 0x2 PUSH1 0x20 MSTORE DUP1 DUP4 KECCAK256 SLOAD SWAP2 DUP3 ISZERO PUSH2 0x7BA JUMPI CALLER DUP5 MSTORE PUSH1 0x2 PUSH1 0x20 MSTORE DUP4 DUP3 DUP2 KECCAK256 SSTORE DUP4 DUP1 DUP1 DUP1 DUP7 CALLER GAS CALL PUSH2 0x743 PUSH2 0x8BF JUMP JUMPDEST POP ISZERO PUSH2 0x789 JUMPI POP MLOAD SWAP1 DUP2 MSTORE PUSH32 0xFEAAE442E56D252EBDFE4A7C2E45916D2FF26EB4A805E357E1517D6AB59ED8D2 PUSH1 0x20 CALLER SWAP3 LOG2 PUSH1 0x1 PUSH1 0x0 DUP1 MLOAD PUSH1 0x20 PUSH2 0xAE5 DUP4 CODECOPY DUP2 MLOAD SWAP2 MSTORE SSTORE DUP1 RETURN JUMPDEST PUSH1 0x20 PUSH1 0x64 SWAP3 MLOAD SWAP2 PUSH3 0x461BCD PUSH1 0xE5 SHL DUP4 MSTORE DUP3 ADD MSTORE PUSH1 0xC PUSH1 0x24 DUP3 ADD MSTORE PUSH12 0x10DB185A5B4819985A5B1959 PUSH1 0xA2 SHL PUSH1 0x44 DUP3 ADD MSTORE REVERT JUMPDEST PUSH1 0x20 PUSH1 0x64 SWAP3 MLOAD SWAP2 PUSH3 0x461BCD PUSH1 0xE5 SHL DUP4 MSTORE DUP3 ADD MSTORE PUSH1 0x10 PUSH1 0x24 DUP3 ADD MSTORE PUSH16 0x4E6F2070656E64696E67207072697A65 PUSH1 0x80 SHL PUSH1 0x44 DUP3 ADD MSTORE REVERT JUMPDEST DUP3 DUP5 CALLVALUE PUSH2 0x12F JUMPI DUP2 PUSH1 0x3 NOT CALLDATASIZE ADD SLT PUSH2 0x12F JUMPI MLOAD SELFBALANCE DUP2 MSTORE PUSH1 0x20 SWAP1 RETURN JUMPDEST SWAP2 POP CALLVALUE PUSH2 0x191 JUMPI PUSH1 0x20 CALLDATASIZE PUSH1 0x3 NOT ADD SLT PUSH2 0x191 JUMPI CALLDATALOAD PUSH4 0xFFFFFFFF PUSH1 0xE0 SHL DUP2 AND DUP1 SWAP2 SUB PUSH2 0x191 JUMPI PUSH1 0x20 SWAP3 POP PUSH4 0x7965DB0B PUSH1 0xE0 SHL DUP2 EQ SWAP1 DUP2 ISZERO PUSH2 0x84C JUMPI JUMPDEST POP ISZERO ISZERO DUP2 MSTORE RETURN JUMPDEST PUSH4 0x1FFC9A7 PUSH1 0xE0 SHL EQ SWAP1 POP DUP4 PUSH2 0x845 JUMP JUMPDEST PUSH1 0x24 CALLDATALOAD SWAP1 PUSH1 0x1 PUSH1 0x1 PUSH1 0xA0 SHL SUB DUP3 AND DUP3 SUB PUSH2 0x873 JUMPI JUMP JUMPDEST PUSH1 0x0 DUP1 REVERT JUMPDEST PUSH1 0x4 CALLDATALOAD SWAP1 PUSH1 0x1 PUSH1 0x1 PUSH1 0xA0 SHL SUB DUP3 AND DUP3 SUB PUSH2 0x873 JUMPI JUMP JUMPDEST SWAP2 DUP2 PUSH1 0x1F DUP5 ADD SLT ISZERO PUSH2 0x873 JUMPI DUP3 CALLDATALOAD SWAP2 PUSH8 0xFFFFFFFFFFFFFFFF DUP4 GT PUSH2 0x873 JUMPI PUSH1 0x20 DUP1 DUP6 ADD SWAP5 DUP5 PUSH1 0x5 SHL ADD ADD GT PUSH2 0x873 JUMPI JUMP JUMPDEST RETURNDATASIZE ISZERO PUSH2 0x91B JUMPI PUSH8 0xFFFFFFFFFFFFFFFF SWAP1 RETURNDATASIZE DUP3 DUP2 GT PUSH2 0x905 JUMPI PUSH1 0x40 MLOAD SWAP3 PUSH1 0x1F DUP3 ADD PUSH1 0x1F NOT SWAP1 DUP2 AND PUSH1 0x3F ADD AND DUP5 ADD SWAP1 DUP2 GT DUP5 DUP3 LT OR PUSH2 0x905 JUMPI PUSH1 0x40 MSTORE DUP3 MSTORE RETURNDATASIZE PUSH1 0x0 PUSH1 0x20 DUP5 ADD RETURNDATACOPY JUMP JUMPDEST PUSH4 0x4E487B71 PUSH1 0xE0 SHL PUSH1 0x0 MSTORE PUSH1 0x41 PUSH1 0x4 MSTORE PUSH1 0x24 PUSH1 0x0 REVERT JUMPDEST PUSH1 0x60 SWAP1 JUMP JUMPDEST SWAP2 SWAP1 DUP2 LT ISZERO PUSH2 0x930 JUMPI PUSH1 0x5 SHL ADD SWAP1 JUMP JUMPDEST PUSH4 0x4E487B71 PUSH1 0xE0 SHL PUSH1 0x0 MSTORE PUSH1 0x32 PUSH1 0x4 MSTORE PUSH1 0x24 PUSH1 0x0 REVERT JUMPDEST SWAP2 SWAP1 DUP3 ADD DUP1 SWAP3 GT PUSH2 0x953 JUMPI JUMP JUMPDEST PUSH4 0x4E487B71 PUSH1 0xE0 SHL PUSH1 0x0 MSTORE PUSH1 0x11 PUSH1 0x4 MSTORE PUSH1 0x24 PUSH1 0x0 REVERT JUMPDEST CALLDATALOAD PUSH1 0x1 PUSH1 0x1 PUSH1 0xA0 SHL SUB DUP2 AND DUP2 SUB PUSH2 0x873 JUMPI SWAP1 JUMP JUMPDEST PUSH1 0x0 DUP1 MLOAD PUSH1 0x20 PUSH2 0xAE5 DUP4 CODECOPY DUP2 MLOAD SWAP2 MSTORE PUSH1 0x2 DUP2 SLOAD EQ PUSH2 0x99B JUMPI PUSH1 0x2 SWAP1 SSTORE JUMP JUMPDEST PUSH1 0x40 MLOAD PUSH4 0x3EE5AEB5 PUSH1 0xE0 SHL DUP2 MSTORE PUSH1 0x4 SWAP1 REVERT JUMPDEST DUP1 PUSH1 0x0 MSTORE PUSH1 0x0 PUSH1 0x20 MSTORE PUSH1 0x40 PUSH1 0x0 KECCAK256 CALLER PUSH1 0x0 MSTORE PUSH1 0x20 MSTORE PUSH1 0xFF PUSH1 0x40 PUSH1 0x0 KECCAK256 SLOAD AND ISZERO PUSH2 0x9D3 JUMPI POP JUMP JUMPDEST PUSH1 0x44 SWAP1 PUSH1 0x40 MLOAD SWAP1 PUSH4 0xE2517D3F PUSH1 0xE0 SHL DUP3 MSTORE CALLER PUSH1 0x4 DUP4 ADD MSTORE PUSH1 0x24 DUP3 ADD MSTORE REVERT JUMPDEST SWAP1 PUSH1 0x0 SWAP2 DUP1 DUP4 MSTORE DUP3 PUSH1 0x20 MSTORE PUSH1 0x40 DUP4 KECCAK256 SWAP2 PUSH1 0x1 DUP1 PUSH1 0xA0 SHL SUB AND SWAP2 DUP3 DUP5 MSTORE PUSH1 0x20 MSTORE PUSH1 0xFF PUSH1 0x40 DUP5 KECCAK256 SLOAD AND ISZERO PUSH1 0x0 EQ PUSH2 0xA6A JUMPI DUP1 DUP4 MSTORE DUP3 PUSH1 0x20 MSTORE PUSH1 0x40 DUP4 KECCAK256 DUP3 DUP5 MSTORE PUSH1 0x20 MSTORE PUSH1 0x40 DUP4 KECCAK256 PUSH1 0x1 PUSH1 0xFF NOT DUP3 SLOAD AND OR SWAP1 SSTORE PUSH32 0x2F8788117E7EFF1D82E926EC794901D17C78024A50270940304540A733656F0D CALLER SWAP4 DUP1 LOG4 PUSH1 0x1 SWAP1 JUMP JUMPDEST POP POP SWAP1 JUMP JUMPDEST SWAP1 PUSH1 0x0 SWAP2 DUP1 DUP4 MSTORE DUP3 PUSH1 0x20 MSTORE PUSH1 0x40 DUP4 KECCAK256 SWAP2 PUSH1 0x1 DUP1 PUSH1 0xA0 SHL SUB AND SWAP2 DUP3 DUP5 MSTORE PUSH1 0x20 MSTORE PUSH1 0xFF PUSH1 0x40 DUP5 KECCAK256 SLOAD AND PUSH1 0x0 EQ PUSH2 0xA6A JUMPI DUP1 DUP4 MSTORE DUP3 PUSH1 0x20 MSTORE PUSH1 0x40 DUP4 KECCAK256 DUP3 DUP5 MSTORE PUSH1 0x20 MSTORE PUSH1 0x40 DUP4 KECCAK256 PUSH1 0xFF NOT DUP2 SLOAD AND SWAP1 SSTORE PUSH32 0xF6391F5C32D9C69D2A47EA670B442974B53935D1EDC7FD64EB21E047A839171B CALLER SWAP4 DUP1 LOG4 PUSH1 0x1 SWAP1 JUMP INVALID SWAP12 PUSH24 0x9B17422D0DF92223018B32B4D1FA46E071723D6817E2486D STOP EXTCODESIZE 0xEC 0xC5 PUSH0 STOP LOG2 PUSH5 0x6970667358 0x22 SLT KECCAK256 0xC2 0xA6 PUSH23 0xAB361E7F5C6858C7F4D15FF6FA2009A60F9291507F5285 0x26 SWAP3 SWAP3 0x29 PUSH2 0x9664 PUSH20 0x6F6C634300081800330000000000000000000000 "},"methodIdentifiers":{"DEFAULT_ADMIN_ROLE()":"a217fddf","DISTRIBUTOR_ROLE()":"f0bd87cc","claimPendingPrize()":"1c801661","distributePrizes(address[],uint256[])":"406a378a","emergencyWithdraw(address)":"6ff1c9bc","getBalance()":"12065fe0","getRoleAdmin(bytes32)":"248a9ca3","grantRole(bytes32,address)":"2f2ff15d","hasRole(bytes32,address)":"91d14854","pendingPrizes(address)":"788f5352","renounceRole(bytes32,address)":"36568abe","revokeRole(bytes32,address)":"d547741f","supportsInterface(bytes4)":"01ffc9a7","totalDistributed()":"efca2eed"}}}}}