{"contracts/CheckIn.sol":{"CheckIn":{"abi":[{"inputs":[{"internalType":"address","name":"_points","type":"address"},{"internalType":"address","name":"_referral","type":"address"},{"internalType":"address","name":"_prizePool","type":"address"},{"internalType":"address","name":"_treasury","type":"address"},{"internalType":"address","name":"_burnReserve","type":"address"},{"internalType":"address","name":"_stakingRewards","type":"address"}],"stateMutability":"nonpayable","type":"constructor"},{"inputs":[{"internalType":"address","name":"owner","type":"address"}],"name":"OwnableInvalidOwner","type":"error"},{"inputs":[{"internalType":"address","name":"account","type":"address"}],"name":"OwnableUnauthorizedAccount","type":"error"},{"inputs":[],"name":"ReentrancyGuardReentrantCall","type":"error"},{"anonymous":false,"inputs":[{"indexed":true,"internalType":"address","name":"user","type":"address"},{"indexed":false,"internalType":"uint256","name":"amount","type":"uint256"},{"indexed":false,"internalType":"enum CheckIn.Tier","name":"tier","type":"uint8"},{"indexed":false,"internalType":"uint256","name":"points","type":"uint256"},{"indexed":false,"internalType":"uint256","name":"streak","type":"uint256"}],"name":"CheckedIn","type":"event"},{"anonymous":false,"inputs":[{"indexed":true,"internalType":"address","name":"previousOwner","type":"address"},{"indexed":true,"internalType":"address","name":"newOwner","type":"address"}],"name":"OwnershipTransferred","type":"event"},{"inputs":[],"name":"BASE_POINTS","outputs":[{"internalType":"uint256","name":"","type":"uint256"}],"stateMutability":"view","type":"function"},{"inputs":[],"name":"BASIC_THRESHOLD","outputs":[{"internalType":"uint256","name":"","type":"uint256"}],"stateMutability":"view","type":"function"},{"inputs":[],"name":"BURN_SHARE","outputs":[{"internalType":"uint256","name":"","type":"uint256"}],"stateMutability":"view","type":"function"},{"inputs":[],"name":"DAY","outputs":[{"internalType":"uint256","name":"","type":"uint256"}],"stateMutability":"view","type":"function"},{"inputs":[],"name":"PRIZE_SHARE","outputs":[{"internalType":"uint256","name":"","type":"uint256"}],"stateMutability":"view","type":"function"},{"inputs":[],"name":"PRO_THRESHOLD","outputs":[{"internalType":"uint256","name":"","type":"uint256"}],"stateMutability":"view","type":"function"},{"inputs":[],"name":"REFERRAL_SHARE","outputs":[{"internalType":"uint256","name":"","type":"uint256"}],"stateMutability":"view","type":"function"},{"inputs":[],"name":"STAKING_SHARE","outputs":[{"internalType":"uint256","name":"","type":"uint256"}],"stateMutability":"view","type":"function"},{"inputs":[],"name":"STREAK_CAP","outputs":[{"internalType":"uint256","name":"","type":"uint256"}],"stateMutability":"view","type":"function"},{"inputs":[],"name":"TREASURY_SHARE","outputs":[{"internalType":"uint256","name":"","type":"uint256"}],"stateMutability":"view","type":"function"},{"inputs":[],"name":"WHALE_THRESHOLD","outputs":[{"internalType":"uint256","name":"","type":"uint256"}],"stateMutability":"view","type":"function"},{"inputs":[],"name":"burnReserve","outputs":[{"internalType":"address","name":"","type":"address"}],"stateMutability":"view","type":"function"},{"inputs":[],"name":"checkIn","outputs":[],"stateMutability":"payable","type":"function"},{"inputs":[{"internalType":"address","name":"user","type":"address"}],"name":"getRecord","outputs":[{"components":[{"internalType":"uint256","name":"lastCheckIn","type":"uint256"},{"internalType":"uint256","name":"streak","type":"uint256"},{"internalType":"uint256","name":"totalCheckIns","type":"uint256"},{"internalType":"enum CheckIn.Tier","name":"lastTier","type":"uint8"}],"internalType":"struct CheckIn.CheckInRecord","name":"","type":"tuple"}],"stateMutability":"view","type":"function"},{"inputs":[],"name":"owner","outputs":[{"internalType":"address","name":"","type":"address"}],"stateMutability":"view","type":"function"},{"inputs":[],"name":"pointsContract","outputs":[{"internalType":"contract IPointsCheckIn","name":"","type":"address"}],"stateMutability":"view","type":"function"},{"inputs":[],"name":"prizePool","outputs":[{"internalType":"address","name":"","type":"address"}],"stateMutability":"view","type":"function"},{"inputs":[{"internalType":"address","name":"","type":"address"}],"name":"records","outputs":[{"internalType":"uint256","name":"lastCheckIn","type":"uint256"},{"internalType":"uint256","name":"streak","type":"uint256"},{"internalType":"uint256","name":"totalCheckIns","type":"uint256"},{"internalType":"enum CheckIn.Tier","name":"lastTier","type":"uint8"}],"stateMutability":"view","type":"function"},{"inputs":[],"name":"referralContract","outputs":[{"internalType":"contract IReferral","name":"","type":"address"}],"stateMutability":"view","type":"function"},{"inputs":[],"name":"renounceOwnership","outputs":[],"stateMutability":"nonpayable","type":"function"},{"inputs":[{"internalType":"address","name":"_prizePool","type":"address"},{"internalType":"address","name":"_treasury","type":"address"},{"internalType":"address","name":"_burnReserve","type":"address"},{"internalType":"address","name":"_stakingRewards","type":"address"}],"name":"setFeeReceivers","outputs":[],"stateMutability":"nonpayable","type":"function"},{"inputs":[{"internalType":"address","name":"_points","type":"address"}],"name":"setPointsContract","outputs":[],"stateMutability":"nonpayable","type":"function"},{"inputs":[{"internalType":"address","name":"_referral","type":"address"}],"name":"setReferralContract","outputs":[],"stateMutability":"nonpayable","type":"function"},{"inputs":[{"internalType":"address","name":"_staking","type":"address"}],"name":"setStakingContract","outputs":[],"stateMutability":"nonpayable","type":"function"},{"inputs":[],"name":"stakingContract","outputs":[{"internalType":"contract IStaking","name":"","type":"address"}],"stateMutability":"view","type":"function"},{"inputs":[],"name":"stakingRewards","outputs":[{"internalType":"address","name":"","type":"address"}],"stateMutability":"view","type":"function"},{"inputs":[],"name":"totalCheckIns","outputs":[{"internalType":"uint256","name":"","type":"uint256"}],"stateMutability":"view","type":"function"},{"inputs":[],"name":"totalFeesCollected","outputs":[{"internalType":"uint256","name":"","type":"uint256"}],"stateMutability":"view","type":"function"},{"inputs":[{"internalType":"address","name":"newOwner","type":"address"}],"name":"transferOwnership","outputs":[],"stateMutability":"nonpayable","type":"function"},{"inputs":[],"name":"treasury","outputs":[{"internalType":"address","name":"","type":"address"}],"stateMutability":"view","type":"function"}],"evm":{"bytecode":{"linkReferences":{},"object":"6080346200017657601f6200140538819003918201601f19168301916001600160401b038311848410176200017b5780849260c09460405283398101031262000176576200004d8162000191565b6200005b6020830162000191565b916200006a6040820162000191565b90620000796060820162000191565b916200009660a06200008e6080850162000191565b930162000191565b9133156200015d576000549560018060a01b03948580948180948160018060a01b03199b8d8d339116176000556040519d823391167f8be0079c531659141344cd1fd0a4f28419497f9722a3daafe3b4186f6b6457e0600080a360017f9b779b17422d0df92223018b32b4d1fa46e071723d6817e2486d003becc55f0055168b6001541617600155168960025416176002551687600454161760045516856005541617600555168360065416176006551690600754161760075561125e9081620001a78239f35b604051631e4fbdf760e01b815260006004820152602490fd5b600080fd5b634e487b7160e01b600052604160045260246000fd5b51906001600160a01b0382168203620001765756fe6080604052600436101561001257600080fd5b6000803560e01c806306ad5a4714611005578063183ff085146108795780631ba867941461085c57806327cfe8561461083e5780632b4f8a1f1461081557806332696174146107f85780633c8e556d14610687578063469e9067146106225780634b6b0ddb1461060557806358e5a7c9146105e357806360c6d8ae146105c5578063617fba04146104f957806361d027b3146104d057806364b87a70146104a75780636c3b68031461048b578063715018a614610431578063719ce73e146104085780637dad19db146103df578063826dc142146103bd5780638da5cb5b1461039657806393b998fb1461037957806395754abb146102ff5780639dd373b9146102bf578063a563eaa3146102a1578063b21b5a2114610284578063b5ab1c5d14610268578063bf16257a1461023f578063ee99205c14610216578063f2fde38b1461018b5763f47790d61461016757600080fd5b34610188578060031936011261018857602060405166b1a2bc2ec500008152f35b80fd5b5034610188576020366003190112610188576101a5611081565b6101ad611167565b6001600160a01b039081169081156101fd57600054826001600160601b0360a01b821617600055167f8be0079c531659141344cd1fd0a4f28419497f9722a3daafe3b4186f6b6457e0600080a380f35b604051631e4fbdf760e01b815260048101849052602490fd5b50346101885780600319360112610188576003546040516001600160a01b039091168152602090f35b50346101885780600319360112610188576006546040516001600160a01b039091168152602090f35b5034610188578060031936011261018857602060405160648152f35b503461018857806003193601126101885760206040516107d08152f35b50346101885780600319360112610188576020600954604051908152f35b5034610188576020366003190112610188576102d9611081565b6102e1611167565b60018060a01b03166001600160601b0360a01b600354161760035580f35b503461018857602036600319011261018857610319611081565b610321611167565b6001600160a01b03168015610346576001600160601b0360a01b600154161760015580f35b60405162461bcd60e51b815260206004820152600b60248201526a5a65726f20706f696e747360a81b6044820152606490fd5b503461018857806003193601126101885760206040516103e88152f35b5034610188578060031936011261018857546040516001600160a01b039091168152602090f35b503461018857806003193601126101885760206040516605543df729c0008152f35b50346101885780600319360112610188576002546040516001600160a01b039091168152602090f35b50346101885780600319360112610188576004546040516001600160a01b039091168152602090f35b503461018857806003193601126101885761044a611167565b600080546001600160a01b0319811682556001600160a01b03167f8be0079c531659141344cd1fd0a4f28419497f9722a3daafe3b4186f6b6457e08280a380f35b5034610188578060031936011261018857602060405160078152f35b50346101885780600319360112610188576007546040516001600160a01b039091168152602090f35b50346101885780600319360112610188576005546040516001600160a01b039091168152602090f35b503461018857602036600319011261018857610513611081565b8160606040516105228161111a565b828152826020820152826040820152015260018060a01b03168152600860205260408120604051906105538261111a565b8054825260018101546020830190815260ff600360028401549360408601948552015416606084019460038210156105b157509184916105af936080965260405194518552516020850152516040840152516060830190611097565bf35b634e487b7160e01b81526021600452602490fd5b50346101885780600319360112610188576020600a54604051908152f35b50346101885780600319360112610188576020604051662386f26fc100008152f35b503461018857806003193601126101885760206040516101f48152f35b5034610188576020366003190112610188576080906040906001600160a01b0361064a611081565b1681526008602052206105af81549160018101549060ff600360028301549201541691604051948552602085015260408401526060830190611097565b5034610188576080366003190112610188576106a1611081565b6024356001600160a01b03818116918290036107f357604435908082168092036107f357606435938185168095036107f3576106db611167565b169182156107c157801561078c57811561075b578315610727576001600160601b0360a01b92836004541617600455826005541617600555816006541617600655600754161760075580f35b60405162461bcd60e51b815260206004820152600c60248201526b5a65726f207374616b696e6760a01b6044820152606490fd5b60405162461bcd60e51b81526020600482015260096024820152682d32b93790313ab93760b91b6044820152606490fd5b60405162461bcd60e51b815260206004820152600d60248201526c5a65726f20747265617375727960981b6044820152606490fd5b60405162461bcd60e51b815260206004820152600a6024820152695a65726f207072697a6560b01b6044820152606490fd5b600080fd5b503461018857806003193601126101885760206040516105dc8152f35b50346101885780600319360112610188576001546040516001600160a01b039091168152602090f35b50346101885780600319360112610188576020604051620151808152f35b503461018857806003193601126101885760206040516113888152f35b50806003193601126101885760027f9b779b17422d0df92223018b32b4d1fa46e071723d6817e2486d003becc55f005414610ff35760027f9b779b17422d0df92223018b32b4d1fa46e071723d6817e2486d003becc55f00556605543df729c0003410610fbe5733815260086020526040812062015180804204908254049081811115610f7957600182819315159283610f65575b505050610f42575b61091f34611193565b91610929836111c0565b60078310610f275760325b81606402916064830403610e1c576064019081606411610e1c5760649161095a916110dd565b60035491900491906001600160a01b031680610e7a575b506003904281558360018201556002810161098c8154611158565b9055016003841015610e665760ff1981541660ff85161790556109b0600954611158565b600955600a54348101809111610e5257600a5560015484906001600160a01b0316803b15610e4e57819060646040518094819363011e8a6b60e51b83523360048401528760248401528860448401525af18015610e4357610e30575b5061138880340234159134820414821715610e1c57612710809104916105dc8034029034820414821715610e0857829004906107d0918234029234840414821715610df4576103e89182340292348404141715610df45788808080610a82888704610a7d8a8a048189818f346110ba565b6110ba565b6004549099906001600160a01b03165af1610a9b6111e8565b5015610db75760055489918291829182916001600160a01b03165af1610abf6111e8565b5015610d725760025488929083906001600160a01b031680151580610d67575b610c86575b5015610c16575b5081809381920460018060a01b03600654165af1610b076111e8565b5015610bda5760075485918291829182916001600160a01b03165af1610b2b6111e8565b5015610b9c57610b45604051933485526020850190611097565b604083015260608201527f547ad9bdcd235d0bb15c287a2358e52c18b9392b7a957e3b6b73260a51f37a3a60803392a260017f9b779b17422d0df92223018b32b4d1fa46e071723d6817e2486d003becc55f005580f35b60405162461bcd60e51b815260206004820152601660248201527514dd185ada5b99c81c995dd85c991cc819985a5b195960521b6044820152606490fd5b60405162461bcd60e51b8152602060048201526014602482015273109d5c9b881d1c985b9cd9995c8819985a5b195960621b6044820152606490fd5b918080858194950460018060a01b03600554165af1610c336111e8565b5015610c4157869038610aeb565b60405162461bcd60e51b815260206004820152601860248201527f526566657272616c2066616c6c6261636b206661696c656400000000000000006044820152606490fd5b604051630308a59b60e31b8152336004820152602081602481855afa869181610d26575b50610cb6575b50610ae4565b610cc1575b80610cb0565b803b15610d2257848060449260405193848092630a94beaf60e21b82523360048301528b890460248301528b8904905af19182610d0e575b5050610d06575b38610cbb565b506001610d00565b610d17906110f0565b610d22578438610cf9565b8480fd5b9091506020813d602011610d5f575b81610d4260209383611136565b81010312610d5b57518015158103610d5b579038610caa565b8680fd5b3d9150610d35565b508583041515610adf565b60405162461bcd60e51b815260206004820152601860248201527f5472656173757279207472616e73666572206661696c656400000000000000006044820152606490fd5b60405162461bcd60e51b8152602060048201526015602482015274141c9a5e99481d1c985b9cd9995c8819985a5b1959605a1b6044820152606490fd5b634e487b7160e01b89526011600452602489fd5b634e487b7160e01b88526011600452602488fd5b634e487b7160e01b86526011600452602486fd5b610e3c909491946110f0565b9238610a0c565b6040513d87823e3d90fd5b5080fd5b634e487b7160e01b85526011600452602485fd5b634e487b7160e01b85526021600452602485fd5b60206024916040519283809263647ded0560e01b82523360048301525afa908115610f1c578691610ee6575b50801561097157909161271091820190818311610ed25760039291610eca916110dd565b049190610971565b634e487b7160e01b87526011600452602487fd5b90506020813d602011610f14575b81610f0160209383611136565b81010312610f10575138610ea6565b8580fd5b3d9150610ef4565b6040513d88823e3d90fd5b6032830283810460321484151715610e1c5760079004610934565b808201549081018091111561091657634e487b7160e01b83526011600452602483fd5b610f709293506110ba565b1481388061090e565b60405162461bcd60e51b815260206004820152601860248201527f416c726561647920636865636b656420696e20746f64617900000000000000006044820152606490fd5b60405162461bcd60e51b815260206004820152600d60248201526c42656c6f77206d696e696d756d60981b6044820152606490fd5b604051633ee5aeb560e01b8152600490fd5b50346101885760203660031901126101885761101f611081565b611027611167565b6001600160a01b0316801561104c576001600160601b0360a01b600254161760025580f35b60405162461bcd60e51b815260206004820152600d60248201526c16995c9bc81c9959995c9c985b609a1b6044820152606490fd5b600435906001600160a01b03821682036107f357565b9060038210156110a45752565b634e487b7160e01b600052602160045260246000fd5b919082039182116110c757565b634e487b7160e01b600052601160045260246000fd5b818102929181159184041417156110c757565b67ffffffffffffffff811161110457604052565b634e487b7160e01b600052604160045260246000fd5b6080810190811067ffffffffffffffff82111761110457604052565b90601f8019910116810190811067ffffffffffffffff82111761110457604052565b60001981146110c75760010190565b6000546001600160a01b0316330361117b57565b60405163118cdaa760e01b8152336004820152602490fd5b66b1a2bc2ec500008110156111ba57662386f26fc1000011156111b557600090565b600190565b50600290565b60038110156110a457600281146111e2576001146111dd57600190565b600390565b50600a90565b3d15611223573d9067ffffffffffffffff82116111045760405191611217601f8201601f191660200184611136565b82523d6000602084013e565b60609056fea264697066735822122081df98916a52aa0ef474039e253be887509710be034a857855191b0c7ec9b8dc64736f6c63430008180033","opcodes":"PUSH1 0x80 CALLVALUE PUSH3 0x176 JUMPI PUSH1 0x1F PUSH3 0x1405 CODESIZE DUP2 SWAP1 SUB SWAP2 DUP3 ADD PUSH1 0x1F NOT AND DUP4 ADD SWAP2 PUSH1 0x1 PUSH1 0x1 PUSH1 0x40 SHL SUB DUP4 GT DUP5 DUP5 LT OR PUSH3 0x17B JUMPI DUP1 DUP5 SWAP3 PUSH1 0xC0 SWAP5 PUSH1 0x40 MSTORE DUP4 CODECOPY DUP2 ADD SUB SLT PUSH3 0x176 JUMPI PUSH3 0x4D DUP2 PUSH3 0x191 JUMP JUMPDEST PUSH3 0x5B PUSH1 0x20 DUP4 ADD PUSH3 0x191 JUMP JUMPDEST SWAP2 PUSH3 0x6A PUSH1 0x40 DUP3 ADD PUSH3 0x191 JUMP JUMPDEST SWAP1 PUSH3 0x79 PUSH1 0x60 DUP3 ADD PUSH3 0x191 JUMP JUMPDEST SWAP2 PUSH3 0x96 PUSH1 0xA0 PUSH3 0x8E PUSH1 0x80 DUP6 ADD PUSH3 0x191 JUMP JUMPDEST SWAP4 ADD PUSH3 0x191 JUMP JUMPDEST SWAP2 CALLER ISZERO PUSH3 0x15D JUMPI PUSH1 0x0 SLOAD SWAP6 PUSH1 0x1 DUP1 PUSH1 0xA0 SHL SUB SWAP5 DUP6 DUP1 SWAP5 DUP2 DUP1 SWAP5 DUP2 PUSH1 0x1 DUP1 PUSH1 0xA0 SHL SUB NOT SWAP12 DUP14 DUP14 CALLER SWAP2 AND OR PUSH1 0x0 SSTORE PUSH1 0x40 MLOAD SWAP14 DUP3 CALLER SWAP2 AND PUSH32 0x8BE0079C531659141344CD1FD0A4F28419497F9722A3DAAFE3B4186F6B6457E0 PUSH1 0x0 DUP1 LOG3 PUSH1 0x1 PUSH32 0x9B779B17422D0DF92223018B32B4D1FA46E071723D6817E2486D003BECC55F00 SSTORE AND DUP12 PUSH1 0x1 SLOAD AND OR PUSH1 0x1 SSTORE AND DUP10 PUSH1 0x2 SLOAD AND OR PUSH1 0x2 SSTORE AND DUP8 PUSH1 0x4 SLOAD AND OR PUSH1 0x4 SSTORE AND DUP6 PUSH1 0x5 SLOAD AND OR PUSH1 0x5 SSTORE AND DUP4 PUSH1 0x6 SLOAD AND OR PUSH1 0x6 SSTORE AND SWAP1 PUSH1 0x7 SLOAD AND OR PUSH1 0x7 SSTORE PUSH2 0x125E SWAP1 DUP2 PUSH3 0x1A7 DUP3 CODECOPY RETURN JUMPDEST PUSH1 0x40 MLOAD PUSH4 0x1E4FBDF7 PUSH1 0xE0 SHL DUP2 MSTORE PUSH1 0x0 PUSH1 0x4 DUP3 ADD MSTORE PUSH1 0x24 SWAP1 REVERT JUMPDEST PUSH1 0x0 DUP1 REVERT JUMPDEST PUSH4 0x4E487B71 PUSH1 0xE0 SHL PUSH1 0x0 MSTORE PUSH1 0x41 PUSH1 0x4 MSTORE PUSH1 0x24 PUSH1 0x0 REVERT JUMPDEST MLOAD SWAP1 PUSH1 0x1 PUSH1 0x1 PUSH1 0xA0 SHL SUB DUP3 AND DUP3 SUB PUSH3 0x176 JUMPI JUMP INVALID PUSH1 0x80 PUSH1 0x40 MSTORE PUSH1 0x4 CALLDATASIZE LT ISZERO PUSH2 0x12 JUMPI PUSH1 0x0 DUP1 REVERT JUMPDEST PUSH1 0x0 DUP1 CALLDATALOAD PUSH1 0xE0 SHR DUP1 PUSH4 0x6AD5A47 EQ PUSH2 0x1005 JUMPI DUP1 PUSH4 0x183FF085 EQ PUSH2 0x879 JUMPI DUP1 PUSH4 0x1BA86794 EQ PUSH2 0x85C JUMPI DUP1 PUSH4 0x27CFE856 EQ PUSH2 0x83E JUMPI DUP1 PUSH4 0x2B4F8A1F EQ PUSH2 0x815 JUMPI DUP1 PUSH4 0x32696174 EQ PUSH2 0x7F8 JUMPI DUP1 PUSH4 0x3C8E556D EQ PUSH2 0x687 JUMPI DUP1 PUSH4 0x469E9067 EQ PUSH2 0x622 JUMPI DUP1 PUSH4 0x4B6B0DDB EQ PUSH2 0x605 JUMPI DUP1 PUSH4 0x58E5A7C9 EQ PUSH2 0x5E3 JUMPI DUP1 PUSH4 0x60C6D8AE EQ PUSH2 0x5C5 JUMPI DUP1 PUSH4 0x617FBA04 EQ PUSH2 0x4F9 JUMPI DUP1 PUSH4 0x61D027B3 EQ PUSH2 0x4D0 JUMPI DUP1 PUSH4 0x64B87A70 EQ PUSH2 0x4A7 JUMPI DUP1 PUSH4 0x6C3B6803 EQ PUSH2 0x48B JUMPI DUP1 PUSH4 0x715018A6 EQ PUSH2 0x431 JUMPI DUP1 PUSH4 0x719CE73E EQ PUSH2 0x408 JUMPI DUP1 PUSH4 0x7DAD19DB EQ PUSH2 0x3DF JUMPI DUP1 PUSH4 0x826DC142 EQ PUSH2 0x3BD JUMPI DUP1 PUSH4 0x8DA5CB5B EQ PUSH2 0x396 JUMPI DUP1 PUSH4 0x93B998FB EQ PUSH2 0x379 JUMPI DUP1 PUSH4 0x95754ABB EQ PUSH2 0x2FF JUMPI DUP1 PUSH4 0x9DD373B9 EQ PUSH2 0x2BF JUMPI DUP1 PUSH4 0xA563EAA3 EQ PUSH2 0x2A1 JUMPI DUP1 PUSH4 0xB21B5A21 EQ PUSH2 0x284 JUMPI DUP1 PUSH4 0xB5AB1C5D EQ PUSH2 0x268 JUMPI DUP1 PUSH4 0xBF16257A EQ PUSH2 0x23F JUMPI DUP1 PUSH4 0xEE99205C EQ PUSH2 0x216 JUMPI DUP1 PUSH4 0xF2FDE38B EQ PUSH2 0x18B JUMPI PUSH4 0xF47790D6 EQ PUSH2 0x167 JUMPI PUSH1 0x0 DUP1 REVERT JUMPDEST CALLVALUE PUSH2 0x188 JUMPI DUP1 PUSH1 0x3 NOT CALLDATASIZE ADD SLT PUSH2 0x188 JUMPI PUSH1 0x20 PUSH1 0x40 MLOAD PUSH7 0xB1A2BC2EC50000 DUP2 MSTORE RETURN JUMPDEST DUP1 REVERT JUMPDEST POP CALLVALUE PUSH2 0x188 JUMPI PUSH1 0x20 CALLDATASIZE PUSH1 0x3 NOT ADD SLT PUSH2 0x188 JUMPI PUSH2 0x1A5 PUSH2 0x1081 JUMP JUMPDEST PUSH2 0x1AD PUSH2 0x1167 JUMP JUMPDEST PUSH1 0x1 PUSH1 0x1 PUSH1 0xA0 SHL SUB SWAP1 DUP2 AND SWAP1 DUP2 ISZERO PUSH2 0x1FD JUMPI PUSH1 0x0 SLOAD DUP3 PUSH1 0x1 PUSH1 0x1 PUSH1 0x60 SHL SUB PUSH1 0xA0 SHL DUP3 AND OR PUSH1 0x0 SSTORE AND PUSH32 0x8BE0079C531659141344CD1FD0A4F28419497F9722A3DAAFE3B4186F6B6457E0 PUSH1 0x0 DUP1 LOG3 DUP1 RETURN JUMPDEST PUSH1 0x40 MLOAD PUSH4 0x1E4FBDF7 PUSH1 0xE0 SHL DUP2 MSTORE PUSH1 0x4 DUP2 ADD DUP5 SWAP1 MSTORE PUSH1 0x24 SWAP1 REVERT JUMPDEST POP CALLVALUE PUSH2 0x188 JUMPI DUP1 PUSH1 0x3 NOT CALLDATASIZE ADD SLT PUSH2 0x188 JUMPI PUSH1 0x3 SLOAD PUSH1 0x40 MLOAD PUSH1 0x1 PUSH1 0x1 PUSH1 0xA0 SHL SUB SWAP1 SWAP2 AND DUP2 MSTORE PUSH1 0x20 SWAP1 RETURN JUMPDEST POP CALLVALUE PUSH2 0x188 JUMPI DUP1 PUSH1 0x3 NOT CALLDATASIZE ADD SLT PUSH2 0x188 JUMPI PUSH1 0x6 SLOAD PUSH1 0x40 MLOAD PUSH1 0x1 PUSH1 0x1 PUSH1 0xA0 SHL SUB SWAP1 SWAP2 AND DUP2 MSTORE PUSH1 0x20 SWAP1 RETURN JUMPDEST POP CALLVALUE PUSH2 0x188 JUMPI DUP1 PUSH1 0x3 NOT CALLDATASIZE ADD SLT PUSH2 0x188 JUMPI PUSH1 0x20 PUSH1 0x40 MLOAD PUSH1 0x64 DUP2 MSTORE RETURN JUMPDEST POP CALLVALUE PUSH2 0x188 JUMPI DUP1 PUSH1 0x3 NOT CALLDATASIZE ADD SLT PUSH2 0x188 JUMPI PUSH1 0x20 PUSH1 0x40 MLOAD PUSH2 0x7D0 DUP2 MSTORE RETURN JUMPDEST POP CALLVALUE PUSH2 0x188 JUMPI DUP1 PUSH1 0x3 NOT CALLDATASIZE ADD SLT PUSH2 0x188 JUMPI PUSH1 0x20 PUSH1 0x9 SLOAD PUSH1 0x40 MLOAD SWAP1 DUP2 MSTORE RETURN JUMPDEST POP CALLVALUE PUSH2 0x188 JUMPI PUSH1 0x20 CALLDATASIZE PUSH1 0x3 NOT ADD SLT PUSH2 0x188 JUMPI PUSH2 0x2D9 PUSH2 0x1081 JUMP JUMPDEST PUSH2 0x2E1 PUSH2 0x1167 JUMP JUMPDEST PUSH1 0x1 DUP1 PUSH1 0xA0 SHL SUB AND PUSH1 0x1 PUSH1 0x1 PUSH1 0x60 SHL SUB PUSH1 0xA0 SHL PUSH1 0x3 SLOAD AND OR PUSH1 0x3 SSTORE DUP1 RETURN JUMPDEST POP CALLVALUE PUSH2 0x188 JUMPI PUSH1 0x20 CALLDATASIZE PUSH1 0x3 NOT ADD SLT PUSH2 0x188 JUMPI PUSH2 0x319 PUSH2 0x1081 JUMP JUMPDEST PUSH2 0x321 PUSH2 0x1167 JUMP JUMPDEST PUSH1 0x1 PUSH1 0x1 PUSH1 0xA0 SHL SUB AND DUP1 ISZERO PUSH2 0x346 JUMPI PUSH1 0x1 PUSH1 0x1 PUSH1 0x60 SHL SUB PUSH1 0xA0 SHL PUSH1 0x1 SLOAD AND OR PUSH1 0x1 SSTORE DUP1 RETURN JUMPDEST PUSH1 0x40 MLOAD PUSH3 0x461BCD PUSH1 0xE5 SHL DUP2 MSTORE PUSH1 0x20 PUSH1 0x4 DUP3 ADD MSTORE PUSH1 0xB PUSH1 0x24 DUP3 ADD MSTORE PUSH11 0x5A65726F20706F696E7473 PUSH1 0xA8 SHL PUSH1 0x44 DUP3 ADD MSTORE PUSH1 0x64 SWAP1 REVERT JUMPDEST POP CALLVALUE PUSH2 0x188 JUMPI DUP1 PUSH1 0x3 NOT CALLDATASIZE ADD SLT PUSH2 0x188 JUMPI PUSH1 0x20 PUSH1 0x40 MLOAD PUSH2 0x3E8 DUP2 MSTORE RETURN JUMPDEST POP CALLVALUE PUSH2 0x188 JUMPI DUP1 PUSH1 0x3 NOT CALLDATASIZE ADD SLT PUSH2 0x188 JUMPI SLOAD PUSH1 0x40 MLOAD PUSH1 0x1 PUSH1 0x1 PUSH1 0xA0 SHL SUB SWAP1 SWAP2 AND DUP2 MSTORE PUSH1 0x20 SWAP1 RETURN JUMPDEST POP CALLVALUE PUSH2 0x188 JUMPI DUP1 PUSH1 0x3 NOT CALLDATASIZE ADD SLT PUSH2 0x188 JUMPI PUSH1 0x20 PUSH1 0x40 MLOAD PUSH7 0x5543DF729C000 DUP2 MSTORE RETURN JUMPDEST POP CALLVALUE PUSH2 0x188 JUMPI DUP1 PUSH1 0x3 NOT CALLDATASIZE ADD SLT PUSH2 0x188 JUMPI PUSH1 0x2 SLOAD PUSH1 0x40 MLOAD PUSH1 0x1 PUSH1 0x1 PUSH1 0xA0 SHL SUB SWAP1 SWAP2 AND DUP2 MSTORE PUSH1 0x20 SWAP1 RETURN JUMPDEST POP CALLVALUE PUSH2 0x188 JUMPI DUP1 PUSH1 0x3 NOT CALLDATASIZE ADD SLT PUSH2 0x188 JUMPI PUSH1 0x4 SLOAD PUSH1 0x40 MLOAD PUSH1 0x1 PUSH1 0x1 PUSH1 0xA0 SHL SUB SWAP1 SWAP2 AND DUP2 MSTORE PUSH1 0x20 SWAP1 RETURN JUMPDEST POP CALLVALUE PUSH2 0x188 JUMPI DUP1 PUSH1 0x3 NOT CALLDATASIZE ADD SLT PUSH2 0x188 JUMPI PUSH2 0x44A PUSH2 0x1167 JUMP JUMPDEST PUSH1 0x0 DUP1 SLOAD PUSH1 0x1 PUSH1 0x1 PUSH1 0xA0 SHL SUB NOT DUP2 AND DUP3 SSTORE PUSH1 0x1 PUSH1 0x1 PUSH1 0xA0 SHL SUB AND PUSH32 0x8BE0079C531659141344CD1FD0A4F28419497F9722A3DAAFE3B4186F6B6457E0 DUP3 DUP1 LOG3 DUP1 RETURN JUMPDEST POP CALLVALUE PUSH2 0x188 JUMPI DUP1 PUSH1 0x3 NOT CALLDATASIZE ADD SLT PUSH2 0x188 JUMPI PUSH1 0x20 PUSH1 0x40 MLOAD PUSH1 0x7 DUP2 MSTORE RETURN JUMPDEST POP CALLVALUE PUSH2 0x188 JUMPI DUP1 PUSH1 0x3 NOT CALLDATASIZE ADD SLT PUSH2 0x188 JUMPI PUSH1 0x7 SLOAD PUSH1 0x40 MLOAD PUSH1 0x1 PUSH1 0x1 PUSH1 0xA0 SHL SUB SWAP1 SWAP2 AND DUP2 MSTORE PUSH1 0x20 SWAP1 RETURN JUMPDEST POP CALLVALUE PUSH2 0x188 JUMPI DUP1 PUSH1 0x3 NOT CALLDATASIZE ADD SLT PUSH2 0x188 JUMPI PUSH1 0x5 SLOAD PUSH1 0x40 MLOAD PUSH1 0x1 PUSH1 0x1 PUSH1 0xA0 SHL SUB SWAP1 SWAP2 AND DUP2 MSTORE PUSH1 0x20 SWAP1 RETURN JUMPDEST POP CALLVALUE PUSH2 0x188 JUMPI PUSH1 0x20 CALLDATASIZE PUSH1 0x3 NOT ADD SLT PUSH2 0x188 JUMPI PUSH2 0x513 PUSH2 0x1081 JUMP JUMPDEST DUP2 PUSH1 0x60 PUSH1 0x40 MLOAD PUSH2 0x522 DUP2 PUSH2 0x111A JUMP JUMPDEST DUP3 DUP2 MSTORE DUP3 PUSH1 0x20 DUP3 ADD MSTORE DUP3 PUSH1 0x40 DUP3 ADD MSTORE ADD MSTORE PUSH1 0x1 DUP1 PUSH1 0xA0 SHL SUB AND DUP2 MSTORE PUSH1 0x8 PUSH1 0x20 MSTORE PUSH1 0x40 DUP2 KECCAK256 PUSH1 0x40 MLOAD SWAP1 PUSH2 0x553 DUP3 PUSH2 0x111A JUMP JUMPDEST DUP1 SLOAD DUP3 MSTORE PUSH1 0x1 DUP2 ADD SLOAD PUSH1 0x20 DUP4 ADD SWAP1 DUP2 MSTORE PUSH1 0xFF PUSH1 0x3 PUSH1 0x2 DUP5 ADD SLOAD SWAP4 PUSH1 0x40 DUP7 ADD SWAP5 DUP6 MSTORE ADD SLOAD AND PUSH1 0x60 DUP5 ADD SWAP5 PUSH1 0x3 DUP3 LT ISZERO PUSH2 0x5B1 JUMPI POP SWAP2 DUP5 SWAP2 PUSH2 0x5AF SWAP4 PUSH1 0x80 SWAP7 MSTORE PUSH1 0x40 MLOAD SWAP5 MLOAD DUP6 MSTORE MLOAD PUSH1 0x20 DUP6 ADD MSTORE MLOAD PUSH1 0x40 DUP5 ADD MSTORE MLOAD PUSH1 0x60 DUP4 ADD SWAP1 PUSH2 0x1097 JUMP JUMPDEST RETURN JUMPDEST PUSH4 0x4E487B71 PUSH1 0xE0 SHL DUP2 MSTORE PUSH1 0x21 PUSH1 0x4 MSTORE PUSH1 0x24 SWAP1 REVERT JUMPDEST POP CALLVALUE PUSH2 0x188 JUMPI DUP1 PUSH1 0x3 NOT CALLDATASIZE ADD SLT PUSH2 0x188 JUMPI PUSH1 0x20 PUSH1 0xA SLOAD PUSH1 0x40 MLOAD SWAP1 DUP2 MSTORE RETURN JUMPDEST POP CALLVALUE PUSH2 0x188 JUMPI DUP1 PUSH1 0x3 NOT CALLDATASIZE ADD SLT PUSH2 0x188 JUMPI PUSH1 0x20 PUSH1 0x40 MLOAD PUSH7 0x2386F26FC10000 DUP2 MSTORE RETURN JUMPDEST POP CALLVALUE PUSH2 0x188 JUMPI DUP1 PUSH1 0x3 NOT CALLDATASIZE ADD SLT PUSH2 0x188 JUMPI PUSH1 0x20 PUSH1 0x40 MLOAD PUSH2 0x1F4 DUP2 MSTORE RETURN JUMPDEST POP CALLVALUE PUSH2 0x188 JUMPI PUSH1 0x20 CALLDATASIZE PUSH1 0x3 NOT ADD SLT PUSH2 0x188 JUMPI PUSH1 0x80 SWAP1 PUSH1 0x40 SWAP1 PUSH1 0x1 PUSH1 0x1 PUSH1 0xA0 SHL SUB PUSH2 0x64A PUSH2 0x1081 JUMP JUMPDEST AND DUP2 MSTORE PUSH1 0x8 PUSH1 0x20 MSTORE KECCAK256 PUSH2 0x5AF DUP2 SLOAD SWAP2 PUSH1 0x1 DUP2 ADD SLOAD SWAP1 PUSH1 0xFF PUSH1 0x3 PUSH1 0x2 DUP4 ADD SLOAD SWAP3 ADD SLOAD AND SWAP2 PUSH1 0x40 MLOAD SWAP5 DUP6 MSTORE PUSH1 0x20 DUP6 ADD MSTORE PUSH1 0x40 DUP5 ADD MSTORE PUSH1 0x60 DUP4 ADD SWAP1 PUSH2 0x1097 JUMP JUMPDEST POP CALLVALUE PUSH2 0x188 JUMPI PUSH1 0x80 CALLDATASIZE PUSH1 0x3 NOT ADD SLT PUSH2 0x188 JUMPI PUSH2 0x6A1 PUSH2 0x1081 JUMP JUMPDEST PUSH1 0x24 CALLDATALOAD PUSH1 0x1 PUSH1 0x1 PUSH1 0xA0 SHL SUB DUP2 DUP2 AND SWAP2 DUP3 SWAP1 SUB PUSH2 0x7F3 JUMPI PUSH1 0x44 CALLDATALOAD SWAP1 DUP1 DUP3 AND DUP1 SWAP3 SUB PUSH2 0x7F3 JUMPI PUSH1 0x64 CALLDATALOAD SWAP4 DUP2 DUP6 AND DUP1 SWAP6 SUB PUSH2 0x7F3 JUMPI PUSH2 0x6DB PUSH2 0x1167 JUMP JUMPDEST AND SWAP2 DUP3 ISZERO PUSH2 0x7C1 JUMPI DUP1 ISZERO PUSH2 0x78C JUMPI DUP2 ISZERO PUSH2 0x75B JUMPI DUP4 ISZERO PUSH2 0x727 JUMPI PUSH1 0x1 PUSH1 0x1 PUSH1 0x60 SHL SUB PUSH1 0xA0 SHL SWAP3 DUP4 PUSH1 0x4 SLOAD AND OR PUSH1 0x4 SSTORE DUP3 PUSH1 0x5 SLOAD AND OR PUSH1 0x5 SSTORE DUP2 PUSH1 0x6 SLOAD AND OR PUSH1 0x6 SSTORE PUSH1 0x7 SLOAD AND OR PUSH1 0x7 SSTORE DUP1 RETURN JUMPDEST PUSH1 0x40 MLOAD PUSH3 0x461BCD PUSH1 0xE5 SHL DUP2 MSTORE PUSH1 0x20 PUSH1 0x4 DUP3 ADD MSTORE PUSH1 0xC PUSH1 0x24 DUP3 ADD MSTORE PUSH12 0x5A65726F207374616B696E67 PUSH1 0xA0 SHL PUSH1 0x44 DUP3 ADD MSTORE PUSH1 0x64 SWAP1 REVERT JUMPDEST PUSH1 0x40 MLOAD PUSH3 0x461BCD PUSH1 0xE5 SHL DUP2 MSTORE PUSH1 0x20 PUSH1 0x4 DUP3 ADD MSTORE PUSH1 0x9 PUSH1 0x24 DUP3 ADD MSTORE PUSH9 0x2D32B93790313AB937 PUSH1 0xB9 SHL PUSH1 0x44 DUP3 ADD MSTORE PUSH1 0x64 SWAP1 REVERT JUMPDEST PUSH1 0x40 MLOAD PUSH3 0x461BCD PUSH1 0xE5 SHL DUP2 MSTORE PUSH1 0x20 PUSH1 0x4 DUP3 ADD MSTORE PUSH1 0xD PUSH1 0x24 DUP3 ADD MSTORE PUSH13 0x5A65726F207472656173757279 PUSH1 0x98 SHL PUSH1 0x44 DUP3 ADD MSTORE PUSH1 0x64 SWAP1 REVERT JUMPDEST PUSH1 0x40 MLOAD PUSH3 0x461BCD PUSH1 0xE5 SHL DUP2 MSTORE PUSH1 0x20 PUSH1 0x4 DUP3 ADD MSTORE PUSH1 0xA PUSH1 0x24 DUP3 ADD MSTORE PUSH10 0x5A65726F207072697A65 PUSH1 0xB0 SHL PUSH1 0x44 DUP3 ADD MSTORE PUSH1 0x64 SWAP1 REVERT JUMPDEST PUSH1 0x0 DUP1 REVERT JUMPDEST POP CALLVALUE PUSH2 0x188 JUMPI DUP1 PUSH1 0x3 NOT CALLDATASIZE ADD SLT PUSH2 0x188 JUMPI PUSH1 0x20 PUSH1 0x40 MLOAD PUSH2 0x5DC DUP2 MSTORE RETURN JUMPDEST POP CALLVALUE PUSH2 0x188 JUMPI DUP1 PUSH1 0x3 NOT CALLDATASIZE ADD SLT PUSH2 0x188 JUMPI PUSH1 0x1 SLOAD PUSH1 0x40 MLOAD PUSH1 0x1 PUSH1 0x1 PUSH1 0xA0 SHL SUB SWAP1 SWAP2 AND DUP2 MSTORE PUSH1 0x20 SWAP1 RETURN JUMPDEST POP CALLVALUE PUSH2 0x188 JUMPI DUP1 PUSH1 0x3 NOT CALLDATASIZE ADD SLT PUSH2 0x188 JUMPI PUSH1 0x20 PUSH1 0x40 MLOAD PUSH3 0x15180 DUP2 MSTORE RETURN JUMPDEST POP CALLVALUE PUSH2 0x188 JUMPI DUP1 PUSH1 0x3 NOT CALLDATASIZE ADD SLT PUSH2 0x188 JUMPI PUSH1 0x20 PUSH1 0x40 MLOAD PUSH2 0x1388 DUP2 MSTORE RETURN JUMPDEST POP DUP1 PUSH1 0x3 NOT CALLDATASIZE ADD SLT PUSH2 0x188 JUMPI PUSH1 0x2 PUSH32 0x9B779B17422D0DF92223018B32B4D1FA46E071723D6817E2486D003BECC55F00 SLOAD EQ PUSH2 0xFF3 JUMPI PUSH1 0x2 PUSH32 0x9B779B17422D0DF92223018B32B4D1FA46E071723D6817E2486D003BECC55F00 SSTORE PUSH7 0x5543DF729C000 CALLVALUE LT PUSH2 0xFBE JUMPI CALLER DUP2 MSTORE PUSH1 0x8 PUSH1 0x20 MSTORE PUSH1 0x40 DUP2 KECCAK256 PUSH3 0x15180 DUP1 TIMESTAMP DIV SWAP1 DUP3 SLOAD DIV SWAP1 DUP2 DUP2 GT ISZERO PUSH2 0xF79 JUMPI PUSH1 0x1 DUP3 DUP2 SWAP4 ISZERO ISZERO SWAP3 DUP4 PUSH2 0xF65 JUMPI JUMPDEST POP POP POP PUSH2 0xF42 JUMPI JUMPDEST PUSH2 0x91F CALLVALUE PUSH2 0x1193 JUMP JUMPDEST SWAP2 PUSH2 0x929 DUP4 PUSH2 0x11C0 JUMP JUMPDEST PUSH1 0x7 DUP4 LT PUSH2 0xF27 JUMPI PUSH1 0x32 JUMPDEST DUP2 PUSH1 0x64 MUL SWAP2 PUSH1 0x64 DUP4 DIV SUB PUSH2 0xE1C JUMPI PUSH1 0x64 ADD SWAP1 DUP2 PUSH1 0x64 GT PUSH2 0xE1C JUMPI PUSH1 0x64 SWAP2 PUSH2 0x95A SWAP2 PUSH2 0x10DD JUMP JUMPDEST PUSH1 0x3 SLOAD SWAP2 SWAP1 DIV SWAP2 SWAP1 PUSH1 0x1 PUSH1 0x1 PUSH1 0xA0 SHL SUB AND DUP1 PUSH2 0xE7A JUMPI JUMPDEST POP PUSH1 0x3 SWAP1 TIMESTAMP DUP2 SSTORE DUP4 PUSH1 0x1 DUP3 ADD SSTORE PUSH1 0x2 DUP2 ADD PUSH2 0x98C DUP2 SLOAD PUSH2 0x1158 JUMP JUMPDEST SWAP1 SSTORE ADD PUSH1 0x3 DUP5 LT ISZERO PUSH2 0xE66 JUMPI PUSH1 0xFF NOT DUP2 SLOAD AND PUSH1 0xFF DUP6 AND OR SWAP1 SSTORE PUSH2 0x9B0 PUSH1 0x9 SLOAD PUSH2 0x1158 JUMP JUMPDEST PUSH1 0x9 SSTORE PUSH1 0xA SLOAD CALLVALUE DUP2 ADD DUP1 SWAP2 GT PUSH2 0xE52 JUMPI PUSH1 0xA SSTORE PUSH1 0x1 SLOAD DUP5 SWAP1 PUSH1 0x1 PUSH1 0x1 PUSH1 0xA0 SHL SUB AND DUP1 EXTCODESIZE ISZERO PUSH2 0xE4E JUMPI DUP2 SWAP1 PUSH1 0x64 PUSH1 0x40 MLOAD DUP1 SWAP5 DUP2 SWAP4 PUSH4 0x11E8A6B PUSH1 0xE5 SHL DUP4 MSTORE CALLER PUSH1 0x4 DUP5 ADD MSTORE DUP8 PUSH1 0x24 DUP5 ADD MSTORE DUP9 PUSH1 0x44 DUP5 ADD MSTORE GAS CALL DUP1 ISZERO PUSH2 0xE43 JUMPI PUSH2 0xE30 JUMPI JUMPDEST POP PUSH2 0x1388 DUP1 CALLVALUE MUL CALLVALUE ISZERO SWAP2 CALLVALUE DUP3 DIV EQ DUP3 OR ISZERO PUSH2 0xE1C JUMPI PUSH2 0x2710 DUP1 SWAP2 DIV SWAP2 PUSH2 0x5DC DUP1 CALLVALUE MUL SWAP1 CALLVALUE DUP3 DIV EQ DUP3 OR ISZERO PUSH2 0xE08 JUMPI DUP3 SWAP1 DIV SWAP1 PUSH2 0x7D0 SWAP2 DUP3 CALLVALUE MUL SWAP3 CALLVALUE DUP5 DIV EQ DUP3 OR ISZERO PUSH2 0xDF4 JUMPI PUSH2 0x3E8 SWAP2 DUP3 CALLVALUE MUL SWAP3 CALLVALUE DUP5 DIV EQ OR ISZERO PUSH2 0xDF4 JUMPI DUP9 DUP1 DUP1 DUP1 PUSH2 0xA82 DUP9 DUP8 DIV PUSH2 0xA7D DUP11 DUP11 DIV DUP2 DUP10 DUP2 DUP16 CALLVALUE PUSH2 0x10BA JUMP JUMPDEST PUSH2 0x10BA JUMP JUMPDEST PUSH1 0x4 SLOAD SWAP1 SWAP10 SWAP1 PUSH1 0x1 PUSH1 0x1 PUSH1 0xA0 SHL SUB AND GAS CALL PUSH2 0xA9B PUSH2 0x11E8 JUMP JUMPDEST POP ISZERO PUSH2 0xDB7 JUMPI PUSH1 0x5 SLOAD DUP10 SWAP2 DUP3 SWAP2 DUP3 SWAP2 DUP3 SWAP2 PUSH1 0x1 PUSH1 0x1 PUSH1 0xA0 SHL SUB AND GAS CALL PUSH2 0xABF PUSH2 0x11E8 JUMP JUMPDEST POP ISZERO PUSH2 0xD72 JUMPI PUSH1 0x2 SLOAD DUP9 SWAP3 SWAP1 DUP4 SWAP1 PUSH1 0x1 PUSH1 0x1 PUSH1 0xA0 SHL SUB AND DUP1 ISZERO ISZERO DUP1 PUSH2 0xD67 JUMPI JUMPDEST PUSH2 0xC86 JUMPI JUMPDEST POP ISZERO PUSH2 0xC16 JUMPI JUMPDEST POP DUP2 DUP1 SWAP4 DUP2 SWAP3 DIV PUSH1 0x1 DUP1 PUSH1 0xA0 SHL SUB PUSH1 0x6 SLOAD AND GAS CALL PUSH2 0xB07 PUSH2 0x11E8 JUMP JUMPDEST POP ISZERO PUSH2 0xBDA JUMPI PUSH1 0x7 SLOAD DUP6 SWAP2 DUP3 SWAP2 DUP3 SWAP2 DUP3 SWAP2 PUSH1 0x1 PUSH1 0x1 PUSH1 0xA0 SHL SUB AND GAS CALL PUSH2 0xB2B PUSH2 0x11E8 JUMP JUMPDEST POP ISZERO PUSH2 0xB9C JUMPI PUSH2 0xB45 PUSH1 0x40 MLOAD SWAP4 CALLVALUE DUP6 MSTORE PUSH1 0x20 DUP6 ADD SWAP1 PUSH2 0x1097 JUMP JUMPDEST PUSH1 0x40 DUP4 ADD MSTORE PUSH1 0x60 DUP3 ADD MSTORE PUSH32 0x547AD9BDCD235D0BB15C287A2358E52C18B9392B7A957E3B6B73260A51F37A3A PUSH1 0x80 CALLER SWAP3 LOG2 PUSH1 0x1 PUSH32 0x9B779B17422D0DF92223018B32B4D1FA46E071723D6817E2486D003BECC55F00 SSTORE DUP1 RETURN JUMPDEST PUSH1 0x40 MLOAD PUSH3 0x461BCD PUSH1 0xE5 SHL DUP2 MSTORE PUSH1 0x20 PUSH1 0x4 DUP3 ADD MSTORE PUSH1 0x16 PUSH1 0x24 DUP3 ADD MSTORE PUSH22 0x14DD185ADA5B99C81C995DD85C991CC819985A5B1959 PUSH1 0x52 SHL PUSH1 0x44 DUP3 ADD MSTORE PUSH1 0x64 SWAP1 REVERT JUMPDEST PUSH1 0x40 MLOAD PUSH3 0x461BCD PUSH1 0xE5 SHL DUP2 MSTORE PUSH1 0x20 PUSH1 0x4 DUP3 ADD MSTORE PUSH1 0x14 PUSH1 0x24 DUP3 ADD MSTORE PUSH20 0x109D5C9B881D1C985B9CD9995C8819985A5B1959 PUSH1 0x62 SHL PUSH1 0x44 DUP3 ADD MSTORE PUSH1 0x64 SWAP1 REVERT JUMPDEST SWAP2 DUP1 DUP1 DUP6 DUP2 SWAP5 SWAP6 DIV PUSH1 0x1 DUP1 PUSH1 0xA0 SHL SUB PUSH1 0x5 SLOAD AND GAS CALL PUSH2 0xC33 PUSH2 0x11E8 JUMP JUMPDEST POP ISZERO PUSH2 0xC41 JUMPI DUP7 SWAP1 CODESIZE PUSH2 0xAEB JUMP JUMPDEST PUSH1 0x40 MLOAD PUSH3 0x461BCD PUSH1 0xE5 SHL DUP2 MSTORE PUSH1 0x20 PUSH1 0x4 DUP3 ADD MSTORE PUSH1 0x18 PUSH1 0x24 DUP3 ADD MSTORE PUSH32 0x526566657272616C2066616C6C6261636B206661696C65640000000000000000 PUSH1 0x44 DUP3 ADD MSTORE PUSH1 0x64 SWAP1 REVERT JUMPDEST PUSH1 0x40 MLOAD PUSH4 0x308A59B PUSH1 0xE3 SHL DUP2 MSTORE CALLER PUSH1 0x4 DUP3 ADD MSTORE PUSH1 0x20 DUP2 PUSH1 0x24 DUP2 DUP6 GAS STATICCALL DUP7 SWAP2 DUP2 PUSH2 0xD26 JUMPI JUMPDEST POP PUSH2 0xCB6 JUMPI JUMPDEST POP PUSH2 0xAE4 JUMP JUMPDEST PUSH2 0xCC1 JUMPI JUMPDEST DUP1 PUSH2 0xCB0 JUMP JUMPDEST DUP1 EXTCODESIZE ISZERO PUSH2 0xD22 JUMPI DUP5 DUP1 PUSH1 0x44 SWAP3 PUSH1 0x40 MLOAD SWAP4 DUP5 DUP1 SWAP3 PUSH4 0xA94BEAF PUSH1 0xE2 SHL DUP3 MSTORE CALLER PUSH1 0x4 DUP4 ADD MSTORE DUP12 DUP10 DIV PUSH1 0x24 DUP4 ADD MSTORE DUP12 DUP10 DIV SWAP1 GAS CALL SWAP2 DUP3 PUSH2 0xD0E JUMPI JUMPDEST POP POP PUSH2 0xD06 JUMPI JUMPDEST CODESIZE PUSH2 0xCBB JUMP JUMPDEST POP PUSH1 0x1 PUSH2 0xD00 JUMP JUMPDEST PUSH2 0xD17 SWAP1 PUSH2 0x10F0 JUMP JUMPDEST PUSH2 0xD22 JUMPI DUP5 CODESIZE PUSH2 0xCF9 JUMP JUMPDEST DUP5 DUP1 REVERT JUMPDEST SWAP1 SWAP2 POP PUSH1 0x20 DUP2 RETURNDATASIZE PUSH1 0x20 GT PUSH2 0xD5F JUMPI JUMPDEST DUP2 PUSH2 0xD42 PUSH1 0x20 SWAP4 DUP4 PUSH2 0x1136 JUMP JUMPDEST DUP2 ADD SUB SLT PUSH2 0xD5B JUMPI MLOAD DUP1 ISZERO ISZERO DUP2 SUB PUSH2 0xD5B JUMPI SWAP1 CODESIZE PUSH2 0xCAA JUMP JUMPDEST DUP7 DUP1 REVERT JUMPDEST RETURNDATASIZE SWAP2 POP PUSH2 0xD35 JUMP JUMPDEST POP DUP6 DUP4 DIV ISZERO ISZERO PUSH2 0xADF JUMP JUMPDEST PUSH1 0x40 MLOAD PUSH3 0x461BCD PUSH1 0xE5 SHL DUP2 MSTORE PUSH1 0x20 PUSH1 0x4 DUP3 ADD MSTORE PUSH1 0x18 PUSH1 0x24 DUP3 ADD MSTORE PUSH32 0x5472656173757279207472616E73666572206661696C65640000000000000000 PUSH1 0x44 DUP3 ADD MSTORE PUSH1 0x64 SWAP1 REVERT JUMPDEST PUSH1 0x40 MLOAD PUSH3 0x461BCD PUSH1 0xE5 SHL DUP2 MSTORE PUSH1 0x20 PUSH1 0x4 DUP3 ADD MSTORE PUSH1 0x15 PUSH1 0x24 DUP3 ADD MSTORE PUSH21 0x141C9A5E99481D1C985B9CD9995C8819985A5B1959 PUSH1 0x5A SHL PUSH1 0x44 DUP3 ADD MSTORE PUSH1 0x64 SWAP1 REVERT JUMPDEST PUSH4 0x4E487B71 PUSH1 0xE0 SHL DUP10 MSTORE PUSH1 0x11 PUSH1 0x4 MSTORE PUSH1 0x24 DUP10 REVERT JUMPDEST PUSH4 0x4E487B71 PUSH1 0xE0 SHL DUP9 MSTORE PUSH1 0x11 PUSH1 0x4 MSTORE PUSH1 0x24 DUP9 REVERT JUMPDEST PUSH4 0x4E487B71 PUSH1 0xE0 SHL DUP7 MSTORE PUSH1 0x11 PUSH1 0x4 MSTORE PUSH1 0x24 DUP7 REVERT JUMPDEST PUSH2 0xE3C SWAP1 SWAP5 SWAP2 SWAP5 PUSH2 0x10F0 JUMP JUMPDEST SWAP3 CODESIZE PUSH2 0xA0C JUMP JUMPDEST PUSH1 0x40 MLOAD RETURNDATASIZE DUP8 DUP3 RETURNDATACOPY RETURNDATASIZE SWAP1 REVERT JUMPDEST POP DUP1 REVERT JUMPDEST PUSH4 0x4E487B71 PUSH1 0xE0 SHL DUP6 MSTORE PUSH1 0x11 PUSH1 0x4 MSTORE PUSH1 0x24 DUP6 REVERT JUMPDEST PUSH4 0x4E487B71 PUSH1 0xE0 SHL DUP6 MSTORE PUSH1 0x21 PUSH1 0x4 MSTORE PUSH1 0x24 DUP6 REVERT JUMPDEST PUSH1 0x20 PUSH1 0x24 SWAP2 PUSH1 0x40 MLOAD SWAP3 DUP4 DUP1 SWAP3 PUSH4 0x647DED05 PUSH1 0xE0 SHL DUP3 MSTORE CALLER PUSH1 0x4 DUP4 ADD MSTORE GAS STATICCALL SWAP1 DUP2 ISZERO PUSH2 0xF1C JUMPI DUP7 SWAP2 PUSH2 0xEE6 JUMPI JUMPDEST POP DUP1 ISZERO PUSH2 0x971 JUMPI SWAP1 SWAP2 PUSH2 0x2710 SWAP2 DUP3 ADD SWAP1 DUP2 DUP4 GT PUSH2 0xED2 JUMPI PUSH1 0x3 SWAP3 SWAP2 PUSH2 0xECA SWAP2 PUSH2 0x10DD JUMP JUMPDEST DIV SWAP2 SWAP1 PUSH2 0x971 JUMP JUMPDEST PUSH4 0x4E487B71 PUSH1 0xE0 SHL DUP8 MSTORE PUSH1 0x11 PUSH1 0x4 MSTORE PUSH1 0x24 DUP8 REVERT JUMPDEST SWAP1 POP PUSH1 0x20 DUP2 RETURNDATASIZE PUSH1 0x20 GT PUSH2 0xF14 JUMPI JUMPDEST DUP2 PUSH2 0xF01 PUSH1 0x20 SWAP4 DUP4 PUSH2 0x1136 JUMP JUMPDEST DUP2 ADD SUB SLT PUSH2 0xF10 JUMPI MLOAD CODESIZE PUSH2 0xEA6 JUMP JUMPDEST DUP6 DUP1 REVERT JUMPDEST RETURNDATASIZE SWAP2 POP PUSH2 0xEF4 JUMP JUMPDEST PUSH1 0x40 MLOAD RETURNDATASIZE DUP9 DUP3 RETURNDATACOPY RETURNDATASIZE SWAP1 REVERT JUMPDEST PUSH1 0x32 DUP4 MUL DUP4 DUP2 DIV PUSH1 0x32 EQ DUP5 ISZERO OR ISZERO PUSH2 0xE1C JUMPI PUSH1 0x7 SWAP1 DIV PUSH2 0x934 JUMP JUMPDEST DUP1 DUP3 ADD SLOAD SWAP1 DUP2 ADD DUP1 SWAP2 GT ISZERO PUSH2 0x916 JUMPI PUSH4 0x4E487B71 PUSH1 0xE0 SHL DUP4 MSTORE PUSH1 0x11 PUSH1 0x4 MSTORE PUSH1 0x24 DUP4 REVERT JUMPDEST PUSH2 0xF70 SWAP3 SWAP4 POP PUSH2 0x10BA JUMP JUMPDEST EQ DUP2 CODESIZE DUP1 PUSH2 0x90E JUMP JUMPDEST PUSH1 0x40 MLOAD PUSH3 0x461BCD PUSH1 0xE5 SHL DUP2 MSTORE PUSH1 0x20 PUSH1 0x4 DUP3 ADD MSTORE PUSH1 0x18 PUSH1 0x24 DUP3 ADD MSTORE PUSH32 0x416C726561647920636865636B656420696E20746F6461790000000000000000 PUSH1 0x44 DUP3 ADD MSTORE PUSH1 0x64 SWAP1 REVERT JUMPDEST PUSH1 0x40 MLOAD PUSH3 0x461BCD PUSH1 0xE5 SHL DUP2 MSTORE PUSH1 0x20 PUSH1 0x4 DUP3 ADD MSTORE PUSH1 0xD PUSH1 0x24 DUP3 ADD MSTORE PUSH13 0x42656C6F77206D696E696D756D PUSH1 0x98 SHL PUSH1 0x44 DUP3 ADD MSTORE PUSH1 0x64 SWAP1 REVERT JUMPDEST PUSH1 0x40 MLOAD PUSH4 0x3EE5AEB5 PUSH1 0xE0 SHL DUP2 MSTORE PUSH1 0x4 SWAP1 REVERT JUMPDEST POP CALLVALUE PUSH2 0x188 JUMPI PUSH1 0x20 CALLDATASIZE PUSH1 0x3 NOT ADD SLT PUSH2 0x188 JUMPI PUSH2 0x101F PUSH2 0x1081 JUMP JUMPDEST PUSH2 0x1027 PUSH2 0x1167 JUMP JUMPDEST PUSH1 0x1 PUSH1 0x1 PUSH1 0xA0 SHL SUB AND DUP1 ISZERO PUSH2 0x104C JUMPI PUSH1 0x1 PUSH1 0x1 PUSH1 0x60 SHL SUB PUSH1 0xA0 SHL PUSH1 0x2 SLOAD AND OR PUSH1 0x2 SSTORE DUP1 RETURN JUMPDEST PUSH1 0x40 MLOAD PUSH3 0x461BCD PUSH1 0xE5 SHL DUP2 MSTORE PUSH1 0x20 PUSH1 0x4 DUP3 ADD MSTORE PUSH1 0xD PUSH1 0x24 DUP3 ADD MSTORE PUSH13 0x16995C9BC81C9959995C9C985B PUSH1 0x9A SHL PUSH1 0x44 DUP3 ADD MSTORE PUSH1 0x64 SWAP1 REVERT JUMPDEST PUSH1 0x4 CALLDATALOAD SWAP1 PUSH1 0x1 PUSH1 0x1 PUSH1 0xA0 SHL SUB DUP3 AND DUP3 SUB PUSH2 0x7F3 JUMPI JUMP JUMPDEST SWAP1 PUSH1 0x3 DUP3 LT ISZERO PUSH2 0x10A4 JUMPI MSTORE JUMP JUMPDEST PUSH4 0x4E487B71 PUSH1 0xE0 SHL PUSH1 0x0 MSTORE PUSH1 0x21 PUSH1 0x4 MSTORE PUSH1 0x24 PUSH1 0x0 REVERT JUMPDEST SWAP2 SWAP1 DUP3 SUB SWAP2 DUP3 GT PUSH2 0x10C7 JUMPI JUMP JUMPDEST PUSH4 0x4E487B71 PUSH1 0xE0 SHL PUSH1 0x0 MSTORE PUSH1 0x11 PUSH1 0x4 MSTORE PUSH1 0x24 PUSH1 0x0 REVERT JUMPDEST DUP2 DUP2 MUL SWAP3 SWAP2 DUP2 ISZERO SWAP2 DUP5 DIV EQ OR ISZERO PUSH2 0x10C7 JUMPI JUMP JUMPDEST PUSH8 0xFFFFFFFFFFFFFFFF DUP2 GT PUSH2 0x1104 JUMPI PUSH1 0x40 MSTORE JUMP JUMPDEST PUSH4 0x4E487B71 PUSH1 0xE0 SHL PUSH1 0x0 MSTORE PUSH1 0x41 PUSH1 0x4 MSTORE PUSH1 0x24 PUSH1 0x0 REVERT JUMPDEST PUSH1 0x80 DUP2 ADD SWAP1 DUP2 LT PUSH8 0xFFFFFFFFFFFFFFFF DUP3 GT OR PUSH2 0x1104 JUMPI PUSH1 0x40 MSTORE JUMP JUMPDEST SWAP1 PUSH1 0x1F DUP1 NOT SWAP2 ADD AND DUP2 ADD SWAP1 DUP2 LT PUSH8 0xFFFFFFFFFFFFFFFF DUP3 GT OR PUSH2 0x1104 JUMPI PUSH1 0x40 MSTORE JUMP JUMPDEST PUSH1 0x0 NOT DUP2 EQ PUSH2 0x10C7 JUMPI PUSH1 0x1 ADD SWAP1 JUMP JUMPDEST PUSH1 0x0 SLOAD PUSH1 0x1 PUSH1 0x1 PUSH1 0xA0 SHL SUB AND CALLER SUB PUSH2 0x117B JUMPI JUMP JUMPDEST PUSH1 0x40 MLOAD PUSH4 0x118CDAA7 PUSH1 0xE0 SHL DUP2 MSTORE CALLER PUSH1 0x4 DUP3 ADD MSTORE PUSH1 0x24 SWAP1 REVERT JUMPDEST PUSH7 0xB1A2BC2EC50000 DUP2 LT ISZERO PUSH2 0x11BA JUMPI PUSH7 0x2386F26FC10000 GT ISZERO PUSH2 0x11B5 JUMPI PUSH1 0x0 SWAP1 JUMP JUMPDEST PUSH1 0x1 SWAP1 JUMP JUMPDEST POP PUSH1 0x2 SWAP1 JUMP JUMPDEST PUSH1 0x3 DUP2 LT ISZERO PUSH2 0x10A4 JUMPI PUSH1 0x2 DUP2 EQ PUSH2 0x11E2 JUMPI PUSH1 0x1 EQ PUSH2 0x11DD JUMPI PUSH1 0x1 SWAP1 JUMP JUMPDEST PUSH1 0x3 SWAP1 JUMP JUMPDEST POP PUSH1 0xA SWAP1 JUMP JUMPDEST RETURNDATASIZE ISZERO PUSH2 0x1223 JUMPI RETURNDATASIZE SWAP1 PUSH8 0xFFFFFFFFFFFFFFFF DUP3 GT PUSH2 0x1104 JUMPI PUSH1 0x40 MLOAD SWAP2 PUSH2 0x1217 PUSH1 0x1F DUP3 ADD PUSH1 0x1F NOT AND PUSH1 0x20 ADD DUP5 PUSH2 0x1136 JUMP JUMPDEST DUP3 MSTORE RETURNDATASIZE PUSH1 0x0 PUSH1 0x20 DUP5 ADD RETURNDATACOPY JUMP JUMPDEST PUSH1 0x60 SWAP1 JUMP INVALID LOG2 PUSH5 0x6970667358 0x22 SLT KECCAK256 DUP2 0xDF SWAP9 SWAP2 PUSH11 0x52AA0EF474039E253BE887 POP SWAP8 LT 0xBE SUB BLOBBASEFEE DUP6 PUSH25 0x55191B0C7EC9B8DC64736F6C63430008180033000000000000 "},"methodIdentifiers":{"BASE_POINTS()":"b5ab1c5d","BASIC_THRESHOLD()":"826dc142","BURN_SHARE()":"93b998fb","DAY()":"27cfe856","PRIZE_SHARE()":"1ba86794","PRO_THRESHOLD()":"58e5a7c9","REFERRAL_SHARE()":"b21b5a21","STAKING_SHARE()":"4b6b0ddb","STREAK_CAP()":"6c3b6803","TREASURY_SHARE()":"32696174","WHALE_THRESHOLD()":"f47790d6","burnReserve()":"bf16257a","checkIn()":"183ff085","getRecord(address)":"617fba04","owner()":"8da5cb5b","pointsContract()":"2b4f8a1f","prizePool()":"719ce73e","records(address)":"469e9067","referralContract()":"7dad19db","renounceOwnership()":"715018a6","setFeeReceivers(address,address,address,address)":"3c8e556d","setPointsContract(address)":"95754abb","setReferralContract(address)":"06ad5a47","setStakingContract(address)":"9dd373b9","stakingContract()":"ee99205c","stakingRewards()":"64b87a70","totalCheckIns()":"a563eaa3","totalFeesCollected()":"60c6d8ae","transferOwnership(address)":"f2fde38b","treasury()":"61d027b3"}}}}}