{"contracts/Points.sol":{"Points":{"abi":[{"inputs":[],"stateMutability":"nonpayable","type":"constructor"},{"inputs":[],"name":"AccessControlBadConfirmation","type":"error"},{"inputs":[{"internalType":"address","name":"account","type":"address"},{"internalType":"bytes32","name":"neededRole","type":"bytes32"}],"name":"AccessControlUnauthorizedAccount","type":"error"},{"anonymous":false,"inputs":[{"indexed":true,"internalType":"address","name":"user","type":"address"},{"indexed":false,"internalType":"uint256","name":"amount","type":"uint256"},{"indexed":false,"internalType":"uint256","name":"total","type":"uint256"}],"name":"PointsAdded","type":"event"},{"anonymous":false,"inputs":[{"indexed":true,"internalType":"address","name":"user","type":"address"},{"indexed":false,"internalType":"uint256","name":"bonus","type":"uint256"}],"name":"PredictionBonusAdded","type":"event"},{"anonymous":false,"inputs":[{"indexed":true,"internalType":"bytes32","name":"role","type":"bytes32"},{"indexed":true,"internalType":"bytes32","name":"previousAdminRole","type":"bytes32"},{"indexed":true,"internalType":"bytes32","name":"newAdminRole","type":"bytes32"}],"name":"RoleAdminChanged","type":"event"},{"anonymous":false,"inputs":[{"indexed":true,"internalType":"bytes32","name":"role","type":"bytes32"},{"indexed":true,"internalType":"address","name":"account","type":"address"},{"indexed":true,"internalType":"address","name":"sender","type":"address"}],"name":"RoleGranted","type":"event"},{"anonymous":false,"inputs":[{"indexed":true,"internalType":"bytes32","name":"role","type":"bytes32"},{"indexed":true,"internalType":"address","name":"account","type":"address"},{"indexed":true,"internalType":"address","name":"sender","type":"address"}],"name":"RoleRevoked","type":"event"},{"anonymous":false,"inputs":[{"indexed":true,"internalType":"address","name":"user","type":"address"},{"indexed":false,"internalType":"uint256","name":"streak","type":"uint256"}],"name":"StreakUpdated","type":"event"},{"inputs":[],"name":"DEFAULT_ADMIN_ROLE","outputs":[{"internalType":"bytes32","name":"","type":"bytes32"}],"stateMutability":"view","type":"function"},{"inputs":[],"name":"OPERATOR_ROLE","outputs":[{"internalType":"bytes32","name":"","type":"bytes32"}],"stateMutability":"view","type":"function"},{"inputs":[{"internalType":"address","name":"user","type":"address"},{"internalType":"uint256","name":"amount","type":"uint256"},{"internalType":"uint256","name":"streak","type":"uint256"}],"name":"addPoints","outputs":[],"stateMutability":"nonpayable","type":"function"},{"inputs":[{"internalType":"address","name":"user","type":"address"},{"internalType":"uint256","name":"bonus","type":"uint256"},{"internalType":"bool","name":"correct","type":"bool"}],"name":"addPredictionBonus","outputs":[],"stateMutability":"nonpayable","type":"function"},{"inputs":[{"internalType":"uint256","name":"","type":"uint256"}],"name":"allUsers","outputs":[{"internalType":"address","name":"","type":"address"}],"stateMutability":"view","type":"function"},{"inputs":[{"internalType":"bytes32","name":"role","type":"bytes32"}],"name":"getRoleAdmin","outputs":[{"internalType":"bytes32","name":"","type":"bytes32"}],"stateMutability":"view","type":"function"},{"inputs":[{"internalType":"uint256","name":"count","type":"uint256"}],"name":"getTopUsers","outputs":[{"internalType":"address[]","name":"","type":"address[]"},{"internalType":"uint256[]","name":"","type":"uint256[]"}],"stateMutability":"view","type":"function"},{"inputs":[],"name":"getUserCount","outputs":[{"internalType":"uint256","name":"","type":"uint256"}],"stateMutability":"view","type":"function"},{"inputs":[{"internalType":"address","name":"user","type":"address"}],"name":"getUserPoints","outputs":[{"components":[{"internalType":"uint256","name":"points","type":"uint256"},{"internalType":"uint256","name":"weeklyPoints","type":"uint256"},{"internalType":"uint256","name":"streak","type":"uint256"},{"internalType":"uint256","name":"lastCheckIn","type":"uint256"},{"internalType":"uint256","name":"totalCheckIns","type":"uint256"},{"internalType":"uint256","name":"correctPredictions","type":"uint256"},{"internalType":"uint256","name":"totalPredictions","type":"uint256"}],"internalType":"struct Points.UserPoints","name":"","type":"tuple"}],"stateMutability":"view","type":"function"},{"inputs":[{"internalType":"bytes32","name":"role","type":"bytes32"},{"internalType":"address","name":"account","type":"address"}],"name":"grantRole","outputs":[],"stateMutability":"nonpayable","type":"function"},{"inputs":[{"internalType":"bytes32","name":"role","type":"bytes32"},{"internalType":"address","name":"account","type":"address"}],"name":"hasRole","outputs":[{"internalType":"bool","name":"","type":"bool"}],"stateMutability":"view","type":"function"},{"inputs":[{"internalType":"bytes32","name":"role","type":"bytes32"},{"internalType":"address","name":"callerConfirmation","type":"address"}],"name":"renounceRole","outputs":[],"stateMutability":"nonpayable","type":"function"},{"inputs":[],"name":"resetAllWeeklyPoints","outputs":[],"stateMutability":"nonpayable","type":"function"},{"inputs":[{"internalType":"address[]","name":"addrs","type":"address[]"}],"name":"resetWeeklyPoints","outputs":[],"stateMutability":"nonpayable","type":"function"},{"inputs":[{"internalType":"uint256","name":"start","type":"uint256"},{"internalType":"uint256","name":"count","type":"uint256"}],"name":"resetWeeklyPointsBatch","outputs":[{"internalType":"uint256","name":"processed","type":"uint256"}],"stateMutability":"nonpayable","type":"function"},{"inputs":[{"internalType":"bytes32","name":"role","type":"bytes32"},{"internalType":"address","name":"account","type":"address"}],"name":"revokeRole","outputs":[],"stateMutability":"nonpayable","type":"function"},{"inputs":[{"internalType":"bytes4","name":"interfaceId","type":"bytes4"}],"name":"supportsInterface","outputs":[{"internalType":"bool","name":"","type":"bool"}],"stateMutability":"view","type":"function"},{"inputs":[],"name":"totalPointsIssued","outputs":[{"internalType":"uint256","name":"","type":"uint256"}],"stateMutability":"view","type":"function"},{"inputs":[{"internalType":"address","name":"","type":"address"}],"name":"users","outputs":[{"internalType":"uint256","name":"points","type":"uint256"},{"internalType":"uint256","name":"weeklyPoints","type":"uint256"},{"internalType":"uint256","name":"streak","type":"uint256"},{"internalType":"uint256","name":"lastCheckIn","type":"uint256"},{"internalType":"uint256","name":"totalCheckIns","type":"uint256"},{"internalType":"uint256","name":"correctPredictions","type":"uint256"},{"internalType":"uint256","name":"totalPredictions","type":"uint256"}],"stateMutability":"view","type":"function"}],"evm":{"bytecode":{"linkReferences":{},"object":"6080604052346100225761001233610027565b50604051610e0290816100b88239f35b600080fd5b6001600160a01b031660008181527fad3228b676f7d3cd4284a5443f17f1962b36e491b30a40b2405849e597ba5fb5602052604081205490919060ff166100b357818052816020526040822081835260205260408220600160ff1982541617905533917f2f8788117e7eff1d82e926ec794901d17c78024a50270940304540a733656f0d8180a4600190565b509056fe608080604052600436101561001357600080fd5b60003560e01c90816301ffc9a714610a105750806323d14d60146108d2578063248a9ca3146108a35780632f2ff15d1461086457806336568abe1461081d57806359fa543c146106f157806373140f051461069b5780638d101bc31461066a57806391d148541461061d57806393ccb2ad14610586578063a217fddf1461056a578063a2bdedf414610528578063a87430ba146104ad578063aeefe31f146103ca578063b5cb15f7146103ac578063d547741f1461036b578063de75aa6c1461014e578063f5b541a6146101135763fd1c8811146100f057600080fd5b3461010e57600036600319011261010e576020600454604051908152f35b600080fd5b3461010e57600036600319011261010e5760206040517f97667070c54ef182b0f5858b034beac1b6f3089aa2d3188bb1e8929f4fa9b9298152f35b3461010e57602036600319011261010e57600254600435808210156103665750805b61018161017c82610c0d565b610be7565b9181835261018e82610c0d565b601f19929083013660208601376101a761017c82610c0d565b928184526101b482610c0d565b0136602085013760005b8281106102515783856040519182916040830160408452815180915260206060850192019060005b81811061022f5750505082810360208401526020808351928381520192019060005b818110610216575050500390f35b8251845285945060209384019390920191600101610208565b82516001600160a01b03168452869550602093840193909201916001016101e6565b61025a81610a8f565b905460018060a01b039160031b1c16600052600180602052806040600020015460005b848110610290575b5050506001016101be565b61029a8188610c25565b5182116102a857820161027d565b9091506000198401848111610350575b8181116102f95750906102f083926102d1600195610a8f565b868060a01b0391549060031b1c166102e9828b610c25565b5287610c25565b52908680610285565b80600019810111610350576001600160a01b0361031a60001983018a610c25565b5116610326828a610c25565b52610335600019820188610c25565b516103408289610c25565b52801561035057600019016102b8565b634e487b7160e01b600052601160045260246000fd5b610170565b3461010e57604036600319011261010e576103aa60043561038a610a79565b908060005260006020526103a5600160406000200154610cb3565b610d57565b005b3461010e57600036600319011261010e576020600254604051908152f35b3461010e57602036600319011261010e576103e3610a63565b600060c06103ef610bc7565b8281528260208201528260408201528260608201528260808201528260a0820152015260018060a01b0316600052600160205260e06040600020610431610bc7565b815491828252600181015460208301908152600282015460408401908152600383015490606085019182526004840154926080860193845260c0600660058701549660a08901978852015496019586526040519687525160208701525160408601525160608501525160808401525160a08301525160c0820152f35b3461010e57602036600319011261010e576001600160a01b036104ce610a63565b16600052600160205260e06040600020805490600181015490600281015460038201546004830154916006600585015494015494604051968752602087015260408601526060850152608084015260a083015260c0820152f35b3461010e57602036600319011261010e5760043560025481101561010e57610551602091610a8f565b905460405160039290921b1c6001600160a01b03168152f35b3461010e57600036600319011261010e57602060405160008152f35b3461010e5760208060031936011261010e5767ffffffffffffffff60043581811161010e573660238201121561010e57806004013591821161010e5760249060053660248560051b8401011161010e576105de610c39565b60005b8481106105ea57005b80821b83018401356001600160a01b038116919082900361010e57600191600052600082808952604082200155016105e1565b3461010e57604036600319011261010e57610636610a79565b600435600052600060205260406000209060018060a01b0316600052602052602060ff604060002054166040519015158152f35b3461010e57604036600319011261010e57610683610c39565b6020610693602435600435610b50565b604051908152f35b3461010e57600036600319011261010e576106b4610c39565b60005b6002548110156103aa57806106cd600192610a8f565b838060a01b0391549060031b1c1660005260008280602052604082200155016106b7565b3461010e57606036600319011261010e5761070a610a63565b60243560443591821515830361010e577fbe4b85b753d913430926be08cd8587689edb01eae41d00771ef3b5ed6194d27191610744610c39565b60018060a01b03821693846000526020926003845260ff60406000205416156107f6575b5060018352604060002061077d838254610b34565b90558460005260018352600160406000200161079a838254610b34565b9055846000526001835260066040600020016107b68154610b41565b90556107d5575b6107c981600454610b34565b600455604051908152a2005b836000526001825260056040600020016107ef8154610b41565b90556107bd565b6107ff90610adc565b84600052600383526040600020600160ff1982541617905585610768565b3461010e57604036600319011261010e57610836610a79565b336001600160a01b03821603610852576103aa90600435610d57565b60405163334bd91960e11b8152600490fd5b3461010e57604036600319011261010e576103aa600435610883610a79565b9080600052600060205261089e600160406000200154610cb3565b610cd9565b3461010e57602036600319011261010e5760043560005260006020526020600160406000200154604051908152f35b3461010e57606036600319011261010e5760407f46f6fe577ecfefe55b0f14f0b42ddb4c22db1fb9bade43aa02c5ef4e5439512e61090e610a63565b60443560243561091c610c39565b7f27909057bad6ce6fc50ecea73759a0da1ec7790bbb0144577bf31372a78b3e6460018060a01b038416958692836000526020956003875260ff836000205416156109ea575b506001865281600020610976828254610b34565b9055836000526001865260018260002001610992828254610b34565b90558360005260018652600482600020866002820155426003820155016109b98154610b41565b90556109c781600454610b34565b60045583600052600186528160002054825191825286820152a2604051908152a2005b6109f390610adc565b836000526003865281600020600160ff1982541617905588610962565b3461010e57602036600319011261010e576004359063ffffffff60e01b821680920361010e57602091637965db0b60e01b8114908115610a52575b5015158152f35b6301ffc9a760e01b14905083610a4b565b600435906001600160a01b038216820361010e57565b602435906001600160a01b038216820361010e57565b600254811015610ac65760026000527f405787fa12a823e0f2b7631cc41b3ba8828b3321ca811111fa75cd3aa3bb5ace0190600090565b634e487b7160e01b600052603260045260246000fd5b60025468010000000000000000811015610b1e57806001610b009201600255610a8f565b60018060a09493941b038084549260031b9316831b921b1916179055565b634e487b7160e01b600052604160045260246000fd5b9190820180921161035057565b60001981146103505760010190565b6002549182821015610bbf57610b669082610b34565b91808311610bb7575b50805b828110610b86575081039081116103505790565b80610b92600192610a8f565b905490600091848060a01b039160031b1c168152828060205260408220015501610b72565b915038610b6f565b505050600090565b6040519060e0820182811067ffffffffffffffff821117610b1e57604052565b6040519190601f01601f1916820167ffffffffffffffff811183821017610b1e57604052565b67ffffffffffffffff8111610b1e5760051b60200190565b8051821015610ac65760209160051b010190565b3360009081527fee57cd81e84075558e8fcc182a1f4393f91fc97f963a136e66b7f949a62f319f60205260409020547f97667070c54ef182b0f5858b034beac1b6f3089aa2d3188bb1e8929f4fa9b9299060ff1615610c955750565b6044906040519063e2517d3f60e01b82523360048301526024820152fd5b80600052600060205260406000203360005260205260ff6040600020541615610c955750565b9060009180835282602052604083209160018060a01b03169182845260205260ff60408420541615600014610d5257808352826020526040832082845260205260408320600160ff198254161790557f2f8788117e7eff1d82e926ec794901d17c78024a50270940304540a733656f0d339380a4600190565b505090565b9060009180835282602052604083209160018060a01b03169182845260205260ff604084205416600014610d525780835282602052604083208284526020526040832060ff1981541690557ff6391f5c32d9c69d2a47ea670b442974b53935d1edc7fd64eb21e047a839171b339380a460019056fea264697066735822122055d8778ce86fb7e3cefade1f573873036befdb6f2bf33f4150c0224fd18a114e64736f6c63430008180033","opcodes":"PUSH1 0x80 PUSH1 0x40 MSTORE CALLVALUE PUSH2 0x22 JUMPI PUSH2 0x12 CALLER PUSH2 0x27 JUMP JUMPDEST POP PUSH1 0x40 MLOAD PUSH2 0xE02 SWAP1 DUP2 PUSH2 0xB8 DUP3 CODECOPY RETURN JUMPDEST PUSH1 0x0 DUP1 REVERT JUMPDEST PUSH1 0x1 PUSH1 0x1 PUSH1 0xA0 SHL SUB AND PUSH1 0x0 DUP2 DUP2 MSTORE PUSH32 0xAD3228B676F7D3CD4284A5443F17F1962B36E491B30A40B2405849E597BA5FB5 PUSH1 0x20 MSTORE PUSH1 0x40 DUP2 KECCAK256 SLOAD SWAP1 SWAP2 SWAP1 PUSH1 0xFF AND PUSH2 0xB3 JUMPI DUP2 DUP1 MSTORE DUP2 PUSH1 0x20 MSTORE PUSH1 0x40 DUP3 KECCAK256 DUP2 DUP4 MSTORE PUSH1 0x20 MSTORE PUSH1 0x40 DUP3 KECCAK256 PUSH1 0x1 PUSH1 0xFF NOT DUP3 SLOAD AND OR SWAP1 SSTORE CALLER SWAP2 PUSH32 0x2F8788117E7EFF1D82E926EC794901D17C78024A50270940304540A733656F0D DUP2 DUP1 LOG4 PUSH1 0x1 SWAP1 JUMP JUMPDEST POP SWAP1 JUMP INVALID PUSH1 0x80 DUP1 PUSH1 0x40 MSTORE PUSH1 0x4 CALLDATASIZE LT ISZERO PUSH2 0x13 JUMPI PUSH1 0x0 DUP1 REVERT JUMPDEST PUSH1 0x0 CALLDATALOAD PUSH1 0xE0 SHR SWAP1 DUP2 PUSH4 0x1FFC9A7 EQ PUSH2 0xA10 JUMPI POP DUP1 PUSH4 0x23D14D60 EQ PUSH2 0x8D2 JUMPI DUP1 PUSH4 0x248A9CA3 EQ PUSH2 0x8A3 JUMPI DUP1 PUSH4 0x2F2FF15D EQ PUSH2 0x864 JUMPI DUP1 PUSH4 0x36568ABE EQ PUSH2 0x81D JUMPI DUP1 PUSH4 0x59FA543C EQ PUSH2 0x6F1 JUMPI DUP1 PUSH4 0x73140F05 EQ PUSH2 0x69B JUMPI DUP1 PUSH4 0x8D101BC3 EQ PUSH2 0x66A JUMPI DUP1 PUSH4 0x91D14854 EQ PUSH2 0x61D JUMPI DUP1 PUSH4 0x93CCB2AD EQ PUSH2 0x586 JUMPI DUP1 PUSH4 0xA217FDDF EQ PUSH2 0x56A JUMPI DUP1 PUSH4 0xA2BDEDF4 EQ PUSH2 0x528 JUMPI DUP1 PUSH4 0xA87430BA EQ PUSH2 0x4AD JUMPI DUP1 PUSH4 0xAEEFE31F EQ PUSH2 0x3CA JUMPI DUP1 PUSH4 0xB5CB15F7 EQ PUSH2 0x3AC JUMPI DUP1 PUSH4 0xD547741F EQ PUSH2 0x36B JUMPI DUP1 PUSH4 0xDE75AA6C EQ PUSH2 0x14E JUMPI DUP1 PUSH4 0xF5B541A6 EQ PUSH2 0x113 JUMPI PUSH4 0xFD1C8811 EQ PUSH2 0xF0 JUMPI PUSH1 0x0 DUP1 REVERT JUMPDEST CALLVALUE PUSH2 0x10E JUMPI PUSH1 0x0 CALLDATASIZE PUSH1 0x3 NOT ADD SLT PUSH2 0x10E JUMPI PUSH1 0x20 PUSH1 0x4 SLOAD PUSH1 0x40 MLOAD SWAP1 DUP2 MSTORE RETURN JUMPDEST PUSH1 0x0 DUP1 REVERT JUMPDEST CALLVALUE PUSH2 0x10E JUMPI PUSH1 0x0 CALLDATASIZE PUSH1 0x3 NOT ADD SLT PUSH2 0x10E JUMPI PUSH1 0x20 PUSH1 0x40 MLOAD PUSH32 0x97667070C54EF182B0F5858B034BEAC1B6F3089AA2D3188BB1E8929F4FA9B929 DUP2 MSTORE RETURN JUMPDEST CALLVALUE PUSH2 0x10E JUMPI PUSH1 0x20 CALLDATASIZE PUSH1 0x3 NOT ADD SLT PUSH2 0x10E JUMPI PUSH1 0x2 SLOAD PUSH1 0x4 CALLDATALOAD DUP1 DUP3 LT ISZERO PUSH2 0x366 JUMPI POP DUP1 JUMPDEST PUSH2 0x181 PUSH2 0x17C DUP3 PUSH2 0xC0D JUMP JUMPDEST PUSH2 0xBE7 JUMP JUMPDEST SWAP2 DUP2 DUP4 MSTORE PUSH2 0x18E DUP3 PUSH2 0xC0D JUMP JUMPDEST PUSH1 0x1F NOT SWAP3 SWAP1 DUP4 ADD CALLDATASIZE PUSH1 0x20 DUP7 ADD CALLDATACOPY PUSH2 0x1A7 PUSH2 0x17C DUP3 PUSH2 0xC0D JUMP JUMPDEST SWAP3 DUP2 DUP5 MSTORE PUSH2 0x1B4 DUP3 PUSH2 0xC0D JUMP JUMPDEST ADD CALLDATASIZE PUSH1 0x20 DUP6 ADD CALLDATACOPY PUSH1 0x0 JUMPDEST DUP3 DUP2 LT PUSH2 0x251 JUMPI DUP4 DUP6 PUSH1 0x40 MLOAD SWAP2 DUP3 SWAP2 PUSH1 0x40 DUP4 ADD PUSH1 0x40 DUP5 MSTORE DUP2 MLOAD DUP1 SWAP2 MSTORE PUSH1 0x20 PUSH1 0x60 DUP6 ADD SWAP3 ADD SWAP1 PUSH1 0x0 JUMPDEST DUP2 DUP2 LT PUSH2 0x22F JUMPI POP POP POP DUP3 DUP2 SUB PUSH1 0x20 DUP5 ADD MSTORE PUSH1 0x20 DUP1 DUP4 MLOAD SWAP3 DUP4 DUP2 MSTORE ADD SWAP3 ADD SWAP1 PUSH1 0x0 JUMPDEST DUP2 DUP2 LT PUSH2 0x216 JUMPI POP POP POP SUB SWAP1 RETURN JUMPDEST DUP3 MLOAD DUP5 MSTORE DUP6 SWAP5 POP PUSH1 0x20 SWAP4 DUP5 ADD SWAP4 SWAP1 SWAP3 ADD SWAP2 PUSH1 0x1 ADD PUSH2 0x208 JUMP JUMPDEST DUP3 MLOAD PUSH1 0x1 PUSH1 0x1 PUSH1 0xA0 SHL SUB AND DUP5 MSTORE DUP7 SWAP6 POP PUSH1 0x20 SWAP4 DUP5 ADD SWAP4 SWAP1 SWAP3 ADD SWAP2 PUSH1 0x1 ADD PUSH2 0x1E6 JUMP JUMPDEST PUSH2 0x25A DUP2 PUSH2 0xA8F JUMP JUMPDEST SWAP1 SLOAD PUSH1 0x1 DUP1 PUSH1 0xA0 SHL SUB SWAP2 PUSH1 0x3 SHL SHR AND PUSH1 0x0 MSTORE PUSH1 0x1 DUP1 PUSH1 0x20 MSTORE DUP1 PUSH1 0x40 PUSH1 0x0 KECCAK256 ADD SLOAD PUSH1 0x0 JUMPDEST DUP5 DUP2 LT PUSH2 0x290 JUMPI JUMPDEST POP POP POP PUSH1 0x1 ADD PUSH2 0x1BE JUMP JUMPDEST PUSH2 0x29A DUP2 DUP9 PUSH2 0xC25 JUMP JUMPDEST MLOAD DUP3 GT PUSH2 0x2A8 JUMPI DUP3 ADD PUSH2 0x27D JUMP JUMPDEST SWAP1 SWAP2 POP PUSH1 0x0 NOT DUP5 ADD DUP5 DUP2 GT PUSH2 0x350 JUMPI JUMPDEST DUP2 DUP2 GT PUSH2 0x2F9 JUMPI POP SWAP1 PUSH2 0x2F0 DUP4 SWAP3 PUSH2 0x2D1 PUSH1 0x1 SWAP6 PUSH2 0xA8F JUMP JUMPDEST DUP7 DUP1 PUSH1 0xA0 SHL SUB SWAP2 SLOAD SWAP1 PUSH1 0x3 SHL SHR AND PUSH2 0x2E9 DUP3 DUP12 PUSH2 0xC25 JUMP JUMPDEST MSTORE DUP8 PUSH2 0xC25 JUMP JUMPDEST MSTORE SWAP1 DUP7 DUP1 PUSH2 0x285 JUMP JUMPDEST DUP1 PUSH1 0x0 NOT DUP2 ADD GT PUSH2 0x350 JUMPI PUSH1 0x1 PUSH1 0x1 PUSH1 0xA0 SHL SUB PUSH2 0x31A PUSH1 0x0 NOT DUP4 ADD DUP11 PUSH2 0xC25 JUMP JUMPDEST MLOAD AND PUSH2 0x326 DUP3 DUP11 PUSH2 0xC25 JUMP JUMPDEST MSTORE PUSH2 0x335 PUSH1 0x0 NOT DUP3 ADD DUP9 PUSH2 0xC25 JUMP JUMPDEST MLOAD PUSH2 0x340 DUP3 DUP10 PUSH2 0xC25 JUMP JUMPDEST MSTORE DUP1 ISZERO PUSH2 0x350 JUMPI PUSH1 0x0 NOT ADD PUSH2 0x2B8 JUMP JUMPDEST PUSH4 0x4E487B71 PUSH1 0xE0 SHL PUSH1 0x0 MSTORE PUSH1 0x11 PUSH1 0x4 MSTORE PUSH1 0x24 PUSH1 0x0 REVERT JUMPDEST PUSH2 0x170 JUMP JUMPDEST CALLVALUE PUSH2 0x10E JUMPI PUSH1 0x40 CALLDATASIZE PUSH1 0x3 NOT ADD SLT PUSH2 0x10E JUMPI PUSH2 0x3AA PUSH1 0x4 CALLDATALOAD PUSH2 0x38A PUSH2 0xA79 JUMP JUMPDEST SWAP1 DUP1 PUSH1 0x0 MSTORE PUSH1 0x0 PUSH1 0x20 MSTORE PUSH2 0x3A5 PUSH1 0x1 PUSH1 0x40 PUSH1 0x0 KECCAK256 ADD SLOAD PUSH2 0xCB3 JUMP JUMPDEST PUSH2 0xD57 JUMP JUMPDEST STOP JUMPDEST CALLVALUE PUSH2 0x10E JUMPI PUSH1 0x0 CALLDATASIZE PUSH1 0x3 NOT ADD SLT PUSH2 0x10E JUMPI PUSH1 0x20 PUSH1 0x2 SLOAD PUSH1 0x40 MLOAD SWAP1 DUP2 MSTORE RETURN JUMPDEST CALLVALUE PUSH2 0x10E JUMPI PUSH1 0x20 CALLDATASIZE PUSH1 0x3 NOT ADD SLT PUSH2 0x10E JUMPI PUSH2 0x3E3 PUSH2 0xA63 JUMP JUMPDEST PUSH1 0x0 PUSH1 0xC0 PUSH2 0x3EF PUSH2 0xBC7 JUMP JUMPDEST DUP3 DUP2 MSTORE DUP3 PUSH1 0x20 DUP3 ADD MSTORE DUP3 PUSH1 0x40 DUP3 ADD MSTORE DUP3 PUSH1 0x60 DUP3 ADD MSTORE DUP3 PUSH1 0x80 DUP3 ADD MSTORE DUP3 PUSH1 0xA0 DUP3 ADD MSTORE ADD MSTORE PUSH1 0x1 DUP1 PUSH1 0xA0 SHL SUB AND PUSH1 0x0 MSTORE PUSH1 0x1 PUSH1 0x20 MSTORE PUSH1 0xE0 PUSH1 0x40 PUSH1 0x0 KECCAK256 PUSH2 0x431 PUSH2 0xBC7 JUMP JUMPDEST DUP2 SLOAD SWAP2 DUP3 DUP3 MSTORE PUSH1 0x1 DUP2 ADD SLOAD PUSH1 0x20 DUP4 ADD SWAP1 DUP2 MSTORE PUSH1 0x2 DUP3 ADD SLOAD PUSH1 0x40 DUP5 ADD SWAP1 DUP2 MSTORE PUSH1 0x3 DUP4 ADD SLOAD SWAP1 PUSH1 0x60 DUP6 ADD SWAP2 DUP3 MSTORE PUSH1 0x4 DUP5 ADD SLOAD SWAP3 PUSH1 0x80 DUP7 ADD SWAP4 DUP5 MSTORE PUSH1 0xC0 PUSH1 0x6 PUSH1 0x5 DUP8 ADD SLOAD SWAP7 PUSH1 0xA0 DUP10 ADD SWAP8 DUP9 MSTORE ADD SLOAD SWAP7 ADD SWAP6 DUP7 MSTORE PUSH1 0x40 MLOAD SWAP7 DUP8 MSTORE MLOAD PUSH1 0x20 DUP8 ADD MSTORE MLOAD PUSH1 0x40 DUP7 ADD MSTORE MLOAD PUSH1 0x60 DUP6 ADD MSTORE MLOAD PUSH1 0x80 DUP5 ADD MSTORE MLOAD PUSH1 0xA0 DUP4 ADD MSTORE MLOAD PUSH1 0xC0 DUP3 ADD MSTORE RETURN JUMPDEST CALLVALUE PUSH2 0x10E JUMPI PUSH1 0x20 CALLDATASIZE PUSH1 0x3 NOT ADD SLT PUSH2 0x10E JUMPI PUSH1 0x1 PUSH1 0x1 PUSH1 0xA0 SHL SUB PUSH2 0x4CE PUSH2 0xA63 JUMP JUMPDEST AND PUSH1 0x0 MSTORE PUSH1 0x1 PUSH1 0x20 MSTORE PUSH1 0xE0 PUSH1 0x40 PUSH1 0x0 KECCAK256 DUP1 SLOAD SWAP1 PUSH1 0x1 DUP2 ADD SLOAD SWAP1 PUSH1 0x2 DUP2 ADD SLOAD PUSH1 0x3 DUP3 ADD SLOAD PUSH1 0x4 DUP4 ADD SLOAD SWAP2 PUSH1 0x6 PUSH1 0x5 DUP6 ADD SLOAD SWAP5 ADD SLOAD SWAP5 PUSH1 0x40 MLOAD SWAP7 DUP8 MSTORE PUSH1 0x20 DUP8 ADD MSTORE PUSH1 0x40 DUP7 ADD MSTORE PUSH1 0x60 DUP6 ADD MSTORE PUSH1 0x80 DUP5 ADD MSTORE PUSH1 0xA0 DUP4 ADD MSTORE PUSH1 0xC0 DUP3 ADD MSTORE RETURN JUMPDEST CALLVALUE PUSH2 0x10E JUMPI PUSH1 0x20 CALLDATASIZE PUSH1 0x3 NOT ADD SLT PUSH2 0x10E JUMPI PUSH1 0x4 CALLDATALOAD PUSH1 0x2 SLOAD DUP2 LT ISZERO PUSH2 0x10E JUMPI PUSH2 0x551 PUSH1 0x20 SWAP2 PUSH2 0xA8F JUMP JUMPDEST SWAP1 SLOAD PUSH1 0x40 MLOAD PUSH1 0x3 SWAP3 SWAP1 SWAP3 SHL SHR PUSH1 0x1 PUSH1 0x1 PUSH1 0xA0 SHL SUB AND DUP2 MSTORE RETURN JUMPDEST CALLVALUE PUSH2 0x10E JUMPI PUSH1 0x0 CALLDATASIZE PUSH1 0x3 NOT ADD SLT PUSH2 0x10E JUMPI PUSH1 0x20 PUSH1 0x40 MLOAD PUSH1 0x0 DUP2 MSTORE RETURN JUMPDEST CALLVALUE PUSH2 0x10E JUMPI PUSH1 0x20 DUP1 PUSH1 0x3 NOT CALLDATASIZE ADD SLT PUSH2 0x10E JUMPI PUSH8 0xFFFFFFFFFFFFFFFF PUSH1 0x4 CALLDATALOAD DUP2 DUP2 GT PUSH2 0x10E JUMPI CALLDATASIZE PUSH1 0x23 DUP3 ADD SLT ISZERO PUSH2 0x10E JUMPI DUP1 PUSH1 0x4 ADD CALLDATALOAD SWAP2 DUP3 GT PUSH2 0x10E JUMPI PUSH1 0x24 SWAP1 PUSH1 0x5 CALLDATASIZE PUSH1 0x24 DUP6 PUSH1 0x5 SHL DUP5 ADD ADD GT PUSH2 0x10E JUMPI PUSH2 0x5DE PUSH2 0xC39 JUMP JUMPDEST PUSH1 0x0 JUMPDEST DUP5 DUP2 LT PUSH2 0x5EA JUMPI STOP JUMPDEST DUP1 DUP3 SHL DUP4 ADD DUP5 ADD CALLDATALOAD PUSH1 0x1 PUSH1 0x1 PUSH1 0xA0 SHL SUB DUP2 AND SWAP2 SWAP1 DUP3 SWAP1 SUB PUSH2 0x10E JUMPI PUSH1 0x1 SWAP2 PUSH1 0x0 MSTORE PUSH1 0x0 DUP3 DUP1 DUP10 MSTORE PUSH1 0x40 DUP3 KECCAK256 ADD SSTORE ADD PUSH2 0x5E1 JUMP JUMPDEST CALLVALUE PUSH2 0x10E JUMPI PUSH1 0x40 CALLDATASIZE PUSH1 0x3 NOT ADD SLT PUSH2 0x10E JUMPI PUSH2 0x636 PUSH2 0xA79 JUMP JUMPDEST PUSH1 0x4 CALLDATALOAD PUSH1 0x0 MSTORE PUSH1 0x0 PUSH1 0x20 MSTORE PUSH1 0x40 PUSH1 0x0 KECCAK256 SWAP1 PUSH1 0x1 DUP1 PUSH1 0xA0 SHL SUB AND PUSH1 0x0 MSTORE PUSH1 0x20 MSTORE PUSH1 0x20 PUSH1 0xFF PUSH1 0x40 PUSH1 0x0 KECCAK256 SLOAD AND PUSH1 0x40 MLOAD SWAP1 ISZERO ISZERO DUP2 MSTORE RETURN JUMPDEST CALLVALUE PUSH2 0x10E JUMPI PUSH1 0x40 CALLDATASIZE PUSH1 0x3 NOT ADD SLT PUSH2 0x10E JUMPI PUSH2 0x683 PUSH2 0xC39 JUMP JUMPDEST PUSH1 0x20 PUSH2 0x693 PUSH1 0x24 CALLDATALOAD PUSH1 0x4 CALLDATALOAD PUSH2 0xB50 JUMP JUMPDEST PUSH1 0x40 MLOAD SWAP1 DUP2 MSTORE RETURN JUMPDEST CALLVALUE PUSH2 0x10E JUMPI PUSH1 0x0 CALLDATASIZE PUSH1 0x3 NOT ADD SLT PUSH2 0x10E JUMPI PUSH2 0x6B4 PUSH2 0xC39 JUMP JUMPDEST PUSH1 0x0 JUMPDEST PUSH1 0x2 SLOAD DUP2 LT ISZERO PUSH2 0x3AA JUMPI DUP1 PUSH2 0x6CD PUSH1 0x1 SWAP3 PUSH2 0xA8F JUMP JUMPDEST DUP4 DUP1 PUSH1 0xA0 SHL SUB SWAP2 SLOAD SWAP1 PUSH1 0x3 SHL SHR AND PUSH1 0x0 MSTORE PUSH1 0x0 DUP3 DUP1 PUSH1 0x20 MSTORE PUSH1 0x40 DUP3 KECCAK256 ADD SSTORE ADD PUSH2 0x6B7 JUMP JUMPDEST CALLVALUE PUSH2 0x10E JUMPI PUSH1 0x60 CALLDATASIZE PUSH1 0x3 NOT ADD SLT PUSH2 0x10E JUMPI PUSH2 0x70A PUSH2 0xA63 JUMP JUMPDEST PUSH1 0x24 CALLDATALOAD PUSH1 0x44 CALLDATALOAD SWAP2 DUP3 ISZERO ISZERO DUP4 SUB PUSH2 0x10E JUMPI PUSH32 0xBE4B85B753D913430926BE08CD8587689EDB01EAE41D00771EF3B5ED6194D271 SWAP2 PUSH2 0x744 PUSH2 0xC39 JUMP JUMPDEST PUSH1 0x1 DUP1 PUSH1 0xA0 SHL SUB DUP3 AND SWAP4 DUP5 PUSH1 0x0 MSTORE PUSH1 0x20 SWAP3 PUSH1 0x3 DUP5 MSTORE PUSH1 0xFF PUSH1 0x40 PUSH1 0x0 KECCAK256 SLOAD AND ISZERO PUSH2 0x7F6 JUMPI JUMPDEST POP PUSH1 0x1 DUP4 MSTORE PUSH1 0x40 PUSH1 0x0 KECCAK256 PUSH2 0x77D DUP4 DUP3 SLOAD PUSH2 0xB34 JUMP JUMPDEST SWAP1 SSTORE DUP5 PUSH1 0x0 MSTORE PUSH1 0x1 DUP4 MSTORE PUSH1 0x1 PUSH1 0x40 PUSH1 0x0 KECCAK256 ADD PUSH2 0x79A DUP4 DUP3 SLOAD PUSH2 0xB34 JUMP JUMPDEST SWAP1 SSTORE DUP5 PUSH1 0x0 MSTORE PUSH1 0x1 DUP4 MSTORE PUSH1 0x6 PUSH1 0x40 PUSH1 0x0 KECCAK256 ADD PUSH2 0x7B6 DUP2 SLOAD PUSH2 0xB41 JUMP JUMPDEST SWAP1 SSTORE PUSH2 0x7D5 JUMPI JUMPDEST PUSH2 0x7C9 DUP2 PUSH1 0x4 SLOAD PUSH2 0xB34 JUMP JUMPDEST PUSH1 0x4 SSTORE PUSH1 0x40 MLOAD SWAP1 DUP2 MSTORE LOG2 STOP JUMPDEST DUP4 PUSH1 0x0 MSTORE PUSH1 0x1 DUP3 MSTORE PUSH1 0x5 PUSH1 0x40 PUSH1 0x0 KECCAK256 ADD PUSH2 0x7EF DUP2 SLOAD PUSH2 0xB41 JUMP JUMPDEST SWAP1 SSTORE PUSH2 0x7BD JUMP JUMPDEST PUSH2 0x7FF SWAP1 PUSH2 0xADC JUMP JUMPDEST DUP5 PUSH1 0x0 MSTORE PUSH1 0x3 DUP4 MSTORE PUSH1 0x40 PUSH1 0x0 KECCAK256 PUSH1 0x1 PUSH1 0xFF NOT DUP3 SLOAD AND OR SWAP1 SSTORE DUP6 PUSH2 0x768 JUMP JUMPDEST CALLVALUE PUSH2 0x10E JUMPI PUSH1 0x40 CALLDATASIZE PUSH1 0x3 NOT ADD SLT PUSH2 0x10E JUMPI PUSH2 0x836 PUSH2 0xA79 JUMP JUMPDEST CALLER PUSH1 0x1 PUSH1 0x1 PUSH1 0xA0 SHL SUB DUP3 AND SUB PUSH2 0x852 JUMPI PUSH2 0x3AA SWAP1 PUSH1 0x4 CALLDATALOAD PUSH2 0xD57 JUMP JUMPDEST PUSH1 0x40 MLOAD PUSH4 0x334BD919 PUSH1 0xE1 SHL DUP2 MSTORE PUSH1 0x4 SWAP1 REVERT JUMPDEST CALLVALUE PUSH2 0x10E JUMPI PUSH1 0x40 CALLDATASIZE PUSH1 0x3 NOT ADD SLT PUSH2 0x10E JUMPI PUSH2 0x3AA PUSH1 0x4 CALLDATALOAD PUSH2 0x883 PUSH2 0xA79 JUMP JUMPDEST SWAP1 DUP1 PUSH1 0x0 MSTORE PUSH1 0x0 PUSH1 0x20 MSTORE PUSH2 0x89E PUSH1 0x1 PUSH1 0x40 PUSH1 0x0 KECCAK256 ADD SLOAD PUSH2 0xCB3 JUMP JUMPDEST PUSH2 0xCD9 JUMP JUMPDEST CALLVALUE PUSH2 0x10E JUMPI PUSH1 0x20 CALLDATASIZE PUSH1 0x3 NOT ADD SLT PUSH2 0x10E JUMPI PUSH1 0x4 CALLDATALOAD PUSH1 0x0 MSTORE PUSH1 0x0 PUSH1 0x20 MSTORE PUSH1 0x20 PUSH1 0x1 PUSH1 0x40 PUSH1 0x0 KECCAK256 ADD SLOAD PUSH1 0x40 MLOAD SWAP1 DUP2 MSTORE RETURN JUMPDEST CALLVALUE PUSH2 0x10E JUMPI PUSH1 0x60 CALLDATASIZE PUSH1 0x3 NOT ADD SLT PUSH2 0x10E JUMPI PUSH1 0x40 PUSH32 0x46F6FE577ECFEFE55B0F14F0B42DDB4C22DB1FB9BADE43AA02C5EF4E5439512E PUSH2 0x90E PUSH2 0xA63 JUMP JUMPDEST PUSH1 0x44 CALLDATALOAD PUSH1 0x24 CALLDATALOAD PUSH2 0x91C PUSH2 0xC39 JUMP JUMPDEST PUSH32 0x27909057BAD6CE6FC50ECEA73759A0DA1EC7790BBB0144577BF31372A78B3E64 PUSH1 0x1 DUP1 PUSH1 0xA0 SHL SUB DUP5 AND SWAP6 DUP7 SWAP3 DUP4 PUSH1 0x0 MSTORE PUSH1 0x20 SWAP6 PUSH1 0x3 DUP8 MSTORE PUSH1 0xFF DUP4 PUSH1 0x0 KECCAK256 SLOAD AND ISZERO PUSH2 0x9EA JUMPI JUMPDEST POP PUSH1 0x1 DUP7 MSTORE DUP2 PUSH1 0x0 KECCAK256 PUSH2 0x976 DUP3 DUP3 SLOAD PUSH2 0xB34 JUMP JUMPDEST SWAP1 SSTORE DUP4 PUSH1 0x0 MSTORE PUSH1 0x1 DUP7 MSTORE PUSH1 0x1 DUP3 PUSH1 0x0 KECCAK256 ADD PUSH2 0x992 DUP3 DUP3 SLOAD PUSH2 0xB34 JUMP JUMPDEST SWAP1 SSTORE DUP4 PUSH1 0x0 MSTORE PUSH1 0x1 DUP7 MSTORE PUSH1 0x4 DUP3 PUSH1 0x0 KECCAK256 DUP7 PUSH1 0x2 DUP3 ADD SSTORE TIMESTAMP PUSH1 0x3 DUP3 ADD SSTORE ADD PUSH2 0x9B9 DUP2 SLOAD PUSH2 0xB41 JUMP JUMPDEST SWAP1 SSTORE PUSH2 0x9C7 DUP2 PUSH1 0x4 SLOAD PUSH2 0xB34 JUMP JUMPDEST PUSH1 0x4 SSTORE DUP4 PUSH1 0x0 MSTORE PUSH1 0x1 DUP7 MSTORE DUP2 PUSH1 0x0 KECCAK256 SLOAD DUP3 MLOAD SWAP2 DUP3 MSTORE DUP7 DUP3 ADD MSTORE LOG2 PUSH1 0x40 MLOAD SWAP1 DUP2 MSTORE LOG2 STOP JUMPDEST PUSH2 0x9F3 SWAP1 PUSH2 0xADC JUMP JUMPDEST DUP4 PUSH1 0x0 MSTORE PUSH1 0x3 DUP7 MSTORE DUP2 PUSH1 0x0 KECCAK256 PUSH1 0x1 PUSH1 0xFF NOT DUP3 SLOAD AND OR SWAP1 SSTORE DUP9 PUSH2 0x962 JUMP JUMPDEST CALLVALUE PUSH2 0x10E JUMPI PUSH1 0x20 CALLDATASIZE PUSH1 0x3 NOT ADD SLT PUSH2 0x10E JUMPI PUSH1 0x4 CALLDATALOAD SWAP1 PUSH4 0xFFFFFFFF PUSH1 0xE0 SHL DUP3 AND DUP1 SWAP3 SUB PUSH2 0x10E JUMPI PUSH1 0x20 SWAP2 PUSH4 0x7965DB0B PUSH1 0xE0 SHL DUP2 EQ SWAP1 DUP2 ISZERO PUSH2 0xA52 JUMPI JUMPDEST POP ISZERO ISZERO DUP2 MSTORE RETURN JUMPDEST PUSH4 0x1FFC9A7 PUSH1 0xE0 SHL EQ SWAP1 POP DUP4 PUSH2 0xA4B JUMP JUMPDEST PUSH1 0x4 CALLDATALOAD SWAP1 PUSH1 0x1 PUSH1 0x1 PUSH1 0xA0 SHL SUB DUP3 AND DUP3 SUB PUSH2 0x10E JUMPI JUMP JUMPDEST PUSH1 0x24 CALLDATALOAD SWAP1 PUSH1 0x1 PUSH1 0x1 PUSH1 0xA0 SHL SUB DUP3 AND DUP3 SUB PUSH2 0x10E JUMPI JUMP JUMPDEST PUSH1 0x2 SLOAD DUP2 LT ISZERO PUSH2 0xAC6 JUMPI PUSH1 0x2 PUSH1 0x0 MSTORE PUSH32 0x405787FA12A823E0F2B7631CC41B3BA8828B3321CA811111FA75CD3AA3BB5ACE ADD SWAP1 PUSH1 0x0 SWAP1 JUMP JUMPDEST PUSH4 0x4E487B71 PUSH1 0xE0 SHL PUSH1 0x0 MSTORE PUSH1 0x32 PUSH1 0x4 MSTORE PUSH1 0x24 PUSH1 0x0 REVERT JUMPDEST PUSH1 0x2 SLOAD PUSH9 0x10000000000000000 DUP2 LT ISZERO PUSH2 0xB1E JUMPI DUP1 PUSH1 0x1 PUSH2 0xB00 SWAP3 ADD PUSH1 0x2 SSTORE PUSH2 0xA8F JUMP JUMPDEST PUSH1 0x1 DUP1 PUSH1 0xA0 SWAP5 SWAP4 SWAP5 SHL SUB DUP1 DUP5 SLOAD SWAP3 PUSH1 0x3 SHL SWAP4 AND DUP4 SHL SWAP3 SHL NOT AND OR SWAP1 SSTORE JUMP JUMPDEST PUSH4 0x4E487B71 PUSH1 0xE0 SHL PUSH1 0x0 MSTORE PUSH1 0x41 PUSH1 0x4 MSTORE PUSH1 0x24 PUSH1 0x0 REVERT JUMPDEST SWAP2 SWAP1 DUP3 ADD DUP1 SWAP3 GT PUSH2 0x350 JUMPI JUMP JUMPDEST PUSH1 0x0 NOT DUP2 EQ PUSH2 0x350 JUMPI PUSH1 0x1 ADD SWAP1 JUMP JUMPDEST PUSH1 0x2 SLOAD SWAP2 DUP3 DUP3 LT ISZERO PUSH2 0xBBF JUMPI PUSH2 0xB66 SWAP1 DUP3 PUSH2 0xB34 JUMP JUMPDEST SWAP2 DUP1 DUP4 GT PUSH2 0xBB7 JUMPI JUMPDEST POP DUP1 JUMPDEST DUP3 DUP2 LT PUSH2 0xB86 JUMPI POP DUP2 SUB SWAP1 DUP2 GT PUSH2 0x350 JUMPI SWAP1 JUMP JUMPDEST DUP1 PUSH2 0xB92 PUSH1 0x1 SWAP3 PUSH2 0xA8F JUMP JUMPDEST SWAP1 SLOAD SWAP1 PUSH1 0x0 SWAP2 DUP5 DUP1 PUSH1 0xA0 SHL SUB SWAP2 PUSH1 0x3 SHL SHR AND DUP2 MSTORE DUP3 DUP1 PUSH1 0x20 MSTORE PUSH1 0x40 DUP3 KECCAK256 ADD SSTORE ADD PUSH2 0xB72 JUMP JUMPDEST SWAP2 POP CODESIZE PUSH2 0xB6F JUMP JUMPDEST POP POP POP PUSH1 0x0 SWAP1 JUMP JUMPDEST PUSH1 0x40 MLOAD SWAP1 PUSH1 0xE0 DUP3 ADD DUP3 DUP2 LT PUSH8 0xFFFFFFFFFFFFFFFF DUP3 GT OR PUSH2 0xB1E JUMPI PUSH1 0x40 MSTORE JUMP JUMPDEST PUSH1 0x40 MLOAD SWAP2 SWAP1 PUSH1 0x1F ADD PUSH1 0x1F NOT AND DUP3 ADD PUSH8 0xFFFFFFFFFFFFFFFF DUP2 GT DUP4 DUP3 LT OR PUSH2 0xB1E JUMPI PUSH1 0x40 MSTORE JUMP JUMPDEST PUSH8 0xFFFFFFFFFFFFFFFF DUP2 GT PUSH2 0xB1E JUMPI PUSH1 0x5 SHL PUSH1 0x20 ADD SWAP1 JUMP JUMPDEST DUP1 MLOAD DUP3 LT ISZERO PUSH2 0xAC6 JUMPI PUSH1 0x20 SWAP2 PUSH1 0x5 SHL ADD ADD SWAP1 JUMP JUMPDEST CALLER PUSH1 0x0 SWAP1 DUP2 MSTORE PUSH32 0xEE57CD81E84075558E8FCC182A1F4393F91FC97F963A136E66B7F949A62F319F PUSH1 0x20 MSTORE PUSH1 0x40 SWAP1 KECCAK256 SLOAD PUSH32 0x97667070C54EF182B0F5858B034BEAC1B6F3089AA2D3188BB1E8929F4FA9B929 SWAP1 PUSH1 0xFF AND ISZERO PUSH2 0xC95 JUMPI POP JUMP JUMPDEST PUSH1 0x44 SWAP1 PUSH1 0x40 MLOAD SWAP1 PUSH4 0xE2517D3F PUSH1 0xE0 SHL DUP3 MSTORE CALLER PUSH1 0x4 DUP4 ADD MSTORE PUSH1 0x24 DUP3 ADD MSTORE REVERT JUMPDEST DUP1 PUSH1 0x0 MSTORE PUSH1 0x0 PUSH1 0x20 MSTORE PUSH1 0x40 PUSH1 0x0 KECCAK256 CALLER PUSH1 0x0 MSTORE PUSH1 0x20 MSTORE PUSH1 0xFF PUSH1 0x40 PUSH1 0x0 KECCAK256 SLOAD AND ISZERO PUSH2 0xC95 JUMPI POP JUMP JUMPDEST SWAP1 PUSH1 0x0 SWAP2 DUP1 DUP4 MSTORE DUP3 PUSH1 0x20 MSTORE PUSH1 0x40 DUP4 KECCAK256 SWAP2 PUSH1 0x1 DUP1 PUSH1 0xA0 SHL SUB AND SWAP2 DUP3 DUP5 MSTORE PUSH1 0x20 MSTORE PUSH1 0xFF PUSH1 0x40 DUP5 KECCAK256 SLOAD AND ISZERO PUSH1 0x0 EQ PUSH2 0xD52 JUMPI DUP1 DUP4 MSTORE DUP3 PUSH1 0x20 MSTORE PUSH1 0x40 DUP4 KECCAK256 DUP3 DUP5 MSTORE PUSH1 0x20 MSTORE PUSH1 0x40 DUP4 KECCAK256 PUSH1 0x1 PUSH1 0xFF NOT DUP3 SLOAD AND OR SWAP1 SSTORE PUSH32 0x2F8788117E7EFF1D82E926EC794901D17C78024A50270940304540A733656F0D CALLER SWAP4 DUP1 LOG4 PUSH1 0x1 SWAP1 JUMP JUMPDEST POP POP SWAP1 JUMP JUMPDEST SWAP1 PUSH1 0x0 SWAP2 DUP1 DUP4 MSTORE DUP3 PUSH1 0x20 MSTORE PUSH1 0x40 DUP4 KECCAK256 SWAP2 PUSH1 0x1 DUP1 PUSH1 0xA0 SHL SUB AND SWAP2 DUP3 DUP5 MSTORE PUSH1 0x20 MSTORE PUSH1 0xFF PUSH1 0x40 DUP5 KECCAK256 SLOAD AND PUSH1 0x0 EQ PUSH2 0xD52 JUMPI DUP1 DUP4 MSTORE DUP3 PUSH1 0x20 MSTORE PUSH1 0x40 DUP4 KECCAK256 DUP3 DUP5 MSTORE PUSH1 0x20 MSTORE PUSH1 0x40 DUP4 KECCAK256 PUSH1 0xFF NOT DUP2 SLOAD AND SWAP1 SSTORE PUSH32 0xF6391F5C32D9C69D2A47EA670B442974B53935D1EDC7FD64EB21E047A839171B CALLER SWAP4 DUP1 LOG4 PUSH1 0x1 SWAP1 JUMP INVALID LOG2 PUSH5 0x6970667358 0x22 SLT KECCAK256 SSTORE 0xD8 PUSH24 0x8CE86FB7E3CEFADE1F573873036BEFDB6F2BF33F4150C022 0x4F 0xD1 DUP11 GT 0x4E PUSH5 0x736F6C6343 STOP ADDMOD XOR STOP CALLER "},"methodIdentifiers":{"DEFAULT_ADMIN_ROLE()":"a217fddf","OPERATOR_ROLE()":"f5b541a6","addPoints(address,uint256,uint256)":"23d14d60","addPredictionBonus(address,uint256,bool)":"59fa543c","allUsers(uint256)":"a2bdedf4","getRoleAdmin(bytes32)":"248a9ca3","getTopUsers(uint256)":"de75aa6c","getUserCount()":"b5cb15f7","getUserPoints(address)":"aeefe31f","grantRole(bytes32,address)":"2f2ff15d","hasRole(bytes32,address)":"91d14854","renounceRole(bytes32,address)":"36568abe","resetAllWeeklyPoints()":"73140f05","resetWeeklyPoints(address[])":"93ccb2ad","resetWeeklyPointsBatch(uint256,uint256)":"8d101bc3","revokeRole(bytes32,address)":"d547741f","supportsInterface(bytes4)":"01ffc9a7","totalPointsIssued()":"fd1c8811","users(address)":"a87430ba"}}}}}