{"contracts/Staking.sol":{"Staking":{"abi":[{"inputs":[{"internalType":"address","name":"_oaiToken","type":"address"}],"stateMutability":"nonpayable","type":"constructor"},{"inputs":[{"internalType":"address","name":"owner","type":"address"}],"name":"OwnableInvalidOwner","type":"error"},{"inputs":[{"internalType":"address","name":"account","type":"address"}],"name":"OwnableUnauthorizedAccount","type":"error"},{"inputs":[],"name":"ReentrancyGuardReentrantCall","type":"error"},{"inputs":[{"internalType":"address","name":"token","type":"address"}],"name":"SafeERC20FailedOperation","type":"error"},{"anonymous":false,"inputs":[{"indexed":true,"internalType":"address","name":"previousOwner","type":"address"},{"indexed":true,"internalType":"address","name":"newOwner","type":"address"}],"name":"OwnershipTransferred","type":"event"},{"anonymous":false,"inputs":[{"indexed":true,"internalType":"address","name":"user","type":"address"},{"indexed":false,"internalType":"uint256","name":"amount","type":"uint256"},{"indexed":false,"internalType":"string","name":"tier","type":"string"}],"name":"Staked","type":"event"},{"anonymous":false,"inputs":[{"indexed":true,"internalType":"address","name":"user","type":"address"},{"indexed":false,"internalType":"uint256","name":"amount","type":"uint256"}],"name":"UnstakeRequested","type":"event"},{"anonymous":false,"inputs":[{"indexed":true,"internalType":"address","name":"user","type":"address"},{"indexed":false,"internalType":"uint256","name":"amount","type":"uint256"}],"name":"Unstaked","type":"event"},{"inputs":[],"name":"BRONZE_MIN","outputs":[{"internalType":"uint256","name":"","type":"uint256"}],"stateMutability":"view","type":"function"},{"inputs":[],"name":"DIAMOND_MIN","outputs":[{"internalType":"uint256","name":"","type":"uint256"}],"stateMutability":"view","type":"function"},{"inputs":[],"name":"GOLD_MIN","outputs":[{"internalType":"uint256","name":"","type":"uint256"}],"stateMutability":"view","type":"function"},{"inputs":[],"name":"SILVER_MIN","outputs":[{"internalType":"uint256","name":"","type":"uint256"}],"stateMutability":"view","type":"function"},{"inputs":[],"name":"UNSTAKE_COOLDOWN","outputs":[{"internalType":"uint256","name":"","type":"uint256"}],"stateMutability":"view","type":"function"},{"inputs":[{"internalType":"address","name":"user","type":"address"}],"name":"getPointsBoost","outputs":[{"internalType":"uint256","name":"","type":"uint256"}],"stateMutability":"view","type":"function"},{"inputs":[{"internalType":"address","name":"user","type":"address"}],"name":"getReferralBoost","outputs":[{"internalType":"uint256","name":"","type":"uint256"}],"stateMutability":"view","type":"function"},{"inputs":[{"internalType":"address","name":"user","type":"address"}],"name":"getStakeInfo","outputs":[{"components":[{"internalType":"uint256","name":"amount","type":"uint256"},{"internalType":"uint256","name":"stakedAt","type":"uint256"},{"internalType":"uint256","name":"unstakeRequestedAt","type":"uint256"},{"internalType":"uint256","name":"unstakeAmount","type":"uint256"}],"internalType":"struct Staking.StakeInfo","name":"","type":"tuple"}],"stateMutability":"view","type":"function"},{"inputs":[{"internalType":"address","name":"user","type":"address"}],"name":"getTier","outputs":[{"internalType":"uint8","name":"","type":"uint8"}],"stateMutability":"view","type":"function"},{"inputs":[{"internalType":"address","name":"user","type":"address"}],"name":"getTierName","outputs":[{"internalType":"string","name":"","type":"string"}],"stateMutability":"view","type":"function"},{"inputs":[],"name":"oaiToken","outputs":[{"internalType":"contract IERC20","name":"","type":"address"}],"stateMutability":"view","type":"function"},{"inputs":[],"name":"owner","outputs":[{"internalType":"address","name":"","type":"address"}],"stateMutability":"view","type":"function"},{"inputs":[],"name":"renounceOwnership","outputs":[],"stateMutability":"nonpayable","type":"function"},{"inputs":[{"internalType":"uint256","name":"amount","type":"uint256"}],"name":"requestUnstake","outputs":[],"stateMutability":"nonpayable","type":"function"},{"inputs":[{"internalType":"uint256","name":"amount","type":"uint256"}],"name":"stake","outputs":[],"stateMutability":"nonpayable","type":"function"},{"inputs":[{"internalType":"address","name":"","type":"address"}],"name":"stakes","outputs":[{"internalType":"uint256","name":"amount","type":"uint256"},{"internalType":"uint256","name":"stakedAt","type":"uint256"},{"internalType":"uint256","name":"unstakeRequestedAt","type":"uint256"},{"internalType":"uint256","name":"unstakeAmount","type":"uint256"}],"stateMutability":"view","type":"function"},{"inputs":[],"name":"totalStaked","outputs":[{"internalType":"uint256","name":"","type":"uint256"}],"stateMutability":"view","type":"function"},{"inputs":[],"name":"totalStakers","outputs":[{"internalType":"uint256","name":"","type":"uint256"}],"stateMutability":"view","type":"function"},{"inputs":[{"internalType":"address","name":"newOwner","type":"address"}],"name":"transferOwnership","outputs":[],"stateMutability":"nonpayable","type":"function"},{"inputs":[],"name":"unstake","outputs":[],"stateMutability":"nonpayable","type":"function"}],"evm":{"bytecode":{"linkReferences":{},"object":"6080346100ea57601f610e1c38819003918201601f19168301916001600160401b038311848410176100ef578084926020946040528339810103126100ea57516001600160a01b0390818116908190036100ea5733156100d15760005460018060a01b0319903382821617600055604051933391167f8be0079c531659141344cd1fd0a4f28419497f9722a3daafe3b4186f6b6457e0600080a360017f9b779b17422d0df92223018b32b4d1fa46e071723d6817e2486d003becc55f00556001541617600155610d1690816101068239f35b604051631e4fbdf760e01b815260006004820152602490fd5b600080fd5b634e487b7160e01b600052604160045260246000fdfe608060408181526004908136101561001657600080fd5b600092833560e01c9081630b60c58f146109125750806316934fc4146108b6578063230957211461080957806325220db7146107e45780632def66201461062b578063647ded05146105fa578063715018a6146105a0578063733d93fc1461057b578063817b1cd21461055c57806382ae17911461053357806386989038146105155780638da5cb5b146104ed5780638e7cb6a5146104b55780639ab1c8b91461046c578063a53d9d3a14610448578063a694fc3a1461028f578063b45aae5214610251578063bb40310f14610229578063c3453153146101905763f2fde38b1461010057600080fd5b3461018c57602036600319011261018c576001600160a01b0382358181169391929084900361018857610131610cb4565b831561017257505082546001600160a01b0319811683178455167f8be0079c531659141344cd1fd0a4f28419497f9722a3daafe3b4186f6b6457e08380a380f35b51631e4fbdf760e01b8152908101849052602490fd5b8480fd5b8280fd5b50903461018c57602036600319011261018c57356001600160a01b0381169081900361018c5782829160809460606101c6610acc565b828152826020820152828682015201528152600260205220906101e7610acc565b90825492838352600181015460208401908152606060036002840154938587019485520154940193845282519485525160208501525190830152516060820152f35b83823461024d578160031936011261024d576020905168056bc75e2d631000008152f35b5080fd5b50903461018c57602036600319011261018c5735916001600160a01b038316830361028c575060ff610284602093610bf9565b915191168152f35b80fd5b5082903461024d576020908160031936011261018c578335916102b0610c72565b6102bb83151561096f565b6001805483516323b872dd60e01b8752338852306024526044869052919491906001600160a01b0316838760648180855af18688511481161561042a575b828652876060521561041657505033855260058252828520805460ff8116156103bf575b5050907f78a806bb7699c94c8bf510c6ae4c7d16f8a7465865bee03d1a5d2c572f7c128b91338652600282528386206103578282546109a9565b90553386526002825242858588200155610373816003546109a9565b60035561039761038233610b22565b8580519485948552840152339583019061092f565b0390a27f9b779b17422d0df92223018b32b4d1fa46e071723d6817e2486d003becc55f005580f35b60ff1916851790558554600019811461040357840190955592938493907f78a806bb7699c94c8bf510c6ae4c7d16f8a7465865bee03d1a5d2c572f7c128b8761031d565b634e487b7160e01b865260118752602486fd5b635274afe760e01b82528188015260249150fd5b8681151661043f57813b15153d1516166102f9565b823d89823e3d90fd5b83823461024d578160031936011261024d5760209051683635c9adc5dea000008152f35b50903461018c57602036600319011261018c5735916001600160a01b038316830361028c575061049e6104b192610b22565b905191829160208352602083019061092f565b0390f35b50903461018c57602036600319011261018c5735916001600160a01b038316830361028c57506104e6602092610a56565b9051908152f35b83823461024d578160031936011261024d57905490516001600160a01b039091168152602090f35b50903461018c578260031936011261018c5760209250549051908152f35b83823461024d578160031936011261024d5760015490516001600160a01b039091168152602090f35b83823461024d578160031936011261024d576020906003549051908152f35b83823461024d578160031936011261024d576020905169021e19e0c9bab24000008152f35b833461028c578060031936011261028c576105b9610cb4565b80546001600160a01b03198116825581906001600160a01b03167f8be0079c531659141344cd1fd0a4f28419497f9722a3daafe3b4186f6b6457e08280a380f35b50903461018c57602036600319011261018c5735916001600160a01b038316830361028c57506104e66020926109d9565b503461018c578260031936011261018c57610644610c72565b338352600260205280832091600383019283549384156107ac576002820191825462093a8081018091116107995742106107645786929181610688888694546109cc565b90555555610698836003546109cc565b600355600154825163a9059cbb60e01b86523383526024859052916001600160a01b039091169060208660448180865af16001875114811615610745575b8385521561073257505050519081527f0f5bb82176feb1b5e747e28471aa92156a04d9f3ab9f45f28e2d704232b93f7560203392a260017f9b779b17422d0df92223018b32b4d1fa46e071723d6817e2486d003becc55f005580f35b635274afe760e01b835282015260249150fd5b600181151661075b57823b15153d1516166106d6565b833d88823e3d90fd5b845162461bcd60e51b8152602081860152600f60248201526e436f6f6c646f776e2061637469766560881b6044820152606490fd5b634e487b7160e01b885260118552602488fd5b835162461bcd60e51b815260208185015260126024820152714e6f20756e7374616b652070656e64696e6760701b6044820152606490fd5b83823461024d578160031936011261024d576020905169152d02c7e14af68000008152f35b503461018c57602036600319011261018c5781359161082983151561096f565b338452600260205282828520541061087f575033835260026020528160038285204260028201550155519081527f828764c21e74c28710e19919735825aba966621c95cbd913f8ed65a2d298f48c60203392a280f35b6020606492519162461bcd60e51b83528201526012602482015271496e73756666696369656e74207374616b6560701b6044820152fd5b50903461018c57602036600319011261018c57356001600160a01b0381169081900361018c5782829160809452600260205220908154916001810154916003600283015492015492815194855260208501528301526060820152f35b84903461024d578160031936011261024d578062093a8060209252f35b919082519283825260005b84811061095b575050826000602080949584010152601f8019910116010190565b60208183018101518483018201520161093a565b1561097657565b60405162461bcd60e51b815260206004820152600b60248201526a16995c9bc8185b5bdd5b9d60aa1b6044820152606490fd5b919082018092116109b657565b634e487b7160e01b600052601160045260246000fd5b919082039182116109b657565b6001600160a01b031660009081526002602052604090205469152d02c7e14af6800000811015610a4f5769021e19e0c9bab2400000811015610a4857683635c9adc5dea00000811015610a415768056bc75e2d631000001115610a3b57600090565b6103e890565b506107d090565b50610dac90565b5061138890565b6001600160a01b031660009081526002602052604090205469152d02c7e14af6800000811015610a415769021e19e0c9bab2400000811015610ac557683635c9adc5dea00000811015610abe5768056bc75e2d631000001115610ab857600090565b6101f490565b506103e890565b506105dc90565b604051906080820182811067ffffffffffffffff821117610aec57604052565b634e487b7160e01b600052604160045260246000fd5b604051906040820182811067ffffffffffffffff821117610aec57604052565b60018060a01b031660005260206002815260406000205469152d02c7e14af6800000811015610bda5769021e19e0c9bab2400000811015610bc957683635c9adc5dea00000811015610bb65768056bc75e2d631000001115610b9957634e6f6e6560e01b610b8e610b02565b916004835282015290565b6542726f6e7a6560d01b610bab610b02565b916006835282015290565b506529b4b63b32b960d11b610bab610b02565b506311dbdb1960e21b610b8e610b02565b5066111a585b5bdb9960ca1b610bee610b02565b916007835282015290565b6001600160a01b031660009081526002602052604090205469152d02c7e14af6800000811015610c6c5769021e19e0c9bab2400000811015610c6657683635c9adc5dea00000811015610c605768056bc75e2d631000001115610c5b57600090565b600190565b50600290565b50600390565b50600490565b7f9b779b17422d0df92223018b32b4d1fa46e071723d6817e2486d003becc55f006002815414610ca25760029055565b604051633ee5aeb560e01b8152600490fd5b6000546001600160a01b03163303610cc857565b60405163118cdaa760e01b8152336004820152602490fdfea264697066735822122001d940cc4204b72fe2ffe5af47f4d5fe0459415443b12d8005552e145f33186464736f6c63430008180033","opcodes":"PUSH1 0x80 CALLVALUE PUSH2 0xEA JUMPI PUSH1 0x1F PUSH2 0xE1C CODESIZE DUP2 SWAP1 SUB SWAP2 DUP3 ADD PUSH1 0x1F NOT AND DUP4 ADD SWAP2 PUSH1 0x1 PUSH1 0x1 PUSH1 0x40 SHL SUB DUP4 GT DUP5 DUP5 LT OR PUSH2 0xEF JUMPI DUP1 DUP5 SWAP3 PUSH1 0x20 SWAP5 PUSH1 0x40 MSTORE DUP4 CODECOPY DUP2 ADD SUB SLT PUSH2 0xEA JUMPI MLOAD PUSH1 0x1 PUSH1 0x1 PUSH1 0xA0 SHL SUB SWAP1 DUP2 DUP2 AND SWAP1 DUP2 SWAP1 SUB PUSH2 0xEA JUMPI CALLER ISZERO PUSH2 0xD1 JUMPI PUSH1 0x0 SLOAD PUSH1 0x1 DUP1 PUSH1 0xA0 SHL SUB NOT SWAP1 CALLER DUP3 DUP3 AND OR PUSH1 0x0 SSTORE PUSH1 0x40 MLOAD SWAP4 CALLER SWAP2 AND PUSH32 0x8BE0079C531659141344CD1FD0A4F28419497F9722A3DAAFE3B4186F6B6457E0 PUSH1 0x0 DUP1 LOG3 PUSH1 0x1 PUSH32 0x9B779B17422D0DF92223018B32B4D1FA46E071723D6817E2486D003BECC55F00 SSTORE PUSH1 0x1 SLOAD AND OR PUSH1 0x1 SSTORE PUSH2 0xD16 SWAP1 DUP2 PUSH2 0x106 DUP3 CODECOPY RETURN JUMPDEST PUSH1 0x40 MLOAD PUSH4 0x1E4FBDF7 PUSH1 0xE0 SHL DUP2 MSTORE PUSH1 0x0 PUSH1 0x4 DUP3 ADD MSTORE PUSH1 0x24 SWAP1 REVERT JUMPDEST PUSH1 0x0 DUP1 REVERT JUMPDEST PUSH4 0x4E487B71 PUSH1 0xE0 SHL PUSH1 0x0 MSTORE PUSH1 0x41 PUSH1 0x4 MSTORE PUSH1 0x24 PUSH1 0x0 REVERT INVALID PUSH1 0x80 PUSH1 0x40 DUP2 DUP2 MSTORE PUSH1 0x4 SWAP1 DUP2 CALLDATASIZE LT ISZERO PUSH2 0x16 JUMPI PUSH1 0x0 DUP1 REVERT JUMPDEST PUSH1 0x0 SWAP3 DUP4 CALLDATALOAD PUSH1 0xE0 SHR SWAP1 DUP2 PUSH4 0xB60C58F EQ PUSH2 0x912 JUMPI POP DUP1 PUSH4 0x16934FC4 EQ PUSH2 0x8B6 JUMPI DUP1 PUSH4 0x23095721 EQ PUSH2 0x809 JUMPI DUP1 PUSH4 0x25220DB7 EQ PUSH2 0x7E4 JUMPI DUP1 PUSH4 0x2DEF6620 EQ PUSH2 0x62B JUMPI DUP1 PUSH4 0x647DED05 EQ PUSH2 0x5FA JUMPI DUP1 PUSH4 0x715018A6 EQ PUSH2 0x5A0 JUMPI DUP1 PUSH4 0x733D93FC EQ PUSH2 0x57B JUMPI DUP1 PUSH4 0x817B1CD2 EQ PUSH2 0x55C JUMPI DUP1 PUSH4 0x82AE1791 EQ PUSH2 0x533 JUMPI DUP1 PUSH4 0x86989038 EQ PUSH2 0x515 JUMPI DUP1 PUSH4 0x8DA5CB5B EQ PUSH2 0x4ED JUMPI DUP1 PUSH4 0x8E7CB6A5 EQ PUSH2 0x4B5 JUMPI DUP1 PUSH4 0x9AB1C8B9 EQ PUSH2 0x46C JUMPI DUP1 PUSH4 0xA53D9D3A EQ PUSH2 0x448 JUMPI DUP1 PUSH4 0xA694FC3A EQ PUSH2 0x28F JUMPI DUP1 PUSH4 0xB45AAE52 EQ PUSH2 0x251 JUMPI DUP1 PUSH4 0xBB40310F EQ PUSH2 0x229 JUMPI DUP1 PUSH4 0xC3453153 EQ PUSH2 0x190 JUMPI PUSH4 0xF2FDE38B EQ PUSH2 0x100 JUMPI PUSH1 0x0 DUP1 REVERT JUMPDEST CALLVALUE PUSH2 0x18C JUMPI PUSH1 0x20 CALLDATASIZE PUSH1 0x3 NOT ADD SLT PUSH2 0x18C JUMPI PUSH1 0x1 PUSH1 0x1 PUSH1 0xA0 SHL SUB DUP3 CALLDATALOAD DUP2 DUP2 AND SWAP4 SWAP2 SWAP3 SWAP1 DUP5 SWAP1 SUB PUSH2 0x188 JUMPI PUSH2 0x131 PUSH2 0xCB4 JUMP JUMPDEST DUP4 ISZERO PUSH2 0x172 JUMPI POP POP DUP3 SLOAD PUSH1 0x1 PUSH1 0x1 PUSH1 0xA0 SHL SUB NOT DUP2 AND DUP4 OR DUP5 SSTORE AND PUSH32 0x8BE0079C531659141344CD1FD0A4F28419497F9722A3DAAFE3B4186F6B6457E0 DUP4 DUP1 LOG3 DUP1 RETURN JUMPDEST MLOAD PUSH4 0x1E4FBDF7 PUSH1 0xE0 SHL DUP2 MSTORE SWAP1 DUP2 ADD DUP5 SWAP1 MSTORE PUSH1 0x24 SWAP1 REVERT JUMPDEST DUP5 DUP1 REVERT JUMPDEST DUP3 DUP1 REVERT JUMPDEST POP SWAP1 CALLVALUE PUSH2 0x18C JUMPI PUSH1 0x20 CALLDATASIZE PUSH1 0x3 NOT ADD SLT PUSH2 0x18C JUMPI CALLDATALOAD PUSH1 0x1 PUSH1 0x1 PUSH1 0xA0 SHL SUB DUP2 AND SWAP1 DUP2 SWAP1 SUB PUSH2 0x18C JUMPI DUP3 DUP3 SWAP2 PUSH1 0x80 SWAP5 PUSH1 0x60 PUSH2 0x1C6 PUSH2 0xACC JUMP JUMPDEST DUP3 DUP2 MSTORE DUP3 PUSH1 0x20 DUP3 ADD MSTORE DUP3 DUP7 DUP3 ADD MSTORE ADD MSTORE DUP2 MSTORE PUSH1 0x2 PUSH1 0x20 MSTORE KECCAK256 SWAP1 PUSH2 0x1E7 PUSH2 0xACC JUMP JUMPDEST SWAP1 DUP3 SLOAD SWAP3 DUP4 DUP4 MSTORE PUSH1 0x1 DUP2 ADD SLOAD PUSH1 0x20 DUP5 ADD SWAP1 DUP2 MSTORE PUSH1 0x60 PUSH1 0x3 PUSH1 0x2 DUP5 ADD SLOAD SWAP4 DUP6 DUP8 ADD SWAP5 DUP6 MSTORE ADD SLOAD SWAP5 ADD SWAP4 DUP5 MSTORE DUP3 MLOAD SWAP5 DUP6 MSTORE MLOAD PUSH1 0x20 DUP6 ADD MSTORE MLOAD SWAP1 DUP4 ADD MSTORE MLOAD PUSH1 0x60 DUP3 ADD MSTORE RETURN JUMPDEST DUP4 DUP3 CALLVALUE PUSH2 0x24D JUMPI DUP2 PUSH1 0x3 NOT CALLDATASIZE ADD SLT PUSH2 0x24D JUMPI PUSH1 0x20 SWAP1 MLOAD PUSH9 0x56BC75E2D63100000 DUP2 MSTORE RETURN JUMPDEST POP DUP1 REVERT JUMPDEST POP SWAP1 CALLVALUE PUSH2 0x18C JUMPI PUSH1 0x20 CALLDATASIZE PUSH1 0x3 NOT ADD SLT PUSH2 0x18C JUMPI CALLDATALOAD SWAP2 PUSH1 0x1 PUSH1 0x1 PUSH1 0xA0 SHL SUB DUP4 AND DUP4 SUB PUSH2 0x28C JUMPI POP PUSH1 0xFF PUSH2 0x284 PUSH1 0x20 SWAP4 PUSH2 0xBF9 JUMP JUMPDEST SWAP2 MLOAD SWAP2 AND DUP2 MSTORE RETURN JUMPDEST DUP1 REVERT JUMPDEST POP DUP3 SWAP1 CALLVALUE PUSH2 0x24D JUMPI PUSH1 0x20 SWAP1 DUP2 PUSH1 0x3 NOT CALLDATASIZE ADD SLT PUSH2 0x18C JUMPI DUP4 CALLDATALOAD SWAP2 PUSH2 0x2B0 PUSH2 0xC72 JUMP JUMPDEST PUSH2 0x2BB DUP4 ISZERO ISZERO PUSH2 0x96F JUMP JUMPDEST PUSH1 0x1 DUP1 SLOAD DUP4 MLOAD PUSH4 0x23B872DD PUSH1 0xE0 SHL DUP8 MSTORE CALLER DUP9 MSTORE ADDRESS PUSH1 0x24 MSTORE PUSH1 0x44 DUP7 SWAP1 MSTORE SWAP2 SWAP5 SWAP2 SWAP1 PUSH1 0x1 PUSH1 0x1 PUSH1 0xA0 SHL SUB AND DUP4 DUP8 PUSH1 0x64 DUP2 DUP1 DUP6 GAS CALL DUP7 DUP9 MLOAD EQ DUP2 AND ISZERO PUSH2 0x42A JUMPI JUMPDEST DUP3 DUP7 MSTORE DUP8 PUSH1 0x60 MSTORE ISZERO PUSH2 0x416 JUMPI POP POP CALLER DUP6 MSTORE PUSH1 0x5 DUP3 MSTORE DUP3 DUP6 KECCAK256 DUP1 SLOAD PUSH1 0xFF DUP2 AND ISZERO PUSH2 0x3BF JUMPI JUMPDEST POP POP SWAP1 PUSH32 0x78A806BB7699C94C8BF510C6AE4C7D16F8A7465865BEE03D1A5D2C572F7C128B SWAP2 CALLER DUP7 MSTORE PUSH1 0x2 DUP3 MSTORE DUP4 DUP7 KECCAK256 PUSH2 0x357 DUP3 DUP3 SLOAD PUSH2 0x9A9 JUMP JUMPDEST SWAP1 SSTORE CALLER DUP7 MSTORE PUSH1 0x2 DUP3 MSTORE TIMESTAMP DUP6 DUP6 DUP9 KECCAK256 ADD SSTORE PUSH2 0x373 DUP2 PUSH1 0x3 SLOAD PUSH2 0x9A9 JUMP JUMPDEST PUSH1 0x3 SSTORE PUSH2 0x397 PUSH2 0x382 CALLER PUSH2 0xB22 JUMP JUMPDEST DUP6 DUP1 MLOAD SWAP5 DUP6 SWAP5 DUP6 MSTORE DUP5 ADD MSTORE CALLER SWAP6 DUP4 ADD SWAP1 PUSH2 0x92F JUMP JUMPDEST SUB SWAP1 LOG2 PUSH32 0x9B779B17422D0DF92223018B32B4D1FA46E071723D6817E2486D003BECC55F00 SSTORE DUP1 RETURN JUMPDEST PUSH1 0xFF NOT AND DUP6 OR SWAP1 SSTORE DUP6 SLOAD PUSH1 0x0 NOT DUP2 EQ PUSH2 0x403 JUMPI DUP5 ADD SWAP1 SWAP6 SSTORE SWAP3 SWAP4 DUP5 SWAP4 SWAP1 PUSH32 0x78A806BB7699C94C8BF510C6AE4C7D16F8A7465865BEE03D1A5D2C572F7C128B DUP8 PUSH2 0x31D JUMP JUMPDEST PUSH4 0x4E487B71 PUSH1 0xE0 SHL DUP7 MSTORE PUSH1 0x11 DUP8 MSTORE PUSH1 0x24 DUP7 REVERT JUMPDEST PUSH4 0x5274AFE7 PUSH1 0xE0 SHL DUP3 MSTORE DUP2 DUP9 ADD MSTORE PUSH1 0x24 SWAP2 POP REVERT JUMPDEST DUP7 DUP2 ISZERO AND PUSH2 0x43F JUMPI DUP2 EXTCODESIZE ISZERO ISZERO RETURNDATASIZE ISZERO AND AND PUSH2 0x2F9 JUMP JUMPDEST DUP3 RETURNDATASIZE DUP10 DUP3 RETURNDATACOPY RETURNDATASIZE SWAP1 REVERT JUMPDEST DUP4 DUP3 CALLVALUE PUSH2 0x24D JUMPI DUP2 PUSH1 0x3 NOT CALLDATASIZE ADD SLT PUSH2 0x24D JUMPI PUSH1 0x20 SWAP1 MLOAD PUSH9 0x3635C9ADC5DEA00000 DUP2 MSTORE RETURN JUMPDEST POP SWAP1 CALLVALUE PUSH2 0x18C JUMPI PUSH1 0x20 CALLDATASIZE PUSH1 0x3 NOT ADD SLT PUSH2 0x18C JUMPI CALLDATALOAD SWAP2 PUSH1 0x1 PUSH1 0x1 PUSH1 0xA0 SHL SUB DUP4 AND DUP4 SUB PUSH2 0x28C JUMPI POP PUSH2 0x49E PUSH2 0x4B1 SWAP3 PUSH2 0xB22 JUMP JUMPDEST SWAP1 MLOAD SWAP2 DUP3 SWAP2 PUSH1 0x20 DUP4 MSTORE PUSH1 0x20 DUP4 ADD SWAP1 PUSH2 0x92F JUMP JUMPDEST SUB SWAP1 RETURN JUMPDEST POP SWAP1 CALLVALUE PUSH2 0x18C JUMPI PUSH1 0x20 CALLDATASIZE PUSH1 0x3 NOT ADD SLT PUSH2 0x18C JUMPI CALLDATALOAD SWAP2 PUSH1 0x1 PUSH1 0x1 PUSH1 0xA0 SHL SUB DUP4 AND DUP4 SUB PUSH2 0x28C JUMPI POP PUSH2 0x4E6 PUSH1 0x20 SWAP3 PUSH2 0xA56 JUMP JUMPDEST SWAP1 MLOAD SWAP1 DUP2 MSTORE RETURN JUMPDEST DUP4 DUP3 CALLVALUE PUSH2 0x24D JUMPI DUP2 PUSH1 0x3 NOT CALLDATASIZE ADD SLT PUSH2 0x24D JUMPI SWAP1 SLOAD SWAP1 MLOAD PUSH1 0x1 PUSH1 0x1 PUSH1 0xA0 SHL SUB SWAP1 SWAP2 AND DUP2 MSTORE PUSH1 0x20 SWAP1 RETURN JUMPDEST POP SWAP1 CALLVALUE PUSH2 0x18C JUMPI DUP3 PUSH1 0x3 NOT CALLDATASIZE ADD SLT PUSH2 0x18C JUMPI PUSH1 0x20 SWAP3 POP SLOAD SWAP1 MLOAD SWAP1 DUP2 MSTORE RETURN JUMPDEST DUP4 DUP3 CALLVALUE PUSH2 0x24D JUMPI DUP2 PUSH1 0x3 NOT CALLDATASIZE ADD SLT PUSH2 0x24D JUMPI PUSH1 0x1 SLOAD SWAP1 MLOAD PUSH1 0x1 PUSH1 0x1 PUSH1 0xA0 SHL SUB SWAP1 SWAP2 AND DUP2 MSTORE PUSH1 0x20 SWAP1 RETURN JUMPDEST DUP4 DUP3 CALLVALUE PUSH2 0x24D JUMPI DUP2 PUSH1 0x3 NOT CALLDATASIZE ADD SLT PUSH2 0x24D JUMPI PUSH1 0x20 SWAP1 PUSH1 0x3 SLOAD SWAP1 MLOAD SWAP1 DUP2 MSTORE RETURN JUMPDEST DUP4 DUP3 CALLVALUE PUSH2 0x24D JUMPI DUP2 PUSH1 0x3 NOT CALLDATASIZE ADD SLT PUSH2 0x24D JUMPI PUSH1 0x20 SWAP1 MLOAD PUSH10 0x21E19E0C9BAB2400000 DUP2 MSTORE RETURN JUMPDEST DUP4 CALLVALUE PUSH2 0x28C JUMPI DUP1 PUSH1 0x3 NOT CALLDATASIZE ADD SLT PUSH2 0x28C JUMPI PUSH2 0x5B9 PUSH2 0xCB4 JUMP JUMPDEST DUP1 SLOAD PUSH1 0x1 PUSH1 0x1 PUSH1 0xA0 SHL SUB NOT DUP2 AND DUP3 SSTORE DUP2 SWAP1 PUSH1 0x1 PUSH1 0x1 PUSH1 0xA0 SHL SUB AND PUSH32 0x8BE0079C531659141344CD1FD0A4F28419497F9722A3DAAFE3B4186F6B6457E0 DUP3 DUP1 LOG3 DUP1 RETURN JUMPDEST POP SWAP1 CALLVALUE PUSH2 0x18C JUMPI PUSH1 0x20 CALLDATASIZE PUSH1 0x3 NOT ADD SLT PUSH2 0x18C JUMPI CALLDATALOAD SWAP2 PUSH1 0x1 PUSH1 0x1 PUSH1 0xA0 SHL SUB DUP4 AND DUP4 SUB PUSH2 0x28C JUMPI POP PUSH2 0x4E6 PUSH1 0x20 SWAP3 PUSH2 0x9D9 JUMP JUMPDEST POP CALLVALUE PUSH2 0x18C JUMPI DUP3 PUSH1 0x3 NOT CALLDATASIZE ADD SLT PUSH2 0x18C JUMPI PUSH2 0x644 PUSH2 0xC72 JUMP JUMPDEST CALLER DUP4 MSTORE PUSH1 0x2 PUSH1 0x20 MSTORE DUP1 DUP4 KECCAK256 SWAP2 PUSH1 0x3 DUP4 ADD SWAP3 DUP4 SLOAD SWAP4 DUP5 ISZERO PUSH2 0x7AC JUMPI PUSH1 0x2 DUP3 ADD SWAP2 DUP3 SLOAD PUSH3 0x93A80 DUP2 ADD DUP1 SWAP2 GT PUSH2 0x799 JUMPI TIMESTAMP LT PUSH2 0x764 JUMPI DUP7 SWAP3 SWAP2 DUP2 PUSH2 0x688 DUP9 DUP7 SWAP5 SLOAD PUSH2 0x9CC JUMP JUMPDEST SWAP1 SSTORE SSTORE SSTORE PUSH2 0x698 DUP4 PUSH1 0x3 SLOAD PUSH2 0x9CC JUMP JUMPDEST PUSH1 0x3 SSTORE PUSH1 0x1 SLOAD DUP3 MLOAD PUSH4 0xA9059CBB PUSH1 0xE0 SHL DUP7 MSTORE CALLER DUP4 MSTORE PUSH1 0x24 DUP6 SWAP1 MSTORE SWAP2 PUSH1 0x1 PUSH1 0x1 PUSH1 0xA0 SHL SUB SWAP1 SWAP2 AND SWAP1 PUSH1 0x20 DUP7 PUSH1 0x44 DUP2 DUP1 DUP7 GAS CALL PUSH1 0x1 DUP8 MLOAD EQ DUP2 AND ISZERO PUSH2 0x745 JUMPI JUMPDEST DUP4 DUP6 MSTORE ISZERO PUSH2 0x732 JUMPI POP POP POP MLOAD SWAP1 DUP2 MSTORE PUSH32 0xF5BB82176FEB1B5E747E28471AA92156A04D9F3AB9F45F28E2D704232B93F75 PUSH1 0x20 CALLER SWAP3 LOG2 PUSH1 0x1 PUSH32 0x9B779B17422D0DF92223018B32B4D1FA46E071723D6817E2486D003BECC55F00 SSTORE DUP1 RETURN JUMPDEST PUSH4 0x5274AFE7 PUSH1 0xE0 SHL DUP4 MSTORE DUP3 ADD MSTORE PUSH1 0x24 SWAP2 POP REVERT JUMPDEST PUSH1 0x1 DUP2 ISZERO AND PUSH2 0x75B JUMPI DUP3 EXTCODESIZE ISZERO ISZERO RETURNDATASIZE ISZERO AND AND PUSH2 0x6D6 JUMP JUMPDEST DUP4 RETURNDATASIZE DUP9 DUP3 RETURNDATACOPY RETURNDATASIZE SWAP1 REVERT JUMPDEST DUP5 MLOAD PUSH3 0x461BCD PUSH1 0xE5 SHL DUP2 MSTORE PUSH1 0x20 DUP2 DUP7 ADD MSTORE PUSH1 0xF PUSH1 0x24 DUP3 ADD MSTORE PUSH15 0x436F6F6C646F776E20616374697665 PUSH1 0x88 SHL PUSH1 0x44 DUP3 ADD MSTORE PUSH1 0x64 SWAP1 REVERT JUMPDEST PUSH4 0x4E487B71 PUSH1 0xE0 SHL DUP9 MSTORE PUSH1 0x11 DUP6 MSTORE PUSH1 0x24 DUP9 REVERT JUMPDEST DUP4 MLOAD PUSH3 0x461BCD PUSH1 0xE5 SHL DUP2 MSTORE PUSH1 0x20 DUP2 DUP6 ADD MSTORE PUSH1 0x12 PUSH1 0x24 DUP3 ADD MSTORE PUSH18 0x4E6F20756E7374616B652070656E64696E67 PUSH1 0x70 SHL PUSH1 0x44 DUP3 ADD MSTORE PUSH1 0x64 SWAP1 REVERT JUMPDEST DUP4 DUP3 CALLVALUE PUSH2 0x24D JUMPI DUP2 PUSH1 0x3 NOT CALLDATASIZE ADD SLT PUSH2 0x24D JUMPI PUSH1 0x20 SWAP1 MLOAD PUSH10 0x152D02C7E14AF6800000 DUP2 MSTORE RETURN JUMPDEST POP CALLVALUE PUSH2 0x18C JUMPI PUSH1 0x20 CALLDATASIZE PUSH1 0x3 NOT ADD SLT PUSH2 0x18C JUMPI DUP2 CALLDATALOAD SWAP2 PUSH2 0x829 DUP4 ISZERO ISZERO PUSH2 0x96F JUMP JUMPDEST CALLER DUP5 MSTORE PUSH1 0x2 PUSH1 0x20 MSTORE DUP3 DUP3 DUP6 KECCAK256 SLOAD LT PUSH2 0x87F JUMPI POP CALLER DUP4 MSTORE PUSH1 0x2 PUSH1 0x20 MSTORE DUP2 PUSH1 0x3 DUP3 DUP6 KECCAK256 TIMESTAMP PUSH1 0x2 DUP3 ADD SSTORE ADD SSTORE MLOAD SWAP1 DUP2 MSTORE PUSH32 0x828764C21E74C28710E19919735825ABA966621C95CBD913F8ED65A2D298F48C PUSH1 0x20 CALLER SWAP3 LOG2 DUP1 RETURN JUMPDEST PUSH1 0x20 PUSH1 0x64 SWAP3 MLOAD SWAP2 PUSH3 0x461BCD PUSH1 0xE5 SHL DUP4 MSTORE DUP3 ADD MSTORE PUSH1 0x12 PUSH1 0x24 DUP3 ADD MSTORE PUSH18 0x496E73756666696369656E74207374616B65 PUSH1 0x70 SHL PUSH1 0x44 DUP3 ADD MSTORE REVERT JUMPDEST POP SWAP1 CALLVALUE PUSH2 0x18C JUMPI PUSH1 0x20 CALLDATASIZE PUSH1 0x3 NOT ADD SLT PUSH2 0x18C JUMPI CALLDATALOAD PUSH1 0x1 PUSH1 0x1 PUSH1 0xA0 SHL SUB DUP2 AND SWAP1 DUP2 SWAP1 SUB PUSH2 0x18C JUMPI DUP3 DUP3 SWAP2 PUSH1 0x80 SWAP5 MSTORE PUSH1 0x2 PUSH1 0x20 MSTORE KECCAK256 SWAP1 DUP2 SLOAD SWAP2 PUSH1 0x1 DUP2 ADD SLOAD SWAP2 PUSH1 0x3 PUSH1 0x2 DUP4 ADD SLOAD SWAP3 ADD SLOAD SWAP3 DUP2 MLOAD SWAP5 DUP6 MSTORE PUSH1 0x20 DUP6 ADD MSTORE DUP4 ADD MSTORE PUSH1 0x60 DUP3 ADD MSTORE RETURN JUMPDEST DUP5 SWAP1 CALLVALUE PUSH2 0x24D JUMPI DUP2 PUSH1 0x3 NOT CALLDATASIZE ADD SLT PUSH2 0x24D JUMPI DUP1 PUSH3 0x93A80 PUSH1 0x20 SWAP3 MSTORE RETURN JUMPDEST SWAP2 SWAP1 DUP3 MLOAD SWAP3 DUP4 DUP3 MSTORE PUSH1 0x0 JUMPDEST DUP5 DUP2 LT PUSH2 0x95B JUMPI POP POP DUP3 PUSH1 0x0 PUSH1 0x20 DUP1 SWAP5 SWAP6 DUP5 ADD ADD MSTORE PUSH1 0x1F DUP1 NOT SWAP2 ADD AND ADD ADD SWAP1 JUMP JUMPDEST PUSH1 0x20 DUP2 DUP4 ADD DUP2 ADD MLOAD DUP5 DUP4 ADD DUP3 ADD MSTORE ADD PUSH2 0x93A JUMP JUMPDEST ISZERO PUSH2 0x976 JUMPI JUMP JUMPDEST PUSH1 0x40 MLOAD PUSH3 0x461BCD PUSH1 0xE5 SHL DUP2 MSTORE PUSH1 0x20 PUSH1 0x4 DUP3 ADD MSTORE PUSH1 0xB PUSH1 0x24 DUP3 ADD MSTORE PUSH11 0x16995C9BC8185B5BDD5B9D PUSH1 0xAA SHL PUSH1 0x44 DUP3 ADD MSTORE PUSH1 0x64 SWAP1 REVERT JUMPDEST SWAP2 SWAP1 DUP3 ADD DUP1 SWAP3 GT PUSH2 0x9B6 JUMPI JUMP JUMPDEST PUSH4 0x4E487B71 PUSH1 0xE0 SHL PUSH1 0x0 MSTORE PUSH1 0x11 PUSH1 0x4 MSTORE PUSH1 0x24 PUSH1 0x0 REVERT JUMPDEST SWAP2 SWAP1 DUP3 SUB SWAP2 DUP3 GT PUSH2 0x9B6 JUMPI JUMP JUMPDEST PUSH1 0x1 PUSH1 0x1 PUSH1 0xA0 SHL SUB AND PUSH1 0x0 SWAP1 DUP2 MSTORE PUSH1 0x2 PUSH1 0x20 MSTORE PUSH1 0x40 SWAP1 KECCAK256 SLOAD PUSH10 0x152D02C7E14AF6800000 DUP2 LT ISZERO PUSH2 0xA4F JUMPI PUSH10 0x21E19E0C9BAB2400000 DUP2 LT ISZERO PUSH2 0xA48 JUMPI PUSH9 0x3635C9ADC5DEA00000 DUP2 LT ISZERO PUSH2 0xA41 JUMPI PUSH9 0x56BC75E2D63100000 GT ISZERO PUSH2 0xA3B JUMPI PUSH1 0x0 SWAP1 JUMP JUMPDEST PUSH2 0x3E8 SWAP1 JUMP JUMPDEST POP PUSH2 0x7D0 SWAP1 JUMP JUMPDEST POP PUSH2 0xDAC SWAP1 JUMP JUMPDEST POP PUSH2 0x1388 SWAP1 JUMP JUMPDEST PUSH1 0x1 PUSH1 0x1 PUSH1 0xA0 SHL SUB AND PUSH1 0x0 SWAP1 DUP2 MSTORE PUSH1 0x2 PUSH1 0x20 MSTORE PUSH1 0x40 SWAP1 KECCAK256 SLOAD PUSH10 0x152D02C7E14AF6800000 DUP2 LT ISZERO PUSH2 0xA41 JUMPI PUSH10 0x21E19E0C9BAB2400000 DUP2 LT ISZERO PUSH2 0xAC5 JUMPI PUSH9 0x3635C9ADC5DEA00000 DUP2 LT ISZERO PUSH2 0xABE JUMPI PUSH9 0x56BC75E2D63100000 GT ISZERO PUSH2 0xAB8 JUMPI PUSH1 0x0 SWAP1 JUMP JUMPDEST PUSH2 0x1F4 SWAP1 JUMP JUMPDEST POP PUSH2 0x3E8 SWAP1 JUMP JUMPDEST POP PUSH2 0x5DC SWAP1 JUMP JUMPDEST PUSH1 0x40 MLOAD SWAP1 PUSH1 0x80 DUP3 ADD DUP3 DUP2 LT PUSH8 0xFFFFFFFFFFFFFFFF DUP3 GT OR PUSH2 0xAEC JUMPI PUSH1 0x40 MSTORE JUMP JUMPDEST PUSH4 0x4E487B71 PUSH1 0xE0 SHL PUSH1 0x0 MSTORE PUSH1 0x41 PUSH1 0x4 MSTORE PUSH1 0x24 PUSH1 0x0 REVERT JUMPDEST PUSH1 0x40 MLOAD SWAP1 PUSH1 0x40 DUP3 ADD DUP3 DUP2 LT PUSH8 0xFFFFFFFFFFFFFFFF DUP3 GT OR PUSH2 0xAEC JUMPI PUSH1 0x40 MSTORE JUMP JUMPDEST PUSH1 0x1 DUP1 PUSH1 0xA0 SHL SUB AND PUSH1 0x0 MSTORE PUSH1 0x20 PUSH1 0x2 DUP2 MSTORE PUSH1 0x40 PUSH1 0x0 KECCAK256 SLOAD PUSH10 0x152D02C7E14AF6800000 DUP2 LT ISZERO PUSH2 0xBDA JUMPI PUSH10 0x21E19E0C9BAB2400000 DUP2 LT ISZERO PUSH2 0xBC9 JUMPI PUSH9 0x3635C9ADC5DEA00000 DUP2 LT ISZERO PUSH2 0xBB6 JUMPI PUSH9 0x56BC75E2D63100000 GT ISZERO PUSH2 0xB99 JUMPI PUSH4 0x4E6F6E65 PUSH1 0xE0 SHL PUSH2 0xB8E PUSH2 0xB02 JUMP JUMPDEST SWAP2 PUSH1 0x4 DUP4 MSTORE DUP3 ADD MSTORE SWAP1 JUMP JUMPDEST PUSH6 0x42726F6E7A65 PUSH1 0xD0 SHL PUSH2 0xBAB PUSH2 0xB02 JUMP JUMPDEST SWAP2 PUSH1 0x6 DUP4 MSTORE DUP3 ADD MSTORE SWAP1 JUMP JUMPDEST POP PUSH6 0x29B4B63B32B9 PUSH1 0xD1 SHL PUSH2 0xBAB PUSH2 0xB02 JUMP JUMPDEST POP PUSH4 0x11DBDB19 PUSH1 0xE2 SHL PUSH2 0xB8E PUSH2 0xB02 JUMP JUMPDEST POP PUSH7 0x111A585B5BDB99 PUSH1 0xCA SHL PUSH2 0xBEE PUSH2 0xB02 JUMP JUMPDEST SWAP2 PUSH1 0x7 DUP4 MSTORE DUP3 ADD MSTORE SWAP1 JUMP JUMPDEST PUSH1 0x1 PUSH1 0x1 PUSH1 0xA0 SHL SUB AND PUSH1 0x0 SWAP1 DUP2 MSTORE PUSH1 0x2 PUSH1 0x20 MSTORE PUSH1 0x40 SWAP1 KECCAK256 SLOAD PUSH10 0x152D02C7E14AF6800000 DUP2 LT ISZERO PUSH2 0xC6C JUMPI PUSH10 0x21E19E0C9BAB2400000 DUP2 LT ISZERO PUSH2 0xC66 JUMPI PUSH9 0x3635C9ADC5DEA00000 DUP2 LT ISZERO PUSH2 0xC60 JUMPI PUSH9 0x56BC75E2D63100000 GT ISZERO PUSH2 0xC5B JUMPI PUSH1 0x0 SWAP1 JUMP JUMPDEST PUSH1 0x1 SWAP1 JUMP JUMPDEST POP PUSH1 0x2 SWAP1 JUMP JUMPDEST POP PUSH1 0x3 SWAP1 JUMP JUMPDEST POP PUSH1 0x4 SWAP1 JUMP JUMPDEST PUSH32 0x9B779B17422D0DF92223018B32B4D1FA46E071723D6817E2486D003BECC55F00 PUSH1 0x2 DUP2 SLOAD EQ PUSH2 0xCA2 JUMPI PUSH1 0x2 SWAP1 SSTORE JUMP JUMPDEST PUSH1 0x40 MLOAD PUSH4 0x3EE5AEB5 PUSH1 0xE0 SHL DUP2 MSTORE PUSH1 0x4 SWAP1 REVERT JUMPDEST PUSH1 0x0 SLOAD PUSH1 0x1 PUSH1 0x1 PUSH1 0xA0 SHL SUB AND CALLER SUB PUSH2 0xCC8 JUMPI JUMP JUMPDEST PUSH1 0x40 MLOAD PUSH4 0x118CDAA7 PUSH1 0xE0 SHL DUP2 MSTORE CALLER PUSH1 0x4 DUP3 ADD MSTORE PUSH1 0x24 SWAP1 REVERT INVALID LOG2 PUSH5 0x6970667358 0x22 SLT KECCAK256 ADD 0xD9 BLOCKHASH 0xCC TIMESTAMP DIV 0xB7 0x2F 0xE2 SELFDESTRUCT 0xE5 0xAF SELFBALANCE DELEGATECALL 0xD5 INVALID DIV MSIZE COINBASE SLOAD NUMBER 0xB1 0x2D DUP1 SDIV SSTORE 0x2E EQ PUSH0 CALLER XOR PUSH5 0x64736F6C63 NUMBER STOP ADDMOD XOR STOP CALLER "},"methodIdentifiers":{"BRONZE_MIN()":"bb40310f","DIAMOND_MIN()":"25220db7","GOLD_MIN()":"733d93fc","SILVER_MIN()":"a53d9d3a","UNSTAKE_COOLDOWN()":"0b60c58f","getPointsBoost(address)":"647ded05","getReferralBoost(address)":"8e7cb6a5","getStakeInfo(address)":"c3453153","getTier(address)":"b45aae52","getTierName(address)":"9ab1c8b9","oaiToken()":"82ae1791","owner()":"8da5cb5b","renounceOwnership()":"715018a6","requestUnstake(uint256)":"23095721","stake(uint256)":"a694fc3a","stakes(address)":"16934fc4","totalStaked()":"817b1cd2","totalStakers()":"86989038","transferOwnership(address)":"f2fde38b","unstake()":"2def6620"}}}}}