{"contracts/Referral.sol":{"Referral":{"abi":[{"inputs":[],"stateMutability":"nonpayable","type":"constructor"},{"inputs":[],"name":"AccessControlBadConfirmation","type":"error"},{"inputs":[{"internalType":"address","name":"account","type":"address"},{"internalType":"bytes32","name":"neededRole","type":"bytes32"}],"name":"AccessControlUnauthorizedAccount","type":"error"},{"inputs":[],"name":"ReentrancyGuardReentrantCall","type":"error"},{"anonymous":false,"inputs":[{"indexed":true,"internalType":"address","name":"referrer","type":"address"},{"indexed":true,"internalType":"address","name":"from","type":"address"},{"indexed":false,"internalType":"uint256","name":"level","type":"uint256"},{"indexed":false,"internalType":"uint256","name":"amount","type":"uint256"}],"name":"ReferralPaid","type":"event"},{"anonymous":false,"inputs":[{"indexed":true,"internalType":"address","name":"user","type":"address"},{"indexed":true,"internalType":"address","name":"referrer","type":"address"}],"name":"ReferralRegistered","type":"event"},{"anonymous":false,"inputs":[{"indexed":true,"internalType":"address","name":"user","type":"address"},{"indexed":false,"internalType":"uint256","name":"amount","type":"uint256"}],"name":"ReferralWithdrawn","type":"event"},{"anonymous":false,"inputs":[{"indexed":true,"internalType":"bytes32","name":"role","type":"bytes32"},{"indexed":true,"internalType":"bytes32","name":"previousAdminRole","type":"bytes32"},{"indexed":true,"internalType":"bytes32","name":"newAdminRole","type":"bytes32"}],"name":"RoleAdminChanged","type":"event"},{"anonymous":false,"inputs":[{"indexed":true,"internalType":"bytes32","name":"role","type":"bytes32"},{"indexed":true,"internalType":"address","name":"account","type":"address"},{"indexed":true,"internalType":"address","name":"sender","type":"address"}],"name":"RoleGranted","type":"event"},{"anonymous":false,"inputs":[{"indexed":true,"internalType":"bytes32","name":"role","type":"bytes32"},{"indexed":true,"internalType":"address","name":"account","type":"address"},{"indexed":true,"internalType":"address","name":"sender","type":"address"}],"name":"RoleRevoked","type":"event"},{"anonymous":false,"inputs":[{"indexed":true,"internalType":"address","name":"to","type":"address"},{"indexed":false,"internalType":"uint256","name":"amount","type":"uint256"}],"name":"UnallocatedWithdrawn","type":"event"},{"inputs":[],"name":"DEFAULT_ADMIN_ROLE","outputs":[{"internalType":"bytes32","name":"","type":"bytes32"}],"stateMutability":"view","type":"function"},{"inputs":[],"name":"MAX_DIRECT_REFERRALS","outputs":[{"internalType":"uint256","name":"","type":"uint256"}],"stateMutability":"view","type":"function"},{"inputs":[],"name":"MAX_LEVELS","outputs":[{"internalType":"uint256","name":"","type":"uint256"}],"stateMutability":"view","type":"function"},{"inputs":[],"name":"OPERATOR_ROLE","outputs":[{"internalType":"bytes32","name":"","type":"bytes32"}],"stateMutability":"view","type":"function"},{"inputs":[{"internalType":"address","name":"","type":"address"},{"internalType":"uint256","name":"","type":"uint256"}],"name":"directReferrals","outputs":[{"internalType":"address","name":"","type":"address"}],"stateMutability":"view","type":"function"},{"inputs":[{"internalType":"address","name":"user","type":"address"},{"internalType":"uint256","name":"totalReferralFee","type":"uint256"}],"name":"distributeReferralFees","outputs":[],"stateMutability":"payable","type":"function"},{"inputs":[{"internalType":"address","name":"user","type":"address"}],"name":"getDirectReferrals","outputs":[{"internalType":"address[]","name":"","type":"address[]"}],"stateMutability":"view","type":"function"},{"inputs":[{"internalType":"address","name":"user","type":"address"}],"name":"getReferralChain","outputs":[{"internalType":"address[6]","name":"chain","type":"address[6]"}],"stateMutability":"view","type":"function"},{"inputs":[{"internalType":"bytes32","name":"role","type":"bytes32"}],"name":"getRoleAdmin","outputs":[{"internalType":"bytes32","name":"","type":"bytes32"}],"stateMutability":"view","type":"function"},{"inputs":[{"internalType":"bytes32","name":"role","type":"bytes32"},{"internalType":"address","name":"account","type":"address"}],"name":"grantRole","outputs":[],"stateMutability":"nonpayable","type":"function"},{"inputs":[{"internalType":"address","name":"","type":"address"}],"name":"hasReferrer","outputs":[{"internalType":"bool","name":"","type":"bool"}],"stateMutability":"view","type":"function"},{"inputs":[{"internalType":"bytes32","name":"role","type":"bytes32"},{"internalType":"address","name":"account","type":"address"}],"name":"hasRole","outputs":[{"internalType":"bool","name":"","type":"bool"}],"stateMutability":"view","type":"function"},{"inputs":[{"internalType":"uint256","name":"","type":"uint256"}],"name":"levelPercents","outputs":[{"internalType":"uint256","name":"","type":"uint256"}],"stateMutability":"view","type":"function"},{"inputs":[{"internalType":"address","name":"","type":"address"}],"name":"pendingEarnings","outputs":[{"internalType":"uint256","name":"","type":"uint256"}],"stateMutability":"view","type":"function"},{"inputs":[{"internalType":"address","name":"","type":"address"}],"name":"referrer","outputs":[{"internalType":"address","name":"","type":"address"}],"stateMutability":"view","type":"function"},{"inputs":[{"internalType":"address","name":"user","type":"address"},{"internalType":"address","name":"ref","type":"address"}],"name":"registerReferral","outputs":[],"stateMutability":"nonpayable","type":"function"},{"inputs":[{"internalType":"bytes32","name":"role","type":"bytes32"},{"internalType":"address","name":"callerConfirmation","type":"address"}],"name":"renounceRole","outputs":[],"stateMutability":"nonpayable","type":"function"},{"inputs":[{"internalType":"bytes32","name":"role","type":"bytes32"},{"internalType":"address","name":"account","type":"address"}],"name":"revokeRole","outputs":[],"stateMutability":"nonpayable","type":"function"},{"inputs":[{"internalType":"address","name":"_staking","type":"address"}],"name":"setStakingContract","outputs":[],"stateMutability":"nonpayable","type":"function"},{"inputs":[],"name":"stakingContract","outputs":[{"internalType":"contract IStakingBoost","name":"","type":"address"}],"stateMutability":"view","type":"function"},{"inputs":[{"internalType":"bytes4","name":"interfaceId","type":"bytes4"}],"name":"supportsInterface","outputs":[{"internalType":"bool","name":"","type":"bool"}],"stateMutability":"view","type":"function"},{"inputs":[{"internalType":"address","name":"","type":"address"}],"name":"totalEarnings","outputs":[{"internalType":"uint256","name":"","type":"uint256"}],"stateMutability":"view","type":"function"},{"inputs":[],"name":"unallocatedFees","outputs":[{"internalType":"uint256","name":"","type":"uint256"}],"stateMutability":"view","type":"function"},{"inputs":[],"name":"withdrawReferralEarnings","outputs":[],"stateMutability":"nonpayable","type":"function"},{"inputs":[{"internalType":"address","name":"to","type":"address"},{"internalType":"uint256","name":"amount","type":"uint256"}],"name":"withdrawUnallocated","outputs":[],"stateMutability":"nonpayable","type":"function"},{"stateMutability":"payable","type":"receive"}],"evm":{"bytecode":{"linkReferences":{},"object":"6080346100be5760017f9b779b17422d0df92223018b32b4d1fa46e071723d6817e2486d003becc55f008190559060c081016001600160401b038111828210176100a8576040526064815260209060326020820152601e604082015260146060820152600f6080820152600a60a082015260005b6006811061009457610084336100c3565b5060405161119390816101548239f35b815160ff1690840190815590820190610073565b634e487b7160e01b600052604160045260246000fd5b600080fd5b6001600160a01b031660008181527fad3228b676f7d3cd4284a5443f17f1962b36e491b30a40b2405849e597ba5fb5602052604081205490919060ff1661014f57818052816020526040822081835260205260408220600160ff1982541617905533917f2f8788117e7eff1d82e926ec794901d17c78024a50270940304540a733656f0d8180a4600190565b509056fe60806040818152600480361015610021575b505050361561001f57600080fd5b005b600092833560e01c90816301ffc9a714610b7a5750806305ad393514610b2157806318452cd814610ae3578063248a9ca314610aba5780632a52fabc14610a755780632cf003c214610a3a5780632f2ff15d14610a115780633000e8e4146109d957806335fc1abc1461087557806336568abe1461082e578063451459f2146107315780635603b9f9146104d35780636667864d146103f25780636702c7bf146103d6578063851170051461039e5780638fe9cb301461037f57806391d148541461033a5780639dd373b9146102f2578063a217fddf146102d7578063d2c8e0e51461022d578063d547741f146101ef578063e58a2d5d146101d3578063ee99205c146101aa578063f5b541a61461016b5763fb987036036100115734610167576020366003190112610167573560068110156101675760209250600101549051908152f35b8280fd5b5050346101a657816003193601126101a657602090517f97667070c54ef182b0f5858b034beac1b6f3089aa2d3188bb1e8929f4fa9b9298152f35b5080fd5b5050346101a657816003193601126101a65760075490516001600160a01b039091168152602090f35b5050346101a657816003193601126101a6576020905160648152f35b50903461016757806003193601126101675761022991356102246001610213610be9565b938387528660205286200154610ff4565b6110c8565b5080f35b5050346101a657602080600319360112610167576001600160a01b039283610253610bce565b1681526009825282812091835190818185549182815201908195855282852090855b8181106102c1575050508261028b910383610c56565b8451948186019282875251809352850193925b8281106102ab5785850386f35b835187168552938101939281019260010161029e565b82548a1684529284019260019283019201610275565b5050346101a657816003193601126101a65751908152602090f35b83346103375760203660031901126103375761030c610bce565b610314610fba565b60018060a01b03166bffffffffffffffffffffffff60a01b600754161760075580f35b80fd5b50346101675781600319360112610167578160209360ff9261035a610be9565b903582528186528282206001600160a01b039091168252855220549151911615158152f35b5050346101a657816003193601126101a657602090600d549051908152f35b5050346101a65760203660031901126101a65760209181906001600160a01b036103c6610bce565b168152600b845220549051908152f35b5050346101a657816003193601126101a6576020905160068152f35b5090346101675760209060206003193601126104cf57610410610bce565b81519360c085019085821067ffffffffffffffff8311176104bc5750829594955260c036863783905b60068210610475575b5050519291835b600682106104565760c085f35b83516001600160a01b0316815292820192600191909101908201610449565b6001600160a01b039081168552600a84528285205494959460ff16156104b45760019060088552838720541691828160051b8701520190949394610439565b949394610442565b634e487b7160e01b875260419052602486fd5b8380fd5b5090346101675780600319360112610167576104ed610bce565b6104f5610be9565b926104fe610f40565b60018060a01b0380921692838652600a94602090600a825260ff80848a2054166106f757858216978888146106c457881561069157888a52600984526064926064868c205410156106565792878b945b600686106105f1575b505050878a525050600882525081872080546001600160a01b03191687179055600a8152818720805460ff19166001179055858752600990528520805491680100000000000000008310156104bc5750906105b791600182018155610bff565b819291549060031b9184831b921b19161790557f5f1ca2fcc108b751843a763e60d2201f593516109d7dbb1b700468f2d4190bb78380a380f35b16898114610626578b5281855282868c2054161561061f5760088552600188878d205416940193889061054e565b8781610557565b50855162461bcd60e51b8152808801869052600c60248201526b21b4b931bab630b9103932b360a11b6044820152fd5b855162461bcd60e51b8152808801869052601560248201527413585e081c9959995c9c985b1cc81c995858da1959605a1b6044820152606490fd5b845162461bcd60e51b8152808701859052600d60248201526c2d32b937903932b332b93932b960991b6044820152606490fd5b845162461bcd60e51b8152808701859052600d60248201526c14d95b198b5c9959995c9c985b609a1b6044820152606490fd5b835162461bcd60e51b8152808601849052601460248201527320b63932b0b23c903430b9903932b332b93932b960611b6044820152606490fd5b50903461016757826003193601126101675761074b61101a565b338352600c602052808320549182156107f557338452600c60205283828120558380808086335af161077b610f00565b50156107c15750519081527f8d38441deb8d3c27d5ddaa8308892edabf1c6556c655494ac56ab41f7d85220860203392a2600160008051602061113e8339815191525580f35b6020606492519162461bcd60e51b8352820152600f60248201526e15da5d1a191c985dc819985a5b1959608a1b6044820152fd5b6020606492519162461bcd60e51b835282015260146024820152734e6f20726566657272616c206561726e696e677360601b6044820152fd5b509190346101a657806003193601126101a657610849610be9565b90336001600160a01b0383160361086657506102299192356110c8565b5163334bd91960e11b81528390fd5b503461016757816003193601126101675761088e610bce565b916024359161089b610fba565b6108a361101a565b6001600160a01b0384169384156109a55783151580610999575b15610969578580808681946108d482600d54610c9b565b600d555af16108e1610f00565b501561092757507f3d1ba4dd8653665dacb4e2ace5ddb689de17dbf3b68949e86a4e818d8e979deb9160209151908152a2600160008051602061113e8339815191525580f35b6020606492519162461bcd60e51b8352820152601b60248201527f556e616c6c6f6361746564207472616e73666572206661696c656400000000006044820152fd5b506020606492519162461bcd60e51b8352820152600a60248201526910985908185b5bdd5b9d60b21b6044820152fd5b50600d548411156108bd565b506020606492519162461bcd60e51b8352820152600e60248201526d16995c9bc81c9958da5c1a595b9d60921b6044820152fd5b5050346101a65760203660031901126101a65760209181906001600160a01b03610a01610bce565b168152600c845220549051908152f35b5090346101675780600319360112610167576102299135610a356001610213610be9565b61104a565b5050346101a65760203660031901126101a6576020916001600160a01b0390829082610a64610bce565b168152600885522054169051908152f35b505036600319011261033757610aa5610a8c610bce565b610a94610f40565b610a9c61101a565b60243590610ca8565b600160008051602061113e8339815191525580f35b503461016757602036600319011261016757816020936001923581528085522001549051908152f35b5050346101a65760203660031901126101a65760209160ff9082906001600160a01b03610b0e610bce565b168152600a855220541690519015158152f35b5050346101a657806003193601126101a657610b3b610bce565b6001600160a01b0390811683526009602052818320805460243594908510156103375750602093610b6b91610bff565b92905490519260031b1c168152f35b92505034610167576020366003190112610167573563ffffffff60e01b81168091036101675760209250637965db0b60e01b8114908115610bbd575b5015158152f35b6301ffc9a760e01b14905038610bb6565b600435906001600160a01b0382168203610be457565b600080fd5b602435906001600160a01b0382168203610be457565b8054821015610c175760005260206000200190600090565b634e487b7160e01b600052603260045260246000fd5b81810292918115918404141715610c4057565b634e487b7160e01b600052601160045260246000fd5b90601f8019910116810190811067ffffffffffffffff821117610c7857604052565b634e487b7160e01b600052604160045260246000fd5b91908201809211610c4057565b91908203918211610c4057565b6001600160a01b03166000818152600a602052604090205491929160ff1615610efb5760086020526040600090812054909182916001600160a01b03165b600683108080610ee9575b15610edd5715610c17576103e8610d0c846001015488610c2d565b600754919004906001600160a01b031680610e42575b5080151580610e2f575b610da3575b506001600160a01b03166000908152600a602052604090205460ff1615610d795760086020526040600020546001600160a01b0316916000198114610c405760010191610ce6565b50509091505b348110610d895750565b610d96610d9e9134610c9b565b600d54610c8e565b600d55565b610dec8160018060a01b0384169687600052600c6020526040600020610dca838254610c8e565b905587600052600b6020526040600020610de5838254610c8e565b9055610c8e565b9460018501808611610c405760407f65db98422e8b7340e0d6dfa99bbadd4ba95a51fefafd8f0e1cbbb2e819429a4291869482519182526020820152a338610d31565b50610e3a8186610c8e565b341015610d2c565b604051638e7cb6a560e01b81526001600160a01b038416600482015290602090829060249082905afa908115610ed157600091610e9f575b508015610d225790612710918201808311610c4057610e9891610c2d565b0438610d22565b90506020813d602011610ec9575b81610eba60209383610c56565b81010312610be4575138610e7a565b3d9150610ead565b6040513d6000823e3d90fd5b50505050909150610d7f565b506001600160a01b0382161515610cf1565b509050565b3d15610f3b573d9067ffffffffffffffff8211610c785760405191610f2f601f8201601f191660200184610c56565b82523d6000602084013e565b606090565b3360009081527fee57cd81e84075558e8fcc182a1f4393f91fc97f963a136e66b7f949a62f319f60205260409020547f97667070c54ef182b0f5858b034beac1b6f3089aa2d3188bb1e8929f4fa9b9299060ff1615610f9c5750565b6044906040519063e2517d3f60e01b82523360048301526024820152fd5b3360009081527fad3228b676f7d3cd4284a5443f17f1962b36e491b30a40b2405849e597ba5fb5602052604081205460ff1615610f9c5750565b80600052600060205260406000203360005260205260ff6040600020541615610f9c5750565b60008051602061113e83398151915260028154146110385760029055565b604051633ee5aeb560e01b8152600490fd5b9060009180835282602052604083209160018060a01b03169182845260205260ff604084205416156000146110c357808352826020526040832082845260205260408320600160ff198254161790557f2f8788117e7eff1d82e926ec794901d17c78024a50270940304540a733656f0d339380a4600190565b505090565b9060009180835282602052604083209160018060a01b03169182845260205260ff6040842054166000146110c35780835282602052604083208284526020526040832060ff1981541690557ff6391f5c32d9c69d2a47ea670b442974b53935d1edc7fd64eb21e047a839171b339380a460019056fe9b779b17422d0df92223018b32b4d1fa46e071723d6817e2486d003becc55f00a2646970667358221220938868f1145b6cf32a319f102fb1e25b93a69590b9a278353f1bba5baf6af94464736f6c63430008180033","opcodes":"PUSH1 0x80 CALLVALUE PUSH2 0xBE JUMPI PUSH1 0x1 PUSH32 0x9B779B17422D0DF92223018B32B4D1FA46E071723D6817E2486D003BECC55F00 DUP2 SWAP1 SSTORE SWAP1 PUSH1 0xC0 DUP2 ADD PUSH1 0x1 PUSH1 0x1 PUSH1 0x40 SHL SUB DUP2 GT DUP3 DUP3 LT OR PUSH2 0xA8 JUMPI PUSH1 0x40 MSTORE PUSH1 0x64 DUP2 MSTORE PUSH1 0x20 SWAP1 PUSH1 0x32 PUSH1 0x20 DUP3 ADD MSTORE PUSH1 0x1E PUSH1 0x40 DUP3 ADD MSTORE PUSH1 0x14 PUSH1 0x60 DUP3 ADD MSTORE PUSH1 0xF PUSH1 0x80 DUP3 ADD MSTORE PUSH1 0xA PUSH1 0xA0 DUP3 ADD MSTORE PUSH1 0x0 JUMPDEST PUSH1 0x6 DUP2 LT PUSH2 0x94 JUMPI PUSH2 0x84 CALLER PUSH2 0xC3 JUMP JUMPDEST POP PUSH1 0x40 MLOAD PUSH2 0x1193 SWAP1 DUP2 PUSH2 0x154 DUP3 CODECOPY RETURN JUMPDEST DUP2 MLOAD PUSH1 0xFF AND SWAP1 DUP5 ADD SWAP1 DUP2 SSTORE SWAP1 DUP3 ADD SWAP1 PUSH2 0x73 JUMP JUMPDEST PUSH4 0x4E487B71 PUSH1 0xE0 SHL PUSH1 0x0 MSTORE PUSH1 0x41 PUSH1 0x4 MSTORE PUSH1 0x24 PUSH1 0x0 REVERT JUMPDEST PUSH1 0x0 DUP1 REVERT JUMPDEST PUSH1 0x1 PUSH1 0x1 PUSH1 0xA0 SHL SUB AND PUSH1 0x0 DUP2 DUP2 MSTORE PUSH32 0xAD3228B676F7D3CD4284A5443F17F1962B36E491B30A40B2405849E597BA5FB5 PUSH1 0x20 MSTORE PUSH1 0x40 DUP2 KECCAK256 SLOAD SWAP1 SWAP2 SWAP1 PUSH1 0xFF AND PUSH2 0x14F JUMPI DUP2 DUP1 MSTORE DUP2 PUSH1 0x20 MSTORE PUSH1 0x40 DUP3 KECCAK256 DUP2 DUP4 MSTORE PUSH1 0x20 MSTORE PUSH1 0x40 DUP3 KECCAK256 PUSH1 0x1 PUSH1 0xFF NOT DUP3 SLOAD AND OR SWAP1 SSTORE CALLER SWAP2 PUSH32 0x2F8788117E7EFF1D82E926EC794901D17C78024A50270940304540A733656F0D DUP2 DUP1 LOG4 PUSH1 0x1 SWAP1 JUMP JUMPDEST POP SWAP1 JUMP INVALID PUSH1 0x80 PUSH1 0x40 DUP2 DUP2 MSTORE PUSH1 0x4 DUP1 CALLDATASIZE LT ISZERO PUSH2 0x21 JUMPI JUMPDEST POP POP POP CALLDATASIZE ISZERO PUSH2 0x1F JUMPI PUSH1 0x0 DUP1 REVERT JUMPDEST STOP JUMPDEST PUSH1 0x0 SWAP3 DUP4 CALLDATALOAD PUSH1 0xE0 SHR SWAP1 DUP2 PUSH4 0x1FFC9A7 EQ PUSH2 0xB7A JUMPI POP DUP1 PUSH4 0x5AD3935 EQ PUSH2 0xB21 JUMPI DUP1 PUSH4 0x18452CD8 EQ PUSH2 0xAE3 JUMPI DUP1 PUSH4 0x248A9CA3 EQ PUSH2 0xABA JUMPI DUP1 PUSH4 0x2A52FABC EQ PUSH2 0xA75 JUMPI DUP1 PUSH4 0x2CF003C2 EQ PUSH2 0xA3A JUMPI DUP1 PUSH4 0x2F2FF15D EQ PUSH2 0xA11 JUMPI DUP1 PUSH4 0x3000E8E4 EQ PUSH2 0x9D9 JUMPI DUP1 PUSH4 0x35FC1ABC EQ PUSH2 0x875 JUMPI DUP1 PUSH4 0x36568ABE EQ PUSH2 0x82E JUMPI DUP1 PUSH4 0x451459F2 EQ PUSH2 0x731 JUMPI DUP1 PUSH4 0x5603B9F9 EQ PUSH2 0x4D3 JUMPI DUP1 PUSH4 0x6667864D EQ PUSH2 0x3F2 JUMPI DUP1 PUSH4 0x6702C7BF EQ PUSH2 0x3D6 JUMPI DUP1 PUSH4 0x85117005 EQ PUSH2 0x39E JUMPI DUP1 PUSH4 0x8FE9CB30 EQ PUSH2 0x37F JUMPI DUP1 PUSH4 0x91D14854 EQ PUSH2 0x33A JUMPI DUP1 PUSH4 0x9DD373B9 EQ PUSH2 0x2F2 JUMPI DUP1 PUSH4 0xA217FDDF EQ PUSH2 0x2D7 JUMPI DUP1 PUSH4 0xD2C8E0E5 EQ PUSH2 0x22D JUMPI DUP1 PUSH4 0xD547741F EQ PUSH2 0x1EF JUMPI DUP1 PUSH4 0xE58A2D5D EQ PUSH2 0x1D3 JUMPI DUP1 PUSH4 0xEE99205C EQ PUSH2 0x1AA JUMPI DUP1 PUSH4 0xF5B541A6 EQ PUSH2 0x16B JUMPI PUSH4 0xFB987036 SUB PUSH2 0x11 JUMPI CALLVALUE PUSH2 0x167 JUMPI PUSH1 0x20 CALLDATASIZE PUSH1 0x3 NOT ADD SLT PUSH2 0x167 JUMPI CALLDATALOAD PUSH1 0x6 DUP2 LT ISZERO PUSH2 0x167 JUMPI PUSH1 0x20 SWAP3 POP PUSH1 0x1 ADD SLOAD SWAP1 MLOAD SWAP1 DUP2 MSTORE RETURN JUMPDEST DUP3 DUP1 REVERT JUMPDEST POP POP CALLVALUE PUSH2 0x1A6 JUMPI DUP2 PUSH1 0x3 NOT CALLDATASIZE ADD SLT PUSH2 0x1A6 JUMPI PUSH1 0x20 SWAP1 MLOAD PUSH32 0x97667070C54EF182B0F5858B034BEAC1B6F3089AA2D3188BB1E8929F4FA9B929 DUP2 MSTORE RETURN JUMPDEST POP DUP1 REVERT JUMPDEST POP POP CALLVALUE PUSH2 0x1A6 JUMPI DUP2 PUSH1 0x3 NOT CALLDATASIZE ADD SLT PUSH2 0x1A6 JUMPI PUSH1 0x7 SLOAD SWAP1 MLOAD PUSH1 0x1 PUSH1 0x1 PUSH1 0xA0 SHL SUB SWAP1 SWAP2 AND DUP2 MSTORE PUSH1 0x20 SWAP1 RETURN JUMPDEST POP POP CALLVALUE PUSH2 0x1A6 JUMPI DUP2 PUSH1 0x3 NOT CALLDATASIZE ADD SLT PUSH2 0x1A6 JUMPI PUSH1 0x20 SWAP1 MLOAD PUSH1 0x64 DUP2 MSTORE RETURN JUMPDEST POP SWAP1 CALLVALUE PUSH2 0x167 JUMPI DUP1 PUSH1 0x3 NOT CALLDATASIZE ADD SLT PUSH2 0x167 JUMPI PUSH2 0x229 SWAP2 CALLDATALOAD PUSH2 0x224 PUSH1 0x1 PUSH2 0x213 PUSH2 0xBE9 JUMP JUMPDEST SWAP4 DUP4 DUP8 MSTORE DUP7 PUSH1 0x20 MSTORE DUP7 KECCAK256 ADD SLOAD PUSH2 0xFF4 JUMP JUMPDEST PUSH2 0x10C8 JUMP JUMPDEST POP DUP1 RETURN JUMPDEST POP POP CALLVALUE PUSH2 0x1A6 JUMPI PUSH1 0x20 DUP1 PUSH1 0x3 NOT CALLDATASIZE ADD SLT PUSH2 0x167 JUMPI PUSH1 0x1 PUSH1 0x1 PUSH1 0xA0 SHL SUB SWAP3 DUP4 PUSH2 0x253 PUSH2 0xBCE JUMP JUMPDEST AND DUP2 MSTORE PUSH1 0x9 DUP3 MSTORE DUP3 DUP2 KECCAK256 SWAP2 DUP4 MLOAD SWAP1 DUP2 DUP2 DUP6 SLOAD SWAP2 DUP3 DUP2 MSTORE ADD SWAP1 DUP2 SWAP6 DUP6 MSTORE DUP3 DUP6 KECCAK256 SWAP1 DUP6 JUMPDEST DUP2 DUP2 LT PUSH2 0x2C1 JUMPI POP POP POP DUP3 PUSH2 0x28B SWAP2 SUB DUP4 PUSH2 0xC56 JUMP JUMPDEST DUP5 MLOAD SWAP5 DUP2 DUP7 ADD SWAP3 DUP3 DUP8 MSTORE MLOAD DUP1 SWAP4 MSTORE DUP6 ADD SWAP4 SWAP3 JUMPDEST DUP3 DUP2 LT PUSH2 0x2AB JUMPI DUP6 DUP6 SUB DUP7 RETURN JUMPDEST DUP4 MLOAD DUP8 AND DUP6 MSTORE SWAP4 DUP2 ADD SWAP4 SWAP3 DUP2 ADD SWAP3 PUSH1 0x1 ADD PUSH2 0x29E JUMP JUMPDEST DUP3 SLOAD DUP11 AND DUP5 MSTORE SWAP3 DUP5 ADD SWAP3 PUSH1 0x1 SWAP3 DUP4 ADD SWAP3 ADD PUSH2 0x275 JUMP JUMPDEST POP POP CALLVALUE PUSH2 0x1A6 JUMPI DUP2 PUSH1 0x3 NOT CALLDATASIZE ADD SLT PUSH2 0x1A6 JUMPI MLOAD SWAP1 DUP2 MSTORE PUSH1 0x20 SWAP1 RETURN JUMPDEST DUP4 CALLVALUE PUSH2 0x337 JUMPI PUSH1 0x20 CALLDATASIZE PUSH1 0x3 NOT ADD SLT PUSH2 0x337 JUMPI PUSH2 0x30C PUSH2 0xBCE JUMP JUMPDEST PUSH2 0x314 PUSH2 0xFBA JUMP JUMPDEST PUSH1 0x1 DUP1 PUSH1 0xA0 SHL SUB AND PUSH12 0xFFFFFFFFFFFFFFFFFFFFFFFF PUSH1 0xA0 SHL PUSH1 0x7 SLOAD AND OR PUSH1 0x7 SSTORE DUP1 RETURN JUMPDEST DUP1 REVERT JUMPDEST POP CALLVALUE PUSH2 0x167 JUMPI DUP2 PUSH1 0x3 NOT CALLDATASIZE ADD SLT PUSH2 0x167 JUMPI DUP2 PUSH1 0x20 SWAP4 PUSH1 0xFF SWAP3 PUSH2 0x35A PUSH2 0xBE9 JUMP JUMPDEST SWAP1 CALLDATALOAD DUP3 MSTORE DUP2 DUP7 MSTORE DUP3 DUP3 KECCAK256 PUSH1 0x1 PUSH1 0x1 PUSH1 0xA0 SHL SUB SWAP1 SWAP2 AND DUP3 MSTORE DUP6 MSTORE KECCAK256 SLOAD SWAP2 MLOAD SWAP2 AND ISZERO ISZERO DUP2 MSTORE RETURN JUMPDEST POP POP CALLVALUE PUSH2 0x1A6 JUMPI DUP2 PUSH1 0x3 NOT CALLDATASIZE ADD SLT PUSH2 0x1A6 JUMPI PUSH1 0x20 SWAP1 PUSH1 0xD SLOAD SWAP1 MLOAD SWAP1 DUP2 MSTORE RETURN JUMPDEST POP POP CALLVALUE PUSH2 0x1A6 JUMPI PUSH1 0x20 CALLDATASIZE PUSH1 0x3 NOT ADD SLT PUSH2 0x1A6 JUMPI PUSH1 0x20 SWAP2 DUP2 SWAP1 PUSH1 0x1 PUSH1 0x1 PUSH1 0xA0 SHL SUB PUSH2 0x3C6 PUSH2 0xBCE JUMP JUMPDEST AND DUP2 MSTORE PUSH1 0xB DUP5 MSTORE KECCAK256 SLOAD SWAP1 MLOAD SWAP1 DUP2 MSTORE RETURN JUMPDEST POP POP CALLVALUE PUSH2 0x1A6 JUMPI DUP2 PUSH1 0x3 NOT CALLDATASIZE ADD SLT PUSH2 0x1A6 JUMPI PUSH1 0x20 SWAP1 MLOAD PUSH1 0x6 DUP2 MSTORE RETURN JUMPDEST POP SWAP1 CALLVALUE PUSH2 0x167 JUMPI PUSH1 0x20 SWAP1 PUSH1 0x20 PUSH1 0x3 NOT CALLDATASIZE ADD SLT PUSH2 0x4CF JUMPI PUSH2 0x410 PUSH2 0xBCE JUMP JUMPDEST DUP2 MLOAD SWAP4 PUSH1 0xC0 DUP6 ADD SWAP1 DUP6 DUP3 LT PUSH8 0xFFFFFFFFFFFFFFFF DUP4 GT OR PUSH2 0x4BC JUMPI POP DUP3 SWAP6 SWAP5 SWAP6 MSTORE PUSH1 0xC0 CALLDATASIZE DUP7 CALLDATACOPY DUP4 SWAP1 JUMPDEST PUSH1 0x6 DUP3 LT PUSH2 0x475 JUMPI JUMPDEST POP POP MLOAD SWAP3 SWAP2 DUP4 JUMPDEST PUSH1 0x6 DUP3 LT PUSH2 0x456 JUMPI PUSH1 0xC0 DUP6 RETURN JUMPDEST DUP4 MLOAD PUSH1 0x1 PUSH1 0x1 PUSH1 0xA0 SHL SUB AND DUP2 MSTORE SWAP3 DUP3 ADD SWAP3 PUSH1 0x1 SWAP2 SWAP1 SWAP2 ADD SWAP1 DUP3 ADD PUSH2 0x449 JUMP JUMPDEST PUSH1 0x1 PUSH1 0x1 PUSH1 0xA0 SHL SUB SWAP1 DUP2 AND DUP6 MSTORE PUSH1 0xA DUP5 MSTORE DUP3 DUP6 KECCAK256 SLOAD SWAP5 SWAP6 SWAP5 PUSH1 0xFF AND ISZERO PUSH2 0x4B4 JUMPI PUSH1 0x1 SWAP1 PUSH1 0x8 DUP6 MSTORE DUP4 DUP8 KECCAK256 SLOAD AND SWAP2 DUP3 DUP2 PUSH1 0x5 SHL DUP8 ADD MSTORE ADD SWAP1 SWAP5 SWAP4 SWAP5 PUSH2 0x439 JUMP JUMPDEST SWAP5 SWAP4 SWAP5 PUSH2 0x442 JUMP JUMPDEST PUSH4 0x4E487B71 PUSH1 0xE0 SHL DUP8 MSTORE PUSH1 0x41 SWAP1 MSTORE PUSH1 0x24 DUP7 REVERT JUMPDEST DUP4 DUP1 REVERT JUMPDEST POP SWAP1 CALLVALUE PUSH2 0x167 JUMPI DUP1 PUSH1 0x3 NOT CALLDATASIZE ADD SLT PUSH2 0x167 JUMPI PUSH2 0x4ED PUSH2 0xBCE JUMP JUMPDEST PUSH2 0x4F5 PUSH2 0xBE9 JUMP JUMPDEST SWAP3 PUSH2 0x4FE PUSH2 0xF40 JUMP JUMPDEST PUSH1 0x1 DUP1 PUSH1 0xA0 SHL SUB DUP1 SWAP3 AND SWAP3 DUP4 DUP7 MSTORE PUSH1 0xA SWAP5 PUSH1 0x20 SWAP1 PUSH1 0xA DUP3 MSTORE PUSH1 0xFF DUP1 DUP5 DUP11 KECCAK256 SLOAD AND PUSH2 0x6F7 JUMPI DUP6 DUP3 AND SWAP8 DUP9 DUP9 EQ PUSH2 0x6C4 JUMPI DUP9 ISZERO PUSH2 0x691 JUMPI DUP9 DUP11 MSTORE PUSH1 0x9 DUP5 MSTORE PUSH1 0x64 SWAP3 PUSH1 0x64 DUP7 DUP13 KECCAK256 SLOAD LT ISZERO PUSH2 0x656 JUMPI SWAP3 DUP8 DUP12 SWAP5 JUMPDEST PUSH1 0x6 DUP7 LT PUSH2 0x5F1 JUMPI JUMPDEST POP POP POP DUP8 DUP11 MSTORE POP POP PUSH1 0x8 DUP3 MSTORE POP DUP2 DUP8 KECCAK256 DUP1 SLOAD PUSH1 0x1 PUSH1 0x1 PUSH1 0xA0 SHL SUB NOT AND DUP8 OR SWAP1 SSTORE PUSH1 0xA DUP2 MSTORE DUP2 DUP8 KECCAK256 DUP1 SLOAD PUSH1 0xFF NOT AND PUSH1 0x1 OR SWAP1 SSTORE DUP6 DUP8 MSTORE PUSH1 0x9 SWAP1 MSTORE DUP6 KECCAK256 DUP1 SLOAD SWAP2 PUSH9 0x10000000000000000 DUP4 LT ISZERO PUSH2 0x4BC JUMPI POP SWAP1 PUSH2 0x5B7 SWAP2 PUSH1 0x1 DUP3 ADD DUP2 SSTORE PUSH2 0xBFF JUMP JUMPDEST DUP2 SWAP3 SWAP2 SLOAD SWAP1 PUSH1 0x3 SHL SWAP2 DUP5 DUP4 SHL SWAP3 SHL NOT AND OR SWAP1 SSTORE PUSH32 0x5F1CA2FCC108B751843A763E60D2201F593516109D7DBB1B700468F2D4190BB7 DUP4 DUP1 LOG3 DUP1 RETURN JUMPDEST AND DUP10 DUP2 EQ PUSH2 0x626 JUMPI DUP12 MSTORE DUP2 DUP6 MSTORE DUP3 DUP7 DUP13 KECCAK256 SLOAD AND ISZERO PUSH2 0x61F JUMPI PUSH1 0x8 DUP6 MSTORE PUSH1 0x1 DUP9 DUP8 DUP14 KECCAK256 SLOAD AND SWAP5 ADD SWAP4 DUP9 SWAP1 PUSH2 0x54E JUMP JUMPDEST DUP8 DUP2 PUSH2 0x557 JUMP JUMPDEST POP DUP6 MLOAD PUSH3 0x461BCD PUSH1 0xE5 SHL DUP2 MSTORE DUP1 DUP9 ADD DUP7 SWAP1 MSTORE PUSH1 0xC PUSH1 0x24 DUP3 ADD MSTORE PUSH12 0x21B4B931BAB630B9103932B3 PUSH1 0xA1 SHL PUSH1 0x44 DUP3 ADD MSTORE REVERT JUMPDEST DUP6 MLOAD PUSH3 0x461BCD PUSH1 0xE5 SHL DUP2 MSTORE DUP1 DUP9 ADD DUP7 SWAP1 MSTORE PUSH1 0x15 PUSH1 0x24 DUP3 ADD MSTORE PUSH21 0x13585E081C9959995C9C985B1CC81C995858DA1959 PUSH1 0x5A SHL PUSH1 0x44 DUP3 ADD MSTORE PUSH1 0x64 SWAP1 REVERT JUMPDEST DUP5 MLOAD PUSH3 0x461BCD PUSH1 0xE5 SHL DUP2 MSTORE DUP1 DUP8 ADD DUP6 SWAP1 MSTORE PUSH1 0xD PUSH1 0x24 DUP3 ADD MSTORE PUSH13 0x2D32B937903932B332B93932B9 PUSH1 0x99 SHL PUSH1 0x44 DUP3 ADD MSTORE PUSH1 0x64 SWAP1 REVERT JUMPDEST DUP5 MLOAD PUSH3 0x461BCD PUSH1 0xE5 SHL DUP2 MSTORE DUP1 DUP8 ADD DUP6 SWAP1 MSTORE PUSH1 0xD PUSH1 0x24 DUP3 ADD MSTORE PUSH13 0x14D95B198B5C9959995C9C985B PUSH1 0x9A SHL PUSH1 0x44 DUP3 ADD MSTORE PUSH1 0x64 SWAP1 REVERT JUMPDEST DUP4 MLOAD PUSH3 0x461BCD PUSH1 0xE5 SHL DUP2 MSTORE DUP1 DUP7 ADD DUP5 SWAP1 MSTORE PUSH1 0x14 PUSH1 0x24 DUP3 ADD MSTORE PUSH20 0x20B63932B0B23C903430B9903932B332B93932B9 PUSH1 0x61 SHL PUSH1 0x44 DUP3 ADD MSTORE PUSH1 0x64 SWAP1 REVERT JUMPDEST POP SWAP1 CALLVALUE PUSH2 0x167 JUMPI DUP3 PUSH1 0x3 NOT CALLDATASIZE ADD SLT PUSH2 0x167 JUMPI PUSH2 0x74B PUSH2 0x101A JUMP JUMPDEST CALLER DUP4 MSTORE PUSH1 0xC PUSH1 0x20 MSTORE DUP1 DUP4 KECCAK256 SLOAD SWAP2 DUP3 ISZERO PUSH2 0x7F5 JUMPI CALLER DUP5 MSTORE PUSH1 0xC PUSH1 0x20 MSTORE DUP4 DUP3 DUP2 KECCAK256 SSTORE DUP4 DUP1 DUP1 DUP1 DUP7 CALLER GAS CALL PUSH2 0x77B PUSH2 0xF00 JUMP JUMPDEST POP ISZERO PUSH2 0x7C1 JUMPI POP MLOAD SWAP1 DUP2 MSTORE PUSH32 0x8D38441DEB8D3C27D5DDAA8308892EDABF1C6556C655494AC56AB41F7D852208 PUSH1 0x20 CALLER SWAP3 LOG2 PUSH1 0x1 PUSH1 0x0 DUP1 MLOAD PUSH1 0x20 PUSH2 0x113E DUP4 CODECOPY DUP2 MLOAD SWAP2 MSTORE SSTORE DUP1 RETURN JUMPDEST PUSH1 0x20 PUSH1 0x64 SWAP3 MLOAD SWAP2 PUSH3 0x461BCD PUSH1 0xE5 SHL DUP4 MSTORE DUP3 ADD MSTORE PUSH1 0xF PUSH1 0x24 DUP3 ADD MSTORE PUSH15 0x15DA5D1A191C985DC819985A5B1959 PUSH1 0x8A SHL PUSH1 0x44 DUP3 ADD MSTORE REVERT JUMPDEST PUSH1 0x20 PUSH1 0x64 SWAP3 MLOAD SWAP2 PUSH3 0x461BCD PUSH1 0xE5 SHL DUP4 MSTORE DUP3 ADD MSTORE PUSH1 0x14 PUSH1 0x24 DUP3 ADD MSTORE PUSH20 0x4E6F20726566657272616C206561726E696E6773 PUSH1 0x60 SHL PUSH1 0x44 DUP3 ADD MSTORE REVERT JUMPDEST POP SWAP2 SWAP1 CALLVALUE PUSH2 0x1A6 JUMPI DUP1 PUSH1 0x3 NOT CALLDATASIZE ADD SLT PUSH2 0x1A6 JUMPI PUSH2 0x849 PUSH2 0xBE9 JUMP JUMPDEST SWAP1 CALLER PUSH1 0x1 PUSH1 0x1 PUSH1 0xA0 SHL SUB DUP4 AND SUB PUSH2 0x866 JUMPI POP PUSH2 0x229 SWAP2 SWAP3 CALLDATALOAD PUSH2 0x10C8 JUMP JUMPDEST MLOAD PUSH4 0x334BD919 PUSH1 0xE1 SHL DUP2 MSTORE DUP4 SWAP1 REVERT JUMPDEST POP CALLVALUE PUSH2 0x167 JUMPI DUP2 PUSH1 0x3 NOT CALLDATASIZE ADD SLT PUSH2 0x167 JUMPI PUSH2 0x88E PUSH2 0xBCE JUMP JUMPDEST SWAP2 PUSH1 0x24 CALLDATALOAD SWAP2 PUSH2 0x89B PUSH2 0xFBA JUMP JUMPDEST PUSH2 0x8A3 PUSH2 0x101A JUMP JUMPDEST PUSH1 0x1 PUSH1 0x1 PUSH1 0xA0 SHL SUB DUP5 AND SWAP4 DUP5 ISZERO PUSH2 0x9A5 JUMPI DUP4 ISZERO ISZERO DUP1 PUSH2 0x999 JUMPI JUMPDEST ISZERO PUSH2 0x969 JUMPI DUP6 DUP1 DUP1 DUP7 DUP2 SWAP5 PUSH2 0x8D4 DUP3 PUSH1 0xD SLOAD PUSH2 0xC9B JUMP JUMPDEST PUSH1 0xD SSTORE GAS CALL PUSH2 0x8E1 PUSH2 0xF00 JUMP JUMPDEST POP ISZERO PUSH2 0x927 JUMPI POP PUSH32 0x3D1BA4DD8653665DACB4E2ACE5DDB689DE17DBF3B68949E86A4E818D8E979DEB SWAP2 PUSH1 0x20 SWAP2 MLOAD SWAP1 DUP2 MSTORE LOG2 PUSH1 0x1 PUSH1 0x0 DUP1 MLOAD PUSH1 0x20 PUSH2 0x113E DUP4 CODECOPY DUP2 MLOAD SWAP2 MSTORE SSTORE DUP1 RETURN JUMPDEST PUSH1 0x20 PUSH1 0x64 SWAP3 MLOAD SWAP2 PUSH3 0x461BCD PUSH1 0xE5 SHL DUP4 MSTORE DUP3 ADD MSTORE PUSH1 0x1B PUSH1 0x24 DUP3 ADD MSTORE PUSH32 0x556E616C6C6F6361746564207472616E73666572206661696C65640000000000 PUSH1 0x44 DUP3 ADD MSTORE REVERT JUMPDEST POP PUSH1 0x20 PUSH1 0x64 SWAP3 MLOAD SWAP2 PUSH3 0x461BCD PUSH1 0xE5 SHL DUP4 MSTORE DUP3 ADD MSTORE PUSH1 0xA PUSH1 0x24 DUP3 ADD MSTORE PUSH10 0x10985908185B5BDD5B9D PUSH1 0xB2 SHL PUSH1 0x44 DUP3 ADD MSTORE REVERT JUMPDEST POP PUSH1 0xD SLOAD DUP5 GT ISZERO PUSH2 0x8BD JUMP JUMPDEST POP PUSH1 0x20 PUSH1 0x64 SWAP3 MLOAD SWAP2 PUSH3 0x461BCD PUSH1 0xE5 SHL DUP4 MSTORE DUP3 ADD MSTORE PUSH1 0xE PUSH1 0x24 DUP3 ADD MSTORE PUSH14 0x16995C9BC81C9958DA5C1A595B9D PUSH1 0x92 SHL PUSH1 0x44 DUP3 ADD MSTORE REVERT JUMPDEST POP POP CALLVALUE PUSH2 0x1A6 JUMPI PUSH1 0x20 CALLDATASIZE PUSH1 0x3 NOT ADD SLT PUSH2 0x1A6 JUMPI PUSH1 0x20 SWAP2 DUP2 SWAP1 PUSH1 0x1 PUSH1 0x1 PUSH1 0xA0 SHL SUB PUSH2 0xA01 PUSH2 0xBCE JUMP JUMPDEST AND DUP2 MSTORE PUSH1 0xC DUP5 MSTORE KECCAK256 SLOAD SWAP1 MLOAD SWAP1 DUP2 MSTORE RETURN JUMPDEST POP SWAP1 CALLVALUE PUSH2 0x167 JUMPI DUP1 PUSH1 0x3 NOT CALLDATASIZE ADD SLT PUSH2 0x167 JUMPI PUSH2 0x229 SWAP2 CALLDATALOAD PUSH2 0xA35 PUSH1 0x1 PUSH2 0x213 PUSH2 0xBE9 JUMP JUMPDEST PUSH2 0x104A JUMP JUMPDEST POP POP CALLVALUE PUSH2 0x1A6 JUMPI PUSH1 0x20 CALLDATASIZE PUSH1 0x3 NOT ADD SLT PUSH2 0x1A6 JUMPI PUSH1 0x20 SWAP2 PUSH1 0x1 PUSH1 0x1 PUSH1 0xA0 SHL SUB SWAP1 DUP3 SWAP1 DUP3 PUSH2 0xA64 PUSH2 0xBCE JUMP JUMPDEST AND DUP2 MSTORE PUSH1 0x8 DUP6 MSTORE KECCAK256 SLOAD AND SWAP1 MLOAD SWAP1 DUP2 MSTORE RETURN JUMPDEST POP POP CALLDATASIZE PUSH1 0x3 NOT ADD SLT PUSH2 0x337 JUMPI PUSH2 0xAA5 PUSH2 0xA8C PUSH2 0xBCE JUMP JUMPDEST PUSH2 0xA94 PUSH2 0xF40 JUMP JUMPDEST PUSH2 0xA9C PUSH2 0x101A JUMP JUMPDEST PUSH1 0x24 CALLDATALOAD SWAP1 PUSH2 0xCA8 JUMP JUMPDEST PUSH1 0x1 PUSH1 0x0 DUP1 MLOAD PUSH1 0x20 PUSH2 0x113E DUP4 CODECOPY DUP2 MLOAD SWAP2 MSTORE SSTORE DUP1 RETURN JUMPDEST POP CALLVALUE PUSH2 0x167 JUMPI PUSH1 0x20 CALLDATASIZE PUSH1 0x3 NOT ADD SLT PUSH2 0x167 JUMPI DUP2 PUSH1 0x20 SWAP4 PUSH1 0x1 SWAP3 CALLDATALOAD DUP2 MSTORE DUP1 DUP6 MSTORE KECCAK256 ADD SLOAD SWAP1 MLOAD SWAP1 DUP2 MSTORE RETURN JUMPDEST POP POP CALLVALUE PUSH2 0x1A6 JUMPI PUSH1 0x20 CALLDATASIZE PUSH1 0x3 NOT ADD SLT PUSH2 0x1A6 JUMPI PUSH1 0x20 SWAP2 PUSH1 0xFF SWAP1 DUP3 SWAP1 PUSH1 0x1 PUSH1 0x1 PUSH1 0xA0 SHL SUB PUSH2 0xB0E PUSH2 0xBCE JUMP JUMPDEST AND DUP2 MSTORE PUSH1 0xA DUP6 MSTORE KECCAK256 SLOAD AND SWAP1 MLOAD SWAP1 ISZERO ISZERO DUP2 MSTORE RETURN JUMPDEST POP POP CALLVALUE PUSH2 0x1A6 JUMPI DUP1 PUSH1 0x3 NOT CALLDATASIZE ADD SLT PUSH2 0x1A6 JUMPI PUSH2 0xB3B PUSH2 0xBCE JUMP JUMPDEST PUSH1 0x1 PUSH1 0x1 PUSH1 0xA0 SHL SUB SWAP1 DUP2 AND DUP4 MSTORE PUSH1 0x9 PUSH1 0x20 MSTORE DUP2 DUP4 KECCAK256 DUP1 SLOAD PUSH1 0x24 CALLDATALOAD SWAP5 SWAP1 DUP6 LT ISZERO PUSH2 0x337 JUMPI POP PUSH1 0x20 SWAP4 PUSH2 0xB6B SWAP2 PUSH2 0xBFF JUMP JUMPDEST SWAP3 SWAP1 SLOAD SWAP1 MLOAD SWAP3 PUSH1 0x3 SHL SHR AND DUP2 MSTORE RETURN JUMPDEST SWAP3 POP POP CALLVALUE PUSH2 0x167 JUMPI PUSH1 0x20 CALLDATASIZE PUSH1 0x3 NOT ADD SLT PUSH2 0x167 JUMPI CALLDATALOAD PUSH4 0xFFFFFFFF PUSH1 0xE0 SHL DUP2 AND DUP1 SWAP2 SUB PUSH2 0x167 JUMPI PUSH1 0x20 SWAP3 POP PUSH4 0x7965DB0B PUSH1 0xE0 SHL DUP2 EQ SWAP1 DUP2 ISZERO PUSH2 0xBBD JUMPI JUMPDEST POP ISZERO ISZERO DUP2 MSTORE RETURN JUMPDEST PUSH4 0x1FFC9A7 PUSH1 0xE0 SHL EQ SWAP1 POP CODESIZE PUSH2 0xBB6 JUMP JUMPDEST PUSH1 0x4 CALLDATALOAD SWAP1 PUSH1 0x1 PUSH1 0x1 PUSH1 0xA0 SHL SUB DUP3 AND DUP3 SUB PUSH2 0xBE4 JUMPI JUMP JUMPDEST PUSH1 0x0 DUP1 REVERT JUMPDEST PUSH1 0x24 CALLDATALOAD SWAP1 PUSH1 0x1 PUSH1 0x1 PUSH1 0xA0 SHL SUB DUP3 AND DUP3 SUB PUSH2 0xBE4 JUMPI JUMP JUMPDEST DUP1 SLOAD DUP3 LT ISZERO PUSH2 0xC17 JUMPI PUSH1 0x0 MSTORE PUSH1 0x20 PUSH1 0x0 KECCAK256 ADD SWAP1 PUSH1 0x0 SWAP1 JUMP JUMPDEST PUSH4 0x4E487B71 PUSH1 0xE0 SHL PUSH1 0x0 MSTORE PUSH1 0x32 PUSH1 0x4 MSTORE PUSH1 0x24 PUSH1 0x0 REVERT JUMPDEST DUP2 DUP2 MUL SWAP3 SWAP2 DUP2 ISZERO SWAP2 DUP5 DIV EQ OR ISZERO PUSH2 0xC40 JUMPI JUMP JUMPDEST PUSH4 0x4E487B71 PUSH1 0xE0 SHL PUSH1 0x0 MSTORE PUSH1 0x11 PUSH1 0x4 MSTORE PUSH1 0x24 PUSH1 0x0 REVERT JUMPDEST SWAP1 PUSH1 0x1F DUP1 NOT SWAP2 ADD AND DUP2 ADD SWAP1 DUP2 LT PUSH8 0xFFFFFFFFFFFFFFFF DUP3 GT OR PUSH2 0xC78 JUMPI PUSH1 0x40 MSTORE JUMP JUMPDEST PUSH4 0x4E487B71 PUSH1 0xE0 SHL PUSH1 0x0 MSTORE PUSH1 0x41 PUSH1 0x4 MSTORE PUSH1 0x24 PUSH1 0x0 REVERT JUMPDEST SWAP2 SWAP1 DUP3 ADD DUP1 SWAP3 GT PUSH2 0xC40 JUMPI JUMP JUMPDEST SWAP2 SWAP1 DUP3 SUB SWAP2 DUP3 GT PUSH2 0xC40 JUMPI JUMP JUMPDEST PUSH1 0x1 PUSH1 0x1 PUSH1 0xA0 SHL SUB AND PUSH1 0x0 DUP2 DUP2 MSTORE PUSH1 0xA PUSH1 0x20 MSTORE PUSH1 0x40 SWAP1 KECCAK256 SLOAD SWAP2 SWAP3 SWAP2 PUSH1 0xFF AND ISZERO PUSH2 0xEFB JUMPI PUSH1 0x8 PUSH1 0x20 MSTORE PUSH1 0x40 PUSH1 0x0 SWAP1 DUP2 KECCAK256 SLOAD SWAP1 SWAP2 DUP3 SWAP2 PUSH1 0x1 PUSH1 0x1 PUSH1 0xA0 SHL SUB AND JUMPDEST PUSH1 0x6 DUP4 LT DUP1 DUP1 PUSH2 0xEE9 JUMPI JUMPDEST ISZERO PUSH2 0xEDD JUMPI ISZERO PUSH2 0xC17 JUMPI PUSH2 0x3E8 PUSH2 0xD0C DUP5 PUSH1 0x1 ADD SLOAD DUP9 PUSH2 0xC2D JUMP JUMPDEST PUSH1 0x7 SLOAD SWAP2 SWAP1 DIV SWAP1 PUSH1 0x1 PUSH1 0x1 PUSH1 0xA0 SHL SUB AND DUP1 PUSH2 0xE42 JUMPI JUMPDEST POP DUP1 ISZERO ISZERO DUP1 PUSH2 0xE2F JUMPI JUMPDEST PUSH2 0xDA3 JUMPI JUMPDEST POP PUSH1 0x1 PUSH1 0x1 PUSH1 0xA0 SHL SUB AND PUSH1 0x0 SWAP1 DUP2 MSTORE PUSH1 0xA PUSH1 0x20 MSTORE PUSH1 0x40 SWAP1 KECCAK256 SLOAD PUSH1 0xFF AND ISZERO PUSH2 0xD79 JUMPI PUSH1 0x8 PUSH1 0x20 MSTORE PUSH1 0x40 PUSH1 0x0 KECCAK256 SLOAD PUSH1 0x1 PUSH1 0x1 PUSH1 0xA0 SHL SUB AND SWAP2 PUSH1 0x0 NOT DUP2 EQ PUSH2 0xC40 JUMPI PUSH1 0x1 ADD SWAP2 PUSH2 0xCE6 JUMP JUMPDEST POP POP SWAP1 SWAP2 POP JUMPDEST CALLVALUE DUP2 LT PUSH2 0xD89 JUMPI POP JUMP JUMPDEST PUSH2 0xD96 PUSH2 0xD9E SWAP2 CALLVALUE PUSH2 0xC9B JUMP JUMPDEST PUSH1 0xD SLOAD PUSH2 0xC8E JUMP JUMPDEST PUSH1 0xD SSTORE JUMP JUMPDEST PUSH2 0xDEC DUP2 PUSH1 0x1 DUP1 PUSH1 0xA0 SHL SUB DUP5 AND SWAP7 DUP8 PUSH1 0x0 MSTORE PUSH1 0xC PUSH1 0x20 MSTORE PUSH1 0x40 PUSH1 0x0 KECCAK256 PUSH2 0xDCA DUP4 DUP3 SLOAD PUSH2 0xC8E JUMP JUMPDEST SWAP1 SSTORE DUP8 PUSH1 0x0 MSTORE PUSH1 0xB PUSH1 0x20 MSTORE PUSH1 0x40 PUSH1 0x0 KECCAK256 PUSH2 0xDE5 DUP4 DUP3 SLOAD PUSH2 0xC8E JUMP JUMPDEST SWAP1 SSTORE PUSH2 0xC8E JUMP JUMPDEST SWAP5 PUSH1 0x1 DUP6 ADD DUP1 DUP7 GT PUSH2 0xC40 JUMPI PUSH1 0x40 PUSH32 0x65DB98422E8B7340E0D6DFA99BBADD4BA95A51FEFAFD8F0E1CBBB2E819429A42 SWAP2 DUP7 SWAP5 DUP3 MLOAD SWAP2 DUP3 MSTORE PUSH1 0x20 DUP3 ADD MSTORE LOG3 CODESIZE PUSH2 0xD31 JUMP JUMPDEST POP PUSH2 0xE3A DUP2 DUP7 PUSH2 0xC8E JUMP JUMPDEST CALLVALUE LT ISZERO PUSH2 0xD2C JUMP JUMPDEST PUSH1 0x40 MLOAD PUSH4 0x8E7CB6A5 PUSH1 0xE0 SHL DUP2 MSTORE PUSH1 0x1 PUSH1 0x1 PUSH1 0xA0 SHL SUB DUP5 AND PUSH1 0x4 DUP3 ADD MSTORE SWAP1 PUSH1 0x20 SWAP1 DUP3 SWAP1 PUSH1 0x24 SWAP1 DUP3 SWAP1 GAS STATICCALL SWAP1 DUP2 ISZERO PUSH2 0xED1 JUMPI PUSH1 0x0 SWAP2 PUSH2 0xE9F JUMPI JUMPDEST POP DUP1 ISZERO PUSH2 0xD22 JUMPI SWAP1 PUSH2 0x2710 SWAP2 DUP3 ADD DUP1 DUP4 GT PUSH2 0xC40 JUMPI PUSH2 0xE98 SWAP2 PUSH2 0xC2D JUMP JUMPDEST DIV CODESIZE PUSH2 0xD22 JUMP JUMPDEST SWAP1 POP PUSH1 0x20 DUP2 RETURNDATASIZE PUSH1 0x20 GT PUSH2 0xEC9 JUMPI JUMPDEST DUP2 PUSH2 0xEBA PUSH1 0x20 SWAP4 DUP4 PUSH2 0xC56 JUMP JUMPDEST DUP2 ADD SUB SLT PUSH2 0xBE4 JUMPI MLOAD CODESIZE PUSH2 0xE7A JUMP JUMPDEST RETURNDATASIZE SWAP2 POP PUSH2 0xEAD JUMP JUMPDEST PUSH1 0x40 MLOAD RETURNDATASIZE PUSH1 0x0 DUP3 RETURNDATACOPY RETURNDATASIZE SWAP1 REVERT JUMPDEST POP POP POP POP SWAP1 SWAP2 POP PUSH2 0xD7F JUMP JUMPDEST POP PUSH1 0x1 PUSH1 0x1 PUSH1 0xA0 SHL SUB DUP3 AND ISZERO ISZERO PUSH2 0xCF1 JUMP JUMPDEST POP SWAP1 POP JUMP JUMPDEST RETURNDATASIZE ISZERO PUSH2 0xF3B JUMPI RETURNDATASIZE SWAP1 PUSH8 0xFFFFFFFFFFFFFFFF DUP3 GT PUSH2 0xC78 JUMPI PUSH1 0x40 MLOAD SWAP2 PUSH2 0xF2F PUSH1 0x1F DUP3 ADD PUSH1 0x1F NOT AND PUSH1 0x20 ADD DUP5 PUSH2 0xC56 JUMP JUMPDEST DUP3 MSTORE RETURNDATASIZE PUSH1 0x0 PUSH1 0x20 DUP5 ADD RETURNDATACOPY JUMP JUMPDEST PUSH1 0x60 SWAP1 JUMP JUMPDEST CALLER PUSH1 0x0 SWAP1 DUP2 MSTORE PUSH32 0xEE57CD81E84075558E8FCC182A1F4393F91FC97F963A136E66B7F949A62F319F PUSH1 0x20 MSTORE PUSH1 0x40 SWAP1 KECCAK256 SLOAD PUSH32 0x97667070C54EF182B0F5858B034BEAC1B6F3089AA2D3188BB1E8929F4FA9B929 SWAP1 PUSH1 0xFF AND ISZERO PUSH2 0xF9C JUMPI POP JUMP JUMPDEST PUSH1 0x44 SWAP1 PUSH1 0x40 MLOAD SWAP1 PUSH4 0xE2517D3F PUSH1 0xE0 SHL DUP3 MSTORE CALLER PUSH1 0x4 DUP4 ADD MSTORE PUSH1 0x24 DUP3 ADD MSTORE REVERT JUMPDEST CALLER PUSH1 0x0 SWAP1 DUP2 MSTORE PUSH32 0xAD3228B676F7D3CD4284A5443F17F1962B36E491B30A40B2405849E597BA5FB5 PUSH1 0x20 MSTORE PUSH1 0x40 DUP2 KECCAK256 SLOAD PUSH1 0xFF AND ISZERO PUSH2 0xF9C JUMPI POP JUMP JUMPDEST DUP1 PUSH1 0x0 MSTORE PUSH1 0x0 PUSH1 0x20 MSTORE PUSH1 0x40 PUSH1 0x0 KECCAK256 CALLER PUSH1 0x0 MSTORE PUSH1 0x20 MSTORE PUSH1 0xFF PUSH1 0x40 PUSH1 0x0 KECCAK256 SLOAD AND ISZERO PUSH2 0xF9C JUMPI POP JUMP JUMPDEST PUSH1 0x0 DUP1 MLOAD PUSH1 0x20 PUSH2 0x113E DUP4 CODECOPY DUP2 MLOAD SWAP2 MSTORE PUSH1 0x2 DUP2 SLOAD EQ PUSH2 0x1038 JUMPI PUSH1 0x2 SWAP1 SSTORE JUMP JUMPDEST PUSH1 0x40 MLOAD PUSH4 0x3EE5AEB5 PUSH1 0xE0 SHL DUP2 MSTORE PUSH1 0x4 SWAP1 REVERT JUMPDEST SWAP1 PUSH1 0x0 SWAP2 DUP1 DUP4 MSTORE DUP3 PUSH1 0x20 MSTORE PUSH1 0x40 DUP4 KECCAK256 SWAP2 PUSH1 0x1 DUP1 PUSH1 0xA0 SHL SUB AND SWAP2 DUP3 DUP5 MSTORE PUSH1 0x20 MSTORE PUSH1 0xFF PUSH1 0x40 DUP5 KECCAK256 SLOAD AND ISZERO PUSH1 0x0 EQ PUSH2 0x10C3 JUMPI DUP1 DUP4 MSTORE DUP3 PUSH1 0x20 MSTORE PUSH1 0x40 DUP4 KECCAK256 DUP3 DUP5 MSTORE PUSH1 0x20 MSTORE PUSH1 0x40 DUP4 KECCAK256 PUSH1 0x1 PUSH1 0xFF NOT DUP3 SLOAD AND OR SWAP1 SSTORE PUSH32 0x2F8788117E7EFF1D82E926EC794901D17C78024A50270940304540A733656F0D CALLER SWAP4 DUP1 LOG4 PUSH1 0x1 SWAP1 JUMP JUMPDEST POP POP SWAP1 JUMP JUMPDEST SWAP1 PUSH1 0x0 SWAP2 DUP1 DUP4 MSTORE DUP3 PUSH1 0x20 MSTORE PUSH1 0x40 DUP4 KECCAK256 SWAP2 PUSH1 0x1 DUP1 PUSH1 0xA0 SHL SUB AND SWAP2 DUP3 DUP5 MSTORE PUSH1 0x20 MSTORE PUSH1 0xFF PUSH1 0x40 DUP5 KECCAK256 SLOAD AND PUSH1 0x0 EQ PUSH2 0x10C3 JUMPI DUP1 DUP4 MSTORE DUP3 PUSH1 0x20 MSTORE PUSH1 0x40 DUP4 KECCAK256 DUP3 DUP5 MSTORE PUSH1 0x20 MSTORE PUSH1 0x40 DUP4 KECCAK256 PUSH1 0xFF NOT DUP2 SLOAD AND SWAP1 SSTORE PUSH32 0xF6391F5C32D9C69D2A47EA670B442974B53935D1EDC7FD64EB21E047A839171B CALLER SWAP4 DUP1 LOG4 PUSH1 0x1 SWAP1 JUMP INVALID SWAP12 PUSH24 0x9B17422D0DF92223018B32B4D1FA46E071723D6817E2486D STOP EXTCODESIZE 0xEC 0xC5 PUSH0 STOP LOG2 PUSH5 0x6970667358 0x22 SLT KECCAK256 SWAP4 DUP9 PUSH9 0xF1145B6CF32A319F10 0x2F 0xB1 0xE2 JUMPDEST SWAP4 0xA6 SWAP6 SWAP1 0xB9 LOG2 PUSH25 0x353F1BBA5BAF6AF94464736F6C634300081800330000000000 "},"methodIdentifiers":{"DEFAULT_ADMIN_ROLE()":"a217fddf","MAX_DIRECT_REFERRALS()":"e58a2d5d","MAX_LEVELS()":"6702c7bf","OPERATOR_ROLE()":"f5b541a6","directReferrals(address,uint256)":"05ad3935","distributeReferralFees(address,uint256)":"2a52fabc","getDirectReferrals(address)":"d2c8e0e5","getReferralChain(address)":"6667864d","getRoleAdmin(bytes32)":"248a9ca3","grantRole(bytes32,address)":"2f2ff15d","hasReferrer(address)":"18452cd8","hasRole(bytes32,address)":"91d14854","levelPercents(uint256)":"fb987036","pendingEarnings(address)":"3000e8e4","referrer(address)":"2cf003c2","registerReferral(address,address)":"5603b9f9","renounceRole(bytes32,address)":"36568abe","revokeRole(bytes32,address)":"d547741f","setStakingContract(address)":"9dd373b9","stakingContract()":"ee99205c","supportsInterface(bytes4)":"01ffc9a7","totalEarnings(address)":"85117005","unallocatedFees()":"8fe9cb30","withdrawReferralEarnings()":"451459f2","withdrawUnallocated(address,uint256)":"35fc1abc"}}}}}