{"contracts/Staking.sol":{"Staking":{"abi":[{"inputs":[{"internalType":"address","name":"_oaiToken","type":"address"}],"stateMutability":"nonpayable","type":"constructor"},{"inputs":[{"internalType":"address","name":"owner","type":"address"}],"name":"OwnableInvalidOwner","type":"error"},{"inputs":[{"internalType":"address","name":"account","type":"address"}],"name":"OwnableUnauthorizedAccount","type":"error"},{"inputs":[],"name":"ReentrancyGuardReentrantCall","type":"error"},{"inputs":[{"internalType":"address","name":"token","type":"address"}],"name":"SafeERC20FailedOperation","type":"error"},{"anonymous":false,"inputs":[{"indexed":true,"internalType":"address","name":"previousOwner","type":"address"},{"indexed":true,"internalType":"address","name":"newOwner","type":"address"}],"name":"OwnershipTransferred","type":"event"},{"anonymous":false,"inputs":[{"indexed":true,"internalType":"address","name":"user","type":"address"},{"indexed":false,"internalType":"uint256","name":"amount","type":"uint256"}],"name":"Staked","type":"event"},{"anonymous":false,"inputs":[{"indexed":true,"internalType":"address","name":"user","type":"address"},{"indexed":false,"internalType":"uint256","name":"amount","type":"uint256"}],"name":"UnstakeRequested","type":"event"},{"anonymous":false,"inputs":[{"indexed":true,"internalType":"address","name":"user","type":"address"},{"indexed":false,"internalType":"uint256","name":"amount","type":"uint256"}],"name":"Unstaked","type":"event"},{"inputs":[],"name":"MIN_STAKE_FOR_BOOST","outputs":[{"internalType":"uint256","name":"","type":"uint256"}],"stateMutability":"view","type":"function"},{"inputs":[],"name":"POINTS_BOOST_BPS","outputs":[{"internalType":"uint256","name":"","type":"uint256"}],"stateMutability":"view","type":"function"},{"inputs":[],"name":"REFERRAL_BOOST_BPS","outputs":[{"internalType":"uint256","name":"","type":"uint256"}],"stateMutability":"view","type":"function"},{"inputs":[],"name":"UNSTAKE_COOLDOWN","outputs":[{"internalType":"uint256","name":"","type":"uint256"}],"stateMutability":"view","type":"function"},{"inputs":[{"internalType":"address","name":"user","type":"address"}],"name":"getPointsBoost","outputs":[{"internalType":"uint256","name":"","type":"uint256"}],"stateMutability":"view","type":"function"},{"inputs":[{"internalType":"address","name":"user","type":"address"}],"name":"getReferralBoost","outputs":[{"internalType":"uint256","name":"","type":"uint256"}],"stateMutability":"view","type":"function"},{"inputs":[{"internalType":"address","name":"user","type":"address"}],"name":"getStakeInfo","outputs":[{"components":[{"internalType":"uint256","name":"amount","type":"uint256"},{"internalType":"uint256","name":"stakedAt","type":"uint256"},{"internalType":"uint256","name":"unstakeRequestedAt","type":"uint256"},{"internalType":"uint256","name":"unstakeAmount","type":"uint256"}],"internalType":"struct Staking.StakeInfo","name":"","type":"tuple"}],"stateMutability":"view","type":"function"},{"inputs":[],"name":"oaiToken","outputs":[{"internalType":"contract IERC20","name":"","type":"address"}],"stateMutability":"view","type":"function"},{"inputs":[],"name":"owner","outputs":[{"internalType":"address","name":"","type":"address"}],"stateMutability":"view","type":"function"},{"inputs":[],"name":"renounceOwnership","outputs":[],"stateMutability":"nonpayable","type":"function"},{"inputs":[{"internalType":"uint256","name":"amount","type":"uint256"}],"name":"requestUnstake","outputs":[],"stateMutability":"nonpayable","type":"function"},{"inputs":[{"internalType":"uint256","name":"amount","type":"uint256"}],"name":"stake","outputs":[],"stateMutability":"nonpayable","type":"function"},{"inputs":[{"internalType":"address","name":"","type":"address"}],"name":"stakes","outputs":[{"internalType":"uint256","name":"amount","type":"uint256"},{"internalType":"uint256","name":"stakedAt","type":"uint256"},{"internalType":"uint256","name":"unstakeRequestedAt","type":"uint256"},{"internalType":"uint256","name":"unstakeAmount","type":"uint256"}],"stateMutability":"view","type":"function"},{"inputs":[],"name":"totalStaked","outputs":[{"internalType":"uint256","name":"","type":"uint256"}],"stateMutability":"view","type":"function"},{"inputs":[{"internalType":"address","name":"newOwner","type":"address"}],"name":"transferOwnership","outputs":[],"stateMutability":"nonpayable","type":"function"},{"inputs":[],"name":"unstake","outputs":[],"stateMutability":"nonpayable","type":"function"}],"evm":{"bytecode":{"linkReferences":{},"object":"6080346100ea57601f610a2938819003918201601f19168301916001600160401b038311848410176100ef578084926020946040528339810103126100ea57516001600160a01b0390818116908190036100ea5733156100d15760005460018060a01b0319903382821617600055604051933391167f8be0079c531659141344cd1fd0a4f28419497f9722a3daafe3b4186f6b6457e0600080a360017f9b779b17422d0df92223018b32b4d1fa46e071723d6817e2486d003becc55f0055600154161760015561092390816101068239f35b604051631e4fbdf760e01b815260006004820152602490fd5b600080fd5b634e487b7160e01b600052604160045260246000fdfe608060408181526004908136101561001657600080fd5b600092833560e01c908163099d512f14610797575080630b60c58f14610779578063143e43041461075c57806316934fc414610700578063230957211461065e5780632def6620146104b8578063647ded0514610487578063715018a61461042d578063817b1cd21461040e57806382ae1791146103e55780638da5cb5b146103bd5780638e7cb6a514610382578063a694fc3a14610225578063c34531531461018c578063eaec114a146101645763f2fde38b146100d457600080fd5b34610160576020366003190112610160576001600160a01b0382358181169391929084900361015c576101056108c1565b831561014657505082546001600160a01b0319811683178455167f8be0079c531659141344cd1fd0a4f28419497f9722a3daafe3b4186f6b6457e08380a380f35b51631e4fbdf760e01b8152908101849052602490fd5b8480fd5b8280fd5b8382346101885781600319360112610188576020905168056bc75e2d631000008152f35b5080fd5b50903461016057602036600319011261016057356001600160a01b038116908190036101605782829160809460606101c2610849565b828152826020820152828682015201528152600260205220906101e3610849565b90825492838352600181015460208401908152606060036002840154938587019485520154940193845282519485525160208501525190830152516060820152f35b5034610160576020908160031936011261037e5782359261024461087f565b831561034f5760015482516323b872dd60e01b8752338352306024526044869052916001600160a01b0390911690848760648180865af16001885114811615610330575b838552876060521561031d57505050907f9e71bc8eea02a63969f509818f2dafb9254532904319f9dbda79b67bd34a5f3d91338552600282528085206102cf8582546107b3565b90553385526002825242600182872001556102ec846003546107b3565b600355519283523392a260017f9b779b17422d0df92223018b32b4d1fa46e071723d6817e2486d003becc55f005580f35b635274afe760e01b835282015260249150fd5b600181151661034657823b15153d151616610288565b833d89823e3d90fd5b82606492519162461bcd60e51b8352820152600b60248201526a16995c9bc8185b5bdd5b9d60aa1b6044820152fd5b8380fd5b5090346101605760203660031901126101605735916001600160a01b03831683036103ba57506103b3602092610816565b9051908152f35b80fd5b838234610188578160031936011261018857905490516001600160a01b039091168152602090f35b83823461018857816003193601126101885760015490516001600160a01b039091168152602090f35b8382346101885781600319360112610188576020906003549051908152f35b83346103ba57806003193601126103ba576104466108c1565b80546001600160a01b03198116825581906001600160a01b03167f8be0079c531659141344cd1fd0a4f28419497f9722a3daafe3b4186f6b6457e08280a380f35b5090346101605760203660031901126101605735916001600160a01b03831683036103ba57506103b36020926107e3565b50346101605782600319360112610160576104d161087f565b33835260026020528083209160038301928354938415610626576002820191825462093a8081018091116106135742106105de5786929181610515888694546107d6565b90555555610525836003546107d6565b600355600154825163a9059cbb60e01b86523383526024859052916001600160a01b039091169060208660448180865af160018751148116156105bf575b8385521561031d57505050519081527f0f5bb82176feb1b5e747e28471aa92156a04d9f3ab9f45f28e2d704232b93f7560203392a260017f9b779b17422d0df92223018b32b4d1fa46e071723d6817e2486d003becc55f005580f35b60018115166105d557823b15153d151616610563565b833d88823e3d90fd5b845162461bcd60e51b8152602081860152600f60248201526e436f6f6c646f776e2061637469766560881b6044820152606490fd5b634e487b7160e01b885260118552602488fd5b835162461bcd60e51b815260208185015260126024820152714e6f20756e7374616b652070656e64696e6760701b6044820152606490fd5b50346101605760203660031901126101605781359133845260026020528282852054106106c9575033835260026020528160038285204260028201550155519081527f828764c21e74c28710e19919735825aba966621c95cbd913f8ed65a2d298f48c60203392a280f35b6020606492519162461bcd60e51b83528201526012602482015271496e73756666696369656e74207374616b6560701b6044820152fd5b50903461016057602036600319011261016057356001600160a01b038116908190036101605782829160809452600260205220908154916001810154916003600283015492015492815194855260208501528301526060820152f35b838234610188578160031936011261018857602090516105dc8152f35b8382346101885781600319360112610188576020905162093a808152f35b849034610188578160031936011261018857806107d060209252f35b919082018092116107c057565b634e487b7160e01b600052601160045260246000fd5b919082039182116107c057565b6001600160a01b031660009081526002602052604090205468056bc75e2d63100000111561081057600090565b6107d090565b6001600160a01b031660009081526002602052604090205468056bc75e2d63100000111561084357600090565b6105dc90565b604051906080820182811067ffffffffffffffff82111761086957604052565b634e487b7160e01b600052604160045260246000fd5b7f9b779b17422d0df92223018b32b4d1fa46e071723d6817e2486d003becc55f0060028154146108af5760029055565b604051633ee5aeb560e01b8152600490fd5b6000546001600160a01b031633036108d557565b60405163118cdaa760e01b8152336004820152602490fdfea26469706673582212207191e9e8d12e52a4b8846c1527f243a4543074d00aebc7c21cef615df25ffdef64736f6c63430008180033","opcodes":"PUSH1 0x80 CALLVALUE PUSH2 0xEA JUMPI PUSH1 0x1F PUSH2 0xA29 CODESIZE DUP2 SWAP1 SUB SWAP2 DUP3 ADD PUSH1 0x1F NOT AND DUP4 ADD SWAP2 PUSH1 0x1 PUSH1 0x1 PUSH1 0x40 SHL SUB DUP4 GT DUP5 DUP5 LT OR PUSH2 0xEF JUMPI DUP1 DUP5 SWAP3 PUSH1 0x20 SWAP5 PUSH1 0x40 MSTORE DUP4 CODECOPY DUP2 ADD SUB SLT PUSH2 0xEA JUMPI MLOAD PUSH1 0x1 PUSH1 0x1 PUSH1 0xA0 SHL SUB SWAP1 DUP2 DUP2 AND SWAP1 DUP2 SWAP1 SUB PUSH2 0xEA JUMPI CALLER ISZERO PUSH2 0xD1 JUMPI PUSH1 0x0 SLOAD PUSH1 0x1 DUP1 PUSH1 0xA0 SHL SUB NOT SWAP1 CALLER DUP3 DUP3 AND OR PUSH1 0x0 SSTORE PUSH1 0x40 MLOAD SWAP4 CALLER SWAP2 AND PUSH32 0x8BE0079C531659141344CD1FD0A4F28419497F9722A3DAAFE3B4186F6B6457E0 PUSH1 0x0 DUP1 LOG3 PUSH1 0x1 PUSH32 0x9B779B17422D0DF92223018B32B4D1FA46E071723D6817E2486D003BECC55F00 SSTORE PUSH1 0x1 SLOAD AND OR PUSH1 0x1 SSTORE PUSH2 0x923 SWAP1 DUP2 PUSH2 0x106 DUP3 CODECOPY RETURN JUMPDEST PUSH1 0x40 MLOAD PUSH4 0x1E4FBDF7 PUSH1 0xE0 SHL DUP2 MSTORE PUSH1 0x0 PUSH1 0x4 DUP3 ADD MSTORE PUSH1 0x24 SWAP1 REVERT JUMPDEST PUSH1 0x0 DUP1 REVERT JUMPDEST PUSH4 0x4E487B71 PUSH1 0xE0 SHL PUSH1 0x0 MSTORE PUSH1 0x41 PUSH1 0x4 MSTORE PUSH1 0x24 PUSH1 0x0 REVERT INVALID PUSH1 0x80 PUSH1 0x40 DUP2 DUP2 MSTORE PUSH1 0x4 SWAP1 DUP2 CALLDATASIZE LT ISZERO PUSH2 0x16 JUMPI PUSH1 0x0 DUP1 REVERT JUMPDEST PUSH1 0x0 SWAP3 DUP4 CALLDATALOAD PUSH1 0xE0 SHR SWAP1 DUP2 PUSH4 0x99D512F EQ PUSH2 0x797 JUMPI POP DUP1 PUSH4 0xB60C58F EQ PUSH2 0x779 JUMPI DUP1 PUSH4 0x143E4304 EQ PUSH2 0x75C JUMPI DUP1 PUSH4 0x16934FC4 EQ PUSH2 0x700 JUMPI DUP1 PUSH4 0x23095721 EQ PUSH2 0x65E JUMPI DUP1 PUSH4 0x2DEF6620 EQ PUSH2 0x4B8 JUMPI DUP1 PUSH4 0x647DED05 EQ PUSH2 0x487 JUMPI DUP1 PUSH4 0x715018A6 EQ PUSH2 0x42D JUMPI DUP1 PUSH4 0x817B1CD2 EQ PUSH2 0x40E JUMPI DUP1 PUSH4 0x82AE1791 EQ PUSH2 0x3E5 JUMPI DUP1 PUSH4 0x8DA5CB5B EQ PUSH2 0x3BD JUMPI DUP1 PUSH4 0x8E7CB6A5 EQ PUSH2 0x382 JUMPI DUP1 PUSH4 0xA694FC3A EQ PUSH2 0x225 JUMPI DUP1 PUSH4 0xC3453153 EQ PUSH2 0x18C JUMPI DUP1 PUSH4 0xEAEC114A EQ PUSH2 0x164 JUMPI PUSH4 0xF2FDE38B EQ PUSH2 0xD4 JUMPI PUSH1 0x0 DUP1 REVERT JUMPDEST CALLVALUE PUSH2 0x160 JUMPI PUSH1 0x20 CALLDATASIZE PUSH1 0x3 NOT ADD SLT PUSH2 0x160 JUMPI PUSH1 0x1 PUSH1 0x1 PUSH1 0xA0 SHL SUB DUP3 CALLDATALOAD DUP2 DUP2 AND SWAP4 SWAP2 SWAP3 SWAP1 DUP5 SWAP1 SUB PUSH2 0x15C JUMPI PUSH2 0x105 PUSH2 0x8C1 JUMP JUMPDEST DUP4 ISZERO PUSH2 0x146 JUMPI POP POP DUP3 SLOAD PUSH1 0x1 PUSH1 0x1 PUSH1 0xA0 SHL SUB NOT DUP2 AND DUP4 OR DUP5 SSTORE AND PUSH32 0x8BE0079C531659141344CD1FD0A4F28419497F9722A3DAAFE3B4186F6B6457E0 DUP4 DUP1 LOG3 DUP1 RETURN JUMPDEST MLOAD PUSH4 0x1E4FBDF7 PUSH1 0xE0 SHL DUP2 MSTORE SWAP1 DUP2 ADD DUP5 SWAP1 MSTORE PUSH1 0x24 SWAP1 REVERT JUMPDEST DUP5 DUP1 REVERT JUMPDEST DUP3 DUP1 REVERT JUMPDEST DUP4 DUP3 CALLVALUE PUSH2 0x188 JUMPI DUP2 PUSH1 0x3 NOT CALLDATASIZE ADD SLT PUSH2 0x188 JUMPI PUSH1 0x20 SWAP1 MLOAD PUSH9 0x56BC75E2D63100000 DUP2 MSTORE RETURN JUMPDEST POP DUP1 REVERT JUMPDEST POP SWAP1 CALLVALUE PUSH2 0x160 JUMPI PUSH1 0x20 CALLDATASIZE PUSH1 0x3 NOT ADD SLT PUSH2 0x160 JUMPI CALLDATALOAD PUSH1 0x1 PUSH1 0x1 PUSH1 0xA0 SHL SUB DUP2 AND SWAP1 DUP2 SWAP1 SUB PUSH2 0x160 JUMPI DUP3 DUP3 SWAP2 PUSH1 0x80 SWAP5 PUSH1 0x60 PUSH2 0x1C2 PUSH2 0x849 JUMP JUMPDEST DUP3 DUP2 MSTORE DUP3 PUSH1 0x20 DUP3 ADD MSTORE DUP3 DUP7 DUP3 ADD MSTORE ADD MSTORE DUP2 MSTORE PUSH1 0x2 PUSH1 0x20 MSTORE KECCAK256 SWAP1 PUSH2 0x1E3 PUSH2 0x849 JUMP JUMPDEST SWAP1 DUP3 SLOAD SWAP3 DUP4 DUP4 MSTORE PUSH1 0x1 DUP2 ADD SLOAD PUSH1 0x20 DUP5 ADD SWAP1 DUP2 MSTORE PUSH1 0x60 PUSH1 0x3 PUSH1 0x2 DUP5 ADD SLOAD SWAP4 DUP6 DUP8 ADD SWAP5 DUP6 MSTORE ADD SLOAD SWAP5 ADD SWAP4 DUP5 MSTORE DUP3 MLOAD SWAP5 DUP6 MSTORE MLOAD PUSH1 0x20 DUP6 ADD MSTORE MLOAD SWAP1 DUP4 ADD MSTORE MLOAD PUSH1 0x60 DUP3 ADD MSTORE RETURN JUMPDEST POP CALLVALUE PUSH2 0x160 JUMPI PUSH1 0x20 SWAP1 DUP2 PUSH1 0x3 NOT CALLDATASIZE ADD SLT PUSH2 0x37E JUMPI DUP3 CALLDATALOAD SWAP3 PUSH2 0x244 PUSH2 0x87F JUMP JUMPDEST DUP4 ISZERO PUSH2 0x34F JUMPI PUSH1 0x1 SLOAD DUP3 MLOAD PUSH4 0x23B872DD PUSH1 0xE0 SHL DUP8 MSTORE CALLER DUP4 MSTORE ADDRESS PUSH1 0x24 MSTORE PUSH1 0x44 DUP7 SWAP1 MSTORE SWAP2 PUSH1 0x1 PUSH1 0x1 PUSH1 0xA0 SHL SUB SWAP1 SWAP2 AND SWAP1 DUP5 DUP8 PUSH1 0x64 DUP2 DUP1 DUP7 GAS CALL PUSH1 0x1 DUP9 MLOAD EQ DUP2 AND ISZERO PUSH2 0x330 JUMPI JUMPDEST DUP4 DUP6 MSTORE DUP8 PUSH1 0x60 MSTORE ISZERO PUSH2 0x31D JUMPI POP POP POP SWAP1 PUSH32 0x9E71BC8EEA02A63969F509818F2DAFB9254532904319F9DBDA79B67BD34A5F3D SWAP2 CALLER DUP6 MSTORE PUSH1 0x2 DUP3 MSTORE DUP1 DUP6 KECCAK256 PUSH2 0x2CF DUP6 DUP3 SLOAD PUSH2 0x7B3 JUMP JUMPDEST SWAP1 SSTORE CALLER DUP6 MSTORE PUSH1 0x2 DUP3 MSTORE TIMESTAMP PUSH1 0x1 DUP3 DUP8 KECCAK256 ADD SSTORE PUSH2 0x2EC DUP5 PUSH1 0x3 SLOAD PUSH2 0x7B3 JUMP JUMPDEST PUSH1 0x3 SSTORE MLOAD SWAP3 DUP4 MSTORE CALLER SWAP3 LOG2 PUSH1 0x1 PUSH32 0x9B779B17422D0DF92223018B32B4D1FA46E071723D6817E2486D003BECC55F00 SSTORE DUP1 RETURN JUMPDEST PUSH4 0x5274AFE7 PUSH1 0xE0 SHL DUP4 MSTORE DUP3 ADD MSTORE PUSH1 0x24 SWAP2 POP REVERT JUMPDEST PUSH1 0x1 DUP2 ISZERO AND PUSH2 0x346 JUMPI DUP3 EXTCODESIZE ISZERO ISZERO RETURNDATASIZE ISZERO AND AND PUSH2 0x288 JUMP JUMPDEST DUP4 RETURNDATASIZE DUP10 DUP3 RETURNDATACOPY RETURNDATASIZE SWAP1 REVERT JUMPDEST DUP3 PUSH1 0x64 SWAP3 MLOAD SWAP2 PUSH3 0x461BCD PUSH1 0xE5 SHL DUP4 MSTORE DUP3 ADD MSTORE PUSH1 0xB PUSH1 0x24 DUP3 ADD MSTORE PUSH11 0x16995C9BC8185B5BDD5B9D PUSH1 0xAA SHL PUSH1 0x44 DUP3 ADD MSTORE REVERT JUMPDEST DUP4 DUP1 REVERT JUMPDEST POP SWAP1 CALLVALUE PUSH2 0x160 JUMPI PUSH1 0x20 CALLDATASIZE PUSH1 0x3 NOT ADD SLT PUSH2 0x160 JUMPI CALLDATALOAD SWAP2 PUSH1 0x1 PUSH1 0x1 PUSH1 0xA0 SHL SUB DUP4 AND DUP4 SUB PUSH2 0x3BA JUMPI POP PUSH2 0x3B3 PUSH1 0x20 SWAP3 PUSH2 0x816 JUMP JUMPDEST SWAP1 MLOAD SWAP1 DUP2 MSTORE RETURN JUMPDEST DUP1 REVERT JUMPDEST DUP4 DUP3 CALLVALUE PUSH2 0x188 JUMPI DUP2 PUSH1 0x3 NOT CALLDATASIZE ADD SLT PUSH2 0x188 JUMPI SWAP1 SLOAD SWAP1 MLOAD PUSH1 0x1 PUSH1 0x1 PUSH1 0xA0 SHL SUB SWAP1 SWAP2 AND DUP2 MSTORE PUSH1 0x20 SWAP1 RETURN JUMPDEST DUP4 DUP3 CALLVALUE PUSH2 0x188 JUMPI DUP2 PUSH1 0x3 NOT CALLDATASIZE ADD SLT PUSH2 0x188 JUMPI PUSH1 0x1 SLOAD SWAP1 MLOAD PUSH1 0x1 PUSH1 0x1 PUSH1 0xA0 SHL SUB SWAP1 SWAP2 AND DUP2 MSTORE PUSH1 0x20 SWAP1 RETURN JUMPDEST DUP4 DUP3 CALLVALUE PUSH2 0x188 JUMPI DUP2 PUSH1 0x3 NOT CALLDATASIZE ADD SLT PUSH2 0x188 JUMPI PUSH1 0x20 SWAP1 PUSH1 0x3 SLOAD SWAP1 MLOAD SWAP1 DUP2 MSTORE RETURN JUMPDEST DUP4 CALLVALUE PUSH2 0x3BA JUMPI DUP1 PUSH1 0x3 NOT CALLDATASIZE ADD SLT PUSH2 0x3BA JUMPI PUSH2 0x446 PUSH2 0x8C1 JUMP JUMPDEST DUP1 SLOAD PUSH1 0x1 PUSH1 0x1 PUSH1 0xA0 SHL SUB NOT DUP2 AND DUP3 SSTORE DUP2 SWAP1 PUSH1 0x1 PUSH1 0x1 PUSH1 0xA0 SHL SUB AND PUSH32 0x8BE0079C531659141344CD1FD0A4F28419497F9722A3DAAFE3B4186F6B6457E0 DUP3 DUP1 LOG3 DUP1 RETURN JUMPDEST POP SWAP1 CALLVALUE PUSH2 0x160 JUMPI PUSH1 0x20 CALLDATASIZE PUSH1 0x3 NOT ADD SLT PUSH2 0x160 JUMPI CALLDATALOAD SWAP2 PUSH1 0x1 PUSH1 0x1 PUSH1 0xA0 SHL SUB DUP4 AND DUP4 SUB PUSH2 0x3BA JUMPI POP PUSH2 0x3B3 PUSH1 0x20 SWAP3 PUSH2 0x7E3 JUMP JUMPDEST POP CALLVALUE PUSH2 0x160 JUMPI DUP3 PUSH1 0x3 NOT CALLDATASIZE ADD SLT PUSH2 0x160 JUMPI PUSH2 0x4D1 PUSH2 0x87F JUMP JUMPDEST CALLER DUP4 MSTORE PUSH1 0x2 PUSH1 0x20 MSTORE DUP1 DUP4 KECCAK256 SWAP2 PUSH1 0x3 DUP4 ADD SWAP3 DUP4 SLOAD SWAP4 DUP5 ISZERO PUSH2 0x626 JUMPI PUSH1 0x2 DUP3 ADD SWAP2 DUP3 SLOAD PUSH3 0x93A80 DUP2 ADD DUP1 SWAP2 GT PUSH2 0x613 JUMPI TIMESTAMP LT PUSH2 0x5DE JUMPI DUP7 SWAP3 SWAP2 DUP2 PUSH2 0x515 DUP9 DUP7 SWAP5 SLOAD PUSH2 0x7D6 JUMP JUMPDEST SWAP1 SSTORE SSTORE SSTORE PUSH2 0x525 DUP4 PUSH1 0x3 SLOAD PUSH2 0x7D6 JUMP JUMPDEST PUSH1 0x3 SSTORE PUSH1 0x1 SLOAD DUP3 MLOAD PUSH4 0xA9059CBB PUSH1 0xE0 SHL DUP7 MSTORE CALLER DUP4 MSTORE PUSH1 0x24 DUP6 SWAP1 MSTORE SWAP2 PUSH1 0x1 PUSH1 0x1 PUSH1 0xA0 SHL SUB SWAP1 SWAP2 AND SWAP1 PUSH1 0x20 DUP7 PUSH1 0x44 DUP2 DUP1 DUP7 GAS CALL PUSH1 0x1 DUP8 MLOAD EQ DUP2 AND ISZERO PUSH2 0x5BF JUMPI JUMPDEST DUP4 DUP6 MSTORE ISZERO PUSH2 0x31D JUMPI POP POP POP MLOAD SWAP1 DUP2 MSTORE PUSH32 0xF5BB82176FEB1B5E747E28471AA92156A04D9F3AB9F45F28E2D704232B93F75 PUSH1 0x20 CALLER SWAP3 LOG2 PUSH1 0x1 PUSH32 0x9B779B17422D0DF92223018B32B4D1FA46E071723D6817E2486D003BECC55F00 SSTORE DUP1 RETURN JUMPDEST PUSH1 0x1 DUP2 ISZERO AND PUSH2 0x5D5 JUMPI DUP3 EXTCODESIZE ISZERO ISZERO RETURNDATASIZE ISZERO AND AND PUSH2 0x563 JUMP JUMPDEST DUP4 RETURNDATASIZE DUP9 DUP3 RETURNDATACOPY RETURNDATASIZE SWAP1 REVERT JUMPDEST DUP5 MLOAD PUSH3 0x461BCD PUSH1 0xE5 SHL DUP2 MSTORE PUSH1 0x20 DUP2 DUP7 ADD MSTORE PUSH1 0xF PUSH1 0x24 DUP3 ADD MSTORE PUSH15 0x436F6F6C646F776E20616374697665 PUSH1 0x88 SHL PUSH1 0x44 DUP3 ADD MSTORE PUSH1 0x64 SWAP1 REVERT JUMPDEST PUSH4 0x4E487B71 PUSH1 0xE0 SHL DUP9 MSTORE PUSH1 0x11 DUP6 MSTORE PUSH1 0x24 DUP9 REVERT JUMPDEST DUP4 MLOAD PUSH3 0x461BCD PUSH1 0xE5 SHL DUP2 MSTORE PUSH1 0x20 DUP2 DUP6 ADD MSTORE PUSH1 0x12 PUSH1 0x24 DUP3 ADD MSTORE PUSH18 0x4E6F20756E7374616B652070656E64696E67 PUSH1 0x70 SHL PUSH1 0x44 DUP3 ADD MSTORE PUSH1 0x64 SWAP1 REVERT JUMPDEST POP CALLVALUE PUSH2 0x160 JUMPI PUSH1 0x20 CALLDATASIZE PUSH1 0x3 NOT ADD SLT PUSH2 0x160 JUMPI DUP2 CALLDATALOAD SWAP2 CALLER DUP5 MSTORE PUSH1 0x2 PUSH1 0x20 MSTORE DUP3 DUP3 DUP6 KECCAK256 SLOAD LT PUSH2 0x6C9 JUMPI POP CALLER DUP4 MSTORE PUSH1 0x2 PUSH1 0x20 MSTORE DUP2 PUSH1 0x3 DUP3 DUP6 KECCAK256 TIMESTAMP PUSH1 0x2 DUP3 ADD SSTORE ADD SSTORE MLOAD SWAP1 DUP2 MSTORE PUSH32 0x828764C21E74C28710E19919735825ABA966621C95CBD913F8ED65A2D298F48C PUSH1 0x20 CALLER SWAP3 LOG2 DUP1 RETURN JUMPDEST PUSH1 0x20 PUSH1 0x64 SWAP3 MLOAD SWAP2 PUSH3 0x461BCD PUSH1 0xE5 SHL DUP4 MSTORE DUP3 ADD MSTORE PUSH1 0x12 PUSH1 0x24 DUP3 ADD MSTORE PUSH18 0x496E73756666696369656E74207374616B65 PUSH1 0x70 SHL PUSH1 0x44 DUP3 ADD MSTORE REVERT JUMPDEST POP SWAP1 CALLVALUE PUSH2 0x160 JUMPI PUSH1 0x20 CALLDATASIZE PUSH1 0x3 NOT ADD SLT PUSH2 0x160 JUMPI CALLDATALOAD PUSH1 0x1 PUSH1 0x1 PUSH1 0xA0 SHL SUB DUP2 AND SWAP1 DUP2 SWAP1 SUB PUSH2 0x160 JUMPI DUP3 DUP3 SWAP2 PUSH1 0x80 SWAP5 MSTORE PUSH1 0x2 PUSH1 0x20 MSTORE KECCAK256 SWAP1 DUP2 SLOAD SWAP2 PUSH1 0x1 DUP2 ADD SLOAD SWAP2 PUSH1 0x3 PUSH1 0x2 DUP4 ADD SLOAD SWAP3 ADD SLOAD SWAP3 DUP2 MLOAD SWAP5 DUP6 MSTORE PUSH1 0x20 DUP6 ADD MSTORE DUP4 ADD MSTORE PUSH1 0x60 DUP3 ADD MSTORE RETURN JUMPDEST DUP4 DUP3 CALLVALUE PUSH2 0x188 JUMPI DUP2 PUSH1 0x3 NOT CALLDATASIZE ADD SLT PUSH2 0x188 JUMPI PUSH1 0x20 SWAP1 MLOAD PUSH2 0x5DC DUP2 MSTORE RETURN JUMPDEST DUP4 DUP3 CALLVALUE PUSH2 0x188 JUMPI DUP2 PUSH1 0x3 NOT CALLDATASIZE ADD SLT PUSH2 0x188 JUMPI PUSH1 0x20 SWAP1 MLOAD PUSH3 0x93A80 DUP2 MSTORE RETURN JUMPDEST DUP5 SWAP1 CALLVALUE PUSH2 0x188 JUMPI DUP2 PUSH1 0x3 NOT CALLDATASIZE ADD SLT PUSH2 0x188 JUMPI DUP1 PUSH2 0x7D0 PUSH1 0x20 SWAP3 MSTORE RETURN JUMPDEST SWAP2 SWAP1 DUP3 ADD DUP1 SWAP3 GT PUSH2 0x7C0 JUMPI JUMP JUMPDEST PUSH4 0x4E487B71 PUSH1 0xE0 SHL PUSH1 0x0 MSTORE PUSH1 0x11 PUSH1 0x4 MSTORE PUSH1 0x24 PUSH1 0x0 REVERT JUMPDEST SWAP2 SWAP1 DUP3 SUB SWAP2 DUP3 GT PUSH2 0x7C0 JUMPI JUMP JUMPDEST PUSH1 0x1 PUSH1 0x1 PUSH1 0xA0 SHL SUB AND PUSH1 0x0 SWAP1 DUP2 MSTORE PUSH1 0x2 PUSH1 0x20 MSTORE PUSH1 0x40 SWAP1 KECCAK256 SLOAD PUSH9 0x56BC75E2D63100000 GT ISZERO PUSH2 0x810 JUMPI PUSH1 0x0 SWAP1 JUMP JUMPDEST PUSH2 0x7D0 SWAP1 JUMP JUMPDEST PUSH1 0x1 PUSH1 0x1 PUSH1 0xA0 SHL SUB AND PUSH1 0x0 SWAP1 DUP2 MSTORE PUSH1 0x2 PUSH1 0x20 MSTORE PUSH1 0x40 SWAP1 KECCAK256 SLOAD PUSH9 0x56BC75E2D63100000 GT ISZERO PUSH2 0x843 JUMPI PUSH1 0x0 SWAP1 JUMP JUMPDEST PUSH2 0x5DC SWAP1 JUMP JUMPDEST PUSH1 0x40 MLOAD SWAP1 PUSH1 0x80 DUP3 ADD DUP3 DUP2 LT PUSH8 0xFFFFFFFFFFFFFFFF DUP3 GT OR PUSH2 0x869 JUMPI PUSH1 0x40 MSTORE JUMP JUMPDEST PUSH4 0x4E487B71 PUSH1 0xE0 SHL PUSH1 0x0 MSTORE PUSH1 0x41 PUSH1 0x4 MSTORE PUSH1 0x24 PUSH1 0x0 REVERT JUMPDEST PUSH32 0x9B779B17422D0DF92223018B32B4D1FA46E071723D6817E2486D003BECC55F00 PUSH1 0x2 DUP2 SLOAD EQ PUSH2 0x8AF JUMPI PUSH1 0x2 SWAP1 SSTORE JUMP JUMPDEST PUSH1 0x40 MLOAD PUSH4 0x3EE5AEB5 PUSH1 0xE0 SHL DUP2 MSTORE PUSH1 0x4 SWAP1 REVERT JUMPDEST PUSH1 0x0 SLOAD PUSH1 0x1 PUSH1 0x1 PUSH1 0xA0 SHL SUB AND CALLER SUB PUSH2 0x8D5 JUMPI JUMP JUMPDEST PUSH1 0x40 MLOAD PUSH4 0x118CDAA7 PUSH1 0xE0 SHL DUP2 MSTORE CALLER PUSH1 0x4 DUP3 ADD MSTORE PUSH1 0x24 SWAP1 REVERT INVALID LOG2 PUSH5 0x6970667358 0x22 SLT KECCAK256 PUSH18 0x91E9E8D12E52A4B8846C1527F243A4543074 0xD0 EXP 0xEB 0xC7 0xC2 SHR 0xEF PUSH2 0x5DF2 PUSH0 REVERT 0xEF PUSH5 0x736F6C6343 STOP ADDMOD XOR STOP CALLER "},"methodIdentifiers":{"MIN_STAKE_FOR_BOOST()":"eaec114a","POINTS_BOOST_BPS()":"099d512f","REFERRAL_BOOST_BPS()":"143e4304","UNSTAKE_COOLDOWN()":"0b60c58f","getPointsBoost(address)":"647ded05","getReferralBoost(address)":"8e7cb6a5","getStakeInfo(address)":"c3453153","oaiToken()":"82ae1791","owner()":"8da5cb5b","renounceOwnership()":"715018a6","requestUnstake(uint256)":"23095721","stake(uint256)":"a694fc3a","stakes(address)":"16934fc4","totalStaked()":"817b1cd2","transferOwnership(address)":"f2fde38b","unstake()":"2def6620"}}}}}