{"contracts/CheckIn.sol":{"CheckIn":{"abi":[{"inputs":[{"internalType":"address","name":"_points","type":"address"},{"internalType":"address","name":"_referral","type":"address"},{"internalType":"address","name":"_prizePool","type":"address"},{"internalType":"address","name":"_treasury","type":"address"},{"internalType":"address","name":"_burnReserve","type":"address"}],"stateMutability":"nonpayable","type":"constructor"},{"inputs":[{"internalType":"address","name":"owner","type":"address"}],"name":"OwnableInvalidOwner","type":"error"},{"inputs":[{"internalType":"address","name":"account","type":"address"}],"name":"OwnableUnauthorizedAccount","type":"error"},{"inputs":[],"name":"ReentrancyGuardReentrantCall","type":"error"},{"anonymous":false,"inputs":[{"indexed":true,"internalType":"address","name":"user","type":"address"},{"indexed":false,"internalType":"uint256","name":"amount","type":"uint256"},{"indexed":false,"internalType":"enum CheckIn.Tier","name":"tier","type":"uint8"},{"indexed":false,"internalType":"uint256","name":"points","type":"uint256"},{"indexed":false,"internalType":"uint256","name":"streak","type":"uint256"}],"name":"CheckedIn","type":"event"},{"anonymous":false,"inputs":[{"indexed":true,"internalType":"address","name":"previousOwner","type":"address"},{"indexed":true,"internalType":"address","name":"newOwner","type":"address"}],"name":"OwnershipTransferred","type":"event"},{"inputs":[],"name":"BASE_POINTS","outputs":[{"internalType":"uint256","name":"","type":"uint256"}],"stateMutability":"view","type":"function"},{"inputs":[],"name":"BASIC_THRESHOLD","outputs":[{"internalType":"uint256","name":"","type":"uint256"}],"stateMutability":"view","type":"function"},{"inputs":[],"name":"BURN_SHARE","outputs":[{"internalType":"uint256","name":"","type":"uint256"}],"stateMutability":"view","type":"function"},{"inputs":[],"name":"DAY","outputs":[{"internalType":"uint256","name":"","type":"uint256"}],"stateMutability":"view","type":"function"},{"inputs":[],"name":"PRIZE_SHARE","outputs":[{"internalType":"uint256","name":"","type":"uint256"}],"stateMutability":"view","type":"function"},{"inputs":[],"name":"PRO_THRESHOLD","outputs":[{"internalType":"uint256","name":"","type":"uint256"}],"stateMutability":"view","type":"function"},{"inputs":[],"name":"REFERRAL_SHARE","outputs":[{"internalType":"uint256","name":"","type":"uint256"}],"stateMutability":"view","type":"function"},{"inputs":[],"name":"STREAK_CAP","outputs":[{"internalType":"uint256","name":"","type":"uint256"}],"stateMutability":"view","type":"function"},{"inputs":[],"name":"TREASURY_SHARE","outputs":[{"internalType":"uint256","name":"","type":"uint256"}],"stateMutability":"view","type":"function"},{"inputs":[],"name":"WHALE_THRESHOLD","outputs":[{"internalType":"uint256","name":"","type":"uint256"}],"stateMutability":"view","type":"function"},{"inputs":[],"name":"burnReserve","outputs":[{"internalType":"address","name":"","type":"address"}],"stateMutability":"view","type":"function"},{"inputs":[],"name":"checkIn","outputs":[],"stateMutability":"payable","type":"function"},{"inputs":[{"internalType":"address","name":"user","type":"address"}],"name":"getRecord","outputs":[{"components":[{"internalType":"uint256","name":"lastCheckIn","type":"uint256"},{"internalType":"uint256","name":"streak","type":"uint256"},{"internalType":"uint256","name":"totalCheckIns","type":"uint256"},{"internalType":"enum CheckIn.Tier","name":"lastTier","type":"uint8"}],"internalType":"struct CheckIn.CheckInRecord","name":"","type":"tuple"}],"stateMutability":"view","type":"function"},{"inputs":[],"name":"owner","outputs":[{"internalType":"address","name":"","type":"address"}],"stateMutability":"view","type":"function"},{"inputs":[],"name":"pointsContract","outputs":[{"internalType":"contract IPointsCheckIn","name":"","type":"address"}],"stateMutability":"view","type":"function"},{"inputs":[],"name":"prizePool","outputs":[{"internalType":"address","name":"","type":"address"}],"stateMutability":"view","type":"function"},{"inputs":[{"internalType":"address","name":"","type":"address"}],"name":"records","outputs":[{"internalType":"uint256","name":"lastCheckIn","type":"uint256"},{"internalType":"uint256","name":"streak","type":"uint256"},{"internalType":"uint256","name":"totalCheckIns","type":"uint256"},{"internalType":"enum CheckIn.Tier","name":"lastTier","type":"uint8"}],"stateMutability":"view","type":"function"},{"inputs":[],"name":"referralContract","outputs":[{"internalType":"contract IReferral","name":"","type":"address"}],"stateMutability":"view","type":"function"},{"inputs":[],"name":"renounceOwnership","outputs":[],"stateMutability":"nonpayable","type":"function"},{"inputs":[{"internalType":"address","name":"_staking","type":"address"}],"name":"setStakingContract","outputs":[],"stateMutability":"nonpayable","type":"function"},{"inputs":[],"name":"stakingContract","outputs":[{"internalType":"contract IStaking","name":"","type":"address"}],"stateMutability":"view","type":"function"},{"inputs":[],"name":"totalCheckIns","outputs":[{"internalType":"uint256","name":"","type":"uint256"}],"stateMutability":"view","type":"function"},{"inputs":[],"name":"totalFeesCollected","outputs":[{"internalType":"uint256","name":"","type":"uint256"}],"stateMutability":"view","type":"function"},{"inputs":[{"internalType":"address","name":"newOwner","type":"address"}],"name":"transferOwnership","outputs":[],"stateMutability":"nonpayable","type":"function"},{"inputs":[],"name":"treasury","outputs":[{"internalType":"address","name":"","type":"address"}],"stateMutability":"view","type":"function"}],"evm":{"bytecode":{"linkReferences":{},"object":"60803461014957601f610ff038819003918201601f19168301916001600160401b0383118484101761014e5780849260a0946040528339810103126101495761004781610164565b61005360208301610164565b61005f60408401610164565b90610078608061007160608701610164565b9501610164565b903315610130576000549460018060a01b0380948180948160018060a01b031999338b8d16176000556040519b823391167f8be0079c531659141344cd1fd0a4f28419497f9722a3daafe3b4186f6b6457e0600080a360017f9b779b17422d0df92223018b32b4d1fa46e071723d6817e2486d003becc55f00551689600154161760015516876002541617600255168560045416176004551683600554161760055516906006541617600655610e7790816101798239f35b604051631e4fbdf760e01b815260006004820152602490fd5b600080fd5b634e487b7160e01b600052604160045260246000fd5b51906001600160a01b03821682036101495756fe608060408181526004918236101561001657600080fd5b600092833560e01c918263183ff08514610638575081631ba867941461061b57816327cfe856146105fd5781632b4f8a1f146105d457816332696174146105b7578163469e90671461055257816358e5a7c91461053057816360c6d8ae14610511578163617fba041461044657816361d027b31461041d5781636c3b680314610401578163715018a6146103a4578163719ce73e1461037c5781637dad19db14610353578163826dc142146103315781638da5cb5b1461030957816393b998fb146102ec5781639dd373b9146102a3578163a563eaa314610284578163b21b5a2114610267578163b5ab1c5d1461024b578163bf16257a14610222578163ee99205c146101f9578163f2fde38b1461015c575063f47790d61461013857600080fd5b346101585781600319360112610158576020905166b1a2bc2ec500008152f35b5080fd5b919050346101f55760203660031901126101f5576001600160a01b038235818116939192908490036101f157610190610e15565b83156101db575050600054826bffffffffffffffffffffffff60a01b821617600055167f8be0079c531659141344cd1fd0a4f28419497f9722a3daafe3b4186f6b6457e0600080a380f35b51631e4fbdf760e01b8152908101849052602490fd5b8480fd5b8280fd5b50503461015857816003193601126101585760035490516001600160a01b039091168152602090f35b50503461015857816003193601126101585760065490516001600160a01b039091168152602090f35b5050346101585781600319360112610158576020905160648152f35b505034610158578160031936011261015857602090516105dc8152f35b5050346101585781600319360112610158576020906008549051908152f35b83903461015857602036600319011261015857356001600160a01b03811690819003610158576102d1610e15565b6bffffffffffffffffffffffff60a01b600354161760035580f35b505034610158578160031936011261015857602090516103e88152f35b505034610158578160031936011261015857905490516001600160a01b039091168152602090f35b5050346101585781600319360112610158576020905166038d7ea4c680008152f35b50503461015857816003193601126101585760025490516001600160a01b039091168152602090f35b9050346101f557826003193601126101f5575490516001600160a01b03909116815260209150f35b83346103fe57806003193601126103fe576103bd610e15565b600080546001600160a01b0319811682556001600160a01b03167f8be0079c531659141344cd1fd0a4f28419497f9722a3daafe3b4186f6b6457e08280a380f35b80fd5b5050346101585781600319360112610158576020905160078152f35b50503461015857816003193601126101585760055490516001600160a01b039091168152602090f35b8284346103fe5760203660031901126103fe5782356001600160a01b0381169081900361015857816060845161047b81610d33565b8281528260208201528286820152015281526007602052818120918051926104a284610d33565b8054845260018101546020850190815260ff6003600284015493858801948552015416606086019460038210156104fe576080876104fc888888888884528251955186525160208601525190840152516060830190610cb0565bf35b634e487b7160e01b815260218852602490fd5b5050346101585781600319360112610158576020906009549051908152f35b50503461015857816003193601126101585760209051662386f26fc100008152f35b9050346101f55760203660031901126101f557356001600160a01b038116908190036101f55781836104fc92608095526007602052209182549260018101549160ff600360028401549301541692815195865260208601528401526060830190610cb0565b505034610158578160031936011261015857602090516109c48152f35b50503461015857816003193601126101585760015490516001600160a01b039091168152602090f35b50503461015857816003193601126101585760209051620151808152f35b505034610158578160031936011261015857602090516113888152f35b90848093506003193601126101f5577f9b779b17422d0df92223018b32b4d1fa46e071723d6817e2486d003becc55f00916002835414610ca457506002825566038d7ea4c680003410610c7157338352602090600782528484206201518091824204928254049283811115610c2e57600184819515159283610c1a575b505050610bf2575b6106c634610d80565b906106d082610dad565b9060078510610bc3576032915b6064928184029184830403610af257830190818411610af257839161070191610cf6565b600354919004946001600160a01b03918890831680610b18575b5050600390428155876001820155600281016107378154610d71565b9055016003851015610b055760ff1981541660ff861617905561075b600854610d71565b600855600954348101809111610af257600955806001541690813b15610aee579086918b5163011e8a6b60e51b815233858201528b818781836024978d898401526044998a8401525af18015610ae457610ad1575b50611388908134029134159034840414811715610abf57612710809304926109c48034029034820414831715610aad57819004916105dc9081340291348304141715610aad5704908d8080806108138661080e8761080e8c34610cd3565b610cd3565b97878c54165af1610822610dd5565b5015610a73578d8080809386600554165af161083c610dd5565b5015610a3257838b8f8460025416905192838092630308a59b60e31b8252338c8301525afa908115610a2757908e9182916109ed575b50806109e4575b1561098057508160025416803b1561097c578d908f87905180948193630a94beaf60e21b8352338c840152818a8401525af1801561097257908d9291610956575b5081809381925b600654165af16108cf610dd5565b50156109215750505050956108ef60019697825195348752860190610cb0565b83015260608201527f547ad9bdcd235d0bb15c287a2358e52c18b9392b7a957e3b6b73260a51f37a3a60803392a25580f35b8a5162461bcd60e51b815292830188905260149083015273109d5c9b881d1c985b9cd9995c8819985a5b195960621b90820152fd5b61096290929192610d09565b61096e578b908e6108ba565b8b80fd5b8e513d8f823e3d90fd5b8d80fd5b8080809385600554165af1610993610dd5565b50156109a4578b80809381936108c1565b50508a5162461bcd60e51b81529283018890526018908301527f526566657272616c2066616c6c6261636b206661696c6564000000000000000090820152fd5b50811515610879565b8092508d8092503d8311610a20575b610a068183610d4f565b8101031261097c5751801515810361097c578d9038610872565b503d6109fc565b508e513d8f823e3d90fd5b50508b5162461bcd60e51b8152938401899052506018908301527f5472656173757279207472616e73666572206661696c6564000000000000000090820152fd5b50508c5162461bcd60e51b81529485018a9052505060159083015274141c9a5e99481d1c985b9cd9995c8819985a5b1959605a1b90820152fd5b634e487b7160e01b8f5260118852858ffd5b634e487b7160e01b8d5260118652838dfd5b610add909b919b610d09565b998c6107b0565b8d513d8e823e3d90fd5b8980fd5b634e487b7160e01b8a526011835260248afd5b634e487b7160e01b8a526021835260248afd5b8c5163647ded0560e01b815233868201529190829060249082905afa908115610bb9578b91610b88575b5080610b50575b889061071b565b909561271091820190818311610b755760039291610b6d91610cf6565b049590610b49565b634e487b7160e01b8c526011855260248cfd5b90508881813d8311610bb2575b610b9f8183610d4f565b81010312610bae57518c610b42565b8a80fd5b503d610b95565b8c513d8d823e3d90fd5b6032850285810460321486151715610bdf5760079004916106dd565b634e487b7160e01b895260118252602489fd5b9180820154908101809111610c0757916106bd565b634e487b7160e01b865260118352602486fd5b610c25929350610cd3565b148389806106b5565b875162461bcd60e51b8152808301869052601860248201527f416c726561647920636865636b656420696e20746f64617900000000000000006044820152606490fd5b606490602085519162461bcd60e51b8352820152600d60248201526c42656c6f77206d696e696d756d60981b6044820152fd5b633ee5aeb560e01b8152fd5b906003821015610cbd5752565b634e487b7160e01b600052602160045260246000fd5b91908203918211610ce057565b634e487b7160e01b600052601160045260246000fd5b81810292918115918404141715610ce057565b67ffffffffffffffff8111610d1d57604052565b634e487b7160e01b600052604160045260246000fd5b6080810190811067ffffffffffffffff821117610d1d57604052565b90601f8019910116810190811067ffffffffffffffff821117610d1d57604052565b6000198114610ce05760010190565b66b1a2bc2ec50000811015610da757662386f26fc100001115610da257600090565b600190565b50600290565b6003811015610cbd5760028114610dcf57600114610dca57600190565b600390565b50600a90565b3d15610e10573d9067ffffffffffffffff8211610d1d5760405191610e04601f8201601f191660200184610d4f565b82523d6000602084013e565b606090565b6000546001600160a01b03163303610e2957565b60405163118cdaa760e01b8152336004820152602490fdfea26469706673582212200b2c2a58c328ba994f52d39145be3ba3760dd66653473251a3f215161bf606fe64736f6c63430008180033","opcodes":"PUSH1 0x80 CALLVALUE PUSH2 0x149 JUMPI PUSH1 0x1F PUSH2 0xFF0 CODESIZE DUP2 SWAP1 SUB SWAP2 DUP3 ADD PUSH1 0x1F NOT AND DUP4 ADD SWAP2 PUSH1 0x1 PUSH1 0x1 PUSH1 0x40 SHL SUB DUP4 GT DUP5 DUP5 LT OR PUSH2 0x14E JUMPI DUP1 DUP5 SWAP3 PUSH1 0xA0 SWAP5 PUSH1 0x40 MSTORE DUP4 CODECOPY DUP2 ADD SUB SLT PUSH2 0x149 JUMPI PUSH2 0x47 DUP2 PUSH2 0x164 JUMP JUMPDEST PUSH2 0x53 PUSH1 0x20 DUP4 ADD PUSH2 0x164 JUMP JUMPDEST PUSH2 0x5F PUSH1 0x40 DUP5 ADD PUSH2 0x164 JUMP JUMPDEST SWAP1 PUSH2 0x78 PUSH1 0x80 PUSH2 0x71 PUSH1 0x60 DUP8 ADD PUSH2 0x164 JUMP JUMPDEST SWAP6 ADD PUSH2 0x164 JUMP JUMPDEST SWAP1 CALLER ISZERO PUSH2 0x130 JUMPI PUSH1 0x0 SLOAD SWAP5 PUSH1 0x1 DUP1 PUSH1 0xA0 SHL SUB DUP1 SWAP5 DUP2 DUP1 SWAP5 DUP2 PUSH1 0x1 DUP1 PUSH1 0xA0 SHL SUB NOT SWAP10 CALLER DUP12 DUP14 AND OR PUSH1 0x0 SSTORE PUSH1 0x40 MLOAD SWAP12 DUP3 CALLER SWAP2 AND PUSH32 0x8BE0079C531659141344CD1FD0A4F28419497F9722A3DAAFE3B4186F6B6457E0 PUSH1 0x0 DUP1 LOG3 PUSH1 0x1 PUSH32 0x9B779B17422D0DF92223018B32B4D1FA46E071723D6817E2486D003BECC55F00 SSTORE AND DUP10 PUSH1 0x1 SLOAD AND OR PUSH1 0x1 SSTORE AND DUP8 PUSH1 0x2 SLOAD AND OR PUSH1 0x2 SSTORE AND DUP6 PUSH1 0x4 SLOAD AND OR PUSH1 0x4 SSTORE AND DUP4 PUSH1 0x5 SLOAD AND OR PUSH1 0x5 SSTORE AND SWAP1 PUSH1 0x6 SLOAD AND OR PUSH1 0x6 SSTORE PUSH2 0xE77 SWAP1 DUP2 PUSH2 0x179 DUP3 CODECOPY RETURN JUMPDEST PUSH1 0x40 MLOAD PUSH4 0x1E4FBDF7 PUSH1 0xE0 SHL DUP2 MSTORE PUSH1 0x0 PUSH1 0x4 DUP3 ADD MSTORE PUSH1 0x24 SWAP1 REVERT JUMPDEST PUSH1 0x0 DUP1 REVERT JUMPDEST PUSH4 0x4E487B71 PUSH1 0xE0 SHL PUSH1 0x0 MSTORE PUSH1 0x41 PUSH1 0x4 MSTORE PUSH1 0x24 PUSH1 0x0 REVERT JUMPDEST MLOAD SWAP1 PUSH1 0x1 PUSH1 0x1 PUSH1 0xA0 SHL SUB DUP3 AND DUP3 SUB PUSH2 0x149 JUMPI JUMP INVALID PUSH1 0x80 PUSH1 0x40 DUP2 DUP2 MSTORE PUSH1 0x4 SWAP2 DUP3 CALLDATASIZE LT ISZERO PUSH2 0x16 JUMPI PUSH1 0x0 DUP1 REVERT JUMPDEST PUSH1 0x0 SWAP3 DUP4 CALLDATALOAD PUSH1 0xE0 SHR SWAP2 DUP3 PUSH4 0x183FF085 EQ PUSH2 0x638 JUMPI POP DUP2 PUSH4 0x1BA86794 EQ PUSH2 0x61B JUMPI DUP2 PUSH4 0x27CFE856 EQ PUSH2 0x5FD JUMPI DUP2 PUSH4 0x2B4F8A1F EQ PUSH2 0x5D4 JUMPI DUP2 PUSH4 0x32696174 EQ PUSH2 0x5B7 JUMPI DUP2 PUSH4 0x469E9067 EQ PUSH2 0x552 JUMPI DUP2 PUSH4 0x58E5A7C9 EQ PUSH2 0x530 JUMPI DUP2 PUSH4 0x60C6D8AE EQ PUSH2 0x511 JUMPI DUP2 PUSH4 0x617FBA04 EQ PUSH2 0x446 JUMPI DUP2 PUSH4 0x61D027B3 EQ PUSH2 0x41D JUMPI DUP2 PUSH4 0x6C3B6803 EQ PUSH2 0x401 JUMPI DUP2 PUSH4 0x715018A6 EQ PUSH2 0x3A4 JUMPI DUP2 PUSH4 0x719CE73E EQ PUSH2 0x37C JUMPI DUP2 PUSH4 0x7DAD19DB EQ PUSH2 0x353 JUMPI DUP2 PUSH4 0x826DC142 EQ PUSH2 0x331 JUMPI DUP2 PUSH4 0x8DA5CB5B EQ PUSH2 0x309 JUMPI DUP2 PUSH4 0x93B998FB EQ PUSH2 0x2EC JUMPI DUP2 PUSH4 0x9DD373B9 EQ PUSH2 0x2A3 JUMPI DUP2 PUSH4 0xA563EAA3 EQ PUSH2 0x284 JUMPI DUP2 PUSH4 0xB21B5A21 EQ PUSH2 0x267 JUMPI DUP2 PUSH4 0xB5AB1C5D EQ PUSH2 0x24B JUMPI DUP2 PUSH4 0xBF16257A EQ PUSH2 0x222 JUMPI DUP2 PUSH4 0xEE99205C EQ PUSH2 0x1F9 JUMPI DUP2 PUSH4 0xF2FDE38B EQ PUSH2 0x15C JUMPI POP PUSH4 0xF47790D6 EQ PUSH2 0x138 JUMPI PUSH1 0x0 DUP1 REVERT JUMPDEST CALLVALUE PUSH2 0x158 JUMPI DUP2 PUSH1 0x3 NOT CALLDATASIZE ADD SLT PUSH2 0x158 JUMPI PUSH1 0x20 SWAP1 MLOAD PUSH7 0xB1A2BC2EC50000 DUP2 MSTORE RETURN JUMPDEST POP DUP1 REVERT JUMPDEST SWAP2 SWAP1 POP CALLVALUE PUSH2 0x1F5 JUMPI PUSH1 0x20 CALLDATASIZE PUSH1 0x3 NOT ADD SLT PUSH2 0x1F5 JUMPI PUSH1 0x1 PUSH1 0x1 PUSH1 0xA0 SHL SUB DUP3 CALLDATALOAD DUP2 DUP2 AND SWAP4 SWAP2 SWAP3 SWAP1 DUP5 SWAP1 SUB PUSH2 0x1F1 JUMPI PUSH2 0x190 PUSH2 0xE15 JUMP JUMPDEST DUP4 ISZERO PUSH2 0x1DB JUMPI POP POP PUSH1 0x0 SLOAD DUP3 PUSH12 0xFFFFFFFFFFFFFFFFFFFFFFFF PUSH1 0xA0 SHL DUP3 AND OR PUSH1 0x0 SSTORE AND PUSH32 0x8BE0079C531659141344CD1FD0A4F28419497F9722A3DAAFE3B4186F6B6457E0 PUSH1 0x0 DUP1 LOG3 DUP1 RETURN JUMPDEST MLOAD PUSH4 0x1E4FBDF7 PUSH1 0xE0 SHL DUP2 MSTORE SWAP1 DUP2 ADD DUP5 SWAP1 MSTORE PUSH1 0x24 SWAP1 REVERT JUMPDEST DUP5 DUP1 REVERT JUMPDEST DUP3 DUP1 REVERT JUMPDEST POP POP CALLVALUE PUSH2 0x158 JUMPI DUP2 PUSH1 0x3 NOT CALLDATASIZE ADD SLT PUSH2 0x158 JUMPI PUSH1 0x3 SLOAD SWAP1 MLOAD PUSH1 0x1 PUSH1 0x1 PUSH1 0xA0 SHL SUB SWAP1 SWAP2 AND DUP2 MSTORE PUSH1 0x20 SWAP1 RETURN JUMPDEST POP POP CALLVALUE PUSH2 0x158 JUMPI DUP2 PUSH1 0x3 NOT CALLDATASIZE ADD SLT PUSH2 0x158 JUMPI PUSH1 0x6 SLOAD SWAP1 MLOAD PUSH1 0x1 PUSH1 0x1 PUSH1 0xA0 SHL SUB SWAP1 SWAP2 AND DUP2 MSTORE PUSH1 0x20 SWAP1 RETURN JUMPDEST POP POP CALLVALUE PUSH2 0x158 JUMPI DUP2 PUSH1 0x3 NOT CALLDATASIZE ADD SLT PUSH2 0x158 JUMPI PUSH1 0x20 SWAP1 MLOAD PUSH1 0x64 DUP2 MSTORE RETURN JUMPDEST POP POP CALLVALUE PUSH2 0x158 JUMPI DUP2 PUSH1 0x3 NOT CALLDATASIZE ADD SLT PUSH2 0x158 JUMPI PUSH1 0x20 SWAP1 MLOAD PUSH2 0x5DC DUP2 MSTORE RETURN JUMPDEST POP POP CALLVALUE PUSH2 0x158 JUMPI DUP2 PUSH1 0x3 NOT CALLDATASIZE ADD SLT PUSH2 0x158 JUMPI PUSH1 0x20 SWAP1 PUSH1 0x8 SLOAD SWAP1 MLOAD SWAP1 DUP2 MSTORE RETURN JUMPDEST DUP4 SWAP1 CALLVALUE PUSH2 0x158 JUMPI PUSH1 0x20 CALLDATASIZE PUSH1 0x3 NOT ADD SLT PUSH2 0x158 JUMPI CALLDATALOAD PUSH1 0x1 PUSH1 0x1 PUSH1 0xA0 SHL SUB DUP2 AND SWAP1 DUP2 SWAP1 SUB PUSH2 0x158 JUMPI PUSH2 0x2D1 PUSH2 0xE15 JUMP JUMPDEST PUSH12 0xFFFFFFFFFFFFFFFFFFFFFFFF PUSH1 0xA0 SHL PUSH1 0x3 SLOAD AND OR PUSH1 0x3 SSTORE DUP1 RETURN JUMPDEST POP POP CALLVALUE PUSH2 0x158 JUMPI DUP2 PUSH1 0x3 NOT CALLDATASIZE ADD SLT PUSH2 0x158 JUMPI PUSH1 0x20 SWAP1 MLOAD PUSH2 0x3E8 DUP2 MSTORE RETURN JUMPDEST POP POP CALLVALUE PUSH2 0x158 JUMPI DUP2 PUSH1 0x3 NOT CALLDATASIZE ADD SLT PUSH2 0x158 JUMPI SWAP1 SLOAD SWAP1 MLOAD PUSH1 0x1 PUSH1 0x1 PUSH1 0xA0 SHL SUB SWAP1 SWAP2 AND DUP2 MSTORE PUSH1 0x20 SWAP1 RETURN JUMPDEST POP POP CALLVALUE PUSH2 0x158 JUMPI DUP2 PUSH1 0x3 NOT CALLDATASIZE ADD SLT PUSH2 0x158 JUMPI PUSH1 0x20 SWAP1 MLOAD PUSH7 0x38D7EA4C68000 DUP2 MSTORE RETURN JUMPDEST POP POP CALLVALUE PUSH2 0x158 JUMPI DUP2 PUSH1 0x3 NOT CALLDATASIZE ADD SLT PUSH2 0x158 JUMPI PUSH1 0x2 SLOAD SWAP1 MLOAD PUSH1 0x1 PUSH1 0x1 PUSH1 0xA0 SHL SUB SWAP1 SWAP2 AND DUP2 MSTORE PUSH1 0x20 SWAP1 RETURN JUMPDEST SWAP1 POP CALLVALUE PUSH2 0x1F5 JUMPI DUP3 PUSH1 0x3 NOT CALLDATASIZE ADD SLT PUSH2 0x1F5 JUMPI SLOAD SWAP1 MLOAD PUSH1 0x1 PUSH1 0x1 PUSH1 0xA0 SHL SUB SWAP1 SWAP2 AND DUP2 MSTORE PUSH1 0x20 SWAP2 POP RETURN JUMPDEST DUP4 CALLVALUE PUSH2 0x3FE JUMPI DUP1 PUSH1 0x3 NOT CALLDATASIZE ADD SLT PUSH2 0x3FE JUMPI PUSH2 0x3BD PUSH2 0xE15 JUMP JUMPDEST PUSH1 0x0 DUP1 SLOAD PUSH1 0x1 PUSH1 0x1 PUSH1 0xA0 SHL SUB NOT DUP2 AND DUP3 SSTORE PUSH1 0x1 PUSH1 0x1 PUSH1 0xA0 SHL SUB AND PUSH32 0x8BE0079C531659141344CD1FD0A4F28419497F9722A3DAAFE3B4186F6B6457E0 DUP3 DUP1 LOG3 DUP1 RETURN JUMPDEST DUP1 REVERT JUMPDEST POP POP CALLVALUE PUSH2 0x158 JUMPI DUP2 PUSH1 0x3 NOT CALLDATASIZE ADD SLT PUSH2 0x158 JUMPI PUSH1 0x20 SWAP1 MLOAD PUSH1 0x7 DUP2 MSTORE RETURN JUMPDEST POP POP CALLVALUE PUSH2 0x158 JUMPI DUP2 PUSH1 0x3 NOT CALLDATASIZE ADD SLT PUSH2 0x158 JUMPI PUSH1 0x5 SLOAD SWAP1 MLOAD PUSH1 0x1 PUSH1 0x1 PUSH1 0xA0 SHL SUB SWAP1 SWAP2 AND DUP2 MSTORE PUSH1 0x20 SWAP1 RETURN JUMPDEST DUP3 DUP5 CALLVALUE PUSH2 0x3FE JUMPI PUSH1 0x20 CALLDATASIZE PUSH1 0x3 NOT ADD SLT PUSH2 0x3FE JUMPI DUP3 CALLDATALOAD PUSH1 0x1 PUSH1 0x1 PUSH1 0xA0 SHL SUB DUP2 AND SWAP1 DUP2 SWAP1 SUB PUSH2 0x158 JUMPI DUP2 PUSH1 0x60 DUP5 MLOAD PUSH2 0x47B DUP2 PUSH2 0xD33 JUMP JUMPDEST DUP3 DUP2 MSTORE DUP3 PUSH1 0x20 DUP3 ADD MSTORE DUP3 DUP7 DUP3 ADD MSTORE ADD MSTORE DUP2 MSTORE PUSH1 0x7 PUSH1 0x20 MSTORE DUP2 DUP2 KECCAK256 SWAP2 DUP1 MLOAD SWAP3 PUSH2 0x4A2 DUP5 PUSH2 0xD33 JUMP JUMPDEST DUP1 SLOAD DUP5 MSTORE PUSH1 0x1 DUP2 ADD SLOAD PUSH1 0x20 DUP6 ADD SWAP1 DUP2 MSTORE PUSH1 0xFF PUSH1 0x3 PUSH1 0x2 DUP5 ADD SLOAD SWAP4 DUP6 DUP9 ADD SWAP5 DUP6 MSTORE ADD SLOAD AND PUSH1 0x60 DUP7 ADD SWAP5 PUSH1 0x3 DUP3 LT ISZERO PUSH2 0x4FE JUMPI PUSH1 0x80 DUP8 PUSH2 0x4FC DUP9 DUP9 DUP9 DUP9 DUP9 DUP5 MSTORE DUP3 MLOAD SWAP6 MLOAD DUP7 MSTORE MLOAD PUSH1 0x20 DUP7 ADD MSTORE MLOAD SWAP1 DUP5 ADD MSTORE MLOAD PUSH1 0x60 DUP4 ADD SWAP1 PUSH2 0xCB0 JUMP JUMPDEST RETURN JUMPDEST PUSH4 0x4E487B71 PUSH1 0xE0 SHL DUP2 MSTORE PUSH1 0x21 DUP9 MSTORE PUSH1 0x24 SWAP1 REVERT JUMPDEST POP POP CALLVALUE PUSH2 0x158 JUMPI DUP2 PUSH1 0x3 NOT CALLDATASIZE ADD SLT PUSH2 0x158 JUMPI PUSH1 0x20 SWAP1 PUSH1 0x9 SLOAD SWAP1 MLOAD SWAP1 DUP2 MSTORE RETURN JUMPDEST POP POP CALLVALUE PUSH2 0x158 JUMPI DUP2 PUSH1 0x3 NOT CALLDATASIZE ADD SLT PUSH2 0x158 JUMPI PUSH1 0x20 SWAP1 MLOAD PUSH7 0x2386F26FC10000 DUP2 MSTORE RETURN JUMPDEST SWAP1 POP CALLVALUE PUSH2 0x1F5 JUMPI PUSH1 0x20 CALLDATASIZE PUSH1 0x3 NOT ADD SLT PUSH2 0x1F5 JUMPI CALLDATALOAD PUSH1 0x1 PUSH1 0x1 PUSH1 0xA0 SHL SUB DUP2 AND SWAP1 DUP2 SWAP1 SUB PUSH2 0x1F5 JUMPI DUP2 DUP4 PUSH2 0x4FC SWAP3 PUSH1 0x80 SWAP6 MSTORE PUSH1 0x7 PUSH1 0x20 MSTORE KECCAK256 SWAP2 DUP3 SLOAD SWAP3 PUSH1 0x1 DUP2 ADD SLOAD SWAP2 PUSH1 0xFF PUSH1 0x3 PUSH1 0x2 DUP5 ADD SLOAD SWAP4 ADD SLOAD AND SWAP3 DUP2 MLOAD SWAP6 DUP7 MSTORE PUSH1 0x20 DUP7 ADD MSTORE DUP5 ADD MSTORE PUSH1 0x60 DUP4 ADD SWAP1 PUSH2 0xCB0 JUMP JUMPDEST POP POP CALLVALUE PUSH2 0x158 JUMPI DUP2 PUSH1 0x3 NOT CALLDATASIZE ADD SLT PUSH2 0x158 JUMPI PUSH1 0x20 SWAP1 MLOAD PUSH2 0x9C4 DUP2 MSTORE RETURN JUMPDEST POP POP CALLVALUE PUSH2 0x158 JUMPI DUP2 PUSH1 0x3 NOT CALLDATASIZE ADD SLT PUSH2 0x158 JUMPI PUSH1 0x1 SLOAD SWAP1 MLOAD PUSH1 0x1 PUSH1 0x1 PUSH1 0xA0 SHL SUB SWAP1 SWAP2 AND DUP2 MSTORE PUSH1 0x20 SWAP1 RETURN JUMPDEST POP POP CALLVALUE PUSH2 0x158 JUMPI DUP2 PUSH1 0x3 NOT CALLDATASIZE ADD SLT PUSH2 0x158 JUMPI PUSH1 0x20 SWAP1 MLOAD PUSH3 0x15180 DUP2 MSTORE RETURN JUMPDEST POP POP CALLVALUE PUSH2 0x158 JUMPI DUP2 PUSH1 0x3 NOT CALLDATASIZE ADD SLT PUSH2 0x158 JUMPI PUSH1 0x20 SWAP1 MLOAD PUSH2 0x1388 DUP2 MSTORE RETURN JUMPDEST SWAP1 DUP5 DUP1 SWAP4 POP PUSH1 0x3 NOT CALLDATASIZE ADD SLT PUSH2 0x1F5 JUMPI PUSH32 0x9B779B17422D0DF92223018B32B4D1FA46E071723D6817E2486D003BECC55F00 SWAP2 PUSH1 0x2 DUP4 SLOAD EQ PUSH2 0xCA4 JUMPI POP PUSH1 0x2 DUP3 SSTORE PUSH7 0x38D7EA4C68000 CALLVALUE LT PUSH2 0xC71 JUMPI CALLER DUP4 MSTORE PUSH1 0x20 SWAP1 PUSH1 0x7 DUP3 MSTORE DUP5 DUP5 KECCAK256 PUSH3 0x15180 SWAP2 DUP3 TIMESTAMP DIV SWAP3 DUP3 SLOAD DIV SWAP3 DUP4 DUP2 GT ISZERO PUSH2 0xC2E JUMPI PUSH1 0x1 DUP5 DUP2 SWAP6 ISZERO ISZERO SWAP3 DUP4 PUSH2 0xC1A JUMPI JUMPDEST POP POP POP PUSH2 0xBF2 JUMPI JUMPDEST PUSH2 0x6C6 CALLVALUE PUSH2 0xD80 JUMP JUMPDEST SWAP1 PUSH2 0x6D0 DUP3 PUSH2 0xDAD JUMP JUMPDEST SWAP1 PUSH1 0x7 DUP6 LT PUSH2 0xBC3 JUMPI PUSH1 0x32 SWAP2 JUMPDEST PUSH1 0x64 SWAP3 DUP2 DUP5 MUL SWAP2 DUP5 DUP4 DIV SUB PUSH2 0xAF2 JUMPI DUP4 ADD SWAP1 DUP2 DUP5 GT PUSH2 0xAF2 JUMPI DUP4 SWAP2 PUSH2 0x701 SWAP2 PUSH2 0xCF6 JUMP JUMPDEST PUSH1 0x3 SLOAD SWAP2 SWAP1 DIV SWAP5 PUSH1 0x1 PUSH1 0x1 PUSH1 0xA0 SHL SUB SWAP2 DUP9 SWAP1 DUP4 AND DUP1 PUSH2 0xB18 JUMPI JUMPDEST POP POP PUSH1 0x3 SWAP1 TIMESTAMP DUP2 SSTORE DUP8 PUSH1 0x1 DUP3 ADD SSTORE PUSH1 0x2 DUP2 ADD PUSH2 0x737 DUP2 SLOAD PUSH2 0xD71 JUMP JUMPDEST SWAP1 SSTORE ADD PUSH1 0x3 DUP6 LT ISZERO PUSH2 0xB05 JUMPI PUSH1 0xFF NOT DUP2 SLOAD AND PUSH1 0xFF DUP7 AND OR SWAP1 SSTORE PUSH2 0x75B PUSH1 0x8 SLOAD PUSH2 0xD71 JUMP JUMPDEST PUSH1 0x8 SSTORE PUSH1 0x9 SLOAD CALLVALUE DUP2 ADD DUP1 SWAP2 GT PUSH2 0xAF2 JUMPI PUSH1 0x9 SSTORE DUP1 PUSH1 0x1 SLOAD AND SWAP1 DUP2 EXTCODESIZE ISZERO PUSH2 0xAEE JUMPI SWAP1 DUP7 SWAP2 DUP12 MLOAD PUSH4 0x11E8A6B PUSH1 0xE5 SHL DUP2 MSTORE CALLER DUP6 DUP3 ADD MSTORE DUP12 DUP2 DUP8 DUP2 DUP4 PUSH1 0x24 SWAP8 DUP14 DUP10 DUP5 ADD MSTORE PUSH1 0x44 SWAP10 DUP11 DUP5 ADD MSTORE GAS CALL DUP1 ISZERO PUSH2 0xAE4 JUMPI PUSH2 0xAD1 JUMPI JUMPDEST POP PUSH2 0x1388 SWAP1 DUP2 CALLVALUE MUL SWAP2 CALLVALUE ISZERO SWAP1 CALLVALUE DUP5 DIV EQ DUP2 OR ISZERO PUSH2 0xABF JUMPI PUSH2 0x2710 DUP1 SWAP4 DIV SWAP3 PUSH2 0x9C4 DUP1 CALLVALUE MUL SWAP1 CALLVALUE DUP3 DIV EQ DUP4 OR ISZERO PUSH2 0xAAD JUMPI DUP2 SWAP1 DIV SWAP2 PUSH2 0x5DC SWAP1 DUP2 CALLVALUE MUL SWAP2 CALLVALUE DUP4 DIV EQ OR ISZERO PUSH2 0xAAD JUMPI DIV SWAP1 DUP14 DUP1 DUP1 DUP1 PUSH2 0x813 DUP7 PUSH2 0x80E DUP8 PUSH2 0x80E DUP13 CALLVALUE PUSH2 0xCD3 JUMP JUMPDEST PUSH2 0xCD3 JUMP JUMPDEST SWAP8 DUP8 DUP13 SLOAD AND GAS CALL PUSH2 0x822 PUSH2 0xDD5 JUMP JUMPDEST POP ISZERO PUSH2 0xA73 JUMPI DUP14 DUP1 DUP1 DUP1 SWAP4 DUP7 PUSH1 0x5 SLOAD AND GAS CALL PUSH2 0x83C PUSH2 0xDD5 JUMP JUMPDEST POP ISZERO PUSH2 0xA32 JUMPI DUP4 DUP12 DUP16 DUP5 PUSH1 0x2 SLOAD AND SWAP1 MLOAD SWAP3 DUP4 DUP1 SWAP3 PUSH4 0x308A59B PUSH1 0xE3 SHL DUP3 MSTORE CALLER DUP13 DUP4 ADD MSTORE GAS STATICCALL SWAP1 DUP2 ISZERO PUSH2 0xA27 JUMPI SWAP1 DUP15 SWAP2 DUP3 SWAP2 PUSH2 0x9ED JUMPI JUMPDEST POP DUP1 PUSH2 0x9E4 JUMPI JUMPDEST ISZERO PUSH2 0x980 JUMPI POP DUP2 PUSH1 0x2 SLOAD AND DUP1 EXTCODESIZE ISZERO PUSH2 0x97C JUMPI DUP14 SWAP1 DUP16 DUP8 SWAP1 MLOAD DUP1 SWAP5 DUP2 SWAP4 PUSH4 0xA94BEAF PUSH1 0xE2 SHL DUP4 MSTORE CALLER DUP13 DUP5 ADD MSTORE DUP2 DUP11 DUP5 ADD MSTORE GAS CALL DUP1 ISZERO PUSH2 0x972 JUMPI SWAP1 DUP14 SWAP3 SWAP2 PUSH2 0x956 JUMPI JUMPDEST POP DUP2 DUP1 SWAP4 DUP2 SWAP3 JUMPDEST PUSH1 0x6 SLOAD AND GAS CALL PUSH2 0x8CF PUSH2 0xDD5 JUMP JUMPDEST POP ISZERO PUSH2 0x921 JUMPI POP POP POP POP SWAP6 PUSH2 0x8EF PUSH1 0x1 SWAP7 SWAP8 DUP3 MLOAD SWAP6 CALLVALUE DUP8 MSTORE DUP7 ADD SWAP1 PUSH2 0xCB0 JUMP JUMPDEST DUP4 ADD MSTORE PUSH1 0x60 DUP3 ADD MSTORE PUSH32 0x547AD9BDCD235D0BB15C287A2358E52C18B9392B7A957E3B6B73260A51F37A3A PUSH1 0x80 CALLER SWAP3 LOG2 SSTORE DUP1 RETURN JUMPDEST DUP11 MLOAD PUSH3 0x461BCD PUSH1 0xE5 SHL DUP2 MSTORE SWAP3 DUP4 ADD DUP9 SWAP1 MSTORE PUSH1 0x14 SWAP1 DUP4 ADD MSTORE PUSH20 0x109D5C9B881D1C985B9CD9995C8819985A5B1959 PUSH1 0x62 SHL SWAP1 DUP3 ADD MSTORE REVERT JUMPDEST PUSH2 0x962 SWAP1 SWAP3 SWAP2 SWAP3 PUSH2 0xD09 JUMP JUMPDEST PUSH2 0x96E JUMPI DUP12 SWAP1 DUP15 PUSH2 0x8BA JUMP JUMPDEST DUP12 DUP1 REVERT JUMPDEST DUP15 MLOAD RETURNDATASIZE DUP16 DUP3 RETURNDATACOPY RETURNDATASIZE SWAP1 REVERT JUMPDEST DUP14 DUP1 REVERT JUMPDEST DUP1 DUP1 DUP1 SWAP4 DUP6 PUSH1 0x5 SLOAD AND GAS CALL PUSH2 0x993 PUSH2 0xDD5 JUMP JUMPDEST POP ISZERO PUSH2 0x9A4 JUMPI DUP12 DUP1 DUP1 SWAP4 DUP2 SWAP4 PUSH2 0x8C1 JUMP JUMPDEST POP POP DUP11 MLOAD PUSH3 0x461BCD PUSH1 0xE5 SHL DUP2 MSTORE SWAP3 DUP4 ADD DUP9 SWAP1 MSTORE PUSH1 0x18 SWAP1 DUP4 ADD MSTORE PUSH32 0x526566657272616C2066616C6C6261636B206661696C65640000000000000000 SWAP1 DUP3 ADD MSTORE REVERT JUMPDEST POP DUP2 ISZERO ISZERO PUSH2 0x879 JUMP JUMPDEST DUP1 SWAP3 POP DUP14 DUP1 SWAP3 POP RETURNDATASIZE DUP4 GT PUSH2 0xA20 JUMPI JUMPDEST PUSH2 0xA06 DUP2 DUP4 PUSH2 0xD4F JUMP JUMPDEST DUP2 ADD SUB SLT PUSH2 0x97C JUMPI MLOAD DUP1 ISZERO ISZERO DUP2 SUB PUSH2 0x97C JUMPI DUP14 SWAP1 CODESIZE PUSH2 0x872 JUMP JUMPDEST POP RETURNDATASIZE PUSH2 0x9FC JUMP JUMPDEST POP DUP15 MLOAD RETURNDATASIZE DUP16 DUP3 RETURNDATACOPY RETURNDATASIZE SWAP1 REVERT JUMPDEST POP POP DUP12 MLOAD PUSH3 0x461BCD PUSH1 0xE5 SHL DUP2 MSTORE SWAP4 DUP5 ADD DUP10 SWAP1 MSTORE POP PUSH1 0x18 SWAP1 DUP4 ADD MSTORE PUSH32 0x5472656173757279207472616E73666572206661696C65640000000000000000 SWAP1 DUP3 ADD MSTORE REVERT JUMPDEST POP POP DUP13 MLOAD PUSH3 0x461BCD PUSH1 0xE5 SHL DUP2 MSTORE SWAP5 DUP6 ADD DUP11 SWAP1 MSTORE POP POP PUSH1 0x15 SWAP1 DUP4 ADD MSTORE PUSH21 0x141C9A5E99481D1C985B9CD9995C8819985A5B1959 PUSH1 0x5A SHL SWAP1 DUP3 ADD MSTORE REVERT JUMPDEST PUSH4 0x4E487B71 PUSH1 0xE0 SHL DUP16 MSTORE PUSH1 0x11 DUP9 MSTORE DUP6 DUP16 REVERT JUMPDEST PUSH4 0x4E487B71 PUSH1 0xE0 SHL DUP14 MSTORE PUSH1 0x11 DUP7 MSTORE DUP4 DUP14 REVERT JUMPDEST PUSH2 0xADD SWAP1 SWAP12 SWAP2 SWAP12 PUSH2 0xD09 JUMP JUMPDEST SWAP10 DUP13 PUSH2 0x7B0 JUMP JUMPDEST DUP14 MLOAD RETURNDATASIZE DUP15 DUP3 RETURNDATACOPY RETURNDATASIZE SWAP1 REVERT JUMPDEST DUP10 DUP1 REVERT JUMPDEST PUSH4 0x4E487B71 PUSH1 0xE0 SHL DUP11 MSTORE PUSH1 0x11 DUP4 MSTORE PUSH1 0x24 DUP11 REVERT JUMPDEST PUSH4 0x4E487B71 PUSH1 0xE0 SHL DUP11 MSTORE PUSH1 0x21 DUP4 MSTORE PUSH1 0x24 DUP11 REVERT JUMPDEST DUP13 MLOAD PUSH4 0x647DED05 PUSH1 0xE0 SHL DUP2 MSTORE CALLER DUP7 DUP3 ADD MSTORE SWAP2 SWAP1 DUP3 SWAP1 PUSH1 0x24 SWAP1 DUP3 SWAP1 GAS STATICCALL SWAP1 DUP2 ISZERO PUSH2 0xBB9 JUMPI DUP12 SWAP2 PUSH2 0xB88 JUMPI JUMPDEST POP DUP1 PUSH2 0xB50 JUMPI JUMPDEST DUP9 SWAP1 PUSH2 0x71B JUMP JUMPDEST SWAP1 SWAP6 PUSH2 0x2710 SWAP2 DUP3 ADD SWAP1 DUP2 DUP4 GT PUSH2 0xB75 JUMPI PUSH1 0x3 SWAP3 SWAP2 PUSH2 0xB6D SWAP2 PUSH2 0xCF6 JUMP JUMPDEST DIV SWAP6 SWAP1 PUSH2 0xB49 JUMP JUMPDEST PUSH4 0x4E487B71 PUSH1 0xE0 SHL DUP13 MSTORE PUSH1 0x11 DUP6 MSTORE PUSH1 0x24 DUP13 REVERT JUMPDEST SWAP1 POP DUP9 DUP2 DUP2 RETURNDATASIZE DUP4 GT PUSH2 0xBB2 JUMPI JUMPDEST PUSH2 0xB9F DUP2 DUP4 PUSH2 0xD4F JUMP JUMPDEST DUP2 ADD SUB SLT PUSH2 0xBAE JUMPI MLOAD DUP13 PUSH2 0xB42 JUMP JUMPDEST DUP11 DUP1 REVERT JUMPDEST POP RETURNDATASIZE PUSH2 0xB95 JUMP JUMPDEST DUP13 MLOAD RETURNDATASIZE DUP14 DUP3 RETURNDATACOPY RETURNDATASIZE SWAP1 REVERT JUMPDEST PUSH1 0x32 DUP6 MUL DUP6 DUP2 DIV PUSH1 0x32 EQ DUP7 ISZERO OR ISZERO PUSH2 0xBDF JUMPI PUSH1 0x7 SWAP1 DIV SWAP2 PUSH2 0x6DD JUMP JUMPDEST PUSH4 0x4E487B71 PUSH1 0xE0 SHL DUP10 MSTORE PUSH1 0x11 DUP3 MSTORE PUSH1 0x24 DUP10 REVERT JUMPDEST SWAP2 DUP1 DUP3 ADD SLOAD SWAP1 DUP2 ADD DUP1 SWAP2 GT PUSH2 0xC07 JUMPI SWAP2 PUSH2 0x6BD JUMP JUMPDEST PUSH4 0x4E487B71 PUSH1 0xE0 SHL DUP7 MSTORE PUSH1 0x11 DUP4 MSTORE PUSH1 0x24 DUP7 REVERT JUMPDEST PUSH2 0xC25 SWAP3 SWAP4 POP PUSH2 0xCD3 JUMP JUMPDEST EQ DUP4 DUP10 DUP1 PUSH2 0x6B5 JUMP JUMPDEST DUP8 MLOAD PUSH3 0x461BCD PUSH1 0xE5 SHL DUP2 MSTORE DUP1 DUP4 ADD DUP7 SWAP1 MSTORE PUSH1 0x18 PUSH1 0x24 DUP3 ADD MSTORE PUSH32 0x416C726561647920636865636B656420696E20746F6461790000000000000000 PUSH1 0x44 DUP3 ADD MSTORE PUSH1 0x64 SWAP1 REVERT JUMPDEST PUSH1 0x64 SWAP1 PUSH1 0x20 DUP6 MLOAD SWAP2 PUSH3 0x461BCD PUSH1 0xE5 SHL DUP4 MSTORE DUP3 ADD MSTORE PUSH1 0xD PUSH1 0x24 DUP3 ADD MSTORE PUSH13 0x42656C6F77206D696E696D756D PUSH1 0x98 SHL PUSH1 0x44 DUP3 ADD MSTORE REVERT JUMPDEST PUSH4 0x3EE5AEB5 PUSH1 0xE0 SHL DUP2 MSTORE REVERT JUMPDEST SWAP1 PUSH1 0x3 DUP3 LT ISZERO PUSH2 0xCBD JUMPI MSTORE JUMP JUMPDEST PUSH4 0x4E487B71 PUSH1 0xE0 SHL PUSH1 0x0 MSTORE PUSH1 0x21 PUSH1 0x4 MSTORE PUSH1 0x24 PUSH1 0x0 REVERT JUMPDEST SWAP2 SWAP1 DUP3 SUB SWAP2 DUP3 GT PUSH2 0xCE0 JUMPI JUMP JUMPDEST PUSH4 0x4E487B71 PUSH1 0xE0 SHL PUSH1 0x0 MSTORE PUSH1 0x11 PUSH1 0x4 MSTORE PUSH1 0x24 PUSH1 0x0 REVERT JUMPDEST DUP2 DUP2 MUL SWAP3 SWAP2 DUP2 ISZERO SWAP2 DUP5 DIV EQ OR ISZERO PUSH2 0xCE0 JUMPI JUMP JUMPDEST PUSH8 0xFFFFFFFFFFFFFFFF DUP2 GT PUSH2 0xD1D JUMPI PUSH1 0x40 MSTORE JUMP JUMPDEST PUSH4 0x4E487B71 PUSH1 0xE0 SHL PUSH1 0x0 MSTORE PUSH1 0x41 PUSH1 0x4 MSTORE PUSH1 0x24 PUSH1 0x0 REVERT JUMPDEST PUSH1 0x80 DUP2 ADD SWAP1 DUP2 LT PUSH8 0xFFFFFFFFFFFFFFFF DUP3 GT OR PUSH2 0xD1D JUMPI PUSH1 0x40 MSTORE JUMP JUMPDEST SWAP1 PUSH1 0x1F DUP1 NOT SWAP2 ADD AND DUP2 ADD SWAP1 DUP2 LT PUSH8 0xFFFFFFFFFFFFFFFF DUP3 GT OR PUSH2 0xD1D JUMPI PUSH1 0x40 MSTORE JUMP JUMPDEST PUSH1 0x0 NOT DUP2 EQ PUSH2 0xCE0 JUMPI PUSH1 0x1 ADD SWAP1 JUMP JUMPDEST PUSH7 0xB1A2BC2EC50000 DUP2 LT ISZERO PUSH2 0xDA7 JUMPI PUSH7 0x2386F26FC10000 GT ISZERO PUSH2 0xDA2 JUMPI PUSH1 0x0 SWAP1 JUMP JUMPDEST PUSH1 0x1 SWAP1 JUMP JUMPDEST POP PUSH1 0x2 SWAP1 JUMP JUMPDEST PUSH1 0x3 DUP2 LT ISZERO PUSH2 0xCBD JUMPI PUSH1 0x2 DUP2 EQ PUSH2 0xDCF JUMPI PUSH1 0x1 EQ PUSH2 0xDCA JUMPI PUSH1 0x1 SWAP1 JUMP JUMPDEST PUSH1 0x3 SWAP1 JUMP JUMPDEST POP PUSH1 0xA SWAP1 JUMP JUMPDEST RETURNDATASIZE ISZERO PUSH2 0xE10 JUMPI RETURNDATASIZE SWAP1 PUSH8 0xFFFFFFFFFFFFFFFF DUP3 GT PUSH2 0xD1D JUMPI PUSH1 0x40 MLOAD SWAP2 PUSH2 0xE04 PUSH1 0x1F DUP3 ADD PUSH1 0x1F NOT AND PUSH1 0x20 ADD DUP5 PUSH2 0xD4F JUMP JUMPDEST DUP3 MSTORE RETURNDATASIZE PUSH1 0x0 PUSH1 0x20 DUP5 ADD RETURNDATACOPY JUMP JUMPDEST PUSH1 0x60 SWAP1 JUMP JUMPDEST PUSH1 0x0 SLOAD PUSH1 0x1 PUSH1 0x1 PUSH1 0xA0 SHL SUB AND CALLER SUB PUSH2 0xE29 JUMPI JUMP JUMPDEST PUSH1 0x40 MLOAD PUSH4 0x118CDAA7 PUSH1 0xE0 SHL DUP2 MSTORE CALLER PUSH1 0x4 DUP3 ADD MSTORE PUSH1 0x24 SWAP1 REVERT INVALID LOG2 PUSH5 0x6970667358 0x22 SLT KECCAK256 SIGNEXTEND 0x2C 0x2A PC 0xC3 0x28 0xBA SWAP10 0x4F MSTORE 0xD3 SWAP2 GASLIMIT 0xBE EXTCODESIZE LOG3 PUSH23 0xDD66653473251A3F215161BF606FE64736F6C63430008 XOR STOP CALLER "},"methodIdentifiers":{"BASE_POINTS()":"b5ab1c5d","BASIC_THRESHOLD()":"826dc142","BURN_SHARE()":"93b998fb","DAY()":"27cfe856","PRIZE_SHARE()":"1ba86794","PRO_THRESHOLD()":"58e5a7c9","REFERRAL_SHARE()":"b21b5a21","STREAK_CAP()":"6c3b6803","TREASURY_SHARE()":"32696174","WHALE_THRESHOLD()":"f47790d6","burnReserve()":"bf16257a","checkIn()":"183ff085","getRecord(address)":"617fba04","owner()":"8da5cb5b","pointsContract()":"2b4f8a1f","prizePool()":"719ce73e","records(address)":"469e9067","referralContract()":"7dad19db","renounceOwnership()":"715018a6","setStakingContract(address)":"9dd373b9","stakingContract()":"ee99205c","totalCheckIns()":"a563eaa3","totalFeesCollected()":"60c6d8ae","transferOwnership(address)":"f2fde38b","treasury()":"61d027b3"}}}}}