{"contracts/Referral.sol":{"Referral":{"abi":[{"inputs":[],"stateMutability":"nonpayable","type":"constructor"},{"inputs":[],"name":"AccessControlBadConfirmation","type":"error"},{"inputs":[{"internalType":"address","name":"account","type":"address"},{"internalType":"bytes32","name":"neededRole","type":"bytes32"}],"name":"AccessControlUnauthorizedAccount","type":"error"},{"inputs":[],"name":"ReentrancyGuardReentrantCall","type":"error"},{"anonymous":false,"inputs":[{"indexed":true,"internalType":"address","name":"referrer","type":"address"},{"indexed":true,"internalType":"address","name":"from","type":"address"},{"indexed":false,"internalType":"uint256","name":"level","type":"uint256"},{"indexed":false,"internalType":"uint256","name":"amount","type":"uint256"}],"name":"ReferralPaid","type":"event"},{"anonymous":false,"inputs":[{"indexed":true,"internalType":"address","name":"user","type":"address"},{"indexed":true,"internalType":"address","name":"referrer","type":"address"}],"name":"ReferralRegistered","type":"event"},{"anonymous":false,"inputs":[{"indexed":true,"internalType":"bytes32","name":"role","type":"bytes32"},{"indexed":true,"internalType":"bytes32","name":"previousAdminRole","type":"bytes32"},{"indexed":true,"internalType":"bytes32","name":"newAdminRole","type":"bytes32"}],"name":"RoleAdminChanged","type":"event"},{"anonymous":false,"inputs":[{"indexed":true,"internalType":"bytes32","name":"role","type":"bytes32"},{"indexed":true,"internalType":"address","name":"account","type":"address"},{"indexed":true,"internalType":"address","name":"sender","type":"address"}],"name":"RoleGranted","type":"event"},{"anonymous":false,"inputs":[{"indexed":true,"internalType":"bytes32","name":"role","type":"bytes32"},{"indexed":true,"internalType":"address","name":"account","type":"address"},{"indexed":true,"internalType":"address","name":"sender","type":"address"}],"name":"RoleRevoked","type":"event"},{"inputs":[],"name":"DEFAULT_ADMIN_ROLE","outputs":[{"internalType":"bytes32","name":"","type":"bytes32"}],"stateMutability":"view","type":"function"},{"inputs":[],"name":"MAX_DIRECT_REFERRALS","outputs":[{"internalType":"uint256","name":"","type":"uint256"}],"stateMutability":"view","type":"function"},{"inputs":[],"name":"MAX_LEVELS","outputs":[{"internalType":"uint256","name":"","type":"uint256"}],"stateMutability":"view","type":"function"},{"inputs":[],"name":"OPERATOR_ROLE","outputs":[{"internalType":"bytes32","name":"","type":"bytes32"}],"stateMutability":"view","type":"function"},{"inputs":[{"internalType":"address","name":"","type":"address"},{"internalType":"uint256","name":"","type":"uint256"}],"name":"directReferrals","outputs":[{"internalType":"address","name":"","type":"address"}],"stateMutability":"view","type":"function"},{"inputs":[{"internalType":"address","name":"user","type":"address"},{"internalType":"uint256","name":"totalReferralFee","type":"uint256"}],"name":"distributeReferralFees","outputs":[],"stateMutability":"payable","type":"function"},{"inputs":[{"internalType":"address","name":"user","type":"address"}],"name":"getDirectReferrals","outputs":[{"internalType":"address[]","name":"","type":"address[]"}],"stateMutability":"view","type":"function"},{"inputs":[{"internalType":"address","name":"user","type":"address"}],"name":"getReferralChain","outputs":[{"internalType":"address[6]","name":"chain","type":"address[6]"}],"stateMutability":"view","type":"function"},{"inputs":[{"internalType":"bytes32","name":"role","type":"bytes32"}],"name":"getRoleAdmin","outputs":[{"internalType":"bytes32","name":"","type":"bytes32"}],"stateMutability":"view","type":"function"},{"inputs":[{"internalType":"bytes32","name":"role","type":"bytes32"},{"internalType":"address","name":"account","type":"address"}],"name":"grantRole","outputs":[],"stateMutability":"nonpayable","type":"function"},{"inputs":[{"internalType":"address","name":"","type":"address"}],"name":"hasReferrer","outputs":[{"internalType":"bool","name":"","type":"bool"}],"stateMutability":"view","type":"function"},{"inputs":[{"internalType":"bytes32","name":"role","type":"bytes32"},{"internalType":"address","name":"account","type":"address"}],"name":"hasRole","outputs":[{"internalType":"bool","name":"","type":"bool"}],"stateMutability":"view","type":"function"},{"inputs":[{"internalType":"uint256","name":"","type":"uint256"}],"name":"levelPercents","outputs":[{"internalType":"uint256","name":"","type":"uint256"}],"stateMutability":"view","type":"function"},{"inputs":[{"internalType":"address","name":"","type":"address"}],"name":"referrer","outputs":[{"internalType":"address","name":"","type":"address"}],"stateMutability":"view","type":"function"},{"inputs":[{"internalType":"address","name":"user","type":"address"},{"internalType":"address","name":"ref","type":"address"}],"name":"registerReferral","outputs":[],"stateMutability":"nonpayable","type":"function"},{"inputs":[{"internalType":"bytes32","name":"role","type":"bytes32"},{"internalType":"address","name":"callerConfirmation","type":"address"}],"name":"renounceRole","outputs":[],"stateMutability":"nonpayable","type":"function"},{"inputs":[{"internalType":"bytes32","name":"role","type":"bytes32"},{"internalType":"address","name":"account","type":"address"}],"name":"revokeRole","outputs":[],"stateMutability":"nonpayable","type":"function"},{"inputs":[{"internalType":"bytes4","name":"interfaceId","type":"bytes4"}],"name":"supportsInterface","outputs":[{"internalType":"bool","name":"","type":"bool"}],"stateMutability":"view","type":"function"},{"inputs":[{"internalType":"address","name":"","type":"address"}],"name":"totalEarnings","outputs":[{"internalType":"uint256","name":"","type":"uint256"}],"stateMutability":"view","type":"function"}],"evm":{"bytecode":{"linkReferences":{},"object":"6080346100be5760017f9b779b17422d0df92223018b32b4d1fa46e071723d6817e2486d003becc55f008190559060c081016001600160401b038111828210176100a8576040526064815260209060326020820152601e604082015260146060820152600f6080820152600a60a082015260005b6006811061009457610084336100c3565b50604051610d9e90816101548239f35b815160ff1690840190815590820190610073565b634e487b7160e01b600052604160045260246000fd5b600080fd5b6001600160a01b031660008181527fad3228b676f7d3cd4284a5443f17f1962b36e491b30a40b2405849e597ba5fb5602052604081205490919060ff1661014f57818052816020526040822081835260205260408220600160ff1982541617905533917f2f8788117e7eff1d82e926ec794901d17c78024a50270940304540a733656f0d8180a4600190565b509056fe6080604081815260048036101561001557600080fd5b600092833560e01c90816301ffc9a7146108335750806305ad3935146107d757806318452cd814610799578063248a9ca3146107705780632a52fabc146107035780632cf003c2146106c85780632f2ff15d1461069f57806336568abe146106585780635603b9f9146103fa5780636667864d146103195780636702c7bf146102fd57806385117005146102c557806391d1485414610280578063a217fddf14610265578063d2c8e0e5146101bb578063d547741f1461017d578063e58a2d5d14610161578063f5b541a6146101225763fb987036146100f457600080fd5b3461011e57602036600319011261011e5735600681101561011e5760209250600101549051908152f35b8280fd5b50503461015d578160031936011261015d57602090517f97667070c54ef182b0f5858b034beac1b6f3089aa2d3188bb1e8929f4fa9b9298152f35b5080fd5b50503461015d578160031936011261015d576020905160648152f35b50903461011e578060031936011261011e576101b791356101b260016101a16108a2565b938387528660205286200154610c4f565b610cf3565b5080f35b50503461015d5760208060031936011261011e576001600160a01b0392836101e1610887565b1681526008825282812091835190818185549182815201908195855282852090855b81811061024f5750505082610219910383610909565b8451948186019282875251809352850193925b8281106102395785850386f35b835187168552938101939281019260010161022c565b82548a1684529284019260019283019201610203565b50503461015d578160031936011261015d5751908152602090f35b503461011e578160031936011261011e578160209360ff926102a06108a2565b903582528186528282206001600160a01b039091168252855220549151911615158152f35b50503461015d57602036600319011261015d5760209181906001600160a01b036102ed610887565b168152600a845220549051908152f35b50503461015d578160031936011261015d576020905160068152f35b50903461011e5760209060206003193601126103f657610337610887565b81519360c085019085821067ffffffffffffffff8311176103e35750829594955260c036863783905b6006821061039c575b5050519291835b6006821061037d5760c085f35b83516001600160a01b0316815292820192600191909101908201610370565b6001600160a01b039081168552600984528285205494959460ff16156103db5760019060078552838720541691828160051b8701520190949394610360565b949394610369565b634e487b7160e01b875260419052602486fd5b8380fd5b50903461011e578060031936011261011e57610414610887565b61041c6108a2565b92610425610bd5565b60018060a01b03809216928386526009946020906009825260ff80848a20541661061e57858216978888146105eb5788156105b857888a52600884526064926064868c2054101561057d5792878b945b60068610610518575b505050878a525050600782525081872080546001600160a01b0319168717905560098152818720805460ff19166001179055858752600890528520805491680100000000000000008310156103e35750906104de916001820181556108b8565b819291549060031b9184831b921b19161790557f5f1ca2fcc108b751843a763e60d2201f593516109d7dbb1b700468f2d4190bb78380a380f35b1689811461054d578b5281855282868c205416156105465760078552600188878d2054169401938890610475565b878161047e565b50855162461bcd60e51b8152808801869052600c60248201526b21b4b931bab630b9103932b360a11b6044820152fd5b855162461bcd60e51b8152808801869052601560248201527413585e081c9959995c9c985b1cc81c995858da1959605a1b6044820152606490fd5b845162461bcd60e51b8152808701859052600d60248201526c2d32b937903932b332b93932b960991b6044820152606490fd5b845162461bcd60e51b8152808701859052600d60248201526c14d95b198b5c9959995c9c985b609a1b6044820152606490fd5b835162461bcd60e51b8152808601849052601460248201527320b63932b0b23c903430b9903932b332b93932b960611b6044820152606490fd5b5091903461015d578060031936011261015d576106736108a2565b90336001600160a01b0383160361069057506101b7919235610cf3565b5163334bd91960e11b81528390fd5b50903461011e578060031936011261011e576101b791356106c360016101a16108a2565b610c75565b50503461015d57602036600319011261015d576020916001600160a01b03908290826106f2610887565b168152600785522054169051908152f35b508160031936011261011e57610717610887565b90610720610bd5565b7f9b779b17422d0df92223018b32b4d1fa46e071723d6817e2486d003becc55f0092600284541461076357600284558460018561075f60243587610981565b5580f35b51633ee5aeb560e01b8152fd5b503461011e57602036600319011261011e57816020936001923581528085522001549051908152f35b50503461015d57602036600319011261015d5760209160ff9082906001600160a01b036107c4610887565b1681526009855220541690519015158152f35b50503461015d578060031936011261015d576107f1610887565b6001600160a01b0390811683526008602052818320805460243594908510156108305750602093610821916108b8565b92905490519260031b1c168152f35b80fd5b9250503461011e57602036600319011261011e573563ffffffff60e01b811680910361011e5760209250637965db0b60e01b8114908115610876575b5015158152f35b6301ffc9a760e01b1490503861086f565b600435906001600160a01b038216820361089d57565b600080fd5b602435906001600160a01b038216820361089d57565b80548210156108d05760005260206000200190600090565b634e487b7160e01b600052603260045260246000fd5b919082018092116108f357565b634e487b7160e01b600052601160045260246000fd5b90601f8019910116810190811067ffffffffffffffff82111761092b57604052565b634e487b7160e01b600052604160045260246000fd5b3d1561097c573d9067ffffffffffffffff821161092b5760405191610970601f8201601f191660200184610909565b82523d6000602084013e565b606090565b6001600160a01b039081166000818152600960208181526040808420549497939690949293919260ff90811615610bca576007946007855287878a20541689938a915b600683108080610bbf575b15610bac5715610b9857600183810154808402908482041484151715610b845790898e8d8f95946103e890049182151580610b71575b610ad7575b5050505050168b5282875283898c20541615610a5057878752888b20548a16916000198114610a3c57600101916109c4565b634e487b7160e01b8c52601160045260248cfd5b5050505092509550939192505b348110610a6b575b50505050565b3403348111610ac35781808092335af1610a83610941565b5015610a90578080610a65565b60649250519062461bcd60e51b82526004820152600d60248201526c1499599d5b990819985a5b1959609a1b6044820152fd5b634e487b7160e01b82526011600452602482fd5b80808080868a5af1610ae7610941565b5015610a0a579082949b91600a8798610b14969816978883525220610b0d8382546108e6565b90556108e6565b97850190818611610b5d578c51918252818b01528c92918f917f65db98422e8b7340e0d6dfa99bbadd4ba95a51fefafd8f0e1cbbb2e819429a42908e90a33889818f8e90610a0a565b634e487b7160e01b8f52601160045260248ffd5b50610b7c838d6108e6565b341015610a05565b634e487b7160e01b8e52601160045260248efd5b634e487b7160e01b8c52603260045260248cfd5b5050505050509250955093919250610a5d565b508b821615156109cf565b505095505050505050565b3360009081527fee57cd81e84075558e8fcc182a1f4393f91fc97f963a136e66b7f949a62f319f60205260409020547f97667070c54ef182b0f5858b034beac1b6f3089aa2d3188bb1e8929f4fa9b9299060ff1615610c315750565b6044906040519063e2517d3f60e01b82523360048301526024820152fd5b80600052600060205260406000203360005260205260ff6040600020541615610c315750565b9060009180835282602052604083209160018060a01b03169182845260205260ff60408420541615600014610cee57808352826020526040832082845260205260408320600160ff198254161790557f2f8788117e7eff1d82e926ec794901d17c78024a50270940304540a733656f0d339380a4600190565b505090565b9060009180835282602052604083209160018060a01b03169182845260205260ff604084205416600014610cee5780835282602052604083208284526020526040832060ff1981541690557ff6391f5c32d9c69d2a47ea670b442974b53935d1edc7fd64eb21e047a839171b339380a460019056fea26469706673582212206989deec7d48c0cda14195af773be443f09450ce7f6926ab051e8447ecb32b4a64736f6c63430008180033","opcodes":"PUSH1 0x80 CALLVALUE PUSH2 0xBE JUMPI PUSH1 0x1 PUSH32 0x9B779B17422D0DF92223018B32B4D1FA46E071723D6817E2486D003BECC55F00 DUP2 SWAP1 SSTORE SWAP1 PUSH1 0xC0 DUP2 ADD PUSH1 0x1 PUSH1 0x1 PUSH1 0x40 SHL SUB DUP2 GT DUP3 DUP3 LT OR PUSH2 0xA8 JUMPI PUSH1 0x40 MSTORE PUSH1 0x64 DUP2 MSTORE PUSH1 0x20 SWAP1 PUSH1 0x32 PUSH1 0x20 DUP3 ADD MSTORE PUSH1 0x1E PUSH1 0x40 DUP3 ADD MSTORE PUSH1 0x14 PUSH1 0x60 DUP3 ADD MSTORE PUSH1 0xF PUSH1 0x80 DUP3 ADD MSTORE PUSH1 0xA PUSH1 0xA0 DUP3 ADD MSTORE PUSH1 0x0 JUMPDEST PUSH1 0x6 DUP2 LT PUSH2 0x94 JUMPI PUSH2 0x84 CALLER PUSH2 0xC3 JUMP JUMPDEST POP PUSH1 0x40 MLOAD PUSH2 0xD9E SWAP1 DUP2 PUSH2 0x154 DUP3 CODECOPY RETURN JUMPDEST DUP2 MLOAD PUSH1 0xFF AND SWAP1 DUP5 ADD SWAP1 DUP2 SSTORE SWAP1 DUP3 ADD SWAP1 PUSH2 0x73 JUMP JUMPDEST PUSH4 0x4E487B71 PUSH1 0xE0 SHL PUSH1 0x0 MSTORE PUSH1 0x41 PUSH1 0x4 MSTORE PUSH1 0x24 PUSH1 0x0 REVERT JUMPDEST PUSH1 0x0 DUP1 REVERT JUMPDEST PUSH1 0x1 PUSH1 0x1 PUSH1 0xA0 SHL SUB AND PUSH1 0x0 DUP2 DUP2 MSTORE PUSH32 0xAD3228B676F7D3CD4284A5443F17F1962B36E491B30A40B2405849E597BA5FB5 PUSH1 0x20 MSTORE PUSH1 0x40 DUP2 KECCAK256 SLOAD SWAP1 SWAP2 SWAP1 PUSH1 0xFF AND PUSH2 0x14F JUMPI DUP2 DUP1 MSTORE DUP2 PUSH1 0x20 MSTORE PUSH1 0x40 DUP3 KECCAK256 DUP2 DUP4 MSTORE PUSH1 0x20 MSTORE PUSH1 0x40 DUP3 KECCAK256 PUSH1 0x1 PUSH1 0xFF NOT DUP3 SLOAD AND OR SWAP1 SSTORE CALLER SWAP2 PUSH32 0x2F8788117E7EFF1D82E926EC794901D17C78024A50270940304540A733656F0D DUP2 DUP1 LOG4 PUSH1 0x1 SWAP1 JUMP JUMPDEST POP SWAP1 JUMP INVALID PUSH1 0x80 PUSH1 0x40 DUP2 DUP2 MSTORE PUSH1 0x4 DUP1 CALLDATASIZE LT ISZERO PUSH2 0x15 JUMPI PUSH1 0x0 DUP1 REVERT JUMPDEST PUSH1 0x0 SWAP3 DUP4 CALLDATALOAD PUSH1 0xE0 SHR SWAP1 DUP2 PUSH4 0x1FFC9A7 EQ PUSH2 0x833 JUMPI POP DUP1 PUSH4 0x5AD3935 EQ PUSH2 0x7D7 JUMPI DUP1 PUSH4 0x18452CD8 EQ PUSH2 0x799 JUMPI DUP1 PUSH4 0x248A9CA3 EQ PUSH2 0x770 JUMPI DUP1 PUSH4 0x2A52FABC EQ PUSH2 0x703 JUMPI DUP1 PUSH4 0x2CF003C2 EQ PUSH2 0x6C8 JUMPI DUP1 PUSH4 0x2F2FF15D EQ PUSH2 0x69F JUMPI DUP1 PUSH4 0x36568ABE EQ PUSH2 0x658 JUMPI DUP1 PUSH4 0x5603B9F9 EQ PUSH2 0x3FA JUMPI DUP1 PUSH4 0x6667864D EQ PUSH2 0x319 JUMPI DUP1 PUSH4 0x6702C7BF EQ PUSH2 0x2FD JUMPI DUP1 PUSH4 0x85117005 EQ PUSH2 0x2C5 JUMPI DUP1 PUSH4 0x91D14854 EQ PUSH2 0x280 JUMPI DUP1 PUSH4 0xA217FDDF EQ PUSH2 0x265 JUMPI DUP1 PUSH4 0xD2C8E0E5 EQ PUSH2 0x1BB JUMPI DUP1 PUSH4 0xD547741F EQ PUSH2 0x17D JUMPI DUP1 PUSH4 0xE58A2D5D EQ PUSH2 0x161 JUMPI DUP1 PUSH4 0xF5B541A6 EQ PUSH2 0x122 JUMPI PUSH4 0xFB987036 EQ PUSH2 0xF4 JUMPI PUSH1 0x0 DUP1 REVERT JUMPDEST CALLVALUE PUSH2 0x11E JUMPI PUSH1 0x20 CALLDATASIZE PUSH1 0x3 NOT ADD SLT PUSH2 0x11E JUMPI CALLDATALOAD PUSH1 0x6 DUP2 LT ISZERO PUSH2 0x11E JUMPI PUSH1 0x20 SWAP3 POP PUSH1 0x1 ADD SLOAD SWAP1 MLOAD SWAP1 DUP2 MSTORE RETURN JUMPDEST DUP3 DUP1 REVERT JUMPDEST POP POP CALLVALUE PUSH2 0x15D JUMPI DUP2 PUSH1 0x3 NOT CALLDATASIZE ADD SLT PUSH2 0x15D JUMPI PUSH1 0x20 SWAP1 MLOAD PUSH32 0x97667070C54EF182B0F5858B034BEAC1B6F3089AA2D3188BB1E8929F4FA9B929 DUP2 MSTORE RETURN JUMPDEST POP DUP1 REVERT JUMPDEST POP POP CALLVALUE PUSH2 0x15D JUMPI DUP2 PUSH1 0x3 NOT CALLDATASIZE ADD SLT PUSH2 0x15D JUMPI PUSH1 0x20 SWAP1 MLOAD PUSH1 0x64 DUP2 MSTORE RETURN JUMPDEST POP SWAP1 CALLVALUE PUSH2 0x11E JUMPI DUP1 PUSH1 0x3 NOT CALLDATASIZE ADD SLT PUSH2 0x11E JUMPI PUSH2 0x1B7 SWAP2 CALLDATALOAD PUSH2 0x1B2 PUSH1 0x1 PUSH2 0x1A1 PUSH2 0x8A2 JUMP JUMPDEST SWAP4 DUP4 DUP8 MSTORE DUP7 PUSH1 0x20 MSTORE DUP7 KECCAK256 ADD SLOAD PUSH2 0xC4F JUMP JUMPDEST PUSH2 0xCF3 JUMP JUMPDEST POP DUP1 RETURN JUMPDEST POP POP CALLVALUE PUSH2 0x15D JUMPI PUSH1 0x20 DUP1 PUSH1 0x3 NOT CALLDATASIZE ADD SLT PUSH2 0x11E JUMPI PUSH1 0x1 PUSH1 0x1 PUSH1 0xA0 SHL SUB SWAP3 DUP4 PUSH2 0x1E1 PUSH2 0x887 JUMP JUMPDEST AND DUP2 MSTORE PUSH1 0x8 DUP3 MSTORE DUP3 DUP2 KECCAK256 SWAP2 DUP4 MLOAD SWAP1 DUP2 DUP2 DUP6 SLOAD SWAP2 DUP3 DUP2 MSTORE ADD SWAP1 DUP2 SWAP6 DUP6 MSTORE DUP3 DUP6 KECCAK256 SWAP1 DUP6 JUMPDEST DUP2 DUP2 LT PUSH2 0x24F JUMPI POP POP POP DUP3 PUSH2 0x219 SWAP2 SUB DUP4 PUSH2 0x909 JUMP JUMPDEST DUP5 MLOAD SWAP5 DUP2 DUP7 ADD SWAP3 DUP3 DUP8 MSTORE MLOAD DUP1 SWAP4 MSTORE DUP6 ADD SWAP4 SWAP3 JUMPDEST DUP3 DUP2 LT PUSH2 0x239 JUMPI DUP6 DUP6 SUB DUP7 RETURN JUMPDEST DUP4 MLOAD DUP8 AND DUP6 MSTORE SWAP4 DUP2 ADD SWAP4 SWAP3 DUP2 ADD SWAP3 PUSH1 0x1 ADD PUSH2 0x22C JUMP JUMPDEST DUP3 SLOAD DUP11 AND DUP5 MSTORE SWAP3 DUP5 ADD SWAP3 PUSH1 0x1 SWAP3 DUP4 ADD SWAP3 ADD PUSH2 0x203 JUMP JUMPDEST POP POP CALLVALUE PUSH2 0x15D JUMPI DUP2 PUSH1 0x3 NOT CALLDATASIZE ADD SLT PUSH2 0x15D JUMPI MLOAD SWAP1 DUP2 MSTORE PUSH1 0x20 SWAP1 RETURN JUMPDEST POP CALLVALUE PUSH2 0x11E JUMPI DUP2 PUSH1 0x3 NOT CALLDATASIZE ADD SLT PUSH2 0x11E JUMPI DUP2 PUSH1 0x20 SWAP4 PUSH1 0xFF SWAP3 PUSH2 0x2A0 PUSH2 0x8A2 JUMP JUMPDEST SWAP1 CALLDATALOAD DUP3 MSTORE DUP2 DUP7 MSTORE DUP3 DUP3 KECCAK256 PUSH1 0x1 PUSH1 0x1 PUSH1 0xA0 SHL SUB SWAP1 SWAP2 AND DUP3 MSTORE DUP6 MSTORE KECCAK256 SLOAD SWAP2 MLOAD SWAP2 AND ISZERO ISZERO DUP2 MSTORE RETURN JUMPDEST POP POP CALLVALUE PUSH2 0x15D JUMPI PUSH1 0x20 CALLDATASIZE PUSH1 0x3 NOT ADD SLT PUSH2 0x15D JUMPI PUSH1 0x20 SWAP2 DUP2 SWAP1 PUSH1 0x1 PUSH1 0x1 PUSH1 0xA0 SHL SUB PUSH2 0x2ED PUSH2 0x887 JUMP JUMPDEST AND DUP2 MSTORE PUSH1 0xA DUP5 MSTORE KECCAK256 SLOAD SWAP1 MLOAD SWAP1 DUP2 MSTORE RETURN JUMPDEST POP POP CALLVALUE PUSH2 0x15D JUMPI DUP2 PUSH1 0x3 NOT CALLDATASIZE ADD SLT PUSH2 0x15D JUMPI PUSH1 0x20 SWAP1 MLOAD PUSH1 0x6 DUP2 MSTORE RETURN JUMPDEST POP SWAP1 CALLVALUE PUSH2 0x11E JUMPI PUSH1 0x20 SWAP1 PUSH1 0x20 PUSH1 0x3 NOT CALLDATASIZE ADD SLT PUSH2 0x3F6 JUMPI PUSH2 0x337 PUSH2 0x887 JUMP JUMPDEST DUP2 MLOAD SWAP4 PUSH1 0xC0 DUP6 ADD SWAP1 DUP6 DUP3 LT PUSH8 0xFFFFFFFFFFFFFFFF DUP4 GT OR PUSH2 0x3E3 JUMPI POP DUP3 SWAP6 SWAP5 SWAP6 MSTORE PUSH1 0xC0 CALLDATASIZE DUP7 CALLDATACOPY DUP4 SWAP1 JUMPDEST PUSH1 0x6 DUP3 LT PUSH2 0x39C JUMPI JUMPDEST POP POP MLOAD SWAP3 SWAP2 DUP4 JUMPDEST PUSH1 0x6 DUP3 LT PUSH2 0x37D JUMPI PUSH1 0xC0 DUP6 RETURN JUMPDEST DUP4 MLOAD PUSH1 0x1 PUSH1 0x1 PUSH1 0xA0 SHL SUB AND DUP2 MSTORE SWAP3 DUP3 ADD SWAP3 PUSH1 0x1 SWAP2 SWAP1 SWAP2 ADD SWAP1 DUP3 ADD PUSH2 0x370 JUMP JUMPDEST PUSH1 0x1 PUSH1 0x1 PUSH1 0xA0 SHL SUB SWAP1 DUP2 AND DUP6 MSTORE PUSH1 0x9 DUP5 MSTORE DUP3 DUP6 KECCAK256 SLOAD SWAP5 SWAP6 SWAP5 PUSH1 0xFF AND ISZERO PUSH2 0x3DB JUMPI PUSH1 0x1 SWAP1 PUSH1 0x7 DUP6 MSTORE DUP4 DUP8 KECCAK256 SLOAD AND SWAP2 DUP3 DUP2 PUSH1 0x5 SHL DUP8 ADD MSTORE ADD SWAP1 SWAP5 SWAP4 SWAP5 PUSH2 0x360 JUMP JUMPDEST SWAP5 SWAP4 SWAP5 PUSH2 0x369 JUMP JUMPDEST PUSH4 0x4E487B71 PUSH1 0xE0 SHL DUP8 MSTORE PUSH1 0x41 SWAP1 MSTORE PUSH1 0x24 DUP7 REVERT JUMPDEST DUP4 DUP1 REVERT JUMPDEST POP SWAP1 CALLVALUE PUSH2 0x11E JUMPI DUP1 PUSH1 0x3 NOT CALLDATASIZE ADD SLT PUSH2 0x11E JUMPI PUSH2 0x414 PUSH2 0x887 JUMP JUMPDEST PUSH2 0x41C PUSH2 0x8A2 JUMP JUMPDEST SWAP3 PUSH2 0x425 PUSH2 0xBD5 JUMP JUMPDEST PUSH1 0x1 DUP1 PUSH1 0xA0 SHL SUB DUP1 SWAP3 AND SWAP3 DUP4 DUP7 MSTORE PUSH1 0x9 SWAP5 PUSH1 0x20 SWAP1 PUSH1 0x9 DUP3 MSTORE PUSH1 0xFF DUP1 DUP5 DUP11 KECCAK256 SLOAD AND PUSH2 0x61E JUMPI DUP6 DUP3 AND SWAP8 DUP9 DUP9 EQ PUSH2 0x5EB JUMPI DUP9 ISZERO PUSH2 0x5B8 JUMPI DUP9 DUP11 MSTORE PUSH1 0x8 DUP5 MSTORE PUSH1 0x64 SWAP3 PUSH1 0x64 DUP7 DUP13 KECCAK256 SLOAD LT ISZERO PUSH2 0x57D JUMPI SWAP3 DUP8 DUP12 SWAP5 JUMPDEST PUSH1 0x6 DUP7 LT PUSH2 0x518 JUMPI JUMPDEST POP POP POP DUP8 DUP11 MSTORE POP POP PUSH1 0x7 DUP3 MSTORE POP DUP2 DUP8 KECCAK256 DUP1 SLOAD PUSH1 0x1 PUSH1 0x1 PUSH1 0xA0 SHL SUB NOT AND DUP8 OR SWAP1 SSTORE PUSH1 0x9 DUP2 MSTORE DUP2 DUP8 KECCAK256 DUP1 SLOAD PUSH1 0xFF NOT AND PUSH1 0x1 OR SWAP1 SSTORE DUP6 DUP8 MSTORE PUSH1 0x8 SWAP1 MSTORE DUP6 KECCAK256 DUP1 SLOAD SWAP2 PUSH9 0x10000000000000000 DUP4 LT ISZERO PUSH2 0x3E3 JUMPI POP SWAP1 PUSH2 0x4DE SWAP2 PUSH1 0x1 DUP3 ADD DUP2 SSTORE PUSH2 0x8B8 JUMP JUMPDEST DUP2 SWAP3 SWAP2 SLOAD SWAP1 PUSH1 0x3 SHL SWAP2 DUP5 DUP4 SHL SWAP3 SHL NOT AND OR SWAP1 SSTORE PUSH32 0x5F1CA2FCC108B751843A763E60D2201F593516109D7DBB1B700468F2D4190BB7 DUP4 DUP1 LOG3 DUP1 RETURN JUMPDEST AND DUP10 DUP2 EQ PUSH2 0x54D JUMPI DUP12 MSTORE DUP2 DUP6 MSTORE DUP3 DUP7 DUP13 KECCAK256 SLOAD AND ISZERO PUSH2 0x546 JUMPI PUSH1 0x7 DUP6 MSTORE PUSH1 0x1 DUP9 DUP8 DUP14 KECCAK256 SLOAD AND SWAP5 ADD SWAP4 DUP9 SWAP1 PUSH2 0x475 JUMP JUMPDEST DUP8 DUP2 PUSH2 0x47E JUMP JUMPDEST POP DUP6 MLOAD PUSH3 0x461BCD PUSH1 0xE5 SHL DUP2 MSTORE DUP1 DUP9 ADD DUP7 SWAP1 MSTORE PUSH1 0xC PUSH1 0x24 DUP3 ADD MSTORE PUSH12 0x21B4B931BAB630B9103932B3 PUSH1 0xA1 SHL PUSH1 0x44 DUP3 ADD MSTORE REVERT JUMPDEST DUP6 MLOAD PUSH3 0x461BCD PUSH1 0xE5 SHL DUP2 MSTORE DUP1 DUP9 ADD DUP7 SWAP1 MSTORE PUSH1 0x15 PUSH1 0x24 DUP3 ADD MSTORE PUSH21 0x13585E081C9959995C9C985B1CC81C995858DA1959 PUSH1 0x5A SHL PUSH1 0x44 DUP3 ADD MSTORE PUSH1 0x64 SWAP1 REVERT JUMPDEST DUP5 MLOAD PUSH3 0x461BCD PUSH1 0xE5 SHL DUP2 MSTORE DUP1 DUP8 ADD DUP6 SWAP1 MSTORE PUSH1 0xD PUSH1 0x24 DUP3 ADD MSTORE PUSH13 0x2D32B937903932B332B93932B9 PUSH1 0x99 SHL PUSH1 0x44 DUP3 ADD MSTORE PUSH1 0x64 SWAP1 REVERT JUMPDEST DUP5 MLOAD PUSH3 0x461BCD PUSH1 0xE5 SHL DUP2 MSTORE DUP1 DUP8 ADD DUP6 SWAP1 MSTORE PUSH1 0xD PUSH1 0x24 DUP3 ADD MSTORE PUSH13 0x14D95B198B5C9959995C9C985B PUSH1 0x9A SHL PUSH1 0x44 DUP3 ADD MSTORE PUSH1 0x64 SWAP1 REVERT JUMPDEST DUP4 MLOAD PUSH3 0x461BCD PUSH1 0xE5 SHL DUP2 MSTORE DUP1 DUP7 ADD DUP5 SWAP1 MSTORE PUSH1 0x14 PUSH1 0x24 DUP3 ADD MSTORE PUSH20 0x20B63932B0B23C903430B9903932B332B93932B9 PUSH1 0x61 SHL PUSH1 0x44 DUP3 ADD MSTORE PUSH1 0x64 SWAP1 REVERT JUMPDEST POP SWAP2 SWAP1 CALLVALUE PUSH2 0x15D JUMPI DUP1 PUSH1 0x3 NOT CALLDATASIZE ADD SLT PUSH2 0x15D JUMPI PUSH2 0x673 PUSH2 0x8A2 JUMP JUMPDEST SWAP1 CALLER PUSH1 0x1 PUSH1 0x1 PUSH1 0xA0 SHL SUB DUP4 AND SUB PUSH2 0x690 JUMPI POP PUSH2 0x1B7 SWAP2 SWAP3 CALLDATALOAD PUSH2 0xCF3 JUMP JUMPDEST MLOAD PUSH4 0x334BD919 PUSH1 0xE1 SHL DUP2 MSTORE DUP4 SWAP1 REVERT JUMPDEST POP SWAP1 CALLVALUE PUSH2 0x11E JUMPI DUP1 PUSH1 0x3 NOT CALLDATASIZE ADD SLT PUSH2 0x11E JUMPI PUSH2 0x1B7 SWAP2 CALLDATALOAD PUSH2 0x6C3 PUSH1 0x1 PUSH2 0x1A1 PUSH2 0x8A2 JUMP JUMPDEST PUSH2 0xC75 JUMP JUMPDEST POP POP CALLVALUE PUSH2 0x15D JUMPI PUSH1 0x20 CALLDATASIZE PUSH1 0x3 NOT ADD SLT PUSH2 0x15D JUMPI PUSH1 0x20 SWAP2 PUSH1 0x1 PUSH1 0x1 PUSH1 0xA0 SHL SUB SWAP1 DUP3 SWAP1 DUP3 PUSH2 0x6F2 PUSH2 0x887 JUMP JUMPDEST AND DUP2 MSTORE PUSH1 0x7 DUP6 MSTORE KECCAK256 SLOAD AND SWAP1 MLOAD SWAP1 DUP2 MSTORE RETURN JUMPDEST POP DUP2 PUSH1 0x3 NOT CALLDATASIZE ADD SLT PUSH2 0x11E JUMPI PUSH2 0x717 PUSH2 0x887 JUMP JUMPDEST SWAP1 PUSH2 0x720 PUSH2 0xBD5 JUMP JUMPDEST PUSH32 0x9B779B17422D0DF92223018B32B4D1FA46E071723D6817E2486D003BECC55F00 SWAP3 PUSH1 0x2 DUP5 SLOAD EQ PUSH2 0x763 JUMPI PUSH1 0x2 DUP5 SSTORE DUP5 PUSH1 0x1 DUP6 PUSH2 0x75F PUSH1 0x24 CALLDATALOAD DUP8 PUSH2 0x981 JUMP JUMPDEST SSTORE DUP1 RETURN JUMPDEST MLOAD PUSH4 0x3EE5AEB5 PUSH1 0xE0 SHL DUP2 MSTORE REVERT JUMPDEST POP CALLVALUE PUSH2 0x11E JUMPI PUSH1 0x20 CALLDATASIZE PUSH1 0x3 NOT ADD SLT PUSH2 0x11E JUMPI DUP2 PUSH1 0x20 SWAP4 PUSH1 0x1 SWAP3 CALLDATALOAD DUP2 MSTORE DUP1 DUP6 MSTORE KECCAK256 ADD SLOAD SWAP1 MLOAD SWAP1 DUP2 MSTORE RETURN JUMPDEST POP POP CALLVALUE PUSH2 0x15D JUMPI PUSH1 0x20 CALLDATASIZE PUSH1 0x3 NOT ADD SLT PUSH2 0x15D JUMPI PUSH1 0x20 SWAP2 PUSH1 0xFF SWAP1 DUP3 SWAP1 PUSH1 0x1 PUSH1 0x1 PUSH1 0xA0 SHL SUB PUSH2 0x7C4 PUSH2 0x887 JUMP JUMPDEST AND DUP2 MSTORE PUSH1 0x9 DUP6 MSTORE KECCAK256 SLOAD AND SWAP1 MLOAD SWAP1 ISZERO ISZERO DUP2 MSTORE RETURN JUMPDEST POP POP CALLVALUE PUSH2 0x15D JUMPI DUP1 PUSH1 0x3 NOT CALLDATASIZE ADD SLT PUSH2 0x15D JUMPI PUSH2 0x7F1 PUSH2 0x887 JUMP JUMPDEST PUSH1 0x1 PUSH1 0x1 PUSH1 0xA0 SHL SUB SWAP1 DUP2 AND DUP4 MSTORE PUSH1 0x8 PUSH1 0x20 MSTORE DUP2 DUP4 KECCAK256 DUP1 SLOAD PUSH1 0x24 CALLDATALOAD SWAP5 SWAP1 DUP6 LT ISZERO PUSH2 0x830 JUMPI POP PUSH1 0x20 SWAP4 PUSH2 0x821 SWAP2 PUSH2 0x8B8 JUMP JUMPDEST SWAP3 SWAP1 SLOAD SWAP1 MLOAD SWAP3 PUSH1 0x3 SHL SHR AND DUP2 MSTORE RETURN JUMPDEST DUP1 REVERT JUMPDEST SWAP3 POP POP CALLVALUE PUSH2 0x11E JUMPI PUSH1 0x20 CALLDATASIZE PUSH1 0x3 NOT ADD SLT PUSH2 0x11E JUMPI CALLDATALOAD PUSH4 0xFFFFFFFF PUSH1 0xE0 SHL DUP2 AND DUP1 SWAP2 SUB PUSH2 0x11E JUMPI PUSH1 0x20 SWAP3 POP PUSH4 0x7965DB0B PUSH1 0xE0 SHL DUP2 EQ SWAP1 DUP2 ISZERO PUSH2 0x876 JUMPI JUMPDEST POP ISZERO ISZERO DUP2 MSTORE RETURN JUMPDEST PUSH4 0x1FFC9A7 PUSH1 0xE0 SHL EQ SWAP1 POP CODESIZE PUSH2 0x86F JUMP JUMPDEST PUSH1 0x4 CALLDATALOAD SWAP1 PUSH1 0x1 PUSH1 0x1 PUSH1 0xA0 SHL SUB DUP3 AND DUP3 SUB PUSH2 0x89D JUMPI JUMP JUMPDEST PUSH1 0x0 DUP1 REVERT JUMPDEST PUSH1 0x24 CALLDATALOAD SWAP1 PUSH1 0x1 PUSH1 0x1 PUSH1 0xA0 SHL SUB DUP3 AND DUP3 SUB PUSH2 0x89D JUMPI JUMP JUMPDEST DUP1 SLOAD DUP3 LT ISZERO PUSH2 0x8D0 JUMPI PUSH1 0x0 MSTORE PUSH1 0x20 PUSH1 0x0 KECCAK256 ADD SWAP1 PUSH1 0x0 SWAP1 JUMP JUMPDEST PUSH4 0x4E487B71 PUSH1 0xE0 SHL PUSH1 0x0 MSTORE PUSH1 0x32 PUSH1 0x4 MSTORE PUSH1 0x24 PUSH1 0x0 REVERT JUMPDEST SWAP2 SWAP1 DUP3 ADD DUP1 SWAP3 GT PUSH2 0x8F3 JUMPI JUMP JUMPDEST PUSH4 0x4E487B71 PUSH1 0xE0 SHL PUSH1 0x0 MSTORE PUSH1 0x11 PUSH1 0x4 MSTORE PUSH1 0x24 PUSH1 0x0 REVERT JUMPDEST SWAP1 PUSH1 0x1F DUP1 NOT SWAP2 ADD AND DUP2 ADD SWAP1 DUP2 LT PUSH8 0xFFFFFFFFFFFFFFFF DUP3 GT OR PUSH2 0x92B JUMPI PUSH1 0x40 MSTORE JUMP JUMPDEST PUSH4 0x4E487B71 PUSH1 0xE0 SHL PUSH1 0x0 MSTORE PUSH1 0x41 PUSH1 0x4 MSTORE PUSH1 0x24 PUSH1 0x0 REVERT JUMPDEST RETURNDATASIZE ISZERO PUSH2 0x97C JUMPI RETURNDATASIZE SWAP1 PUSH8 0xFFFFFFFFFFFFFFFF DUP3 GT PUSH2 0x92B JUMPI PUSH1 0x40 MLOAD SWAP2 PUSH2 0x970 PUSH1 0x1F DUP3 ADD PUSH1 0x1F NOT AND PUSH1 0x20 ADD DUP5 PUSH2 0x909 JUMP JUMPDEST DUP3 MSTORE RETURNDATASIZE PUSH1 0x0 PUSH1 0x20 DUP5 ADD RETURNDATACOPY JUMP JUMPDEST PUSH1 0x60 SWAP1 JUMP JUMPDEST PUSH1 0x1 PUSH1 0x1 PUSH1 0xA0 SHL SUB SWAP1 DUP2 AND PUSH1 0x0 DUP2 DUP2 MSTORE PUSH1 0x9 PUSH1 0x20 DUP2 DUP2 MSTORE PUSH1 0x40 DUP1 DUP5 KECCAK256 SLOAD SWAP5 SWAP8 SWAP4 SWAP7 SWAP1 SWAP5 SWAP3 SWAP4 SWAP2 SWAP3 PUSH1 0xFF SWAP1 DUP2 AND ISZERO PUSH2 0xBCA JUMPI PUSH1 0x7 SWAP5 PUSH1 0x7 DUP6 MSTORE DUP8 DUP8 DUP11 KECCAK256 SLOAD AND DUP10 SWAP4 DUP11 SWAP2 JUMPDEST PUSH1 0x6 DUP4 LT DUP1 DUP1 PUSH2 0xBBF JUMPI JUMPDEST ISZERO PUSH2 0xBAC JUMPI ISZERO PUSH2 0xB98 JUMPI PUSH1 0x1 DUP4 DUP2 ADD SLOAD DUP1 DUP5 MUL SWAP1 DUP5 DUP3 DIV EQ DUP5 ISZERO OR ISZERO PUSH2 0xB84 JUMPI SWAP1 DUP10 DUP15 DUP14 DUP16 SWAP6 SWAP5 PUSH2 0x3E8 SWAP1 DIV SWAP2 DUP3 ISZERO ISZERO DUP1 PUSH2 0xB71 JUMPI JUMPDEST PUSH2 0xAD7 JUMPI JUMPDEST POP POP POP POP POP AND DUP12 MSTORE DUP3 DUP8 MSTORE DUP4 DUP10 DUP13 KECCAK256 SLOAD AND ISZERO PUSH2 0xA50 JUMPI DUP8 DUP8 MSTORE DUP9 DUP12 KECCAK256 SLOAD DUP11 AND SWAP2 PUSH1 0x0 NOT DUP2 EQ PUSH2 0xA3C JUMPI PUSH1 0x1 ADD SWAP2 PUSH2 0x9C4 JUMP JUMPDEST PUSH4 0x4E487B71 PUSH1 0xE0 SHL DUP13 MSTORE PUSH1 0x11 PUSH1 0x4 MSTORE PUSH1 0x24 DUP13 REVERT JUMPDEST POP POP POP POP SWAP3 POP SWAP6 POP SWAP4 SWAP2 SWAP3 POP JUMPDEST CALLVALUE DUP2 LT PUSH2 0xA6B JUMPI JUMPDEST POP POP POP POP JUMP JUMPDEST CALLVALUE SUB CALLVALUE DUP2 GT PUSH2 0xAC3 JUMPI DUP2 DUP1 DUP1 SWAP3 CALLER GAS CALL PUSH2 0xA83 PUSH2 0x941 JUMP JUMPDEST POP ISZERO PUSH2 0xA90 JUMPI DUP1 DUP1 PUSH2 0xA65 JUMP JUMPDEST PUSH1 0x64 SWAP3 POP MLOAD SWAP1 PUSH3 0x461BCD PUSH1 0xE5 SHL DUP3 MSTORE PUSH1 0x4 DUP3 ADD MSTORE PUSH1 0xD PUSH1 0x24 DUP3 ADD MSTORE PUSH13 0x1499599D5B990819985A5B1959 PUSH1 0x9A SHL PUSH1 0x44 DUP3 ADD MSTORE REVERT JUMPDEST PUSH4 0x4E487B71 PUSH1 0xE0 SHL DUP3 MSTORE PUSH1 0x11 PUSH1 0x4 MSTORE PUSH1 0x24 DUP3 REVERT JUMPDEST DUP1 DUP1 DUP1 DUP1 DUP7 DUP11 GAS CALL PUSH2 0xAE7 PUSH2 0x941 JUMP JUMPDEST POP ISZERO PUSH2 0xA0A JUMPI SWAP1 DUP3 SWAP5 SWAP12 SWAP2 PUSH1 0xA DUP8 SWAP9 PUSH2 0xB14 SWAP7 SWAP9 AND SWAP8 DUP9 DUP4 MSTORE MSTORE KECCAK256 PUSH2 0xB0D DUP4 DUP3 SLOAD PUSH2 0x8E6 JUMP JUMPDEST SWAP1 SSTORE PUSH2 0x8E6 JUMP JUMPDEST SWAP8 DUP6 ADD SWAP1 DUP2 DUP7 GT PUSH2 0xB5D JUMPI DUP13 MLOAD SWAP2 DUP3 MSTORE DUP2 DUP12 ADD MSTORE DUP13 SWAP3 SWAP2 DUP16 SWAP2 PUSH32 0x65DB98422E8B7340E0D6DFA99BBADD4BA95A51FEFAFD8F0E1CBBB2E819429A42 SWAP1 DUP15 SWAP1 LOG3 CODESIZE DUP10 DUP2 DUP16 DUP15 SWAP1 PUSH2 0xA0A JUMP JUMPDEST PUSH4 0x4E487B71 PUSH1 0xE0 SHL DUP16 MSTORE PUSH1 0x11 PUSH1 0x4 MSTORE PUSH1 0x24 DUP16 REVERT JUMPDEST POP PUSH2 0xB7C DUP4 DUP14 PUSH2 0x8E6 JUMP JUMPDEST CALLVALUE LT ISZERO PUSH2 0xA05 JUMP JUMPDEST PUSH4 0x4E487B71 PUSH1 0xE0 SHL DUP15 MSTORE PUSH1 0x11 PUSH1 0x4 MSTORE PUSH1 0x24 DUP15 REVERT JUMPDEST PUSH4 0x4E487B71 PUSH1 0xE0 SHL DUP13 MSTORE PUSH1 0x32 PUSH1 0x4 MSTORE PUSH1 0x24 DUP13 REVERT JUMPDEST POP POP POP POP POP POP SWAP3 POP SWAP6 POP SWAP4 SWAP2 SWAP3 POP PUSH2 0xA5D JUMP JUMPDEST POP DUP12 DUP3 AND ISZERO ISZERO PUSH2 0x9CF JUMP JUMPDEST POP POP SWAP6 POP POP POP POP POP POP JUMP JUMPDEST CALLER PUSH1 0x0 SWAP1 DUP2 MSTORE PUSH32 0xEE57CD81E84075558E8FCC182A1F4393F91FC97F963A136E66B7F949A62F319F PUSH1 0x20 MSTORE PUSH1 0x40 SWAP1 KECCAK256 SLOAD PUSH32 0x97667070C54EF182B0F5858B034BEAC1B6F3089AA2D3188BB1E8929F4FA9B929 SWAP1 PUSH1 0xFF AND ISZERO PUSH2 0xC31 JUMPI POP JUMP JUMPDEST PUSH1 0x44 SWAP1 PUSH1 0x40 MLOAD SWAP1 PUSH4 0xE2517D3F PUSH1 0xE0 SHL DUP3 MSTORE CALLER PUSH1 0x4 DUP4 ADD MSTORE PUSH1 0x24 DUP3 ADD MSTORE REVERT JUMPDEST DUP1 PUSH1 0x0 MSTORE PUSH1 0x0 PUSH1 0x20 MSTORE PUSH1 0x40 PUSH1 0x0 KECCAK256 CALLER PUSH1 0x0 MSTORE PUSH1 0x20 MSTORE PUSH1 0xFF PUSH1 0x40 PUSH1 0x0 KECCAK256 SLOAD AND ISZERO PUSH2 0xC31 JUMPI POP JUMP JUMPDEST SWAP1 PUSH1 0x0 SWAP2 DUP1 DUP4 MSTORE DUP3 PUSH1 0x20 MSTORE PUSH1 0x40 DUP4 KECCAK256 SWAP2 PUSH1 0x1 DUP1 PUSH1 0xA0 SHL SUB AND SWAP2 DUP3 DUP5 MSTORE PUSH1 0x20 MSTORE PUSH1 0xFF PUSH1 0x40 DUP5 KECCAK256 SLOAD AND ISZERO PUSH1 0x0 EQ PUSH2 0xCEE JUMPI DUP1 DUP4 MSTORE DUP3 PUSH1 0x20 MSTORE PUSH1 0x40 DUP4 KECCAK256 DUP3 DUP5 MSTORE PUSH1 0x20 MSTORE PUSH1 0x40 DUP4 KECCAK256 PUSH1 0x1 PUSH1 0xFF NOT DUP3 SLOAD AND OR SWAP1 SSTORE PUSH32 0x2F8788117E7EFF1D82E926EC794901D17C78024A50270940304540A733656F0D CALLER SWAP4 DUP1 LOG4 PUSH1 0x1 SWAP1 JUMP JUMPDEST POP POP SWAP1 JUMP JUMPDEST SWAP1 PUSH1 0x0 SWAP2 DUP1 DUP4 MSTORE DUP3 PUSH1 0x20 MSTORE PUSH1 0x40 DUP4 KECCAK256 SWAP2 PUSH1 0x1 DUP1 PUSH1 0xA0 SHL SUB AND SWAP2 DUP3 DUP5 MSTORE PUSH1 0x20 MSTORE PUSH1 0xFF PUSH1 0x40 DUP5 KECCAK256 SLOAD AND PUSH1 0x0 EQ PUSH2 0xCEE JUMPI DUP1 DUP4 MSTORE DUP3 PUSH1 0x20 MSTORE PUSH1 0x40 DUP4 KECCAK256 DUP3 DUP5 MSTORE PUSH1 0x20 MSTORE PUSH1 0x40 DUP4 KECCAK256 PUSH1 0xFF NOT DUP2 SLOAD AND SWAP1 SSTORE PUSH32 0xF6391F5C32D9C69D2A47EA670B442974B53935D1EDC7FD64EB21E047A839171B CALLER SWAP4 DUP1 LOG4 PUSH1 0x1 SWAP1 JUMP INVALID LOG2 PUSH5 0x6970667358 0x22 SLT KECCAK256 PUSH10 0x89DEEC7D48C0CDA14195 0xAF PUSH24 0x3BE443F09450CE7F6926AB051E8447ECB32B4A64736F6C63 NUMBER STOP ADDMOD XOR STOP CALLER "},"methodIdentifiers":{"DEFAULT_ADMIN_ROLE()":"a217fddf","MAX_DIRECT_REFERRALS()":"e58a2d5d","MAX_LEVELS()":"6702c7bf","OPERATOR_ROLE()":"f5b541a6","directReferrals(address,uint256)":"05ad3935","distributeReferralFees(address,uint256)":"2a52fabc","getDirectReferrals(address)":"d2c8e0e5","getReferralChain(address)":"6667864d","getRoleAdmin(bytes32)":"248a9ca3","grantRole(bytes32,address)":"2f2ff15d","hasReferrer(address)":"18452cd8","hasRole(bytes32,address)":"91d14854","levelPercents(uint256)":"fb987036","referrer(address)":"2cf003c2","registerReferral(address,address)":"5603b9f9","renounceRole(bytes32,address)":"36568abe","revokeRole(bytes32,address)":"d547741f","supportsInterface(bytes4)":"01ffc9a7","totalEarnings(address)":"85117005"}}}}}