{"contracts/Prediction.sol":{"Prediction":{"abi":[{"inputs":[{"internalType":"address","name":"_points","type":"address"}],"stateMutability":"nonpayable","type":"constructor"},{"inputs":[],"name":"AccessControlBadConfirmation","type":"error"},{"inputs":[{"internalType":"address","name":"account","type":"address"},{"internalType":"bytes32","name":"neededRole","type":"bytes32"}],"name":"AccessControlUnauthorizedAccount","type":"error"},{"anonymous":false,"inputs":[{"indexed":true,"internalType":"uint256","name":"id","type":"uint256"},{"indexed":false,"internalType":"string","name":"title","type":"string"},{"indexed":false,"internalType":"enum Prediction.Category","name":"category","type":"uint8"},{"indexed":false,"internalType":"uint256","name":"deadline","type":"uint256"}],"name":"EventCreated","type":"event"},{"anonymous":false,"inputs":[{"indexed":true,"internalType":"uint256","name":"id","type":"uint256"},{"indexed":false,"internalType":"bool","name":"outcome","type":"bool"},{"indexed":false,"internalType":"uint256","name":"winnersCount","type":"uint256"}],"name":"EventResolved","type":"event"},{"anonymous":false,"inputs":[{"indexed":true,"internalType":"bytes32","name":"role","type":"bytes32"},{"indexed":true,"internalType":"bytes32","name":"previousAdminRole","type":"bytes32"},{"indexed":true,"internalType":"bytes32","name":"newAdminRole","type":"bytes32"}],"name":"RoleAdminChanged","type":"event"},{"anonymous":false,"inputs":[{"indexed":true,"internalType":"bytes32","name":"role","type":"bytes32"},{"indexed":true,"internalType":"address","name":"account","type":"address"},{"indexed":true,"internalType":"address","name":"sender","type":"address"}],"name":"RoleGranted","type":"event"},{"anonymous":false,"inputs":[{"indexed":true,"internalType":"bytes32","name":"role","type":"bytes32"},{"indexed":true,"internalType":"address","name":"account","type":"address"},{"indexed":true,"internalType":"address","name":"sender","type":"address"}],"name":"RoleRevoked","type":"event"},{"anonymous":false,"inputs":[{"indexed":true,"internalType":"uint256","name":"eventId","type":"uint256"},{"indexed":true,"internalType":"address","name":"user","type":"address"},{"indexed":false,"internalType":"bool","name":"prediction","type":"bool"}],"name":"VoteSubmitted","type":"event"},{"inputs":[],"name":"BEAT_AI_BONUS","outputs":[{"internalType":"uint256","name":"","type":"uint256"}],"stateMutability":"view","type":"function"},{"inputs":[],"name":"CORRECT_BONUS","outputs":[{"internalType":"uint256","name":"","type":"uint256"}],"stateMutability":"view","type":"function"},{"inputs":[],"name":"DEFAULT_ADMIN_ROLE","outputs":[{"internalType":"bytes32","name":"","type":"bytes32"}],"stateMutability":"view","type":"function"},{"inputs":[],"name":"OPERATOR_ROLE","outputs":[{"internalType":"bytes32","name":"","type":"bytes32"}],"stateMutability":"view","type":"function"},{"inputs":[{"internalType":"string","name":"title","type":"string"},{"internalType":"enum Prediction.Category","name":"category","type":"uint8"},{"internalType":"uint256","name":"deadline","type":"uint256"},{"internalType":"uint256","name":"aiProbability","type":"uint256"}],"name":"createEvent","outputs":[{"internalType":"uint256","name":"","type":"uint256"}],"stateMutability":"nonpayable","type":"function"},{"inputs":[],"name":"eventCount","outputs":[{"internalType":"uint256","name":"","type":"uint256"}],"stateMutability":"view","type":"function"},{"inputs":[{"internalType":"uint256","name":"","type":"uint256"},{"internalType":"uint256","name":"","type":"uint256"}],"name":"eventVoters","outputs":[{"internalType":"address","name":"","type":"address"}],"stateMutability":"view","type":"function"},{"inputs":[{"internalType":"uint256","name":"","type":"uint256"}],"name":"events","outputs":[{"internalType":"uint256","name":"id","type":"uint256"},{"internalType":"string","name":"title","type":"string"},{"internalType":"enum Prediction.Category","name":"category","type":"uint8"},{"internalType":"uint256","name":"aiProbability","type":"uint256"},{"internalType":"uint256","name":"deadline","type":"uint256"},{"internalType":"bool","name":"resolved","type":"bool"},{"internalType":"bool","name":"outcome","type":"bool"},{"internalType":"uint256","name":"totalVotesYes","type":"uint256"},{"internalType":"uint256","name":"totalVotesNo","type":"uint256"}],"stateMutability":"view","type":"function"},{"inputs":[{"internalType":"uint256","name":"limit","type":"uint256"}],"name":"getActiveEvents","outputs":[{"components":[{"internalType":"uint256","name":"id","type":"uint256"},{"internalType":"string","name":"title","type":"string"},{"internalType":"enum Prediction.Category","name":"category","type":"uint8"},{"internalType":"uint256","name":"aiProbability","type":"uint256"},{"internalType":"uint256","name":"deadline","type":"uint256"},{"internalType":"bool","name":"resolved","type":"bool"},{"internalType":"bool","name":"outcome","type":"bool"},{"internalType":"uint256","name":"totalVotesYes","type":"uint256"},{"internalType":"uint256","name":"totalVotesNo","type":"uint256"}],"internalType":"struct Prediction.PredictionEvent[]","name":"","type":"tuple[]"}],"stateMutability":"view","type":"function"},{"inputs":[{"internalType":"uint256","name":"eventId","type":"uint256"}],"name":"getEvent","outputs":[{"components":[{"internalType":"uint256","name":"id","type":"uint256"},{"internalType":"string","name":"title","type":"string"},{"internalType":"enum Prediction.Category","name":"category","type":"uint8"},{"internalType":"uint256","name":"aiProbability","type":"uint256"},{"internalType":"uint256","name":"deadline","type":"uint256"},{"internalType":"bool","name":"resolved","type":"bool"},{"internalType":"bool","name":"outcome","type":"bool"},{"internalType":"uint256","name":"totalVotesYes","type":"uint256"},{"internalType":"uint256","name":"totalVotesNo","type":"uint256"}],"internalType":"struct Prediction.PredictionEvent","name":"","type":"tuple"}],"stateMutability":"view","type":"function"},{"inputs":[{"internalType":"bytes32","name":"role","type":"bytes32"}],"name":"getRoleAdmin","outputs":[{"internalType":"bytes32","name":"","type":"bytes32"}],"stateMutability":"view","type":"function"},{"inputs":[{"internalType":"uint256","name":"eventId","type":"uint256"},{"internalType":"address","name":"user","type":"address"}],"name":"getUserVote","outputs":[{"components":[{"internalType":"bool","name":"voted","type":"bool"},{"internalType":"bool","name":"prediction","type":"bool"}],"internalType":"struct Prediction.UserVote","name":"","type":"tuple"}],"stateMutability":"view","type":"function"},{"inputs":[{"internalType":"bytes32","name":"role","type":"bytes32"},{"internalType":"address","name":"account","type":"address"}],"name":"grantRole","outputs":[],"stateMutability":"nonpayable","type":"function"},{"inputs":[{"internalType":"bytes32","name":"role","type":"bytes32"},{"internalType":"address","name":"account","type":"address"}],"name":"hasRole","outputs":[{"internalType":"bool","name":"","type":"bool"}],"stateMutability":"view","type":"function"},{"inputs":[],"name":"pointsContract","outputs":[{"internalType":"contract IPoints","name":"","type":"address"}],"stateMutability":"view","type":"function"},{"inputs":[{"internalType":"bytes32","name":"role","type":"bytes32"},{"internalType":"address","name":"callerConfirmation","type":"address"}],"name":"renounceRole","outputs":[],"stateMutability":"nonpayable","type":"function"},{"inputs":[{"internalType":"uint256","name":"eventId","type":"uint256"},{"internalType":"bool","name":"actualOutcome","type":"bool"}],"name":"resolveEvent","outputs":[],"stateMutability":"nonpayable","type":"function"},{"inputs":[{"internalType":"bytes32","name":"role","type":"bytes32"},{"internalType":"address","name":"account","type":"address"}],"name":"revokeRole","outputs":[],"stateMutability":"nonpayable","type":"function"},{"inputs":[{"internalType":"uint256","name":"eventId","type":"uint256"},{"internalType":"bool","name":"_prediction","type":"bool"}],"name":"submitPrediction","outputs":[],"stateMutability":"nonpayable","type":"function"},{"inputs":[{"internalType":"bytes4","name":"interfaceId","type":"bytes4"}],"name":"supportsInterface","outputs":[{"internalType":"bool","name":"","type":"bool"}],"stateMutability":"view","type":"function"},{"inputs":[{"internalType":"uint256","name":"","type":"uint256"},{"internalType":"address","name":"","type":"address"}],"name":"userVotes","outputs":[{"internalType":"bool","name":"voted","type":"bool"},{"internalType":"bool","name":"prediction","type":"bool"}],"stateMutability":"view","type":"function"}],"evm":{"bytecode":{"linkReferences":{},"object":"6080346200009257601f6200175738819003918201601f19168301916001600160401b0383118484101762000097578084926020946040528339810103126200009257516001600160a01b0381169081900362000092576200006133620000ad565b506200006d336200012d565b50600180546001600160a01b0319169190911790556040516115679081620001d08239f35b600080fd5b634e487b7160e01b600052604160045260246000fd5b6001600160a01b031660008181527fad3228b676f7d3cd4284a5443f17f1962b36e491b30a40b2405849e597ba5fb5602052604081205490919060ff166200012957818052816020526040822081835260205260408220600160ff198254161790553391600080516020620017378339815191528180a4600190565b5090565b6001600160a01b031660008181527fee57cd81e84075558e8fcc182a1f4393f91fc97f963a136e66b7f949a62f319f60205260408120549091907f97667070c54ef182b0f5858b034beac1b6f3089aa2d3188bb1e8929f4fa9b9299060ff16620001ca57808352826020526040832082845260205260408320600160ff1982541617905560008051602062001737833981519152339380a4600190565b50509056fe608080604052600436101561001357600080fd5b60003560e01c90816301ffc9a714610ef15750806303c7881a14610e6b5780630b79143014610dbb57806319e1b30814610d9f57806322a8f40714610bf5578063248a9ca314610bc65780632b4f8a1f14610b9d5780632f2ff15d14610b5e57806336568abe14610b1757806369bf402e146109565780636d1884e01461090957806371be2e4a146108eb578063915439fb1461067057806391d1485414610623578063a217fddf14610607578063c2e930211461024d578063d547741f1461020c578063e0397fd1146101ba578063efd79b131461019e578063f5b541a6146101635763fe5b3e3b1461010657600080fd5b3461015e57604036600319011261015e5761011f610f44565b600435600052600460205260406000209060018060a01b03166000526020526040806000205460ff8251918181161515835260081c1615156020820152f35b600080fd5b3461015e57600036600319011261015e5760206040517f97667070c54ef182b0f5858b034beac1b6f3089aa2d3188bb1e8929f4fa9b9298152f35b3461015e57600036600319011261015e57602060405160328152f35b3461015e57604036600319011261015e5760243560043560005260056020526040600020805482101561015e576020916101f391611189565b905460405160039290921b1c6001600160a01b03168152f35b3461015e57604036600319011261015e5761024b60043561022b610f44565b90806000526000602052610246600160406000200154611418565b6114bc565b005b3461015e57608036600319011261015e5760043567ffffffffffffffff811161015e573660238201121561015e5767ffffffffffffffff81600401351161015e5736602482600401358301011161015e576005602435101561015e576102b161139e565b6102be4260443511611234565b60648035116105cc576102d2600254611270565b80600255604051906102e382610fc4565b8082526040516103016004850135601f01601f191660200182610fe1565b600484013580825260248501602083013760006020856004013583010152602083015261033360243560408401611314565b60643560608301526044356080830152600060a0830152600060c0830152600060e08301526000610100830152600052600360205260406000209080518255602081015192835167ffffffffffffffff81116105b6576103966001850154610f5a565b601f811161056f575b50602094601f8211600114610503579481929394956000926104f8575b50508160011b916000199060031b1c19161760018401555b6040820151926002810160058510156104e2576101007f72bae727b73e364af0cb466b245c122933bcab17b146472cfe58866364ac91869460079260209760ff8019835416911617905560608101516003850155608081015160048501556104706005850161045560a08401511515829060ff801983541691151516179055565b60c0830151815461ff00191690151560081b61ff0016179055565b60e081015160068501550151910155600254918291608060405180926060825280600401356060830152806004013560248201848401376000838260040135840101526104c18883016024356110e8565b604435604083015260040135601f01601f19168101030190a2604051908152f35b634e487b7160e01b600052602160045260246000fd5b0151905085806103bc565b601f198216956001860160005260206000209160005b8881106105575750836001959697981061053e575b505050811b0160018401556103d4565b015160001960f88460031b161c1916905585808061052e565b91926020600181928685015181550194019201610519565b600185016000526020600020601f830160051c8101602084106105af575b601f830160051c820181106105a357505061039f565b6000815560010161058d565b508061058d565b634e487b7160e01b600052604160045260246000fd5b60405162461bcd60e51b8152602060048201526013602482015272496e76616c69642070726f626162696c69747960681b6044820152606490fd5b3461015e57600036600319011261015e57602060405160008152f35b3461015e57604036600319011261015e5761063c610f44565b600435600052600060205260406000209060018060a01b0316600052602052602060ff604060002054166040519015158152f35b3461015e5761067e366110f5565b9061068761139e565b806000526020600381526040600020926106a3845415156111b7565b6032600360058601956106dc848854986106c060ff8b16156111f5565b61ffff1990991690151560081b61ff0016176001908117909855565b0154101590151591846000928560005260058352604060002090604051808386829554938481520190600052866000209260005b87898383106108cd575050505061072992500383610fe1565b6000925b610764575b867fa20711274bb36f7685d0dc92e106040933e80977976707f98eaba50a8a5fb6a260408888888351928352820152a2005b81949294518510156108c557600087815260048552604090206001600160a01b039390846107928886611300565b511660005285528685604060002060ff604051916107af83610f94565b548181161515835260081c16151591018190520361085b576107d090611270565b946032878303610853575b848a5416946107ea8386611300565b511690853b1561015e576064600092838d98604051998a95869463167e950f60e21b86526004860152602485015260448401525af19081156108475789948592610838575b505b019261072d565b61084190610fb0565b8a61082f565b6040513d6000823e3d90fd5b5060966107db565b94838954169361086b8285611300565b5116843b1561015e5760009460648692604051978893849263167e950f60e21b845260048401528160248401528160448401525af190811561084757899485926108b6575b50610831565b6108bf90610fb0565b8a6108b0565b829450610732565b86546001600160a01b03168552958101958895509093019201610710565b3461015e57600036600319011261015e576020600254604051908152f35b3461015e57602036600319011261015e576109226112ba565b50600435600052600360205261095261093e6040600020611320565b604051918291602083526020830190611114565b0390f35b3461015e5760208060031936011261015e576004356000600254805b80151580610b0e575b156109d4578060005260038552604060002060ff6005820154161590816109c6575b506109b1575b6109ac90611295565b610972565b916109be6109ac91611270565b9290506109a3565b60049150015442108661099d565b8483836109e0826112a2565b906109ee6040519283610fe1565b8282526109fa836112a2565b601f19018460005b828110610af85750505060005b81151580610aef575b15610a9157816000526003855260406000209160ff6005840154161580610a84575b610a50575b610a4a919250611295565b90610a0f565b610a7b82610a6a610a64610a4a9592611270565b95611320565b610a748288611300565b5285611300565b50829150610a3f565b5060048301544210610a3a565b604080518681528451818801819052600092600582901b8301810191878a01918a9085015b828710610ac35785850386f35b909192938280610adf600193603f198a82030186528851611114565b9601920196019592919092610ab6565b50838110610a18565b610b006112ba565b828287010152018590610a02565b5083831061097b565b3461015e57604036600319011261015e57610b30610f44565b336001600160a01b03821603610b4c5761024b906004356114bc565b60405163334bd91960e11b8152600490fd5b3461015e57604036600319011261015e5761024b600435610b7d610f44565b90806000526000602052610b98600160406000200154611418565b61143e565b3461015e57600036600319011261015e576001546040516001600160a01b039091168152602090f35b3461015e57602036600319011261015e5760043560005260006020526020600160406000200154604051908152f35b3461015e57610c03366110f5565b908060005260209160038352604060002092610c21845415156111b7565b610c3260ff600586015416156111f5565b610c4160048501544210611234565b8260005260048152604060002033600052815260ff60406000205416610d6b5760405193610c6e85610f94565b60018552610cc8828601958415159687815286600052600485526040600020336000528552610cb1604060002092511515839060ff801983541691151516179055565b51815461ff00191690151560081b61ff0016179055565b8360005260058252604060002092835493680100000000000000008510156105b65784610d1b9160017f7ae256270c354f1f830c52697713782ce51539e910d41781cbb063a49c42c0f997018155611189565b81546001600160a01b0360039290921b91821b19163390911b17905515610d5757600601610d498154611270565b90555b6040519384523393a3005b600701610d648154611270565b9055610d4c565b6064906040519062461bcd60e51b82526004820152600d60248201526c105b1c9958591e481d9bdd1959609a1b6044820152fd5b3461015e57600036600319011261015e57602060405160648152f35b3461015e57602036600319011261015e57600435600052600360205260406000208054610dea60018301611003565b9160ff6002820154169060038101549060ff60048201546005830154906007600685015494015494610e3d610e326040519a8b9a610120908c528060208d01528b01906110a8565b9760408a01906110e8565b60608801526080870152818116151560a087015260081c16151560c085015260e08401526101008301520390f35b3461015e57604036600319011261015e57610e84610f44565b60006020604051610e9481610f94565b8281520152600435600052600460205260406000209060018060a01b0316600052602052604080600020815190610eca82610f94565b5460ff6020818316151593848152019160081c161515815282519182525115156020820152f35b3461015e57602036600319011261015e576004359063ffffffff60e01b821680920361015e57602091637965db0b60e01b8114908115610f33575b5015158152f35b6301ffc9a760e01b14905083610f2c565b602435906001600160a01b038216820361015e57565b90600182811c92168015610f8a575b6020831014610f7457565b634e487b7160e01b600052602260045260246000fd5b91607f1691610f69565b6040810190811067ffffffffffffffff8211176105b657604052565b67ffffffffffffffff81116105b657604052565b610120810190811067ffffffffffffffff8211176105b657604052565b90601f8019910116810190811067ffffffffffffffff8211176105b657604052565b9060405191826000825461101681610f5a565b908184526020946001916001811690816000146110865750600114611047575b50505061104592500383610fe1565b565b600090815285812095935091905b81831061106e5750506110459350820101388080611036565b85548884018501529485019487945091830191611055565b9250505061104594925060ff191682840152151560051b820101388080611036565b919082519283825260005b8481106110d4575050826000602080949584010152601f8019910116010190565b6020818301810151848301820152016110b3565b9060058210156104e25752565b604090600319011261015e5760043590602435801515810361015e5790565b90611133610120835183526020840151908060208501528301906110a8565b91611146604082015160408401906110e8565b606081015160608301526080810151608083015260a0810151151560a083015260c0810151151560c083015260e081015160e08301526101008091015191015290565b80548210156111a15760005260206000200190600090565b634e487b7160e01b600052603260045260246000fd5b156111be57565b60405162461bcd60e51b815260206004820152600f60248201526e115d995b9d081b9bdd08199bdd5b99608a1b6044820152606490fd5b156111fc57565b60405162461bcd60e51b815260206004820152601060248201526f105b1c9958591e481c995cdbdb1d995960821b6044820152606490fd5b1561123b57565b60405162461bcd60e51b815260206004820152600d60248201526c5061737420646561646c696e6560981b6044820152606490fd5b600019811461127f5760010190565b634e487b7160e01b600052601160045260246000fd5b801561127f576000190190565b67ffffffffffffffff81116105b65760051b60200190565b604051906112c782610fc4565b81610100600091828152606060208201528260408201528260608201528260808201528260a08201528260c08201528260e08201520152565b80518210156111a15760209160051b010190565b60058210156104e25752565b9060405161132d81610fc4565b610100600782948054845261134460018201611003565b602085015261135d60ff60028301541660408601611314565b600381015460608501526004810154608085015260ff6005820154818116151560a087015260081c16151560c0850152600681015460e08501520154910152565b3360009081527fee57cd81e84075558e8fcc182a1f4393f91fc97f963a136e66b7f949a62f319f60205260409020547f97667070c54ef182b0f5858b034beac1b6f3089aa2d3188bb1e8929f4fa9b9299060ff16156113fa5750565b6044906040519063e2517d3f60e01b82523360048301526024820152fd5b80600052600060205260406000203360005260205260ff60406000205416156113fa5750565b9060009180835282602052604083209160018060a01b03169182845260205260ff604084205416156000146114b757808352826020526040832082845260205260408320600160ff198254161790557f2f8788117e7eff1d82e926ec794901d17c78024a50270940304540a733656f0d339380a4600190565b505090565b9060009180835282602052604083209160018060a01b03169182845260205260ff6040842054166000146114b75780835282602052604083208284526020526040832060ff1981541690557ff6391f5c32d9c69d2a47ea670b442974b53935d1edc7fd64eb21e047a839171b339380a460019056fea264697066735822122068c2a123afe6162edd1a6f3216fd3ad3a6a9ad06960fbeeba6503ba26650ddfa64736f6c634300081800332f8788117e7eff1d82e926ec794901d17c78024a50270940304540a733656f0d","opcodes":"PUSH1 0x80 CALLVALUE PUSH3 0x92 JUMPI PUSH1 0x1F PUSH3 0x1757 CODESIZE DUP2 SWAP1 SUB SWAP2 DUP3 ADD PUSH1 0x1F NOT AND DUP4 ADD SWAP2 PUSH1 0x1 PUSH1 0x1 PUSH1 0x40 SHL SUB DUP4 GT DUP5 DUP5 LT OR PUSH3 0x97 JUMPI DUP1 DUP5 SWAP3 PUSH1 0x20 SWAP5 PUSH1 0x40 MSTORE DUP4 CODECOPY DUP2 ADD SUB SLT PUSH3 0x92 JUMPI MLOAD PUSH1 0x1 PUSH1 0x1 PUSH1 0xA0 SHL SUB DUP2 AND SWAP1 DUP2 SWAP1 SUB PUSH3 0x92 JUMPI PUSH3 0x61 CALLER PUSH3 0xAD JUMP JUMPDEST POP PUSH3 0x6D CALLER PUSH3 0x12D JUMP JUMPDEST POP PUSH1 0x1 DUP1 SLOAD PUSH1 0x1 PUSH1 0x1 PUSH1 0xA0 SHL SUB NOT AND SWAP2 SWAP1 SWAP2 OR SWAP1 SSTORE PUSH1 0x40 MLOAD PUSH2 0x1567 SWAP1 DUP2 PUSH3 0x1D0 DUP3 CODECOPY RETURN JUMPDEST PUSH1 0x0 DUP1 REVERT JUMPDEST PUSH4 0x4E487B71 PUSH1 0xE0 SHL PUSH1 0x0 MSTORE PUSH1 0x41 PUSH1 0x4 MSTORE PUSH1 0x24 PUSH1 0x0 REVERT JUMPDEST PUSH1 0x1 PUSH1 0x1 PUSH1 0xA0 SHL SUB AND PUSH1 0x0 DUP2 DUP2 MSTORE PUSH32 0xAD3228B676F7D3CD4284A5443F17F1962B36E491B30A40B2405849E597BA5FB5 PUSH1 0x20 MSTORE PUSH1 0x40 DUP2 KECCAK256 SLOAD SWAP1 SWAP2 SWAP1 PUSH1 0xFF AND PUSH3 0x129 JUMPI DUP2 DUP1 MSTORE DUP2 PUSH1 0x20 MSTORE PUSH1 0x40 DUP3 KECCAK256 DUP2 DUP4 MSTORE PUSH1 0x20 MSTORE PUSH1 0x40 DUP3 KECCAK256 PUSH1 0x1 PUSH1 0xFF NOT DUP3 SLOAD AND OR SWAP1 SSTORE CALLER SWAP2 PUSH1 0x0 DUP1 MLOAD PUSH1 0x20 PUSH3 0x1737 DUP4 CODECOPY DUP2 MLOAD SWAP2 MSTORE DUP2 DUP1 LOG4 PUSH1 0x1 SWAP1 JUMP JUMPDEST POP SWAP1 JUMP JUMPDEST PUSH1 0x1 PUSH1 0x1 PUSH1 0xA0 SHL SUB AND PUSH1 0x0 DUP2 DUP2 MSTORE PUSH32 0xEE57CD81E84075558E8FCC182A1F4393F91FC97F963A136E66B7F949A62F319F PUSH1 0x20 MSTORE PUSH1 0x40 DUP2 KECCAK256 SLOAD SWAP1 SWAP2 SWAP1 PUSH32 0x97667070C54EF182B0F5858B034BEAC1B6F3089AA2D3188BB1E8929F4FA9B929 SWAP1 PUSH1 0xFF AND PUSH3 0x1CA JUMPI DUP1 DUP4 MSTORE DUP3 PUSH1 0x20 MSTORE PUSH1 0x40 DUP4 KECCAK256 DUP3 DUP5 MSTORE PUSH1 0x20 MSTORE PUSH1 0x40 DUP4 KECCAK256 PUSH1 0x1 PUSH1 0xFF NOT DUP3 SLOAD AND OR SWAP1 SSTORE PUSH1 0x0 DUP1 MLOAD PUSH1 0x20 PUSH3 0x1737 DUP4 CODECOPY DUP2 MLOAD SWAP2 MSTORE CALLER SWAP4 DUP1 LOG4 PUSH1 0x1 SWAP1 JUMP JUMPDEST POP POP SWAP1 JUMP INVALID PUSH1 0x80 DUP1 PUSH1 0x40 MSTORE PUSH1 0x4 CALLDATASIZE LT ISZERO PUSH2 0x13 JUMPI PUSH1 0x0 DUP1 REVERT JUMPDEST PUSH1 0x0 CALLDATALOAD PUSH1 0xE0 SHR SWAP1 DUP2 PUSH4 0x1FFC9A7 EQ PUSH2 0xEF1 JUMPI POP DUP1 PUSH4 0x3C7881A EQ PUSH2 0xE6B JUMPI DUP1 PUSH4 0xB791430 EQ PUSH2 0xDBB JUMPI DUP1 PUSH4 0x19E1B308 EQ PUSH2 0xD9F JUMPI DUP1 PUSH4 0x22A8F407 EQ PUSH2 0xBF5 JUMPI DUP1 PUSH4 0x248A9CA3 EQ PUSH2 0xBC6 JUMPI DUP1 PUSH4 0x2B4F8A1F EQ PUSH2 0xB9D JUMPI DUP1 PUSH4 0x2F2FF15D EQ PUSH2 0xB5E JUMPI DUP1 PUSH4 0x36568ABE EQ PUSH2 0xB17 JUMPI DUP1 PUSH4 0x69BF402E EQ PUSH2 0x956 JUMPI DUP1 PUSH4 0x6D1884E0 EQ PUSH2 0x909 JUMPI DUP1 PUSH4 0x71BE2E4A EQ PUSH2 0x8EB JUMPI DUP1 PUSH4 0x915439FB EQ PUSH2 0x670 JUMPI DUP1 PUSH4 0x91D14854 EQ PUSH2 0x623 JUMPI DUP1 PUSH4 0xA217FDDF EQ PUSH2 0x607 JUMPI DUP1 PUSH4 0xC2E93021 EQ PUSH2 0x24D JUMPI DUP1 PUSH4 0xD547741F EQ PUSH2 0x20C JUMPI DUP1 PUSH4 0xE0397FD1 EQ PUSH2 0x1BA JUMPI DUP1 PUSH4 0xEFD79B13 EQ PUSH2 0x19E JUMPI DUP1 PUSH4 0xF5B541A6 EQ PUSH2 0x163 JUMPI PUSH4 0xFE5B3E3B EQ PUSH2 0x106 JUMPI PUSH1 0x0 DUP1 REVERT JUMPDEST CALLVALUE PUSH2 0x15E JUMPI PUSH1 0x40 CALLDATASIZE PUSH1 0x3 NOT ADD SLT PUSH2 0x15E JUMPI PUSH2 0x11F PUSH2 0xF44 JUMP JUMPDEST PUSH1 0x4 CALLDATALOAD PUSH1 0x0 MSTORE PUSH1 0x4 PUSH1 0x20 MSTORE PUSH1 0x40 PUSH1 0x0 KECCAK256 SWAP1 PUSH1 0x1 DUP1 PUSH1 0xA0 SHL SUB AND PUSH1 0x0 MSTORE PUSH1 0x20 MSTORE PUSH1 0x40 DUP1 PUSH1 0x0 KECCAK256 SLOAD PUSH1 0xFF DUP3 MLOAD SWAP2 DUP2 DUP2 AND ISZERO ISZERO DUP4 MSTORE PUSH1 0x8 SHR AND ISZERO ISZERO PUSH1 0x20 DUP3 ADD MSTORE RETURN JUMPDEST PUSH1 0x0 DUP1 REVERT JUMPDEST CALLVALUE PUSH2 0x15E JUMPI PUSH1 0x0 CALLDATASIZE PUSH1 0x3 NOT ADD SLT PUSH2 0x15E JUMPI PUSH1 0x20 PUSH1 0x40 MLOAD PUSH32 0x97667070C54EF182B0F5858B034BEAC1B6F3089AA2D3188BB1E8929F4FA9B929 DUP2 MSTORE RETURN JUMPDEST CALLVALUE PUSH2 0x15E JUMPI PUSH1 0x0 CALLDATASIZE PUSH1 0x3 NOT ADD SLT PUSH2 0x15E JUMPI PUSH1 0x20 PUSH1 0x40 MLOAD PUSH1 0x32 DUP2 MSTORE RETURN JUMPDEST CALLVALUE PUSH2 0x15E JUMPI PUSH1 0x40 CALLDATASIZE PUSH1 0x3 NOT ADD SLT PUSH2 0x15E JUMPI PUSH1 0x24 CALLDATALOAD PUSH1 0x4 CALLDATALOAD PUSH1 0x0 MSTORE PUSH1 0x5 PUSH1 0x20 MSTORE PUSH1 0x40 PUSH1 0x0 KECCAK256 DUP1 SLOAD DUP3 LT ISZERO PUSH2 0x15E JUMPI PUSH1 0x20 SWAP2 PUSH2 0x1F3 SWAP2 PUSH2 0x1189 JUMP JUMPDEST SWAP1 SLOAD PUSH1 0x40 MLOAD PUSH1 0x3 SWAP3 SWAP1 SWAP3 SHL SHR PUSH1 0x1 PUSH1 0x1 PUSH1 0xA0 SHL SUB AND DUP2 MSTORE RETURN JUMPDEST CALLVALUE PUSH2 0x15E JUMPI PUSH1 0x40 CALLDATASIZE PUSH1 0x3 NOT ADD SLT PUSH2 0x15E JUMPI PUSH2 0x24B PUSH1 0x4 CALLDATALOAD PUSH2 0x22B PUSH2 0xF44 JUMP JUMPDEST SWAP1 DUP1 PUSH1 0x0 MSTORE PUSH1 0x0 PUSH1 0x20 MSTORE PUSH2 0x246 PUSH1 0x1 PUSH1 0x40 PUSH1 0x0 KECCAK256 ADD SLOAD PUSH2 0x1418 JUMP JUMPDEST PUSH2 0x14BC JUMP JUMPDEST STOP JUMPDEST CALLVALUE PUSH2 0x15E JUMPI PUSH1 0x80 CALLDATASIZE PUSH1 0x3 NOT ADD SLT PUSH2 0x15E JUMPI PUSH1 0x4 CALLDATALOAD PUSH8 0xFFFFFFFFFFFFFFFF DUP2 GT PUSH2 0x15E JUMPI CALLDATASIZE PUSH1 0x23 DUP3 ADD SLT ISZERO PUSH2 0x15E JUMPI PUSH8 0xFFFFFFFFFFFFFFFF DUP2 PUSH1 0x4 ADD CALLDATALOAD GT PUSH2 0x15E JUMPI CALLDATASIZE PUSH1 0x24 DUP3 PUSH1 0x4 ADD CALLDATALOAD DUP4 ADD ADD GT PUSH2 0x15E JUMPI PUSH1 0x5 PUSH1 0x24 CALLDATALOAD LT ISZERO PUSH2 0x15E JUMPI PUSH2 0x2B1 PUSH2 0x139E JUMP JUMPDEST PUSH2 0x2BE TIMESTAMP PUSH1 0x44 CALLDATALOAD GT PUSH2 0x1234 JUMP JUMPDEST PUSH1 0x64 DUP1 CALLDATALOAD GT PUSH2 0x5CC JUMPI PUSH2 0x2D2 PUSH1 0x2 SLOAD PUSH2 0x1270 JUMP JUMPDEST DUP1 PUSH1 0x2 SSTORE PUSH1 0x40 MLOAD SWAP1 PUSH2 0x2E3 DUP3 PUSH2 0xFC4 JUMP JUMPDEST DUP1 DUP3 MSTORE PUSH1 0x40 MLOAD PUSH2 0x301 PUSH1 0x4 DUP6 ADD CALLDATALOAD PUSH1 0x1F ADD PUSH1 0x1F NOT AND PUSH1 0x20 ADD DUP3 PUSH2 0xFE1 JUMP JUMPDEST PUSH1 0x4 DUP5 ADD CALLDATALOAD DUP1 DUP3 MSTORE PUSH1 0x24 DUP6 ADD PUSH1 0x20 DUP4 ADD CALLDATACOPY PUSH1 0x0 PUSH1 0x20 DUP6 PUSH1 0x4 ADD CALLDATALOAD DUP4 ADD ADD MSTORE PUSH1 0x20 DUP4 ADD MSTORE PUSH2 0x333 PUSH1 0x24 CALLDATALOAD PUSH1 0x40 DUP5 ADD PUSH2 0x1314 JUMP JUMPDEST PUSH1 0x64 CALLDATALOAD PUSH1 0x60 DUP4 ADD MSTORE PUSH1 0x44 CALLDATALOAD PUSH1 0x80 DUP4 ADD MSTORE PUSH1 0x0 PUSH1 0xA0 DUP4 ADD MSTORE PUSH1 0x0 PUSH1 0xC0 DUP4 ADD MSTORE PUSH1 0x0 PUSH1 0xE0 DUP4 ADD MSTORE PUSH1 0x0 PUSH2 0x100 DUP4 ADD MSTORE PUSH1 0x0 MSTORE PUSH1 0x3 PUSH1 0x20 MSTORE PUSH1 0x40 PUSH1 0x0 KECCAK256 SWAP1 DUP1 MLOAD DUP3 SSTORE PUSH1 0x20 DUP2 ADD MLOAD SWAP3 DUP4 MLOAD PUSH8 0xFFFFFFFFFFFFFFFF DUP2 GT PUSH2 0x5B6 JUMPI PUSH2 0x396 PUSH1 0x1 DUP6 ADD SLOAD PUSH2 0xF5A JUMP JUMPDEST PUSH1 0x1F DUP2 GT PUSH2 0x56F JUMPI JUMPDEST POP PUSH1 0x20 SWAP5 PUSH1 0x1F DUP3 GT PUSH1 0x1 EQ PUSH2 0x503 JUMPI SWAP5 DUP2 SWAP3 SWAP4 SWAP5 SWAP6 PUSH1 0x0 SWAP3 PUSH2 0x4F8 JUMPI JUMPDEST POP POP DUP2 PUSH1 0x1 SHL SWAP2 PUSH1 0x0 NOT SWAP1 PUSH1 0x3 SHL SHR NOT AND OR PUSH1 0x1 DUP5 ADD SSTORE JUMPDEST PUSH1 0x40 DUP3 ADD MLOAD SWAP3 PUSH1 0x2 DUP2 ADD PUSH1 0x5 DUP6 LT ISZERO PUSH2 0x4E2 JUMPI PUSH2 0x100 PUSH32 0x72BAE727B73E364AF0CB466B245C122933BCAB17B146472CFE58866364AC9186 SWAP5 PUSH1 0x7 SWAP3 PUSH1 0x20 SWAP8 PUSH1 0xFF DUP1 NOT DUP4 SLOAD AND SWAP2 AND OR SWAP1 SSTORE PUSH1 0x60 DUP2 ADD MLOAD PUSH1 0x3 DUP6 ADD SSTORE PUSH1 0x80 DUP2 ADD MLOAD PUSH1 0x4 DUP6 ADD SSTORE PUSH2 0x470 PUSH1 0x5 DUP6 ADD PUSH2 0x455 PUSH1 0xA0 DUP5 ADD MLOAD ISZERO ISZERO DUP3 SWAP1 PUSH1 0xFF DUP1 NOT DUP4 SLOAD AND SWAP2 ISZERO ISZERO AND OR SWAP1 SSTORE JUMP JUMPDEST PUSH1 0xC0 DUP4 ADD MLOAD DUP2 SLOAD PUSH2 0xFF00 NOT AND SWAP1 ISZERO ISZERO PUSH1 0x8 SHL PUSH2 0xFF00 AND OR SWAP1 SSTORE JUMP JUMPDEST PUSH1 0xE0 DUP2 ADD MLOAD PUSH1 0x6 DUP6 ADD SSTORE ADD MLOAD SWAP2 ADD SSTORE PUSH1 0x2 SLOAD SWAP2 DUP3 SWAP2 PUSH1 0x80 PUSH1 0x40 MLOAD DUP1 SWAP3 PUSH1 0x60 DUP3 MSTORE DUP1 PUSH1 0x4 ADD CALLDATALOAD PUSH1 0x60 DUP4 ADD MSTORE DUP1 PUSH1 0x4 ADD CALLDATALOAD PUSH1 0x24 DUP3 ADD DUP5 DUP5 ADD CALLDATACOPY PUSH1 0x0 DUP4 DUP3 PUSH1 0x4 ADD CALLDATALOAD DUP5 ADD ADD MSTORE PUSH2 0x4C1 DUP9 DUP4 ADD PUSH1 0x24 CALLDATALOAD PUSH2 0x10E8 JUMP JUMPDEST PUSH1 0x44 CALLDATALOAD PUSH1 0x40 DUP4 ADD MSTORE PUSH1 0x4 ADD CALLDATALOAD PUSH1 0x1F ADD PUSH1 0x1F NOT AND DUP2 ADD SUB ADD SWAP1 LOG2 PUSH1 0x40 MLOAD SWAP1 DUP2 MSTORE RETURN JUMPDEST PUSH4 0x4E487B71 PUSH1 0xE0 SHL PUSH1 0x0 MSTORE PUSH1 0x21 PUSH1 0x4 MSTORE PUSH1 0x24 PUSH1 0x0 REVERT JUMPDEST ADD MLOAD SWAP1 POP DUP6 DUP1 PUSH2 0x3BC JUMP JUMPDEST PUSH1 0x1F NOT DUP3 AND SWAP6 PUSH1 0x1 DUP7 ADD PUSH1 0x0 MSTORE PUSH1 0x20 PUSH1 0x0 KECCAK256 SWAP2 PUSH1 0x0 JUMPDEST DUP9 DUP2 LT PUSH2 0x557 JUMPI POP DUP4 PUSH1 0x1 SWAP6 SWAP7 SWAP8 SWAP9 LT PUSH2 0x53E JUMPI JUMPDEST POP POP POP DUP2 SHL ADD PUSH1 0x1 DUP5 ADD SSTORE PUSH2 0x3D4 JUMP JUMPDEST ADD MLOAD PUSH1 0x0 NOT PUSH1 0xF8 DUP5 PUSH1 0x3 SHL AND SHR NOT AND SWAP1 SSTORE DUP6 DUP1 DUP1 PUSH2 0x52E JUMP JUMPDEST SWAP2 SWAP3 PUSH1 0x20 PUSH1 0x1 DUP2 SWAP3 DUP7 DUP6 ADD MLOAD DUP2 SSTORE ADD SWAP5 ADD SWAP3 ADD PUSH2 0x519 JUMP JUMPDEST PUSH1 0x1 DUP6 ADD PUSH1 0x0 MSTORE PUSH1 0x20 PUSH1 0x0 KECCAK256 PUSH1 0x1F DUP4 ADD PUSH1 0x5 SHR DUP2 ADD PUSH1 0x20 DUP5 LT PUSH2 0x5AF JUMPI JUMPDEST PUSH1 0x1F DUP4 ADD PUSH1 0x5 SHR DUP3 ADD DUP2 LT PUSH2 0x5A3 JUMPI POP POP PUSH2 0x39F JUMP JUMPDEST PUSH1 0x0 DUP2 SSTORE PUSH1 0x1 ADD PUSH2 0x58D JUMP JUMPDEST POP DUP1 PUSH2 0x58D JUMP JUMPDEST PUSH4 0x4E487B71 PUSH1 0xE0 SHL PUSH1 0x0 MSTORE PUSH1 0x41 PUSH1 0x4 MSTORE PUSH1 0x24 PUSH1 0x0 REVERT JUMPDEST PUSH1 0x40 MLOAD PUSH3 0x461BCD PUSH1 0xE5 SHL DUP2 MSTORE PUSH1 0x20 PUSH1 0x4 DUP3 ADD MSTORE PUSH1 0x13 PUSH1 0x24 DUP3 ADD MSTORE PUSH19 0x496E76616C69642070726F626162696C697479 PUSH1 0x68 SHL PUSH1 0x44 DUP3 ADD MSTORE PUSH1 0x64 SWAP1 REVERT JUMPDEST CALLVALUE PUSH2 0x15E JUMPI PUSH1 0x0 CALLDATASIZE PUSH1 0x3 NOT ADD SLT PUSH2 0x15E JUMPI PUSH1 0x20 PUSH1 0x40 MLOAD PUSH1 0x0 DUP2 MSTORE RETURN JUMPDEST CALLVALUE PUSH2 0x15E JUMPI PUSH1 0x40 CALLDATASIZE PUSH1 0x3 NOT ADD SLT PUSH2 0x15E JUMPI PUSH2 0x63C PUSH2 0xF44 JUMP JUMPDEST PUSH1 0x4 CALLDATALOAD PUSH1 0x0 MSTORE PUSH1 0x0 PUSH1 0x20 MSTORE PUSH1 0x40 PUSH1 0x0 KECCAK256 SWAP1 PUSH1 0x1 DUP1 PUSH1 0xA0 SHL SUB AND PUSH1 0x0 MSTORE PUSH1 0x20 MSTORE PUSH1 0x20 PUSH1 0xFF PUSH1 0x40 PUSH1 0x0 KECCAK256 SLOAD AND PUSH1 0x40 MLOAD SWAP1 ISZERO ISZERO DUP2 MSTORE RETURN JUMPDEST CALLVALUE PUSH2 0x15E JUMPI PUSH2 0x67E CALLDATASIZE PUSH2 0x10F5 JUMP JUMPDEST SWAP1 PUSH2 0x687 PUSH2 0x139E JUMP JUMPDEST DUP1 PUSH1 0x0 MSTORE PUSH1 0x20 PUSH1 0x3 DUP2 MSTORE PUSH1 0x40 PUSH1 0x0 KECCAK256 SWAP3 PUSH2 0x6A3 DUP5 SLOAD ISZERO ISZERO PUSH2 0x11B7 JUMP JUMPDEST PUSH1 0x32 PUSH1 0x3 PUSH1 0x5 DUP7 ADD SWAP6 PUSH2 0x6DC DUP5 DUP9 SLOAD SWAP9 PUSH2 0x6C0 PUSH1 0xFF DUP12 AND ISZERO PUSH2 0x11F5 JUMP JUMPDEST PUSH2 0xFFFF NOT SWAP1 SWAP10 AND SWAP1 ISZERO ISZERO PUSH1 0x8 SHL PUSH2 0xFF00 AND OR PUSH1 0x1 SWAP1 DUP2 OR SWAP1 SWAP9 SSTORE JUMP JUMPDEST ADD SLOAD LT ISZERO SWAP1 ISZERO ISZERO SWAP2 DUP5 PUSH1 0x0 SWAP3 DUP6 PUSH1 0x0 MSTORE PUSH1 0x5 DUP4 MSTORE PUSH1 0x40 PUSH1 0x0 KECCAK256 SWAP1 PUSH1 0x40 MLOAD DUP1 DUP4 DUP7 DUP3 SWAP6 SLOAD SWAP4 DUP5 DUP2 MSTORE ADD SWAP1 PUSH1 0x0 MSTORE DUP7 PUSH1 0x0 KECCAK256 SWAP3 PUSH1 0x0 JUMPDEST DUP8 DUP10 DUP4 DUP4 LT PUSH2 0x8CD JUMPI POP POP POP POP PUSH2 0x729 SWAP3 POP SUB DUP4 PUSH2 0xFE1 JUMP JUMPDEST PUSH1 0x0 SWAP3 JUMPDEST PUSH2 0x764 JUMPI JUMPDEST DUP7 PUSH32 0xA20711274BB36F7685D0DC92E106040933E80977976707F98EABA50A8A5FB6A2 PUSH1 0x40 DUP9 DUP9 DUP9 DUP4 MLOAD SWAP3 DUP4 MSTORE DUP3 ADD MSTORE LOG2 STOP JUMPDEST DUP2 SWAP5 SWAP3 SWAP5 MLOAD DUP6 LT ISZERO PUSH2 0x8C5 JUMPI PUSH1 0x0 DUP8 DUP2 MSTORE PUSH1 0x4 DUP6 MSTORE PUSH1 0x40 SWAP1 KECCAK256 PUSH1 0x1 PUSH1 0x1 PUSH1 0xA0 SHL SUB SWAP4 SWAP1 DUP5 PUSH2 0x792 DUP9 DUP7 PUSH2 0x1300 JUMP JUMPDEST MLOAD AND PUSH1 0x0 MSTORE DUP6 MSTORE DUP7 DUP6 PUSH1 0x40 PUSH1 0x0 KECCAK256 PUSH1 0xFF PUSH1 0x40 MLOAD SWAP2 PUSH2 0x7AF DUP4 PUSH2 0xF94 JUMP JUMPDEST SLOAD DUP2 DUP2 AND ISZERO ISZERO DUP4 MSTORE PUSH1 0x8 SHR AND ISZERO ISZERO SWAP2 ADD DUP2 SWAP1 MSTORE SUB PUSH2 0x85B JUMPI PUSH2 0x7D0 SWAP1 PUSH2 0x1270 JUMP JUMPDEST SWAP5 PUSH1 0x32 DUP8 DUP4 SUB PUSH2 0x853 JUMPI JUMPDEST DUP5 DUP11 SLOAD AND SWAP5 PUSH2 0x7EA DUP4 DUP7 PUSH2 0x1300 JUMP JUMPDEST MLOAD AND SWAP1 DUP6 EXTCODESIZE ISZERO PUSH2 0x15E JUMPI PUSH1 0x64 PUSH1 0x0 SWAP3 DUP4 DUP14 SWAP9 PUSH1 0x40 MLOAD SWAP10 DUP11 SWAP6 DUP7 SWAP5 PUSH4 0x167E950F PUSH1 0xE2 SHL DUP7 MSTORE PUSH1 0x4 DUP7 ADD MSTORE PUSH1 0x24 DUP6 ADD MSTORE PUSH1 0x44 DUP5 ADD MSTORE GAS CALL SWAP1 DUP2 ISZERO PUSH2 0x847 JUMPI DUP10 SWAP5 DUP6 SWAP3 PUSH2 0x838 JUMPI JUMPDEST POP JUMPDEST ADD SWAP3 PUSH2 0x72D JUMP JUMPDEST PUSH2 0x841 SWAP1 PUSH2 0xFB0 JUMP JUMPDEST DUP11 PUSH2 0x82F JUMP JUMPDEST PUSH1 0x40 MLOAD RETURNDATASIZE PUSH1 0x0 DUP3 RETURNDATACOPY RETURNDATASIZE SWAP1 REVERT JUMPDEST POP PUSH1 0x96 PUSH2 0x7DB JUMP JUMPDEST SWAP5 DUP4 DUP10 SLOAD AND SWAP4 PUSH2 0x86B DUP3 DUP6 PUSH2 0x1300 JUMP JUMPDEST MLOAD AND DUP5 EXTCODESIZE ISZERO PUSH2 0x15E JUMPI PUSH1 0x0 SWAP5 PUSH1 0x64 DUP7 SWAP3 PUSH1 0x40 MLOAD SWAP8 DUP9 SWAP4 DUP5 SWAP3 PUSH4 0x167E950F PUSH1 0xE2 SHL DUP5 MSTORE PUSH1 0x4 DUP5 ADD MSTORE DUP2 PUSH1 0x24 DUP5 ADD MSTORE DUP2 PUSH1 0x44 DUP5 ADD MSTORE GAS CALL SWAP1 DUP2 ISZERO PUSH2 0x847 JUMPI DUP10 SWAP5 DUP6 SWAP3 PUSH2 0x8B6 JUMPI JUMPDEST POP PUSH2 0x831 JUMP JUMPDEST PUSH2 0x8BF SWAP1 PUSH2 0xFB0 JUMP JUMPDEST DUP11 PUSH2 0x8B0 JUMP JUMPDEST DUP3 SWAP5 POP PUSH2 0x732 JUMP JUMPDEST DUP7 SLOAD PUSH1 0x1 PUSH1 0x1 PUSH1 0xA0 SHL SUB AND DUP6 MSTORE SWAP6 DUP2 ADD SWAP6 DUP9 SWAP6 POP SWAP1 SWAP4 ADD SWAP3 ADD PUSH2 0x710 JUMP JUMPDEST CALLVALUE PUSH2 0x15E JUMPI PUSH1 0x0 CALLDATASIZE PUSH1 0x3 NOT ADD SLT PUSH2 0x15E JUMPI PUSH1 0x20 PUSH1 0x2 SLOAD PUSH1 0x40 MLOAD SWAP1 DUP2 MSTORE RETURN JUMPDEST CALLVALUE PUSH2 0x15E JUMPI PUSH1 0x20 CALLDATASIZE PUSH1 0x3 NOT ADD SLT PUSH2 0x15E JUMPI PUSH2 0x922 PUSH2 0x12BA JUMP JUMPDEST POP PUSH1 0x4 CALLDATALOAD PUSH1 0x0 MSTORE PUSH1 0x3 PUSH1 0x20 MSTORE PUSH2 0x952 PUSH2 0x93E PUSH1 0x40 PUSH1 0x0 KECCAK256 PUSH2 0x1320 JUMP JUMPDEST PUSH1 0x40 MLOAD SWAP2 DUP3 SWAP2 PUSH1 0x20 DUP4 MSTORE PUSH1 0x20 DUP4 ADD SWAP1 PUSH2 0x1114 JUMP JUMPDEST SUB SWAP1 RETURN JUMPDEST CALLVALUE PUSH2 0x15E JUMPI PUSH1 0x20 DUP1 PUSH1 0x3 NOT CALLDATASIZE ADD SLT PUSH2 0x15E JUMPI PUSH1 0x4 CALLDATALOAD PUSH1 0x0 PUSH1 0x2 SLOAD DUP1 JUMPDEST DUP1 ISZERO ISZERO DUP1 PUSH2 0xB0E JUMPI JUMPDEST ISZERO PUSH2 0x9D4 JUMPI DUP1 PUSH1 0x0 MSTORE PUSH1 0x3 DUP6 MSTORE PUSH1 0x40 PUSH1 0x0 KECCAK256 PUSH1 0xFF PUSH1 0x5 DUP3 ADD SLOAD AND ISZERO SWAP1 DUP2 PUSH2 0x9C6 JUMPI JUMPDEST POP PUSH2 0x9B1 JUMPI JUMPDEST PUSH2 0x9AC SWAP1 PUSH2 0x1295 JUMP JUMPDEST PUSH2 0x972 JUMP JUMPDEST SWAP2 PUSH2 0x9BE PUSH2 0x9AC SWAP2 PUSH2 0x1270 JUMP JUMPDEST SWAP3 SWAP1 POP PUSH2 0x9A3 JUMP JUMPDEST PUSH1 0x4 SWAP2 POP ADD SLOAD TIMESTAMP LT DUP7 PUSH2 0x99D JUMP JUMPDEST DUP5 DUP4 DUP4 PUSH2 0x9E0 DUP3 PUSH2 0x12A2 JUMP JUMPDEST SWAP1 PUSH2 0x9EE PUSH1 0x40 MLOAD SWAP3 DUP4 PUSH2 0xFE1 JUMP JUMPDEST DUP3 DUP3 MSTORE PUSH2 0x9FA DUP4 PUSH2 0x12A2 JUMP JUMPDEST PUSH1 0x1F NOT ADD DUP5 PUSH1 0x0 JUMPDEST DUP3 DUP2 LT PUSH2 0xAF8 JUMPI POP POP POP PUSH1 0x0 JUMPDEST DUP2 ISZERO ISZERO DUP1 PUSH2 0xAEF JUMPI JUMPDEST ISZERO PUSH2 0xA91 JUMPI DUP2 PUSH1 0x0 MSTORE PUSH1 0x3 DUP6 MSTORE PUSH1 0x40 PUSH1 0x0 KECCAK256 SWAP2 PUSH1 0xFF PUSH1 0x5 DUP5 ADD SLOAD AND ISZERO DUP1 PUSH2 0xA84 JUMPI JUMPDEST PUSH2 0xA50 JUMPI JUMPDEST PUSH2 0xA4A SWAP2 SWAP3 POP PUSH2 0x1295 JUMP JUMPDEST SWAP1 PUSH2 0xA0F JUMP JUMPDEST PUSH2 0xA7B DUP3 PUSH2 0xA6A PUSH2 0xA64 PUSH2 0xA4A SWAP6 SWAP3 PUSH2 0x1270 JUMP JUMPDEST SWAP6 PUSH2 0x1320 JUMP JUMPDEST PUSH2 0xA74 DUP3 DUP9 PUSH2 0x1300 JUMP JUMPDEST MSTORE DUP6 PUSH2 0x1300 JUMP JUMPDEST POP DUP3 SWAP2 POP PUSH2 0xA3F JUMP JUMPDEST POP PUSH1 0x4 DUP4 ADD SLOAD TIMESTAMP LT PUSH2 0xA3A JUMP JUMPDEST PUSH1 0x40 DUP1 MLOAD DUP7 DUP2 MSTORE DUP5 MLOAD DUP2 DUP9 ADD DUP2 SWAP1 MSTORE PUSH1 0x0 SWAP3 PUSH1 0x5 DUP3 SWAP1 SHL DUP4 ADD DUP2 ADD SWAP2 DUP8 DUP11 ADD SWAP2 DUP11 SWAP1 DUP6 ADD JUMPDEST DUP3 DUP8 LT PUSH2 0xAC3 JUMPI DUP6 DUP6 SUB DUP7 RETURN JUMPDEST SWAP1 SWAP2 SWAP3 SWAP4 DUP3 DUP1 PUSH2 0xADF PUSH1 0x1 SWAP4 PUSH1 0x3F NOT DUP11 DUP3 SUB ADD DUP7 MSTORE DUP9 MLOAD PUSH2 0x1114 JUMP JUMPDEST SWAP7 ADD SWAP3 ADD SWAP7 ADD SWAP6 SWAP3 SWAP2 SWAP1 SWAP3 PUSH2 0xAB6 JUMP JUMPDEST POP DUP4 DUP2 LT PUSH2 0xA18 JUMP JUMPDEST PUSH2 0xB00 PUSH2 0x12BA JUMP JUMPDEST DUP3 DUP3 DUP8 ADD ADD MSTORE ADD DUP6 SWAP1 PUSH2 0xA02 JUMP JUMPDEST POP DUP4 DUP4 LT PUSH2 0x97B JUMP JUMPDEST CALLVALUE PUSH2 0x15E JUMPI PUSH1 0x40 CALLDATASIZE PUSH1 0x3 NOT ADD SLT PUSH2 0x15E JUMPI PUSH2 0xB30 PUSH2 0xF44 JUMP JUMPDEST CALLER PUSH1 0x1 PUSH1 0x1 PUSH1 0xA0 SHL SUB DUP3 AND SUB PUSH2 0xB4C JUMPI PUSH2 0x24B SWAP1 PUSH1 0x4 CALLDATALOAD PUSH2 0x14BC JUMP JUMPDEST PUSH1 0x40 MLOAD PUSH4 0x334BD919 PUSH1 0xE1 SHL DUP2 MSTORE PUSH1 0x4 SWAP1 REVERT JUMPDEST CALLVALUE PUSH2 0x15E JUMPI PUSH1 0x40 CALLDATASIZE PUSH1 0x3 NOT ADD SLT PUSH2 0x15E JUMPI PUSH2 0x24B PUSH1 0x4 CALLDATALOAD PUSH2 0xB7D PUSH2 0xF44 JUMP JUMPDEST SWAP1 DUP1 PUSH1 0x0 MSTORE PUSH1 0x0 PUSH1 0x20 MSTORE PUSH2 0xB98 PUSH1 0x1 PUSH1 0x40 PUSH1 0x0 KECCAK256 ADD SLOAD PUSH2 0x1418 JUMP JUMPDEST PUSH2 0x143E JUMP JUMPDEST CALLVALUE PUSH2 0x15E JUMPI PUSH1 0x0 CALLDATASIZE PUSH1 0x3 NOT ADD SLT PUSH2 0x15E JUMPI PUSH1 0x1 SLOAD PUSH1 0x40 MLOAD PUSH1 0x1 PUSH1 0x1 PUSH1 0xA0 SHL SUB SWAP1 SWAP2 AND DUP2 MSTORE PUSH1 0x20 SWAP1 RETURN JUMPDEST CALLVALUE PUSH2 0x15E JUMPI PUSH1 0x20 CALLDATASIZE PUSH1 0x3 NOT ADD SLT PUSH2 0x15E JUMPI PUSH1 0x4 CALLDATALOAD PUSH1 0x0 MSTORE PUSH1 0x0 PUSH1 0x20 MSTORE PUSH1 0x20 PUSH1 0x1 PUSH1 0x40 PUSH1 0x0 KECCAK256 ADD SLOAD PUSH1 0x40 MLOAD SWAP1 DUP2 MSTORE RETURN JUMPDEST CALLVALUE PUSH2 0x15E JUMPI PUSH2 0xC03 CALLDATASIZE PUSH2 0x10F5 JUMP JUMPDEST SWAP1 DUP1 PUSH1 0x0 MSTORE PUSH1 0x20 SWAP2 PUSH1 0x3 DUP4 MSTORE PUSH1 0x40 PUSH1 0x0 KECCAK256 SWAP3 PUSH2 0xC21 DUP5 SLOAD ISZERO ISZERO PUSH2 0x11B7 JUMP JUMPDEST PUSH2 0xC32 PUSH1 0xFF PUSH1 0x5 DUP7 ADD SLOAD AND ISZERO PUSH2 0x11F5 JUMP JUMPDEST PUSH2 0xC41 PUSH1 0x4 DUP6 ADD SLOAD TIMESTAMP LT PUSH2 0x1234 JUMP JUMPDEST DUP3 PUSH1 0x0 MSTORE PUSH1 0x4 DUP2 MSTORE PUSH1 0x40 PUSH1 0x0 KECCAK256 CALLER PUSH1 0x0 MSTORE DUP2 MSTORE PUSH1 0xFF PUSH1 0x40 PUSH1 0x0 KECCAK256 SLOAD AND PUSH2 0xD6B JUMPI PUSH1 0x40 MLOAD SWAP4 PUSH2 0xC6E DUP6 PUSH2 0xF94 JUMP JUMPDEST PUSH1 0x1 DUP6 MSTORE PUSH2 0xCC8 DUP3 DUP7 ADD SWAP6 DUP5 ISZERO ISZERO SWAP7 DUP8 DUP2 MSTORE DUP7 PUSH1 0x0 MSTORE PUSH1 0x4 DUP6 MSTORE PUSH1 0x40 PUSH1 0x0 KECCAK256 CALLER PUSH1 0x0 MSTORE DUP6 MSTORE PUSH2 0xCB1 PUSH1 0x40 PUSH1 0x0 KECCAK256 SWAP3 MLOAD ISZERO ISZERO DUP4 SWAP1 PUSH1 0xFF DUP1 NOT DUP4 SLOAD AND SWAP2 ISZERO ISZERO AND OR SWAP1 SSTORE JUMP JUMPDEST MLOAD DUP2 SLOAD PUSH2 0xFF00 NOT AND SWAP1 ISZERO ISZERO PUSH1 0x8 SHL PUSH2 0xFF00 AND OR SWAP1 SSTORE JUMP JUMPDEST DUP4 PUSH1 0x0 MSTORE PUSH1 0x5 DUP3 MSTORE PUSH1 0x40 PUSH1 0x0 KECCAK256 SWAP3 DUP4 SLOAD SWAP4 PUSH9 0x10000000000000000 DUP6 LT ISZERO PUSH2 0x5B6 JUMPI DUP5 PUSH2 0xD1B SWAP2 PUSH1 0x1 PUSH32 0x7AE256270C354F1F830C52697713782CE51539E910D41781CBB063A49C42C0F9 SWAP8 ADD DUP2 SSTORE PUSH2 0x1189 JUMP JUMPDEST DUP2 SLOAD PUSH1 0x1 PUSH1 0x1 PUSH1 0xA0 SHL SUB PUSH1 0x3 SWAP3 SWAP1 SWAP3 SHL SWAP2 DUP3 SHL NOT AND CALLER SWAP1 SWAP2 SHL OR SWAP1 SSTORE ISZERO PUSH2 0xD57 JUMPI PUSH1 0x6 ADD PUSH2 0xD49 DUP2 SLOAD PUSH2 0x1270 JUMP JUMPDEST SWAP1 SSTORE JUMPDEST PUSH1 0x40 MLOAD SWAP4 DUP5 MSTORE CALLER SWAP4 LOG3 STOP JUMPDEST PUSH1 0x7 ADD PUSH2 0xD64 DUP2 SLOAD PUSH2 0x1270 JUMP JUMPDEST SWAP1 SSTORE PUSH2 0xD4C JUMP JUMPDEST PUSH1 0x64 SWAP1 PUSH1 0x40 MLOAD SWAP1 PUSH3 0x461BCD PUSH1 0xE5 SHL DUP3 MSTORE PUSH1 0x4 DUP3 ADD MSTORE PUSH1 0xD PUSH1 0x24 DUP3 ADD MSTORE PUSH13 0x105B1C9958591E481D9BDD1959 PUSH1 0x9A SHL PUSH1 0x44 DUP3 ADD MSTORE REVERT JUMPDEST CALLVALUE PUSH2 0x15E JUMPI PUSH1 0x0 CALLDATASIZE PUSH1 0x3 NOT ADD SLT PUSH2 0x15E JUMPI PUSH1 0x20 PUSH1 0x40 MLOAD PUSH1 0x64 DUP2 MSTORE RETURN JUMPDEST CALLVALUE PUSH2 0x15E JUMPI PUSH1 0x20 CALLDATASIZE PUSH1 0x3 NOT ADD SLT PUSH2 0x15E JUMPI PUSH1 0x4 CALLDATALOAD PUSH1 0x0 MSTORE PUSH1 0x3 PUSH1 0x20 MSTORE PUSH1 0x40 PUSH1 0x0 KECCAK256 DUP1 SLOAD PUSH2 0xDEA PUSH1 0x1 DUP4 ADD PUSH2 0x1003 JUMP JUMPDEST SWAP2 PUSH1 0xFF PUSH1 0x2 DUP3 ADD SLOAD AND SWAP1 PUSH1 0x3 DUP2 ADD SLOAD SWAP1 PUSH1 0xFF PUSH1 0x4 DUP3 ADD SLOAD PUSH1 0x5 DUP4 ADD SLOAD SWAP1 PUSH1 0x7 PUSH1 0x6 DUP6 ADD SLOAD SWAP5 ADD SLOAD SWAP5 PUSH2 0xE3D PUSH2 0xE32 PUSH1 0x40 MLOAD SWAP11 DUP12 SWAP11 PUSH2 0x120 SWAP1 DUP13 MSTORE DUP1 PUSH1 0x20 DUP14 ADD MSTORE DUP12 ADD SWAP1 PUSH2 0x10A8 JUMP JUMPDEST SWAP8 PUSH1 0x40 DUP11 ADD SWAP1 PUSH2 0x10E8 JUMP JUMPDEST PUSH1 0x60 DUP9 ADD MSTORE PUSH1 0x80 DUP8 ADD MSTORE DUP2 DUP2 AND ISZERO ISZERO PUSH1 0xA0 DUP8 ADD MSTORE PUSH1 0x8 SHR AND ISZERO ISZERO PUSH1 0xC0 DUP6 ADD MSTORE PUSH1 0xE0 DUP5 ADD MSTORE PUSH2 0x100 DUP4 ADD MSTORE SUB SWAP1 RETURN JUMPDEST CALLVALUE PUSH2 0x15E JUMPI PUSH1 0x40 CALLDATASIZE PUSH1 0x3 NOT ADD SLT PUSH2 0x15E JUMPI PUSH2 0xE84 PUSH2 0xF44 JUMP JUMPDEST PUSH1 0x0 PUSH1 0x20 PUSH1 0x40 MLOAD PUSH2 0xE94 DUP2 PUSH2 0xF94 JUMP JUMPDEST DUP3 DUP2 MSTORE ADD MSTORE PUSH1 0x4 CALLDATALOAD PUSH1 0x0 MSTORE PUSH1 0x4 PUSH1 0x20 MSTORE PUSH1 0x40 PUSH1 0x0 KECCAK256 SWAP1 PUSH1 0x1 DUP1 PUSH1 0xA0 SHL SUB AND PUSH1 0x0 MSTORE PUSH1 0x20 MSTORE PUSH1 0x40 DUP1 PUSH1 0x0 KECCAK256 DUP2 MLOAD SWAP1 PUSH2 0xECA DUP3 PUSH2 0xF94 JUMP JUMPDEST SLOAD PUSH1 0xFF PUSH1 0x20 DUP2 DUP4 AND ISZERO ISZERO SWAP4 DUP5 DUP2 MSTORE ADD SWAP2 PUSH1 0x8 SHR AND ISZERO ISZERO DUP2 MSTORE DUP3 MLOAD SWAP2 DUP3 MSTORE MLOAD ISZERO ISZERO PUSH1 0x20 DUP3 ADD MSTORE RETURN JUMPDEST CALLVALUE PUSH2 0x15E JUMPI PUSH1 0x20 CALLDATASIZE PUSH1 0x3 NOT ADD SLT PUSH2 0x15E JUMPI PUSH1 0x4 CALLDATALOAD SWAP1 PUSH4 0xFFFFFFFF PUSH1 0xE0 SHL DUP3 AND DUP1 SWAP3 SUB PUSH2 0x15E JUMPI PUSH1 0x20 SWAP2 PUSH4 0x7965DB0B PUSH1 0xE0 SHL DUP2 EQ SWAP1 DUP2 ISZERO PUSH2 0xF33 JUMPI JUMPDEST POP ISZERO ISZERO DUP2 MSTORE RETURN JUMPDEST PUSH4 0x1FFC9A7 PUSH1 0xE0 SHL EQ SWAP1 POP DUP4 PUSH2 0xF2C JUMP JUMPDEST PUSH1 0x24 CALLDATALOAD SWAP1 PUSH1 0x1 PUSH1 0x1 PUSH1 0xA0 SHL SUB DUP3 AND DUP3 SUB PUSH2 0x15E JUMPI JUMP JUMPDEST SWAP1 PUSH1 0x1 DUP3 DUP2 SHR SWAP3 AND DUP1 ISZERO PUSH2 0xF8A JUMPI JUMPDEST PUSH1 0x20 DUP4 LT EQ PUSH2 0xF74 JUMPI JUMP JUMPDEST PUSH4 0x4E487B71 PUSH1 0xE0 SHL PUSH1 0x0 MSTORE PUSH1 0x22 PUSH1 0x4 MSTORE PUSH1 0x24 PUSH1 0x0 REVERT JUMPDEST SWAP2 PUSH1 0x7F AND SWAP2 PUSH2 0xF69 JUMP JUMPDEST PUSH1 0x40 DUP2 ADD SWAP1 DUP2 LT PUSH8 0xFFFFFFFFFFFFFFFF DUP3 GT OR PUSH2 0x5B6 JUMPI PUSH1 0x40 MSTORE JUMP JUMPDEST PUSH8 0xFFFFFFFFFFFFFFFF DUP2 GT PUSH2 0x5B6 JUMPI PUSH1 0x40 MSTORE JUMP JUMPDEST PUSH2 0x120 DUP2 ADD SWAP1 DUP2 LT PUSH8 0xFFFFFFFFFFFFFFFF DUP3 GT OR PUSH2 0x5B6 JUMPI PUSH1 0x40 MSTORE JUMP JUMPDEST SWAP1 PUSH1 0x1F DUP1 NOT SWAP2 ADD AND DUP2 ADD SWAP1 DUP2 LT PUSH8 0xFFFFFFFFFFFFFFFF DUP3 GT OR PUSH2 0x5B6 JUMPI PUSH1 0x40 MSTORE JUMP JUMPDEST SWAP1 PUSH1 0x40 MLOAD SWAP2 DUP3 PUSH1 0x0 DUP3 SLOAD PUSH2 0x1016 DUP2 PUSH2 0xF5A JUMP JUMPDEST SWAP1 DUP2 DUP5 MSTORE PUSH1 0x20 SWAP5 PUSH1 0x1 SWAP2 PUSH1 0x1 DUP2 AND SWAP1 DUP2 PUSH1 0x0 EQ PUSH2 0x1086 JUMPI POP PUSH1 0x1 EQ PUSH2 0x1047 JUMPI JUMPDEST POP POP POP PUSH2 0x1045 SWAP3 POP SUB DUP4 PUSH2 0xFE1 JUMP JUMPDEST JUMP JUMPDEST PUSH1 0x0 SWAP1 DUP2 MSTORE DUP6 DUP2 KECCAK256 SWAP6 SWAP4 POP SWAP2 SWAP1 JUMPDEST DUP2 DUP4 LT PUSH2 0x106E JUMPI POP POP PUSH2 0x1045 SWAP4 POP DUP3 ADD ADD CODESIZE DUP1 DUP1 PUSH2 0x1036 JUMP JUMPDEST DUP6 SLOAD DUP9 DUP5 ADD DUP6 ADD MSTORE SWAP5 DUP6 ADD SWAP5 DUP8 SWAP5 POP SWAP2 DUP4 ADD SWAP2 PUSH2 0x1055 JUMP JUMPDEST SWAP3 POP POP POP PUSH2 0x1045 SWAP5 SWAP3 POP PUSH1 0xFF NOT AND DUP3 DUP5 ADD MSTORE ISZERO ISZERO PUSH1 0x5 SHL DUP3 ADD ADD CODESIZE DUP1 DUP1 PUSH2 0x1036 JUMP JUMPDEST SWAP2 SWAP1 DUP3 MLOAD SWAP3 DUP4 DUP3 MSTORE PUSH1 0x0 JUMPDEST DUP5 DUP2 LT PUSH2 0x10D4 JUMPI POP POP DUP3 PUSH1 0x0 PUSH1 0x20 DUP1 SWAP5 SWAP6 DUP5 ADD ADD MSTORE PUSH1 0x1F DUP1 NOT SWAP2 ADD AND ADD ADD SWAP1 JUMP JUMPDEST PUSH1 0x20 DUP2 DUP4 ADD DUP2 ADD MLOAD DUP5 DUP4 ADD DUP3 ADD MSTORE ADD PUSH2 0x10B3 JUMP JUMPDEST SWAP1 PUSH1 0x5 DUP3 LT ISZERO PUSH2 0x4E2 JUMPI MSTORE JUMP JUMPDEST PUSH1 0x40 SWAP1 PUSH1 0x3 NOT ADD SLT PUSH2 0x15E JUMPI PUSH1 0x4 CALLDATALOAD SWAP1 PUSH1 0x24 CALLDATALOAD DUP1 ISZERO ISZERO DUP2 SUB PUSH2 0x15E JUMPI SWAP1 JUMP JUMPDEST SWAP1 PUSH2 0x1133 PUSH2 0x120 DUP4 MLOAD DUP4 MSTORE PUSH1 0x20 DUP5 ADD MLOAD SWAP1 DUP1 PUSH1 0x20 DUP6 ADD MSTORE DUP4 ADD SWAP1 PUSH2 0x10A8 JUMP JUMPDEST SWAP2 PUSH2 0x1146 PUSH1 0x40 DUP3 ADD MLOAD PUSH1 0x40 DUP5 ADD SWAP1 PUSH2 0x10E8 JUMP JUMPDEST PUSH1 0x60 DUP2 ADD MLOAD PUSH1 0x60 DUP4 ADD MSTORE PUSH1 0x80 DUP2 ADD MLOAD PUSH1 0x80 DUP4 ADD MSTORE PUSH1 0xA0 DUP2 ADD MLOAD ISZERO ISZERO PUSH1 0xA0 DUP4 ADD MSTORE PUSH1 0xC0 DUP2 ADD MLOAD ISZERO ISZERO PUSH1 0xC0 DUP4 ADD MSTORE PUSH1 0xE0 DUP2 ADD MLOAD PUSH1 0xE0 DUP4 ADD MSTORE PUSH2 0x100 DUP1 SWAP2 ADD MLOAD SWAP2 ADD MSTORE SWAP1 JUMP JUMPDEST DUP1 SLOAD DUP3 LT ISZERO PUSH2 0x11A1 JUMPI PUSH1 0x0 MSTORE PUSH1 0x20 PUSH1 0x0 KECCAK256 ADD SWAP1 PUSH1 0x0 SWAP1 JUMP JUMPDEST PUSH4 0x4E487B71 PUSH1 0xE0 SHL PUSH1 0x0 MSTORE PUSH1 0x32 PUSH1 0x4 MSTORE PUSH1 0x24 PUSH1 0x0 REVERT JUMPDEST ISZERO PUSH2 0x11BE JUMPI JUMP JUMPDEST PUSH1 0x40 MLOAD PUSH3 0x461BCD PUSH1 0xE5 SHL DUP2 MSTORE PUSH1 0x20 PUSH1 0x4 DUP3 ADD MSTORE PUSH1 0xF PUSH1 0x24 DUP3 ADD MSTORE PUSH15 0x115D995B9D081B9BDD08199BDD5B99 PUSH1 0x8A SHL PUSH1 0x44 DUP3 ADD MSTORE PUSH1 0x64 SWAP1 REVERT JUMPDEST ISZERO PUSH2 0x11FC JUMPI JUMP JUMPDEST PUSH1 0x40 MLOAD PUSH3 0x461BCD PUSH1 0xE5 SHL DUP2 MSTORE PUSH1 0x20 PUSH1 0x4 DUP3 ADD MSTORE PUSH1 0x10 PUSH1 0x24 DUP3 ADD MSTORE PUSH16 0x105B1C9958591E481C995CDBDB1D9959 PUSH1 0x82 SHL PUSH1 0x44 DUP3 ADD MSTORE PUSH1 0x64 SWAP1 REVERT JUMPDEST ISZERO PUSH2 0x123B JUMPI JUMP JUMPDEST PUSH1 0x40 MLOAD PUSH3 0x461BCD PUSH1 0xE5 SHL DUP2 MSTORE PUSH1 0x20 PUSH1 0x4 DUP3 ADD MSTORE PUSH1 0xD PUSH1 0x24 DUP3 ADD MSTORE PUSH13 0x5061737420646561646C696E65 PUSH1 0x98 SHL PUSH1 0x44 DUP3 ADD MSTORE PUSH1 0x64 SWAP1 REVERT JUMPDEST PUSH1 0x0 NOT DUP2 EQ PUSH2 0x127F JUMPI PUSH1 0x1 ADD SWAP1 JUMP JUMPDEST PUSH4 0x4E487B71 PUSH1 0xE0 SHL PUSH1 0x0 MSTORE PUSH1 0x11 PUSH1 0x4 MSTORE PUSH1 0x24 PUSH1 0x0 REVERT JUMPDEST DUP1 ISZERO PUSH2 0x127F JUMPI PUSH1 0x0 NOT ADD SWAP1 JUMP JUMPDEST PUSH8 0xFFFFFFFFFFFFFFFF DUP2 GT PUSH2 0x5B6 JUMPI PUSH1 0x5 SHL PUSH1 0x20 ADD SWAP1 JUMP JUMPDEST PUSH1 0x40 MLOAD SWAP1 PUSH2 0x12C7 DUP3 PUSH2 0xFC4 JUMP JUMPDEST DUP2 PUSH2 0x100 PUSH1 0x0 SWAP2 DUP3 DUP2 MSTORE PUSH1 0x60 PUSH1 0x20 DUP3 ADD MSTORE DUP3 PUSH1 0x40 DUP3 ADD MSTORE DUP3 PUSH1 0x60 DUP3 ADD MSTORE DUP3 PUSH1 0x80 DUP3 ADD MSTORE DUP3 PUSH1 0xA0 DUP3 ADD MSTORE DUP3 PUSH1 0xC0 DUP3 ADD MSTORE DUP3 PUSH1 0xE0 DUP3 ADD MSTORE ADD MSTORE JUMP JUMPDEST DUP1 MLOAD DUP3 LT ISZERO PUSH2 0x11A1 JUMPI PUSH1 0x20 SWAP2 PUSH1 0x5 SHL ADD ADD SWAP1 JUMP JUMPDEST PUSH1 0x5 DUP3 LT ISZERO PUSH2 0x4E2 JUMPI MSTORE JUMP JUMPDEST SWAP1 PUSH1 0x40 MLOAD PUSH2 0x132D DUP2 PUSH2 0xFC4 JUMP JUMPDEST PUSH2 0x100 PUSH1 0x7 DUP3 SWAP5 DUP1 SLOAD DUP5 MSTORE PUSH2 0x1344 PUSH1 0x1 DUP3 ADD PUSH2 0x1003 JUMP JUMPDEST PUSH1 0x20 DUP6 ADD MSTORE PUSH2 0x135D PUSH1 0xFF PUSH1 0x2 DUP4 ADD SLOAD AND PUSH1 0x40 DUP7 ADD PUSH2 0x1314 JUMP JUMPDEST PUSH1 0x3 DUP2 ADD SLOAD PUSH1 0x60 DUP6 ADD MSTORE PUSH1 0x4 DUP2 ADD SLOAD PUSH1 0x80 DUP6 ADD MSTORE PUSH1 0xFF PUSH1 0x5 DUP3 ADD SLOAD DUP2 DUP2 AND ISZERO ISZERO PUSH1 0xA0 DUP8 ADD MSTORE PUSH1 0x8 SHR AND ISZERO ISZERO PUSH1 0xC0 DUP6 ADD MSTORE PUSH1 0x6 DUP2 ADD SLOAD PUSH1 0xE0 DUP6 ADD MSTORE ADD SLOAD SWAP2 ADD MSTORE JUMP JUMPDEST CALLER PUSH1 0x0 SWAP1 DUP2 MSTORE PUSH32 0xEE57CD81E84075558E8FCC182A1F4393F91FC97F963A136E66B7F949A62F319F PUSH1 0x20 MSTORE PUSH1 0x40 SWAP1 KECCAK256 SLOAD PUSH32 0x97667070C54EF182B0F5858B034BEAC1B6F3089AA2D3188BB1E8929F4FA9B929 SWAP1 PUSH1 0xFF AND ISZERO PUSH2 0x13FA JUMPI POP JUMP JUMPDEST PUSH1 0x44 SWAP1 PUSH1 0x40 MLOAD SWAP1 PUSH4 0xE2517D3F PUSH1 0xE0 SHL DUP3 MSTORE CALLER PUSH1 0x4 DUP4 ADD MSTORE PUSH1 0x24 DUP3 ADD MSTORE REVERT JUMPDEST DUP1 PUSH1 0x0 MSTORE PUSH1 0x0 PUSH1 0x20 MSTORE PUSH1 0x40 PUSH1 0x0 KECCAK256 CALLER PUSH1 0x0 MSTORE PUSH1 0x20 MSTORE PUSH1 0xFF PUSH1 0x40 PUSH1 0x0 KECCAK256 SLOAD AND ISZERO PUSH2 0x13FA JUMPI POP JUMP JUMPDEST SWAP1 PUSH1 0x0 SWAP2 DUP1 DUP4 MSTORE DUP3 PUSH1 0x20 MSTORE PUSH1 0x40 DUP4 KECCAK256 SWAP2 PUSH1 0x1 DUP1 PUSH1 0xA0 SHL SUB AND SWAP2 DUP3 DUP5 MSTORE PUSH1 0x20 MSTORE PUSH1 0xFF PUSH1 0x40 DUP5 KECCAK256 SLOAD AND ISZERO PUSH1 0x0 EQ PUSH2 0x14B7 JUMPI DUP1 DUP4 MSTORE DUP3 PUSH1 0x20 MSTORE PUSH1 0x40 DUP4 KECCAK256 DUP3 DUP5 MSTORE PUSH1 0x20 MSTORE PUSH1 0x40 DUP4 KECCAK256 PUSH1 0x1 PUSH1 0xFF NOT DUP3 SLOAD AND OR SWAP1 SSTORE PUSH32 0x2F8788117E7EFF1D82E926EC794901D17C78024A50270940304540A733656F0D CALLER SWAP4 DUP1 LOG4 PUSH1 0x1 SWAP1 JUMP JUMPDEST POP POP SWAP1 JUMP JUMPDEST SWAP1 PUSH1 0x0 SWAP2 DUP1 DUP4 MSTORE DUP3 PUSH1 0x20 MSTORE PUSH1 0x40 DUP4 KECCAK256 SWAP2 PUSH1 0x1 DUP1 PUSH1 0xA0 SHL SUB AND SWAP2 DUP3 DUP5 MSTORE PUSH1 0x20 MSTORE PUSH1 0xFF PUSH1 0x40 DUP5 KECCAK256 SLOAD AND PUSH1 0x0 EQ PUSH2 0x14B7 JUMPI DUP1 DUP4 MSTORE DUP3 PUSH1 0x20 MSTORE PUSH1 0x40 DUP4 KECCAK256 DUP3 DUP5 MSTORE PUSH1 0x20 MSTORE PUSH1 0x40 DUP4 KECCAK256 PUSH1 0xFF NOT DUP2 SLOAD AND SWAP1 SSTORE PUSH32 0xF6391F5C32D9C69D2A47EA670B442974B53935D1EDC7FD64EB21E047A839171B CALLER SWAP4 DUP1 LOG4 PUSH1 0x1 SWAP1 JUMP INVALID LOG2 PUSH5 0x6970667358 0x22 SLT KECCAK256 PUSH9 0xC2A123AFE6162EDD1A PUSH16 0x3216FD3AD3A6A9AD06960FBEEBA6503B LOG2 PUSH7 0x50DDFA64736F6C PUSH4 0x43000818 STOP CALLER 0x2F DUP8 DUP9 GT PUSH31 0x7EFF1D82E926EC794901D17C78024A50270940304540A733656F0D00000000 "},"methodIdentifiers":{"BEAT_AI_BONUS()":"19e1b308","CORRECT_BONUS()":"efd79b13","DEFAULT_ADMIN_ROLE()":"a217fddf","OPERATOR_ROLE()":"f5b541a6","createEvent(string,uint8,uint256,uint256)":"c2e93021","eventCount()":"71be2e4a","eventVoters(uint256,uint256)":"e0397fd1","events(uint256)":"0b791430","getActiveEvents(uint256)":"69bf402e","getEvent(uint256)":"6d1884e0","getRoleAdmin(bytes32)":"248a9ca3","getUserVote(uint256,address)":"03c7881a","grantRole(bytes32,address)":"2f2ff15d","hasRole(bytes32,address)":"91d14854","pointsContract()":"2b4f8a1f","renounceRole(bytes32,address)":"36568abe","resolveEvent(uint256,bool)":"915439fb","revokeRole(bytes32,address)":"d547741f","submitPrediction(uint256,bool)":"22a8f407","supportsInterface(bytes4)":"01ffc9a7","userVotes(uint256,address)":"fe5b3e3b"}}}}}