{
  "_format": "hh-sol-artifact-1",
  "contractName": "InsurancePool",
  "sourceName": "contracts/InsurancePool.sol",
  "abi": [
    {
      "inputs": [],
      "stateMutability": "nonpayable",
      "type": "constructor"
    },
    {
      "inputs": [],
      "name": "AccessControlBadConfirmation",
      "type": "error"
    },
    {
      "inputs": [
        {
          "internalType": "address",
          "name": "account",
          "type": "address"
        },
        {
          "internalType": "bytes32",
          "name": "neededRole",
          "type": "bytes32"
        }
      ],
      "name": "AccessControlUnauthorizedAccount",
      "type": "error"
    },
    {
      "inputs": [],
      "name": "ReentrancyGuardReentrantCall",
      "type": "error"
    },
    {
      "anonymous": false,
      "inputs": [
        {
          "indexed": true,
          "internalType": "uint256",
          "name": "claimId",
          "type": "uint256"
        },
        {
          "indexed": false,
          "internalType": "uint256",
          "name": "approvedAmount",
          "type": "uint256"
        }
      ],
      "name": "ClaimApproved",
      "type": "event"
    },
    {
      "anonymous": false,
      "inputs": [
        {
          "indexed": true,
          "internalType": "uint256",
          "name": "claimId",
          "type": "uint256"
        }
      ],
      "name": "ClaimDenied",
      "type": "event"
    },
    {
      "anonymous": false,
      "inputs": [
        {
          "indexed": true,
          "internalType": "uint256",
          "name": "claimId",
          "type": "uint256"
        },
        {
          "indexed": true,
          "internalType": "address",
          "name": "claimant",
          "type": "address"
        },
        {
          "indexed": false,
          "internalType": "uint256",
          "name": "eventId",
          "type": "uint256"
        },
        {
          "indexed": false,
          "internalType": "uint256",
          "name": "amount",
          "type": "uint256"
        }
      ],
      "name": "ClaimFiled",
      "type": "event"
    },
    {
      "anonymous": false,
      "inputs": [
        {
          "indexed": true,
          "internalType": "uint256",
          "name": "claimId",
          "type": "uint256"
        },
        {
          "indexed": true,
          "internalType": "address",
          "name": "claimant",
          "type": "address"
        },
        {
          "indexed": false,
          "internalType": "uint256",
          "name": "amount",
          "type": "uint256"
        }
      ],
      "name": "ClaimPaid",
      "type": "event"
    },
    {
      "anonymous": false,
      "inputs": [
        {
          "indexed": false,
          "internalType": "uint256",
          "name": "oldBps",
          "type": "uint256"
        },
        {
          "indexed": false,
          "internalType": "uint256",
          "name": "newBps",
          "type": "uint256"
        }
      ],
      "name": "MaxPayoutUpdated",
      "type": "event"
    },
    {
      "anonymous": false,
      "inputs": [
        {
          "indexed": true,
          "internalType": "address",
          "name": "funder",
          "type": "address"
        },
        {
          "indexed": false,
          "internalType": "uint256",
          "name": "amount",
          "type": "uint256"
        }
      ],
      "name": "PoolFunded",
      "type": "event"
    },
    {
      "anonymous": false,
      "inputs": [
        {
          "indexed": true,
          "internalType": "bytes32",
          "name": "role",
          "type": "bytes32"
        },
        {
          "indexed": true,
          "internalType": "bytes32",
          "name": "previousAdminRole",
          "type": "bytes32"
        },
        {
          "indexed": true,
          "internalType": "bytes32",
          "name": "newAdminRole",
          "type": "bytes32"
        }
      ],
      "name": "RoleAdminChanged",
      "type": "event"
    },
    {
      "anonymous": false,
      "inputs": [
        {
          "indexed": true,
          "internalType": "bytes32",
          "name": "role",
          "type": "bytes32"
        },
        {
          "indexed": true,
          "internalType": "address",
          "name": "account",
          "type": "address"
        },
        {
          "indexed": true,
          "internalType": "address",
          "name": "sender",
          "type": "address"
        }
      ],
      "name": "RoleGranted",
      "type": "event"
    },
    {
      "anonymous": false,
      "inputs": [
        {
          "indexed": true,
          "internalType": "bytes32",
          "name": "role",
          "type": "bytes32"
        },
        {
          "indexed": true,
          "internalType": "address",
          "name": "account",
          "type": "address"
        },
        {
          "indexed": true,
          "internalType": "address",
          "name": "sender",
          "type": "address"
        }
      ],
      "name": "RoleRevoked",
      "type": "event"
    },
    {
      "inputs": [],
      "name": "ARBITER_ROLE",
      "outputs": [
        {
          "internalType": "bytes32",
          "name": "",
          "type": "bytes32"
        }
      ],
      "stateMutability": "view",
      "type": "function"
    },
    {
      "inputs": [],
      "name": "DEFAULT_ADMIN_ROLE",
      "outputs": [
        {
          "internalType": "bytes32",
          "name": "",
          "type": "bytes32"
        }
      ],
      "stateMutability": "view",
      "type": "function"
    },
    {
      "inputs": [
        {
          "internalType": "uint256",
          "name": "claimId",
          "type": "uint256"
        },
        {
          "internalType": "uint256",
          "name": "approvedAmount",
          "type": "uint256"
        }
      ],
      "name": "approveClaim",
      "outputs": [],
      "stateMutability": "nonpayable",
      "type": "function"
    },
    {
      "inputs": [],
      "name": "claimCooldown",
      "outputs": [
        {
          "internalType": "uint256",
          "name": "",
          "type": "uint256"
        }
      ],
      "stateMutability": "view",
      "type": "function"
    },
    {
      "inputs": [],
      "name": "claimCount",
      "outputs": [
        {
          "internalType": "uint256",
          "name": "",
          "type": "uint256"
        }
      ],
      "stateMutability": "view",
      "type": "function"
    },
    {
      "inputs": [
        {
          "internalType": "uint256",
          "name": "claimId",
          "type": "uint256"
        }
      ],
      "name": "claimPayout",
      "outputs": [],
      "stateMutability": "nonpayable",
      "type": "function"
    },
    {
      "inputs": [
        {
          "internalType": "uint256",
          "name": "",
          "type": "uint256"
        }
      ],
      "name": "claims",
      "outputs": [
        {
          "internalType": "uint256",
          "name": "id",
          "type": "uint256"
        },
        {
          "internalType": "address",
          "name": "claimant",
          "type": "address"
        },
        {
          "internalType": "uint256",
          "name": "eventId",
          "type": "uint256"
        },
        {
          "internalType": "uint256",
          "name": "amount",
          "type": "uint256"
        },
        {
          "internalType": "uint256",
          "name": "approvedAmount",
          "type": "uint256"
        },
        {
          "internalType": "string",
          "name": "reason",
          "type": "string"
        },
        {
          "internalType": "enum InsurancePool.ClaimStatus",
          "name": "status",
          "type": "uint8"
        },
        {
          "internalType": "uint256",
          "name": "filedAt",
          "type": "uint256"
        },
        {
          "internalType": "uint256",
          "name": "resolvedAt",
          "type": "uint256"
        }
      ],
      "stateMutability": "view",
      "type": "function"
    },
    {
      "inputs": [
        {
          "internalType": "uint256",
          "name": "claimId",
          "type": "uint256"
        }
      ],
      "name": "denyClaim",
      "outputs": [],
      "stateMutability": "nonpayable",
      "type": "function"
    },
    {
      "inputs": [
        {
          "internalType": "address",
          "name": "to",
          "type": "address"
        }
      ],
      "name": "emergencyWithdraw",
      "outputs": [],
      "stateMutability": "nonpayable",
      "type": "function"
    },
    {
      "inputs": [
        {
          "internalType": "uint256",
          "name": "",
          "type": "uint256"
        }
      ],
      "name": "eventClaimCount",
      "outputs": [
        {
          "internalType": "uint256",
          "name": "",
          "type": "uint256"
        }
      ],
      "stateMutability": "view",
      "type": "function"
    },
    {
      "inputs": [
        {
          "internalType": "uint256",
          "name": "eventId",
          "type": "uint256"
        },
        {
          "internalType": "uint256",
          "name": "requestedAmount",
          "type": "uint256"
        },
        {
          "internalType": "string",
          "name": "reason",
          "type": "string"
        }
      ],
      "name": "fileClaim",
      "outputs": [
        {
          "internalType": "uint256",
          "name": "",
          "type": "uint256"
        }
      ],
      "stateMutability": "nonpayable",
      "type": "function"
    },
    {
      "inputs": [],
      "name": "fund",
      "outputs": [],
      "stateMutability": "payable",
      "type": "function"
    },
    {
      "inputs": [
        {
          "internalType": "uint256",
          "name": "claimId",
          "type": "uint256"
        }
      ],
      "name": "getClaim",
      "outputs": [
        {
          "components": [
            {
              "internalType": "uint256",
              "name": "id",
              "type": "uint256"
            },
            {
              "internalType": "address",
              "name": "claimant",
              "type": "address"
            },
            {
              "internalType": "uint256",
              "name": "eventId",
              "type": "uint256"
            },
            {
              "internalType": "uint256",
              "name": "amount",
              "type": "uint256"
            },
            {
              "internalType": "uint256",
              "name": "approvedAmount",
              "type": "uint256"
            },
            {
              "internalType": "string",
              "name": "reason",
              "type": "string"
            },
            {
              "internalType": "enum InsurancePool.ClaimStatus",
              "name": "status",
              "type": "uint8"
            },
            {
              "internalType": "uint256",
              "name": "filedAt",
              "type": "uint256"
            },
            {
              "internalType": "uint256",
              "name": "resolvedAt",
              "type": "uint256"
            }
          ],
          "internalType": "struct InsurancePool.Claim",
          "name": "",
          "type": "tuple"
        }
      ],
      "stateMutability": "view",
      "type": "function"
    },
    {
      "inputs": [],
      "name": "getPoolBalance",
      "outputs": [
        {
          "internalType": "uint256",
          "name": "",
          "type": "uint256"
        }
      ],
      "stateMutability": "view",
      "type": "function"
    },
    {
      "inputs": [],
      "name": "getPoolStats",
      "outputs": [
        {
          "internalType": "uint256",
          "name": "balance",
          "type": "uint256"
        },
        {
          "internalType": "uint256",
          "name": "totalClaims",
          "type": "uint256"
        },
        {
          "internalType": "uint256",
          "name": "paid",
          "type": "uint256"
        },
        {
          "internalType": "uint256",
          "name": "maxSinglePayout",
          "type": "uint256"
        }
      ],
      "stateMutability": "view",
      "type": "function"
    },
    {
      "inputs": [
        {
          "internalType": "bytes32",
          "name": "role",
          "type": "bytes32"
        }
      ],
      "name": "getRoleAdmin",
      "outputs": [
        {
          "internalType": "bytes32",
          "name": "",
          "type": "bytes32"
        }
      ],
      "stateMutability": "view",
      "type": "function"
    },
    {
      "inputs": [
        {
          "internalType": "address",
          "name": "user",
          "type": "address"
        }
      ],
      "name": "getUserClaims",
      "outputs": [
        {
          "internalType": "uint256[]",
          "name": "",
          "type": "uint256[]"
        }
      ],
      "stateMutability": "view",
      "type": "function"
    },
    {
      "inputs": [
        {
          "internalType": "bytes32",
          "name": "role",
          "type": "bytes32"
        },
        {
          "internalType": "address",
          "name": "account",
          "type": "address"
        }
      ],
      "name": "grantRole",
      "outputs": [],
      "stateMutability": "nonpayable",
      "type": "function"
    },
    {
      "inputs": [
        {
          "internalType": "bytes32",
          "name": "role",
          "type": "bytes32"
        },
        {
          "internalType": "address",
          "name": "account",
          "type": "address"
        }
      ],
      "name": "hasRole",
      "outputs": [
        {
          "internalType": "bool",
          "name": "",
          "type": "bool"
        }
      ],
      "stateMutability": "view",
      "type": "function"
    },
    {
      "inputs": [
        {
          "internalType": "address",
          "name": "",
          "type": "address"
        }
      ],
      "name": "lastClaimAt",
      "outputs": [
        {
          "internalType": "uint256",
          "name": "",
          "type": "uint256"
        }
      ],
      "stateMutability": "view",
      "type": "function"
    },
    {
      "inputs": [],
      "name": "maxPayoutBps",
      "outputs": [
        {
          "internalType": "uint256",
          "name": "",
          "type": "uint256"
        }
      ],
      "stateMutability": "view",
      "type": "function"
    },
    {
      "inputs": [
        {
          "internalType": "bytes32",
          "name": "role",
          "type": "bytes32"
        },
        {
          "internalType": "address",
          "name": "callerConfirmation",
          "type": "address"
        }
      ],
      "name": "renounceRole",
      "outputs": [],
      "stateMutability": "nonpayable",
      "type": "function"
    },
    {
      "inputs": [
        {
          "internalType": "bytes32",
          "name": "role",
          "type": "bytes32"
        },
        {
          "internalType": "address",
          "name": "account",
          "type": "address"
        }
      ],
      "name": "revokeRole",
      "outputs": [],
      "stateMutability": "nonpayable",
      "type": "function"
    },
    {
      "inputs": [
        {
          "internalType": "uint256",
          "name": "seconds_",
          "type": "uint256"
        }
      ],
      "name": "setClaimCooldown",
      "outputs": [],
      "stateMutability": "nonpayable",
      "type": "function"
    },
    {
      "inputs": [
        {
          "internalType": "uint256",
          "name": "newBps",
          "type": "uint256"
        }
      ],
      "name": "setMaxPayout",
      "outputs": [],
      "stateMutability": "nonpayable",
      "type": "function"
    },
    {
      "inputs": [
        {
          "internalType": "bytes4",
          "name": "interfaceId",
          "type": "bytes4"
        }
      ],
      "name": "supportsInterface",
      "outputs": [
        {
          "internalType": "bool",
          "name": "",
          "type": "bool"
        }
      ],
      "stateMutability": "view",
      "type": "function"
    },
    {
      "inputs": [],
      "name": "totalPaidOut",
      "outputs": [
        {
          "internalType": "uint256",
          "name": "",
          "type": "uint256"
        }
      ],
      "stateMutability": "view",
      "type": "function"
    },
    {
      "inputs": [
        {
          "internalType": "address",
          "name": "",
          "type": "address"
        },
        {
          "internalType": "uint256",
          "name": "",
          "type": "uint256"
        }
      ],
      "name": "userClaims",
      "outputs": [
        {
          "internalType": "uint256",
          "name": "",
          "type": "uint256"
        }
      ],
      "stateMutability": "view",
      "type": "function"
    },
    {
      "stateMutability": "payable",
      "type": "receive"
    }
  ],
  "bytecode": "0x60806040523461003d57600180556103e86004556201518060055561002333610042565b5061002d336100c0565b5060405161175090816101618239f35b600080fd5b6001600160a01b031660008181527fad3228b676f7d3cd4284a5443f17f1962b36e491b30a40b2405849e597ba5fb5602052604081205490919060ff166100bc57818052816020526040822081835260205260408220600160ff1982541617905533916000805160206118b18339815191528180a4600190565b5090565b6001600160a01b031660008181527f89777fffb7045c97177d1161cd08d871365cb73d0b18f242761255a7718434cf60205260408120549091907fbb08418a67729a078f87bbc8d02a770929bb68f5bfdf134ae2ead6ed38e2f4ae9060ff1661015b57808352826020526040832082845260205260408320600160ff198254161790556000805160206118b1833981519152339380a4600190565b50509056fe6080806040526004361015610049575b50361561001b57600080fd5b6040513481527f32173d8e51cec3a6fe484b7a1c3febe760cdf96e03d4cca36a43563a4333e83860203392a2005b60003560e01c90816301ffc9a7146111cb5750806303822d3b146111915780631357e1dc14611173578063248a9ca3146111445780632eaa830f146111185780632f2ff15d146110d957806336568abe146110925780634d104adf1461105757806356b4997f14610fae57806359c9eb9014610f535780635aef244714610df55780636ff1c9bc14610d365780637bcb4a6414610c825780637fbe658c14610b4657806384ac35eb14610abc5780638a69614e146109275780638da4d3c91461090957806391d14854146108bc578063a217fddf146108a0578063a3a5dcf6146103e8578063a888c2cd14610336578063abd70aa21461031a578063b60d4288146102a6578063bbb8518814610264578063bdcf175314610246578063ca9748ea146101ee578063d547741f146101ad5763fdea36571461018a573861000f565b346101a85760003660031901126101a8576020600554604051908152f35b600080fd5b346101a85760403660031901126101a8576101ec6004356101cc611234565b908060005260006020526101e76001604060002001546115de565b611682565b005b346101a85760403660031901126101a85761020761121e565b6001600160a01b03166000908152600860205260409020805460243591908210156101a857602091610238916113b5565b90546040519160031b1c8152f35b346101a85760003660031901126101a8576020600454604051908152f35b346101a85760003660031901126101a85760804760025460035461271061028d600454856114e5565b0491604051938452602084015260408301526060820152f35b60003660031901126101a85734156102e6576040513481527f32173d8e51cec3a6fe484b7a1c3febe760cdf96e03d4cca36a43563a4333e83860203392a2005b60405162461bcd60e51b815260206004820152600c60248201526b16995c9bc819195c1bdcda5d60a21b6044820152606490fd5b346101a85760003660031901126101a857602047604051908152f35b346101a85760203660031901126101a85760043560005260066020526040600020805460018060a01b03600183015416906002830154926003810154906103d96103ce60048301549461038b60058501611310565b9060ff6006860154169660086007870154960154966040519a8b9a610120948c5260208c015260408b015260608a015260808901528060a089015287019061124a565b9360c086019061128a565b60e08401526101008301520390f35b346101a85760603660031901126101a85767ffffffffffffffff604435116101a8573660236044350112156101a85767ffffffffffffffff60443560040135116101a857366024604435600401356044350101116101a8576024351561086d57600a60443560040135118061085b575b15610825573360005260076020526104786040600020546005549061150e565b42106107e85761271061048e47600454906114e5565b04602435116107ae576104a260025461151b565b80600255604051906104b3826112d1565b808252336020830152604082019060043582526060830160243581526080840190600082526104e7604435600401356113e3565b926104f560405194856112ee565b604435600481013580865290602401602086013760006020604435600401358601015260a08601938452600060c08701524260e087015260006101008701526000526006602052604060002093855185556001850160018060a01b036020880151166bffffffffffffffffffffffff60a01b8254161790555160028501555160038401555160048301555191825167ffffffffffffffff81116106c45761059f6005840154611297565b601f8111610767575b506020601f82116001146106fb57819293946000926106f0575b50508160011b916000199060031b1c19161760058301555b60c0810151600683019160048210156106da576008926101009260ff8019835416911617905560e0810151600785015501519101553360005260076020524260406000205560086020526040600020600254908054680100000000000000008110156106c45761064f916001820181556113b5565b819291549060031b91821b91600019901b19161790556004356000526009602052604060002061067f815461151b565b90556020600254604051600435815260243583820152817fe3f58f3fb0d7e1dd91fa339fde7f9bb42c07671ba573351a9ee9c4621e50981f60403393a3604051908152f35b634e487b7160e01b600052604160045260246000fd5b634e487b7160e01b600052602160045260246000fd5b0151905084806105c2565b601f198216906005850160005260206000209160005b81811061074f57509583600195969710610736575b505050811b0160058301556105da565b015160001960f88460031b161c19169055848080610726565b9192602060018192868b015181550194019201610711565b600584016000526020600020601f830160051c8101602084106107a7575b601f830160051c8201811061079b5750506105a8565b60008155600101610785565b5080610785565b60405162461bcd60e51b8152602060048201526012602482015271115e18d959591cc81b585e081c185e5bdd5d60721b6044820152606490fd5b60405162461bcd60e51b8152602060048201526015602482015274436c61696d20636f6f6c646f776e2061637469766560581b6044820152606490fd5b60405162461bcd60e51b815260206004820152600e60248201526d24b73b30b634b2103932b0b9b7b760911b6044820152606490fd5b506101f4604435600401351115610458565b60405162461bcd60e51b815260206004820152600b60248201526a16995c9bc8185b5bdd5b9d60aa1b6044820152606490fd5b346101a85760003660031901126101a857602060405160008152f35b346101a85760403660031901126101a8576108d5611234565b600435600052600060205260406000209060018060a01b0316600052602052602060ff604060002054166040519015158152f35b346101a85760003660031901126101a8576020600254604051908152f35b346101a8576020806003193601126101a857600435906109456116f7565b816000526006815260406000209161095f8354151561146d565b600683019182549260ff841660048110156106da57600103610a88576001850180546001600160a01b03929083163303610a54576004479701958654809810610a0f57966109dc9160037faf3c8fdd75d667f71d36d7840b8ef9086c516c9b047ad6a83a5a66151342123a97989960ff191617905560035461150e565b6003556109fe6000808080868654168b54905af16109f86113ff565b5061142f565b54169354604051908152a360018055005b60405162461bcd60e51b815260048101869052601960248201527f496e73756666696369656e7420706f6f6c2062616c616e6365000000000000006044820152606490fd5b60405162461bcd60e51b815260048101859052600c60248201526b139bdd0818db185a5b585b9d60a21b6044820152606490fd5b60405162461bcd60e51b815260048101839052600c60248201526b139bdd08185c1c1c9bdd995960a21b6044820152606490fd5b346101a85760203660031901126101a857600435610ad8611582565b8060005260066020526040600020610af28154151561146d565b60068101805460ff81169060048210156106da57610b12600292156114ab565b60ff19161790556008429101557f2855af5d2357d4c3ccb4ee7c6848d4dc7d6c0ca5bff9d8d1338fca3d12508283600080a2005b346101a85760403660031901126101a857600435602435610b65611582565b8160005260066020526040600020610b7f8154151561146d565b600681019182549160ff831660048110156106da57610b9e90156114ab565b81151580610c74575b15610c3e57612710610bbc47600454906114e5565b048211610c06577f638d892b8630b775fea5d7a52b209e8bfa1d90c32b57cd37208ac84d4bcd6dcb93600160209484600485015560ff1916179055600842910155604051908152a2005b60405162461bcd60e51b815260206004820152601060248201526f04578636565647320706f6f6c206361760841b6044820152606490fd5b60405162461bcd60e51b815260206004820152600e60248201526d125b9d985b1a5908185b5bdd5b9d60921b6044820152606490fd5b506003810154821115610ba7565b346101a8576020806003193601126101a8576001600160a01b03610ca461121e565b1660005260088152604060002060405190818382549182815201908192600052846000209060005b86828210610d22578686610ce2828803836112ee565b604051928392818401908285525180915260408401929160005b828110610d0b57505050500390f35b835185528695509381019392810192600101610cfc565b835485529093019260019283019201610ccc565b346101a85760203660031901126101a857610d4f61121e565b610d5761152a565b610d5f6116f7565b6001600160a01b03168015610dc157478015610d8f57600080808093610d89955af16109f86113ff565b60018055005b60405162461bcd60e51b815260206004820152600a602482015269115b5c1d1e481c1bdbdb60b21b6044820152606490fd5b60405162461bcd60e51b815260206004820152600c60248201526b5a65726f206164647265737360a01b6044820152606490fd5b346101a8576020806003193601126101a857604051610e13816112d1565b60008152600082820152600060408201526000606082015260006080820152606060a0820152600060c0820152600060e08201526000610100809201526004356000526006825260406000209060405191610e6d836112d1565b8054835260018101546001600160a01b039081168585019081526002830154604086019081526003840154606087019081526004850154608088019081529395929390610ebc60058701611310565b9260a0890193845260ff6006880154169760c08a019860048110156106da578952600860078901549860e08c01998a52015496868b019788526040519b8c9b818d5251908c0152511660408a01525160608901525160808801525160a08701525192610f45610f39610120958660c08a015261014089019061124a565b955160e088019061128a565b519085015251908301520390f35b346101a85760203660031901126101a857600435610f6f61152a565b62093a808111610f7e57600555005b60405162461bcd60e51b8152602060048201526008602482015267546f6f206c6f6e6760c01b6044820152606490fd5b346101a85760203660031901126101a857600435610fca61152a565b8015158061104b575b156110115760407fcab0379fabd718019d5e043cd7f965fca91e9443ce6ebaeb4d3bde5a6ea9a48391600454908060045582519182526020820152a1005b60405162461bcd60e51b8152602060048201526012602482015271125b9d985b1a59081b585e081c185e5bdd5d60721b6044820152606490fd5b50611388811115610fd3565b346101a85760003660031901126101a85760206040517fbb08418a67729a078f87bbc8d02a770929bb68f5bfdf134ae2ead6ed38e2f4ae8152f35b346101a85760403660031901126101a8576110ab611234565b336001600160a01b038216036110c7576101ec90600435611682565b60405163334bd91960e11b8152600490fd5b346101a85760403660031901126101a8576101ec6004356110f8611234565b908060005260006020526111136001604060002001546115de565b611604565b346101a85760203660031901126101a85760043560005260096020526020604060002054604051908152f35b346101a85760203660031901126101a85760043560005260006020526020600160406000200154604051908152f35b346101a85760003660031901126101a8576020600354604051908152f35b346101a85760203660031901126101a8576001600160a01b036111b261121e565b1660005260076020526020604060002054604051908152f35b346101a85760203660031901126101a8576004359063ffffffff60e01b82168092036101a857602091637965db0b60e01b811490811561120d575b5015158152f35b6301ffc9a760e01b14905083611206565b600435906001600160a01b03821682036101a857565b602435906001600160a01b03821682036101a857565b919082519283825260005b848110611276575050826000602080949584010152601f8019910116010190565b602081830181015184830182015201611255565b9060048210156106da5752565b90600182811c921680156112c7575b60208310146112b157565b634e487b7160e01b600052602260045260246000fd5b91607f16916112a6565b610120810190811067ffffffffffffffff8211176106c457604052565b90601f8019910116810190811067ffffffffffffffff8211176106c457604052565b9060405191826000825461132381611297565b908184526020946001916001811690816000146113935750600114611354575b505050611352925003836112ee565b565b600090815285812095935091905b81831061137b5750506113529350820101388080611343565b85548884018501529485019487945091830191611362565b9250505061135294925060ff191682840152151560051b820101388080611343565b80548210156113cd5760005260206000200190600090565b634e487b7160e01b600052603260045260246000fd5b67ffffffffffffffff81116106c457601f01601f191660200190565b3d1561142a573d90611410826113e3565b9161141e60405193846112ee565b82523d6000602084013e565b606090565b1561143657565b60405162461bcd60e51b815260206004820152600f60248201526e151c985b9cd9995c8819985a5b1959608a1b6044820152606490fd5b1561147457565b60405162461bcd60e51b815260206004820152600f60248201526e10db185a5b481b9bdd08199bdd5b99608a1b6044820152606490fd5b156114b257565b60405162461bcd60e51b815260206004820152600b60248201526a4e6f742070656e64696e6760a81b6044820152606490fd5b818102929181159184041417156114f857565b634e487b7160e01b600052601160045260246000fd5b919082018092116114f857565b60001981146114f85760010190565b3360009081527fad3228b676f7d3cd4284a5443f17f1962b36e491b30a40b2405849e597ba5fb5602052604081205460ff16156115645750565b6044906040519063e2517d3f60e01b82523360048301526024820152fd5b3360009081527f89777fffb7045c97177d1161cd08d871365cb73d0b18f242761255a7718434cf60205260409020547fbb08418a67729a078f87bbc8d02a770929bb68f5bfdf134ae2ead6ed38e2f4ae9060ff16156115645750565b80600052600060205260406000203360005260205260ff60406000205416156115645750565b9060009180835282602052604083209160018060a01b03169182845260205260ff6040842054161560001461167d57808352826020526040832082845260205260408320600160ff198254161790557f2f8788117e7eff1d82e926ec794901d17c78024a50270940304540a733656f0d339380a4600190565b505090565b9060009180835282602052604083209160018060a01b03169182845260205260ff60408420541660001461167d5780835282602052604083208284526020526040832060ff1981541690557ff6391f5c32d9c69d2a47ea670b442974b53935d1edc7fd64eb21e047a839171b339380a4600190565b600260015414611708576002600155565b604051633ee5aeb560e01b8152600490fdfea26469706673582212207682b32bb09f63238575cb137d35602ed3343c1e4420361c7a851a72145e450564736f6c634300081800332f8788117e7eff1d82e926ec794901d17c78024a50270940304540a733656f0d",
  "linkReferences": {},
  "deployedLinkReferences": {}
}