{
  "_format": "hh-sol-artifact-1",
  "contractName": "Prediction",
  "sourceName": "contracts/Prediction.sol",
  "abi": [
    {
      "inputs": [
        {
          "internalType": "address",
          "name": "_points",
          "type": "address"
        },
        {
          "internalType": "address",
          "name": "_treasury",
          "type": "address"
        },
        {
          "internalType": "address",
          "name": "_prizePool",
          "type": "address"
        },
        {
          "internalType": "address",
          "name": "_referralContract",
          "type": "address"
        },
        {
          "internalType": "address",
          "name": "_burnReserve",
          "type": "address"
        },
        {
          "internalType": "address",
          "name": "_stakingRewards",
          "type": "address"
        }
      ],
      "stateMutability": "nonpayable",
      "type": "constructor"
    },
    {
      "inputs": [],
      "name": "AccessControlBadConfirmation",
      "type": "error"
    },
    {
      "inputs": [
        {
          "internalType": "address",
          "name": "account",
          "type": "address"
        },
        {
          "internalType": "bytes32",
          "name": "neededRole",
          "type": "bytes32"
        }
      ],
      "name": "AccessControlUnauthorizedAccount",
      "type": "error"
    },
    {
      "inputs": [],
      "name": "EnforcedPause",
      "type": "error"
    },
    {
      "inputs": [],
      "name": "ExpectedPause",
      "type": "error"
    },
    {
      "inputs": [],
      "name": "ReentrancyGuardReentrantCall",
      "type": "error"
    },
    {
      "anonymous": false,
      "inputs": [
        {
          "indexed": true,
          "internalType": "uint256",
          "name": "eventId",
          "type": "uint256"
        },
        {
          "indexed": true,
          "internalType": "address",
          "name": "creator",
          "type": "address"
        },
        {
          "indexed": false,
          "internalType": "uint256",
          "name": "amount",
          "type": "uint256"
        }
      ],
      "name": "CreatorRewardsAccrued",
      "type": "event"
    },
    {
      "anonymous": false,
      "inputs": [
        {
          "indexed": true,
          "internalType": "address",
          "name": "creator",
          "type": "address"
        },
        {
          "indexed": false,
          "internalType": "uint256",
          "name": "amount",
          "type": "uint256"
        }
      ],
      "name": "CreatorRewardsClaimed",
      "type": "event"
    },
    {
      "anonymous": false,
      "inputs": [
        {
          "indexed": true,
          "internalType": "uint256",
          "name": "eventId",
          "type": "uint256"
        },
        {
          "indexed": true,
          "internalType": "address",
          "name": "creator",
          "type": "address"
        },
        {
          "indexed": false,
          "internalType": "uint256",
          "name": "amount",
          "type": "uint256"
        },
        {
          "indexed": false,
          "internalType": "string",
          "name": "reason",
          "type": "string"
        }
      ],
      "name": "CreatorRewardsRedirected",
      "type": "event"
    },
    {
      "anonymous": false,
      "inputs": [
        {
          "indexed": true,
          "internalType": "uint256",
          "name": "id",
          "type": "uint256"
        },
        {
          "indexed": false,
          "internalType": "string",
          "name": "title",
          "type": "string"
        },
        {
          "indexed": false,
          "internalType": "enum Prediction.Category",
          "name": "category",
          "type": "uint8"
        },
        {
          "indexed": false,
          "internalType": "uint256",
          "name": "deadline",
          "type": "uint256"
        }
      ],
      "name": "EventCreated",
      "type": "event"
    },
    {
      "anonymous": false,
      "inputs": [
        {
          "indexed": true,
          "internalType": "uint256",
          "name": "id",
          "type": "uint256"
        },
        {
          "indexed": false,
          "internalType": "uint256",
          "name": "from",
          "type": "uint256"
        },
        {
          "indexed": false,
          "internalType": "uint256",
          "name": "to",
          "type": "uint256"
        },
        {
          "indexed": false,
          "internalType": "uint256",
          "name": "total",
          "type": "uint256"
        }
      ],
      "name": "EventResolutionProgress",
      "type": "event"
    },
    {
      "anonymous": false,
      "inputs": [
        {
          "indexed": true,
          "internalType": "uint256",
          "name": "id",
          "type": "uint256"
        },
        {
          "indexed": false,
          "internalType": "bool",
          "name": "outcome",
          "type": "bool"
        },
        {
          "indexed": false,
          "internalType": "uint256",
          "name": "voters",
          "type": "uint256"
        }
      ],
      "name": "EventResolutionStarted",
      "type": "event"
    },
    {
      "anonymous": false,
      "inputs": [
        {
          "indexed": true,
          "internalType": "uint256",
          "name": "id",
          "type": "uint256"
        },
        {
          "indexed": false,
          "internalType": "bool",
          "name": "outcome",
          "type": "bool"
        },
        {
          "indexed": false,
          "internalType": "uint256",
          "name": "winnersCount",
          "type": "uint256"
        }
      ],
      "name": "EventResolved",
      "type": "event"
    },
    {
      "anonymous": false,
      "inputs": [
        {
          "indexed": false,
          "internalType": "uint256",
          "name": "voteFee",
          "type": "uint256"
        },
        {
          "indexed": false,
          "internalType": "uint16",
          "name": "creatorShareBps",
          "type": "uint16"
        },
        {
          "indexed": false,
          "internalType": "uint256",
          "name": "minCreatorPayoutVotes",
          "type": "uint256"
        }
      ],
      "name": "FeeConfigUpdated",
      "type": "event"
    },
    {
      "anonymous": false,
      "inputs": [
        {
          "indexed": false,
          "internalType": "address",
          "name": "prizePool",
          "type": "address"
        },
        {
          "indexed": false,
          "internalType": "address",
          "name": "treasury",
          "type": "address"
        },
        {
          "indexed": false,
          "internalType": "address",
          "name": "referralContract",
          "type": "address"
        },
        {
          "indexed": false,
          "internalType": "address",
          "name": "burnReserve",
          "type": "address"
        },
        {
          "indexed": false,
          "internalType": "address",
          "name": "stakingRewards",
          "type": "address"
        }
      ],
      "name": "FeeReceiversUpdated",
      "type": "event"
    },
    {
      "anonymous": false,
      "inputs": [
        {
          "indexed": false,
          "internalType": "address",
          "name": "account",
          "type": "address"
        }
      ],
      "name": "Paused",
      "type": "event"
    },
    {
      "anonymous": false,
      "inputs": [
        {
          "indexed": false,
          "internalType": "uint256",
          "name": "distributedAmount",
          "type": "uint256"
        },
        {
          "indexed": false,
          "internalType": "uint256",
          "name": "prize",
          "type": "uint256"
        },
        {
          "indexed": false,
          "internalType": "uint256",
          "name": "treasury",
          "type": "uint256"
        },
        {
          "indexed": false,
          "internalType": "uint256",
          "name": "referralFallback",
          "type": "uint256"
        },
        {
          "indexed": false,
          "internalType": "uint256",
          "name": "burn",
          "type": "uint256"
        },
        {
          "indexed": false,
          "internalType": "uint256",
          "name": "staking",
          "type": "uint256"
        }
      ],
      "name": "ProtocolFeesDistributed",
      "type": "event"
    },
    {
      "anonymous": false,
      "inputs": [
        {
          "indexed": false,
          "internalType": "uint256",
          "name": "pendingAmount",
          "type": "uint256"
        },
        {
          "indexed": false,
          "internalType": "uint256",
          "name": "nextAt",
          "type": "uint256"
        }
      ],
      "name": "ProtocolFeesDistributionScheduled",
      "type": "event"
    },
    {
      "anonymous": false,
      "inputs": [
        {
          "indexed": true,
          "internalType": "bytes32",
          "name": "role",
          "type": "bytes32"
        },
        {
          "indexed": true,
          "internalType": "bytes32",
          "name": "previousAdminRole",
          "type": "bytes32"
        },
        {
          "indexed": true,
          "internalType": "bytes32",
          "name": "newAdminRole",
          "type": "bytes32"
        }
      ],
      "name": "RoleAdminChanged",
      "type": "event"
    },
    {
      "anonymous": false,
      "inputs": [
        {
          "indexed": true,
          "internalType": "bytes32",
          "name": "role",
          "type": "bytes32"
        },
        {
          "indexed": true,
          "internalType": "address",
          "name": "account",
          "type": "address"
        },
        {
          "indexed": true,
          "internalType": "address",
          "name": "sender",
          "type": "address"
        }
      ],
      "name": "RoleGranted",
      "type": "event"
    },
    {
      "anonymous": false,
      "inputs": [
        {
          "indexed": true,
          "internalType": "bytes32",
          "name": "role",
          "type": "bytes32"
        },
        {
          "indexed": true,
          "internalType": "address",
          "name": "account",
          "type": "address"
        },
        {
          "indexed": true,
          "internalType": "address",
          "name": "sender",
          "type": "address"
        }
      ],
      "name": "RoleRevoked",
      "type": "event"
    },
    {
      "anonymous": false,
      "inputs": [
        {
          "indexed": false,
          "internalType": "address",
          "name": "account",
          "type": "address"
        }
      ],
      "name": "Unpaused",
      "type": "event"
    },
    {
      "anonymous": false,
      "inputs": [
        {
          "indexed": true,
          "internalType": "uint256",
          "name": "id",
          "type": "uint256"
        },
        {
          "indexed": true,
          "internalType": "address",
          "name": "creator",
          "type": "address"
        },
        {
          "indexed": false,
          "internalType": "uint256",
          "name": "feePaid",
          "type": "uint256"
        },
        {
          "indexed": false,
          "internalType": "uint256",
          "name": "nextAllowedAt",
          "type": "uint256"
        }
      ],
      "name": "UserEventCreated",
      "type": "event"
    },
    {
      "anonymous": false,
      "inputs": [
        {
          "indexed": true,
          "internalType": "uint256",
          "name": "eventId",
          "type": "uint256"
        },
        {
          "indexed": true,
          "internalType": "address",
          "name": "voter",
          "type": "address"
        },
        {
          "indexed": false,
          "internalType": "uint256",
          "name": "totalFee",
          "type": "uint256"
        },
        {
          "indexed": false,
          "internalType": "uint256",
          "name": "creatorCut",
          "type": "uint256"
        },
        {
          "indexed": false,
          "internalType": "uint256",
          "name": "protocolCut",
          "type": "uint256"
        }
      ],
      "name": "VoteFeeDistributed",
      "type": "event"
    },
    {
      "anonymous": false,
      "inputs": [
        {
          "indexed": true,
          "internalType": "uint256",
          "name": "eventId",
          "type": "uint256"
        },
        {
          "indexed": true,
          "internalType": "address",
          "name": "user",
          "type": "address"
        },
        {
          "indexed": false,
          "internalType": "bool",
          "name": "prediction",
          "type": "bool"
        }
      ],
      "name": "VoteSubmitted",
      "type": "event"
    },
    {
      "inputs": [],
      "name": "BPS_DENOMINATOR",
      "outputs": [
        {
          "internalType": "uint16",
          "name": "",
          "type": "uint16"
        }
      ],
      "stateMutability": "view",
      "type": "function"
    },
    {
      "inputs": [],
      "name": "BURN_SHARE",
      "outputs": [
        {
          "internalType": "uint16",
          "name": "",
          "type": "uint16"
        }
      ],
      "stateMutability": "view",
      "type": "function"
    },
    {
      "inputs": [],
      "name": "DAY",
      "outputs": [
        {
          "internalType": "uint256",
          "name": "",
          "type": "uint256"
        }
      ],
      "stateMutability": "view",
      "type": "function"
    },
    {
      "inputs": [],
      "name": "DEFAULT_ADMIN_ROLE",
      "outputs": [
        {
          "internalType": "bytes32",
          "name": "",
          "type": "bytes32"
        }
      ],
      "stateMutability": "view",
      "type": "function"
    },
    {
      "inputs": [],
      "name": "MAX_RESOLVE_BATCH",
      "outputs": [
        {
          "internalType": "uint256",
          "name": "",
          "type": "uint256"
        }
      ],
      "stateMutability": "view",
      "type": "function"
    },
    {
      "inputs": [],
      "name": "MAX_SOURCE_POLICY_LENGTH",
      "outputs": [
        {
          "internalType": "uint256",
          "name": "",
          "type": "uint256"
        }
      ],
      "stateMutability": "view",
      "type": "function"
    },
    {
      "inputs": [],
      "name": "MAX_TITLE_LENGTH",
      "outputs": [
        {
          "internalType": "uint256",
          "name": "",
          "type": "uint256"
        }
      ],
      "stateMutability": "view",
      "type": "function"
    },
    {
      "inputs": [],
      "name": "OPERATOR_ROLE",
      "outputs": [
        {
          "internalType": "bytes32",
          "name": "",
          "type": "bytes32"
        }
      ],
      "stateMutability": "view",
      "type": "function"
    },
    {
      "inputs": [],
      "name": "PRIZE_SHARE",
      "outputs": [
        {
          "internalType": "uint16",
          "name": "",
          "type": "uint16"
        }
      ],
      "stateMutability": "view",
      "type": "function"
    },
    {
      "inputs": [],
      "name": "PROTOCOL_DISTRIBUTION_INTERVAL",
      "outputs": [
        {
          "internalType": "uint256",
          "name": "",
          "type": "uint256"
        }
      ],
      "stateMutability": "view",
      "type": "function"
    },
    {
      "inputs": [],
      "name": "REFERRAL_SHARE",
      "outputs": [
        {
          "internalType": "uint16",
          "name": "",
          "type": "uint16"
        }
      ],
      "stateMutability": "view",
      "type": "function"
    },
    {
      "inputs": [],
      "name": "STAKING_SHARE",
      "outputs": [
        {
          "internalType": "uint16",
          "name": "",
          "type": "uint16"
        }
      ],
      "stateMutability": "view",
      "type": "function"
    },
    {
      "inputs": [],
      "name": "TREASURY_SHARE",
      "outputs": [
        {
          "internalType": "uint16",
          "name": "",
          "type": "uint16"
        }
      ],
      "stateMutability": "view",
      "type": "function"
    },
    {
      "inputs": [],
      "name": "USER_EVENT_COOLDOWN",
      "outputs": [
        {
          "internalType": "uint256",
          "name": "",
          "type": "uint256"
        }
      ],
      "stateMutability": "view",
      "type": "function"
    },
    {
      "inputs": [],
      "name": "USER_EVENT_FEE",
      "outputs": [
        {
          "internalType": "uint256",
          "name": "",
          "type": "uint256"
        }
      ],
      "stateMutability": "view",
      "type": "function"
    },
    {
      "inputs": [],
      "name": "VERIFIED_CREATOR_COOLDOWN",
      "outputs": [
        {
          "internalType": "uint256",
          "name": "",
          "type": "uint256"
        }
      ],
      "stateMutability": "view",
      "type": "function"
    },
    {
      "inputs": [],
      "name": "VERIFIED_MIN_POINTS",
      "outputs": [
        {
          "internalType": "uint256",
          "name": "",
          "type": "uint256"
        }
      ],
      "stateMutability": "view",
      "type": "function"
    },
    {
      "inputs": [],
      "name": "VOTE_BASE_POINTS",
      "outputs": [
        {
          "internalType": "uint256",
          "name": "",
          "type": "uint256"
        }
      ],
      "stateMutability": "view",
      "type": "function"
    },
    {
      "inputs": [],
      "name": "VOTE_BASIC_FEE",
      "outputs": [
        {
          "internalType": "uint256",
          "name": "",
          "type": "uint256"
        }
      ],
      "stateMutability": "view",
      "type": "function"
    },
    {
      "inputs": [],
      "name": "VOTE_PRO_FEE",
      "outputs": [
        {
          "internalType": "uint256",
          "name": "",
          "type": "uint256"
        }
      ],
      "stateMutability": "view",
      "type": "function"
    },
    {
      "inputs": [],
      "name": "VOTE_WHALE_MIN_FEE",
      "outputs": [
        {
          "internalType": "uint256",
          "name": "",
          "type": "uint256"
        }
      ],
      "stateMutability": "view",
      "type": "function"
    },
    {
      "inputs": [],
      "name": "burnReserve",
      "outputs": [
        {
          "internalType": "address",
          "name": "",
          "type": "address"
        }
      ],
      "stateMutability": "view",
      "type": "function"
    },
    {
      "inputs": [],
      "name": "claimCreatorFees",
      "outputs": [],
      "stateMutability": "nonpayable",
      "type": "function"
    },
    {
      "inputs": [
        {
          "internalType": "string",
          "name": "title",
          "type": "string"
        },
        {
          "internalType": "enum Prediction.Category",
          "name": "category",
          "type": "uint8"
        },
        {
          "internalType": "uint256",
          "name": "deadline",
          "type": "uint256"
        },
        {
          "internalType": "uint256",
          "name": "aiProbability",
          "type": "uint256"
        }
      ],
      "name": "createEvent",
      "outputs": [
        {
          "internalType": "uint256",
          "name": "",
          "type": "uint256"
        }
      ],
      "stateMutability": "nonpayable",
      "type": "function"
    },
    {
      "inputs": [
        {
          "internalType": "string",
          "name": "title",
          "type": "string"
        },
        {
          "internalType": "enum Prediction.Category",
          "name": "category",
          "type": "uint8"
        },
        {
          "internalType": "uint256",
          "name": "deadline",
          "type": "uint256"
        },
        {
          "internalType": "string",
          "name": "sourcePolicy",
          "type": "string"
        }
      ],
      "name": "createUserEvent",
      "outputs": [
        {
          "internalType": "uint256",
          "name": "",
          "type": "uint256"
        }
      ],
      "stateMutability": "payable",
      "type": "function"
    },
    {
      "inputs": [
        {
          "internalType": "address",
          "name": "",
          "type": "address"
        }
      ],
      "name": "creatorClaimableWei",
      "outputs": [
        {
          "internalType": "uint256",
          "name": "",
          "type": "uint256"
        }
      ],
      "stateMutability": "view",
      "type": "function"
    },
    {
      "inputs": [
        {
          "internalType": "uint256",
          "name": "",
          "type": "uint256"
        }
      ],
      "name": "creatorPayoutFinalized",
      "outputs": [
        {
          "internalType": "bool",
          "name": "",
          "type": "bool"
        }
      ],
      "stateMutability": "view",
      "type": "function"
    },
    {
      "inputs": [
        {
          "internalType": "uint256",
          "name": "",
          "type": "uint256"
        }
      ],
      "name": "creatorPendingByEvent",
      "outputs": [
        {
          "internalType": "uint256",
          "name": "",
          "type": "uint256"
        }
      ],
      "stateMutability": "view",
      "type": "function"
    },
    {
      "inputs": [],
      "name": "creatorShareBps",
      "outputs": [
        {
          "internalType": "uint16",
          "name": "",
          "type": "uint16"
        }
      ],
      "stateMutability": "view",
      "type": "function"
    },
    {
      "inputs": [],
      "name": "distributeProtocolFees",
      "outputs": [],
      "stateMutability": "nonpayable",
      "type": "function"
    },
    {
      "inputs": [],
      "name": "eventCount",
      "outputs": [
        {
          "internalType": "uint256",
          "name": "",
          "type": "uint256"
        }
      ],
      "stateMutability": "view",
      "type": "function"
    },
    {
      "inputs": [
        {
          "internalType": "uint256",
          "name": "",
          "type": "uint256"
        },
        {
          "internalType": "uint256",
          "name": "",
          "type": "uint256"
        }
      ],
      "name": "eventVoters",
      "outputs": [
        {
          "internalType": "address",
          "name": "",
          "type": "address"
        }
      ],
      "stateMutability": "view",
      "type": "function"
    },
    {
      "inputs": [
        {
          "internalType": "uint256",
          "name": "",
          "type": "uint256"
        }
      ],
      "name": "events",
      "outputs": [
        {
          "internalType": "uint256",
          "name": "id",
          "type": "uint256"
        },
        {
          "internalType": "string",
          "name": "title",
          "type": "string"
        },
        {
          "internalType": "enum Prediction.Category",
          "name": "category",
          "type": "uint8"
        },
        {
          "internalType": "uint256",
          "name": "aiProbability",
          "type": "uint256"
        },
        {
          "internalType": "uint256",
          "name": "deadline",
          "type": "uint256"
        },
        {
          "internalType": "bool",
          "name": "resolved",
          "type": "bool"
        },
        {
          "internalType": "bool",
          "name": "outcome",
          "type": "bool"
        },
        {
          "internalType": "uint256",
          "name": "totalVotesYes",
          "type": "uint256"
        },
        {
          "internalType": "uint256",
          "name": "totalVotesNo",
          "type": "uint256"
        },
        {
          "internalType": "address",
          "name": "creator",
          "type": "address"
        },
        {
          "internalType": "bool",
          "name": "isUserEvent",
          "type": "bool"
        },
        {
          "internalType": "uint256",
          "name": "listingFee",
          "type": "uint256"
        },
        {
          "internalType": "string",
          "name": "sourcePolicy",
          "type": "string"
        }
      ],
      "stateMutability": "view",
      "type": "function"
    },
    {
      "inputs": [
        {
          "internalType": "uint256",
          "name": "limit",
          "type": "uint256"
        }
      ],
      "name": "getActiveEvents",
      "outputs": [
        {
          "components": [
            {
              "internalType": "uint256",
              "name": "id",
              "type": "uint256"
            },
            {
              "internalType": "string",
              "name": "title",
              "type": "string"
            },
            {
              "internalType": "enum Prediction.Category",
              "name": "category",
              "type": "uint8"
            },
            {
              "internalType": "uint256",
              "name": "aiProbability",
              "type": "uint256"
            },
            {
              "internalType": "uint256",
              "name": "deadline",
              "type": "uint256"
            },
            {
              "internalType": "bool",
              "name": "resolved",
              "type": "bool"
            },
            {
              "internalType": "bool",
              "name": "outcome",
              "type": "bool"
            },
            {
              "internalType": "uint256",
              "name": "totalVotesYes",
              "type": "uint256"
            },
            {
              "internalType": "uint256",
              "name": "totalVotesNo",
              "type": "uint256"
            },
            {
              "internalType": "address",
              "name": "creator",
              "type": "address"
            },
            {
              "internalType": "bool",
              "name": "isUserEvent",
              "type": "bool"
            },
            {
              "internalType": "uint256",
              "name": "listingFee",
              "type": "uint256"
            },
            {
              "internalType": "string",
              "name": "sourcePolicy",
              "type": "string"
            }
          ],
          "internalType": "struct Prediction.PredictionEvent[]",
          "name": "",
          "type": "tuple[]"
        }
      ],
      "stateMutability": "view",
      "type": "function"
    },
    {
      "inputs": [
        {
          "internalType": "address",
          "name": "user",
          "type": "address"
        }
      ],
      "name": "getCreatorCooldown",
      "outputs": [
        {
          "internalType": "uint256",
          "name": "",
          "type": "uint256"
        }
      ],
      "stateMutability": "view",
      "type": "function"
    },
    {
      "inputs": [
        {
          "internalType": "uint256",
          "name": "eventId",
          "type": "uint256"
        }
      ],
      "name": "getCreatorEventPayoutPreview",
      "outputs": [
        {
          "internalType": "uint256",
          "name": "pendingCreatorCut",
          "type": "uint256"
        },
        {
          "internalType": "uint256",
          "name": "voterCount",
          "type": "uint256"
        },
        {
          "internalType": "bool",
          "name": "eligibleNow",
          "type": "bool"
        },
        {
          "internalType": "uint256",
          "name": "requiredVotes",
          "type": "uint256"
        }
      ],
      "stateMutability": "view",
      "type": "function"
    },
    {
      "inputs": [
        {
          "internalType": "uint256",
          "name": "eventId",
          "type": "uint256"
        }
      ],
      "name": "getEvent",
      "outputs": [
        {
          "components": [
            {
              "internalType": "uint256",
              "name": "id",
              "type": "uint256"
            },
            {
              "internalType": "string",
              "name": "title",
              "type": "string"
            },
            {
              "internalType": "enum Prediction.Category",
              "name": "category",
              "type": "uint8"
            },
            {
              "internalType": "uint256",
              "name": "aiProbability",
              "type": "uint256"
            },
            {
              "internalType": "uint256",
              "name": "deadline",
              "type": "uint256"
            },
            {
              "internalType": "bool",
              "name": "resolved",
              "type": "bool"
            },
            {
              "internalType": "bool",
              "name": "outcome",
              "type": "bool"
            },
            {
              "internalType": "uint256",
              "name": "totalVotesYes",
              "type": "uint256"
            },
            {
              "internalType": "uint256",
              "name": "totalVotesNo",
              "type": "uint256"
            },
            {
              "internalType": "address",
              "name": "creator",
              "type": "address"
            },
            {
              "internalType": "bool",
              "name": "isUserEvent",
              "type": "bool"
            },
            {
              "internalType": "uint256",
              "name": "listingFee",
              "type": "uint256"
            },
            {
              "internalType": "string",
              "name": "sourcePolicy",
              "type": "string"
            }
          ],
          "internalType": "struct Prediction.PredictionEvent",
          "name": "",
          "type": "tuple"
        }
      ],
      "stateMutability": "view",
      "type": "function"
    },
    {
      "inputs": [],
      "name": "getProtocolDistributionState",
      "outputs": [
        {
          "internalType": "uint256",
          "name": "pendingAmount",
          "type": "uint256"
        },
        {
          "internalType": "uint256",
          "name": "nextAt",
          "type": "uint256"
        },
        {
          "internalType": "uint256",
          "name": "secondsLeft",
          "type": "uint256"
        }
      ],
      "stateMutability": "view",
      "type": "function"
    },
    {
      "inputs": [
        {
          "internalType": "bytes32",
          "name": "role",
          "type": "bytes32"
        }
      ],
      "name": "getRoleAdmin",
      "outputs": [
        {
          "internalType": "bytes32",
          "name": "",
          "type": "bytes32"
        }
      ],
      "stateMutability": "view",
      "type": "function"
    },
    {
      "inputs": [
        {
          "internalType": "uint256",
          "name": "eventId",
          "type": "uint256"
        },
        {
          "internalType": "address",
          "name": "user",
          "type": "address"
        }
      ],
      "name": "getUserVote",
      "outputs": [
        {
          "components": [
            {
              "internalType": "bool",
              "name": "voted",
              "type": "bool"
            },
            {
              "internalType": "bool",
              "name": "prediction",
              "type": "bool"
            }
          ],
          "internalType": "struct Prediction.UserVote",
          "name": "",
          "type": "tuple"
        }
      ],
      "stateMutability": "view",
      "type": "function"
    },
    {
      "inputs": [
        {
          "internalType": "bytes32",
          "name": "role",
          "type": "bytes32"
        },
        {
          "internalType": "address",
          "name": "account",
          "type": "address"
        }
      ],
      "name": "grantRole",
      "outputs": [],
      "stateMutability": "nonpayable",
      "type": "function"
    },
    {
      "inputs": [
        {
          "internalType": "bytes32",
          "name": "role",
          "type": "bytes32"
        },
        {
          "internalType": "address",
          "name": "account",
          "type": "address"
        }
      ],
      "name": "hasRole",
      "outputs": [
        {
          "internalType": "bool",
          "name": "",
          "type": "bool"
        }
      ],
      "stateMutability": "view",
      "type": "function"
    },
    {
      "inputs": [
        {
          "internalType": "address",
          "name": "user",
          "type": "address"
        }
      ],
      "name": "isVerifiedCreator",
      "outputs": [
        {
          "internalType": "bool",
          "name": "",
          "type": "bool"
        }
      ],
      "stateMutability": "view",
      "type": "function"
    },
    {
      "inputs": [],
      "name": "minCreatorPayoutVotes",
      "outputs": [
        {
          "internalType": "uint256",
          "name": "",
          "type": "uint256"
        }
      ],
      "stateMutability": "view",
      "type": "function"
    },
    {
      "inputs": [],
      "name": "nextProtocolDistributionAt",
      "outputs": [
        {
          "internalType": "uint256",
          "name": "",
          "type": "uint256"
        }
      ],
      "stateMutability": "view",
      "type": "function"
    },
    {
      "inputs": [
        {
          "internalType": "address",
          "name": "",
          "type": "address"
        }
      ],
      "name": "nextUserEventAt",
      "outputs": [
        {
          "internalType": "uint256",
          "name": "",
          "type": "uint256"
        }
      ],
      "stateMutability": "view",
      "type": "function"
    },
    {
      "inputs": [],
      "name": "pause",
      "outputs": [],
      "stateMutability": "nonpayable",
      "type": "function"
    },
    {
      "inputs": [],
      "name": "paused",
      "outputs": [
        {
          "internalType": "bool",
          "name": "",
          "type": "bool"
        }
      ],
      "stateMutability": "view",
      "type": "function"
    },
    {
      "inputs": [],
      "name": "pendingProtocolFeesWei",
      "outputs": [
        {
          "internalType": "uint256",
          "name": "",
          "type": "uint256"
        }
      ],
      "stateMutability": "view",
      "type": "function"
    },
    {
      "inputs": [],
      "name": "pointsContract",
      "outputs": [
        {
          "internalType": "contract IPoints",
          "name": "",
          "type": "address"
        }
      ],
      "stateMutability": "view",
      "type": "function"
    },
    {
      "inputs": [],
      "name": "prizePool",
      "outputs": [
        {
          "internalType": "address",
          "name": "",
          "type": "address"
        }
      ],
      "stateMutability": "view",
      "type": "function"
    },
    {
      "inputs": [],
      "name": "referralContract",
      "outputs": [
        {
          "internalType": "contract IReferralPrediction",
          "name": "",
          "type": "address"
        }
      ],
      "stateMutability": "view",
      "type": "function"
    },
    {
      "inputs": [
        {
          "internalType": "bytes32",
          "name": "role",
          "type": "bytes32"
        },
        {
          "internalType": "address",
          "name": "callerConfirmation",
          "type": "address"
        }
      ],
      "name": "renounceRole",
      "outputs": [],
      "stateMutability": "nonpayable",
      "type": "function"
    },
    {
      "inputs": [
        {
          "internalType": "uint256",
          "name": "",
          "type": "uint256"
        }
      ],
      "name": "resolveCursor",
      "outputs": [
        {
          "internalType": "uint256",
          "name": "",
          "type": "uint256"
        }
      ],
      "stateMutability": "view",
      "type": "function"
    },
    {
      "inputs": [
        {
          "internalType": "uint256",
          "name": "eventId",
          "type": "uint256"
        },
        {
          "internalType": "bool",
          "name": "actualOutcome",
          "type": "bool"
        }
      ],
      "name": "resolveEvent",
      "outputs": [],
      "stateMutability": "nonpayable",
      "type": "function"
    },
    {
      "inputs": [
        {
          "internalType": "uint256",
          "name": "eventId",
          "type": "uint256"
        },
        {
          "internalType": "bool",
          "name": "actualOutcome",
          "type": "bool"
        },
        {
          "internalType": "uint256",
          "name": "maxBatch",
          "type": "uint256"
        }
      ],
      "name": "resolveEventBatch",
      "outputs": [],
      "stateMutability": "nonpayable",
      "type": "function"
    },
    {
      "inputs": [
        {
          "internalType": "uint256",
          "name": "",
          "type": "uint256"
        }
      ],
      "name": "resolveInProgress",
      "outputs": [
        {
          "internalType": "bool",
          "name": "",
          "type": "bool"
        }
      ],
      "stateMutability": "view",
      "type": "function"
    },
    {
      "inputs": [
        {
          "internalType": "uint256",
          "name": "",
          "type": "uint256"
        }
      ],
      "name": "resolvedWinners",
      "outputs": [
        {
          "internalType": "uint256",
          "name": "",
          "type": "uint256"
        }
      ],
      "stateMutability": "view",
      "type": "function"
    },
    {
      "inputs": [
        {
          "internalType": "bytes32",
          "name": "role",
          "type": "bytes32"
        },
        {
          "internalType": "address",
          "name": "account",
          "type": "address"
        }
      ],
      "name": "revokeRole",
      "outputs": [],
      "stateMutability": "nonpayable",
      "type": "function"
    },
    {
      "inputs": [
        {
          "internalType": "uint256",
          "name": "_userEventVoteFee",
          "type": "uint256"
        },
        {
          "internalType": "uint16",
          "name": "_creatorShareBps",
          "type": "uint16"
        },
        {
          "internalType": "uint256",
          "name": "_minCreatorPayoutVotes",
          "type": "uint256"
        }
      ],
      "name": "setCreatorEconomics",
      "outputs": [],
      "stateMutability": "nonpayable",
      "type": "function"
    },
    {
      "inputs": [
        {
          "internalType": "address",
          "name": "_prizePool",
          "type": "address"
        },
        {
          "internalType": "address",
          "name": "_treasury",
          "type": "address"
        },
        {
          "internalType": "address",
          "name": "_referralContract",
          "type": "address"
        },
        {
          "internalType": "address",
          "name": "_burnReserve",
          "type": "address"
        },
        {
          "internalType": "address",
          "name": "_stakingRewards",
          "type": "address"
        }
      ],
      "name": "setFeeReceivers",
      "outputs": [],
      "stateMutability": "nonpayable",
      "type": "function"
    },
    {
      "inputs": [],
      "name": "stakingRewards",
      "outputs": [
        {
          "internalType": "address",
          "name": "",
          "type": "address"
        }
      ],
      "stateMutability": "view",
      "type": "function"
    },
    {
      "inputs": [
        {
          "internalType": "uint256",
          "name": "eventId",
          "type": "uint256"
        },
        {
          "internalType": "bool",
          "name": "_prediction",
          "type": "bool"
        }
      ],
      "name": "submitPrediction",
      "outputs": [],
      "stateMutability": "payable",
      "type": "function"
    },
    {
      "inputs": [
        {
          "internalType": "bytes4",
          "name": "interfaceId",
          "type": "bytes4"
        }
      ],
      "name": "supportsInterface",
      "outputs": [
        {
          "internalType": "bool",
          "name": "",
          "type": "bool"
        }
      ],
      "stateMutability": "view",
      "type": "function"
    },
    {
      "inputs": [],
      "name": "totalVoteFeesCollected",
      "outputs": [
        {
          "internalType": "uint256",
          "name": "",
          "type": "uint256"
        }
      ],
      "stateMutability": "view",
      "type": "function"
    },
    {
      "inputs": [],
      "name": "treasury",
      "outputs": [
        {
          "internalType": "address",
          "name": "",
          "type": "address"
        }
      ],
      "stateMutability": "view",
      "type": "function"
    },
    {
      "inputs": [],
      "name": "unpause",
      "outputs": [],
      "stateMutability": "nonpayable",
      "type": "function"
    },
    {
      "inputs": [],
      "name": "userEventVoteFee",
      "outputs": [
        {
          "internalType": "uint256",
          "name": "",
          "type": "uint256"
        }
      ],
      "stateMutability": "view",
      "type": "function"
    },
    {
      "inputs": [
        {
          "internalType": "uint256",
          "name": "",
          "type": "uint256"
        },
        {
          "internalType": "address",
          "name": "",
          "type": "address"
        }
      ],
      "name": "userVotes",
      "outputs": [
        {
          "internalType": "bool",
          "name": "voted",
          "type": "bool"
        },
        {
          "internalType": "bool",
          "name": "prediction",
          "type": "bool"
        }
      ],
      "stateMutability": "view",
      "type": "function"
    },
    {
      "inputs": [
        {
          "internalType": "uint256",
          "name": "",
          "type": "uint256"
        },
        {
          "internalType": "address",
          "name": "",
          "type": "address"
        }
      ],
      "name": "voteMultiplierBps",
      "outputs": [
        {
          "internalType": "uint256",
          "name": "",
          "type": "uint256"
        }
      ],
      "stateMutability": "view",
      "type": "function"
    },
    {
      "stateMutability": "payable",
      "type": "receive"
    }
  ],
  "bytecode": "0x6080346200026257601f6200443d38819003918201601f191683019291906001600160401b0384118385101762000267578160c09284926040968752833981010312620002625762000051816200027d565b9062000060602082016200027d565b6200006d8483016200027d565b6200007b606084016200027d565b926200009860a062000090608084016200027d565b92016200027d565b600180556002805460ff1916905565b5e620f48000600955600a805461ffff19166113881790556014600b55926001600160a01b039081169283156200022e578116918215620001fd578116938415620001cd5781169586156200019a57620001013362000292565b506200010d3362000312565b5060025490610100600160a81b039060081b1690610100600160a81b0319161760025560018060a01b03199416846003541617600355836004541617600455826005541617600555816006541617600655600754161760075561a8c042018042116200018457601a55516140689081620003b58239f35b634e487b7160e01b600052601160045260246000fd5b875162461bcd60e51b815260206004820152600c60248201526b5a65726f207374616b696e6760a01b6044820152606490fd5b875162461bcd60e51b81526020600482015260096024820152682d32b93790313ab93760b91b6044820152606490fd5b875162461bcd60e51b815260206004820152600a6024820152695a65726f207072697a6560b01b6044820152606490fd5b875162461bcd60e51b815260206004820152600d60248201526c5a65726f20747265617375727960981b6044820152606490fd5b600080fd5b634e487b7160e01b600052604160045260246000fd5b51906001600160a01b03821682036200026257565b6001600160a01b031660008181527fad3228b676f7d3cd4284a5443f17f1962b36e491b30a40b2405849e597ba5fb5602052604081205490919060ff166200030e57818052816020526040822081835260205260408220600160ff1982541617905533916000805160206200441d8339815191528180a4600190565b5090565b6001600160a01b031660008181527fee57cd81e84075558e8fcc182a1f4393f91fc97f963a136e66b7f949a62f319f60205260408120549091907f97667070c54ef182b0f5858b034beac1b6f3089aa2d3188bb1e8929f4fa9b9299060ff16620003af57808352826020526040832082845260205260408320600160ff198254161790556000805160206200441d833981519152339380a4600190565b50509056fe608080604052600436101561001d575b50361561001b57600080fd5b005b60003560e01c90816301ffc9a714612eed57508063039688e714612e2857806303c7881a14612da25780630b79143014612ca65780630f7fff8314612c5e578063103cf58914612c2457806318abb63514612a5a5780631ba86794146126125780631f4796fc14612a3c57806322a8f4071461267a578063235887a71461265e578063248a9ca31461262f57806327cfe8561461053e57806327dce140146126125780632b4f8a1f146125e55780632ef9a160146125c95780632f2ff15d1461258a578063326961741461256d578063351fee461461247257806336568abe1461242b5780633809e5bc146123ff5780633f4ba83a1461239557806344007c6014611eac578063463e91f414611e5857806346454aa414611d955780634b6b0ddb14611d7857806350dcf82714611d4b5780635a23699a14611d2e5780635c975abb14611d0b5780635d1e9b3614611cee5780635f0148b214611cd057806361d027b314611ca757806363c81a4c14611c8957806364b87a7014611c60578063660405c714611c3e578063686737bd14611c1257806369bf402e14611a515780636d1884e014611a04578063719ce73e146119db57806371be2e4a146119bd5780637dad19db146119945780637dd9f7791461128f5780637ed39c8d1461126d5780638456cb591461121357806385a1107a146111f15780638a0ae571146111c6578063915439fb14610cb257806391d1485414610c6557806393b998fb14610c48578063952fd13014610c2b57806396e2881914610c0d578063a217fddf14610bf1578063a861136914610bd5578063b1a25c9414610bb3578063b21b5a2114610b96578063b2c8482114610b75578063bf16257a14610b4c578063c2e930211461066c578063d547741f1461062d578063e0397fd1146105db578063e1175e69146105bd578063e1a45218146105a0578063e38e439414610574578063e7a8c03d14610543578063f1ec35381461053e578063f30069551461050d578063f3156392146103fe578063f5b541a6146103c3578063f7227bf0146103895763fe5b3e3b1461032c573861000f565b3461038457604036600319011261038457610345612f40565b600435600052600d60205260406000209060018060a01b03166000526020526040806000205460ff8251918181161515835260081c1615156020820152f35b600080fd5b34610384576020366003190112610384576001600160a01b036103aa612f56565b16600052600f6020526020604060002054604051908152f35b346103845760003660031901126103845760206040517f97667070c54ef182b0f5858b034beac1b6f3089aa2d3188bb1e8929f4fa9b9298152f35b346103845760603660031901126103845760043560243561ffff8116809103610384576044359161042d613604565b6127108083116104d45783151590816104c9575b5015610494577ff8e3e97e5f2ce116ba1fcd40f83a8ad38bb7a5eb2d6187295ac00586fafe448992606092826009558061ffff19600a541617600a5581600b5560405192835260208301526040820152a1005b60405162461bcd60e51b815260206004820152600d60248201526c426164206d696e20766f74657360981b6044820152606490fd5b905083111584610441565b60405162461bcd60e51b81526020600482015260116024820152704261642063726561746f7220736861726560781b6044820152606490fd5b34610384576020366003190112610384576004356000526010602052602060ff604060002054166040519015158152f35b613112565b34610384576020366003190112610384576004356000526017602052602060ff604060002054166040519015158152f35b346103845760203660031901126103845760043560005260116020526020604060002054604051908152f35b346103845760003660031901126103845760206040516127108152f35b34610384576000366003190112610384576020601954604051908152f35b3461038457604036600319011261038457602435600435600052600e602052604060002080548210156103845760209161061491613215565b905460405160039290921b1c6001600160a01b03168152f35b346103845760403660031901126103845761001b60043561064c612f40565b908060005260006020526106676001604060002001546136b8565b613d73565b34610384576080366003190112610384576004356001600160401b0381116103845761069c9036906004016131e8565b60056024351015610384576106af61365c565b6106b7613701565b6106c44260443511613389565b6064803511610b11576106d86008546133f8565b9182600855604051926106ea84612fc1565b8084526106f8368484613545565b602085015261070c60243560408601613243565b60643560608501526044356080850152600060a0850152600060c0850152600060e085015260006101008501526000610120850152600061014085015260006101608501526040518060208101106001600160401b03602083011117610a15576020810160405260008152610180850152600052600c60205260406000208351815560208401518051906001600160401b038211610a155781906107b36001850154612f6c565b601f8111610abe575b50602090601f8311600114610a4c57600092610a41575b50508160011b916000199060031b1c19161760018201555b604084015160028201916005821015610a2b5761018092600a9260ff8019835416911617905560608601516003820155608086015160048201556108636005820161084860a08901511515829060ff801983541691151516179055565b60c0880151815461ff00191690151560081b61ff0016179055565b60e0860151600682015561010086015160078201556008810160018060a01b036101208801511681549060ff60a01b6101408a0151151560a01b16916affffffffffffffffffffff60a81b16171790556101608601516009820155019301519283516001600160401b038111610a15576108dd8254612f6c565b601f81116109cd575b50806020958690601f83116001146109695760009261095e575b50508160011b916000199060031b1c19161790555b7f72bae727b73e364af0cb466b245c122933bcab17b146472cfe58866364ac91866008549283926109536040519283926044359160243591856135ac565b0390a2604051908152f35b015190508680610900565b60008581528881209350601f198516905b8181106109b6575090846001959493921061099d575b505050811b019055610915565b015160001960f88460031b161c19169055868080610990565b92938960018192878601518155019501930161097a565b826000526020600020601f830160051c81019160208410610a0b575b601f0160051c01905b8181106109ff57506108e6565b600081556001016109f2565b90915081906109e9565b634e487b7160e01b600052604160045260246000fd5b634e487b7160e01b600052602160045260246000fd5b0151905086806107d3565b9250600184016000526020600020906000935b601f1984168510610aa3576001945083601f19811610610a8a575b505050811b0160018201556107eb565b015160001960f88460031b161c19169055868080610a7a565b81810151835560209485019460019093019290910190610a5f565b909150600184016000526020600020601f840160051c810160208510610b0a575b90849392915b601f830160051c82018110610afb5750506107bc565b60008155859450600101610ae5565b5080610adf565b60405162461bcd60e51b8152602060048201526013602482015272496e76616c69642070726f626162696c69747960681b6044820152606490fd5b34610384576000366003190112610384576006546040516001600160a01b039091168152602090f35b3461038457600036600319011261038457602060405165886c98b760008152f35b346103845760003660031901126103845760206040516107d08152f35b3461038457600036600319011261038457602061ffff600a5416604051908152f35b3461038457600036600319011261038457602060405160328152f35b3461038457600036600319011261038457602060405160008152f35b34610384576000366003190112610384576020601a54604051908152f35b346103845760003660031901126103845760206040516170808152f35b346103845760003660031901126103845760206040516103e88152f35b3461038457604036600319011261038457610c7e612f40565b600435600052600060205260406000209060018060a01b0316600052602052602060ff604060002054166040519015158152f35b3461038457604036600319011261038457610ccb613103565b610cd361365c565b600435600052600c602052604060002090610cf08254151561330c565b610d0160ff6005840154161561334a565b6004820154421061118f57600435600052600e60205260406000209060106020526040600020805460ff8116156110f8575b505050600435600052601160205260406000205461012c810180821161104e5782548082116110f0575b50815b818110610ec757506004356000526011602052806040600020558254917f6171764cbb08398c2e63b336dc0c0bd2cfa73f565cd4330857e56b8c6cede37c60405180610dc2868660043596846040919493926060820195825260208201520152565b0390a214610dcc57005b60ff91600591610e48841991600183868601541617858501556004356000526013602052610e1686604060002054168686019061ff00825491151560081b169061ff001916179055565b6010602052604060002080548416905554600884015460a081901c8716916001600160a01b0390911690600435613e48565b6004356000526013602052604060002081815416905560146020526040600020908154169055015460081c1660126020527fa20711274bb36f7685d0dc92e106040933e80977976707f98eaba50a8a5fb6a2610ec26040600020546040519182916004359583602090939291936040810194151581520152565b0390a2005b600435600052600d6020526040600020610ee18286613215565b905460018060a01b039160031b1c166000526020526020604060002060ff60405191610f0c83612fa6565b548181161515835260081c1615159182910152600435600052601360205260ff6040600020541615151460001461106d5760043560005260126020526040600020610f5781546133f8565b905560043560005260186020526040600020610f738286613215565b60018060a01b0391549060031b1c166000526020526040600020548015611064575b6032908082029182040361104e57612710900490818060011b046002148215171561104e5760025460081c6001600160a01b031691610fd48287613215565b905460039190911b1c6001600160a01b031690833b1561038457606460009283604051968794859363167e950f60e21b8552600485015260011b6024840152600160448401525af191821561104257600192611033575b505b01610d60565b61103c90612fdd565b8661102b565b6040513d6000823e3d90fd5b634e487b7160e01b600052601160045260246000fd5b50612710610f95565b60025460081c6001600160a01b0316906110878186613215565b905460039190911b1c6001600160a01b0316823b156103845760009260648492604051958693849263167e950f60e21b845260048401528160248401528160448401525af1918215611042576001926110e1575b5061102d565b6110ea90612fdd565b866110db565b905084610d5d565b60019060ff191617905560136020526111218160406000209060ff801983541691151516179055565b61114c60326003850154101560146020528215151460406000209060ff801983541691151516179055565b81546040805192151583526020830191909152600435917fe3e5219c85bd3f866871843718a98dd1828b2015f20323fb7e1e2702a3a7a15f9190a2828080610d33565b60405162461bcd60e51b815260206004820152600f60248201526e4265666f726520646561646c696e6560881b6044820152606490fd5b346103845760203660031901126103845760206111e96111e4612f56565b6135ea565b604051908152f35b3461038457600036600319011261038457602060405166b1a2bc2ec500008152f35b346103845760003660031901126103845761122c613604565b611234613701565b600160ff1960025416176002557f62e78cea01bee320cd4e420270b5ea74000d11b0c9f74754ebdbfc544b05a2586020604051338152a1005b346103845760003660031901126103845760206040516611c37937e080008152f35b6080366003190112610384576004356001600160401b038111610384576112ba9036906004016131e8565b60056024351015610384576064356001600160401b038111610384576112e49036906004016131e8565b6112ec6136de565b6112f4613701565b600a831180611989575b1561194d5780151580611942575b1561190c576605543df729c00034036118d957610258420180421161104e5760443511156118a05762127500420180421161104e57604435101561186857611353336135ea565b9133600052600f6020526040600020544210611831576113f46113776008546133f8565b91826008556040519361138985612fc1565b83855261139736888a613545565b60208601526113ab60243560408701613243565b603260608601526044356080860152600060a0860152600060c0860152600060e08601526000610100860152336101208601526001610140860152346101608601523691613545565b610180830152600052600c6020526040600020908051825560208101518051906001600160401b038211610a155781906114316001860154612f6c565b601f81116117de575b50602090601f831160011461176c57600092611761575b50508160011b916000199060031b1c19161760018301555b6040810151906005821015610a2b5760028301805460ff93841660ff19909116179055606081015160038401556080810151600484015560a081015160058401805460c084015192151590941661ffff199094169390931790151560081b61ff0016179091556101809060e0810151600684015561010081015160078401556008830160018060a01b036101208301511681549060ff60a01b610140850151151560a01b16916affffffffffffffffffffff60a81b1617179055610160810151600984015501518051906001600160401b038211610a155761154e600a840154612f6c565b601f811161171a575b50602090601f83116001146116a5579180600a9261159596959460009261169a575b50508160011b916000199060031b1c1916179101555b42613407565b33600052600f60205260406000205560008080803460018060a01b03600554165af16115bf61357c565b5015611655576020917f72bae727b73e364af0cb466b245c122933bcab17b146472cfe58866364ac91866008549283926116066040519283926044359160243591856135ac565b0390a233600052600f82526040600020546040519034825283820152817fe09334ee823ea42272048484483a341bdf193b03b00e4b17b293095d8c44304d60403393a360018055604051908152f35b60405162461bcd60e51b815260206004820152601860248201527f5472656173757279207472616e73666572206661696c656400000000000000006044820152606490fd5b015190508880611579565b90600a840160005260206000209160005b601f1985168110611702575092600a9260019261159597969583601f198116106116e9575b505050811b0191015561158f565b015160001960f88460031b161c191690558880806116db565b919260206001819286850151815501940192016116b6565b600a84016000526020600020601f840160051c81016020851061175a575b601f830160051c8201811061174e575050611557565b60008155600101611738565b5080611738565b015190508780611451565b9250600185016000526020600020906000935b601f19841685106117c3576001945083601f198116106117aa575b505050811b016001830155611469565b015160001960f88460031b161c1916905587808061179a565b8181015183556020948501946001909301929091019061177f565b909150600185016000526020600020601f840160051c81016020851061182a575b90849392915b601f830160051c8201811061181b57505061143a565b60008155859450600101611805565b50806117ff565b60405162461bcd60e51b815260206004820152600f60248201526e436f6f6c646f776e2061637469766560881b6044820152606490fd5b60405162461bcd60e51b815260206004820152601060248201526f2232b0b23634b732903a37b7903330b960811b6044820152606490fd5b60405162461bcd60e51b81526020600482015260116024820152702232b0b23634b732903a37b79039b7b7b760791b6044820152606490fd5b60405162461bcd60e51b815260206004820152600b60248201526a496e76616c69642066656560a81b6044820152606490fd5b60405162461bcd60e51b815260206004820152600e60248201526d496e76616c696420736f7572636560901b6044820152606490fd5b50607881111561130c565b60405162461bcd60e51b8152602060048201526014602482015273092dcecc2d8d2c840e8d2e8d8ca40d8cadccee8d60631b6044820152606490fd5b5060b48311156112fe565b34610384576000366003190112610384576003546040516001600160a01b039091168152602090f35b34610384576000366003190112610384576020600854604051908152f35b34610384576000366003190112610384576004546040516001600160a01b039091168152602090f35b3461038457602036600319011261038457611a1d6134b6565b50600435600052600c602052611a4d611a39604060002061324f565b604051918291602083526020830190613130565b0390f35b3461038457602080600319360112610384576004356000600854805b80151580611c09575b15611acf5780600052600c8552604060002060ff600582015416159081611ac1575b50611aac575b611aa790613492565b611a6d565b91611ab9611aa7916133f8565b929050611a9e565b600491500154421086611a98565b848383611adb8261349f565b90611ae96040519283612ff0565b828252611af58361349f565b601f19018460005b828110611bf35750505060005b81151580611bea575b15611b8c5781600052600c855260406000209160ff6005840154161580611b7f575b611b4b575b611b45919250613492565b90611b0a565b611b7682611b65611b5f611b4595926133f8565b9561324f565b611b6f8288613516565b5285613516565b50829150611b3a565b5060048301544210611b35565b604080518681528451818801819052600092600582901b8301810191878a01918a9085015b828710611bbe5785850386f35b909192938280611bda600193603f198a82030186528851613130565b9601920196019592919092611bb1565b50838110611b13565b611bfb6134b6565b828287010152018590611afd565b50838310611a76565b346103845760203660031901126103845760043560005260126020526020604060002054604051908152f35b346103845760003660031901126103845760206040516605543df729c0008152f35b34610384576000366003190112610384576007546040516001600160a01b039091168152602090f35b34610384576000366003190112610384576020601b54604051908152f35b34610384576000366003190112610384576005546040516001600160a01b039091168152602090f35b34610384576000366003190112610384576020600b54604051908152f35b3461038457600036600319011261038457602060405161a8c08152f35b3461038457600036600319011261038457602060ff600254166040519015158152f35b3461038457600036600319011261038457602060405161012c8152f35b34610384576020366003190112610384576020611d6e611d69612f56565b613421565b6040519015158152f35b346103845760003660031901126103845760206040516101f48152f35b3461038457600036600319011261038457611dae6136de565b601a544210611e1b576019548015611de357611dce90600060195561383d565b61a8c0420180421161104e57601a5560018055005b60405162461bcd60e51b815260206004820152601060248201526f4e6f2070726f746f636f6c206665657360801b6044820152606490fd5b60405162461bcd60e51b81526020600482015260156024820152742234b9ba3934b13aba34b7b71031b7b7b63237bbb760591b6044820152606490fd5b3461038457600036600319011261038457601954601a5490428211611e9a57611a4d60005b604051938493846040919493926060820195825260208201520152565b611a4d611ea74284613414565b611e7d565b3461038457606036600319011261038457600435611ec8613103565b604435611ed361365c565b80151580612389575b156123585782600052600c602052604060002090611efc8254151561330c565b611f0d60ff6005840154161561334a565b6004820154421061118f5783600052600e60205283604060002093601060205260406000209081549160ff8316156122c5575b5050506000526011602052611f5b6040600020549182613407565b83548082116122bd575b50815b8181106120be575084600052601160205280604060002055847f6171764cbb08398c2e63b336dc0c0bd2cfa73f565cd4330857e56b8c6cede37c82865494611fc786604051938493846040919493926060820195825260208201520152565b0390a214611fd157005b600560ff917fa20711274bb36f7685d0dc92e106040933e80977976707f98eaba50a8a5fb6a29361206a8419916001838686015416178585015587600052601360205261203a86604060002054168686019061ff00825491151560081b169061ff001916179055565b6010602052604060002080548416905554600884015460a081901c8716916001600160a01b039091169089613e48565b856000526013602052604060002081815416905560146020526040600020908154169055015460081c16601260205260406000205490610ec260405192839283602090939291936040810194151581520152565b85600052600d60205260406000206120d68287613215565b905460018060a01b039160031b1c166000526020526020604060002060ff6040519161210183612fa6565b548181161515835260081c161515918291015286600052601360205260ff6040600020541615151460001461223a57856000526012602052604060002061214881546133f8565b905585600052601860205260406000206121628287613215565b60018060a01b0391549060031b1c166000526020526040600020548015612231575b6032908082029182040361104e57612710900490818060011b046002148215171561104e5760025460081c6001600160a01b0316916121c38288613215565b905460039190911b1c6001600160a01b031690833b1561038457606460009283604051968794859363167e950f60e21b8552600485015260011b6024840152600160448401525af191821561104257600192612222575b505b01611f68565b61222b90612fdd565b8761221a565b50612710612184565b60025460081c6001600160a01b0316906122548187613215565b905460039190911b1c6001600160a01b0316823b156103845760009260648492604051958693849263167e950f60e21b845260048401528160248401528160448401525af1918215611042576001926122ae575b5061221c565b6122b790612fdd565b876122a8565b905085611f65565b60017fe3e5219c85bd3f866871843718a98dd1828b2015f20323fb7e1e2702a3a7a15f9360ff1916179055601360205261230f8160406000209060ff801983541691151516179055565b61233a60326003870154101560146020528215151460406000209060ff801983541691151516179055565b8554604080519215158352602083019190915290a283858080611f40565b60405162461bcd60e51b8152602060048201526009602482015268084c2c840c4c2e8c6d60bb1b6044820152606490fd5b506103e8811115611edc565b34610384576000366003190112610384576123ae613604565b60025460ff8116156123ed5760ff19166002557f5db9ee0a495bf2e6ff9c91a7834c1ba4fdd244a5e8aa4e537bd38aeae4b073aa6020604051338152a1005b604051638dfc202b60e01b8152600490fd5b346103845760203660031901126103845760043560005260156020526020604060002054604051908152f35b3461038457604036600319011261038457612444612f40565b336001600160a01b038216036124605761001b90600435613d73565b60405163334bd91960e11b8152600490fd5b346103845760003660031901126103845761248b6136de565b336000526016602052604060002054801561253657336000526016602052600060408120556124ba8133613d2e565b156124f1576040519081527fdf31b018ca499a680e4bd1fe7fd985dfc1b9064c68d12fbab66556d98af4dc8c60203392a260018055005b60405162461bcd60e51b815260206004820152601760248201527f43726561746f72207769746864726177206661696c65640000000000000000006044820152606490fd5b60405162461bcd60e51b815260206004820152600f60248201526e4e6f2063726561746f72206665657360881b6044820152606490fd5b346103845760003660031901126103845760206040516105dc8152f35b346103845760403660031901126103845761001b6004356125a9612f40565b908060005260006020526125c46001604060002001546136b8565b613cb0565b3461038457600036600319011261038457602060405160b48152f35b346103845760003660031901126103845760025460405160089190911c6001600160a01b03168152602090f35b346103845760003660031901126103845760206040516113888152f35b346103845760203660031901126103845760043560005260006020526020600160406000200154604051908152f35b3461038457600036600319011261038457602060405160788152f35b604036600319011261038457600435612691613103565b9061269a6136de565b6126a2613701565b80600052602091600c83526040600020926126bf8454151561330c565b6126d060ff6005860154161561334a565b826000526010815260ff60406000205416612a00576126f460048501544210613389565b82600052600d8152604060002033600052815260ff604060002054166129cc57600884015460ff8160a01c16612973575b5061272f3461377b565b9360018060a01b0392602460e08560025460081c166040519283809263543a185d60e11b82523360048301525afa9081156110425760009161293d575b50620151808042049104036128f8576040519561278887612fa6565b600187526127e2848801978315159889815288600052600d875260406000203360005287526127cb604060002092511515839060ff801983541691151516179055565b51815461ff00191690151560081b61ff0016179055565b8560005260188452604060002033600052845260406000205584600052600e835260406000209384549468010000000000000000861015610a15578561284e9160017f7ae256270c354f1f830c52697713782ce51539e910d41781cbb063a49c42c0f998018155613215565b819291549060031b9133831b921b19161790556000146128e45760060161287581546133f8565b90555b3461288d575b6040519384523393a360018055005b61289934601b54613407565b601b556128a63433613ad9565b604051348152600082820152346040820152837f7976061653e5a6019b1e529878f74bd63aba4ba527c0f1a443ba0a20f409d14b60603393a361287e565b6007016128f181546133f8565b9055612878565b60405162461bcd60e51b815260048101849052601760248201527f436865636b2d696e20726571756972656420746f6461790000000000000000006044820152606490fd5b61295f915060e03d60e01161296c575b6129578183612ff0565b8101906133c5565b505050925050508761276c565b503d61294d565b6001600160a01b031633146129885784612725565b6064906040519062461bcd60e51b82526004820152601d60248201527f43726561746f722063616e6e6f7420766f7465206f776e206576656e740000006044820152fd5b6064906040519062461bcd60e51b82526004820152600d60248201526c105b1c9958591e481d9bdd1959609a1b6044820152fd5b6064906040519062461bcd60e51b8252600482015260156024820152745265736f6c76696e6720696e2070726f677265737360581b6044820152fd5b34610384576000366003190112610384576020600954604051908152f35b346103845760a036600319011261038457612a73612f56565b612a7b612f40565b6044356001600160a01b038181169390929184900361038457606435928084168094036103845760843591818316809303610384578190612aba613604565b16928315612bf25716928315612bbd578015612b8c578115612b58577fa7b3169ec549852e1d1cca25b1fcfd23001d50d34f1b37d9bbc496f3bd4824449460a094836bffffffffffffffffffffffff871b8681600454161760045582816005541617600555838160035416176003558481600654161760065560075416176007556040519485526020850152604084015260608301526080820152a1005b60405162461bcd60e51b815260206004820152600c60248201526b5a65726f207374616b696e6760a01b6044820152606490fd5b60405162461bcd60e51b81526020600482015260096024820152682d32b93790313ab93760b91b6044820152606490fd5b60405162461bcd60e51b815260206004820152600d60248201526c5a65726f20747265617375727960981b6044820152606490fd5b60405162461bcd60e51b815260206004820152600a6024820152695a65726f207072697a6560b01b6044820152606490fd5b34610384576020366003190112610384576001600160a01b03612c45612f56565b1660005260166020526020604060002054604051908152f35b3461038457604036600319011261038457612c77612f40565b600435600052601860205260406000209060018060a01b03166000526020526020604060002054604051908152f35b3461038457602036600319011261038457600435600052600c6020526040600020805460018201612cd690613011565b91600281015460ff16600382015491600481015460058201546006830154600784015491600885015493600986015495600a01612d1290613011565b976040519a8b9a6101a0908c528060208d01528b01612d30916130b6565b9760408b01612d3e916130f6565b60608a0152608089015260ff8116151560a089015260081c60ff16151560c088015260e0870152610100860152600160a01b60019003811661012086015260a01c60ff161515610140850152610160840152828103610180840152611a4d916130b6565b3461038457604036600319011261038457612dbb612f40565b60006020604051612dcb81612fa6565b8281520152600435600052600d60205260406000209060018060a01b0316600052602052604080600020815190612e0182612fa6565b5460ff6020818316151593848152019160081c161515815282519182525115156020820152f35b3461038457602036600319011261038457608060043580600052600c602052612e54604060002061324f565b90600052601560205260406000205490600e60205260406000205490600b549161014082015115159182612ed5575b82612eb4575b5081612ea9575b6040519384526020840152151560408301526060820152f35b828110159150612e90565b6101200151909150612ece906001600160a01b0316613421565b9085612e89565b6101208101516001600160a01b031615159250612e83565b34610384576020366003190112610384576004359063ffffffff60e01b821680920361038457602091637965db0b60e01b8114908115612f2f575b5015158152f35b6301ffc9a760e01b14905083612f28565b602435906001600160a01b038216820361038457565b600435906001600160a01b038216820361038457565b90600182811c92168015612f9c575b6020831014612f8657565b634e487b7160e01b600052602260045260246000fd5b91607f1691612f7b565b604081019081106001600160401b03821117610a1557604052565b6101a081019081106001600160401b03821117610a1557604052565b6001600160401b038111610a1557604052565b90601f801991011681019081106001600160401b03821117610a1557604052565b9060405191826000825461302481612f6c565b908184526020946001916001811690816000146130945750600114613055575b50505061305392500383612ff0565b565b600090815285812095935091905b81831061307c5750506130539350820101388080613044565b85548884018501529485019487945091830191613063565b9250505061305394925060ff191682840152151560051b820101388080613044565b919082519283825260005b8481106130e2575050826000602080949584010152601f8019910116010190565b6020818301810151848301820152016130c1565b906005821015610a2b5752565b60243590811515820361038457565b34610384576000366003190112610384576020604051620151808152f35b906131e5916131536101a0825184526020830151908060208601528401906130b6565b91613166604083015160408301906130f6565b606082015160608201526080820151608082015260a0820151151560a082015260c0820151151560c082015260e082015160e0820152610100808301519082015261012060018060a01b0381840151169082015261014080830151151590820152610160808301519082015261018080920151918184039101526130b6565b90565b9181601f84011215610384578235916001600160401b038311610384576020838186019501011161038457565b805482101561322d5760005260206000200190600090565b634e487b7160e01b600052603260045260246000fd5b6005821015610a2b5752565b9060405161325c81612fc1565b610180613307600a83958054855261327660018201613011565b602086015261328f60ff60028301541660408701613243565b600381015460608601526004810154608086015260ff6005820154818116151560a088015260081c16151560c0860152600681015460e0860152600781015461010086015260ff600882015460018060a01b03811661012088015260a01c161515610140860152600981015461016086015201613011565b910152565b1561331357565b60405162461bcd60e51b815260206004820152600f60248201526e115d995b9d081b9bdd08199bdd5b99608a1b6044820152606490fd5b1561335157565b60405162461bcd60e51b815260206004820152601060248201526f105b1c9958591e481c995cdbdb1d995960821b6044820152606490fd5b1561339057565b60405162461bcd60e51b815260206004820152600d60248201526c5061737420646561646c696e6560981b6044820152606490fd5b908160e09103126103845780519160208201519160408101519160608201519160808101519160c060a083015192015190565b600019811461104e5760010190565b9190820180921161104e57565b9190820391821161104e57565b60025460405163543a185d60e11b81526001600160a01b0392831660048201529160e0918391602491839160089190911c165afa8015611042576113889160009161346d575b50101590565b613486915060e03d60e01161296c576129578183612ff0565b50505050505038613467565b801561104e576000190190565b6001600160401b038111610a155760051b60200190565b604051906134c382612fc1565b606061018083600080825283602083015280604083015280848301528060808301528060a08301528060c08301528060e08301528061010083015280610120830152806101408301526101608201520152565b805182101561322d5760209160051b010190565b6001600160401b038111610a1557601f01601f191660200190565b9291926135518261352a565b9161355f6040519384612ff0565b829481845281830111610384578281602093846000960137010152565b3d156135a7573d9061358d8261352a565b9161359b6040519384612ff0565b82523d6000602084013e565b606090565b906080836040946135e6939897969860608652816060870152838601376000848201830152601f01601f19168301019560208301906130f6565b0152565b6135f390613421565b6135fe576201518090565b61708090565b3360009081527fad3228b676f7d3cd4284a5443f17f1962b36e491b30a40b2405849e597ba5fb5602052604081205460ff161561363e5750565b6044906040519063e2517d3f60e01b82523360048301526024820152fd5b3360009081527fee57cd81e84075558e8fcc182a1f4393f91fc97f963a136e66b7f949a62f319f60205260409020547f97667070c54ef182b0f5858b034beac1b6f3089aa2d3188bb1e8929f4fa9b9299060ff161561363e5750565b80600052600060205260406000203360005260205260ff604060002054161561363e5750565b6002600154146136ef576002600155565b604051633ee5aeb560e01b8152600490fd5b60ff6002541661370d57565b60405163d93c066560e01b8152600490fd5b906113889182810292818404149015171561104e57565b906105dc9182810292818404149015171561104e57565b906107d09182810292818404149015171561104e57565b906103e89182810292818404149015171561104e57565b65886c98b760008114613836576611c37937e08000811461382f5766b1a2bc2ec500008082106137f257670de0b6b3a76400009182810292818404149015171561104e576137c99104613de8565b620186a090808202908282040361104e57633b9aca009004908082106137ed575090565b905090565b60405162461bcd60e51b815260206004820152601560248201527424b73b30b634b2103b37ba32903332b2903a34b2b960591b6044820152606490fd5b5061753090565b5061271090565b8015613ad65761271090816138518261371f565b04918061385d83613736565b0490806138698461374d565b049061387484613764565b04906138918261388c8361388c8761388c8b8b613414565b613414565b9260018060a01b036138a7878260045416613d2e565b15613ac2575b6138bb828260055416613d2e565b15611655576000816003541680151580613ab9575b6139e3575b501561397c575b907fb0408084c3bedba3e8d953bb77c6a94967be600b80e336303286ec608beef62996826139148660c0999897969560065416613d2e565b15613968575b85613929818360075416613d2e565b15613953575b5050604051958652602086015260408501526060840152608083015260a0820152a1565b6139609160055416613d2e565b50388561392f565b613976858260055416613d2e565b5061391a565b949392919061398f828760055416613d2e565b1561399e5790919293946138dc565b60405162461bcd60e51b815260206004820152601860248201527f526566657272616c2066616c6c6261636b206661696c656400000000000000006044820152606490fd5b604051630308a59b60e31b815260048101839052602081602481855afa839181613a78575b50613a14575b506138d5565b613a1f575b80613a0e565b803b15613a7457818591604460405180948193630a94beaf60e21b83528560048401528160248401525af19081613a65575b50613a5d575b38613a19565b506001613a57565b613a6e90612fdd565b38613a51565b5080fd5b9091506020813d602011613ab1575b81613a9460209383612ff0565b81010312613aad57518015158103613aad579038613a08565b8380fd5b3d9150613a87565b508415156138d0565b613ad0878260055416613d2e565b506138ad565b50565b908015613cac576127109182613aee8361371f565b049280613afa84613736565b049080613b068561374d565b0490613b1185613764565b0491613b298361388c8461388c8561388c8c8c613414565b60045490946001600160a01b0391613b449089908416613d2e565b15613c98575b613b58838360055416613d2e565b156116555760009082600354169081151580613c8f575b613bb3575b50501561397c57907fb0408084c3bedba3e8d953bb77c6a94967be600b80e336303286ec608beef62996826139148660c0999897969560065416613d2e565b604051630308a59b60e31b81529084166004820181905290602081602481865afa849181613c4e575b50613be8575b50613b74565b613bf3575b80613be2565b813b15613c4a578591604484926040519485938492630a94beaf60e21b845260048401528160248401525af19081613c3b575b50613c33575b3880613bed565b506001613c2c565b613c4490612fdd565b38613c26565b8280fd5b9091506020813d602011613c87575b81613c6a60209383612ff0565b81010312613c8357518015158103613c83579038613bdc565b8480fd5b3d9150613c5d565b50851515613b6f565b613ca6888360055416613d2e565b50613b4a565b5050565b9060009180835282602052604083209160018060a01b03169182845260205260ff60408420541615600014613d2957808352826020526040832082845260205260408320600160ff198254161790557f2f8788117e7eff1d82e926ec794901d17c78024a50270940304540a733656f0d339380a4600190565b505090565b81158015613d62575b613d5b576000918291829182916001600160a01b03165af1613d5761357c565b5090565b5050600190565b506001600160a01b03811615613d37565b9060009180835282602052604083209160018060a01b03169182845260205260ff604084205416600014613d295780835282602052604083208284526020526040832060ff1981541690557ff6391f5c32d9c69d2a47ea670b442974b53935d1edc7fd64eb21e047a839171b339380a4600190565b908115613e4257600180830180841161104e5760011c90835b848310613e0d57505050565b91935090838015613e2d5780613e24918304613407565b821c9190613e01565b60246000634e487b7160e01b81526012600452fd5b60009150565b91909215801561401a575b61401557600082815260209160178352604094858320600160ff1982541617905560158452858320928084549455831561400c57600b5482101580613ffa575b80613feb575b613f9e576005546001600160a01b039290613eb79086908516613d2e565b15613f6857917fda72f953286ba7cc589262a3784947d03b72f995532f32f6fc947b6338b1010495949391613f3293600b54119050600014613f37578751613efe81612fa6565b60118152703637bb96b830b93a34b1b4b830ba34b7b760791b86820152915b888051968796875286015216968301906130b6565b0390a3565b8751613f4281612fa6565b601481527318dc99585d1bdc8b5b9bdd0b5d995c9a599a595960621b8682015291613f1d565b875162461bcd60e51b815260048101879052600f60248201526e1499591a5c9958dd0819985a5b1959608a1b6044820152606490fd5b958091507f18838861d7156567eff99dbcb3f9017a036a5b48e7d6468608eec5abf3162fed94939260018060a01b0316968781526016855220613fe2838254613407565b905551908152a3565b50613ff583613421565b613e99565b506001600160a01b0383161515613e93565b50505050505050565b505050565b5081600052601760205260ff60406000205416613e5356fea2646970667358221220eaf16ffdc85fc41fa6631fd67f43a98e099d715b742e3504953a794b238e18c564736f6c634300081800332f8788117e7eff1d82e926ec794901d17c78024a50270940304540a733656f0d",
  "linkReferences": {},
  "deployedLinkReferences": {}
}