{
  "_format": "hh-sol-artifact-1",
  "contractName": "Prediction",
  "sourceName": "contracts/Prediction.sol",
  "abi": [
    {
      "inputs": [
        {
          "internalType": "address",
          "name": "_points",
          "type": "address"
        },
        {
          "internalType": "address",
          "name": "_treasury",
          "type": "address"
        }
      ],
      "stateMutability": "nonpayable",
      "type": "constructor"
    },
    {
      "inputs": [],
      "name": "AccessControlBadConfirmation",
      "type": "error"
    },
    {
      "inputs": [
        {
          "internalType": "address",
          "name": "account",
          "type": "address"
        },
        {
          "internalType": "bytes32",
          "name": "neededRole",
          "type": "bytes32"
        }
      ],
      "name": "AccessControlUnauthorizedAccount",
      "type": "error"
    },
    {
      "anonymous": false,
      "inputs": [
        {
          "indexed": true,
          "internalType": "uint256",
          "name": "id",
          "type": "uint256"
        },
        {
          "indexed": false,
          "internalType": "string",
          "name": "title",
          "type": "string"
        },
        {
          "indexed": false,
          "internalType": "enum Prediction.Category",
          "name": "category",
          "type": "uint8"
        },
        {
          "indexed": false,
          "internalType": "uint256",
          "name": "deadline",
          "type": "uint256"
        }
      ],
      "name": "EventCreated",
      "type": "event"
    },
    {
      "anonymous": false,
      "inputs": [
        {
          "indexed": true,
          "internalType": "uint256",
          "name": "id",
          "type": "uint256"
        },
        {
          "indexed": false,
          "internalType": "uint256",
          "name": "from",
          "type": "uint256"
        },
        {
          "indexed": false,
          "internalType": "uint256",
          "name": "to",
          "type": "uint256"
        },
        {
          "indexed": false,
          "internalType": "uint256",
          "name": "total",
          "type": "uint256"
        }
      ],
      "name": "EventResolutionProgress",
      "type": "event"
    },
    {
      "anonymous": false,
      "inputs": [
        {
          "indexed": true,
          "internalType": "uint256",
          "name": "id",
          "type": "uint256"
        },
        {
          "indexed": false,
          "internalType": "bool",
          "name": "outcome",
          "type": "bool"
        },
        {
          "indexed": false,
          "internalType": "uint256",
          "name": "voters",
          "type": "uint256"
        }
      ],
      "name": "EventResolutionStarted",
      "type": "event"
    },
    {
      "anonymous": false,
      "inputs": [
        {
          "indexed": true,
          "internalType": "uint256",
          "name": "id",
          "type": "uint256"
        },
        {
          "indexed": false,
          "internalType": "bool",
          "name": "outcome",
          "type": "bool"
        },
        {
          "indexed": false,
          "internalType": "uint256",
          "name": "winnersCount",
          "type": "uint256"
        }
      ],
      "name": "EventResolved",
      "type": "event"
    },
    {
      "anonymous": false,
      "inputs": [
        {
          "indexed": true,
          "internalType": "bytes32",
          "name": "role",
          "type": "bytes32"
        },
        {
          "indexed": true,
          "internalType": "bytes32",
          "name": "previousAdminRole",
          "type": "bytes32"
        },
        {
          "indexed": true,
          "internalType": "bytes32",
          "name": "newAdminRole",
          "type": "bytes32"
        }
      ],
      "name": "RoleAdminChanged",
      "type": "event"
    },
    {
      "anonymous": false,
      "inputs": [
        {
          "indexed": true,
          "internalType": "bytes32",
          "name": "role",
          "type": "bytes32"
        },
        {
          "indexed": true,
          "internalType": "address",
          "name": "account",
          "type": "address"
        },
        {
          "indexed": true,
          "internalType": "address",
          "name": "sender",
          "type": "address"
        }
      ],
      "name": "RoleGranted",
      "type": "event"
    },
    {
      "anonymous": false,
      "inputs": [
        {
          "indexed": true,
          "internalType": "bytes32",
          "name": "role",
          "type": "bytes32"
        },
        {
          "indexed": true,
          "internalType": "address",
          "name": "account",
          "type": "address"
        },
        {
          "indexed": true,
          "internalType": "address",
          "name": "sender",
          "type": "address"
        }
      ],
      "name": "RoleRevoked",
      "type": "event"
    },
    {
      "anonymous": false,
      "inputs": [
        {
          "indexed": true,
          "internalType": "uint256",
          "name": "id",
          "type": "uint256"
        },
        {
          "indexed": true,
          "internalType": "address",
          "name": "creator",
          "type": "address"
        },
        {
          "indexed": false,
          "internalType": "uint256",
          "name": "feePaid",
          "type": "uint256"
        },
        {
          "indexed": false,
          "internalType": "uint256",
          "name": "nextAllowedAt",
          "type": "uint256"
        }
      ],
      "name": "UserEventCreated",
      "type": "event"
    },
    {
      "anonymous": false,
      "inputs": [
        {
          "indexed": true,
          "internalType": "uint256",
          "name": "eventId",
          "type": "uint256"
        },
        {
          "indexed": true,
          "internalType": "address",
          "name": "user",
          "type": "address"
        },
        {
          "indexed": false,
          "internalType": "bool",
          "name": "prediction",
          "type": "bool"
        }
      ],
      "name": "VoteSubmitted",
      "type": "event"
    },
    {
      "inputs": [],
      "name": "BEAT_AI_BONUS",
      "outputs": [
        {
          "internalType": "uint256",
          "name": "",
          "type": "uint256"
        }
      ],
      "stateMutability": "view",
      "type": "function"
    },
    {
      "inputs": [],
      "name": "CORRECT_BONUS",
      "outputs": [
        {
          "internalType": "uint256",
          "name": "",
          "type": "uint256"
        }
      ],
      "stateMutability": "view",
      "type": "function"
    },
    {
      "inputs": [],
      "name": "DAY",
      "outputs": [
        {
          "internalType": "uint256",
          "name": "",
          "type": "uint256"
        }
      ],
      "stateMutability": "view",
      "type": "function"
    },
    {
      "inputs": [],
      "name": "DEFAULT_ADMIN_ROLE",
      "outputs": [
        {
          "internalType": "bytes32",
          "name": "",
          "type": "bytes32"
        }
      ],
      "stateMutability": "view",
      "type": "function"
    },
    {
      "inputs": [],
      "name": "MAX_RESOLVE_BATCH",
      "outputs": [
        {
          "internalType": "uint256",
          "name": "",
          "type": "uint256"
        }
      ],
      "stateMutability": "view",
      "type": "function"
    },
    {
      "inputs": [],
      "name": "MAX_SOURCE_POLICY_LENGTH",
      "outputs": [
        {
          "internalType": "uint256",
          "name": "",
          "type": "uint256"
        }
      ],
      "stateMutability": "view",
      "type": "function"
    },
    {
      "inputs": [],
      "name": "MAX_TITLE_LENGTH",
      "outputs": [
        {
          "internalType": "uint256",
          "name": "",
          "type": "uint256"
        }
      ],
      "stateMutability": "view",
      "type": "function"
    },
    {
      "inputs": [],
      "name": "OPERATOR_ROLE",
      "outputs": [
        {
          "internalType": "bytes32",
          "name": "",
          "type": "bytes32"
        }
      ],
      "stateMutability": "view",
      "type": "function"
    },
    {
      "inputs": [],
      "name": "USER_EVENT_COOLDOWN",
      "outputs": [
        {
          "internalType": "uint256",
          "name": "",
          "type": "uint256"
        }
      ],
      "stateMutability": "view",
      "type": "function"
    },
    {
      "inputs": [],
      "name": "USER_EVENT_FEE",
      "outputs": [
        {
          "internalType": "uint256",
          "name": "",
          "type": "uint256"
        }
      ],
      "stateMutability": "view",
      "type": "function"
    },
    {
      "inputs": [],
      "name": "VERIFIED_CREATOR_COOLDOWN",
      "outputs": [
        {
          "internalType": "uint256",
          "name": "",
          "type": "uint256"
        }
      ],
      "stateMutability": "view",
      "type": "function"
    },
    {
      "inputs": [],
      "name": "VERIFIED_MIN_POINTS",
      "outputs": [
        {
          "internalType": "uint256",
          "name": "",
          "type": "uint256"
        }
      ],
      "stateMutability": "view",
      "type": "function"
    },
    {
      "inputs": [
        {
          "internalType": "string",
          "name": "title",
          "type": "string"
        },
        {
          "internalType": "enum Prediction.Category",
          "name": "category",
          "type": "uint8"
        },
        {
          "internalType": "uint256",
          "name": "deadline",
          "type": "uint256"
        },
        {
          "internalType": "uint256",
          "name": "aiProbability",
          "type": "uint256"
        }
      ],
      "name": "createEvent",
      "outputs": [
        {
          "internalType": "uint256",
          "name": "",
          "type": "uint256"
        }
      ],
      "stateMutability": "nonpayable",
      "type": "function"
    },
    {
      "inputs": [
        {
          "internalType": "string",
          "name": "title",
          "type": "string"
        },
        {
          "internalType": "enum Prediction.Category",
          "name": "category",
          "type": "uint8"
        },
        {
          "internalType": "uint256",
          "name": "deadline",
          "type": "uint256"
        },
        {
          "internalType": "string",
          "name": "sourcePolicy",
          "type": "string"
        }
      ],
      "name": "createUserEvent",
      "outputs": [
        {
          "internalType": "uint256",
          "name": "",
          "type": "uint256"
        }
      ],
      "stateMutability": "payable",
      "type": "function"
    },
    {
      "inputs": [],
      "name": "eventCount",
      "outputs": [
        {
          "internalType": "uint256",
          "name": "",
          "type": "uint256"
        }
      ],
      "stateMutability": "view",
      "type": "function"
    },
    {
      "inputs": [
        {
          "internalType": "uint256",
          "name": "",
          "type": "uint256"
        },
        {
          "internalType": "uint256",
          "name": "",
          "type": "uint256"
        }
      ],
      "name": "eventVoters",
      "outputs": [
        {
          "internalType": "address",
          "name": "",
          "type": "address"
        }
      ],
      "stateMutability": "view",
      "type": "function"
    },
    {
      "inputs": [
        {
          "internalType": "uint256",
          "name": "",
          "type": "uint256"
        }
      ],
      "name": "events",
      "outputs": [
        {
          "internalType": "uint256",
          "name": "id",
          "type": "uint256"
        },
        {
          "internalType": "string",
          "name": "title",
          "type": "string"
        },
        {
          "internalType": "enum Prediction.Category",
          "name": "category",
          "type": "uint8"
        },
        {
          "internalType": "uint256",
          "name": "aiProbability",
          "type": "uint256"
        },
        {
          "internalType": "uint256",
          "name": "deadline",
          "type": "uint256"
        },
        {
          "internalType": "bool",
          "name": "resolved",
          "type": "bool"
        },
        {
          "internalType": "bool",
          "name": "outcome",
          "type": "bool"
        },
        {
          "internalType": "uint256",
          "name": "totalVotesYes",
          "type": "uint256"
        },
        {
          "internalType": "uint256",
          "name": "totalVotesNo",
          "type": "uint256"
        },
        {
          "internalType": "address",
          "name": "creator",
          "type": "address"
        },
        {
          "internalType": "bool",
          "name": "isUserEvent",
          "type": "bool"
        },
        {
          "internalType": "uint256",
          "name": "listingFee",
          "type": "uint256"
        },
        {
          "internalType": "string",
          "name": "sourcePolicy",
          "type": "string"
        }
      ],
      "stateMutability": "view",
      "type": "function"
    },
    {
      "inputs": [
        {
          "internalType": "uint256",
          "name": "limit",
          "type": "uint256"
        }
      ],
      "name": "getActiveEvents",
      "outputs": [
        {
          "components": [
            {
              "internalType": "uint256",
              "name": "id",
              "type": "uint256"
            },
            {
              "internalType": "string",
              "name": "title",
              "type": "string"
            },
            {
              "internalType": "enum Prediction.Category",
              "name": "category",
              "type": "uint8"
            },
            {
              "internalType": "uint256",
              "name": "aiProbability",
              "type": "uint256"
            },
            {
              "internalType": "uint256",
              "name": "deadline",
              "type": "uint256"
            },
            {
              "internalType": "bool",
              "name": "resolved",
              "type": "bool"
            },
            {
              "internalType": "bool",
              "name": "outcome",
              "type": "bool"
            },
            {
              "internalType": "uint256",
              "name": "totalVotesYes",
              "type": "uint256"
            },
            {
              "internalType": "uint256",
              "name": "totalVotesNo",
              "type": "uint256"
            },
            {
              "internalType": "address",
              "name": "creator",
              "type": "address"
            },
            {
              "internalType": "bool",
              "name": "isUserEvent",
              "type": "bool"
            },
            {
              "internalType": "uint256",
              "name": "listingFee",
              "type": "uint256"
            },
            {
              "internalType": "string",
              "name": "sourcePolicy",
              "type": "string"
            }
          ],
          "internalType": "struct Prediction.PredictionEvent[]",
          "name": "",
          "type": "tuple[]"
        }
      ],
      "stateMutability": "view",
      "type": "function"
    },
    {
      "inputs": [
        {
          "internalType": "address",
          "name": "user",
          "type": "address"
        }
      ],
      "name": "getCreatorCooldown",
      "outputs": [
        {
          "internalType": "uint256",
          "name": "",
          "type": "uint256"
        }
      ],
      "stateMutability": "view",
      "type": "function"
    },
    {
      "inputs": [
        {
          "internalType": "uint256",
          "name": "eventId",
          "type": "uint256"
        }
      ],
      "name": "getEvent",
      "outputs": [
        {
          "components": [
            {
              "internalType": "uint256",
              "name": "id",
              "type": "uint256"
            },
            {
              "internalType": "string",
              "name": "title",
              "type": "string"
            },
            {
              "internalType": "enum Prediction.Category",
              "name": "category",
              "type": "uint8"
            },
            {
              "internalType": "uint256",
              "name": "aiProbability",
              "type": "uint256"
            },
            {
              "internalType": "uint256",
              "name": "deadline",
              "type": "uint256"
            },
            {
              "internalType": "bool",
              "name": "resolved",
              "type": "bool"
            },
            {
              "internalType": "bool",
              "name": "outcome",
              "type": "bool"
            },
            {
              "internalType": "uint256",
              "name": "totalVotesYes",
              "type": "uint256"
            },
            {
              "internalType": "uint256",
              "name": "totalVotesNo",
              "type": "uint256"
            },
            {
              "internalType": "address",
              "name": "creator",
              "type": "address"
            },
            {
              "internalType": "bool",
              "name": "isUserEvent",
              "type": "bool"
            },
            {
              "internalType": "uint256",
              "name": "listingFee",
              "type": "uint256"
            },
            {
              "internalType": "string",
              "name": "sourcePolicy",
              "type": "string"
            }
          ],
          "internalType": "struct Prediction.PredictionEvent",
          "name": "",
          "type": "tuple"
        }
      ],
      "stateMutability": "view",
      "type": "function"
    },
    {
      "inputs": [
        {
          "internalType": "bytes32",
          "name": "role",
          "type": "bytes32"
        }
      ],
      "name": "getRoleAdmin",
      "outputs": [
        {
          "internalType": "bytes32",
          "name": "",
          "type": "bytes32"
        }
      ],
      "stateMutability": "view",
      "type": "function"
    },
    {
      "inputs": [
        {
          "internalType": "uint256",
          "name": "eventId",
          "type": "uint256"
        },
        {
          "internalType": "address",
          "name": "user",
          "type": "address"
        }
      ],
      "name": "getUserVote",
      "outputs": [
        {
          "components": [
            {
              "internalType": "bool",
              "name": "voted",
              "type": "bool"
            },
            {
              "internalType": "bool",
              "name": "prediction",
              "type": "bool"
            }
          ],
          "internalType": "struct Prediction.UserVote",
          "name": "",
          "type": "tuple"
        }
      ],
      "stateMutability": "view",
      "type": "function"
    },
    {
      "inputs": [
        {
          "internalType": "bytes32",
          "name": "role",
          "type": "bytes32"
        },
        {
          "internalType": "address",
          "name": "account",
          "type": "address"
        }
      ],
      "name": "grantRole",
      "outputs": [],
      "stateMutability": "nonpayable",
      "type": "function"
    },
    {
      "inputs": [
        {
          "internalType": "bytes32",
          "name": "role",
          "type": "bytes32"
        },
        {
          "internalType": "address",
          "name": "account",
          "type": "address"
        }
      ],
      "name": "hasRole",
      "outputs": [
        {
          "internalType": "bool",
          "name": "",
          "type": "bool"
        }
      ],
      "stateMutability": "view",
      "type": "function"
    },
    {
      "inputs": [
        {
          "internalType": "address",
          "name": "user",
          "type": "address"
        }
      ],
      "name": "isVerifiedCreator",
      "outputs": [
        {
          "internalType": "bool",
          "name": "",
          "type": "bool"
        }
      ],
      "stateMutability": "view",
      "type": "function"
    },
    {
      "inputs": [
        {
          "internalType": "address",
          "name": "",
          "type": "address"
        }
      ],
      "name": "nextUserEventAt",
      "outputs": [
        {
          "internalType": "uint256",
          "name": "",
          "type": "uint256"
        }
      ],
      "stateMutability": "view",
      "type": "function"
    },
    {
      "inputs": [],
      "name": "pointsContract",
      "outputs": [
        {
          "internalType": "contract IPoints",
          "name": "",
          "type": "address"
        }
      ],
      "stateMutability": "view",
      "type": "function"
    },
    {
      "inputs": [
        {
          "internalType": "bytes32",
          "name": "role",
          "type": "bytes32"
        },
        {
          "internalType": "address",
          "name": "callerConfirmation",
          "type": "address"
        }
      ],
      "name": "renounceRole",
      "outputs": [],
      "stateMutability": "nonpayable",
      "type": "function"
    },
    {
      "inputs": [
        {
          "internalType": "uint256",
          "name": "",
          "type": "uint256"
        }
      ],
      "name": "resolveCursor",
      "outputs": [
        {
          "internalType": "uint256",
          "name": "",
          "type": "uint256"
        }
      ],
      "stateMutability": "view",
      "type": "function"
    },
    {
      "inputs": [
        {
          "internalType": "uint256",
          "name": "eventId",
          "type": "uint256"
        },
        {
          "internalType": "bool",
          "name": "actualOutcome",
          "type": "bool"
        }
      ],
      "name": "resolveEvent",
      "outputs": [],
      "stateMutability": "nonpayable",
      "type": "function"
    },
    {
      "inputs": [
        {
          "internalType": "uint256",
          "name": "eventId",
          "type": "uint256"
        },
        {
          "internalType": "bool",
          "name": "actualOutcome",
          "type": "bool"
        },
        {
          "internalType": "uint256",
          "name": "maxBatch",
          "type": "uint256"
        }
      ],
      "name": "resolveEventBatch",
      "outputs": [],
      "stateMutability": "nonpayable",
      "type": "function"
    },
    {
      "inputs": [
        {
          "internalType": "uint256",
          "name": "",
          "type": "uint256"
        }
      ],
      "name": "resolveInProgress",
      "outputs": [
        {
          "internalType": "bool",
          "name": "",
          "type": "bool"
        }
      ],
      "stateMutability": "view",
      "type": "function"
    },
    {
      "inputs": [
        {
          "internalType": "uint256",
          "name": "",
          "type": "uint256"
        }
      ],
      "name": "resolvedWinners",
      "outputs": [
        {
          "internalType": "uint256",
          "name": "",
          "type": "uint256"
        }
      ],
      "stateMutability": "view",
      "type": "function"
    },
    {
      "inputs": [
        {
          "internalType": "bytes32",
          "name": "role",
          "type": "bytes32"
        },
        {
          "internalType": "address",
          "name": "account",
          "type": "address"
        }
      ],
      "name": "revokeRole",
      "outputs": [],
      "stateMutability": "nonpayable",
      "type": "function"
    },
    {
      "inputs": [
        {
          "internalType": "uint256",
          "name": "eventId",
          "type": "uint256"
        },
        {
          "internalType": "bool",
          "name": "_prediction",
          "type": "bool"
        }
      ],
      "name": "submitPrediction",
      "outputs": [],
      "stateMutability": "nonpayable",
      "type": "function"
    },
    {
      "inputs": [
        {
          "internalType": "bytes4",
          "name": "interfaceId",
          "type": "bytes4"
        }
      ],
      "name": "supportsInterface",
      "outputs": [
        {
          "internalType": "bool",
          "name": "",
          "type": "bool"
        }
      ],
      "stateMutability": "view",
      "type": "function"
    },
    {
      "inputs": [],
      "name": "treasury",
      "outputs": [
        {
          "internalType": "address",
          "name": "",
          "type": "address"
        }
      ],
      "stateMutability": "view",
      "type": "function"
    },
    {
      "inputs": [
        {
          "internalType": "uint256",
          "name": "",
          "type": "uint256"
        },
        {
          "internalType": "address",
          "name": "",
          "type": "address"
        }
      ],
      "name": "userVotes",
      "outputs": [
        {
          "internalType": "bool",
          "name": "voted",
          "type": "bool"
        },
        {
          "internalType": "bool",
          "name": "prediction",
          "type": "bool"
        }
      ],
      "stateMutability": "view",
      "type": "function"
    }
  ],
  "bytecode": "0x608034620000e957601f62002bca38819003918201601f19168301916001600160401b03831184841017620000ee578084926040948552833981010312620000e957806200004f60209262000104565b6001600160a01b03929091839162000068910162000104565b16918215620000b4576200007c3362000119565b50620000883362000199565b5060018060a01b03199116816001541617600155600254161760025560405161296e90816200023c8239f35b60405162461bcd60e51b815260206004820152600d60248201526c5a65726f20747265617375727960981b6044820152606490fd5b600080fd5b634e487b7160e01b600052604160045260246000fd5b51906001600160a01b0382168203620000e957565b6001600160a01b031660008181527fad3228b676f7d3cd4284a5443f17f1962b36e491b30a40b2405849e597ba5fb5602052604081205490919060ff166200019557818052816020526040822081835260205260408220600160ff19825416179055339160008051602062002baa8339815191528180a4600190565b5090565b6001600160a01b031660008181527fee57cd81e84075558e8fcc182a1f4393f91fc97f963a136e66b7f949a62f319f60205260408120549091907f97667070c54ef182b0f5858b034beac1b6f3089aa2d3188bb1e8929f4fa9b9299060ff166200023657808352826020526040832082845260205260408320600160ff1982541617905560008051602062002baa833981519152339380a4600190565b50509056fe608080604052600436101561001357600080fd5b60003560e01c90816301ffc9a7146120d15750806303c7881a1461204b5780630b79143014611f4f57806319e1b30814611f3357806322a8f40714611c6b578063235887a714611c4f578063248a9ca314611c2057806327cfe856146102c457806327dce14014611c035780632b4f8a1f14611bda5780632ef9a16014611bbe5780632f2ff15d14611b7f57806336568abe14611b3857806344007c601461177357806350dcf827146117465780635a23699a1461172957806361d027b314611700578063660405c7146116de578063686737bd146116b257806369bf402e146114f15780636d1884e0146114a457806371be2e4a146114865780637dd9f77914610d705780638a0ae57114610d45578063915439fb146108f557806391d14854146108a8578063952fd1301461088b578063a217fddf1461086f578063c2e93021146103a4578063d547741f14610363578063e0397fd114610311578063e38e4394146102e5578063efd79b13146102c9578063f1ec3538146102c4578063f300695514610293578063f5b541a614610258578063f7227bf01461021e5763fe5b3e3b146101c157600080fd5b34610219576040366003190112610219576101da612124565b600435600052600560205260406000209060018060a01b03166000526020526040806000205460ff8251918181161515835260081c1615156020820152f35b600080fd5b34610219576020366003190112610219576001600160a01b0361023f61213a565b1660005260076020526020604060002054604051908152f35b346102195760003660031901126102195760206040517f97667070c54ef182b0f5858b034beac1b6f3089aa2d3188bb1e8929f4fa9b9298152f35b34610219576020366003190112610219576004356000526008602052602060ff604060002054166040519015158152f35b6122f6565b3461021957600036600319011261021957602060405160328152f35b346102195760203660031901126102195760043560005260096020526020604060002054604051908152f35b34610219576040366003190112610219576024356004356000526006602052604060002080548210156102195760209161034a916123f9565b905460405160039290921b1c6001600160a01b03168152f35b34610219576040366003190112610219576103a2600435610382612124565b9080600052600060205261039d60016040600020015461281f565b6128c3565b005b34610219576080366003190112610219576004356001600160401b038111610219576103d49036906004016123cc565b60056024351015610219576103e76127a5565b6103f442604435116124a4565b606480351161083457610408600354612513565b91826003556040519261041a846121a5565b808452610428368484612716565b602085015261043c60243560408601612625565b60643560608501526044356080850152600060a0850152600060c0850152600060e085015260006101008501526000610120850152600061014085015260006101608501526040518060208101106001600160401b03602083011117610738576020810160405260008152610180850152600052600460205260406000208351815560208401518051906001600160401b0382116107385781906104e36001850154612150565b601f81116107e1575b50602090601f831160011461076f57600092610764575b50508160011b916000199060031b1c19161760018201555b6040840151600581101561074e5760028201805460ff92831660ff19909116179055606085015160038301556080850151600483015560a085015160058301805460c088015192151590931661ffff199093169290921790151560081b61ff001617905561018090600a9060e0860151600682015561010086015160078201556008810160018060a01b036101208801511681549060ff60a01b6101408a0151151560a01b16916affffffffffffffffffffff60a81b16171790556101608601516009820155019301519283516001600160401b038111610738576106008254612150565b601f81116106f0575b50806020958690601f831160011461068c57600092610681575b50508160011b916000199060031b1c19161790555b7f72bae727b73e364af0cb466b245c122933bcab17b146472cfe58866364ac918660035492839261067660405192839260443591602435918561274d565b0390a2604051908152f35b015190508680610623565b60008581528881209350601f198516905b8181106106d957509084600195949392106106c0575b505050811b019055610638565b015160001960f88460031b161c191690558680806106b3565b92938960018192878601518155019501930161069d565b826000526020600020601f830160051c8101916020841061072e575b601f0160051c01905b8181106107225750610609565b60008155600101610715565b909150819061070c565b634e487b7160e01b600052604160045260246000fd5b634e487b7160e01b600052602160045260246000fd5b015190508680610503565b9250600184016000526020600020906000935b601f19841685106107c6576001945083601f198116106107ad575b505050811b01600182015561051b565b015160001960f88460031b161c1916905586808061079d565b81810151835560209485019460019093019290910190610782565b909150600184016000526020600020601f840160051c81016020851061082d575b90849392915b601f830160051c8201811061081e5750506104ec565b60008155859450600101610808565b5080610802565b60405162461bcd60e51b8152602060048201526013602482015272496e76616c69642070726f626162696c69747960681b6044820152606490fd5b3461021957600036600319011261021957602060405160008152f35b346102195760003660031901126102195760206040516170808152f35b34610219576040366003190112610219576108c1612124565b600435600052600060205260406000209060018060a01b0316600052602052602060ff604060002054166040519015158152f35b34610219576040366003190112610219576004356109116122e7565b6109196127a5565b8160005260206004815260406000209161093583541515612427565b600590600584019160ff9461094d8685541615612465565b60048101544210610d0e57866000526006855286604060002091600894600888526040600020918254928a841615610c7b575b50505050600052600985526040600020549261012c840192838511610c65578254808511610c5d575b5090889291855b858110610ac35750505060607f6171764cbb08398c2e63b336dc0c0bd2cfa73f565cd4330857e56b8c6cede37c9183600052600988528460406000205554946040519081528488820152856040820152a214610a0857005b7fa20711274bb36f7685d0dc92e106040933e80977976707f98eaba50a8a5fb6a292600a9160ff1960018183541617825586600052600b8552610a658360406000205416839061ff00825491151560081b169061ff001916179055565b600885526040600020818154169055600b85526040600020818154169055600c855260406000209081541690555460081c16915260406000205490610abe60405192839283602090939291936040810194151581520152565b0390a2005b90919293600052818852604060002090610add81866123f9565b909260018060a01b03809454600393841b1c166000528a528960406000208c60405191610b098361218a565b5481811615158352881c16151591829101528c600052600b8b528b60406000205416151514600014610bef578b600052600a8a526040600020610b4c8154612513565b905560328c600052600c8b528b6040600020541615610be7575b6001938085541692610b78858a6123f9565b9054911b1c1691803b156102195760009283606492604051978895869463167e950f60e21b86526004860152602485015260448401525af1918215610bdb57600192610bcc575b505b0190899392916109b0565b610bd5906121c1565b8b610bbf565b6040513d6000823e3d90fd5b506096610b66565b91806001541692610c0083886123f9565b9054911b1c16823b156102195760009260648492604051958693849263167e950f60e21b845260048401528160248401528160448401525af1918215610bdb57600192610c4e575b50610bc1565b610c57906121c1565b8b610c48565b9350896109a9565b634e487b7160e01b600052601160045260246000fd5b6003610cef9260329260017fe3e5219c85bd3f866871843718a98dd1828b2015f20323fb7e1e2702a3a7a15f9760ff1916179055600b8c52610ccd8560406000209060ff801983541691151516179055565b01541015600c8a528215151460406000209060ff801983541691151516179055565b8354604080519215158352602083019190915290a28688808080610980565b60405162461bcd60e51b815260048101869052600f60248201526e4265666f726520646561646c696e6560881b6044820152606490fd5b34610219576020366003190112610219576020610d68610d6361213a565b61278b565b604051908152f35b6080366003190112610219576004356001600160401b03811161021957610d9b9036906004016123cc565b60056024351015610219576064356001600160401b03811161021957610dc59036906004016123cc565b600a83118061147b575b1561143f5780151580611434575b156113fe576605543df729c00034036113cb576102584201804211610c6557604435111561139257621275004201804211610c6557604435101561135a57610e243361278b565b91336000526007602052604060002054421061132357610ec5610e48600354612513565b918260035560405193610e5a856121a5565b838552610e6836888a612716565b6020860152610e7c60243560408701612625565b603260608601526044356080860152600060a0860152600060c0860152600060e08601526000610100860152336101208601526001610140860152346101608601523691612716565b61018083015260005260046020526040600020908051825560208101518051906001600160401b038211610738578190610f026001860154612150565b601f81116112d0575b50602090601f831160011461125e57600092611253575b50508160011b916000199060031b1c19161760018301555b604081015190600582101561074e5760028301805460ff93841660ff19909116179055606081015160038401556080810151600484015560a081015160058401805460c084015192151590941661ffff199094169390931790151560081b61ff0016179091556101809060e0810151600684015561010081015160078401556008830160018060a01b036101208301511681549060ff60a01b610140850151151560a01b16916affffffffffffffffffffff60a81b1617179055610160810151600984015501518051906001600160401b0382116107385761101f600a840154612150565b601f811161120c575b50602090601f8311600114611197579180600a9261106696959460009261118c575b50508160011b916000199060031b1c1916179101555b426126ee565b33600052600760205260406000205560008080803460018060a01b03600254165af13d15611187573d611098816126fb565b906110a660405192836121d4565b8152600060203d92013e5b15611142576020917f72bae727b73e364af0cb466b245c122933bcab17b146472cfe58866364ac91866003549283926110f760405192839260443591602435918561274d565b0390a233600052600782526040600020546040519034825283820152817fe09334ee823ea42272048484483a341bdf193b03b00e4b17b293095d8c44304d60403393a3604051908152f35b60405162461bcd60e51b815260206004820152601860248201527f5472656173757279207472616e73666572206661696c656400000000000000006044820152606490fd5b6110b1565b01519050888061104a565b90600a840160005260206000209160005b601f19851681106111f4575092600a9260019261106697969583601f198116106111db575b505050811b01910155611060565b015160001960f88460031b161c191690558880806111cd565b919260206001819286850151815501940192016111a8565b600a84016000526020600020601f840160051c81016020851061124c575b601f830160051c82018110611240575050611028565b6000815560010161122a565b508061122a565b015190508780610f22565b9250600185016000526020600020906000935b601f19841685106112b5576001945083601f1981161061129c575b505050811b016001830155610f3a565b015160001960f88460031b161c1916905587808061128c565b81810151835560209485019460019093019290910190611271565b909150600185016000526020600020601f840160051c81016020851061131c575b90849392915b601f830160051c8201811061130d575050610f0b565b600081558594506001016112f7565b50806112f1565b60405162461bcd60e51b815260206004820152600f60248201526e436f6f6c646f776e2061637469766560881b6044820152606490fd5b60405162461bcd60e51b815260206004820152601060248201526f2232b0b23634b732903a37b7903330b960811b6044820152606490fd5b60405162461bcd60e51b81526020600482015260116024820152702232b0b23634b732903a37b79039b7b7b760791b6044820152606490fd5b60405162461bcd60e51b815260206004820152600b60248201526a496e76616c69642066656560a81b6044820152606490fd5b60405162461bcd60e51b815260206004820152600e60248201526d496e76616c696420736f7572636560901b6044820152606490fd5b506078811115610ddd565b60405162461bcd60e51b8152602060048201526014602482015273092dcecc2d8d2c840e8d2e8d8ca40d8cadccee8d60631b6044820152606490fd5b5060b4831115610dcf565b34610219576000366003190112610219576020600354604051908152f35b34610219576020366003190112610219576114bd6125b1565b5060043560005260046020526114ed6114d96040600020612631565b604051918291602083526020830190612314565b0390f35b3461021957602080600319360112610219576004356000600354805b801515806116a9575b1561156f578060005260048552604060002060ff600582015416159081611561575b5061154c575b6115479061258d565b61150d565b9161155961154791612513565b92905061153e565b600491500154421086611538565b84838361157b8261259a565b9061158960405192836121d4565b8282526115958361259a565b601f19018460005b8281106116935750505060005b8115158061168a575b1561162c57816000526004855260406000209160ff600584015416158061161f575b6115eb575b6115e591925061258d565b906115aa565b611616826116056115ff6115e59592612513565b95612631565b61160f8288612611565b5285612611565b508291506115da565b50600483015442106115d5565b604080518681528451818801819052600092600582901b8301810191878a01918a9085015b82871061165e5785850386f35b90919293828061167a600193603f198a82030186528851612314565b9601920196019592919092611651565b508381106115b3565b61169b6125b1565b82828701015201859061159d565b50838310611516565b3461021957602036600319011261021957600435600052600a6020526020604060002054604051908152f35b346102195760003660031901126102195760206040516605543df729c0008152f35b34610219576000366003190112610219576002546040516001600160a01b039091168152602090f35b3461021957600036600319011261021957602060405161012c8152f35b3461021957602036600319011261021957602061176961176461213a565b612522565b6040519015158152f35b346102195760603660031901126102195760043561178f6122e7565b604480359061179c6127a5565b81151580611b2c575b15611afb5783600052602091600483526040600020936117c785541515612427565b600594600581019360ff966117df8887541615612465565b60048301544210611ac45788600052600687528860406000209360089560088a5260406000208a8154918d831615611a30575b50505050506000526009875261182e60406000205495866126ee565b938354808611611a28575b509089939291865b86811061189a575050505060607f6171764cbb08398c2e63b336dc0c0bd2cfa73f565cd4330857e56b8c6cede37c9183600052600988528460406000205554946040519081528488820152856040820152a214610a0857005b90919293946000528289526040600020906118b581876123f9565b909260018060a01b03809454600393841b1c166000528b528a60406000208d604051916118e18361218a565b5481811615158352871c16151591829101528d600052600b8c528c604060002054161515146000146119bb578c600052600a8b5260406000206119248154612513565b905560328d600052600c8c528c60406000205416156119b3575b6001938085541692611950858b6123f9565b9054911b1c1691803b156102195760009283606492604051978895869463167e950f60e21b8652600486015260248501528b8401525af1918215610bdb576001926119a4575b505b01908a94939291611841565b6119ad906121c1565b8c611996565b50609661193e565b918060015416926119cc83896123f9565b9054911b1c16823b156102195760009260648492604051958693849263167e950f60e21b84526004840152816024840152818b8401525af1918215610bdb57600192611a19575b50611998565b611a22906121c1565b8c611a13565b94508a611839565b7fe3e5219c85bd3f866871843718a98dd1828b2015f20323fb7e1e2702a3a7a15f94600b6032936003936001611aa49760ff191617905552611a828560406000209060ff801983541691151516179055565b01541015600c8c528215151460406000209060ff801983541691151516179055565b8554604080519215158352602083019190915290a2888a80808a81611812565b60405162461bcd60e51b815260048101889052600f60248201526e4265666f726520646561646c696e6560881b6044820152606490fd5b60405162461bcd60e51b8152602060048201526009602482015268084c2c840c4c2e8c6d60bb1b6044820152606490fd5b506103e88211156117a5565b3461021957604036600319011261021957611b51612124565b336001600160a01b03821603611b6d576103a2906004356128c3565b60405163334bd91960e11b8152600490fd5b34610219576040366003190112610219576103a2600435611b9e612124565b90806000526000602052611bb960016040600020015461281f565b612845565b3461021957600036600319011261021957602060405160b48152f35b34610219576000366003190112610219576001546040516001600160a01b039091168152602090f35b346102195760003660031901126102195760206040516113888152f35b346102195760203660031901126102195760043560005260006020526020600160406000200154604051908152f35b3461021957600036600319011261021957602060405160788152f35b3461021957604036600319011261021957600435611c876122e7565b9080600052602060048152604060002090611ca482541515612427565b611cb560ff60058401541615612465565b826000526008815260ff60406000205416611ef757611cd9600483015442106124a4565b8260005260058152604060002033600052815260ff60406000205416611ec35760015460405163543a185d60e11b81523360048201526001600160a01b03939160e0908290602490829088165afa908115610bdb57600091611e8d575b5062015180804204910403611e485760405194611d528661218a565b60018652611dac838701968215159788815287600052600586526040600020336000528652611d95604060002092511515839060ff801983541691151516179055565b51815461ff00191690151560081b61ff0016179055565b8460005260068352604060002093845494680100000000000000008610156107385785611dff9160017f7ae256270c354f1f830c52697713782ce51539e910d41781cbb063a49c42c0f9980181556123f9565b819291549060031b9133831b921b1916179055600014611e3457600601611e268154612513565b90555b6040519384523393a3005b600701611e418154612513565b9055611e29565b60405162461bcd60e51b815260048101839052601760248201527f436865636b2d696e20726571756972656420746f6461790000000000000000006044820152606490fd5b611eaf915060e03d60e011611ebc575b611ea781836121d4565b8101906124e0565b5050509250505086611d36565b503d611e9d565b6064906040519062461bcd60e51b82526004820152600d60248201526c105b1c9958591e481d9bdd1959609a1b6044820152fd5b6064906040519062461bcd60e51b8252600482015260156024820152745265736f6c76696e6720696e2070726f677265737360581b6044820152fd5b3461021957600036600319011261021957602060405160648152f35b346102195760203660031901126102195760043560005260046020526040600020805460018201611f7f906121f5565b91600281015460ff16600382015491600481015460058201546006830154600784015491600885015493600986015495600a01611fbb906121f5565b976040519a8b9a6101a0908c528060208d01528b01611fd99161229a565b9760408b01611fe7916122da565b60608a0152608089015260ff8116151560a089015260081c60ff16151560c088015260e0870152610100860152600160a01b60019003811661012086015260a01c60ff1615156101408501526101608401528281036101808401526114ed9161229a565b3461021957604036600319011261021957612064612124565b600060206040516120748161218a565b8281520152600435600052600560205260406000209060018060a01b03166000526020526040806000208151906120aa8261218a565b5460ff6020818316151593848152019160081c161515815282519182525115156020820152f35b34610219576020366003190112610219576004359063ffffffff60e01b821680920361021957602091637965db0b60e01b8114908115612113575b5015158152f35b6301ffc9a760e01b1490508361210c565b602435906001600160a01b038216820361021957565b600435906001600160a01b038216820361021957565b90600182811c92168015612180575b602083101461216a57565b634e487b7160e01b600052602260045260246000fd5b91607f169161215f565b604081019081106001600160401b0382111761073857604052565b6101a081019081106001600160401b0382111761073857604052565b6001600160401b03811161073857604052565b90601f801991011681019081106001600160401b0382111761073857604052565b9060405191826000825461220881612150565b908184526020946001916001811690816000146122785750600114612239575b505050612237925003836121d4565b565b600090815285812095935091905b8183106122605750506122379350820101388080612228565b85548884018501529485019487945091830191612247565b9250505061223794925060ff191682840152151560051b820101388080612228565b919082519283825260005b8481106122c6575050826000602080949584010152601f8019910116010190565b6020818301810151848301820152016122a5565b90600582101561074e5752565b60243590811515820361021957565b34610219576000366003190112610219576020604051620151808152f35b906123c9916123376101a08251845260208301519080602086015284019061229a565b9161234a604083015160408301906122da565b606082015160608201526080820151608082015260a0820151151560a082015260c0820151151560c082015260e082015160e0820152610100808301519082015261012060018060a01b03818401511690820152610140808301511515908201526101608083015190820152610180809201519181840391015261229a565b90565b9181601f84011215610219578235916001600160401b038311610219576020838186019501011161021957565b80548210156124115760005260206000200190600090565b634e487b7160e01b600052603260045260246000fd5b1561242e57565b60405162461bcd60e51b815260206004820152600f60248201526e115d995b9d081b9bdd08199bdd5b99608a1b6044820152606490fd5b1561246c57565b60405162461bcd60e51b815260206004820152601060248201526f105b1c9958591e481c995cdbdb1d995960821b6044820152606490fd5b156124ab57565b60405162461bcd60e51b815260206004820152600d60248201526c5061737420646561646c696e6560981b6044820152606490fd5b908160e09103126102195780519160208201519160408101519160608201519160808101519160c060a083015192015190565b6000198114610c655760010190565b60015460405163543a185d60e11b81526001600160a01b0392831660048201529160e09183916024918391165afa8015610bdb5761138891600091612568575b50101590565b612581915060e03d60e011611ebc57611ea781836121d4565b50505050505038612562565b8015610c65576000190190565b6001600160401b0381116107385760051b60200190565b604051906125be826121a5565b606061018083600080825283602083015280604083015280848301528060808301528060a08301528060c08301528060e08301528061010083015280610120830152806101408301526101608201520152565b80518210156124115760209160051b010190565b600582101561074e5752565b9060405161263e816121a5565b6101806126e9600a839580548552612658600182016121f5565b602086015261267160ff60028301541660408701612625565b600381015460608601526004810154608086015260ff6005820154818116151560a088015260081c16151560c0860152600681015460e0860152600781015461010086015260ff600882015460018060a01b03811661012088015260a01c1615156101408601526009810154610160860152016121f5565b910152565b91908201809211610c6557565b6001600160401b03811161073857601f01601f191660200190565b929192612722826126fb565b9161273060405193846121d4565b829481845281830111610219578281602093846000960137010152565b90608083604094612787939897969860608652816060870152838601376000848201830152601f01601f19168301019560208301906122da565b0152565b61279490612522565b61279f576201518090565b61708090565b3360009081527fee57cd81e84075558e8fcc182a1f4393f91fc97f963a136e66b7f949a62f319f60205260409020547f97667070c54ef182b0f5858b034beac1b6f3089aa2d3188bb1e8929f4fa9b9299060ff16156128015750565b6044906040519063e2517d3f60e01b82523360048301526024820152fd5b80600052600060205260406000203360005260205260ff60406000205416156128015750565b9060009180835282602052604083209160018060a01b03169182845260205260ff604084205416156000146128be57808352826020526040832082845260205260408320600160ff198254161790557f2f8788117e7eff1d82e926ec794901d17c78024a50270940304540a733656f0d339380a4600190565b505090565b9060009180835282602052604083209160018060a01b03169182845260205260ff6040842054166000146128be5780835282602052604083208284526020526040832060ff1981541690557ff6391f5c32d9c69d2a47ea670b442974b53935d1edc7fd64eb21e047a839171b339380a460019056fea26469706673582212201f61947282ff901d9a59d5573f970f8ed669375cd502ccc3686084605a13cfb664736f6c634300081800332f8788117e7eff1d82e926ec794901d17c78024a50270940304540a733656f0d",
  "linkReferences": {},
  "deployedLinkReferences": {}
}