{
  "_format": "hh-sol-artifact-1",
  "contractName": "CheckIn",
  "sourceName": "contracts/CheckIn.sol",
  "abi": [
    {
      "inputs": [
        {
          "internalType": "address",
          "name": "_points",
          "type": "address"
        },
        {
          "internalType": "address",
          "name": "_referral",
          "type": "address"
        },
        {
          "internalType": "address",
          "name": "_prizePool",
          "type": "address"
        },
        {
          "internalType": "address",
          "name": "_treasury",
          "type": "address"
        },
        {
          "internalType": "address",
          "name": "_burnReserve",
          "type": "address"
        },
        {
          "internalType": "address",
          "name": "_stakingRewards",
          "type": "address"
        }
      ],
      "stateMutability": "nonpayable",
      "type": "constructor"
    },
    {
      "inputs": [],
      "name": "EnforcedPause",
      "type": "error"
    },
    {
      "inputs": [],
      "name": "ExpectedPause",
      "type": "error"
    },
    {
      "inputs": [
        {
          "internalType": "address",
          "name": "owner",
          "type": "address"
        }
      ],
      "name": "OwnableInvalidOwner",
      "type": "error"
    },
    {
      "inputs": [
        {
          "internalType": "address",
          "name": "account",
          "type": "address"
        }
      ],
      "name": "OwnableUnauthorizedAccount",
      "type": "error"
    },
    {
      "inputs": [],
      "name": "ReentrancyGuardReentrantCall",
      "type": "error"
    },
    {
      "anonymous": false,
      "inputs": [
        {
          "indexed": true,
          "internalType": "address",
          "name": "user",
          "type": "address"
        },
        {
          "indexed": false,
          "internalType": "uint256",
          "name": "amount",
          "type": "uint256"
        },
        {
          "indexed": false,
          "internalType": "enum CheckIn.Tier",
          "name": "tier",
          "type": "uint8"
        },
        {
          "indexed": false,
          "internalType": "uint256",
          "name": "points",
          "type": "uint256"
        },
        {
          "indexed": false,
          "internalType": "uint256",
          "name": "streak",
          "type": "uint256"
        }
      ],
      "name": "CheckedIn",
      "type": "event"
    },
    {
      "anonymous": false,
      "inputs": [
        {
          "indexed": true,
          "internalType": "address",
          "name": "previousOwner",
          "type": "address"
        },
        {
          "indexed": true,
          "internalType": "address",
          "name": "newOwner",
          "type": "address"
        }
      ],
      "name": "OwnershipTransferred",
      "type": "event"
    },
    {
      "anonymous": false,
      "inputs": [
        {
          "indexed": false,
          "internalType": "address",
          "name": "account",
          "type": "address"
        }
      ],
      "name": "Paused",
      "type": "event"
    },
    {
      "anonymous": false,
      "inputs": [
        {
          "indexed": false,
          "internalType": "address",
          "name": "account",
          "type": "address"
        }
      ],
      "name": "Unpaused",
      "type": "event"
    },
    {
      "inputs": [],
      "name": "BASE_POINTS",
      "outputs": [
        {
          "internalType": "uint256",
          "name": "",
          "type": "uint256"
        }
      ],
      "stateMutability": "view",
      "type": "function"
    },
    {
      "inputs": [],
      "name": "BASIC_THRESHOLD",
      "outputs": [
        {
          "internalType": "uint256",
          "name": "",
          "type": "uint256"
        }
      ],
      "stateMutability": "view",
      "type": "function"
    },
    {
      "inputs": [],
      "name": "BURN_SHARE",
      "outputs": [
        {
          "internalType": "uint256",
          "name": "",
          "type": "uint256"
        }
      ],
      "stateMutability": "view",
      "type": "function"
    },
    {
      "inputs": [],
      "name": "DAY",
      "outputs": [
        {
          "internalType": "uint256",
          "name": "",
          "type": "uint256"
        }
      ],
      "stateMutability": "view",
      "type": "function"
    },
    {
      "inputs": [],
      "name": "PRIZE_SHARE",
      "outputs": [
        {
          "internalType": "uint256",
          "name": "",
          "type": "uint256"
        }
      ],
      "stateMutability": "view",
      "type": "function"
    },
    {
      "inputs": [],
      "name": "PRO_THRESHOLD",
      "outputs": [
        {
          "internalType": "uint256",
          "name": "",
          "type": "uint256"
        }
      ],
      "stateMutability": "view",
      "type": "function"
    },
    {
      "inputs": [],
      "name": "REFERRAL_SHARE",
      "outputs": [
        {
          "internalType": "uint256",
          "name": "",
          "type": "uint256"
        }
      ],
      "stateMutability": "view",
      "type": "function"
    },
    {
      "inputs": [],
      "name": "STAKING_SHARE",
      "outputs": [
        {
          "internalType": "uint256",
          "name": "",
          "type": "uint256"
        }
      ],
      "stateMutability": "view",
      "type": "function"
    },
    {
      "inputs": [],
      "name": "STREAK_CAP",
      "outputs": [
        {
          "internalType": "uint256",
          "name": "",
          "type": "uint256"
        }
      ],
      "stateMutability": "view",
      "type": "function"
    },
    {
      "inputs": [],
      "name": "TREASURY_SHARE",
      "outputs": [
        {
          "internalType": "uint256",
          "name": "",
          "type": "uint256"
        }
      ],
      "stateMutability": "view",
      "type": "function"
    },
    {
      "inputs": [],
      "name": "WHALE_THRESHOLD",
      "outputs": [
        {
          "internalType": "uint256",
          "name": "",
          "type": "uint256"
        }
      ],
      "stateMutability": "view",
      "type": "function"
    },
    {
      "inputs": [],
      "name": "burnReserve",
      "outputs": [
        {
          "internalType": "address",
          "name": "",
          "type": "address"
        }
      ],
      "stateMutability": "view",
      "type": "function"
    },
    {
      "inputs": [],
      "name": "checkIn",
      "outputs": [],
      "stateMutability": "payable",
      "type": "function"
    },
    {
      "inputs": [
        {
          "internalType": "address",
          "name": "user",
          "type": "address"
        }
      ],
      "name": "getRecord",
      "outputs": [
        {
          "components": [
            {
              "internalType": "uint256",
              "name": "lastCheckIn",
              "type": "uint256"
            },
            {
              "internalType": "uint256",
              "name": "streak",
              "type": "uint256"
            },
            {
              "internalType": "uint256",
              "name": "totalCheckIns",
              "type": "uint256"
            },
            {
              "internalType": "enum CheckIn.Tier",
              "name": "lastTier",
              "type": "uint8"
            }
          ],
          "internalType": "struct CheckIn.CheckInRecord",
          "name": "",
          "type": "tuple"
        }
      ],
      "stateMutability": "view",
      "type": "function"
    },
    {
      "inputs": [],
      "name": "owner",
      "outputs": [
        {
          "internalType": "address",
          "name": "",
          "type": "address"
        }
      ],
      "stateMutability": "view",
      "type": "function"
    },
    {
      "inputs": [],
      "name": "pause",
      "outputs": [],
      "stateMutability": "nonpayable",
      "type": "function"
    },
    {
      "inputs": [],
      "name": "paused",
      "outputs": [
        {
          "internalType": "bool",
          "name": "",
          "type": "bool"
        }
      ],
      "stateMutability": "view",
      "type": "function"
    },
    {
      "inputs": [],
      "name": "pointsContract",
      "outputs": [
        {
          "internalType": "contract IPointsCheckIn",
          "name": "",
          "type": "address"
        }
      ],
      "stateMutability": "view",
      "type": "function"
    },
    {
      "inputs": [],
      "name": "prizePool",
      "outputs": [
        {
          "internalType": "address",
          "name": "",
          "type": "address"
        }
      ],
      "stateMutability": "view",
      "type": "function"
    },
    {
      "inputs": [
        {
          "internalType": "address",
          "name": "",
          "type": "address"
        }
      ],
      "name": "records",
      "outputs": [
        {
          "internalType": "uint256",
          "name": "lastCheckIn",
          "type": "uint256"
        },
        {
          "internalType": "uint256",
          "name": "streak",
          "type": "uint256"
        },
        {
          "internalType": "uint256",
          "name": "totalCheckIns",
          "type": "uint256"
        },
        {
          "internalType": "enum CheckIn.Tier",
          "name": "lastTier",
          "type": "uint8"
        }
      ],
      "stateMutability": "view",
      "type": "function"
    },
    {
      "inputs": [],
      "name": "referralContract",
      "outputs": [
        {
          "internalType": "contract IReferral",
          "name": "",
          "type": "address"
        }
      ],
      "stateMutability": "view",
      "type": "function"
    },
    {
      "inputs": [],
      "name": "renounceOwnership",
      "outputs": [],
      "stateMutability": "nonpayable",
      "type": "function"
    },
    {
      "inputs": [
        {
          "internalType": "address",
          "name": "_prizePool",
          "type": "address"
        },
        {
          "internalType": "address",
          "name": "_treasury",
          "type": "address"
        },
        {
          "internalType": "address",
          "name": "_burnReserve",
          "type": "address"
        },
        {
          "internalType": "address",
          "name": "_stakingRewards",
          "type": "address"
        }
      ],
      "name": "setFeeReceivers",
      "outputs": [],
      "stateMutability": "nonpayable",
      "type": "function"
    },
    {
      "inputs": [
        {
          "internalType": "address",
          "name": "_points",
          "type": "address"
        }
      ],
      "name": "setPointsContract",
      "outputs": [],
      "stateMutability": "nonpayable",
      "type": "function"
    },
    {
      "inputs": [
        {
          "internalType": "address",
          "name": "_referral",
          "type": "address"
        }
      ],
      "name": "setReferralContract",
      "outputs": [],
      "stateMutability": "nonpayable",
      "type": "function"
    },
    {
      "inputs": [
        {
          "internalType": "address",
          "name": "_staking",
          "type": "address"
        }
      ],
      "name": "setStakingContract",
      "outputs": [],
      "stateMutability": "nonpayable",
      "type": "function"
    },
    {
      "inputs": [],
      "name": "stakingContract",
      "outputs": [
        {
          "internalType": "contract IStaking",
          "name": "",
          "type": "address"
        }
      ],
      "stateMutability": "view",
      "type": "function"
    },
    {
      "inputs": [],
      "name": "stakingRewards",
      "outputs": [
        {
          "internalType": "address",
          "name": "",
          "type": "address"
        }
      ],
      "stateMutability": "view",
      "type": "function"
    },
    {
      "inputs": [],
      "name": "totalCheckIns",
      "outputs": [
        {
          "internalType": "uint256",
          "name": "",
          "type": "uint256"
        }
      ],
      "stateMutability": "view",
      "type": "function"
    },
    {
      "inputs": [],
      "name": "totalFeesCollected",
      "outputs": [
        {
          "internalType": "uint256",
          "name": "",
          "type": "uint256"
        }
      ],
      "stateMutability": "view",
      "type": "function"
    },
    {
      "inputs": [
        {
          "internalType": "address",
          "name": "newOwner",
          "type": "address"
        }
      ],
      "name": "transferOwnership",
      "outputs": [],
      "stateMutability": "nonpayable",
      "type": "function"
    },
    {
      "inputs": [],
      "name": "treasury",
      "outputs": [
        {
          "internalType": "address",
          "name": "",
          "type": "address"
        }
      ],
      "stateMutability": "view",
      "type": "function"
    },
    {
      "inputs": [],
      "name": "unpause",
      "outputs": [],
      "stateMutability": "nonpayable",
      "type": "function"
    }
  ],
  "bytecode": "0x6080346200016b57601f620014f138819003918201601f19168301916001600160401b03831184841017620001705780849260c0946040528339810103126200016b576200004d8162000186565b6200005b6020830162000186565b916200006a6040820162000186565b90620000796060820162000186565b916200009660a06200008e6080850162000186565b930162000186565b91331562000152576000549560018060a01b039485809481809460018060a01b03199a8c8c339116176000556040519c833391167f8be0079c531659141344cd1fd0a4f28419497f9722a3daafe3b4186f6b6457e0600080a36001805560025490610100600160a81b039060081b169060018060a81b03191617600255168960035416176003551687600554161760055516856006541617600655168360075416176007551690600854161760085561135590816200019c8239f35b604051631e4fbdf760e01b815260006004820152602490fd5b600080fd5b634e487b7160e01b600052604160045260246000fd5b51906001600160a01b03821682036200016b5756fe6080604052600436101561001257600080fd5b6000803560e01c806306ad5a47146110de578063183ff085146109995780631ba867941461097c57806327cfe8561461095e5780632b4f8a1f1461093157806332696174146109145780633c8e556d146107a35780633f4ba83a14610738578063469e9067146106d35780634b6b0ddb146106b657806358e5a7c9146106945780635c975abb1461067157806360c6d8ae14610653578063617fba041461058757806361d027b31461055e57806364b87a70146105355780636c3b680314610519578063715018a6146104bf578063719ce73e146104965780637dad19db1461046d578063826dc1421461044b5780638456cb59146103f05780638da5cb5b146103c957806393b998fb146103ac57806395754abb146103205780639dd373b9146102e0578063a563eaa3146102c2578063b21b5a21146102a5578063b5ab1c5d14610289578063bf16257a14610260578063ee99205c14610237578063f2fde38b146101ac5763f47790d61461018857600080fd5b346101a957806003193601126101a957602060405166b1a2bc2ec500008152f35b80fd5b50346101a95760203660031901126101a9576101c661115a565b6101ce611240565b6001600160a01b0390811690811561021e57600054826001600160601b0360a01b821617600055167f8be0079c531659141344cd1fd0a4f28419497f9722a3daafe3b4186f6b6457e0600080a380f35b604051631e4fbdf760e01b815260048101849052602490fd5b50346101a957806003193601126101a9576004546040516001600160a01b039091168152602090f35b50346101a957806003193601126101a9576007546040516001600160a01b039091168152602090f35b50346101a957806003193601126101a957602060405160648152f35b50346101a957806003193601126101a95760206040516107d08152f35b50346101a957806003193601126101a9576020600a54604051908152f35b50346101a95760203660031901126101a9576102fa61115a565b610302611240565b60018060a01b03166001600160601b0360a01b600454161760045580f35b50346101a95760203660031901126101a95761033a61115a565b610342611240565b6001600160a01b038116156103795760028054610100600160a81b03191660089290921b610100600160a81b031691909117905580f35b60405162461bcd60e51b815260206004820152600b60248201526a5a65726f20706f696e747360a81b6044820152606490fd5b50346101a957806003193601126101a95760206040516103e88152f35b50346101a957806003193601126101a957546040516001600160a01b039091168152602090f35b50346101a957806003193601126101a957610409611240565b61041161126c565b600160ff1960025416176002557f62e78cea01bee320cd4e420270b5ea74000d11b0c9f74754ebdbfc544b05a2586020604051338152a180f35b50346101a957806003193601126101a95760206040516605543df729c0008152f35b50346101a957806003193601126101a9576003546040516001600160a01b039091168152602090f35b50346101a957806003193601126101a9576005546040516001600160a01b039091168152602090f35b50346101a957806003193601126101a9576104d8611240565b600080546001600160a01b0319811682556001600160a01b03167f8be0079c531659141344cd1fd0a4f28419497f9722a3daafe3b4186f6b6457e08280a380f35b50346101a957806003193601126101a957602060405160078152f35b50346101a957806003193601126101a9576008546040516001600160a01b039091168152602090f35b50346101a957806003193601126101a9576006546040516001600160a01b039091168152602090f35b50346101a95760203660031901126101a9576105a161115a565b8160606040516105b0816111f3565b828152826020820152826040820152015260018060a01b03168152600960205260408120604051906105e1826111f3565b8054825260018101546020830190815260ff6003600284015493604086019485520154166060840194600382101561063f575091849161063d936080965260405194518552516020850152516040840152516060830190611170565bf35b634e487b7160e01b81526021600452602490fd5b50346101a957806003193601126101a9576020600b54604051908152f35b50346101a957806003193601126101a957602060ff600254166040519015158152f35b50346101a957806003193601126101a9576020604051662386f26fc100008152f35b50346101a957806003193601126101a95760206040516101f48152f35b50346101a95760203660031901126101a9576080906040906001600160a01b036106fb61115a565b16815260096020522061063d81549160018101549060ff600360028301549201541691604051948552602085015260408401526060830190611170565b50346101a957806003193601126101a957610751611240565b60025460ff8116156107915760ff19166002557f5db9ee0a495bf2e6ff9c91a7834c1ba4fdd244a5e8aa4e537bd38aeae4b073aa6020604051338152a180f35b604051638dfc202b60e01b8152600490fd5b50346101a95760803660031901126101a9576107bd61115a565b6024356001600160a01b038181169182900361090f576044359080821680920361090f576064359381851680950361090f576107f7611240565b169182156108dd5780156108a8578115610877578315610843576001600160601b0360a01b92836005541617600555826006541617600655816007541617600755600854161760085580f35b60405162461bcd60e51b815260206004820152600c60248201526b5a65726f207374616b696e6760a01b6044820152606490fd5b60405162461bcd60e51b81526020600482015260096024820152682d32b93790313ab93760b91b6044820152606490fd5b60405162461bcd60e51b815260206004820152600d60248201526c5a65726f20747265617375727960981b6044820152606490fd5b60405162461bcd60e51b815260206004820152600a6024820152695a65726f207072697a6560b01b6044820152606490fd5b600080fd5b50346101a957806003193601126101a95760206040516105dc8152f35b50346101a957806003193601126101a95760025460405160089190911c6001600160a01b03168152602090f35b50346101a957806003193601126101a9576020604051620151808152f35b50346101a957806003193601126101a95760206040516113888152f35b50806003193601126101a9576002600154146110cc5760026001556109bc61126c565b6605543df729c0003410611097573381526009602052604081206201518080420490825404908181111561105257600191801515918261103c575b5050611016575b610a073461128a565b91610a11836112b7565b60078310610ffb5760325b81606402916064830403610ef0576064019081606411610ef057606491610a42916111b6565b60045491900491906001600160a01b031680610f4e575b5060039042815583600182015560028101610a748154611231565b9055016003841015610f3a5760ff1981541660ff8516179055610a98600a54611231565b600a55600b54348101809111610f2657600b55600254849060081c6001600160a01b0316803b15610f2257819060646040518094819363011e8a6b60e51b83523360048401528760248401528860448401525af18015610f1757610f04575b5061138880340234159134820414821715610ef057612710809104916105dc8034029034820414821715610edc57829004906107d0918234029234840414821715610ec8576103e891348334020483141715610ec85788808080610b7487610b6f8b610b6f89610b6f8e808e34020496049334611193565b611193565b6005549099906001600160a01b03165af1610b8d6112df565b5015610e8b5760065489918291829182916001600160a01b03165af1610bb16112df565b5015610e465760035488929083906001600160a01b031680151580610e3b575b610d5a575b5015610cea575b50818093819234020460018060a01b03600754165af1610bfb6112df565b5015610cae5760085485918291829182916001600160a01b03165af1610c1f6112df565b5015610c7057610c39604051933485526020850190611170565b604083015260608201527f547ad9bdcd235d0bb15c287a2358e52c18b9392b7a957e3b6b73260a51f37a3a60803392a26001805580f35b60405162461bcd60e51b815260206004820152601660248201527514dd185ada5b99c81c995dd85c991cc819985a5b195960521b6044820152606490fd5b60405162461bcd60e51b8152602060048201526014602482015273109d5c9b881d1c985b9cd9995c8819985a5b195960621b6044820152606490fd5b918080858194950460018060a01b03600654165af1610d076112df565b5015610d1557869038610bdd565b60405162461bcd60e51b815260206004820152601860248201527f526566657272616c2066616c6c6261636b206661696c656400000000000000006044820152606490fd5b604051630308a59b60e31b8152336004820152602081602481855afa869181610dfa575b50610d8a575b50610bd6565b610d95575b80610d84565b803b15610df657848060449260405193848092630a94beaf60e21b82523360048301528b890460248301528b8904905af19182610de2575b5050610dda575b38610d8f565b506001610dd4565b610deb906111c9565b610df6578438610dcd565b8480fd5b9091506020813d602011610e33575b81610e166020938361120f565b81010312610e2f57518015158103610e2f579038610d7e565b8680fd5b3d9150610e09565b508583041515610bd1565b60405162461bcd60e51b815260206004820152601860248201527f5472656173757279207472616e73666572206661696c656400000000000000006044820152606490fd5b60405162461bcd60e51b8152602060048201526015602482015274141c9a5e99481d1c985b9cd9995c8819985a5b1959605a1b6044820152606490fd5b634e487b7160e01b89526011600452602489fd5b634e487b7160e01b88526011600452602488fd5b634e487b7160e01b86526011600452602486fd5b610f10909491946111c9565b9238610af7565b6040513d87823e3d90fd5b5080fd5b634e487b7160e01b85526011600452602485fd5b634e487b7160e01b85526021600452602485fd5b60206024916040519283809263647ded0560e01b82523360048301525afa908115610ff0578691610fba575b508015610a5957909161271091820190818311610fa65760039291610f9e916111b6565b049190610a59565b634e487b7160e01b87526011600452602487fd5b90506020813d602011610fe8575b81610fd56020938361120f565b81010312610fe4575138610f7a565b8580fd5b3d9150610fc8565b6040513d88823e3d90fd5b6032830283810460321484151715610ef05760079004610a1c565b50600181015460018101809111156109fe57634e487b7160e01b83526011600452602483fd5b600192509061104a91611193565b1438806109f7565b60405162461bcd60e51b815260206004820152601860248201527f416c726561647920636865636b656420696e20746f64617900000000000000006044820152606490fd5b60405162461bcd60e51b815260206004820152600d60248201526c42656c6f77206d696e696d756d60981b6044820152606490fd5b604051633ee5aeb560e01b8152600490fd5b50346101a95760203660031901126101a9576110f861115a565b611100611240565b6001600160a01b03168015611125576001600160601b0360a01b600354161760035580f35b60405162461bcd60e51b815260206004820152600d60248201526c16995c9bc81c9959995c9c985b609a1b6044820152606490fd5b600435906001600160a01b038216820361090f57565b90600382101561117d5752565b634e487b7160e01b600052602160045260246000fd5b919082039182116111a057565b634e487b7160e01b600052601160045260246000fd5b818102929181159184041417156111a057565b67ffffffffffffffff81116111dd57604052565b634e487b7160e01b600052604160045260246000fd5b6080810190811067ffffffffffffffff8211176111dd57604052565b90601f8019910116810190811067ffffffffffffffff8211176111dd57604052565b60001981146111a05760010190565b6000546001600160a01b0316330361125457565b60405163118cdaa760e01b8152336004820152602490fd5b60ff6002541661127857565b60405163d93c066560e01b8152600490fd5b66b1a2bc2ec500008110156112b157662386f26fc1000011156112ac57600090565b600190565b50600290565b600381101561117d57600281146112d9576001146112d457600190565b600390565b50600a90565b3d1561131a573d9067ffffffffffffffff82116111dd576040519161130e601f8201601f19166020018461120f565b82523d6000602084013e565b60609056fea2646970667358221220dc0307500e84fab232382202396cfa73afdcc12962d997a66c7473a84fb9e3f264736f6c63430008180033",
  "linkReferences": {},
  "deployedLinkReferences": {}
}