{
  "_format": "hh-sol-artifact-1",
  "contractName": "CheckIn",
  "sourceName": "contracts/CheckIn.sol",
  "abi": [
    {
      "inputs": [
        {
          "internalType": "address",
          "name": "_points",
          "type": "address"
        },
        {
          "internalType": "address",
          "name": "_referral",
          "type": "address"
        },
        {
          "internalType": "address",
          "name": "_prizePool",
          "type": "address"
        },
        {
          "internalType": "address",
          "name": "_treasury",
          "type": "address"
        },
        {
          "internalType": "address",
          "name": "_burnReserve",
          "type": "address"
        },
        {
          "internalType": "address",
          "name": "_stakingRewards",
          "type": "address"
        }
      ],
      "stateMutability": "nonpayable",
      "type": "constructor"
    },
    {
      "inputs": [
        {
          "internalType": "address",
          "name": "owner",
          "type": "address"
        }
      ],
      "name": "OwnableInvalidOwner",
      "type": "error"
    },
    {
      "inputs": [
        {
          "internalType": "address",
          "name": "account",
          "type": "address"
        }
      ],
      "name": "OwnableUnauthorizedAccount",
      "type": "error"
    },
    {
      "inputs": [],
      "name": "ReentrancyGuardReentrantCall",
      "type": "error"
    },
    {
      "anonymous": false,
      "inputs": [
        {
          "indexed": true,
          "internalType": "address",
          "name": "user",
          "type": "address"
        },
        {
          "indexed": false,
          "internalType": "uint256",
          "name": "amount",
          "type": "uint256"
        },
        {
          "indexed": false,
          "internalType": "enum CheckIn.Tier",
          "name": "tier",
          "type": "uint8"
        },
        {
          "indexed": false,
          "internalType": "uint256",
          "name": "points",
          "type": "uint256"
        },
        {
          "indexed": false,
          "internalType": "uint256",
          "name": "streak",
          "type": "uint256"
        }
      ],
      "name": "CheckedIn",
      "type": "event"
    },
    {
      "anonymous": false,
      "inputs": [
        {
          "indexed": true,
          "internalType": "address",
          "name": "previousOwner",
          "type": "address"
        },
        {
          "indexed": true,
          "internalType": "address",
          "name": "newOwner",
          "type": "address"
        }
      ],
      "name": "OwnershipTransferred",
      "type": "event"
    },
    {
      "inputs": [],
      "name": "BASE_POINTS",
      "outputs": [
        {
          "internalType": "uint256",
          "name": "",
          "type": "uint256"
        }
      ],
      "stateMutability": "view",
      "type": "function"
    },
    {
      "inputs": [],
      "name": "BASIC_THRESHOLD",
      "outputs": [
        {
          "internalType": "uint256",
          "name": "",
          "type": "uint256"
        }
      ],
      "stateMutability": "view",
      "type": "function"
    },
    {
      "inputs": [],
      "name": "BURN_SHARE",
      "outputs": [
        {
          "internalType": "uint256",
          "name": "",
          "type": "uint256"
        }
      ],
      "stateMutability": "view",
      "type": "function"
    },
    {
      "inputs": [],
      "name": "DAY",
      "outputs": [
        {
          "internalType": "uint256",
          "name": "",
          "type": "uint256"
        }
      ],
      "stateMutability": "view",
      "type": "function"
    },
    {
      "inputs": [],
      "name": "PRIZE_SHARE",
      "outputs": [
        {
          "internalType": "uint256",
          "name": "",
          "type": "uint256"
        }
      ],
      "stateMutability": "view",
      "type": "function"
    },
    {
      "inputs": [],
      "name": "PRO_THRESHOLD",
      "outputs": [
        {
          "internalType": "uint256",
          "name": "",
          "type": "uint256"
        }
      ],
      "stateMutability": "view",
      "type": "function"
    },
    {
      "inputs": [],
      "name": "REFERRAL_SHARE",
      "outputs": [
        {
          "internalType": "uint256",
          "name": "",
          "type": "uint256"
        }
      ],
      "stateMutability": "view",
      "type": "function"
    },
    {
      "inputs": [],
      "name": "STAKING_SHARE",
      "outputs": [
        {
          "internalType": "uint256",
          "name": "",
          "type": "uint256"
        }
      ],
      "stateMutability": "view",
      "type": "function"
    },
    {
      "inputs": [],
      "name": "STREAK_CAP",
      "outputs": [
        {
          "internalType": "uint256",
          "name": "",
          "type": "uint256"
        }
      ],
      "stateMutability": "view",
      "type": "function"
    },
    {
      "inputs": [],
      "name": "TREASURY_SHARE",
      "outputs": [
        {
          "internalType": "uint256",
          "name": "",
          "type": "uint256"
        }
      ],
      "stateMutability": "view",
      "type": "function"
    },
    {
      "inputs": [],
      "name": "WHALE_THRESHOLD",
      "outputs": [
        {
          "internalType": "uint256",
          "name": "",
          "type": "uint256"
        }
      ],
      "stateMutability": "view",
      "type": "function"
    },
    {
      "inputs": [],
      "name": "burnReserve",
      "outputs": [
        {
          "internalType": "address",
          "name": "",
          "type": "address"
        }
      ],
      "stateMutability": "view",
      "type": "function"
    },
    {
      "inputs": [],
      "name": "checkIn",
      "outputs": [],
      "stateMutability": "payable",
      "type": "function"
    },
    {
      "inputs": [
        {
          "internalType": "address",
          "name": "user",
          "type": "address"
        }
      ],
      "name": "getRecord",
      "outputs": [
        {
          "components": [
            {
              "internalType": "uint256",
              "name": "lastCheckIn",
              "type": "uint256"
            },
            {
              "internalType": "uint256",
              "name": "streak",
              "type": "uint256"
            },
            {
              "internalType": "uint256",
              "name": "totalCheckIns",
              "type": "uint256"
            },
            {
              "internalType": "enum CheckIn.Tier",
              "name": "lastTier",
              "type": "uint8"
            }
          ],
          "internalType": "struct CheckIn.CheckInRecord",
          "name": "",
          "type": "tuple"
        }
      ],
      "stateMutability": "view",
      "type": "function"
    },
    {
      "inputs": [],
      "name": "owner",
      "outputs": [
        {
          "internalType": "address",
          "name": "",
          "type": "address"
        }
      ],
      "stateMutability": "view",
      "type": "function"
    },
    {
      "inputs": [],
      "name": "pointsContract",
      "outputs": [
        {
          "internalType": "contract IPointsCheckIn",
          "name": "",
          "type": "address"
        }
      ],
      "stateMutability": "view",
      "type": "function"
    },
    {
      "inputs": [],
      "name": "prizePool",
      "outputs": [
        {
          "internalType": "address",
          "name": "",
          "type": "address"
        }
      ],
      "stateMutability": "view",
      "type": "function"
    },
    {
      "inputs": [
        {
          "internalType": "address",
          "name": "",
          "type": "address"
        }
      ],
      "name": "records",
      "outputs": [
        {
          "internalType": "uint256",
          "name": "lastCheckIn",
          "type": "uint256"
        },
        {
          "internalType": "uint256",
          "name": "streak",
          "type": "uint256"
        },
        {
          "internalType": "uint256",
          "name": "totalCheckIns",
          "type": "uint256"
        },
        {
          "internalType": "enum CheckIn.Tier",
          "name": "lastTier",
          "type": "uint8"
        }
      ],
      "stateMutability": "view",
      "type": "function"
    },
    {
      "inputs": [],
      "name": "referralContract",
      "outputs": [
        {
          "internalType": "contract IReferral",
          "name": "",
          "type": "address"
        }
      ],
      "stateMutability": "view",
      "type": "function"
    },
    {
      "inputs": [],
      "name": "renounceOwnership",
      "outputs": [],
      "stateMutability": "nonpayable",
      "type": "function"
    },
    {
      "inputs": [
        {
          "internalType": "address",
          "name": "_prizePool",
          "type": "address"
        },
        {
          "internalType": "address",
          "name": "_treasury",
          "type": "address"
        },
        {
          "internalType": "address",
          "name": "_burnReserve",
          "type": "address"
        },
        {
          "internalType": "address",
          "name": "_stakingRewards",
          "type": "address"
        }
      ],
      "name": "setFeeReceivers",
      "outputs": [],
      "stateMutability": "nonpayable",
      "type": "function"
    },
    {
      "inputs": [
        {
          "internalType": "address",
          "name": "_points",
          "type": "address"
        }
      ],
      "name": "setPointsContract",
      "outputs": [],
      "stateMutability": "nonpayable",
      "type": "function"
    },
    {
      "inputs": [
        {
          "internalType": "address",
          "name": "_referral",
          "type": "address"
        }
      ],
      "name": "setReferralContract",
      "outputs": [],
      "stateMutability": "nonpayable",
      "type": "function"
    },
    {
      "inputs": [
        {
          "internalType": "address",
          "name": "_staking",
          "type": "address"
        }
      ],
      "name": "setStakingContract",
      "outputs": [],
      "stateMutability": "nonpayable",
      "type": "function"
    },
    {
      "inputs": [],
      "name": "stakingContract",
      "outputs": [
        {
          "internalType": "contract IStaking",
          "name": "",
          "type": "address"
        }
      ],
      "stateMutability": "view",
      "type": "function"
    },
    {
      "inputs": [],
      "name": "stakingRewards",
      "outputs": [
        {
          "internalType": "address",
          "name": "",
          "type": "address"
        }
      ],
      "stateMutability": "view",
      "type": "function"
    },
    {
      "inputs": [],
      "name": "totalCheckIns",
      "outputs": [
        {
          "internalType": "uint256",
          "name": "",
          "type": "uint256"
        }
      ],
      "stateMutability": "view",
      "type": "function"
    },
    {
      "inputs": [],
      "name": "totalFeesCollected",
      "outputs": [
        {
          "internalType": "uint256",
          "name": "",
          "type": "uint256"
        }
      ],
      "stateMutability": "view",
      "type": "function"
    },
    {
      "inputs": [
        {
          "internalType": "address",
          "name": "newOwner",
          "type": "address"
        }
      ],
      "name": "transferOwnership",
      "outputs": [],
      "stateMutability": "nonpayable",
      "type": "function"
    },
    {
      "inputs": [],
      "name": "treasury",
      "outputs": [
        {
          "internalType": "address",
          "name": "",
          "type": "address"
        }
      ],
      "stateMutability": "view",
      "type": "function"
    }
  ],
  "bytecode": "0x6080346200017657601f6200140538819003918201601f19168301916001600160401b038311848410176200017b5780849260c09460405283398101031262000176576200004d8162000191565b6200005b6020830162000191565b916200006a6040820162000191565b90620000796060820162000191565b916200009660a06200008e6080850162000191565b930162000191565b9133156200015d576000549560018060a01b03948580948180948160018060a01b03199b8d8d339116176000556040519d823391167f8be0079c531659141344cd1fd0a4f28419497f9722a3daafe3b4186f6b6457e0600080a360017f9b779b17422d0df92223018b32b4d1fa46e071723d6817e2486d003becc55f0055168b6001541617600155168960025416176002551687600454161760045516856005541617600555168360065416176006551690600754161760075561125e9081620001a78239f35b604051631e4fbdf760e01b815260006004820152602490fd5b600080fd5b634e487b7160e01b600052604160045260246000fd5b51906001600160a01b0382168203620001765756fe6080604052600436101561001257600080fd5b6000803560e01c806306ad5a4714611005578063183ff085146108795780631ba867941461085c57806327cfe8561461083e5780632b4f8a1f1461081557806332696174146107f85780633c8e556d14610687578063469e9067146106225780634b6b0ddb1461060557806358e5a7c9146105e357806360c6d8ae146105c5578063617fba04146104f957806361d027b3146104d057806364b87a70146104a75780636c3b68031461048b578063715018a614610431578063719ce73e146104085780637dad19db146103df578063826dc142146103bd5780638da5cb5b1461039657806393b998fb1461037957806395754abb146102ff5780639dd373b9146102bf578063a563eaa3146102a1578063b21b5a2114610284578063b5ab1c5d14610268578063bf16257a1461023f578063ee99205c14610216578063f2fde38b1461018b5763f47790d61461016757600080fd5b34610188578060031936011261018857602060405166b1a2bc2ec500008152f35b80fd5b5034610188576020366003190112610188576101a5611081565b6101ad611167565b6001600160a01b039081169081156101fd57600054826001600160601b0360a01b821617600055167f8be0079c531659141344cd1fd0a4f28419497f9722a3daafe3b4186f6b6457e0600080a380f35b604051631e4fbdf760e01b815260048101849052602490fd5b50346101885780600319360112610188576003546040516001600160a01b039091168152602090f35b50346101885780600319360112610188576006546040516001600160a01b039091168152602090f35b5034610188578060031936011261018857602060405160648152f35b503461018857806003193601126101885760206040516107d08152f35b50346101885780600319360112610188576020600954604051908152f35b5034610188576020366003190112610188576102d9611081565b6102e1611167565b60018060a01b03166001600160601b0360a01b600354161760035580f35b503461018857602036600319011261018857610319611081565b610321611167565b6001600160a01b03168015610346576001600160601b0360a01b600154161760015580f35b60405162461bcd60e51b815260206004820152600b60248201526a5a65726f20706f696e747360a81b6044820152606490fd5b503461018857806003193601126101885760206040516103e88152f35b5034610188578060031936011261018857546040516001600160a01b039091168152602090f35b503461018857806003193601126101885760206040516605543df729c0008152f35b50346101885780600319360112610188576002546040516001600160a01b039091168152602090f35b50346101885780600319360112610188576004546040516001600160a01b039091168152602090f35b503461018857806003193601126101885761044a611167565b600080546001600160a01b0319811682556001600160a01b03167f8be0079c531659141344cd1fd0a4f28419497f9722a3daafe3b4186f6b6457e08280a380f35b5034610188578060031936011261018857602060405160078152f35b50346101885780600319360112610188576007546040516001600160a01b039091168152602090f35b50346101885780600319360112610188576005546040516001600160a01b039091168152602090f35b503461018857602036600319011261018857610513611081565b8160606040516105228161111a565b828152826020820152826040820152015260018060a01b03168152600860205260408120604051906105538261111a565b8054825260018101546020830190815260ff600360028401549360408601948552015416606084019460038210156105b157509184916105af936080965260405194518552516020850152516040840152516060830190611097565bf35b634e487b7160e01b81526021600452602490fd5b50346101885780600319360112610188576020600a54604051908152f35b50346101885780600319360112610188576020604051662386f26fc100008152f35b503461018857806003193601126101885760206040516101f48152f35b5034610188576020366003190112610188576080906040906001600160a01b0361064a611081565b1681526008602052206105af81549160018101549060ff600360028301549201541691604051948552602085015260408401526060830190611097565b5034610188576080366003190112610188576106a1611081565b6024356001600160a01b03818116918290036107f357604435908082168092036107f357606435938185168095036107f3576106db611167565b169182156107c157801561078c57811561075b578315610727576001600160601b0360a01b92836004541617600455826005541617600555816006541617600655600754161760075580f35b60405162461bcd60e51b815260206004820152600c60248201526b5a65726f207374616b696e6760a01b6044820152606490fd5b60405162461bcd60e51b81526020600482015260096024820152682d32b93790313ab93760b91b6044820152606490fd5b60405162461bcd60e51b815260206004820152600d60248201526c5a65726f20747265617375727960981b6044820152606490fd5b60405162461bcd60e51b815260206004820152600a6024820152695a65726f207072697a6560b01b6044820152606490fd5b600080fd5b503461018857806003193601126101885760206040516105dc8152f35b50346101885780600319360112610188576001546040516001600160a01b039091168152602090f35b50346101885780600319360112610188576020604051620151808152f35b503461018857806003193601126101885760206040516113888152f35b50806003193601126101885760027f9b779b17422d0df92223018b32b4d1fa46e071723d6817e2486d003becc55f005414610ff35760027f9b779b17422d0df92223018b32b4d1fa46e071723d6817e2486d003becc55f00556605543df729c0003410610fbe5733815260086020526040812062015180804204908254049081811115610f7957600182819315159283610f65575b505050610f42575b61091f34611193565b91610929836111c0565b60078310610f275760325b81606402916064830403610e1c576064019081606411610e1c5760649161095a916110dd565b60035491900491906001600160a01b031680610e7a575b506003904281558360018201556002810161098c8154611158565b9055016003841015610e665760ff1981541660ff85161790556109b0600954611158565b600955600a54348101809111610e5257600a5560015484906001600160a01b0316803b15610e4e57819060646040518094819363011e8a6b60e51b83523360048401528760248401528860448401525af18015610e4357610e30575b5061138880340234159134820414821715610e1c57612710809104916105dc8034029034820414821715610e0857829004906107d0918234029234840414821715610df4576103e89182340292348404141715610df45788808080610a82888704610a7d8a8a048189818f346110ba565b6110ba565b6004549099906001600160a01b03165af1610a9b6111e8565b5015610db75760055489918291829182916001600160a01b03165af1610abf6111e8565b5015610d725760025488929083906001600160a01b031680151580610d67575b610c86575b5015610c16575b5081809381920460018060a01b03600654165af1610b076111e8565b5015610bda5760075485918291829182916001600160a01b03165af1610b2b6111e8565b5015610b9c57610b45604051933485526020850190611097565b604083015260608201527f547ad9bdcd235d0bb15c287a2358e52c18b9392b7a957e3b6b73260a51f37a3a60803392a260017f9b779b17422d0df92223018b32b4d1fa46e071723d6817e2486d003becc55f005580f35b60405162461bcd60e51b815260206004820152601660248201527514dd185ada5b99c81c995dd85c991cc819985a5b195960521b6044820152606490fd5b60405162461bcd60e51b8152602060048201526014602482015273109d5c9b881d1c985b9cd9995c8819985a5b195960621b6044820152606490fd5b918080858194950460018060a01b03600554165af1610c336111e8565b5015610c4157869038610aeb565b60405162461bcd60e51b815260206004820152601860248201527f526566657272616c2066616c6c6261636b206661696c656400000000000000006044820152606490fd5b604051630308a59b60e31b8152336004820152602081602481855afa869181610d26575b50610cb6575b50610ae4565b610cc1575b80610cb0565b803b15610d2257848060449260405193848092630a94beaf60e21b82523360048301528b890460248301528b8904905af19182610d0e575b5050610d06575b38610cbb565b506001610d00565b610d17906110f0565b610d22578438610cf9565b8480fd5b9091506020813d602011610d5f575b81610d4260209383611136565b81010312610d5b57518015158103610d5b579038610caa565b8680fd5b3d9150610d35565b508583041515610adf565b60405162461bcd60e51b815260206004820152601860248201527f5472656173757279207472616e73666572206661696c656400000000000000006044820152606490fd5b60405162461bcd60e51b8152602060048201526015602482015274141c9a5e99481d1c985b9cd9995c8819985a5b1959605a1b6044820152606490fd5b634e487b7160e01b89526011600452602489fd5b634e487b7160e01b88526011600452602488fd5b634e487b7160e01b86526011600452602486fd5b610e3c909491946110f0565b9238610a0c565b6040513d87823e3d90fd5b5080fd5b634e487b7160e01b85526011600452602485fd5b634e487b7160e01b85526021600452602485fd5b60206024916040519283809263647ded0560e01b82523360048301525afa908115610f1c578691610ee6575b50801561097157909161271091820190818311610ed25760039291610eca916110dd565b049190610971565b634e487b7160e01b87526011600452602487fd5b90506020813d602011610f14575b81610f0160209383611136565b81010312610f10575138610ea6565b8580fd5b3d9150610ef4565b6040513d88823e3d90fd5b6032830283810460321484151715610e1c5760079004610934565b808201549081018091111561091657634e487b7160e01b83526011600452602483fd5b610f709293506110ba565b1481388061090e565b60405162461bcd60e51b815260206004820152601860248201527f416c726561647920636865636b656420696e20746f64617900000000000000006044820152606490fd5b60405162461bcd60e51b815260206004820152600d60248201526c42656c6f77206d696e696d756d60981b6044820152606490fd5b604051633ee5aeb560e01b8152600490fd5b50346101885760203660031901126101885761101f611081565b611027611167565b6001600160a01b0316801561104c576001600160601b0360a01b600254161760025580f35b60405162461bcd60e51b815260206004820152600d60248201526c16995c9bc81c9959995c9c985b609a1b6044820152606490fd5b600435906001600160a01b03821682036107f357565b9060038210156110a45752565b634e487b7160e01b600052602160045260246000fd5b919082039182116110c757565b634e487b7160e01b600052601160045260246000fd5b818102929181159184041417156110c757565b67ffffffffffffffff811161110457604052565b634e487b7160e01b600052604160045260246000fd5b6080810190811067ffffffffffffffff82111761110457604052565b90601f8019910116810190811067ffffffffffffffff82111761110457604052565b60001981146110c75760010190565b6000546001600160a01b0316330361117b57565b60405163118cdaa760e01b8152336004820152602490fd5b66b1a2bc2ec500008110156111ba57662386f26fc1000011156111b557600090565b600190565b50600290565b60038110156110a457600281146111e2576001146111dd57600190565b600390565b50600a90565b3d15611223573d9067ffffffffffffffff82116111045760405191611217601f8201601f191660200184611136565b82523d6000602084013e565b60609056fea264697066735822122081df98916a52aa0ef474039e253be887509710be034a857855191b0c7ec9b8dc64736f6c63430008180033",
  "linkReferences": {},
  "deployedLinkReferences": {}
}