{
  "_format": "hh-sol-artifact-1",
  "contractName": "OAIVesting",
  "sourceName": "contracts/OAIVesting.sol",
  "abi": [
    {
      "inputs": [
        {
          "internalType": "address",
          "name": "beneficiary",
          "type": "address"
        },
        {
          "internalType": "uint64",
          "name": "startTimestamp",
          "type": "uint64"
        },
        {
          "internalType": "uint64",
          "name": "durationSeconds",
          "type": "uint64"
        },
        {
          "internalType": "uint64",
          "name": "cliffSeconds",
          "type": "uint64"
        }
      ],
      "stateMutability": "nonpayable",
      "type": "constructor"
    },
    {
      "inputs": [],
      "name": "FailedCall",
      "type": "error"
    },
    {
      "inputs": [
        {
          "internalType": "uint256",
          "name": "balance",
          "type": "uint256"
        },
        {
          "internalType": "uint256",
          "name": "needed",
          "type": "uint256"
        }
      ],
      "name": "InsufficientBalance",
      "type": "error"
    },
    {
      "inputs": [
        {
          "internalType": "address",
          "name": "owner",
          "type": "address"
        }
      ],
      "name": "OwnableInvalidOwner",
      "type": "error"
    },
    {
      "inputs": [
        {
          "internalType": "address",
          "name": "account",
          "type": "address"
        }
      ],
      "name": "OwnableUnauthorizedAccount",
      "type": "error"
    },
    {
      "inputs": [
        {
          "internalType": "address",
          "name": "token",
          "type": "address"
        }
      ],
      "name": "SafeERC20FailedOperation",
      "type": "error"
    },
    {
      "anonymous": false,
      "inputs": [
        {
          "indexed": true,
          "internalType": "address",
          "name": "token",
          "type": "address"
        },
        {
          "indexed": false,
          "internalType": "uint256",
          "name": "amount",
          "type": "uint256"
        }
      ],
      "name": "ERC20Released",
      "type": "event"
    },
    {
      "anonymous": false,
      "inputs": [
        {
          "indexed": false,
          "internalType": "uint256",
          "name": "amount",
          "type": "uint256"
        }
      ],
      "name": "EtherReleased",
      "type": "event"
    },
    {
      "anonymous": false,
      "inputs": [
        {
          "indexed": true,
          "internalType": "address",
          "name": "previousOwner",
          "type": "address"
        },
        {
          "indexed": true,
          "internalType": "address",
          "name": "newOwner",
          "type": "address"
        }
      ],
      "name": "OwnershipTransferred",
      "type": "event"
    },
    {
      "inputs": [],
      "name": "cliffDuration",
      "outputs": [
        {
          "internalType": "uint64",
          "name": "",
          "type": "uint64"
        }
      ],
      "stateMutability": "view",
      "type": "function"
    },
    {
      "inputs": [],
      "name": "duration",
      "outputs": [
        {
          "internalType": "uint256",
          "name": "",
          "type": "uint256"
        }
      ],
      "stateMutability": "view",
      "type": "function"
    },
    {
      "inputs": [],
      "name": "end",
      "outputs": [
        {
          "internalType": "uint256",
          "name": "",
          "type": "uint256"
        }
      ],
      "stateMutability": "view",
      "type": "function"
    },
    {
      "inputs": [],
      "name": "owner",
      "outputs": [
        {
          "internalType": "address",
          "name": "",
          "type": "address"
        }
      ],
      "stateMutability": "view",
      "type": "function"
    },
    {
      "inputs": [
        {
          "internalType": "address",
          "name": "token",
          "type": "address"
        }
      ],
      "name": "releasable",
      "outputs": [
        {
          "internalType": "uint256",
          "name": "",
          "type": "uint256"
        }
      ],
      "stateMutability": "view",
      "type": "function"
    },
    {
      "inputs": [],
      "name": "releasable",
      "outputs": [
        {
          "internalType": "uint256",
          "name": "",
          "type": "uint256"
        }
      ],
      "stateMutability": "view",
      "type": "function"
    },
    {
      "inputs": [
        {
          "internalType": "address",
          "name": "token",
          "type": "address"
        }
      ],
      "name": "release",
      "outputs": [],
      "stateMutability": "nonpayable",
      "type": "function"
    },
    {
      "inputs": [],
      "name": "release",
      "outputs": [],
      "stateMutability": "nonpayable",
      "type": "function"
    },
    {
      "inputs": [],
      "name": "released",
      "outputs": [
        {
          "internalType": "uint256",
          "name": "",
          "type": "uint256"
        }
      ],
      "stateMutability": "view",
      "type": "function"
    },
    {
      "inputs": [
        {
          "internalType": "address",
          "name": "token",
          "type": "address"
        }
      ],
      "name": "released",
      "outputs": [
        {
          "internalType": "uint256",
          "name": "",
          "type": "uint256"
        }
      ],
      "stateMutability": "view",
      "type": "function"
    },
    {
      "inputs": [],
      "name": "renounceOwnership",
      "outputs": [],
      "stateMutability": "nonpayable",
      "type": "function"
    },
    {
      "inputs": [],
      "name": "start",
      "outputs": [
        {
          "internalType": "uint256",
          "name": "",
          "type": "uint256"
        }
      ],
      "stateMutability": "view",
      "type": "function"
    },
    {
      "inputs": [
        {
          "internalType": "address",
          "name": "newOwner",
          "type": "address"
        }
      ],
      "name": "transferOwnership",
      "outputs": [],
      "stateMutability": "nonpayable",
      "type": "function"
    },
    {
      "inputs": [
        {
          "internalType": "uint64",
          "name": "timestamp",
          "type": "uint64"
        }
      ],
      "name": "vestedAmount",
      "outputs": [
        {
          "internalType": "uint256",
          "name": "",
          "type": "uint256"
        }
      ],
      "stateMutability": "view",
      "type": "function"
    },
    {
      "inputs": [
        {
          "internalType": "address",
          "name": "token",
          "type": "address"
        },
        {
          "internalType": "uint64",
          "name": "timestamp",
          "type": "uint64"
        }
      ],
      "name": "vestedAmount",
      "outputs": [
        {
          "internalType": "uint256",
          "name": "",
          "type": "uint256"
        }
      ],
      "stateMutability": "view",
      "type": "function"
    },
    {
      "inputs": [],
      "name": "vestingStart",
      "outputs": [
        {
          "internalType": "uint64",
          "name": "",
          "type": "uint64"
        }
      ],
      "stateMutability": "view",
      "type": "function"
    },
    {
      "stateMutability": "payable",
      "type": "receive"
    }
  ],
  "bytecode": "0x61010034610195576001600160401b0390601f610b4b38819003918201601f19168301918483118484101761019a578084926080946040528339810103126101955780516001600160a01b0380821693909184900361019557610064602084016101b0565b9361007d6060610076604087016101b0565b95016101b0565b93811561017c57600080546001600160a01b0319811684178255604051958594929116907f8be0079c531659141344cd1fd0a4f28419497f9722a3daafe3b4186f6b6457e09080a3856080528060a052169083161161013a575060c05260e05260405161098690816101c5823960805181818161022c015281816107dd01526108ad015260a0518181816105fd015281816107ba015261090f015260c0518181816101e8015261080e015260e0518181816104ac01526108310152f35b62461bcd60e51b815260206004820152601660248201527f436c6966662065786365656473206475726174696f6e000000000000000000006044820152606490fd5b604051631e4fbdf760e01b815260006004820152602490fd5b600080fd5b634e487b7160e01b600052604160045260246000fd5b51906001600160401b03821682036101955756fe60406080815260049081361015610020575b5050361561001e57600080fd5b005b600091823560e01c9081630a17b06b146106215781630fb5a6b4146105dd57816319165587146104d0578163254800d41461048c578163715018a614610432578163810ec23b146103f457816386d1a69f146102f55781638da5cb5b146102cd57816396132521146102ae5781639852595c14610276578163a3f8eace14610250578163be9a65551461020c578163d85349f7146101c8578163efbe1c1c146101ab578163f2fde38b14610120575063fbccedae03610011573461011c578160031936011261011c57602090610115476101106001549161010b836001600160401b03421692610675565b610802565b610768565b9051908152f35b5080fd5b9050346101a75760203660031901126101a75761013b61065a565b90610144610873565b6001600160a01b0391821692831561019157505082546001600160a01b0319811683178455167f8be0079c531659141344cd1fd0a4f28419497f9722a3daafe3b4186f6b6457e08380a380f35b51631e4fbdf760e01b8152908101849052602490fd5b8280fd5b50503461011c578160031936011261011c576020906101156107ac565b50503461011c578160031936011261011c57602090516001600160401b037f0000000000000000000000000000000000000000000000000000000000000000168152f35b50503461011c578160031936011261011c57602090516001600160401b037f0000000000000000000000000000000000000000000000000000000000000000168152f35b50503461011c57602036600319011261011c5760209061011561027161065a565b610775565b50503461011c57602036600319011261011c5760209181906001600160a01b0361029e61065a565b1681526002845220549051908152f35b50503461011c578160031936011261011c576020906001549051908152f35b50503461011c578160031936011261011c57905490516001600160a01b039091168152602090f35b919050346101a757826003193601126101a7576001546001600160401b039061033261032b8261011042861661010b8347610675565b8092610675565b6001557fda9d4e5f101b8b9b1c5b76d0c5a9f7923571acfc02376aa076b75a8c080c956b60208451838152a184546001600160a01b03164782116103d7578580809381935af1903d156103d1573d9081116103be5782519061039e601f8201601f191660200183610698565b81528460203d92013e5b156103b1578280f35b5163d6bda27560e01b8152fd5b634e487b7160e01b855260418452602485fd5b506103a8565b835163cf47918160e01b8152478187015260248101839052604490fd5b50503461011c578060031936011261011c5761040e61065a565b602435926001600160401b038416840361042f5750602092610115916106cf565b80fd5b833461042f578060031936011261042f5761044b610873565b80546001600160a01b03198116825581906001600160a01b03167f8be0079c531659141344cd1fd0a4f28419497f9722a3daafe3b4186f6b6457e08280a380f35b50503461011c578160031936011261011c57602090516001600160401b037f0000000000000000000000000000000000000000000000000000000000000000168152f35b919050346101a75760203660031901126101a7576104ec61065a565b906104f682610775565b60018060a01b03809316928386526002602052828620610517838254610675565b9055837fc0e523490dd523c33b1878c9eb14ff46991e3f5b2cd33710918618f2a39cba1b60208551858152a285541690825190602082019263a9059cbb60e01b84526024830152604482015260448152608081018181106001600160401b038211176105ca5783525160209186919082865af1156105c15783513d6105b85750813b155b6105a3578380f35b51635274afe760e01b81529182015260249150fd5b6001141561059b565b513d84823e3d90fd5b634e487b7160e01b875260418652602487fd5b50503461011c578160031936011261011c57602090516001600160401b037f0000000000000000000000000000000000000000000000000000000000000000168152f35b9050346101a75760203660031901126101a75735916001600160401b038316830361042f575061011560209261010b4760015490610675565b600435906001600160a01b038216820361067057565b600080fd5b9190820180921161068257565b634e487b7160e01b600052601160045260246000fd5b90601f801991011681019081106001600160401b038211176106b957604052565b634e487b7160e01b600052604160045260246000fd5b6040516370a0823160e01b81523060048201526001600160a01b03919091169190602081602481865afa90811561075c57600091610728575b5061010b9061072593600052600260205260406000205490610675565b90565b90506020813d602011610754575b8161074360209383610698565b810103126106705751610725610708565b3d9150610736565b6040513d6000823e3d90fd5b9190820391821161068257565b6107259061078c6001600160401b034216826106cf565b6001600160a01b0390911660009081526002602052604090205490610768565b6107256001600160401b03807f000000000000000000000000000000000000000000000000000000000000000016907f000000000000000000000000000000000000000000000000000000000000000016610675565b906001600160401b03807f000000000000000000000000000000000000000000000000000000000000000016817f000000000000000000000000000000000000000000000000000000000000000016018181116106825781169082161061086c576107259161089f565b5050600090565b6000546001600160a01b0316330361088757565b60405163118cdaa760e01b8152336004820152602490fd5b906001600160401b039081167f00000000000000000000000000000000000000000000000000000000000000008216808210156108df5750505050600090565b6108e76107ac565b82106108f35750505090565b6108fc91610768565b91828102928184041490151715610682577f00000000000000000000000000000000000000000000000000000000000000001690811561093a570490565b634e487b7160e01b600052601260045260246000fdfea2646970667358221220189a72effb1f0599a31f7bc5fbd7dc91c0681250d83bd02e3d4aeb8fe4a5e32a64736f6c63430008180033",
  "linkReferences": {},
  "deployedLinkReferences": {}
}