{
  "_format": "hh-sol-artifact-1",
  "contractName": "PredictionNFT",
  "sourceName": "contracts/PredictionNFT.sol",
  "abi": [
    {
      "inputs": [],
      "stateMutability": "nonpayable",
      "type": "constructor"
    },
    {
      "inputs": [],
      "name": "AccessControlBadConfirmation",
      "type": "error"
    },
    {
      "inputs": [
        {
          "internalType": "address",
          "name": "account",
          "type": "address"
        },
        {
          "internalType": "bytes32",
          "name": "neededRole",
          "type": "bytes32"
        }
      ],
      "name": "AccessControlUnauthorizedAccount",
      "type": "error"
    },
    {
      "inputs": [
        {
          "internalType": "address",
          "name": "target",
          "type": "address"
        }
      ],
      "name": "AddressEmptyCode",
      "type": "error"
    },
    {
      "inputs": [
        {
          "internalType": "address",
          "name": "implementation",
          "type": "address"
        }
      ],
      "name": "ERC1967InvalidImplementation",
      "type": "error"
    },
    {
      "inputs": [],
      "name": "ERC1967NonPayable",
      "type": "error"
    },
    {
      "inputs": [],
      "name": "ERC721EnumerableForbiddenBatchMint",
      "type": "error"
    },
    {
      "inputs": [
        {
          "internalType": "address",
          "name": "sender",
          "type": "address"
        },
        {
          "internalType": "uint256",
          "name": "tokenId",
          "type": "uint256"
        },
        {
          "internalType": "address",
          "name": "owner",
          "type": "address"
        }
      ],
      "name": "ERC721IncorrectOwner",
      "type": "error"
    },
    {
      "inputs": [
        {
          "internalType": "address",
          "name": "operator",
          "type": "address"
        },
        {
          "internalType": "uint256",
          "name": "tokenId",
          "type": "uint256"
        }
      ],
      "name": "ERC721InsufficientApproval",
      "type": "error"
    },
    {
      "inputs": [
        {
          "internalType": "address",
          "name": "approver",
          "type": "address"
        }
      ],
      "name": "ERC721InvalidApprover",
      "type": "error"
    },
    {
      "inputs": [
        {
          "internalType": "address",
          "name": "operator",
          "type": "address"
        }
      ],
      "name": "ERC721InvalidOperator",
      "type": "error"
    },
    {
      "inputs": [
        {
          "internalType": "address",
          "name": "owner",
          "type": "address"
        }
      ],
      "name": "ERC721InvalidOwner",
      "type": "error"
    },
    {
      "inputs": [
        {
          "internalType": "address",
          "name": "receiver",
          "type": "address"
        }
      ],
      "name": "ERC721InvalidReceiver",
      "type": "error"
    },
    {
      "inputs": [
        {
          "internalType": "address",
          "name": "sender",
          "type": "address"
        }
      ],
      "name": "ERC721InvalidSender",
      "type": "error"
    },
    {
      "inputs": [
        {
          "internalType": "uint256",
          "name": "tokenId",
          "type": "uint256"
        }
      ],
      "name": "ERC721NonexistentToken",
      "type": "error"
    },
    {
      "inputs": [
        {
          "internalType": "address",
          "name": "owner",
          "type": "address"
        },
        {
          "internalType": "uint256",
          "name": "index",
          "type": "uint256"
        }
      ],
      "name": "ERC721OutOfBoundsIndex",
      "type": "error"
    },
    {
      "inputs": [],
      "name": "FailedCall",
      "type": "error"
    },
    {
      "inputs": [],
      "name": "InvalidInitialization",
      "type": "error"
    },
    {
      "inputs": [],
      "name": "NotInitializing",
      "type": "error"
    },
    {
      "inputs": [],
      "name": "UUPSUnauthorizedCallContext",
      "type": "error"
    },
    {
      "inputs": [
        {
          "internalType": "bytes32",
          "name": "slot",
          "type": "bytes32"
        }
      ],
      "name": "UUPSUnsupportedProxiableUUID",
      "type": "error"
    },
    {
      "anonymous": false,
      "inputs": [
        {
          "indexed": true,
          "internalType": "address",
          "name": "owner",
          "type": "address"
        },
        {
          "indexed": true,
          "internalType": "address",
          "name": "approved",
          "type": "address"
        },
        {
          "indexed": true,
          "internalType": "uint256",
          "name": "tokenId",
          "type": "uint256"
        }
      ],
      "name": "Approval",
      "type": "event"
    },
    {
      "anonymous": false,
      "inputs": [
        {
          "indexed": true,
          "internalType": "address",
          "name": "owner",
          "type": "address"
        },
        {
          "indexed": true,
          "internalType": "address",
          "name": "operator",
          "type": "address"
        },
        {
          "indexed": false,
          "internalType": "bool",
          "name": "approved",
          "type": "bool"
        }
      ],
      "name": "ApprovalForAll",
      "type": "event"
    },
    {
      "anonymous": false,
      "inputs": [
        {
          "indexed": false,
          "internalType": "uint64",
          "name": "version",
          "type": "uint64"
        }
      ],
      "name": "Initialized",
      "type": "event"
    },
    {
      "anonymous": false,
      "inputs": [
        {
          "indexed": true,
          "internalType": "bytes32",
          "name": "role",
          "type": "bytes32"
        },
        {
          "indexed": true,
          "internalType": "bytes32",
          "name": "previousAdminRole",
          "type": "bytes32"
        },
        {
          "indexed": true,
          "internalType": "bytes32",
          "name": "newAdminRole",
          "type": "bytes32"
        }
      ],
      "name": "RoleAdminChanged",
      "type": "event"
    },
    {
      "anonymous": false,
      "inputs": [
        {
          "indexed": true,
          "internalType": "bytes32",
          "name": "role",
          "type": "bytes32"
        },
        {
          "indexed": true,
          "internalType": "address",
          "name": "account",
          "type": "address"
        },
        {
          "indexed": true,
          "internalType": "address",
          "name": "sender",
          "type": "address"
        }
      ],
      "name": "RoleGranted",
      "type": "event"
    },
    {
      "anonymous": false,
      "inputs": [
        {
          "indexed": true,
          "internalType": "bytes32",
          "name": "role",
          "type": "bytes32"
        },
        {
          "indexed": true,
          "internalType": "address",
          "name": "account",
          "type": "address"
        },
        {
          "indexed": true,
          "internalType": "address",
          "name": "sender",
          "type": "address"
        }
      ],
      "name": "RoleRevoked",
      "type": "event"
    },
    {
      "anonymous": false,
      "inputs": [
        {
          "indexed": true,
          "internalType": "address",
          "name": "to",
          "type": "address"
        },
        {
          "indexed": true,
          "internalType": "uint256",
          "name": "tokenId",
          "type": "uint256"
        },
        {
          "indexed": false,
          "internalType": "enum PredictionNFT.Tier",
          "name": "tier",
          "type": "uint8"
        },
        {
          "indexed": false,
          "internalType": "uint256",
          "name": "streak",
          "type": "uint256"
        },
        {
          "indexed": false,
          "internalType": "uint256",
          "name": "eventId",
          "type": "uint256"
        }
      ],
      "name": "StreakNFTMinted",
      "type": "event"
    },
    {
      "anonymous": false,
      "inputs": [
        {
          "indexed": true,
          "internalType": "address",
          "name": "from",
          "type": "address"
        },
        {
          "indexed": true,
          "internalType": "address",
          "name": "to",
          "type": "address"
        },
        {
          "indexed": true,
          "internalType": "uint256",
          "name": "tokenId",
          "type": "uint256"
        }
      ],
      "name": "Transfer",
      "type": "event"
    },
    {
      "anonymous": false,
      "inputs": [
        {
          "indexed": true,
          "internalType": "address",
          "name": "implementation",
          "type": "address"
        }
      ],
      "name": "Upgraded",
      "type": "event"
    },
    {
      "inputs": [],
      "name": "BRONZE_STREAK",
      "outputs": [
        {
          "internalType": "uint256",
          "name": "",
          "type": "uint256"
        }
      ],
      "stateMutability": "view",
      "type": "function"
    },
    {
      "inputs": [],
      "name": "DEFAULT_ADMIN_ROLE",
      "outputs": [
        {
          "internalType": "bytes32",
          "name": "",
          "type": "bytes32"
        }
      ],
      "stateMutability": "view",
      "type": "function"
    },
    {
      "inputs": [],
      "name": "DIAMOND_STREAK",
      "outputs": [
        {
          "internalType": "uint256",
          "name": "",
          "type": "uint256"
        }
      ],
      "stateMutability": "view",
      "type": "function"
    },
    {
      "inputs": [],
      "name": "GOLD_STREAK",
      "outputs": [
        {
          "internalType": "uint256",
          "name": "",
          "type": "uint256"
        }
      ],
      "stateMutability": "view",
      "type": "function"
    },
    {
      "inputs": [],
      "name": "MINTER_ROLE",
      "outputs": [
        {
          "internalType": "bytes32",
          "name": "",
          "type": "bytes32"
        }
      ],
      "stateMutability": "view",
      "type": "function"
    },
    {
      "inputs": [],
      "name": "SILVER_STREAK",
      "outputs": [
        {
          "internalType": "uint256",
          "name": "",
          "type": "uint256"
        }
      ],
      "stateMutability": "view",
      "type": "function"
    },
    {
      "inputs": [],
      "name": "UPGRADE_INTERFACE_VERSION",
      "outputs": [
        {
          "internalType": "string",
          "name": "",
          "type": "string"
        }
      ],
      "stateMutability": "view",
      "type": "function"
    },
    {
      "inputs": [
        {
          "internalType": "address",
          "name": "to",
          "type": "address"
        },
        {
          "internalType": "uint256",
          "name": "tokenId",
          "type": "uint256"
        }
      ],
      "name": "approve",
      "outputs": [],
      "stateMutability": "nonpayable",
      "type": "function"
    },
    {
      "inputs": [
        {
          "internalType": "address",
          "name": "owner",
          "type": "address"
        }
      ],
      "name": "balanceOf",
      "outputs": [
        {
          "internalType": "uint256",
          "name": "",
          "type": "uint256"
        }
      ],
      "stateMutability": "view",
      "type": "function"
    },
    {
      "inputs": [],
      "name": "baseURI",
      "outputs": [
        {
          "internalType": "string",
          "name": "",
          "type": "string"
        }
      ],
      "stateMutability": "view",
      "type": "function"
    },
    {
      "inputs": [
        {
          "internalType": "uint256",
          "name": "tokenId",
          "type": "uint256"
        }
      ],
      "name": "getApproved",
      "outputs": [
        {
          "internalType": "address",
          "name": "",
          "type": "address"
        }
      ],
      "stateMutability": "view",
      "type": "function"
    },
    {
      "inputs": [
        {
          "internalType": "bytes32",
          "name": "role",
          "type": "bytes32"
        }
      ],
      "name": "getRoleAdmin",
      "outputs": [
        {
          "internalType": "bytes32",
          "name": "",
          "type": "bytes32"
        }
      ],
      "stateMutability": "view",
      "type": "function"
    },
    {
      "inputs": [
        {
          "internalType": "enum PredictionNFT.Tier",
          "name": "tier",
          "type": "uint8"
        }
      ],
      "name": "getTierName",
      "outputs": [
        {
          "internalType": "string",
          "name": "",
          "type": "string"
        }
      ],
      "stateMutability": "pure",
      "type": "function"
    },
    {
      "inputs": [
        {
          "internalType": "uint256",
          "name": "tokenId",
          "type": "uint256"
        }
      ],
      "name": "getTokenMeta",
      "outputs": [
        {
          "components": [
            {
              "internalType": "enum PredictionNFT.Tier",
              "name": "tier",
              "type": "uint8"
            },
            {
              "internalType": "uint256",
              "name": "streak",
              "type": "uint256"
            },
            {
              "internalType": "uint256",
              "name": "mintedAt",
              "type": "uint256"
            },
            {
              "internalType": "uint256",
              "name": "eventId",
              "type": "uint256"
            }
          ],
          "internalType": "struct PredictionNFT.NFTMeta",
          "name": "",
          "type": "tuple"
        }
      ],
      "stateMutability": "view",
      "type": "function"
    },
    {
      "inputs": [
        {
          "internalType": "address",
          "name": "user",
          "type": "address"
        }
      ],
      "name": "getUserNFTs",
      "outputs": [
        {
          "internalType": "uint256[]",
          "name": "",
          "type": "uint256[]"
        }
      ],
      "stateMutability": "view",
      "type": "function"
    },
    {
      "inputs": [
        {
          "internalType": "bytes32",
          "name": "role",
          "type": "bytes32"
        },
        {
          "internalType": "address",
          "name": "account",
          "type": "address"
        }
      ],
      "name": "grantRole",
      "outputs": [],
      "stateMutability": "nonpayable",
      "type": "function"
    },
    {
      "inputs": [
        {
          "internalType": "bytes32",
          "name": "role",
          "type": "bytes32"
        },
        {
          "internalType": "address",
          "name": "account",
          "type": "address"
        }
      ],
      "name": "hasRole",
      "outputs": [
        {
          "internalType": "bool",
          "name": "",
          "type": "bool"
        }
      ],
      "stateMutability": "view",
      "type": "function"
    },
    {
      "inputs": [
        {
          "internalType": "address",
          "name": "",
          "type": "address"
        },
        {
          "internalType": "enum PredictionNFT.Tier",
          "name": "",
          "type": "uint8"
        }
      ],
      "name": "hasTierNFT",
      "outputs": [
        {
          "internalType": "bool",
          "name": "",
          "type": "bool"
        }
      ],
      "stateMutability": "view",
      "type": "function"
    },
    {
      "inputs": [
        {
          "internalType": "string",
          "name": "name_",
          "type": "string"
        },
        {
          "internalType": "string",
          "name": "symbol_",
          "type": "string"
        },
        {
          "internalType": "string",
          "name": "baseURI_",
          "type": "string"
        }
      ],
      "name": "initialize",
      "outputs": [],
      "stateMutability": "nonpayable",
      "type": "function"
    },
    {
      "inputs": [
        {
          "internalType": "address",
          "name": "owner",
          "type": "address"
        },
        {
          "internalType": "address",
          "name": "operator",
          "type": "address"
        }
      ],
      "name": "isApprovedForAll",
      "outputs": [
        {
          "internalType": "bool",
          "name": "",
          "type": "bool"
        }
      ],
      "stateMutability": "view",
      "type": "function"
    },
    {
      "inputs": [
        {
          "internalType": "address",
          "name": "to",
          "type": "address"
        },
        {
          "internalType": "uint256",
          "name": "streak",
          "type": "uint256"
        },
        {
          "internalType": "uint256",
          "name": "eventId",
          "type": "uint256"
        }
      ],
      "name": "mintStreakNFT",
      "outputs": [
        {
          "internalType": "uint256",
          "name": "tokenId",
          "type": "uint256"
        }
      ],
      "stateMutability": "nonpayable",
      "type": "function"
    },
    {
      "inputs": [],
      "name": "name",
      "outputs": [
        {
          "internalType": "string",
          "name": "",
          "type": "string"
        }
      ],
      "stateMutability": "view",
      "type": "function"
    },
    {
      "inputs": [],
      "name": "nextTokenId",
      "outputs": [
        {
          "internalType": "uint256",
          "name": "",
          "type": "uint256"
        }
      ],
      "stateMutability": "view",
      "type": "function"
    },
    {
      "inputs": [
        {
          "internalType": "uint256",
          "name": "tokenId",
          "type": "uint256"
        }
      ],
      "name": "ownerOf",
      "outputs": [
        {
          "internalType": "address",
          "name": "",
          "type": "address"
        }
      ],
      "stateMutability": "view",
      "type": "function"
    },
    {
      "inputs": [],
      "name": "proxiableUUID",
      "outputs": [
        {
          "internalType": "bytes32",
          "name": "",
          "type": "bytes32"
        }
      ],
      "stateMutability": "view",
      "type": "function"
    },
    {
      "inputs": [
        {
          "internalType": "address",
          "name": "user",
          "type": "address"
        },
        {
          "internalType": "uint256",
          "name": "streak",
          "type": "uint256"
        }
      ],
      "name": "qualifiesForMint",
      "outputs": [
        {
          "internalType": "bool",
          "name": "",
          "type": "bool"
        }
      ],
      "stateMutability": "view",
      "type": "function"
    },
    {
      "inputs": [
        {
          "internalType": "bytes32",
          "name": "role",
          "type": "bytes32"
        },
        {
          "internalType": "address",
          "name": "callerConfirmation",
          "type": "address"
        }
      ],
      "name": "renounceRole",
      "outputs": [],
      "stateMutability": "nonpayable",
      "type": "function"
    },
    {
      "inputs": [
        {
          "internalType": "bytes32",
          "name": "role",
          "type": "bytes32"
        },
        {
          "internalType": "address",
          "name": "account",
          "type": "address"
        }
      ],
      "name": "revokeRole",
      "outputs": [],
      "stateMutability": "nonpayable",
      "type": "function"
    },
    {
      "inputs": [
        {
          "internalType": "address",
          "name": "from",
          "type": "address"
        },
        {
          "internalType": "address",
          "name": "to",
          "type": "address"
        },
        {
          "internalType": "uint256",
          "name": "tokenId",
          "type": "uint256"
        }
      ],
      "name": "safeTransferFrom",
      "outputs": [],
      "stateMutability": "nonpayable",
      "type": "function"
    },
    {
      "inputs": [
        {
          "internalType": "address",
          "name": "from",
          "type": "address"
        },
        {
          "internalType": "address",
          "name": "to",
          "type": "address"
        },
        {
          "internalType": "uint256",
          "name": "tokenId",
          "type": "uint256"
        },
        {
          "internalType": "bytes",
          "name": "data",
          "type": "bytes"
        }
      ],
      "name": "safeTransferFrom",
      "outputs": [],
      "stateMutability": "nonpayable",
      "type": "function"
    },
    {
      "inputs": [
        {
          "internalType": "address",
          "name": "operator",
          "type": "address"
        },
        {
          "internalType": "bool",
          "name": "approved",
          "type": "bool"
        }
      ],
      "name": "setApprovalForAll",
      "outputs": [],
      "stateMutability": "nonpayable",
      "type": "function"
    },
    {
      "inputs": [
        {
          "internalType": "string",
          "name": "newBaseURI",
          "type": "string"
        }
      ],
      "name": "setBaseURI",
      "outputs": [],
      "stateMutability": "nonpayable",
      "type": "function"
    },
    {
      "inputs": [
        {
          "internalType": "bytes4",
          "name": "interfaceId",
          "type": "bytes4"
        }
      ],
      "name": "supportsInterface",
      "outputs": [
        {
          "internalType": "bool",
          "name": "",
          "type": "bool"
        }
      ],
      "stateMutability": "view",
      "type": "function"
    },
    {
      "inputs": [],
      "name": "symbol",
      "outputs": [
        {
          "internalType": "string",
          "name": "",
          "type": "string"
        }
      ],
      "stateMutability": "view",
      "type": "function"
    },
    {
      "inputs": [
        {
          "internalType": "uint256",
          "name": "index",
          "type": "uint256"
        }
      ],
      "name": "tokenByIndex",
      "outputs": [
        {
          "internalType": "uint256",
          "name": "",
          "type": "uint256"
        }
      ],
      "stateMutability": "view",
      "type": "function"
    },
    {
      "inputs": [
        {
          "internalType": "uint256",
          "name": "",
          "type": "uint256"
        }
      ],
      "name": "tokenMeta",
      "outputs": [
        {
          "internalType": "enum PredictionNFT.Tier",
          "name": "tier",
          "type": "uint8"
        },
        {
          "internalType": "uint256",
          "name": "streak",
          "type": "uint256"
        },
        {
          "internalType": "uint256",
          "name": "mintedAt",
          "type": "uint256"
        },
        {
          "internalType": "uint256",
          "name": "eventId",
          "type": "uint256"
        }
      ],
      "stateMutability": "view",
      "type": "function"
    },
    {
      "inputs": [
        {
          "internalType": "address",
          "name": "owner",
          "type": "address"
        },
        {
          "internalType": "uint256",
          "name": "index",
          "type": "uint256"
        }
      ],
      "name": "tokenOfOwnerByIndex",
      "outputs": [
        {
          "internalType": "uint256",
          "name": "",
          "type": "uint256"
        }
      ],
      "stateMutability": "view",
      "type": "function"
    },
    {
      "inputs": [
        {
          "internalType": "uint256",
          "name": "tokenId",
          "type": "uint256"
        }
      ],
      "name": "tokenURI",
      "outputs": [
        {
          "internalType": "string",
          "name": "",
          "type": "string"
        }
      ],
      "stateMutability": "view",
      "type": "function"
    },
    {
      "inputs": [],
      "name": "totalSupply",
      "outputs": [
        {
          "internalType": "uint256",
          "name": "",
          "type": "uint256"
        }
      ],
      "stateMutability": "view",
      "type": "function"
    },
    {
      "inputs": [
        {
          "internalType": "address",
          "name": "from",
          "type": "address"
        },
        {
          "internalType": "address",
          "name": "to",
          "type": "address"
        },
        {
          "internalType": "uint256",
          "name": "tokenId",
          "type": "uint256"
        }
      ],
      "name": "transferFrom",
      "outputs": [],
      "stateMutability": "nonpayable",
      "type": "function"
    },
    {
      "inputs": [
        {
          "internalType": "address",
          "name": "newImplementation",
          "type": "address"
        },
        {
          "internalType": "bytes",
          "name": "data",
          "type": "bytes"
        }
      ],
      "name": "upgradeToAndCall",
      "outputs": [],
      "stateMutability": "payable",
      "type": "function"
    }
  ],
  "bytecode": "0x60a080604052346100cd57306080527ff0c57e16840df040f15088dc2f81fe391c3923bec73e23a9662efc9c229c6a009081549060ff8260401c166100be57506001600160401b036002600160401b031982821601610079575b604051612d8f9081620000d382396080518181816111c501526112e70152f35b6001600160401b031990911681179091556040519081527fc7f505b2f371ae2175ee4913f4499e1f2633a7b5936321eed1cdaeb6115181d290602090a1388080610059565b63f92ee8a960e01b8152600490fd5b600080fdfe608060408181526004918236101561001657600080fd5b600092833560e01c91826301ffc9a714611e015750816306fdde0314611d2f578163081812fc14611ce5578163095ea7b314611c015781630ae7a31014611bad5781630c910bd514611b9157816318160ddd14611b6557816323b872dd14611b4d578163248a9ca314611b155781632a44d3a3146115735781632f2ff15d146115495781632f745c591461152057816336568abe146114da57816342842e0e146114ab5781634f1ef286146112a75781634f6ccce71461124557816351a23f7c1461122957816352d1902d146111b057816352de4ee5146110cc57816355f804b314610f645781636352211e14610f335781636c0360eb14610f1557816370a0823114610ee857816375036bc014610e9657816375794a3c14610e7957816391d1485414610e2557816395d89b4114610d28578163a217fddf14610d0d578163a22cb46514610c71578163a6487c53146106c6578163ad3cb1cc14610681578163b40e5570146105e3578163b88d4fde14610581578163bb657a001461054f578163c5aea25d14610533578163c87b56dd14610321578163d5391393146102e6578163d547741f14610295578163e64bd5931461025157508063e985e9c5146102065763ea4292a0146101e857600080fd5b3461020257816003193601126102025760209051601e8152f35b5080fd5b503461020257806003193601126102025760ff81602093610225611ee8565b610236610230611f03565b9161214e565b6001600160a01b039091168252855220549151911615158152f35b82843461029257602036600319011261029257823592831015610292575061027b61028e9261267e565b9051918291602083526020830190611ec3565b0390f35b80fd5b919050346102e257806003193601126102e2576102de91356102d960016102ba611f03565b93838752600080516020612cfa833981519152602052862001546127d9565b612a25565b5080f35b8280fd5b505034610202578160031936011261020257602090517f9f2df0fed2c77648de5860a4cc508cd0818c85b8b8a1ab4ceeef8d981c8956a68152f35b9050346102e2576020908160031936011261052f57819293813561034481612727565b5061034d61209a565b8051909390156105135781829184937a184f03e93ff9f4daa797ed6e38ed64bf6a1f0100000000000000009081811015610506575b5050866d04ee2d6d415b85acef8100000000808510156104f8575b5050662386f26fc10000808410156104e9575b506305f5e100808410156104da575b50612710808410156104cc575b505060648210156104bc575b600a809210156104b2575b602190889360019281610411600186940161040961040082611ffd565b9951998a611fdb565b808952611ffd565b878b019890601f1901368a3750860101905b61047c575b505050509261045f9261046b9261028e95885195836104508895518092888089019101611ea0565b84019151809386840190611ea0565b01038084520182611fdb565b925b51928284938452830190611ec3565b600019019083906f181899199a1a9b1b9c1cb0b131b232b360811b8282061a8353049182156104ad57919082610423565b610428565b91600101916103e3565b91906064600291049101916103d8565b9301929091049038806103cc565b600891949304920192386103bf565b601091949304920192386103b0565b94019390920491863861039d565b8a95500492503880610382565b5050845161028e9350915061052782611fa3565b81529261046d565b8380fd5b5050346102025781600319360112610202576020905160038152f35b50503461020257806003193601126102025760209061057861056f611ee8565b6024359061263b565b90519015158152f35b8390346102025760803660031901126102025761059c611ee8565b6105a4611f03565b6044359060643567ffffffffffffffff81116105df576105dc946105ca91369101612019565b926105d68383836121d8565b33612ad8565b80f35b8580fd5b9050346102e25760203660031901126102e2578282916080946060845161060981611f71565b8281528260208201528286820152015235815260026020522081519161062e83611f71565b61063c60ff8354168461251c565b6001820154916020840192835260036002820154918386019283520154926060850193845261066e8351809651611f19565b5160208501525190830152516060820152f35b505034610202578160031936011261020257805161028e916106a282611fbf565b60058252640352e302e360dc1b602083015251918291602083526020830190611ec3565b9050346102e25760603660031901126102e25767ffffffffffffffff8135818111610c6d576106f89036908401612019565b6024358281116105df5761070f9036908501612019565b91604435818111610c69576107279036908601612019565b7ff0c57e16840df040f15088dc2f81fe391c3923bec73e23a9662efc9c229c6a009485549460ff86891c16159484871696871580610c62575b60018099149081610c58575b159081610c4f575b50610c3f5767ffffffffffffffff1981168817895586610c20575b50610798612bf5565b6107a0612bf5565b8051858111610c0d57807f80bb2b638cc20bc4d0a60d66940f3ab4a00c1d7b313497ca82fb0b4ab0079300926107d68454612060565b601f8111610b9b575b506020908d601f8411600114610b1e5792610b13575b5050600019600383901b1c191690881b1790555b8051848111610b0057807f80bb2b638cc20bc4d0a60d66940f3ab4a00c1d7b313497ca82fb0b4ab00793019261083f8454612060565b601f8111610a91575b50602090601f8311600114610a14578c92610a09575b5050600019600383901b1c191690871b1790555b61087a612bf5565b6108833361283c565b5061088d336128dc565b5081519283116109f6575081906108a48554612060565b601f8111610999575b50602090601f831160011461092e578892610923575b5050600019600383901b1c191690831b1782555b8185556108e2578380f35b7fc7f505b2f371ae2175ee4913f4499e1f2633a7b5936321eed1cdaeb6115181d29260209268ff000000000000000019815416905551908152a13880808380f35b0151905038806108c3565b858952859350600080516020612d1a8339815191529190601f1984168a5b81811061098157508411610968575b505050811b0182556108d7565b015160001960f88460031b161c1916905538808061095b565b8284015185558896909401936020938401930161094c565b909150848852600080516020612d1a833981519152601f840160051c810191602085106109ec575b84939291601f88920160051c01915b8281106109de5750506108ad565b8a81558594508791016109d0565b90915081906109c1565b634e487b7160e01b885260419052602487fd5b01519050388061085e565b848d528993507ff4bad0a69248f59680a4f2b3000328cec71a413447c96781cfe5996daa8c456e9190601f1984168e5b818110610a7957508411610a60575b505050811b019055610872565b015160001960f88460031b161c19169055388080610a53565b8284015185558c969094019360209384019301610a44565b909150838c527ff4bad0a69248f59680a4f2b3000328cec71a413447c96781cfe5996daa8c456e601f840160051c81019160208510610af6575b84939291601f8c920160051c01915b828110610ae8575050610848565b8e81558594508b9101610ada565b9091508190610acb565b634e487b7160e01b8a526041835260248afd5b0151905038806107f5565b91908b9450601f1984168684527f37c58c799b6609234b945e882912ee9ad34948a1dfaa20a97485e1a7752bbf81935b818110610b8357508411610b6a575b505050811b019055610809565b015160001960f88460031b161c19169055388080610b5d565b8284015185558d969094019360209384019301610b4e565b909150838d527f37c58c799b6609234b945e882912ee9ad34948a1dfaa20a97485e1a7752bbf81601f840160051c81019160208510610c03575b8e85949392601f8e930160051c0192905b838210610bf5575050506107df565b81558594508c91018f610be6565b9091508190610bd5565b634e487b7160e01b8b526041845260248bfd5b68ffffffffffffffffff1916680100000000000000011788553861078f565b895163f92ee8a960e01b81528490fd5b90501538610774565b303b15915061076c565b5086610760565b8680fd5b8480fd5b919050346102e257806003193601126102e257610c8c611ee8565b9060243591821515809303610c6d576001600160a01b0316928315610cf85750610cb53361214e565b83855260205280842060ff1981541660ff8416179055519081527f17307eab39ab6107e8899845ad3d59bd9653f200f220920489ca2b5937696c3160203392a380f35b836024925191630b61174360e31b8352820152fd5b50503461020257816003193601126102025751908152602090f35b82843461029257806003193601126102925781519182827f80bb2b638cc20bc4d0a60d66940f3ab4a00c1d7b313497ca82fb0b4ab0079301938454610d6c81612060565b9182855260209660019288600182169182600014610dfb575050600114610da0575b858861028e8961046d848a0385611fdb565b815286935091907ff4bad0a69248f59680a4f2b3000328cec71a413447c96781cfe5996daa8c456e5b828410610de3575050508201018161046d61028e88610d8e565b8054848a018601528895508794909301928101610dc9565b60ff19168882015294151560051b8701909401945085935061046d925061028e9150899050610d8e565b9050346102e257816003193601126102e2578160209360ff92610e46611f03565b90358252600080516020612cfa83398151915286528282206001600160a01b039091168252855220549151911615158152f35b505034610202578160031936011261020257602091549051908152f35b9050346102e257816003193601126102e257610eb0611ee8565b6024359182101561052f576001600160a01b03168352600360209081529282902060ff91610edd916121c0565b541690519015158152f35b50503461020257602036600319011261020257602090610f0e610f09611ee8565b612606565b9051908152f35b50503461020257816003193601126102025761028e9061027b61209a565b8284346102925760203660031901126102925750610f5360209235612727565b90516001600160a01b039091168152f35b8334610292576020806003193601126102025767ffffffffffffffff833581811161052f57610f969036908601612019565b93610f9f612781565b84519182116110b95750600191610fb68354612060565b601f8111611066575b50602090601f8311600114610ffb5750839482939492610ff0575b5050600019600383901b1c191690821b17905580f35b015190508480610fda565b838552601f19831695600080516020612d1a833981519152929186905b88821061104f5750508385969710611036575b505050811b01905580f35b015160001960f88460031b161c1916905584808061102b565b808785968294968601518155019501930190611018565b838552600080516020612d1a833981519152601f840160051c810191602085106110af575b601f0160051c019084905b8281106110a4575050610fbf565b868155018490611096565b909150819061108b565b634e487b7160e01b845260419052602483fd5b83915034610202576020806003193601126102e25792916110eb611ee8565b916110f583612606565b906110ff826125ee565b9161110c86519384611fdb565b808352611118816125ee565b8388019590601f1901368737845b82811061116c575050505083519485948186019282875251809352850193925b82811061115557505050500390f35b835185528695509381019392810192600101611146565b61117c81839a979698999a612528565b875182101561119d57600582901b8801870152949796959394600101611126565b634e487b7160e01b865260328552602486fd5b828434610292578060031936011261029257507f00000000000000000000000000000000000000000000000000000000000000006001600160a01b0316300361121c57602090517f360894a13ba1a3210667c828492db98dca3e2076cc3735a920a3ca505d382bbc8152f35b5163703e46dd60e11b8152fd5b50503461020257816003193601126102025760209051600f8152f35b9050346102e25760203660031901126102e257803592600080516020612cda8339815191525484101561128c5760208361127e86612595565b91905490519160031b1c8152f35b6044939192519263295f44f760e21b84528301526024820152fd5b918091506003193601126102e2576112bd611ee8565b9060243567ffffffffffffffff8111610c6d576112dd9036908501612019565b6001600160a01b037f0000000000000000000000000000000000000000000000000000000000000000811630811490811561147d575b5061146d57611320612781565b83169282516352d1902d60e01b81526020818781885afa879181611435575b5061135b578351634c9c8ce360e01b8152808701869052602490fd5b84879487927f360894a13ba1a3210667c828492db98dca3e2076cc3735a920a3ca505d382bbc9081810361141f5750843b156114095780546001600160a01b03191683179055518592917fbc7cd75a20ee27fd9adebab32041f755214dbc6bffa90cc0225b39da2e5c2d3b8480a28451156113ee575050808360206102de95519101845af46113e8612aa8565b91612c36565b9250925050346113fd57505080f35b63b398979f60e01b8152fd5b5051634c9c8ce360e01b81529182015260249150fd5b84602491845191632a87526960e21b8352820152fd5b9091506020813d602011611465575b8161145160209383611fdb565b810103126114615751903861133f565b8780fd5b3d9150611444565b825163703e46dd60e11b81528590fd5b9050817f360894a13ba1a3210667c828492db98dca3e2076cc3735a920a3ca505d382bbc5416141538611313565b505034610202576105dc906114bf36611f3c565b919251926114cc84611fa3565b8584526105d68383836121d8565b8383346102025780600319360112610202576114f4611f03565b90336001600160a01b0383160361151157506102de919235612a25565b5163334bd91960e11b81528390fd5b505034610202578060031936011261020257602090610f0e611540611ee8565b60243590612528565b919050346102e257806003193601126102e2576102de913561156e60016102ba611f03565b61299e565b919050346102e25760603660031901126102e25761158f611ee8565b916024908135604435907f9f2df0fed2c77648de5860a4cc508cd0818c85b8b8a1ab4ceeef8d981c8956a696878152602097600080516020612cfa8339815191528952868220338352895260ff878320541615611af857506115f08261280c565b9360018060a01b03958689169687845260038b5260ff611612888b87206121c0565b5416611ab65783549960001991828c14611aa45760018c0186558a519261163884611fa3565b8684528a15611a8e578a8d8f898f8382527f80bb2b638cc20bc4d0a60d66940f3ab4a00c1d7b313497ca82fb0b4ab007930296878452818320541694851580159889611a51575b6116888b612187565b80546001019055868552855282842080546001600160a01b031916831790558582887fddf252ad1be2c89b69c2b068fc378daa952ba7f163c4a11628f55a4df523b3ef8780a4156119bc57507f645e039705490088daad89bae25049a34f4a9072d398537b1ab2425f24cbed03600080516020612cda83398151915293845495869452528b2055600160401b8210156119aa578f6117318f949361174a93600182019055612595565b90919082549060031b91821b91600019901b1916179055565b03611946575b50611931573b611834575b5089899189519361176b85611f71565b611775898661251c565b8285019187835260028c87019442865260608801968b88528952528b872095519180831015611823575050888b8d9b9a978f6003907f549290153591f5315b4900245287e2108383dab4d458a53793fa26b7bd4280e59c998260609d9a60ff9a60019a6118019a8d199d8e8754169116178555518b850155516002840155519101558d835252206121c0565b9182541617905561181488518094611f19565b8983015286820152a351908152f35b634e487b7160e01b88526021905286fd5b918a969492829b8b8a8780869f9b99978f9e9f61187d905197889687958694630a85bd0160e11b9c8d875233908701528501526044840152608060648401526084830190611ec3565b03925af18391816118f1575b506118bc575050505050505061189d612aa8565b805191826118b9575050505191633250574960e11b8352820152fd5b01fd5b63ffffffff60e09c9395979b9496989c9a999a1b16036118dc578961175b565b8751633250574960e11b815291820187905290fd5b9091508881813d831161192a575b6119098183611fdb565b8101031261052f57516001600160e01b03198116810361052f579038611889565b503d6118ff565b5050918751916339e3563760e11b8352820152fd5b61194f83612606565b90810190811161199857600080516020612c9a8339815191528e8e808f8f8c52600080516020612cba8339815191528452808c20868d5284528b20558952528b87205538611750565b634e487b7160e01b8752601186528487fd5b634e487b7160e01b8a5260418952878afd5b94939091928585036119d2575b5050505061174a565b6119db85612606565b828552600080516020612c9a8339815191528083528486205493878752600080516020612cba833981519152845285872094838103611a30575b508652825284848120558452528120558f8f8f908b926119c9565b8388528585528688205481895280888a205588528285528688205538611a15565b6000878152600080516020612d3a8339815191526020526040902080546001600160a01b0319169055611a8388612187565b89815401905561167f565b8b51633250574960e11b81528087018890528590fd5b634e487b7160e01b8652601185528386fd5b885162461bcd60e51b81528084018c90526018818401527f416c7265616479206d696e7465642074686973207469657200000000000000006044820152606490fd5b865163e2517d3f60e01b8152338187015280870191909152604490fd5b9050346102e25760203660031901126102e25781602093600192358152600080516020612cfa83398151915285522001549051908152f35b8334610292576105dc611b5f36611f3c565b916121d8565b505034610202578160031936011261020257602090600080516020612cda833981519152549051908152f35b5050346102025781600319360112610202576020905160078152f35b9050346102e25760203660031901126102e25760809282913581526002602052209060ff825416916001810154916003600283015492015492611bf282518096611f19565b60208501528301526060820152f35b919050346102e257806003193601126102e257611c1c611ee8565b9160243590611c2a82612727565b9033151580611cd2575b80611cb5575b611c9e57506001600160a01b039384169382918591167f8c5be1e5ebec7d5bd14f71427d1e84f3dd0314c0f7b2291e5b200ac8c7c3b9258780a48352600080516020612d3a833981519152602052822080546001600160a01b031916909117905580f35b60249084519063a9fbf51f60e01b82523390820152fd5b50611cbf8261214e565b33875260205260ff848720541615611c3a565b506001600160a01b038216331415611c34565b9050346102e25760203660031901126102e2579160209235611d0681612727565b508152600080516020612d3a83398151915283528190205490516001600160a01b039091168152f35b82843461029257806003193601126102925781519182827f80bb2b638cc20bc4d0a60d66940f3ab4a00c1d7b313497ca82fb0b4ab0079300938454611d7381612060565b9182855260209660019288600182169182600014610dfb575050600114611da657858861028e8961046d848a0385611fdb565b815286935091907f37c58c799b6609234b945e882912ee9ad34948a1dfaa20a97485e1a7752bbf815b828410611de9575050508201018161046d61028e88610d8e565b8054848a018601528895508794909301928101611dcf565b8491346102e25760203660031901126102e2573563ffffffff60e01b81168091036102e25760209250637965db0b60e01b8114908115611e43575b5015158152f35b63780e9d6360e01b811491508115611e5d575b5083611e3c565b6380ac58cd60e01b811491508115611e8f575b8115611e7e575b5083611e56565b6301ffc9a760e01b14905083611e77565b635b5e139f60e01b81149150611e70565b60005b838110611eb35750506000910152565b8181015183820152602001611ea3565b90602091611edc81518092818552858086019101611ea0565b601f01601f1916010190565b600435906001600160a01b0382168203611efe57565b600080fd5b602435906001600160a01b0382168203611efe57565b906004821015611f265752565b634e487b7160e01b600052602160045260246000fd5b6060906003190112611efe576001600160a01b03906004358281168103611efe57916024359081168103611efe579060443590565b6080810190811067ffffffffffffffff821117611f8d57604052565b634e487b7160e01b600052604160045260246000fd5b6020810190811067ffffffffffffffff821117611f8d57604052565b6040810190811067ffffffffffffffff821117611f8d57604052565b90601f8019910116810190811067ffffffffffffffff821117611f8d57604052565b67ffffffffffffffff8111611f8d57601f01601f191660200190565b81601f82011215611efe5780359061203082611ffd565b9261203e6040519485611fdb565b82845260208383010111611efe57816000926020809301838601378301015290565b90600182811c92168015612090575b602083101461207a57565b634e487b7160e01b600052602260045260246000fd5b91607f169161206f565b604051906000826001916001546120b081612060565b808452936020916001811690811561212a57506001146120db575b50506120d992500383611fdb565b565b9150926001600052600080516020612d1a833981519152936000925b82841061211257506120d994505050810160200138806120cb565b855488850183015294850194879450928101926120f7565b915050602092506120d994915060ff191682840152151560051b82010138806120cb565b6001600160a01b031660009081527f80bb2b638cc20bc4d0a60d66940f3ab4a00c1d7b313497ca82fb0b4ab00793056020526040902090565b6001600160a01b031660009081527f80bb2b638cc20bc4d0a60d66940f3ab4a00c1d7b313497ca82fb0b4ab00793036020526040902090565b906004811015611f2657600052602052604060002090565b90916001600160a01b03808416928315612503576000938385527f80bb2b638cc20bc4d0a60d66940f3ab4a00c1d7b313497ca82fb0b4ab00793029460208681526040978589842054169733151580612469575b50881590811561242a575b61224083612187565b80546001019055888552835289842080546001600160a01b0319168617905587858a7fddf252ad1be2c89b69c2b068fc378daa952ba7f163c4a11628f55a4df523b3ef8780a4156123a457600080516020612cda8339815191528054908885527f645e039705490088daad89bae25049a34f4a9072d398537b1ab2425f24cbed038452818b862055600160401b82101561239057611731828a9260016122e895019055612595565b838803612324575b5050505016928383036123035750505050565b6064945051926364283d7b60e01b8452600484015260248301526044820152fd5b61232d90612606565b60001981019390841161237c578291600080516020612c9a833981519152918a9452600080516020612cba833981519152815283832085845281528784842055878352522055388080806122f0565b634e487b7160e01b83526011600452602483fd5b634e487b7160e01b85526041600452602485fd5b8784146122e8576123b488612606565b878452600080516020612c9a833981519152908184528a852054918a8652600080516020612cba83398151915285528b862092828103612408575b508986528452848b8120558452825282898120556122e8565b8287528386528c808820548091838a5289205587528186528c872055386123ef565b6000898152600080516020612d3a8339815191526020526040902080546001600160a01b031916905561245c8a612187565b8054600019019055612237565b806124b6575b1561247a573861222c565b89888a612497576024915190637e27328960e01b82526004820152fd5b905163177e802f60e01b81523360048201526024810191909152604490fd5b5033891480156124e8575b8061246f5750878452600080516020612d3a833981519152835233878b862054161461246f565b506124f28961214e565b338552835260ff8a852054166124c1565b604051633250574960e11b815260006004820152602490fd5b6004821015611f265752565b61253181612606565b82101561256a5760018060a01b0316600052600080516020612cba83398151915260205260406000209060005260205260406000205490565b60405163295f44f760e21b81526001600160a01b039190911660048201526024810191909152604490fd5b600080516020612cda83398151915280548210156125d8576000527fa42f15e5d656f8155fd7419d740a6073999f19cd6e061449ce4a257150545bf20190600090565b634e487b7160e01b600052603260045260246000fd5b67ffffffffffffffff8111611f8d5760051b60200190565b6001600160a01b038116156126225761261e90612187565b5490565b6040516322718ad960e21b815260006004820152602490fd5b90600381106126775760ff916126536126719261280c565b6001600160a01b0390911660009081526003602052604090206121c0565b54161590565b5050600090565b6004811015611f26576003811461270357600281146126e2576001146126c0576040516126aa81611fbf565b600681526542726f6e7a6560d01b602082015290565b6040516126cc81611fbf565b600681526529b4b63b32b960d11b602082015290565b506040516126ef81611fbf565b600481526311dbdb1960e21b602082015290565b5060405161271081611fbf565b6007815266111a585b5bdb9960ca1b602082015290565b60008181527f80bb2b638cc20bc4d0a60d66940f3ab4a00c1d7b313497ca82fb0b4ab007930260205260409020546001600160a01b0316908115612769575090565b60249060405190637e27328960e01b82526004820152fd5b3360009081527fb7db2dd08fcb62d0c9e08c51941cae53c267786a0b75803fb7960902fc8ef97d602052604081205460ff16156127bb5750565b6044906040519063e2517d3f60e01b82523360048301526024820152fd5b80600052600080516020612cfa83398151915260205260406000203360005260205260ff60406000205416156127bb5750565b601e81101561283657600f811015612830576007111561282b57600090565b600190565b50600290565b50600390565b6001600160a01b031660008181527fb7db2dd08fcb62d0c9e08c51941cae53c267786a0b75803fb7960902fc8ef97d6020526040812054909190600080516020612cfa8339815191529060ff166128d7578280526020526040822081835260205260408220600160ff1982541617905533917f2f8788117e7eff1d82e926ec794901d17c78024a50270940304540a733656f0d8180a4600190565b505090565b6001600160a01b031660008181527f549fe2656c81d2947b3b913f0a53b9ea86c71e049f3a1b8aa23c09a8a05cb8d460205260408120549091907f9f2df0fed2c77648de5860a4cc508cd0818c85b8b8a1ab4ceeef8d981c8956a690600080516020612cfa8339815191529060ff16612998578184526020526040832082845260205260408320600160ff198254161790557f2f8788117e7eff1d82e926ec794901d17c78024a50270940304540a733656f0d339380a4600190565b50505090565b90600091808352600080516020612cfa83398151915280602052604084209260018060a01b03169283855260205260ff60408520541615600014612998578184526020526040832082845260205260408320600160ff198254161790557f2f8788117e7eff1d82e926ec794901d17c78024a50270940304540a733656f0d339380a4600190565b90600091808352600080516020612cfa83398151915280602052604084209260018060a01b03169283855260205260ff60408520541660001461299857818452602052604083208284526020526040832060ff1981541690557ff6391f5c32d9c69d2a47ea670b442974b53935d1edc7fd64eb21e047a839171b339380a4600190565b3d15612ad3573d90612ab982611ffd565b91612ac76040519384611fdb565b82523d6000602084013e565b606090565b9293823b612ae8575b5050505050565b612b2c9060018060a01b038094169560405194859481630a85bd0160e11b988988521660048701521660248501526044840152608060648401526084830190611ec3565b03906020816000938185885af190829082612bac575b5050612b7a5782612b51612aa8565b8051919082612b7357604051633250574960e11b815260048101839052602490fd5b9050602001fd5b6001600160e01b03191603612b9457503880808080612ae1565b60249060405190633250574960e11b82526004820152fd5b909192506020813d602011612bed575b81612bc960209383611fdb565b810103126102025751906001600160e01b0319821682036102925750903880612b42565b3d9150612bbc565b60ff7ff0c57e16840df040f15088dc2f81fe391c3923bec73e23a9662efc9c229c6a005460401c1615612c2457565b604051631afcd79f60e31b8152600490fd5b90612c5d5750805115612c4b57805190602001fd5b60405163d6bda27560e01b8152600490fd5b81511580612c90575b612c6e575090565b604051639996b31560e01b81526001600160a01b039091166004820152602490fd5b50803b15612c6656fe645e039705490088daad89bae25049a34f4a9072d398537b1ab2425f24cbed01645e039705490088daad89bae25049a34f4a9072d398537b1ab2425f24cbed00645e039705490088daad89bae25049a34f4a9072d398537b1ab2425f24cbed0202dd7bc7dec4dceedda775e58dd541e08a116c6c53815c0bd028192f7b626800b10e2d527612073b26eecdfd717e6a320cf44b4afac2b0732d9fcbe2b7fa0cf680bb2b638cc20bc4d0a60d66940f3ab4a00c1d7b313497ca82fb0b4ab0079304a26469706673582212203548bd02814f8a1f4b235ec53f199f344bfc9392d45473128a87c4d5be64bf2264736f6c63430008180033",
  "linkReferences": {},
  "deployedLinkReferences": {}
}