{
  "_format": "hh-sol-artifact-1",
  "contractName": "VestingWallet",
  "sourceName": "@openzeppelin/contracts/finance/VestingWallet.sol",
  "abi": [
    {
      "inputs": [
        {
          "internalType": "address",
          "name": "beneficiary",
          "type": "address"
        },
        {
          "internalType": "uint64",
          "name": "startTimestamp",
          "type": "uint64"
        },
        {
          "internalType": "uint64",
          "name": "durationSeconds",
          "type": "uint64"
        }
      ],
      "stateMutability": "payable",
      "type": "constructor"
    },
    {
      "inputs": [],
      "name": "FailedCall",
      "type": "error"
    },
    {
      "inputs": [
        {
          "internalType": "uint256",
          "name": "balance",
          "type": "uint256"
        },
        {
          "internalType": "uint256",
          "name": "needed",
          "type": "uint256"
        }
      ],
      "name": "InsufficientBalance",
      "type": "error"
    },
    {
      "inputs": [
        {
          "internalType": "address",
          "name": "owner",
          "type": "address"
        }
      ],
      "name": "OwnableInvalidOwner",
      "type": "error"
    },
    {
      "inputs": [
        {
          "internalType": "address",
          "name": "account",
          "type": "address"
        }
      ],
      "name": "OwnableUnauthorizedAccount",
      "type": "error"
    },
    {
      "inputs": [
        {
          "internalType": "address",
          "name": "token",
          "type": "address"
        }
      ],
      "name": "SafeERC20FailedOperation",
      "type": "error"
    },
    {
      "anonymous": false,
      "inputs": [
        {
          "indexed": true,
          "internalType": "address",
          "name": "token",
          "type": "address"
        },
        {
          "indexed": false,
          "internalType": "uint256",
          "name": "amount",
          "type": "uint256"
        }
      ],
      "name": "ERC20Released",
      "type": "event"
    },
    {
      "anonymous": false,
      "inputs": [
        {
          "indexed": false,
          "internalType": "uint256",
          "name": "amount",
          "type": "uint256"
        }
      ],
      "name": "EtherReleased",
      "type": "event"
    },
    {
      "anonymous": false,
      "inputs": [
        {
          "indexed": true,
          "internalType": "address",
          "name": "previousOwner",
          "type": "address"
        },
        {
          "indexed": true,
          "internalType": "address",
          "name": "newOwner",
          "type": "address"
        }
      ],
      "name": "OwnershipTransferred",
      "type": "event"
    },
    {
      "inputs": [],
      "name": "duration",
      "outputs": [
        {
          "internalType": "uint256",
          "name": "",
          "type": "uint256"
        }
      ],
      "stateMutability": "view",
      "type": "function"
    },
    {
      "inputs": [],
      "name": "end",
      "outputs": [
        {
          "internalType": "uint256",
          "name": "",
          "type": "uint256"
        }
      ],
      "stateMutability": "view",
      "type": "function"
    },
    {
      "inputs": [],
      "name": "owner",
      "outputs": [
        {
          "internalType": "address",
          "name": "",
          "type": "address"
        }
      ],
      "stateMutability": "view",
      "type": "function"
    },
    {
      "inputs": [
        {
          "internalType": "address",
          "name": "token",
          "type": "address"
        }
      ],
      "name": "releasable",
      "outputs": [
        {
          "internalType": "uint256",
          "name": "",
          "type": "uint256"
        }
      ],
      "stateMutability": "view",
      "type": "function"
    },
    {
      "inputs": [],
      "name": "releasable",
      "outputs": [
        {
          "internalType": "uint256",
          "name": "",
          "type": "uint256"
        }
      ],
      "stateMutability": "view",
      "type": "function"
    },
    {
      "inputs": [
        {
          "internalType": "address",
          "name": "token",
          "type": "address"
        }
      ],
      "name": "release",
      "outputs": [],
      "stateMutability": "nonpayable",
      "type": "function"
    },
    {
      "inputs": [],
      "name": "release",
      "outputs": [],
      "stateMutability": "nonpayable",
      "type": "function"
    },
    {
      "inputs": [],
      "name": "released",
      "outputs": [
        {
          "internalType": "uint256",
          "name": "",
          "type": "uint256"
        }
      ],
      "stateMutability": "view",
      "type": "function"
    },
    {
      "inputs": [
        {
          "internalType": "address",
          "name": "token",
          "type": "address"
        }
      ],
      "name": "released",
      "outputs": [
        {
          "internalType": "uint256",
          "name": "",
          "type": "uint256"
        }
      ],
      "stateMutability": "view",
      "type": "function"
    },
    {
      "inputs": [],
      "name": "renounceOwnership",
      "outputs": [],
      "stateMutability": "nonpayable",
      "type": "function"
    },
    {
      "inputs": [],
      "name": "start",
      "outputs": [
        {
          "internalType": "uint256",
          "name": "",
          "type": "uint256"
        }
      ],
      "stateMutability": "view",
      "type": "function"
    },
    {
      "inputs": [
        {
          "internalType": "address",
          "name": "newOwner",
          "type": "address"
        }
      ],
      "name": "transferOwnership",
      "outputs": [],
      "stateMutability": "nonpayable",
      "type": "function"
    },
    {
      "inputs": [
        {
          "internalType": "uint64",
          "name": "timestamp",
          "type": "uint64"
        }
      ],
      "name": "vestedAmount",
      "outputs": [
        {
          "internalType": "uint256",
          "name": "",
          "type": "uint256"
        }
      ],
      "stateMutability": "view",
      "type": "function"
    },
    {
      "inputs": [
        {
          "internalType": "address",
          "name": "token",
          "type": "address"
        },
        {
          "internalType": "uint64",
          "name": "timestamp",
          "type": "uint64"
        }
      ],
      "name": "vestedAmount",
      "outputs": [
        {
          "internalType": "uint256",
          "name": "",
          "type": "uint256"
        }
      ],
      "stateMutability": "view",
      "type": "function"
    },
    {
      "stateMutability": "payable",
      "type": "receive"
    }
  ],
  "bytecode": "0x60c0601f6109b638819003918201601f19168301916001600160401b03831184841017610109578084926060946040528339810103126101045780516001600160a01b0391828216918290036101045761006760406100606020840161011f565b920161011f565b9180156100eb57600080546001600160a01b03198116831782556040519516907f8be0079c531659141344cd1fd0a4f28419497f9722a3daafe3b4186f6b6457e09080a360805260a052610882908161013482396080518181816101d401528181610749015261077d015260a0518181816105650152818161072601526107df0152f35b604051631e4fbdf760e01b815260006004820152602490fd5b600080fd5b634e487b7160e01b600052604160045260246000fd5b51906001600160401b03821682036101045756fe60406080815260049081361015610020575b5050361561001e57600080fd5b005b600091823560e01c9081630a17b06b146105895781630fb5a6b4146105445781631916558714610436578163715018a6146103dc578163810ec23b1461039d57816386d1a69f1461029d5781638da5cb5b1461027557816396132521146102565781639852595c1461021e578163a3f8eace146101f8578163be9a6555146101b3578163efbe1c1c14610196578163f2fde38b1461010b575063fbccedae036100115734610107578160031936011261010757602090610100476100fb600154916100f68367ffffffffffffffff4216926105de565b61076e565b6106d2565b9051908152f35b5080fd5b905034610192576020366003190112610192576101266105c3565b9061012f610820565b6001600160a01b0391821692831561017c57505082546001600160a01b0319811683178455167f8be0079c531659141344cd1fd0a4f28419497f9722a3daafe3b4186f6b6457e08380a380f35b51631e4fbdf760e01b8152908101849052602490fd5b8280fd5b505034610107578160031936011261010757602090610100610717565b5050346101075781600319360112610107576020905167ffffffffffffffff7f0000000000000000000000000000000000000000000000000000000000000000168152f35b505034610107576020366003190112610107576020906101006102196105c3565b6106df565b5050346101075760203660031901126101075760209181906001600160a01b036102466105c3565b1681526002845220549051908152f35b5050346101075781600319360112610107576020906001549051908152f35b505034610107578160031936011261010757905490516001600160a01b039091168152602090f35b9190503461019257826003193601126101925760015467ffffffffffffffff906102db6102d4826100fb4286166100f683476105de565b80926105de565b6001557fda9d4e5f101b8b9b1c5b76d0c5a9f7923571acfc02376aa076b75a8c080c956b60208451838152a184546001600160a01b0316478211610380578580809381935af1903d1561037a573d90811161036757825190610347601f8201601f191660200183610601565b81528460203d92013e5b1561035a578280f35b5163d6bda27560e01b8152fd5b634e487b7160e01b855260418452602485fd5b50610351565b835163cf47918160e01b8152478187015260248101839052604490fd5b5050346101075780600319360112610107576103b76105c3565b6024359267ffffffffffffffff841684036103d9575060209261010091610639565b80fd5b83346103d957806003193601126103d9576103f5610820565b80546001600160a01b03198116825581906001600160a01b03167f8be0079c531659141344cd1fd0a4f28419497f9722a3daafe3b4186f6b6457e08280a380f35b91905034610192576020366003190112610192576104526105c3565b9061045c826106df565b60018060a01b0380931692838652600260205282862061047d8382546105de565b9055837fc0e523490dd523c33b1878c9eb14ff46991e3f5b2cd33710918618f2a39cba1b60208551858152a285541690825190602082019263a9059cbb60e01b845260248301526044820152604481526080810181811067ffffffffffffffff8211176105315783525160209186919082865af1156105285783513d61051f5750813b155b61050a578380f35b51635274afe760e01b81529182015260249150fd5b60011415610502565b513d84823e3d90fd5b634e487b7160e01b875260418652602487fd5b5050346101075781600319360112610107576020905167ffffffffffffffff7f0000000000000000000000000000000000000000000000000000000000000000168152f35b90503461019257602036600319011261019257359167ffffffffffffffff831683036103d957506101006020926100f647600154906105de565b600435906001600160a01b03821682036105d957565b600080fd5b919082018092116105eb57565b634e487b7160e01b600052601160045260246000fd5b90601f8019910116810190811067ffffffffffffffff82111761062357604052565b634e487b7160e01b600052604160045260246000fd5b6040516370a0823160e01b81523060048201526001600160a01b03919091169190602081602481865afa9081156106c657600091610692575b506100f69061068f936000526002602052604060002054906105de565b90565b90506020813d6020116106be575b816106ad60209383610601565b810103126105d9575161068f610672565b3d91506106a0565b6040513d6000823e3d90fd5b919082039182116105eb57565b61068f906106f767ffffffffffffffff421682610639565b6001600160a01b03909116600090815260026020526040902054906106d2565b61068f67ffffffffffffffff807f000000000000000000000000000000000000000000000000000000000000000016907f0000000000000000000000000000000000000000000000000000000000000000166105de565b9067ffffffffffffffff9081167f00000000000000000000000000000000000000000000000000000000000000008216808210156107af5750505050600090565b6107b7610717565b82106107c35750505090565b6107cc916106d2565b918281029281840414901517156105eb577f00000000000000000000000000000000000000000000000000000000000000001690811561080a570490565b634e487b7160e01b600052601260045260246000fd5b6000546001600160a01b0316330361083457565b60405163118cdaa760e01b8152336004820152602490fdfea2646970667358221220de4d83a7a2c0875c686f33a0e06840f6b6faf3b15f1a626df1431878ab5f362464736f6c63430008180033",
  "linkReferences": {},
  "deployedLinkReferences": {}
}