{
  "_format": "hh-sol-artifact-1",
  "contractName": "PrizePool",
  "sourceName": "contracts/PrizePool.sol",
  "abi": [
    {
      "inputs": [],
      "stateMutability": "nonpayable",
      "type": "constructor"
    },
    {
      "inputs": [],
      "name": "AccessControlBadConfirmation",
      "type": "error"
    },
    {
      "inputs": [
        {
          "internalType": "address",
          "name": "account",
          "type": "address"
        },
        {
          "internalType": "bytes32",
          "name": "neededRole",
          "type": "bytes32"
        }
      ],
      "name": "AccessControlUnauthorizedAccount",
      "type": "error"
    },
    {
      "inputs": [],
      "name": "ReentrancyGuardReentrantCall",
      "type": "error"
    },
    {
      "anonymous": false,
      "inputs": [
        {
          "indexed": false,
          "internalType": "address",
          "name": "to",
          "type": "address"
        },
        {
          "indexed": false,
          "internalType": "uint256",
          "name": "amount",
          "type": "uint256"
        }
      ],
      "name": "EmergencyWithdraw",
      "type": "event"
    },
    {
      "anonymous": false,
      "inputs": [
        {
          "indexed": true,
          "internalType": "address",
          "name": "winner",
          "type": "address"
        },
        {
          "indexed": false,
          "internalType": "uint256",
          "name": "amount",
          "type": "uint256"
        }
      ],
      "name": "PendingPrizeClaimed",
      "type": "event"
    },
    {
      "anonymous": false,
      "inputs": [
        {
          "indexed": true,
          "internalType": "address",
          "name": "winner",
          "type": "address"
        },
        {
          "indexed": false,
          "internalType": "uint256",
          "name": "amount",
          "type": "uint256"
        }
      ],
      "name": "PrizeQueued",
      "type": "event"
    },
    {
      "anonymous": false,
      "inputs": [
        {
          "indexed": false,
          "internalType": "uint256",
          "name": "amount",
          "type": "uint256"
        }
      ],
      "name": "PrizeReceived",
      "type": "event"
    },
    {
      "anonymous": false,
      "inputs": [
        {
          "indexed": false,
          "internalType": "uint256",
          "name": "total",
          "type": "uint256"
        },
        {
          "indexed": false,
          "internalType": "uint256",
          "name": "winnersCount",
          "type": "uint256"
        }
      ],
      "name": "PrizesDistributed",
      "type": "event"
    },
    {
      "anonymous": false,
      "inputs": [
        {
          "indexed": true,
          "internalType": "bytes32",
          "name": "role",
          "type": "bytes32"
        },
        {
          "indexed": true,
          "internalType": "bytes32",
          "name": "previousAdminRole",
          "type": "bytes32"
        },
        {
          "indexed": true,
          "internalType": "bytes32",
          "name": "newAdminRole",
          "type": "bytes32"
        }
      ],
      "name": "RoleAdminChanged",
      "type": "event"
    },
    {
      "anonymous": false,
      "inputs": [
        {
          "indexed": true,
          "internalType": "bytes32",
          "name": "role",
          "type": "bytes32"
        },
        {
          "indexed": true,
          "internalType": "address",
          "name": "account",
          "type": "address"
        },
        {
          "indexed": true,
          "internalType": "address",
          "name": "sender",
          "type": "address"
        }
      ],
      "name": "RoleGranted",
      "type": "event"
    },
    {
      "anonymous": false,
      "inputs": [
        {
          "indexed": true,
          "internalType": "bytes32",
          "name": "role",
          "type": "bytes32"
        },
        {
          "indexed": true,
          "internalType": "address",
          "name": "account",
          "type": "address"
        },
        {
          "indexed": true,
          "internalType": "address",
          "name": "sender",
          "type": "address"
        }
      ],
      "name": "RoleRevoked",
      "type": "event"
    },
    {
      "inputs": [],
      "name": "DEFAULT_ADMIN_ROLE",
      "outputs": [
        {
          "internalType": "bytes32",
          "name": "",
          "type": "bytes32"
        }
      ],
      "stateMutability": "view",
      "type": "function"
    },
    {
      "inputs": [],
      "name": "DISTRIBUTOR_ROLE",
      "outputs": [
        {
          "internalType": "bytes32",
          "name": "",
          "type": "bytes32"
        }
      ],
      "stateMutability": "view",
      "type": "function"
    },
    {
      "inputs": [],
      "name": "claimPendingPrize",
      "outputs": [],
      "stateMutability": "nonpayable",
      "type": "function"
    },
    {
      "inputs": [
        {
          "internalType": "address[]",
          "name": "winners",
          "type": "address[]"
        },
        {
          "internalType": "uint256[]",
          "name": "shares",
          "type": "uint256[]"
        }
      ],
      "name": "distributePrizes",
      "outputs": [],
      "stateMutability": "nonpayable",
      "type": "function"
    },
    {
      "inputs": [
        {
          "internalType": "address",
          "name": "to",
          "type": "address"
        }
      ],
      "name": "emergencyWithdraw",
      "outputs": [],
      "stateMutability": "nonpayable",
      "type": "function"
    },
    {
      "inputs": [],
      "name": "getBalance",
      "outputs": [
        {
          "internalType": "uint256",
          "name": "",
          "type": "uint256"
        }
      ],
      "stateMutability": "view",
      "type": "function"
    },
    {
      "inputs": [
        {
          "internalType": "bytes32",
          "name": "role",
          "type": "bytes32"
        }
      ],
      "name": "getRoleAdmin",
      "outputs": [
        {
          "internalType": "bytes32",
          "name": "",
          "type": "bytes32"
        }
      ],
      "stateMutability": "view",
      "type": "function"
    },
    {
      "inputs": [
        {
          "internalType": "bytes32",
          "name": "role",
          "type": "bytes32"
        },
        {
          "internalType": "address",
          "name": "account",
          "type": "address"
        }
      ],
      "name": "grantRole",
      "outputs": [],
      "stateMutability": "nonpayable",
      "type": "function"
    },
    {
      "inputs": [
        {
          "internalType": "bytes32",
          "name": "role",
          "type": "bytes32"
        },
        {
          "internalType": "address",
          "name": "account",
          "type": "address"
        }
      ],
      "name": "hasRole",
      "outputs": [
        {
          "internalType": "bool",
          "name": "",
          "type": "bool"
        }
      ],
      "stateMutability": "view",
      "type": "function"
    },
    {
      "inputs": [
        {
          "internalType": "address",
          "name": "",
          "type": "address"
        }
      ],
      "name": "pendingPrizes",
      "outputs": [
        {
          "internalType": "uint256",
          "name": "",
          "type": "uint256"
        }
      ],
      "stateMutability": "view",
      "type": "function"
    },
    {
      "inputs": [
        {
          "internalType": "bytes32",
          "name": "role",
          "type": "bytes32"
        },
        {
          "internalType": "address",
          "name": "callerConfirmation",
          "type": "address"
        }
      ],
      "name": "renounceRole",
      "outputs": [],
      "stateMutability": "nonpayable",
      "type": "function"
    },
    {
      "inputs": [
        {
          "internalType": "bytes32",
          "name": "role",
          "type": "bytes32"
        },
        {
          "internalType": "address",
          "name": "account",
          "type": "address"
        }
      ],
      "name": "revokeRole",
      "outputs": [],
      "stateMutability": "nonpayable",
      "type": "function"
    },
    {
      "inputs": [
        {
          "internalType": "bytes4",
          "name": "interfaceId",
          "type": "bytes4"
        }
      ],
      "name": "supportsInterface",
      "outputs": [
        {
          "internalType": "bool",
          "name": "",
          "type": "bool"
        }
      ],
      "stateMutability": "view",
      "type": "function"
    },
    {
      "inputs": [],
      "name": "totalDistributed",
      "outputs": [
        {
          "internalType": "uint256",
          "name": "",
          "type": "uint256"
        }
      ],
      "stateMutability": "view",
      "type": "function"
    },
    {
      "stateMutability": "payable",
      "type": "receive"
    }
  ],
  "bytecode": "0x6080604052346100465760017f9b779b17422d0df92223018b32b4d1fa46e071723d6817e2486d003becc55f00556100363361004b565b50604051610b3a90816100dc8239f35b600080fd5b6001600160a01b031660008181527fad3228b676f7d3cd4284a5443f17f1962b36e491b30a40b2405849e597ba5fb5602052604081205490919060ff166100d757818052816020526040822081835260205260408220600160ff1982541617905533917f2f8788117e7eff1d82e926ec794901d17c78024a50270940304540a733656f0d8180a4600190565b509056fe60806040908082526004908136101561004b575b5050361561002057600080fd5b60207f548fe5d3f90bae32b8a889b6f74cabe377b6a8899275d09bed1da9c38af1a8c39151348152a1005b600091823560e01c91826301ffc9a71461080a5750816312065fe0146107ef5781631c801661146106f8578163248a9ca3146106cd5781632f2ff15d146106a357816336568abe1461065d578163406a378a1461035e5781636ff1c9bc1461022f578163788f5352146101f757816391d14854146101b0578163a217fddf14610195578163d547741f1461015257508063efca2eed146101335763f0bd87cc146100f55780610013565b903461012f578160031936011261012f57602090517ffbd454f36a7e1a388bd6fc3ab10d434aa4578f811acbbcf33afb1c697486313c8152f35b5080fd5b50903461012f578160031936011261012f576020906001549051908152f35b9050823461019157806003193601126101915761018d9135610188600161017761085d565b9383875286602052862001546109ad565b610a6f565b5080f35b8280fd5b82843461012f578160031936011261012f5751908152602090f35b839150346101915781600319360112610191578160209360ff926101d261085d565b903582528186528282206001600160a01b039091168252855220549151911615158152f35b82843461012f57602036600319011261012f5760209181906001600160a01b0361021f610878565b1681526002845220549051908152f35b82843461012f57602092836003193601126101915761024c610878565b838052838552828420338552855260ff8385205416156103415761026e61097d565b6001600160a01b03811691821561030d57848080804780965af16102906108bf565b50156102d857507f5fafa99d0643513820be26656b45130b01e1c03062e1266bf36f88cbd3bd969593948351928352820152a16001600080516020610ae58339815191525580f35b835162461bcd60e51b8152908101869052600f60248201526e151c985b9cd9995c8819985a5b1959608a1b6044820152606490fd5b835162461bcd60e51b8152908101869052600e60248201526d16995c9bc81c9958da5c1a595b9d60921b6044820152606490fd5b5082604492519163e2517d3f60e01b835233908301526024820152fd5b82843461012f578060031936011261012f5767ffffffffffffffff83358181116106595761038f903690860161088e565b9091602490602435908111610655576103ab903690880161088e565b9690937ffbd454f36a7e1a388bd6fc3ab10d434aa4578f811acbbcf33afb1c697486313c92838852602093888552878920338a52855260ff888a2054161561063757506103f661097d565b888503610602578795885b8a8082106105e25750504787116105a857885b86811061046e57897f329f5cd0d1a0c708183708da49f688d169bfd6e9203310c8d56d4d26c144fafe8a8a8a8a61044d83600154610946565b6001558351928352820152a16001600080516020610ae58339815191525580f35b610479818c84610920565b35610487575b600101610414565b6001600160a01b03806104a361049e848b89610920565b610969565b16156105785790898b886001948f8c868b8a878080806104c761049e888a89610920565b6104d2888b88610920565b35905af16104de6108bf565b50156104f5575b505050505050505050905061047f565b826105619461055a93886105538d7f911eef452ecf4d39d4286f815ae7ed72ecd0cac425eb8853fe992bc2b747f5d89d60028e610536898f61049e9c610920565b359561054661049e8b8b8b610920565b1683525220918254610946565b9055610920565b928a610920565b3594519485521692a2898b888f8f8c868b8a6104e5565b895162461bcd60e51b8152808701889052600b818601526a2d32b937903bb4b73732b960a91b6044820152606490fd5b875162461bcd60e51b81528085018690526014602482015273496e73756666696369656e742062616c616e636560601b6044820152606490fd5b81986105f46001936105fb9386610920565b3590610946565b9701610401565b865162461bcd60e51b8152808401859052600f60248201526e098cadccee8d040dad2e6dac2e8c6d608b1b6044820152606490fd5b875163e2517d3f60e01b815233818601526024810191909152604490fd5b8580fd5b8380fd5b82843461012f578060031936011261012f5761067761085d565b90336001600160a01b03831603610694575061018d919235610a6f565b5163334bd91960e11b81528390fd5b9050823461019157806003193601126101915761018d91356106c8600161017761085d565b6109f1565b8391503461019157602036600319011261019157816020936001923581528085522001549051908152f35b9050823461019157826003193601126101915761071361097d565b3383526002602052808320549182156107ba57338452600260205283828120558380808086335af16107436108bf565b50156107895750519081527ffeaae442e56d252ebdfe4a7c2e45916d2ff26eb4a805e357e1517d6ab59ed8d260203392a26001600080516020610ae58339815191525580f35b6020606492519162461bcd60e51b8352820152600c60248201526b10db185a5b4819985a5b195960a21b6044820152fd5b6020606492519162461bcd60e51b8352820152601060248201526f4e6f2070656e64696e67207072697a6560801b6044820152fd5b82843461012f578160031936011261012f5751478152602090f35b915034610191576020366003190112610191573563ffffffff60e01b81168091036101915760209250637965db0b60e01b811490811561084c575b5015158152f35b6301ffc9a760e01b14905083610845565b602435906001600160a01b038216820361087357565b600080fd5b600435906001600160a01b038216820361087357565b9181601f840112156108735782359167ffffffffffffffff8311610873576020808501948460051b01011161087357565b3d1561091b5767ffffffffffffffff903d8281116109055760405192601f8201601f19908116603f01168401908111848210176109055760405282523d6000602084013e565b634e487b7160e01b600052604160045260246000fd5b606090565b91908110156109305760051b0190565b634e487b7160e01b600052603260045260246000fd5b9190820180921161095357565b634e487b7160e01b600052601160045260246000fd5b356001600160a01b03811681036108735790565b600080516020610ae5833981519152600281541461099b5760029055565b604051633ee5aeb560e01b8152600490fd5b80600052600060205260406000203360005260205260ff60406000205416156109d35750565b6044906040519063e2517d3f60e01b82523360048301526024820152fd5b9060009180835282602052604083209160018060a01b03169182845260205260ff60408420541615600014610a6a57808352826020526040832082845260205260408320600160ff198254161790557f2f8788117e7eff1d82e926ec794901d17c78024a50270940304540a733656f0d339380a4600190565b505090565b9060009180835282602052604083209160018060a01b03169182845260205260ff604084205416600014610a6a5780835282602052604083208284526020526040832060ff1981541690557ff6391f5c32d9c69d2a47ea670b442974b53935d1edc7fd64eb21e047a839171b339380a460019056fe9b779b17422d0df92223018b32b4d1fa46e071723d6817e2486d003becc55f00a2646970667358221220c2a676ab361e7f5c6858c7f4d15ff6fa2009a60f9291507f528526929229619664736f6c63430008180033",
  "linkReferences": {},
  "deployedLinkReferences": {}
}