{
  "_format": "hh-sol-artifact-1",
  "contractName": "PrizePool",
  "sourceName": "contracts/PrizePool.sol",
  "abi": [
    {
      "inputs": [],
      "stateMutability": "nonpayable",
      "type": "constructor"
    },
    {
      "inputs": [],
      "name": "AccessControlBadConfirmation",
      "type": "error"
    },
    {
      "inputs": [
        {
          "internalType": "address",
          "name": "account",
          "type": "address"
        },
        {
          "internalType": "bytes32",
          "name": "neededRole",
          "type": "bytes32"
        }
      ],
      "name": "AccessControlUnauthorizedAccount",
      "type": "error"
    },
    {
      "inputs": [],
      "name": "ReentrancyGuardReentrantCall",
      "type": "error"
    },
    {
      "anonymous": false,
      "inputs": [
        {
          "indexed": false,
          "internalType": "address",
          "name": "to",
          "type": "address"
        },
        {
          "indexed": false,
          "internalType": "uint256",
          "name": "amount",
          "type": "uint256"
        }
      ],
      "name": "EmergencyWithdraw",
      "type": "event"
    },
    {
      "anonymous": false,
      "inputs": [
        {
          "indexed": true,
          "internalType": "address",
          "name": "winner",
          "type": "address"
        },
        {
          "indexed": false,
          "internalType": "uint256",
          "name": "amount",
          "type": "uint256"
        }
      ],
      "name": "PendingPrizeClaimed",
      "type": "event"
    },
    {
      "anonymous": false,
      "inputs": [
        {
          "indexed": true,
          "internalType": "address",
          "name": "winner",
          "type": "address"
        },
        {
          "indexed": false,
          "internalType": "uint256",
          "name": "amount",
          "type": "uint256"
        }
      ],
      "name": "PrizeQueued",
      "type": "event"
    },
    {
      "anonymous": false,
      "inputs": [
        {
          "indexed": false,
          "internalType": "uint256",
          "name": "amount",
          "type": "uint256"
        }
      ],
      "name": "PrizeReceived",
      "type": "event"
    },
    {
      "anonymous": false,
      "inputs": [
        {
          "indexed": false,
          "internalType": "uint256",
          "name": "total",
          "type": "uint256"
        },
        {
          "indexed": false,
          "internalType": "uint256",
          "name": "winnersCount",
          "type": "uint256"
        }
      ],
      "name": "PrizesDistributed",
      "type": "event"
    },
    {
      "anonymous": false,
      "inputs": [
        {
          "indexed": true,
          "internalType": "bytes32",
          "name": "role",
          "type": "bytes32"
        },
        {
          "indexed": true,
          "internalType": "bytes32",
          "name": "previousAdminRole",
          "type": "bytes32"
        },
        {
          "indexed": true,
          "internalType": "bytes32",
          "name": "newAdminRole",
          "type": "bytes32"
        }
      ],
      "name": "RoleAdminChanged",
      "type": "event"
    },
    {
      "anonymous": false,
      "inputs": [
        {
          "indexed": true,
          "internalType": "bytes32",
          "name": "role",
          "type": "bytes32"
        },
        {
          "indexed": true,
          "internalType": "address",
          "name": "account",
          "type": "address"
        },
        {
          "indexed": true,
          "internalType": "address",
          "name": "sender",
          "type": "address"
        }
      ],
      "name": "RoleGranted",
      "type": "event"
    },
    {
      "anonymous": false,
      "inputs": [
        {
          "indexed": true,
          "internalType": "bytes32",
          "name": "role",
          "type": "bytes32"
        },
        {
          "indexed": true,
          "internalType": "address",
          "name": "account",
          "type": "address"
        },
        {
          "indexed": true,
          "internalType": "address",
          "name": "sender",
          "type": "address"
        }
      ],
      "name": "RoleRevoked",
      "type": "event"
    },
    {
      "inputs": [],
      "name": "DEFAULT_ADMIN_ROLE",
      "outputs": [
        {
          "internalType": "bytes32",
          "name": "",
          "type": "bytes32"
        }
      ],
      "stateMutability": "view",
      "type": "function"
    },
    {
      "inputs": [],
      "name": "DISTRIBUTOR_ROLE",
      "outputs": [
        {
          "internalType": "bytes32",
          "name": "",
          "type": "bytes32"
        }
      ],
      "stateMutability": "view",
      "type": "function"
    },
    {
      "inputs": [],
      "name": "claimPendingPrize",
      "outputs": [],
      "stateMutability": "nonpayable",
      "type": "function"
    },
    {
      "inputs": [
        {
          "internalType": "address[]",
          "name": "winners",
          "type": "address[]"
        },
        {
          "internalType": "uint256[]",
          "name": "shares",
          "type": "uint256[]"
        }
      ],
      "name": "distributePrizes",
      "outputs": [],
      "stateMutability": "nonpayable",
      "type": "function"
    },
    {
      "inputs": [
        {
          "internalType": "address",
          "name": "to",
          "type": "address"
        }
      ],
      "name": "emergencyWithdraw",
      "outputs": [],
      "stateMutability": "nonpayable",
      "type": "function"
    },
    {
      "inputs": [],
      "name": "getBalance",
      "outputs": [
        {
          "internalType": "uint256",
          "name": "",
          "type": "uint256"
        }
      ],
      "stateMutability": "view",
      "type": "function"
    },
    {
      "inputs": [
        {
          "internalType": "bytes32",
          "name": "role",
          "type": "bytes32"
        }
      ],
      "name": "getRoleAdmin",
      "outputs": [
        {
          "internalType": "bytes32",
          "name": "",
          "type": "bytes32"
        }
      ],
      "stateMutability": "view",
      "type": "function"
    },
    {
      "inputs": [
        {
          "internalType": "bytes32",
          "name": "role",
          "type": "bytes32"
        },
        {
          "internalType": "address",
          "name": "account",
          "type": "address"
        }
      ],
      "name": "grantRole",
      "outputs": [],
      "stateMutability": "nonpayable",
      "type": "function"
    },
    {
      "inputs": [
        {
          "internalType": "bytes32",
          "name": "role",
          "type": "bytes32"
        },
        {
          "internalType": "address",
          "name": "account",
          "type": "address"
        }
      ],
      "name": "hasRole",
      "outputs": [
        {
          "internalType": "bool",
          "name": "",
          "type": "bool"
        }
      ],
      "stateMutability": "view",
      "type": "function"
    },
    {
      "inputs": [
        {
          "internalType": "address",
          "name": "",
          "type": "address"
        }
      ],
      "name": "pendingPrizes",
      "outputs": [
        {
          "internalType": "uint256",
          "name": "",
          "type": "uint256"
        }
      ],
      "stateMutability": "view",
      "type": "function"
    },
    {
      "inputs": [
        {
          "internalType": "bytes32",
          "name": "role",
          "type": "bytes32"
        },
        {
          "internalType": "address",
          "name": "callerConfirmation",
          "type": "address"
        }
      ],
      "name": "renounceRole",
      "outputs": [],
      "stateMutability": "nonpayable",
      "type": "function"
    },
    {
      "inputs": [
        {
          "internalType": "bytes32",
          "name": "role",
          "type": "bytes32"
        },
        {
          "internalType": "address",
          "name": "account",
          "type": "address"
        }
      ],
      "name": "revokeRole",
      "outputs": [],
      "stateMutability": "nonpayable",
      "type": "function"
    },
    {
      "inputs": [
        {
          "internalType": "bytes4",
          "name": "interfaceId",
          "type": "bytes4"
        }
      ],
      "name": "supportsInterface",
      "outputs": [
        {
          "internalType": "bool",
          "name": "",
          "type": "bool"
        }
      ],
      "stateMutability": "view",
      "type": "function"
    },
    {
      "inputs": [],
      "name": "totalDistributed",
      "outputs": [
        {
          "internalType": "uint256",
          "name": "",
          "type": "uint256"
        }
      ],
      "stateMutability": "view",
      "type": "function"
    },
    {
      "stateMutability": "payable",
      "type": "receive"
    }
  ],
  "bytecode": "0x60806040523461002657600180556100163361002b565b50604051610ae390816100bc8239f35b600080fd5b6001600160a01b031660008181527fad3228b676f7d3cd4284a5443f17f1962b36e491b30a40b2405849e597ba5fb5602052604081205490919060ff166100b757818052816020526040822081835260205260408220600160ff1982541617905533917f2f8788117e7eff1d82e926ec794901d17c78024a50270940304540a733656f0d8180a4600190565b509056fe60806040908082526004908136101561004b575b5050361561002057600080fd5b60207f548fe5d3f90bae32b8a889b6f74cabe377b6a8899275d09bed1da9c38af1a8c39151348152a1005b600091823560e01c91826301ffc9a7146107e05750816312065fe0146107c55781631c801661146106dc578163248a9ca3146106b15781632f2ff15d1461068757816336568abe14610641578163406a378a146103505781636ff1c9bc1461022f578163788f5352146101f757816391d14854146101b0578163a217fddf14610195578163d547741f1461015257508063efca2eed146101335763f0bd87cc146100f55780610013565b903461012f578160031936011261012f57602090517ffbd454f36a7e1a388bd6fc3ab10d434aa4578f811acbbcf33afb1c697486313c8152f35b5080fd5b50903461012f578160031936011261012f576020906002549051908152f35b9050823461019157806003193601126101915761018d91356101886001610177610833565b938387528660205286200154610976565b610a38565b5080f35b8280fd5b82843461012f578160031936011261012f5751908152602090f35b839150346101915781600319360112610191578160209360ff926101d2610833565b903582528186528282206001600160a01b039091168252855220549151911615158152f35b82843461012f57602036600319011261012f5760209181906001600160a01b0361021f61084e565b1681526003845220549051908152f35b82843461012f57602092836003193601126101915761024c61084e565b838052838552828420338552855260ff8385205416156103335761026e610953565b6001600160a01b0381169182156102ff57848080804780965af1610290610895565b50156102ca57507f5fafa99d0643513820be26656b45130b01e1c03062e1266bf36f88cbd3bd969593948351928352820152a16001805580f35b835162461bcd60e51b8152908101869052600f60248201526e151c985b9cd9995c8819985a5b1959608a1b6044820152606490fd5b835162461bcd60e51b8152908101869052600e60248201526d16995c9bc81c9958da5c1a595b9d60921b6044820152606490fd5b5082604492519163e2517d3f60e01b835233908301526024820152fd5b82843461012f578060031936011261012f5767ffffffffffffffff833581811161063d576103819036908601610864565b90916024906024359081116106395761039d9036908801610864565b9690937ffbd454f36a7e1a388bd6fc3ab10d434aa4578f811acbbcf33afb1c697486313c92838852602093888552878920338a52855260ff888a2054161561061b57506103e8610953565b8885036105e6578795885b8a8082106105c657505047871161058c57885b86811061045257897f329f5cd0d1a0c708183708da49f688d169bfd6e9203310c8d56d4d26c144fafe8a8a8a8a61043f8360025461091c565b6002558351928352820152a16001805580f35b61045d818c846108f6565b3561046b575b600101610406565b6001600160a01b0380610487610482848b896108f6565b61093f565b161561055c5790898b886001948f8c868b8a878080806104ab610482888a896108f6565b6104b6888b886108f6565b35905af16104c2610895565b50156104d9575b5050505050505050509050610463565b826105459461053e93886105378d7f911eef452ecf4d39d4286f815ae7ed72ecd0cac425eb8853fe992bc2b747f5d89d60038e61051a898f6104829c6108f6565b359561052a6104828b8b8b6108f6565b168352522091825461091c565b90556108f6565b928a6108f6565b3594519485521692a2898b888f8f8c868b8a6104c9565b895162461bcd60e51b8152808701889052600b818601526a2d32b937903bb4b73732b960a91b6044820152606490fd5b875162461bcd60e51b81528085018690526014602482015273496e73756666696369656e742062616c616e636560601b6044820152606490fd5b81986105d86001936105df93866108f6565b359061091c565b97016103f3565b865162461bcd60e51b8152808401859052600f60248201526e098cadccee8d040dad2e6dac2e8c6d608b1b6044820152606490fd5b875163e2517d3f60e01b815233818601526024810191909152604490fd5b8580fd5b8380fd5b82843461012f578060031936011261012f5761065b610833565b90336001600160a01b03831603610678575061018d919235610a38565b5163334bd91960e11b81528390fd5b9050823461019157806003193601126101915761018d91356106ac6001610177610833565b6109ba565b8391503461019157602036600319011261019157816020936001923581528085522001549051908152f35b905082346101915782600319360112610191576106f7610953565b33835260036020528083205491821561079057338452600360205283828120558380808086335af1610727610895565b501561075f5750519081527ffeaae442e56d252ebdfe4a7c2e45916d2ff26eb4a805e357e1517d6ab59ed8d260203392a26001805580f35b6020606492519162461bcd60e51b8352820152600c60248201526b10db185a5b4819985a5b195960a21b6044820152fd5b6020606492519162461bcd60e51b8352820152601060248201526f4e6f2070656e64696e67207072697a6560801b6044820152fd5b82843461012f578160031936011261012f5751478152602090f35b915034610191576020366003190112610191573563ffffffff60e01b81168091036101915760209250637965db0b60e01b8114908115610822575b5015158152f35b6301ffc9a760e01b1490508361081b565b602435906001600160a01b038216820361084957565b600080fd5b600435906001600160a01b038216820361084957565b9181601f840112156108495782359167ffffffffffffffff8311610849576020808501948460051b01011161084957565b3d156108f15767ffffffffffffffff903d8281116108db5760405192601f8201601f19908116603f01168401908111848210176108db5760405282523d6000602084013e565b634e487b7160e01b600052604160045260246000fd5b606090565b91908110156109065760051b0190565b634e487b7160e01b600052603260045260246000fd5b9190820180921161092957565b634e487b7160e01b600052601160045260246000fd5b356001600160a01b03811681036108495790565b600260015414610964576002600155565b604051633ee5aeb560e01b8152600490fd5b80600052600060205260406000203360005260205260ff604060002054161561099c5750565b6044906040519063e2517d3f60e01b82523360048301526024820152fd5b9060009180835282602052604083209160018060a01b03169182845260205260ff60408420541615600014610a3357808352826020526040832082845260205260408320600160ff198254161790557f2f8788117e7eff1d82e926ec794901d17c78024a50270940304540a733656f0d339380a4600190565b505090565b9060009180835282602052604083209160018060a01b03169182845260205260ff604084205416600014610a335780835282602052604083208284526020526040832060ff1981541690557ff6391f5c32d9c69d2a47ea670b442974b53935d1edc7fd64eb21e047a839171b339380a460019056fea26469706673582212207433c56e5b97efc38c7794fefb59205db20c04eda73e9d16f1f6df0f889ebb7164736f6c63430008180033",
  "linkReferences": {},
  "deployedLinkReferences": {}
}