{
  "_format": "hh-sol-artifact-1",
  "contractName": "OracleTimelock",
  "sourceName": "contracts/OracleTimelock.sol",
  "abi": [
    {
      "inputs": [
        {
          "internalType": "address[]",
          "name": "proposers",
          "type": "address[]"
        },
        {
          "internalType": "address[]",
          "name": "executors",
          "type": "address[]"
        },
        {
          "internalType": "address",
          "name": "admin",
          "type": "address"
        }
      ],
      "stateMutability": "nonpayable",
      "type": "constructor"
    },
    {
      "inputs": [],
      "name": "AccessControlBadConfirmation",
      "type": "error"
    },
    {
      "inputs": [
        {
          "internalType": "address",
          "name": "account",
          "type": "address"
        },
        {
          "internalType": "bytes32",
          "name": "neededRole",
          "type": "bytes32"
        }
      ],
      "name": "AccessControlUnauthorizedAccount",
      "type": "error"
    },
    {
      "inputs": [],
      "name": "FailedCall",
      "type": "error"
    },
    {
      "inputs": [
        {
          "internalType": "uint256",
          "name": "delay",
          "type": "uint256"
        },
        {
          "internalType": "uint256",
          "name": "minDelay",
          "type": "uint256"
        }
      ],
      "name": "TimelockInsufficientDelay",
      "type": "error"
    },
    {
      "inputs": [
        {
          "internalType": "uint256",
          "name": "targets",
          "type": "uint256"
        },
        {
          "internalType": "uint256",
          "name": "payloads",
          "type": "uint256"
        },
        {
          "internalType": "uint256",
          "name": "values",
          "type": "uint256"
        }
      ],
      "name": "TimelockInvalidOperationLength",
      "type": "error"
    },
    {
      "inputs": [
        {
          "internalType": "address",
          "name": "caller",
          "type": "address"
        }
      ],
      "name": "TimelockUnauthorizedCaller",
      "type": "error"
    },
    {
      "inputs": [
        {
          "internalType": "bytes32",
          "name": "predecessorId",
          "type": "bytes32"
        }
      ],
      "name": "TimelockUnexecutedPredecessor",
      "type": "error"
    },
    {
      "inputs": [
        {
          "internalType": "bytes32",
          "name": "operationId",
          "type": "bytes32"
        },
        {
          "internalType": "bytes32",
          "name": "expectedStates",
          "type": "bytes32"
        }
      ],
      "name": "TimelockUnexpectedOperationState",
      "type": "error"
    },
    {
      "anonymous": false,
      "inputs": [
        {
          "indexed": true,
          "internalType": "bytes32",
          "name": "id",
          "type": "bytes32"
        },
        {
          "indexed": true,
          "internalType": "uint256",
          "name": "index",
          "type": "uint256"
        },
        {
          "indexed": false,
          "internalType": "address",
          "name": "target",
          "type": "address"
        },
        {
          "indexed": false,
          "internalType": "uint256",
          "name": "value",
          "type": "uint256"
        },
        {
          "indexed": false,
          "internalType": "bytes",
          "name": "data",
          "type": "bytes"
        }
      ],
      "name": "CallExecuted",
      "type": "event"
    },
    {
      "anonymous": false,
      "inputs": [
        {
          "indexed": true,
          "internalType": "bytes32",
          "name": "id",
          "type": "bytes32"
        },
        {
          "indexed": false,
          "internalType": "bytes32",
          "name": "salt",
          "type": "bytes32"
        }
      ],
      "name": "CallSalt",
      "type": "event"
    },
    {
      "anonymous": false,
      "inputs": [
        {
          "indexed": true,
          "internalType": "bytes32",
          "name": "id",
          "type": "bytes32"
        },
        {
          "indexed": true,
          "internalType": "uint256",
          "name": "index",
          "type": "uint256"
        },
        {
          "indexed": false,
          "internalType": "address",
          "name": "target",
          "type": "address"
        },
        {
          "indexed": false,
          "internalType": "uint256",
          "name": "value",
          "type": "uint256"
        },
        {
          "indexed": false,
          "internalType": "bytes",
          "name": "data",
          "type": "bytes"
        },
        {
          "indexed": false,
          "internalType": "bytes32",
          "name": "predecessor",
          "type": "bytes32"
        },
        {
          "indexed": false,
          "internalType": "uint256",
          "name": "delay",
          "type": "uint256"
        }
      ],
      "name": "CallScheduled",
      "type": "event"
    },
    {
      "anonymous": false,
      "inputs": [
        {
          "indexed": true,
          "internalType": "bytes32",
          "name": "id",
          "type": "bytes32"
        }
      ],
      "name": "Cancelled",
      "type": "event"
    },
    {
      "anonymous": false,
      "inputs": [
        {
          "indexed": false,
          "internalType": "uint256",
          "name": "oldDuration",
          "type": "uint256"
        },
        {
          "indexed": false,
          "internalType": "uint256",
          "name": "newDuration",
          "type": "uint256"
        }
      ],
      "name": "MinDelayChange",
      "type": "event"
    },
    {
      "anonymous": false,
      "inputs": [
        {
          "indexed": true,
          "internalType": "bytes32",
          "name": "role",
          "type": "bytes32"
        },
        {
          "indexed": true,
          "internalType": "bytes32",
          "name": "previousAdminRole",
          "type": "bytes32"
        },
        {
          "indexed": true,
          "internalType": "bytes32",
          "name": "newAdminRole",
          "type": "bytes32"
        }
      ],
      "name": "RoleAdminChanged",
      "type": "event"
    },
    {
      "anonymous": false,
      "inputs": [
        {
          "indexed": true,
          "internalType": "bytes32",
          "name": "role",
          "type": "bytes32"
        },
        {
          "indexed": true,
          "internalType": "address",
          "name": "account",
          "type": "address"
        },
        {
          "indexed": true,
          "internalType": "address",
          "name": "sender",
          "type": "address"
        }
      ],
      "name": "RoleGranted",
      "type": "event"
    },
    {
      "anonymous": false,
      "inputs": [
        {
          "indexed": true,
          "internalType": "bytes32",
          "name": "role",
          "type": "bytes32"
        },
        {
          "indexed": true,
          "internalType": "address",
          "name": "account",
          "type": "address"
        },
        {
          "indexed": true,
          "internalType": "address",
          "name": "sender",
          "type": "address"
        }
      ],
      "name": "RoleRevoked",
      "type": "event"
    },
    {
      "inputs": [],
      "name": "CANCELLER_ROLE",
      "outputs": [
        {
          "internalType": "bytes32",
          "name": "",
          "type": "bytes32"
        }
      ],
      "stateMutability": "view",
      "type": "function"
    },
    {
      "inputs": [],
      "name": "DEFAULT_ADMIN_ROLE",
      "outputs": [
        {
          "internalType": "bytes32",
          "name": "",
          "type": "bytes32"
        }
      ],
      "stateMutability": "view",
      "type": "function"
    },
    {
      "inputs": [],
      "name": "DEFAULT_DELAY",
      "outputs": [
        {
          "internalType": "uint256",
          "name": "",
          "type": "uint256"
        }
      ],
      "stateMutability": "view",
      "type": "function"
    },
    {
      "inputs": [],
      "name": "EXECUTOR_ROLE",
      "outputs": [
        {
          "internalType": "bytes32",
          "name": "",
          "type": "bytes32"
        }
      ],
      "stateMutability": "view",
      "type": "function"
    },
    {
      "inputs": [],
      "name": "PROPOSER_ROLE",
      "outputs": [
        {
          "internalType": "bytes32",
          "name": "",
          "type": "bytes32"
        }
      ],
      "stateMutability": "view",
      "type": "function"
    },
    {
      "inputs": [
        {
          "internalType": "bytes32",
          "name": "id",
          "type": "bytes32"
        }
      ],
      "name": "cancel",
      "outputs": [],
      "stateMutability": "nonpayable",
      "type": "function"
    },
    {
      "inputs": [
        {
          "internalType": "address",
          "name": "target",
          "type": "address"
        },
        {
          "internalType": "uint256",
          "name": "value",
          "type": "uint256"
        },
        {
          "internalType": "bytes",
          "name": "payload",
          "type": "bytes"
        },
        {
          "internalType": "bytes32",
          "name": "predecessor",
          "type": "bytes32"
        },
        {
          "internalType": "bytes32",
          "name": "salt",
          "type": "bytes32"
        }
      ],
      "name": "execute",
      "outputs": [],
      "stateMutability": "payable",
      "type": "function"
    },
    {
      "inputs": [
        {
          "internalType": "address[]",
          "name": "targets",
          "type": "address[]"
        },
        {
          "internalType": "uint256[]",
          "name": "values",
          "type": "uint256[]"
        },
        {
          "internalType": "bytes[]",
          "name": "payloads",
          "type": "bytes[]"
        },
        {
          "internalType": "bytes32",
          "name": "predecessor",
          "type": "bytes32"
        },
        {
          "internalType": "bytes32",
          "name": "salt",
          "type": "bytes32"
        }
      ],
      "name": "executeBatch",
      "outputs": [],
      "stateMutability": "payable",
      "type": "function"
    },
    {
      "inputs": [],
      "name": "getMinDelay",
      "outputs": [
        {
          "internalType": "uint256",
          "name": "",
          "type": "uint256"
        }
      ],
      "stateMutability": "view",
      "type": "function"
    },
    {
      "inputs": [
        {
          "internalType": "bytes32",
          "name": "id",
          "type": "bytes32"
        }
      ],
      "name": "getOperationState",
      "outputs": [
        {
          "internalType": "enum TimelockController.OperationState",
          "name": "",
          "type": "uint8"
        }
      ],
      "stateMutability": "view",
      "type": "function"
    },
    {
      "inputs": [
        {
          "internalType": "bytes32",
          "name": "role",
          "type": "bytes32"
        }
      ],
      "name": "getRoleAdmin",
      "outputs": [
        {
          "internalType": "bytes32",
          "name": "",
          "type": "bytes32"
        }
      ],
      "stateMutability": "view",
      "type": "function"
    },
    {
      "inputs": [
        {
          "internalType": "bytes32",
          "name": "id",
          "type": "bytes32"
        }
      ],
      "name": "getTimestamp",
      "outputs": [
        {
          "internalType": "uint256",
          "name": "",
          "type": "uint256"
        }
      ],
      "stateMutability": "view",
      "type": "function"
    },
    {
      "inputs": [
        {
          "internalType": "bytes32",
          "name": "role",
          "type": "bytes32"
        },
        {
          "internalType": "address",
          "name": "account",
          "type": "address"
        }
      ],
      "name": "grantRole",
      "outputs": [],
      "stateMutability": "nonpayable",
      "type": "function"
    },
    {
      "inputs": [
        {
          "internalType": "bytes32",
          "name": "role",
          "type": "bytes32"
        },
        {
          "internalType": "address",
          "name": "account",
          "type": "address"
        }
      ],
      "name": "hasRole",
      "outputs": [
        {
          "internalType": "bool",
          "name": "",
          "type": "bool"
        }
      ],
      "stateMutability": "view",
      "type": "function"
    },
    {
      "inputs": [
        {
          "internalType": "address",
          "name": "target",
          "type": "address"
        },
        {
          "internalType": "uint256",
          "name": "value",
          "type": "uint256"
        },
        {
          "internalType": "bytes",
          "name": "data",
          "type": "bytes"
        },
        {
          "internalType": "bytes32",
          "name": "predecessor",
          "type": "bytes32"
        },
        {
          "internalType": "bytes32",
          "name": "salt",
          "type": "bytes32"
        }
      ],
      "name": "hashOperation",
      "outputs": [
        {
          "internalType": "bytes32",
          "name": "",
          "type": "bytes32"
        }
      ],
      "stateMutability": "pure",
      "type": "function"
    },
    {
      "inputs": [
        {
          "internalType": "address[]",
          "name": "targets",
          "type": "address[]"
        },
        {
          "internalType": "uint256[]",
          "name": "values",
          "type": "uint256[]"
        },
        {
          "internalType": "bytes[]",
          "name": "payloads",
          "type": "bytes[]"
        },
        {
          "internalType": "bytes32",
          "name": "predecessor",
          "type": "bytes32"
        },
        {
          "internalType": "bytes32",
          "name": "salt",
          "type": "bytes32"
        }
      ],
      "name": "hashOperationBatch",
      "outputs": [
        {
          "internalType": "bytes32",
          "name": "",
          "type": "bytes32"
        }
      ],
      "stateMutability": "pure",
      "type": "function"
    },
    {
      "inputs": [
        {
          "internalType": "bytes32",
          "name": "id",
          "type": "bytes32"
        }
      ],
      "name": "isOperation",
      "outputs": [
        {
          "internalType": "bool",
          "name": "",
          "type": "bool"
        }
      ],
      "stateMutability": "view",
      "type": "function"
    },
    {
      "inputs": [
        {
          "internalType": "bytes32",
          "name": "id",
          "type": "bytes32"
        }
      ],
      "name": "isOperationDone",
      "outputs": [
        {
          "internalType": "bool",
          "name": "",
          "type": "bool"
        }
      ],
      "stateMutability": "view",
      "type": "function"
    },
    {
      "inputs": [
        {
          "internalType": "bytes32",
          "name": "id",
          "type": "bytes32"
        }
      ],
      "name": "isOperationPending",
      "outputs": [
        {
          "internalType": "bool",
          "name": "",
          "type": "bool"
        }
      ],
      "stateMutability": "view",
      "type": "function"
    },
    {
      "inputs": [
        {
          "internalType": "bytes32",
          "name": "id",
          "type": "bytes32"
        }
      ],
      "name": "isOperationReady",
      "outputs": [
        {
          "internalType": "bool",
          "name": "",
          "type": "bool"
        }
      ],
      "stateMutability": "view",
      "type": "function"
    },
    {
      "inputs": [
        {
          "internalType": "address",
          "name": "",
          "type": "address"
        },
        {
          "internalType": "address",
          "name": "",
          "type": "address"
        },
        {
          "internalType": "uint256[]",
          "name": "",
          "type": "uint256[]"
        },
        {
          "internalType": "uint256[]",
          "name": "",
          "type": "uint256[]"
        },
        {
          "internalType": "bytes",
          "name": "",
          "type": "bytes"
        }
      ],
      "name": "onERC1155BatchReceived",
      "outputs": [
        {
          "internalType": "bytes4",
          "name": "",
          "type": "bytes4"
        }
      ],
      "stateMutability": "nonpayable",
      "type": "function"
    },
    {
      "inputs": [
        {
          "internalType": "address",
          "name": "",
          "type": "address"
        },
        {
          "internalType": "address",
          "name": "",
          "type": "address"
        },
        {
          "internalType": "uint256",
          "name": "",
          "type": "uint256"
        },
        {
          "internalType": "uint256",
          "name": "",
          "type": "uint256"
        },
        {
          "internalType": "bytes",
          "name": "",
          "type": "bytes"
        }
      ],
      "name": "onERC1155Received",
      "outputs": [
        {
          "internalType": "bytes4",
          "name": "",
          "type": "bytes4"
        }
      ],
      "stateMutability": "nonpayable",
      "type": "function"
    },
    {
      "inputs": [
        {
          "internalType": "address",
          "name": "",
          "type": "address"
        },
        {
          "internalType": "address",
          "name": "",
          "type": "address"
        },
        {
          "internalType": "uint256",
          "name": "",
          "type": "uint256"
        },
        {
          "internalType": "bytes",
          "name": "",
          "type": "bytes"
        }
      ],
      "name": "onERC721Received",
      "outputs": [
        {
          "internalType": "bytes4",
          "name": "",
          "type": "bytes4"
        }
      ],
      "stateMutability": "nonpayable",
      "type": "function"
    },
    {
      "inputs": [
        {
          "internalType": "bytes32",
          "name": "role",
          "type": "bytes32"
        },
        {
          "internalType": "address",
          "name": "callerConfirmation",
          "type": "address"
        }
      ],
      "name": "renounceRole",
      "outputs": [],
      "stateMutability": "nonpayable",
      "type": "function"
    },
    {
      "inputs": [
        {
          "internalType": "bytes32",
          "name": "role",
          "type": "bytes32"
        },
        {
          "internalType": "address",
          "name": "account",
          "type": "address"
        }
      ],
      "name": "revokeRole",
      "outputs": [],
      "stateMutability": "nonpayable",
      "type": "function"
    },
    {
      "inputs": [
        {
          "internalType": "address",
          "name": "target",
          "type": "address"
        },
        {
          "internalType": "uint256",
          "name": "value",
          "type": "uint256"
        },
        {
          "internalType": "bytes",
          "name": "data",
          "type": "bytes"
        },
        {
          "internalType": "bytes32",
          "name": "predecessor",
          "type": "bytes32"
        },
        {
          "internalType": "bytes32",
          "name": "salt",
          "type": "bytes32"
        },
        {
          "internalType": "uint256",
          "name": "delay",
          "type": "uint256"
        }
      ],
      "name": "schedule",
      "outputs": [],
      "stateMutability": "nonpayable",
      "type": "function"
    },
    {
      "inputs": [
        {
          "internalType": "address[]",
          "name": "targets",
          "type": "address[]"
        },
        {
          "internalType": "uint256[]",
          "name": "values",
          "type": "uint256[]"
        },
        {
          "internalType": "bytes[]",
          "name": "payloads",
          "type": "bytes[]"
        },
        {
          "internalType": "bytes32",
          "name": "predecessor",
          "type": "bytes32"
        },
        {
          "internalType": "bytes32",
          "name": "salt",
          "type": "bytes32"
        },
        {
          "internalType": "uint256",
          "name": "delay",
          "type": "uint256"
        }
      ],
      "name": "scheduleBatch",
      "outputs": [],
      "stateMutability": "nonpayable",
      "type": "function"
    },
    {
      "inputs": [
        {
          "internalType": "bytes4",
          "name": "interfaceId",
          "type": "bytes4"
        }
      ],
      "name": "supportsInterface",
      "outputs": [
        {
          "internalType": "bool",
          "name": "",
          "type": "bool"
        }
      ],
      "stateMutability": "view",
      "type": "function"
    },
    {
      "inputs": [
        {
          "internalType": "uint256",
          "name": "newDelay",
          "type": "uint256"
        }
      ],
      "name": "updateDelay",
      "outputs": [],
      "stateMutability": "nonpayable",
      "type": "function"
    },
    {
      "stateMutability": "payable",
      "type": "receive"
    }
  ],
  "bytecode": "0x608060405234620001725762001a5d803803806200001d8162000177565b928339810190606081830312620001725780516001600160401b03908181116200017257836200004f918401620001c8565b92602083015191821162000172576200007160409162000079938501620001c8565b9201620001b3565b91620000853062000266565b506001600160a01b03928084166200015f575b5060005b8151811015620000e45780620000c285620000ba600194866200023b565b5116620002e6565b50620000dc85620000d483866200023b565b511662000388565b50016200009c565b505060005b81518110156200011757806200010f8462000107600194866200023b565b511662000425565b5001620000e9565b7f11c24f4ead16507c69ac467fbd5e4eed5fb5c699626d2cc6d66421df253886d560406202a30080600255815190600082526020820152a160405161157a9081620004c38239f35b6200016a9062000266565b503862000098565b600080fd5b6040519190601f01601f191682016001600160401b038111838210176200019d57604052565b634e487b7160e01b600052604160045260246000fd5b51906001600160a01b03821682036200017257565b81601f8201121562000172578051916020916001600160401b0384116200019d578360051b908380620001fd81850162000177565b80978152019282010192831162000172578301905b82821062000221575050505090565b8380916200022f84620001b3565b81520191019062000212565b8051821015620002505760209160051b010190565b634e487b7160e01b600052603260045260246000fd5b6001600160a01b031660008181527fad3228b676f7d3cd4284a5443f17f1962b36e491b30a40b2405849e597ba5fb5602052604081205490919060ff16620002e257818052816020526040822081835260205260408220600160ff19825416179055339160008051602062001a3d8339815191528180a4600190565b5090565b6001600160a01b031660008181527f3412d5605ac6cd444957cedb533e5dacad6378b4bc819ebe3652188a665066d560205260408120549091907fb09aa5aeb3702cfd50b6b62bc4532604938f21248a27a1d5ca736082b6819cc19060ff166200038357808352826020526040832082845260205260408320600160ff1982541617905560008051602062001a3d833981519152339380a4600190565b505090565b6001600160a01b031660008181527fc3ad33e20b0c56a223ad5104fff154aa010f8715b9c981fd38fdc60a4d1a52fb60205260408120549091907ffd643c72710c63c0180259aba6b2d05451e3591a24e58b62239378085726f7839060ff166200038357808352826020526040832082845260205260408320600160ff1982541617905560008051602062001a3d833981519152339380a4600190565b6001600160a01b031660008181527fdae2aa361dfd1ca020a396615627d436107c35eff9fe7738a3512819782d706960205260408120549091907fd8aa0f3194971a2a116679f7c2090f6939c8d4e01a2a8d7e41d55e5351469e639060ff166200038357808352826020526040832082845260205260408320600160ff1982541617905560008051602062001a3d833981519152339380a460019056fe60406080815260049081361015610020575b5050361561001e57600080fd5b005b600091823560e01c90816301d5062a14610b3357816301ffc9a714610ac057816307bd026514610a9757838263134008d3146109ed5750816313bc9f20146109cd578163150b7a0214610978578163248a9ca31461094e5781632ab0f5291461092e5781632f2ff15d1461090457816331d50750146108e457816336568abe1461089e578163584b153e1461087557816364d6235314610809578163659495a0146107eb5781637958004c146107a85781638065657f146107865781638f2a0bb0146105e65781638f61f4f5146105ab57816391d1485414610565578163a217fddf1461054a578163b08e51c01461050f578163b1c5f427146104e3578163bc197c811461045d578163c4d252f51461038e578163d45c443514610366578163d547741f14610321578163e38335e5146101e3578163f23a6e611461018b575063f27a0c920361001157346101875781600319360112610187576020906002549051908152f35b5080fd5b8284346101e05760a03660031901126101e0576101a6610c11565b506101af610c2c565b50608435906001600160401b0382116101e057506020926101d291369101610d0f565b505163f23a6e6160e01b8152f35b80fd5b90506101ee36610d86565b9098949591939296976000805160206115258339815191528b528a602052858b208b805260205260ff868c20541615610313575b838314801590610309575b6102db575061024561024c918a868a878b888f61105f565b988961132b565b885b818110610262578961025f8a6113e6565b80f35b80808a7fc2617efa69bab66782fa219543714338489c4e9e178271560a91b82c3f612b588a8a6102d26102ba8f988c6102b3828e6102ad8f60019f6102a8918591610fe4565b61100a565b97610fe4565b359561101e565b906102c782828787611391565b8d5194859485610ea6565b0390a30161024e565b85516001624fcdef60e01b031981529081019283526020830185905260408301849052918291506060010390fd5b508483141561022d565b61031c336112a7565b610222565b9190503461036257806003193601126103625761035e91356103596001610346610c2c565b93838752866020528620015433906112fa565b611484565b5080f35b8280fd5b9050346103625760203660031901126103625760209282913581526001845220549051908152f35b91905034610362576020366003190112610362578135917ffd643c72710c63c0180259aba6b2d05451e3591a24e58b62239378085726f7838085528460205282852033865260205260ff83862054161561044257506103ec83610f2a565b156104265750829082825260016020528120557fbaa1eb22f2a492ba1a5fea61b8df4d27c6c8b5f3971e63bb58fa14ff72eedb708280a280f35b826044925191635ead8eb560e01b835282015260066024820152fd5b604492519163e2517d3f60e01b835233908301526024820152fd5b8284346101e05760a03660031901126101e057610478610c11565b50610481610c2c565b506001600160401b0390604435828111610187576104a29036908601610de7565b50606435828111610187576104ba9036908601610de7565b506084359182116101e057506020926104d591369101610d0f565b505163bc197c8160e01b8152f35b505034610187576020906105086104f936610d86565b9695909594919493929361105f565b9051908152f35b505034610187578160031936011261018757602090517ffd643c72710c63c0180259aba6b2d05451e3591a24e58b62239378085726f7838152f35b50503461018757816003193601126101875751908152602090f35b9050346103625781600319360112610362578160209360ff92610586610c2c565b903582528186528282206001600160a01b039091168252855220549151911615158152f35b505034610187578160031936011261018757602090517fb09aa5aeb3702cfd50b6b62bc4532604938f21248a27a1d5ca736082b6819cc18152f35b919050346103625760c0366003190112610362576001600160401b03908235828111610782576106199036908501610d56565b9360243584811161077e576106319036908301610d56565b9460443590811161077a576106499036908401610d56565b606493919335906084359760a4359361066133611224565b818b14801590610770575b610742575061068289848489858f8b908e61105f565b9961068d858c61119d565b8a8c5b8a8382106106d6578e838e83816106a5578380f35b7f20fda5fd27a1ea7bf5b9567f143ac5470bb059374a27e8f67cb44f946f6d03879160209151908152a28180808380f35b6001927f4cf4410cc57040e44862ef0f45f3dd5a5e02db8eb8add648d4b0e236f1d07dca8b8b6107378f8c88978f92898f8f8f6107259161071f6102a886809461072c99610fe4565b9a610fe4565b359861101e565b915196879687610e6e565b0390a3018b90610690565b88516001624fcdef60e01b031981529081018b81526020810184905260408101929092529081906060010390fd5b50828b141561066c565b8780fd5b8680fd5b8480fd5b5050346101875760209061050861079c36610c6f565b94939093929192610f8f565b838334610187576020366003190112610187576107c58335610f53565b905191838210156107d857602083838152f35b634e487b7160e01b815260218452602490fd5b505034610187578160031936011261018757602090516202a3008152f35b919050346103625760203660031901126103625781359130330361085f57507f11c24f4ead16507c69ac467fbd5e4eed5fb5c699626d2cc6d66421df253886d5906002548151908152836020820152a160025580f35b602491519063e2850c5960e01b82523390820152fd5b8284346101e05760203660031901126101e0575061089560209235610f2a565b90519015158152f35b8383346101875780600319360112610187576108b8610c2c565b90336001600160a01b038316036108d5575061035e919235611484565b5163334bd91960e11b81528390fd5b8284346101e05760203660031901126101e0575061089560209235610f13565b9190503461036257806003193601126103625761035e91356109296001610346610c2c565b611406565b8284346101e05760203660031901126101e0575061089560209235610efb565b90503461036257602036600319011261036257816020936001923581528085522001549051908152f35b8284346101e05760803660031901126101e057610993610c11565b5061099c610c2c565b50606435906001600160401b0382116101e057506020926109bf91369101610d0f565b5051630a85bd0160e11b8152f35b8284346101e05760203660031901126101e0575061089560209235610ecd565b61025f610a6b82610a817fc2617efa69bab66782fa219543714338489c4e9e178271560a91b82c3f612b58610a6289610a2536610c6f565b6000805160206115258339815191528b9a9697939598929a528a602052828b208b805260205260ff838c20541615610a89575b8985858a8a610f8f565b998a988961132b565b610a7783838888611391565b5194859485610ea6565b0390a36113e6565b610a92336112a7565b610a58565b505034610187578160031936011261018757602090516000805160206115258339815191528152f35b90503461036257602036600319011261036257359063ffffffff60e01b82168092036103625760209250630271189760e51b8214918215610b05575b50519015158152f35b909150637965db0b60e01b8114908115610b22575b509038610afc565b6301ffc9a760e01b14905038610b1a565b919050346103625760c036600319011261036257610b4f610c11565b90836024356044356001600160401b038111610362577f4cf4410cc57040e44862ef0f45f3dd5a5e02db8eb8add648d4b0e236f1d07dca95610b9391369101610c42565b95909160643595610bd46084359760a43590610bae33611224565b610bbc8a828d8a8989610f8f565b9a8b97610bc9848a61119d565b8a5196879687610e6e565b0390a381610be0578380f35b7f20fda5fd27a1ea7bf5b9567f143ac5470bb059374a27e8f67cb44f946f6d03879160209151908152a23880808380f35b600435906001600160a01b0382168203610c2757565b600080fd5b602435906001600160a01b0382168203610c2757565b9181601f84011215610c27578235916001600160401b038311610c275760208381860195010111610c2757565b60a0600319820112610c27576004356001600160a01b0381168103610c27579160243591604435906001600160401b038211610c2757610cb191600401610c42565b90916064359060843590565b90601f801991011681019081106001600160401b03821117610cde57604052565b634e487b7160e01b600052604160045260246000fd5b6001600160401b038111610cde57601f01601f191660200190565b81601f82011215610c2757803590610d2682610cf4565b92610d346040519485610cbd565b82845260208383010111610c2757816000926020809301838601378301015290565b9181601f84011215610c27578235916001600160401b038311610c27576020808501948460051b010111610c2757565b9060a0600319830112610c27576001600160401b03600435818111610c275783610db291600401610d56565b93909392602435838111610c275782610dcd91600401610d56565b93909392604435918211610c2757610cb191600401610d56565b81601f82011215610c27578035916020916001600160401b038411610cde578360051b9060405194610e1b85840187610cbd565b85528380860192820101928311610c27578301905b828210610e3e575050505090565b81358152908301908301610e30565b908060209392818452848401376000828201840152601f01601f1916010190565b929093610e9c926080959897969860018060a01b03168552602085015260a0604085015260a0840191610e4d565b9460608201520152565b610eca949260609260018060a01b0316825260208201528160408201520191610e4d565b90565b610ed690610f53565b6004811015610ee55760021490565b634e487b7160e01b600052602160045260246000fd5b610f0490610f53565b6004811015610ee55760031490565b610f1c90610f53565b6004811015610ee557151590565b610f3390610f53565b6004811015610ee55760018114908115610f4b575090565b600291501490565b60005260016020526040600020548015600014610f705750600090565b60018103610f7e5750600390565b421015610f8a57600190565b600290565b94610fc5610fde94959293604051968795602087019960018060a01b03168a52604087015260a0606087015260c0860191610e4d565b91608084015260a083015203601f198101835282610cbd565b51902090565b9190811015610ff45760051b0190565b634e487b7160e01b600052603260045260246000fd5b356001600160a01b0381168103610c275790565b9190811015610ff45760051b81013590601e1981360301821215610c275701908135916001600160401b038311610c27576020018236038113610c27579190565b969294909695919560405196602091828901998060c08b0160a08d525260e08a01919060005b81811061117557505050601f19898203810160408b0152888252976001600160fb1b038111610c27579089969495939897929160051b80928a830137019380888601878703606089015252604085019460408260051b82010195836000925b84841061110c57505050505050610fde9550608084015260a083015203908101835282610cbd565b9193969850919398999496603f198282030184528935601e1984360301811215610c275783018681019190356001600160401b038111610c27578036038313610c275761115e88928392600195610e4d565b9b0194019401918b98969394919a9997959a6110e4565b90919283359060018060a01b038216809203610c275790815285019285019190600101611085565b906111a782610f13565b611204576002548082106111e657504201908142116111d0576000526001602052604060002055565b634e487b7160e01b600052601160045260246000fd5b6044925060405191635433660960e01b835260048301526024820152fd5b604051635ead8eb560e01b81526004810183905260016024820152604490fd5b6001600160a01b031660008181527f3412d5605ac6cd444957cedb533e5dacad6378b4bc819ebe3652188a665066d560205260409020547fb09aa5aeb3702cfd50b6b62bc4532604938f21248a27a1d5ca736082b6819cc19060ff1615611289575050565b604492506040519163e2517d3f60e01b835260048301526024820152fd5b6001600160a01b031660008181527fdae2aa361dfd1ca020a396615627d436107c35eff9fe7738a3512819782d706960205260409020546000805160206115258339815191529060ff1615611289575050565b80600052600060205260406000209160018060a01b0316918260005260205260ff6040600020541615611289575050565b61133481610ecd565b15611372575080151580611362575b61134a5750565b6024906040519063121534c360e31b82526004820152fd5b5061136c81610efb565b15611343565b60449060405190635ead8eb560e01b8252600482015260046024820152fd5b6113db93600093928493826040519384928337810185815203925af13d156113de573d906113be82610cf4565b916113cc6040519384610cbd565b82523d6000602084013e6114f9565b50565b6060906114f9565b6113ef81610ecd565b156113725760005260016020526001604060002055565b9060009180835282602052604083209160018060a01b03169182845260205260ff6040842054161560001461147f57808352826020526040832082845260205260408320600160ff198254161790557f2f8788117e7eff1d82e926ec794901d17c78024a50270940304540a733656f0d339380a4600190565b505090565b9060009180835282602052604083209160018060a01b03169182845260205260ff60408420541660001461147f5780835282602052604083208284526020526040832060ff1981541690557ff6391f5c32d9c69d2a47ea670b442974b53935d1edc7fd64eb21e047a839171b339380a4600190565b909190611522575080511561151057805190602001fd5b60405163d6bda27560e01b8152600490fd5b56fed8aa0f3194971a2a116679f7c2090f6939c8d4e01a2a8d7e41d55e5351469e63a264697066735822122080832839eb95228f7c9b8b1929a7172cbe1666e1bceb6b7a57db7f88461da4b564736f6c634300081800332f8788117e7eff1d82e926ec794901d17c78024a50270940304540a733656f0d",
  "linkReferences": {},
  "deployedLinkReferences": {}
}