{
  "_format": "hh-sol-artifact-1",
  "contractName": "Points",
  "sourceName": "contracts/Points.sol",
  "abi": [
    {
      "inputs": [],
      "stateMutability": "nonpayable",
      "type": "constructor"
    },
    {
      "inputs": [],
      "name": "AccessControlBadConfirmation",
      "type": "error"
    },
    {
      "inputs": [
        {
          "internalType": "address",
          "name": "account",
          "type": "address"
        },
        {
          "internalType": "bytes32",
          "name": "neededRole",
          "type": "bytes32"
        }
      ],
      "name": "AccessControlUnauthorizedAccount",
      "type": "error"
    },
    {
      "anonymous": false,
      "inputs": [
        {
          "indexed": true,
          "internalType": "address",
          "name": "user",
          "type": "address"
        },
        {
          "indexed": false,
          "internalType": "uint256",
          "name": "amount",
          "type": "uint256"
        },
        {
          "indexed": false,
          "internalType": "uint256",
          "name": "total",
          "type": "uint256"
        }
      ],
      "name": "PointsAdded",
      "type": "event"
    },
    {
      "anonymous": false,
      "inputs": [
        {
          "indexed": true,
          "internalType": "address",
          "name": "user",
          "type": "address"
        },
        {
          "indexed": false,
          "internalType": "uint256",
          "name": "bonus",
          "type": "uint256"
        }
      ],
      "name": "PredictionBonusAdded",
      "type": "event"
    },
    {
      "anonymous": false,
      "inputs": [
        {
          "indexed": true,
          "internalType": "bytes32",
          "name": "role",
          "type": "bytes32"
        },
        {
          "indexed": true,
          "internalType": "bytes32",
          "name": "previousAdminRole",
          "type": "bytes32"
        },
        {
          "indexed": true,
          "internalType": "bytes32",
          "name": "newAdminRole",
          "type": "bytes32"
        }
      ],
      "name": "RoleAdminChanged",
      "type": "event"
    },
    {
      "anonymous": false,
      "inputs": [
        {
          "indexed": true,
          "internalType": "bytes32",
          "name": "role",
          "type": "bytes32"
        },
        {
          "indexed": true,
          "internalType": "address",
          "name": "account",
          "type": "address"
        },
        {
          "indexed": true,
          "internalType": "address",
          "name": "sender",
          "type": "address"
        }
      ],
      "name": "RoleGranted",
      "type": "event"
    },
    {
      "anonymous": false,
      "inputs": [
        {
          "indexed": true,
          "internalType": "bytes32",
          "name": "role",
          "type": "bytes32"
        },
        {
          "indexed": true,
          "internalType": "address",
          "name": "account",
          "type": "address"
        },
        {
          "indexed": true,
          "internalType": "address",
          "name": "sender",
          "type": "address"
        }
      ],
      "name": "RoleRevoked",
      "type": "event"
    },
    {
      "anonymous": false,
      "inputs": [
        {
          "indexed": true,
          "internalType": "address",
          "name": "user",
          "type": "address"
        },
        {
          "indexed": false,
          "internalType": "uint256",
          "name": "streak",
          "type": "uint256"
        }
      ],
      "name": "StreakUpdated",
      "type": "event"
    },
    {
      "inputs": [],
      "name": "DEFAULT_ADMIN_ROLE",
      "outputs": [
        {
          "internalType": "bytes32",
          "name": "",
          "type": "bytes32"
        }
      ],
      "stateMutability": "view",
      "type": "function"
    },
    {
      "inputs": [],
      "name": "OPERATOR_ROLE",
      "outputs": [
        {
          "internalType": "bytes32",
          "name": "",
          "type": "bytes32"
        }
      ],
      "stateMutability": "view",
      "type": "function"
    },
    {
      "inputs": [
        {
          "internalType": "address",
          "name": "user",
          "type": "address"
        },
        {
          "internalType": "uint256",
          "name": "amount",
          "type": "uint256"
        },
        {
          "internalType": "uint256",
          "name": "streak",
          "type": "uint256"
        }
      ],
      "name": "addPoints",
      "outputs": [],
      "stateMutability": "nonpayable",
      "type": "function"
    },
    {
      "inputs": [
        {
          "internalType": "address",
          "name": "user",
          "type": "address"
        },
        {
          "internalType": "uint256",
          "name": "bonus",
          "type": "uint256"
        },
        {
          "internalType": "bool",
          "name": "correct",
          "type": "bool"
        }
      ],
      "name": "addPredictionBonus",
      "outputs": [],
      "stateMutability": "nonpayable",
      "type": "function"
    },
    {
      "inputs": [
        {
          "internalType": "uint256",
          "name": "",
          "type": "uint256"
        }
      ],
      "name": "allUsers",
      "outputs": [
        {
          "internalType": "address",
          "name": "",
          "type": "address"
        }
      ],
      "stateMutability": "view",
      "type": "function"
    },
    {
      "inputs": [
        {
          "internalType": "bytes32",
          "name": "role",
          "type": "bytes32"
        }
      ],
      "name": "getRoleAdmin",
      "outputs": [
        {
          "internalType": "bytes32",
          "name": "",
          "type": "bytes32"
        }
      ],
      "stateMutability": "view",
      "type": "function"
    },
    {
      "inputs": [
        {
          "internalType": "uint256",
          "name": "count",
          "type": "uint256"
        }
      ],
      "name": "getTopUsers",
      "outputs": [
        {
          "internalType": "address[]",
          "name": "",
          "type": "address[]"
        },
        {
          "internalType": "uint256[]",
          "name": "",
          "type": "uint256[]"
        }
      ],
      "stateMutability": "view",
      "type": "function"
    },
    {
      "inputs": [],
      "name": "getUserCount",
      "outputs": [
        {
          "internalType": "uint256",
          "name": "",
          "type": "uint256"
        }
      ],
      "stateMutability": "view",
      "type": "function"
    },
    {
      "inputs": [
        {
          "internalType": "address",
          "name": "user",
          "type": "address"
        }
      ],
      "name": "getUserPoints",
      "outputs": [
        {
          "components": [
            {
              "internalType": "uint256",
              "name": "points",
              "type": "uint256"
            },
            {
              "internalType": "uint256",
              "name": "weeklyPoints",
              "type": "uint256"
            },
            {
              "internalType": "uint256",
              "name": "streak",
              "type": "uint256"
            },
            {
              "internalType": "uint256",
              "name": "lastCheckIn",
              "type": "uint256"
            },
            {
              "internalType": "uint256",
              "name": "totalCheckIns",
              "type": "uint256"
            },
            {
              "internalType": "uint256",
              "name": "correctPredictions",
              "type": "uint256"
            },
            {
              "internalType": "uint256",
              "name": "totalPredictions",
              "type": "uint256"
            }
          ],
          "internalType": "struct Points.UserPoints",
          "name": "",
          "type": "tuple"
        }
      ],
      "stateMutability": "view",
      "type": "function"
    },
    {
      "inputs": [
        {
          "internalType": "bytes32",
          "name": "role",
          "type": "bytes32"
        },
        {
          "internalType": "address",
          "name": "account",
          "type": "address"
        }
      ],
      "name": "grantRole",
      "outputs": [],
      "stateMutability": "nonpayable",
      "type": "function"
    },
    {
      "inputs": [
        {
          "internalType": "bytes32",
          "name": "role",
          "type": "bytes32"
        },
        {
          "internalType": "address",
          "name": "account",
          "type": "address"
        }
      ],
      "name": "hasRole",
      "outputs": [
        {
          "internalType": "bool",
          "name": "",
          "type": "bool"
        }
      ],
      "stateMutability": "view",
      "type": "function"
    },
    {
      "inputs": [
        {
          "internalType": "bytes32",
          "name": "role",
          "type": "bytes32"
        },
        {
          "internalType": "address",
          "name": "callerConfirmation",
          "type": "address"
        }
      ],
      "name": "renounceRole",
      "outputs": [],
      "stateMutability": "nonpayable",
      "type": "function"
    },
    {
      "inputs": [],
      "name": "resetAllWeeklyPoints",
      "outputs": [],
      "stateMutability": "nonpayable",
      "type": "function"
    },
    {
      "inputs": [
        {
          "internalType": "address[]",
          "name": "addrs",
          "type": "address[]"
        }
      ],
      "name": "resetWeeklyPoints",
      "outputs": [],
      "stateMutability": "nonpayable",
      "type": "function"
    },
    {
      "inputs": [
        {
          "internalType": "uint256",
          "name": "start",
          "type": "uint256"
        },
        {
          "internalType": "uint256",
          "name": "count",
          "type": "uint256"
        }
      ],
      "name": "resetWeeklyPointsBatch",
      "outputs": [
        {
          "internalType": "uint256",
          "name": "processed",
          "type": "uint256"
        }
      ],
      "stateMutability": "nonpayable",
      "type": "function"
    },
    {
      "inputs": [
        {
          "internalType": "bytes32",
          "name": "role",
          "type": "bytes32"
        },
        {
          "internalType": "address",
          "name": "account",
          "type": "address"
        }
      ],
      "name": "revokeRole",
      "outputs": [],
      "stateMutability": "nonpayable",
      "type": "function"
    },
    {
      "inputs": [
        {
          "internalType": "bytes4",
          "name": "interfaceId",
          "type": "bytes4"
        }
      ],
      "name": "supportsInterface",
      "outputs": [
        {
          "internalType": "bool",
          "name": "",
          "type": "bool"
        }
      ],
      "stateMutability": "view",
      "type": "function"
    },
    {
      "inputs": [],
      "name": "totalPointsIssued",
      "outputs": [
        {
          "internalType": "uint256",
          "name": "",
          "type": "uint256"
        }
      ],
      "stateMutability": "view",
      "type": "function"
    },
    {
      "inputs": [
        {
          "internalType": "address",
          "name": "",
          "type": "address"
        }
      ],
      "name": "users",
      "outputs": [
        {
          "internalType": "uint256",
          "name": "points",
          "type": "uint256"
        },
        {
          "internalType": "uint256",
          "name": "weeklyPoints",
          "type": "uint256"
        },
        {
          "internalType": "uint256",
          "name": "streak",
          "type": "uint256"
        },
        {
          "internalType": "uint256",
          "name": "lastCheckIn",
          "type": "uint256"
        },
        {
          "internalType": "uint256",
          "name": "totalCheckIns",
          "type": "uint256"
        },
        {
          "internalType": "uint256",
          "name": "correctPredictions",
          "type": "uint256"
        },
        {
          "internalType": "uint256",
          "name": "totalPredictions",
          "type": "uint256"
        }
      ],
      "stateMutability": "view",
      "type": "function"
    }
  ],
  "bytecode": "0x6080604052346100225761001233610027565b50604051610e0290816100b88239f35b600080fd5b6001600160a01b031660008181527fad3228b676f7d3cd4284a5443f17f1962b36e491b30a40b2405849e597ba5fb5602052604081205490919060ff166100b357818052816020526040822081835260205260408220600160ff1982541617905533917f2f8788117e7eff1d82e926ec794901d17c78024a50270940304540a733656f0d8180a4600190565b509056fe608080604052600436101561001357600080fd5b60003560e01c90816301ffc9a714610a105750806323d14d60146108d2578063248a9ca3146108a35780632f2ff15d1461086457806336568abe1461081d57806359fa543c146106f157806373140f051461069b5780638d101bc31461066a57806391d148541461061d57806393ccb2ad14610586578063a217fddf1461056a578063a2bdedf414610528578063a87430ba146104ad578063aeefe31f146103ca578063b5cb15f7146103ac578063d547741f1461036b578063de75aa6c1461014e578063f5b541a6146101135763fd1c8811146100f057600080fd5b3461010e57600036600319011261010e576020600454604051908152f35b600080fd5b3461010e57600036600319011261010e5760206040517f97667070c54ef182b0f5858b034beac1b6f3089aa2d3188bb1e8929f4fa9b9298152f35b3461010e57602036600319011261010e57600254600435808210156103665750805b61018161017c82610c0d565b610be7565b9181835261018e82610c0d565b601f19929083013660208601376101a761017c82610c0d565b928184526101b482610c0d565b0136602085013760005b8281106102515783856040519182916040830160408452815180915260206060850192019060005b81811061022f5750505082810360208401526020808351928381520192019060005b818110610216575050500390f35b8251845285945060209384019390920191600101610208565b82516001600160a01b03168452869550602093840193909201916001016101e6565b61025a81610a8f565b905460018060a01b039160031b1c16600052600180602052806040600020015460005b848110610290575b5050506001016101be565b61029a8188610c25565b5182116102a857820161027d565b9091506000198401848111610350575b8181116102f95750906102f083926102d1600195610a8f565b868060a01b0391549060031b1c166102e9828b610c25565b5287610c25565b52908680610285565b80600019810111610350576001600160a01b0361031a60001983018a610c25565b5116610326828a610c25565b52610335600019820188610c25565b516103408289610c25565b52801561035057600019016102b8565b634e487b7160e01b600052601160045260246000fd5b610170565b3461010e57604036600319011261010e576103aa60043561038a610a79565b908060005260006020526103a5600160406000200154610cb3565b610d57565b005b3461010e57600036600319011261010e576020600254604051908152f35b3461010e57602036600319011261010e576103e3610a63565b600060c06103ef610bc7565b8281528260208201528260408201528260608201528260808201528260a0820152015260018060a01b0316600052600160205260e06040600020610431610bc7565b815491828252600181015460208301908152600282015460408401908152600383015490606085019182526004840154926080860193845260c0600660058701549660a08901978852015496019586526040519687525160208701525160408601525160608501525160808401525160a08301525160c0820152f35b3461010e57602036600319011261010e576001600160a01b036104ce610a63565b16600052600160205260e06040600020805490600181015490600281015460038201546004830154916006600585015494015494604051968752602087015260408601526060850152608084015260a083015260c0820152f35b3461010e57602036600319011261010e5760043560025481101561010e57610551602091610a8f565b905460405160039290921b1c6001600160a01b03168152f35b3461010e57600036600319011261010e57602060405160008152f35b3461010e5760208060031936011261010e5767ffffffffffffffff60043581811161010e573660238201121561010e57806004013591821161010e5760249060053660248560051b8401011161010e576105de610c39565b60005b8481106105ea57005b80821b83018401356001600160a01b038116919082900361010e57600191600052600082808952604082200155016105e1565b3461010e57604036600319011261010e57610636610a79565b600435600052600060205260406000209060018060a01b0316600052602052602060ff604060002054166040519015158152f35b3461010e57604036600319011261010e57610683610c39565b6020610693602435600435610b50565b604051908152f35b3461010e57600036600319011261010e576106b4610c39565b60005b6002548110156103aa57806106cd600192610a8f565b838060a01b0391549060031b1c1660005260008280602052604082200155016106b7565b3461010e57606036600319011261010e5761070a610a63565b60243560443591821515830361010e577fbe4b85b753d913430926be08cd8587689edb01eae41d00771ef3b5ed6194d27191610744610c39565b60018060a01b03821693846000526020926003845260ff60406000205416156107f6575b5060018352604060002061077d838254610b34565b90558460005260018352600160406000200161079a838254610b34565b9055846000526001835260066040600020016107b68154610b41565b90556107d5575b6107c981600454610b34565b600455604051908152a2005b836000526001825260056040600020016107ef8154610b41565b90556107bd565b6107ff90610adc565b84600052600383526040600020600160ff1982541617905585610768565b3461010e57604036600319011261010e57610836610a79565b336001600160a01b03821603610852576103aa90600435610d57565b60405163334bd91960e11b8152600490fd5b3461010e57604036600319011261010e576103aa600435610883610a79565b9080600052600060205261089e600160406000200154610cb3565b610cd9565b3461010e57602036600319011261010e5760043560005260006020526020600160406000200154604051908152f35b3461010e57606036600319011261010e5760407f46f6fe577ecfefe55b0f14f0b42ddb4c22db1fb9bade43aa02c5ef4e5439512e61090e610a63565b60443560243561091c610c39565b7f27909057bad6ce6fc50ecea73759a0da1ec7790bbb0144577bf31372a78b3e6460018060a01b038416958692836000526020956003875260ff836000205416156109ea575b506001865281600020610976828254610b34565b9055836000526001865260018260002001610992828254610b34565b90558360005260018652600482600020866002820155426003820155016109b98154610b41565b90556109c781600454610b34565b60045583600052600186528160002054825191825286820152a2604051908152a2005b6109f390610adc565b836000526003865281600020600160ff1982541617905588610962565b3461010e57602036600319011261010e576004359063ffffffff60e01b821680920361010e57602091637965db0b60e01b8114908115610a52575b5015158152f35b6301ffc9a760e01b14905083610a4b565b600435906001600160a01b038216820361010e57565b602435906001600160a01b038216820361010e57565b600254811015610ac65760026000527f405787fa12a823e0f2b7631cc41b3ba8828b3321ca811111fa75cd3aa3bb5ace0190600090565b634e487b7160e01b600052603260045260246000fd5b60025468010000000000000000811015610b1e57806001610b009201600255610a8f565b60018060a09493941b038084549260031b9316831b921b1916179055565b634e487b7160e01b600052604160045260246000fd5b9190820180921161035057565b60001981146103505760010190565b6002549182821015610bbf57610b669082610b34565b91808311610bb7575b50805b828110610b86575081039081116103505790565b80610b92600192610a8f565b905490600091848060a01b039160031b1c168152828060205260408220015501610b72565b915038610b6f565b505050600090565b6040519060e0820182811067ffffffffffffffff821117610b1e57604052565b6040519190601f01601f1916820167ffffffffffffffff811183821017610b1e57604052565b67ffffffffffffffff8111610b1e5760051b60200190565b8051821015610ac65760209160051b010190565b3360009081527fee57cd81e84075558e8fcc182a1f4393f91fc97f963a136e66b7f949a62f319f60205260409020547f97667070c54ef182b0f5858b034beac1b6f3089aa2d3188bb1e8929f4fa9b9299060ff1615610c955750565b6044906040519063e2517d3f60e01b82523360048301526024820152fd5b80600052600060205260406000203360005260205260ff6040600020541615610c955750565b9060009180835282602052604083209160018060a01b03169182845260205260ff60408420541615600014610d5257808352826020526040832082845260205260408320600160ff198254161790557f2f8788117e7eff1d82e926ec794901d17c78024a50270940304540a733656f0d339380a4600190565b505090565b9060009180835282602052604083209160018060a01b03169182845260205260ff604084205416600014610d525780835282602052604083208284526020526040832060ff1981541690557ff6391f5c32d9c69d2a47ea670b442974b53935d1edc7fd64eb21e047a839171b339380a460019056fea264697066735822122055d8778ce86fb7e3cefade1f573873036befdb6f2bf33f4150c0224fd18a114e64736f6c63430008180033",
  "linkReferences": {},
  "deployedLinkReferences": {}
}